{
	"contracts/project.sol": {
		"CrowdFunding": {
			"abi": [
				{
					"inputs": [
						{
							"internalType": "string",
							"name": "_id",
							"type": "string"
						},
						{
							"internalType": "string",
							"name": "_name",
							"type": "string"
						},
						{
							"internalType": "string",
							"name": "_description",
							"type": "string"
						},
						{
							"internalType": "uint256",
							"name": "_goal",
							"type": "uint256"
						}
					],
					"stateMutability": "nonpayable",
					"type": "constructor"
				},
				{
					"anonymous": false,
					"inputs": [
						{
							"indexed": false,
							"internalType": "string",
							"name": "projectId",
							"type": "string"
						},
						{
							"indexed": false,
							"internalType": "enum CrowdFunding.State",
							"name": "newState",
							"type": "uint8"
						}
					],
					"name": "changeProjectStateLog",
					"type": "event"
				},
				{
					"anonymous": false,
					"inputs": [
						{
							"indexed": false,
							"internalType": "string",
							"name": "projectId",
							"type": "string"
						},
						{
							"indexed": false,
							"internalType": "uint256",
							"name": "newFunds",
							"type": "uint256"
						}
					],
					"name": "fundProjectLog",
					"type": "event"
				},
				{
					"inputs": [
						{
							"internalType": "enum CrowdFunding.State",
							"name": "newState",
							"type": "uint8"
						}
					],
					"name": "changeProjectState",
					"outputs": [],
					"stateMutability": "nonpayable",
					"type": "function"
				},
				{
					"inputs": [],
					"name": "fundProject",
					"outputs": [],
					"stateMutability": "payable",
					"type": "function"
				},
				{
					"inputs": [],
					"name": "project",
					"outputs": [
						{
							"internalType": "string",
							"name": "id",
							"type": "string"
						},
						{
							"internalType": "string",
							"name": "name",
							"type": "string"
						},
						{
							"internalType": "string",
							"name": "description",
							"type": "string"
						},
						{
							"internalType": "uint256",
							"name": "goal",
							"type": "uint256"
						},
						{
							"internalType": "address payable",
							"name": "author",
							"type": "address"
						},
						{
							"internalType": "uint256",
							"name": "funds",
							"type": "uint256"
						},
						{
							"internalType": "enum CrowdFunding.State",
							"name": "state",
							"type": "uint8"
						}
					],
					"stateMutability": "view",
					"type": "function"
				}
			],
			"devdoc": {
				"kind": "dev",
				"methods": {},
				"version": 1
			},
			"evm": {
				"assembly": "    /* \"contracts/project.sol\":74:1619  contract CrowdFunding {\r... */\n  mstore(0x40, 0x80)\n    /* \"contracts/project.sol\":394:593  constructor(string memory _id, string memory _name, string memory _description, uint _goal) {\r... */\n  callvalue\n  dup1\n  iszero\n  tag_1\n  jumpi\n  0x00\n  dup1\n  revert\ntag_1:\n  pop\n  mload(0x40)\n  sub(codesize, bytecodeSize)\n  dup1\n  bytecodeSize\n  dup4\n  codecopy\n  dup2\n  dup2\n  add\n  0x40\n  mstore\n  dup2\n  add\n  swap1\n  tag_2\n  swap2\n  swap1\n  tag_3\n  jump\t// in\ntag_2:\n    /* \"contracts/project.sol\":507:585  Project(_id, _name, _description, _goal, payable(msg.sender), 0, State.Opened) */\n  mload(0x40)\n  dup1\n  0xe0\n  add\n  0x40\n  mstore\n  dup1\n    /* \"contracts/project.sol\":515:518  _id */\n  dup6\n    /* \"contracts/project.sol\":507:585  Project(_id, _name, _description, _goal, payable(msg.sender), 0, State.Opened) */\n  dup2\n  mstore\n  0x20\n  add\n    /* \"contracts/project.sol\":520:525  _name */\n  dup5\n    /* \"contracts/project.sol\":507:585  Project(_id, _name, _description, _goal, payable(msg.sender), 0, State.Opened) */\n  dup2\n  mstore\n  0x20\n  add\n    /* \"contracts/project.sol\":527:539  _description */\n  dup4\n    /* \"contracts/project.sol\":507:585  Project(_id, _name, _description, _goal, payable(msg.sender), 0, State.Opened) */\n  dup2\n  mstore\n  0x20\n  add\n    /* \"contracts/project.sol\":541:546  _goal */\n  dup3\n    /* \"contracts/project.sol\":507:585  Project(_id, _name, _description, _goal, payable(msg.sender), 0, State.Opened) */\n  dup2\n  mstore\n  0x20\n  add\n    /* \"contracts/project.sol\":556:566  msg.sender */\n  caller\n    /* \"contracts/project.sol\":507:585  Project(_id, _name, _description, _goal, payable(msg.sender), 0, State.Opened) */\n  0xffffffffffffffffffffffffffffffffffffffff\n  and\n  dup2\n  mstore\n  0x20\n  add\n    /* \"contracts/project.sol\":569:570  0 */\n  0x00\n    /* \"contracts/project.sol\":507:585  Project(_id, _name, _description, _goal, payable(msg.sender), 0, State.Opened) */\n  dup2\n  mstore\n  0x20\n  add\n    /* \"contracts/project.sol\":572:584  State.Opened */\n  0x00\n    /* \"contracts/project.sol\":507:585  Project(_id, _name, _description, _goal, payable(msg.sender), 0, State.Opened) */\n  0x01\n  dup2\n  gt\n  iszero\n  tag_6\n  jumpi\n  tag_7\n  tag_8\n  jump\t// in\ntag_7:\ntag_6:\n  dup2\n  mstore\n  pop\n    /* \"contracts/project.sol\":497:504  project */\n  0x00\n    /* \"contracts/project.sol\":497:585  project = Project(_id, _name, _description, _goal, payable(msg.sender), 0, State.Opened) */\n  dup1\n  dup3\n  add\n  mload\n  dup2\n  0x00\n  add\n  swap1\n  dup1\n  mload\n  swap1\n  0x20\n  add\n  swap1\n  tag_9\n  swap3\n  swap2\n  swap1\n  tag_10\n  jump\t// in\ntag_9:\n  pop\n  0x20\n  dup3\n  add\n  mload\n  dup2\n  0x01\n  add\n  swap1\n  dup1\n  mload\n  swap1\n  0x20\n  add\n  swap1\n  tag_11\n  swap3\n  swap2\n  swap1\n  tag_10\n  jump\t// in\ntag_11:\n  pop\n  0x40\n  dup3\n  add\n  mload\n  dup2\n  0x02\n  add\n  swap1\n  dup1\n  mload\n  swap1\n  0x20\n  add\n  swap1\n  tag_12\n  swap3\n  swap2\n  swap1\n  tag_10\n  jump\t// in\ntag_12:\n  pop\n  0x60\n  dup3\n  add\n  mload\n  dup2\n  0x03\n  add\n  sstore\n  0x80\n  dup3\n  add\n  mload\n  dup2\n  0x04\n  add\n  exp(0x0100, 0x00)\n  dup2\n  sload\n  dup2\n  0xffffffffffffffffffffffffffffffffffffffff\n  mul\n  not\n  and\n  swap1\n  dup4\n  0xffffffffffffffffffffffffffffffffffffffff\n  and\n  mul\n  or\n  swap1\n  sstore\n  pop\n  0xa0\n  dup3\n  add\n  mload\n  dup2\n  0x05\n  add\n  sstore\n  0xc0\n  dup3\n  add\n  mload\n  dup2\n  0x06\n  add\n  exp(0x0100, 0x00)\n  dup2\n  sload\n  dup2\n  0xff\n  mul\n  not\n  and\n  swap1\n  dup4\n  0x01\n  dup2\n  gt\n  iszero\n  tag_13\n  jumpi\n  tag_14\n  tag_8\n  jump\t// in\ntag_14:\ntag_13:\n  mul\n  or\n  swap1\n  sstore\n  pop\n  swap1\n  pop\n  pop\n    /* \"contracts/project.sol\":394:593  constructor(string memory _id, string memory _name, string memory _description, uint _goal) {\r... */\n  pop\n  pop\n  pop\n  pop\n    /* \"contracts/project.sol\":74:1619  contract CrowdFunding {\r... */\n  jump(tag_15)\ntag_10:\n  dup3\n  dup1\n  sload\n  tag_16\n  swap1\n  tag_17\n  jump\t// in\ntag_16:\n  swap1\n  0x00\n  mstore\n  keccak256(0x00, 0x20)\n  swap1\n  0x1f\n  add\n  0x20\n  swap1\n  div\n  dup2\n  add\n  swap3\n  dup3\n  tag_19\n  jumpi\n  0x00\n  dup6\n  sstore\n  jump(tag_18)\ntag_19:\n  dup3\n  0x1f\n  lt\n  tag_20\n  jumpi\n  dup1\n  mload\n  not(0xff)\n  and\n  dup4\n  dup1\n  add\n  or\n  dup6\n  sstore\n  jump(tag_18)\ntag_20:\n  dup3\n  dup1\n  add\n  0x01\n  add\n  dup6\n  sstore\n  dup3\n  iszero\n  tag_18\n  jumpi\n  swap2\n  dup3\n  add\ntag_21:\n  dup3\n  dup2\n  gt\n  iszero\n  tag_22\n  jumpi\n  dup3\n  mload\n  dup3\n  sstore\n  swap2\n  0x20\n  add\n  swap2\n  swap1\n  0x01\n  add\n  swap1\n  jump(tag_21)\ntag_22:\ntag_18:\n  pop\n  swap1\n  pop\n  tag_23\n  swap2\n  swap1\n  tag_24\n  jump\t// in\ntag_23:\n  pop\n  swap1\n  jump\t// out\ntag_24:\ntag_25:\n  dup1\n  dup3\n  gt\n  iszero\n  tag_26\n  jumpi\n  0x00\n  dup2\n  0x00\n  swap1\n  sstore\n  pop\n  0x01\n  add\n  jump(tag_25)\ntag_26:\n  pop\n  swap1\n  jump\t// out\n    /* \"#utility.yul\":7:428   */\ntag_28:\n    /* \"#utility.yul\":96:101   */\n  0x00\n    /* \"#utility.yul\":121:187   */\n  tag_30\n    /* \"#utility.yul\":137:186   */\n  tag_31\n    /* \"#utility.yul\":179:185   */\n  dup5\n    /* \"#utility.yul\":137:186   */\n  tag_32\n  jump\t// in\ntag_31:\n    /* \"#utility.yul\":121:187   */\n  tag_33\n  jump\t// in\ntag_30:\n    /* \"#utility.yul\":112:187   */\n  swap1\n  pop\n    /* \"#utility.yul\":210:216   */\n  dup3\n    /* \"#utility.yul\":203:208   */\n  dup2\n    /* \"#utility.yul\":196:217   */\n  mstore\n    /* \"#utility.yul\":248:252   */\n  0x20\n    /* \"#utility.yul\":241:246   */\n  dup2\n    /* \"#utility.yul\":237:253   */\n  add\n    /* \"#utility.yul\":286:289   */\n  dup5\n    /* \"#utility.yul\":277:283   */\n  dup5\n    /* \"#utility.yul\":272:275   */\n  dup5\n    /* \"#utility.yul\":268:284   */\n  add\n    /* \"#utility.yul\":265:290   */\n  gt\n    /* \"#utility.yul\":262:374   */\n  iszero\n  tag_34\n  jumpi\n    /* \"#utility.yul\":293:372   */\n  tag_35\n  tag_36\n  jump\t// in\ntag_35:\n    /* \"#utility.yul\":262:374   */\ntag_34:\n    /* \"#utility.yul\":383:422   */\n  tag_37\n    /* \"#utility.yul\":415:421   */\n  dup5\n    /* \"#utility.yul\":410:413   */\n  dup3\n    /* \"#utility.yul\":405:408   */\n  dup6\n    /* \"#utility.yul\":383:422   */\n  tag_38\n  jump\t// in\ntag_37:\n    /* \"#utility.yul\":102:428   */\n  pop\n    /* \"#utility.yul\":7:428   */\n  swap4\n  swap3\n  pop\n  pop\n  pop\n  jump\t// out\n    /* \"#utility.yul\":448:803   */\ntag_39:\n    /* \"#utility.yul\":515:520   */\n  0x00\n    /* \"#utility.yul\":564:567   */\n  dup3\n    /* \"#utility.yul\":557:561   */\n  0x1f\n    /* \"#utility.yul\":549:555   */\n  dup4\n    /* \"#utility.yul\":545:562   */\n  add\n    /* \"#utility.yul\":541:568   */\n  slt\n    /* \"#utility.yul\":531:653   */\n  tag_41\n  jumpi\n    /* \"#utility.yul\":572:651   */\n  tag_42\n  tag_43\n  jump\t// in\ntag_42:\n    /* \"#utility.yul\":531:653   */\ntag_41:\n    /* \"#utility.yul\":682:688   */\n  dup2\n    /* \"#utility.yul\":676:689   */\n  mload\n    /* \"#utility.yul\":707:797   */\n  tag_44\n    /* \"#utility.yul\":793:796   */\n  dup5\n    /* \"#utility.yul\":785:791   */\n  dup3\n    /* \"#utility.yul\":778:782   */\n  0x20\n    /* \"#utility.yul\":770:776   */\n  dup7\n    /* \"#utility.yul\":766:783   */\n  add\n    /* \"#utility.yul\":707:797   */\n  tag_28\n  jump\t// in\ntag_44:\n    /* \"#utility.yul\":698:797   */\n  swap2\n  pop\n    /* \"#utility.yul\":521:803   */\n  pop\n    /* \"#utility.yul\":448:803   */\n  swap3\n  swap2\n  pop\n  pop\n  jump\t// out\n    /* \"#utility.yul\":809:952   */\ntag_45:\n    /* \"#utility.yul\":866:871   */\n  0x00\n    /* \"#utility.yul\":897:903   */\n  dup2\n    /* \"#utility.yul\":891:904   */\n  mload\n    /* \"#utility.yul\":882:904   */\n  swap1\n  pop\n    /* \"#utility.yul\":913:946   */\n  tag_47\n    /* \"#utility.yul\":940:945   */\n  dup2\n    /* \"#utility.yul\":913:946   */\n  tag_48\n  jump\t// in\ntag_47:\n    /* \"#utility.yul\":809:952   */\n  swap3\n  swap2\n  pop\n  pop\n  jump\t// out\n    /* \"#utility.yul\":958:2297   */\ntag_3:\n    /* \"#utility.yul\":1085:1091   */\n  0x00\n    /* \"#utility.yul\":1093:1099   */\n  dup1\n    /* \"#utility.yul\":1101:1107   */\n  0x00\n    /* \"#utility.yul\":1109:1115   */\n  dup1\n    /* \"#utility.yul\":1158:1161   */\n  0x80\n    /* \"#utility.yul\":1146:1155   */\n  dup6\n    /* \"#utility.yul\":1137:1144   */\n  dup8\n    /* \"#utility.yul\":1133:1156   */\n  sub\n    /* \"#utility.yul\":1129:1162   */\n  slt\n    /* \"#utility.yul\":1126:1246   */\n  iszero\n  tag_50\n  jumpi\n    /* \"#utility.yul\":1165:1244   */\n  tag_51\n  tag_52\n  jump\t// in\ntag_51:\n    /* \"#utility.yul\":1126:1246   */\ntag_50:\n    /* \"#utility.yul\":1306:1307   */\n  0x00\n    /* \"#utility.yul\":1295:1304   */\n  dup6\n    /* \"#utility.yul\":1291:1308   */\n  add\n    /* \"#utility.yul\":1285:1309   */\n  mload\n    /* \"#utility.yul\":1336:1354   */\n  0xffffffffffffffff\n    /* \"#utility.yul\":1328:1334   */\n  dup2\n    /* \"#utility.yul\":1325:1355   */\n  gt\n    /* \"#utility.yul\":1322:1439   */\n  iszero\n  tag_53\n  jumpi\n    /* \"#utility.yul\":1358:1437   */\n  tag_54\n  tag_55\n  jump\t// in\ntag_54:\n    /* \"#utility.yul\":1322:1439   */\ntag_53:\n    /* \"#utility.yul\":1463:1537   */\n  tag_56\n    /* \"#utility.yul\":1529:1536   */\n  dup8\n    /* \"#utility.yul\":1520:1526   */\n  dup3\n    /* \"#utility.yul\":1509:1518   */\n  dup9\n    /* \"#utility.yul\":1505:1527   */\n  add\n    /* \"#utility.yul\":1463:1537   */\n  tag_39\n  jump\t// in\ntag_56:\n    /* \"#utility.yul\":1453:1537   */\n  swap5\n  pop\n    /* \"#utility.yul\":1256:1547   */\n  pop\n    /* \"#utility.yul\":1607:1609   */\n  0x20\n    /* \"#utility.yul\":1596:1605   */\n  dup6\n    /* \"#utility.yul\":1592:1610   */\n  add\n    /* \"#utility.yul\":1586:1611   */\n  mload\n    /* \"#utility.yul\":1638:1656   */\n  0xffffffffffffffff\n    /* \"#utility.yul\":1630:1636   */\n  dup2\n    /* \"#utility.yul\":1627:1657   */\n  gt\n    /* \"#utility.yul\":1624:1741   */\n  iszero\n  tag_57\n  jumpi\n    /* \"#utility.yul\":1660:1739   */\n  tag_58\n  tag_55\n  jump\t// in\ntag_58:\n    /* \"#utility.yul\":1624:1741   */\ntag_57:\n    /* \"#utility.yul\":1765:1839   */\n  tag_59\n    /* \"#utility.yul\":1831:1838   */\n  dup8\n    /* \"#utility.yul\":1822:1828   */\n  dup3\n    /* \"#utility.yul\":1811:1820   */\n  dup9\n    /* \"#utility.yul\":1807:1829   */\n  add\n    /* \"#utility.yul\":1765:1839   */\n  tag_39\n  jump\t// in\ntag_59:\n    /* \"#utility.yul\":1755:1839   */\n  swap4\n  pop\n    /* \"#utility.yul\":1557:1849   */\n  pop\n    /* \"#utility.yul\":1909:1911   */\n  0x40\n    /* \"#utility.yul\":1898:1907   */\n  dup6\n    /* \"#utility.yul\":1894:1912   */\n  add\n    /* \"#utility.yul\":1888:1913   */\n  mload\n    /* \"#utility.yul\":1940:1958   */\n  0xffffffffffffffff\n    /* \"#utility.yul\":1932:1938   */\n  dup2\n    /* \"#utility.yul\":1929:1959   */\n  gt\n    /* \"#utility.yul\":1926:2043   */\n  iszero\n  tag_60\n  jumpi\n    /* \"#utility.yul\":1962:2041   */\n  tag_61\n  tag_55\n  jump\t// in\ntag_61:\n    /* \"#utility.yul\":1926:2043   */\ntag_60:\n    /* \"#utility.yul\":2067:2141   */\n  tag_62\n    /* \"#utility.yul\":2133:2140   */\n  dup8\n    /* \"#utility.yul\":2124:2130   */\n  dup3\n    /* \"#utility.yul\":2113:2122   */\n  dup9\n    /* \"#utility.yul\":2109:2131   */\n  add\n    /* \"#utility.yul\":2067:2141   */\n  tag_39\n  jump\t// in\ntag_62:\n    /* \"#utility.yul\":2057:2141   */\n  swap3\n  pop\n    /* \"#utility.yul\":1859:2151   */\n  pop\n    /* \"#utility.yul\":2190:2192   */\n  0x60\n    /* \"#utility.yul\":2216:2280   */\n  tag_63\n    /* \"#utility.yul\":2272:2279   */\n  dup8\n    /* \"#utility.yul\":2263:2269   */\n  dup3\n    /* \"#utility.yul\":2252:2261   */\n  dup9\n    /* \"#utility.yul\":2248:2270   */\n  add\n    /* \"#utility.yul\":2216:2280   */\n  tag_45\n  jump\t// in\ntag_63:\n    /* \"#utility.yul\":2206:2280   */\n  swap2\n  pop\n    /* \"#utility.yul\":2161:2290   */\n  pop\n    /* \"#utility.yul\":958:2297   */\n  swap3\n  swap6\n  swap2\n  swap5\n  pop\n  swap3\n  pop\n  jump\t// out\n    /* \"#utility.yul\":2303:2432   */\ntag_33:\n    /* \"#utility.yul\":2337:2343   */\n  0x00\n    /* \"#utility.yul\":2364:2384   */\n  tag_65\n  tag_66\n  jump\t// in\ntag_65:\n    /* \"#utility.yul\":2354:2384   */\n  swap1\n  pop\n    /* \"#utility.yul\":2393:2426   */\n  tag_67\n    /* \"#utility.yul\":2421:2425   */\n  dup3\n    /* \"#utility.yul\":2413:2419   */\n  dup3\n    /* \"#utility.yul\":2393:2426   */\n  tag_68\n  jump\t// in\ntag_67:\n    /* \"#utility.yul\":2303:2432   */\n  swap2\n  swap1\n  pop\n  jump\t// out\n    /* \"#utility.yul\":2438:2513   */\ntag_66:\n    /* \"#utility.yul\":2471:2477   */\n  0x00\n    /* \"#utility.yul\":2504:2506   */\n  0x40\n    /* \"#utility.yul\":2498:2507   */\n  mload\n    /* \"#utility.yul\":2488:2507   */\n  swap1\n  pop\n    /* \"#utility.yul\":2438:2513   */\n  swap1\n  jump\t// out\n    /* \"#utility.yul\":2519:2827   */\ntag_32:\n    /* \"#utility.yul\":2581:2585   */\n  0x00\n    /* \"#utility.yul\":2671:2689   */\n  0xffffffffffffffff\n    /* \"#utility.yul\":2663:2669   */\n  dup3\n    /* \"#utility.yul\":2660:2690   */\n  gt\n    /* \"#utility.yul\":2657:2713   */\n  iszero\n  tag_71\n  jumpi\n    /* \"#utility.yul\":2693:2711   */\n  tag_72\n  tag_73\n  jump\t// in\ntag_72:\n    /* \"#utility.yul\":2657:2713   */\ntag_71:\n    /* \"#utility.yul\":2731:2760   */\n  tag_74\n    /* \"#utility.yul\":2753:2759   */\n  dup3\n    /* \"#utility.yul\":2731:2760   */\n  tag_75\n  jump\t// in\ntag_74:\n    /* \"#utility.yul\":2723:2760   */\n  swap1\n  pop\n    /* \"#utility.yul\":2815:2819   */\n  0x20\n    /* \"#utility.yul\":2809:2813   */\n  dup2\n    /* \"#utility.yul\":2805:2820   */\n  add\n    /* \"#utility.yul\":2797:2820   */\n  swap1\n  pop\n    /* \"#utility.yul\":2519:2827   */\n  swap2\n  swap1\n  pop\n  jump\t// out\n    /* \"#utility.yul\":2833:2910   */\ntag_76:\n    /* \"#utility.yul\":2870:2877   */\n  0x00\n    /* \"#utility.yul\":2899:2904   */\n  dup2\n    /* \"#utility.yul\":2888:2904   */\n  swap1\n  pop\n    /* \"#utility.yul\":2833:2910   */\n  swap2\n  swap1\n  pop\n  jump\t// out\n    /* \"#utility.yul\":2916:3223   */\ntag_38:\n    /* \"#utility.yul\":2984:2985   */\n  0x00\n    /* \"#utility.yul\":2994:3107   */\ntag_79:\n    /* \"#utility.yul\":3008:3014   */\n  dup4\n    /* \"#utility.yul\":3005:3006   */\n  dup2\n    /* \"#utility.yul\":3002:3015   */\n  lt\n    /* \"#utility.yul\":2994:3107   */\n  iszero\n  tag_81\n  jumpi\n    /* \"#utility.yul\":3093:3094   */\n  dup1\n    /* \"#utility.yul\":3088:3091   */\n  dup3\n    /* \"#utility.yul\":3084:3095   */\n  add\n    /* \"#utility.yul\":3078:3096   */\n  mload\n    /* \"#utility.yul\":3074:3075   */\n  dup2\n    /* \"#utility.yul\":3069:3072   */\n  dup5\n    /* \"#utility.yul\":3065:3076   */\n  add\n    /* \"#utility.yul\":3058:3097   */\n  mstore\n    /* \"#utility.yul\":3030:3032   */\n  0x20\n    /* \"#utility.yul\":3027:3028   */\n  dup2\n    /* \"#utility.yul\":3023:3033   */\n  add\n    /* \"#utility.yul\":3018:3033   */\n  swap1\n  pop\n    /* \"#utility.yul\":2994:3107   */\n  jump(tag_79)\ntag_81:\n    /* \"#utility.yul\":3125:3131   */\n  dup4\n    /* \"#utility.yul\":3122:3123   */\n  dup2\n    /* \"#utility.yul\":3119:3132   */\n  gt\n    /* \"#utility.yul\":3116:3217   */\n  iszero\n  tag_82\n  jumpi\n    /* \"#utility.yul\":3205:3206   */\n  0x00\n    /* \"#utility.yul\":3196:3202   */\n  dup5\n    /* \"#utility.yul\":3191:3194   */\n  dup5\n    /* \"#utility.yul\":3187:3203   */\n  add\n    /* \"#utility.yul\":3180:3207   */\n  mstore\n    /* \"#utility.yul\":3116:3217   */\ntag_82:\n    /* \"#utility.yul\":2965:3223   */\n  pop\n    /* \"#utility.yul\":2916:3223   */\n  pop\n  pop\n  pop\n  jump\t// out\n    /* \"#utility.yul\":3229:3549   */\ntag_17:\n    /* \"#utility.yul\":3273:3279   */\n  0x00\n    /* \"#utility.yul\":3310:3311   */\n  0x02\n    /* \"#utility.yul\":3304:3308   */\n  dup3\n    /* \"#utility.yul\":3300:3312   */\n  div\n    /* \"#utility.yul\":3290:3312   */\n  swap1\n  pop\n    /* \"#utility.yul\":3357:3358   */\n  0x01\n    /* \"#utility.yul\":3351:3355   */\n  dup3\n    /* \"#utility.yul\":3347:3359   */\n  and\n    /* \"#utility.yul\":3378:3396   */\n  dup1\n    /* \"#utility.yul\":3368:3449   */\n  tag_84\n  jumpi\n    /* \"#utility.yul\":3434:3438   */\n  0x7f\n    /* \"#utility.yul\":3426:3432   */\n  dup3\n    /* \"#utility.yul\":3422:3439   */\n  and\n    /* \"#utility.yul\":3412:3439   */\n  swap2\n  pop\n    /* \"#utility.yul\":3368:3449   */\ntag_84:\n    /* \"#utility.yul\":3496:3498   */\n  0x20\n    /* \"#utility.yul\":3488:3494   */\n  dup3\n    /* \"#utility.yul\":3485:3499   */\n  lt\n    /* \"#utility.yul\":3465:3483   */\n  dup2\n    /* \"#utility.yul\":3462:3500   */\n  eq\n    /* \"#utility.yul\":3459:3543   */\n  iszero\n  tag_85\n  jumpi\n    /* \"#utility.yul\":3515:3533   */\n  tag_86\n  tag_87\n  jump\t// in\ntag_86:\n    /* \"#utility.yul\":3459:3543   */\ntag_85:\n    /* \"#utility.yul\":3280:3549   */\n  pop\n    /* \"#utility.yul\":3229:3549   */\n  swap2\n  swap1\n  pop\n  jump\t// out\n    /* \"#utility.yul\":3555:3836   */\ntag_68:\n    /* \"#utility.yul\":3638:3665   */\n  tag_89\n    /* \"#utility.yul\":3660:3664   */\n  dup3\n    /* \"#utility.yul\":3638:3665   */\n  tag_75\n  jump\t// in\ntag_89:\n    /* \"#utility.yul\":3630:3636   */\n  dup2\n    /* \"#utility.yul\":3626:3666   */\n  add\n    /* \"#utility.yul\":3768:3774   */\n  dup2\n    /* \"#utility.yul\":3756:3766   */\n  dup2\n    /* \"#utility.yul\":3753:3775   */\n  lt\n    /* \"#utility.yul\":3732:3750   */\n  0xffffffffffffffff\n    /* \"#utility.yul\":3720:3730   */\n  dup3\n    /* \"#utility.yul\":3717:3751   */\n  gt\n    /* \"#utility.yul\":3714:3776   */\n  or\n    /* \"#utility.yul\":3711:3799   */\n  iszero\n  tag_90\n  jumpi\n    /* \"#utility.yul\":3779:3797   */\n  tag_91\n  tag_73\n  jump\t// in\ntag_91:\n    /* \"#utility.yul\":3711:3799   */\ntag_90:\n    /* \"#utility.yul\":3819:3829   */\n  dup1\n    /* \"#utility.yul\":3815:3817   */\n  0x40\n    /* \"#utility.yul\":3808:3830   */\n  mstore\n    /* \"#utility.yul\":3598:3836   */\n  pop\n    /* \"#utility.yul\":3555:3836   */\n  pop\n  pop\n  jump\t// out\n    /* \"#utility.yul\":3842:4022   */\ntag_8:\n    /* \"#utility.yul\":3890:3967   */\n  0x4e487b7100000000000000000000000000000000000000000000000000000000\n    /* \"#utility.yul\":3887:3888   */\n  0x00\n    /* \"#utility.yul\":3880:3968   */\n  mstore\n    /* \"#utility.yul\":3987:3991   */\n  0x21\n    /* \"#utility.yul\":3984:3985   */\n  0x04\n    /* \"#utility.yul\":3977:3992   */\n  mstore\n    /* \"#utility.yul\":4011:4015   */\n  0x24\n    /* \"#utility.yul\":4008:4009   */\n  0x00\n    /* \"#utility.yul\":4001:4016   */\n  revert\n    /* \"#utility.yul\":4028:4208   */\ntag_87:\n    /* \"#utility.yul\":4076:4153   */\n  0x4e487b7100000000000000000000000000000000000000000000000000000000\n    /* \"#utility.yul\":4073:4074   */\n  0x00\n    /* \"#utility.yul\":4066:4154   */\n  mstore\n    /* \"#utility.yul\":4173:4177   */\n  0x22\n    /* \"#utility.yul\":4170:4171   */\n  0x04\n    /* \"#utility.yul\":4163:4178   */\n  mstore\n    /* \"#utility.yul\":4197:4201   */\n  0x24\n    /* \"#utility.yul\":4194:4195   */\n  0x00\n    /* \"#utility.yul\":4187:4202   */\n  revert\n    /* \"#utility.yul\":4214:4394   */\ntag_73:\n    /* \"#utility.yul\":4262:4339   */\n  0x4e487b7100000000000000000000000000000000000000000000000000000000\n    /* \"#utility.yul\":4259:4260   */\n  0x00\n    /* \"#utility.yul\":4252:4340   */\n  mstore\n    /* \"#utility.yul\":4359:4363   */\n  0x41\n    /* \"#utility.yul\":4356:4357   */\n  0x04\n    /* \"#utility.yul\":4349:4364   */\n  mstore\n    /* \"#utility.yul\":4383:4387   */\n  0x24\n    /* \"#utility.yul\":4380:4381   */\n  0x00\n    /* \"#utility.yul\":4373:4388   */\n  revert\n    /* \"#utility.yul\":4400:4517   */\ntag_43:\n    /* \"#utility.yul\":4509:4510   */\n  0x00\n    /* \"#utility.yul\":4506:4507   */\n  dup1\n    /* \"#utility.yul\":4499:4511   */\n  revert\n    /* \"#utility.yul\":4523:4640   */\ntag_36:\n    /* \"#utility.yul\":4632:4633   */\n  0x00\n    /* \"#utility.yul\":4629:4630   */\n  dup1\n    /* \"#utility.yul\":4622:4634   */\n  revert\n    /* \"#utility.yul\":4646:4763   */\ntag_55:\n    /* \"#utility.yul\":4755:4756   */\n  0x00\n    /* \"#utility.yul\":4752:4753   */\n  dup1\n    /* \"#utility.yul\":4745:4757   */\n  revert\n    /* \"#utility.yul\":4769:4886   */\ntag_52:\n    /* \"#utility.yul\":4878:4879   */\n  0x00\n    /* \"#utility.yul\":4875:4876   */\n  dup1\n    /* \"#utility.yul\":4868:4880   */\n  revert\n    /* \"#utility.yul\":4892:4994   */\ntag_75:\n    /* \"#utility.yul\":4933:4939   */\n  0x00\n    /* \"#utility.yul\":4984:4986   */\n  0x1f\n    /* \"#utility.yul\":4980:4987   */\n  not\n    /* \"#utility.yul\":4975:4977   */\n  0x1f\n    /* \"#utility.yul\":4968:4973   */\n  dup4\n    /* \"#utility.yul\":4964:4978   */\n  add\n    /* \"#utility.yul\":4960:4988   */\n  and\n    /* \"#utility.yul\":4950:4988   */\n  swap1\n  pop\n    /* \"#utility.yul\":4892:4994   */\n  swap2\n  swap1\n  pop\n  jump\t// out\n    /* \"#utility.yul\":5000:5122   */\ntag_48:\n    /* \"#utility.yul\":5073:5097   */\n  tag_101\n    /* \"#utility.yul\":5091:5096   */\n  dup2\n    /* \"#utility.yul\":5073:5097   */\n  tag_76\n  jump\t// in\ntag_101:\n    /* \"#utility.yul\":5066:5071   */\n  dup2\n    /* \"#utility.yul\":5063:5098   */\n  eq\n    /* \"#utility.yul\":5053:5116   */\n  tag_102\n  jumpi\n    /* \"#utility.yul\":5112:5113   */\n  0x00\n    /* \"#utility.yul\":5109:5110   */\n  dup1\n    /* \"#utility.yul\":5102:5114   */\n  revert\n    /* \"#utility.yul\":5053:5116   */\ntag_102:\n    /* \"#utility.yul\":5000:5122   */\n  pop\n  jump\t// out\n    /* \"contracts/project.sol\":74:1619  contract CrowdFunding {\r... */\ntag_15:\n  dataSize(sub_0)\n  dup1\n  dataOffset(sub_0)\n  0x00\n  codecopy\n  0x00\n  return\nstop\n\nsub_0: assembly {\n        /* \"contracts/project.sol\":74:1619  contract CrowdFunding {\r... */\n      mstore(0x40, 0x80)\n      jumpi(tag_1, lt(calldatasize, 0x04))\n      shr(0xe0, calldataload(0x00))\n      dup1\n      0x5699fadc\n      eq\n      tag_2\n      jumpi\n      dup1\n      0xd63dc661\n      eq\n      tag_3\n      jumpi\n      dup1\n      0xf60ca60d\n      eq\n      tag_4\n      jumpi\n    tag_1:\n      0x00\n      dup1\n      revert\n        /* \"contracts/project.sol\":962:1200  function changeProjectState(State newState) public isAuthor {\r... */\n    tag_2:\n      callvalue\n      dup1\n      iszero\n      tag_5\n      jumpi\n      0x00\n      dup1\n      revert\n    tag_5:\n      pop\n      tag_6\n      0x04\n      dup1\n      calldatasize\n      sub\n      dup2\n      add\n      swap1\n      tag_7\n      swap2\n      swap1\n      tag_8\n      jump\t// in\n    tag_7:\n      tag_9\n      jump\t// in\n    tag_6:\n      stop\n        /* \"contracts/project.sol\":601:954  function fundProject() public payable isNotAuthor {\r... */\n    tag_3:\n      tag_10\n      tag_11\n      jump\t// in\n    tag_10:\n      stop\n        /* \"contracts/project.sol\":363:385  Project public project */\n    tag_4:\n      callvalue\n      dup1\n      iszero\n      tag_12\n      jumpi\n      0x00\n      dup1\n      revert\n    tag_12:\n      pop\n      tag_13\n      tag_14\n      jump\t// in\n    tag_13:\n      mload(0x40)\n      tag_15\n      swap8\n      swap7\n      swap6\n      swap5\n      swap4\n      swap3\n      swap2\n      swap1\n      tag_16\n      jump\t// in\n    tag_15:\n      mload(0x40)\n      dup1\n      swap2\n      sub\n      swap1\n      return\n        /* \"contracts/project.sol\":962:1200  function changeProjectState(State newState) public isAuthor {\r... */\n    tag_9:\n        /* \"contracts/project.sol\":1261:1268  project */\n      0x00\n        /* \"contracts/project.sol\":1261:1275  project.author */\n      0x04\n      add\n      0x00\n      swap1\n      sload\n      swap1\n      0x0100\n      exp\n      swap1\n      div\n      0xffffffffffffffffffffffffffffffffffffffff\n      and\n        /* \"contracts/project.sol\":1247:1275  msg.sender == project.author */\n      0xffffffffffffffffffffffffffffffffffffffff\n      and\n        /* \"contracts/project.sol\":1247:1257  msg.sender */\n      caller\n        /* \"contracts/project.sol\":1247:1275  msg.sender == project.author */\n      0xffffffffffffffffffffffffffffffffffffffff\n      and\n      eq\n        /* \"contracts/project.sol\":1239:1327  require(msg.sender == project.author, 'Only author can change the state of the project') */\n      tag_18\n      jumpi\n      mload(0x40)\n      0x08c379a000000000000000000000000000000000000000000000000000000000\n      dup2\n      mstore\n      0x04\n      add\n      tag_19\n      swap1\n      tag_20\n      jump\t// in\n    tag_19:\n      mload(0x40)\n      dup1\n      swap2\n      sub\n      swap1\n      revert\n    tag_18:\n        /* \"contracts/project.sol\":1058:1066  newState */\n      dup1\n        /* \"contracts/project.sol\":1041:1066  project.state != newState */\n      0x01\n      dup2\n      gt\n      iszero\n      tag_22\n      jumpi\n      tag_23\n      tag_24\n      jump\t// in\n    tag_23:\n    tag_22:\n        /* \"contracts/project.sol\":1041:1048  project */\n      0x00\n        /* \"contracts/project.sol\":1041:1054  project.state */\n      0x06\n      add\n      0x00\n      swap1\n      sload\n      swap1\n      0x0100\n      exp\n      swap1\n      div\n      0xff\n      and\n        /* \"contracts/project.sol\":1041:1066  project.state != newState */\n      0x01\n      dup2\n      gt\n      iszero\n      tag_25\n      jumpi\n      tag_26\n      tag_24\n      jump\t// in\n    tag_26:\n    tag_25:\n      eq\n      iszero\n        /* \"contracts/project.sol\":1033:1098  require(project.state != newState, 'New state must be different') */\n      tag_27\n      jumpi\n      mload(0x40)\n      0x08c379a000000000000000000000000000000000000000000000000000000000\n      dup2\n      mstore\n      0x04\n      add\n      tag_28\n      swap1\n      tag_29\n      jump\t// in\n    tag_28:\n      mload(0x40)\n      dup1\n      swap2\n      sub\n      swap1\n      revert\n    tag_27:\n        /* \"contracts/project.sol\":1125:1133  newState */\n      dup1\n        /* \"contracts/project.sol\":1109:1116  project */\n      0x00\n        /* \"contracts/project.sol\":1109:1122  project.state */\n      0x06\n      add\n      0x00\n        /* \"contracts/project.sol\":1109:1133  project.state = newState */\n      0x0100\n      exp\n      dup2\n      sload\n      dup2\n      0xff\n      mul\n      not\n      and\n      swap1\n      dup4\n      0x01\n      dup2\n      gt\n      iszero\n      tag_30\n      jumpi\n      tag_31\n      tag_24\n      jump\t// in\n    tag_31:\n    tag_30:\n      mul\n      or\n      swap1\n      sstore\n      pop\n        /* \"contracts/project.sol\":1149:1192  changeProjectStateLog(project.id, newState) */\n      0xb364ab0cadec04bec8a97e81743129cecc3480279fb67b9378df4219238b250f\n        /* \"contracts/project.sol\":1171:1178  project */\n      0x00\n        /* \"contracts/project.sol\":1171:1181  project.id */\n      dup1\n      add\n        /* \"contracts/project.sol\":1183:1191  newState */\n      dup3\n        /* \"contracts/project.sol\":1149:1192  changeProjectStateLog(project.id, newState) */\n      mload(0x40)\n      tag_32\n      swap3\n      swap2\n      swap1\n      tag_33\n      jump\t// in\n    tag_32:\n      mload(0x40)\n      dup1\n      swap2\n      sub\n      swap1\n      log1\n        /* \"contracts/project.sol\":962:1200  function changeProjectState(State newState) public isAuthor {\r... */\n      pop\n      jump\t// out\n        /* \"contracts/project.sol\":601:954  function fundProject() public payable isNotAuthor {\r... */\n    tag_11:\n        /* \"contracts/project.sol\":1411:1418  project */\n      0x00\n        /* \"contracts/project.sol\":1411:1425  project.author */\n      0x04\n      add\n      0x00\n      swap1\n      sload\n      swap1\n      0x0100\n      exp\n      swap1\n      div\n      0xffffffffffffffffffffffffffffffffffffffff\n      and\n        /* \"contracts/project.sol\":1397:1425  msg.sender != project.author */\n      0xffffffffffffffffffffffffffffffffffffffff\n      and\n        /* \"contracts/project.sol\":1397:1407  msg.sender */\n      caller\n        /* \"contracts/project.sol\":1397:1425  msg.sender != project.author */\n      0xffffffffffffffffffffffffffffffffffffffff\n      and\n      eq\n      iszero\n        /* \"contracts/project.sol\":1389:1464  require(msg.sender != project.author, 'The author cannot fund the project') */\n      tag_35\n      jumpi\n      mload(0x40)\n      0x08c379a000000000000000000000000000000000000000000000000000000000\n      dup2\n      mstore\n      0x04\n      add\n      tag_36\n      swap1\n      tag_37\n      jump\t// in\n    tag_36:\n      mload(0x40)\n      dup1\n      swap2\n      sub\n      swap1\n      revert\n    tag_35:\n        /* \"contracts/project.sol\":687:699  State.Closed */\n      0x01\n        /* \"contracts/project.sol\":670:699  project.state != State.Closed */\n      dup1\n      dup2\n      gt\n      iszero\n      tag_39\n      jumpi\n      tag_40\n      tag_24\n      jump\t// in\n    tag_40:\n    tag_39:\n        /* \"contracts/project.sol\":670:677  project */\n      0x00\n        /* \"contracts/project.sol\":670:683  project.state */\n      0x06\n      add\n      0x00\n      swap1\n      sload\n      swap1\n      0x0100\n      exp\n      swap1\n      div\n      0xff\n      and\n        /* \"contracts/project.sol\":670:699  project.state != State.Closed */\n      0x01\n      dup2\n      gt\n      iszero\n      tag_41\n      jumpi\n      tag_42\n      tag_24\n      jump\t// in\n    tag_42:\n    tag_41:\n      eq\n      iszero\n        /* \"contracts/project.sol\":662:740  require(project.state != State.Closed, 'The funding of the project is closed') */\n      tag_43\n      jumpi\n      mload(0x40)\n      0x08c379a000000000000000000000000000000000000000000000000000000000\n      dup2\n      mstore\n      0x04\n      add\n      tag_44\n      swap1\n      tag_45\n      jump\t// in\n    tag_44:\n      mload(0x40)\n      dup1\n      swap2\n      sub\n      swap1\n      revert\n    tag_43:\n        /* \"contracts/project.sol\":771:772  0 */\n      0x00\n        /* \"contracts/project.sol\":759:768  msg.value */\n      callvalue\n        /* \"contracts/project.sol\":759:772  msg.value > 0 */\n      gt\n        /* \"contracts/project.sol\":751:811  require(msg.value > 0, 'fundraising must be greater than 0') */\n      tag_46\n      jumpi\n      mload(0x40)\n      0x08c379a000000000000000000000000000000000000000000000000000000000\n      dup2\n      mstore\n      0x04\n      add\n      tag_47\n      swap1\n      tag_48\n      jump\t// in\n    tag_47:\n      mload(0x40)\n      dup1\n      swap2\n      sub\n      swap1\n      revert\n    tag_46:\n        /* \"contracts/project.sol\":822:829  project */\n      0x00\n        /* \"contracts/project.sol\":822:836  project.author */\n      0x04\n      add\n      0x00\n      swap1\n      sload\n      swap1\n      0x0100\n      exp\n      swap1\n      div\n      0xffffffffffffffffffffffffffffffffffffffff\n      and\n        /* \"contracts/project.sol\":822:845  project.author.transfer */\n      0xffffffffffffffffffffffffffffffffffffffff\n      and\n        /* \"contracts/project.sol\":822:856  project.author.transfer(msg.value) */\n      0x08fc\n        /* \"contracts/project.sol\":846:855  msg.value */\n      callvalue\n        /* \"contracts/project.sol\":822:856  project.author.transfer(msg.value) */\n      swap1\n      dup2\n      iszero\n      mul\n      swap1\n      mload(0x40)\n      0x00\n      mload(0x40)\n      dup1\n      dup4\n      sub\n      dup2\n      dup6\n      dup9\n      dup9\n      call\n      swap4\n      pop\n      pop\n      pop\n      pop\n      iszero\n      dup1\n      iszero\n      tag_50\n      jumpi\n      returndatasize\n      0x00\n      dup1\n      returndatacopy\n      revert(0x00, returndatasize)\n    tag_50:\n      pop\n        /* \"contracts/project.sol\":884:893  msg.value */\n      callvalue\n        /* \"contracts/project.sol\":867:874  project */\n      0x00\n        /* \"contracts/project.sol\":867:880  project.funds */\n      0x05\n      add\n      0x00\n        /* \"contracts/project.sol\":867:893  project.funds += msg.value */\n      dup3\n      dup3\n      sload\n      tag_51\n      swap2\n      swap1\n      tag_52\n      jump\t// in\n    tag_51:\n      swap3\n      pop\n      pop\n      dup2\n      swap1\n      sstore\n      pop\n        /* \"contracts/project.sol\":909:946  fundProjectLog(project.id, msg.value) */\n      0x98a99e594dc0943c255bf9563ae2c4da6ffcfd06f78b396b88988548ac825ba8\n        /* \"contracts/project.sol\":924:931  project */\n      0x00\n        /* \"contracts/project.sol\":924:934  project.id */\n      dup1\n      add\n        /* \"contracts/project.sol\":936:945  msg.value */\n      callvalue\n        /* \"contracts/project.sol\":909:946  fundProjectLog(project.id, msg.value) */\n      mload(0x40)\n      tag_53\n      swap3\n      swap2\n      swap1\n      tag_54\n      jump\t// in\n    tag_53:\n      mload(0x40)\n      dup1\n      swap2\n      sub\n      swap1\n      log1\n        /* \"contracts/project.sol\":601:954  function fundProject() public payable isNotAuthor {\r... */\n      jump\t// out\n        /* \"contracts/project.sol\":363:385  Project public project */\n    tag_14:\n      0x00\n      dup1\n      0x00\n      add\n      dup1\n      sload\n      tag_55\n      swap1\n      tag_56\n      jump\t// in\n    tag_55:\n      dup1\n      0x1f\n      add\n      0x20\n      dup1\n      swap2\n      div\n      mul\n      0x20\n      add\n      mload(0x40)\n      swap1\n      dup2\n      add\n      0x40\n      mstore\n      dup1\n      swap3\n      swap2\n      swap1\n      dup2\n      dup2\n      mstore\n      0x20\n      add\n      dup3\n      dup1\n      sload\n      tag_57\n      swap1\n      tag_56\n      jump\t// in\n    tag_57:\n      dup1\n      iszero\n      tag_58\n      jumpi\n      dup1\n      0x1f\n      lt\n      tag_59\n      jumpi\n      0x0100\n      dup1\n      dup4\n      sload\n      div\n      mul\n      dup4\n      mstore\n      swap2\n      0x20\n      add\n      swap2\n      jump(tag_58)\n    tag_59:\n      dup3\n      add\n      swap2\n      swap1\n      0x00\n      mstore\n      keccak256(0x00, 0x20)\n      swap1\n    tag_60:\n      dup2\n      sload\n      dup2\n      mstore\n      swap1\n      0x01\n      add\n      swap1\n      0x20\n      add\n      dup1\n      dup4\n      gt\n      tag_60\n      jumpi\n      dup3\n      swap1\n      sub\n      0x1f\n      and\n      dup3\n      add\n      swap2\n    tag_58:\n      pop\n      pop\n      pop\n      pop\n      pop\n      swap1\n      dup1\n      0x01\n      add\n      dup1\n      sload\n      tag_61\n      swap1\n      tag_56\n      jump\t// in\n    tag_61:\n      dup1\n      0x1f\n      add\n      0x20\n      dup1\n      swap2\n      div\n      mul\n      0x20\n      add\n      mload(0x40)\n      swap1\n      dup2\n      add\n      0x40\n      mstore\n      dup1\n      swap3\n      swap2\n      swap1\n      dup2\n      dup2\n      mstore\n      0x20\n      add\n      dup3\n      dup1\n      sload\n      tag_62\n      swap1\n      tag_56\n      jump\t// in\n    tag_62:\n      dup1\n      iszero\n      tag_63\n      jumpi\n      dup1\n      0x1f\n      lt\n      tag_64\n      jumpi\n      0x0100\n      dup1\n      dup4\n      sload\n      div\n      mul\n      dup4\n      mstore\n      swap2\n      0x20\n      add\n      swap2\n      jump(tag_63)\n    tag_64:\n      dup3\n      add\n      swap2\n      swap1\n      0x00\n      mstore\n      keccak256(0x00, 0x20)\n      swap1\n    tag_65:\n      dup2\n      sload\n      dup2\n      mstore\n      swap1\n      0x01\n      add\n      swap1\n      0x20\n      add\n      dup1\n      dup4\n      gt\n      tag_65\n      jumpi\n      dup3\n      swap1\n      sub\n      0x1f\n      and\n      dup3\n      add\n      swap2\n    tag_63:\n      pop\n      pop\n      pop\n      pop\n      pop\n      swap1\n      dup1\n      0x02\n      add\n      dup1\n      sload\n      tag_66\n      swap1\n      tag_56\n      jump\t// in\n    tag_66:\n      dup1\n      0x1f\n      add\n      0x20\n      dup1\n      swap2\n      div\n      mul\n      0x20\n      add\n      mload(0x40)\n      swap1\n      dup2\n      add\n      0x40\n      mstore\n      dup1\n      swap3\n      swap2\n      swap1\n      dup2\n      dup2\n      mstore\n      0x20\n      add\n      dup3\n      dup1\n      sload\n      tag_67\n      swap1\n      tag_56\n      jump\t// in\n    tag_67:\n      dup1\n      iszero\n      tag_68\n      jumpi\n      dup1\n      0x1f\n      lt\n      tag_69\n      jumpi\n      0x0100\n      dup1\n      dup4\n      sload\n      div\n      mul\n      dup4\n      mstore\n      swap2\n      0x20\n      add\n      swap2\n      jump(tag_68)\n    tag_69:\n      dup3\n      add\n      swap2\n      swap1\n      0x00\n      mstore\n      keccak256(0x00, 0x20)\n      swap1\n    tag_70:\n      dup2\n      sload\n      dup2\n      mstore\n      swap1\n      0x01\n      add\n      swap1\n      0x20\n      add\n      dup1\n      dup4\n      gt\n      tag_70\n      jumpi\n      dup3\n      swap1\n      sub\n      0x1f\n      and\n      dup3\n      add\n      swap2\n    tag_68:\n      pop\n      pop\n      pop\n      pop\n      pop\n      swap1\n      dup1\n      0x03\n      add\n      sload\n      swap1\n      dup1\n      0x04\n      add\n      0x00\n      swap1\n      sload\n      swap1\n      0x0100\n      exp\n      swap1\n      div\n      0xffffffffffffffffffffffffffffffffffffffff\n      and\n      swap1\n      dup1\n      0x05\n      add\n      sload\n      swap1\n      dup1\n      0x06\n      add\n      0x00\n      swap1\n      sload\n      swap1\n      0x0100\n      exp\n      swap1\n      div\n      0xff\n      and\n      swap1\n      pop\n      dup8\n      jump\t// out\n        /* \"#utility.yul\":7:160   */\n    tag_72:\n        /* \"#utility.yul\":60:65   */\n      0x00\n        /* \"#utility.yul\":98:104   */\n      dup2\n        /* \"#utility.yul\":85:105   */\n      calldataload\n        /* \"#utility.yul\":76:105   */\n      swap1\n      pop\n        /* \"#utility.yul\":114:154   */\n      tag_74\n        /* \"#utility.yul\":148:153   */\n      dup2\n        /* \"#utility.yul\":114:154   */\n      tag_75\n      jump\t// in\n    tag_74:\n        /* \"#utility.yul\":7:160   */\n      swap3\n      swap2\n      pop\n      pop\n      jump\t// out\n        /* \"#utility.yul\":166:509   */\n    tag_8:\n        /* \"#utility.yul\":232:238   */\n      0x00\n        /* \"#utility.yul\":281:283   */\n      0x20\n        /* \"#utility.yul\":269:278   */\n      dup3\n        /* \"#utility.yul\":260:267   */\n      dup5\n        /* \"#utility.yul\":256:279   */\n      sub\n        /* \"#utility.yul\":252:284   */\n      slt\n        /* \"#utility.yul\":249:368   */\n      iszero\n      tag_77\n      jumpi\n        /* \"#utility.yul\":287:366   */\n      tag_78\n      tag_79\n      jump\t// in\n    tag_78:\n        /* \"#utility.yul\":249:368   */\n    tag_77:\n        /* \"#utility.yul\":407:408   */\n      0x00\n        /* \"#utility.yul\":432:492   */\n      tag_80\n        /* \"#utility.yul\":484:491   */\n      dup5\n        /* \"#utility.yul\":475:481   */\n      dup3\n        /* \"#utility.yul\":464:473   */\n      dup6\n        /* \"#utility.yul\":460:482   */\n      add\n        /* \"#utility.yul\":432:492   */\n      tag_72\n      jump\t// in\n    tag_80:\n        /* \"#utility.yul\":422:492   */\n      swap2\n      pop\n        /* \"#utility.yul\":378:502   */\n      pop\n        /* \"#utility.yul\":166:509   */\n      swap3\n      swap2\n      pop\n      pop\n      jump\t// out\n        /* \"#utility.yul\":515:657   */\n    tag_81:\n        /* \"#utility.yul\":618:650   */\n      tag_83\n        /* \"#utility.yul\":644:649   */\n      dup2\n        /* \"#utility.yul\":618:650   */\n      tag_84\n      jump\t// in\n    tag_83:\n        /* \"#utility.yul\":613:616   */\n      dup3\n        /* \"#utility.yul\":606:651   */\n      mstore\n        /* \"#utility.yul\":515:657   */\n      pop\n      pop\n      jump\t// out\n        /* \"#utility.yul\":663:804   */\n    tag_85:\n        /* \"#utility.yul\":755:797   */\n      tag_87\n        /* \"#utility.yul\":791:796   */\n      dup2\n        /* \"#utility.yul\":755:797   */\n      tag_88\n      jump\t// in\n    tag_87:\n        /* \"#utility.yul\":750:753   */\n      dup3\n        /* \"#utility.yul\":743:798   */\n      mstore\n        /* \"#utility.yul\":663:804   */\n      pop\n      pop\n      jump\t// out\n        /* \"#utility.yul\":810:1174   */\n    tag_89:\n        /* \"#utility.yul\":898:901   */\n      0x00\n        /* \"#utility.yul\":926:965   */\n      tag_91\n        /* \"#utility.yul\":959:964   */\n      dup3\n        /* \"#utility.yul\":926:965   */\n      tag_92\n      jump\t// in\n    tag_91:\n        /* \"#utility.yul\":981:1052   */\n      tag_93\n        /* \"#utility.yul\":1045:1051   */\n      dup2\n        /* \"#utility.yul\":1040:1043   */\n      dup6\n        /* \"#utility.yul\":981:1052   */\n      tag_94\n      jump\t// in\n    tag_93:\n        /* \"#utility.yul\":974:1052   */\n      swap4\n      pop\n        /* \"#utility.yul\":1061:1113   */\n      tag_95\n        /* \"#utility.yul\":1106:1112   */\n      dup2\n        /* \"#utility.yul\":1101:1104   */\n      dup6\n        /* \"#utility.yul\":1094:1098   */\n      0x20\n        /* \"#utility.yul\":1087:1092   */\n      dup7\n        /* \"#utility.yul\":1083:1099   */\n      add\n        /* \"#utility.yul\":1061:1113   */\n      tag_96\n      jump\t// in\n    tag_95:\n        /* \"#utility.yul\":1138:1167   */\n      tag_97\n        /* \"#utility.yul\":1160:1166   */\n      dup2\n        /* \"#utility.yul\":1138:1167   */\n      tag_98\n      jump\t// in\n    tag_97:\n        /* \"#utility.yul\":1133:1136   */\n      dup5\n        /* \"#utility.yul\":1129:1168   */\n      add\n        /* \"#utility.yul\":1122:1168   */\n      swap2\n      pop\n        /* \"#utility.yul\":902:1174   */\n      pop\n        /* \"#utility.yul\":810:1174   */\n      swap3\n      swap2\n      pop\n      pop\n      jump\t// out\n        /* \"#utility.yul\":1204:2006   */\n    tag_99:\n        /* \"#utility.yul\":1289:1292   */\n      0x00\n        /* \"#utility.yul\":1326:1331   */\n      dup2\n        /* \"#utility.yul\":1320:1332   */\n      sload\n        /* \"#utility.yul\":1355:1391   */\n      tag_101\n        /* \"#utility.yul\":1381:1390   */\n      dup2\n        /* \"#utility.yul\":1355:1391   */\n      tag_56\n      jump\t// in\n    tag_101:\n        /* \"#utility.yul\":1407:1478   */\n      tag_102\n        /* \"#utility.yul\":1471:1477   */\n      dup2\n        /* \"#utility.yul\":1466:1469   */\n      dup7\n        /* \"#utility.yul\":1407:1478   */\n      tag_94\n      jump\t// in\n    tag_102:\n        /* \"#utility.yul\":1400:1478   */\n      swap5\n      pop\n        /* \"#utility.yul\":1509:1510   */\n      0x01\n        /* \"#utility.yul\":1498:1507   */\n      dup3\n        /* \"#utility.yul\":1494:1511   */\n      and\n        /* \"#utility.yul\":1525:1526   */\n      0x00\n        /* \"#utility.yul\":1520:1655   */\n      dup2\n      eq\n      tag_104\n      jumpi\n        /* \"#utility.yul\":1669:1670   */\n      0x01\n        /* \"#utility.yul\":1664:2000   */\n      dup2\n      eq\n      tag_105\n      jumpi\n        /* \"#utility.yul\":1487:2000   */\n      jump(tag_103)\n        /* \"#utility.yul\":1520:1655   */\n    tag_104:\n        /* \"#utility.yul\":1604:1608   */\n      0xff\n        /* \"#utility.yul\":1600:1609   */\n      not\n        /* \"#utility.yul\":1589:1598   */\n      dup4\n        /* \"#utility.yul\":1585:1610   */\n      and\n        /* \"#utility.yul\":1580:1583   */\n      dup7\n        /* \"#utility.yul\":1573:1611   */\n      mstore\n        /* \"#utility.yul\":1640:1644   */\n      0x20\n        /* \"#utility.yul\":1635:1638   */\n      dup7\n        /* \"#utility.yul\":1631:1645   */\n      add\n        /* \"#utility.yul\":1624:1645   */\n      swap4\n      pop\n        /* \"#utility.yul\":1520:1655   */\n      jump(tag_103)\n        /* \"#utility.yul\":1664:2000   */\n    tag_105:\n        /* \"#utility.yul\":1731:1769   */\n      tag_106\n        /* \"#utility.yul\":1763:1768   */\n      dup6\n        /* \"#utility.yul\":1731:1769   */\n      tag_107\n      jump\t// in\n    tag_106:\n        /* \"#utility.yul\":1791:1792   */\n      0x00\n        /* \"#utility.yul\":1805:1959   */\n    tag_108:\n        /* \"#utility.yul\":1819:1825   */\n      dup4\n        /* \"#utility.yul\":1816:1817   */\n      dup2\n        /* \"#utility.yul\":1813:1826   */\n      lt\n        /* \"#utility.yul\":1805:1959   */\n      iszero\n      tag_110\n      jumpi\n        /* \"#utility.yul\":1893:1900   */\n      dup2\n        /* \"#utility.yul\":1887:1901   */\n      sload\n        /* \"#utility.yul\":1883:1884   */\n      dup2\n        /* \"#utility.yul\":1878:1881   */\n      dup10\n        /* \"#utility.yul\":1874:1885   */\n      add\n        /* \"#utility.yul\":1867:1902   */\n      mstore\n        /* \"#utility.yul\":1943:1944   */\n      0x01\n        /* \"#utility.yul\":1934:1941   */\n      dup3\n        /* \"#utility.yul\":1930:1945   */\n      add\n        /* \"#utility.yul\":1919:1945   */\n      swap2\n      pop\n        /* \"#utility.yul\":1841:1845   */\n      0x20\n        /* \"#utility.yul\":1838:1839   */\n      dup2\n        /* \"#utility.yul\":1834:1846   */\n      add\n        /* \"#utility.yul\":1829:1846   */\n      swap1\n      pop\n        /* \"#utility.yul\":1805:1959   */\n      jump(tag_108)\n    tag_110:\n        /* \"#utility.yul\":1988:1989   */\n      dup1\n        /* \"#utility.yul\":1983:1986   */\n      dup9\n        /* \"#utility.yul\":1979:1990   */\n      add\n        /* \"#utility.yul\":1972:1990   */\n      swap6\n      pop\n        /* \"#utility.yul\":1671:2000   */\n      pop\n      pop\n        /* \"#utility.yul\":1487:2000   */\n    tag_103:\n      pop\n        /* \"#utility.yul\":1293:2006   */\n      pop\n      pop\n        /* \"#utility.yul\":1204:2006   */\n      swap3\n      swap2\n      pop\n      pop\n      jump\t// out\n        /* \"#utility.yul\":2012:2378   */\n    tag_111:\n        /* \"#utility.yul\":2154:2157   */\n      0x00\n        /* \"#utility.yul\":2175:2242   */\n      tag_113\n        /* \"#utility.yul\":2239:2241   */\n      0x22\n        /* \"#utility.yul\":2234:2237   */\n      dup4\n        /* \"#utility.yul\":2175:2242   */\n      tag_94\n      jump\t// in\n    tag_113:\n        /* \"#utility.yul\":2168:2242   */\n      swap2\n      pop\n        /* \"#utility.yul\":2251:2344   */\n      tag_114\n        /* \"#utility.yul\":2340:2343   */\n      dup3\n        /* \"#utility.yul\":2251:2344   */\n      tag_115\n      jump\t// in\n    tag_114:\n        /* \"#utility.yul\":2369:2371   */\n      0x40\n        /* \"#utility.yul\":2364:2367   */\n      dup3\n        /* \"#utility.yul\":2360:2372   */\n      add\n        /* \"#utility.yul\":2353:2372   */\n      swap1\n      pop\n        /* \"#utility.yul\":2012:2378   */\n      swap2\n      swap1\n      pop\n      jump\t// out\n        /* \"#utility.yul\":2384:2750   */\n    tag_116:\n        /* \"#utility.yul\":2526:2529   */\n      0x00\n        /* \"#utility.yul\":2547:2614   */\n      tag_118\n        /* \"#utility.yul\":2611:2613   */\n      0x1b\n        /* \"#utility.yul\":2606:2609   */\n      dup4\n        /* \"#utility.yul\":2547:2614   */\n      tag_94\n      jump\t// in\n    tag_118:\n        /* \"#utility.yul\":2540:2614   */\n      swap2\n      pop\n        /* \"#utility.yul\":2623:2716   */\n      tag_119\n        /* \"#utility.yul\":2712:2715   */\n      dup3\n        /* \"#utility.yul\":2623:2716   */\n      tag_120\n      jump\t// in\n    tag_119:\n        /* \"#utility.yul\":2741:2743   */\n      0x20\n        /* \"#utility.yul\":2736:2739   */\n      dup3\n        /* \"#utility.yul\":2732:2744   */\n      add\n        /* \"#utility.yul\":2725:2744   */\n      swap1\n      pop\n        /* \"#utility.yul\":2384:2750   */\n      swap2\n      swap1\n      pop\n      jump\t// out\n        /* \"#utility.yul\":2756:3122   */\n    tag_121:\n        /* \"#utility.yul\":2898:2901   */\n      0x00\n        /* \"#utility.yul\":2919:2986   */\n      tag_123\n        /* \"#utility.yul\":2983:2985   */\n      0x24\n        /* \"#utility.yul\":2978:2981   */\n      dup4\n        /* \"#utility.yul\":2919:2986   */\n      tag_94\n      jump\t// in\n    tag_123:\n        /* \"#utility.yul\":2912:2986   */\n      swap2\n      pop\n        /* \"#utility.yul\":2995:3088   */\n      tag_124\n        /* \"#utility.yul\":3084:3087   */\n      dup3\n        /* \"#utility.yul\":2995:3088   */\n      tag_125\n      jump\t// in\n    tag_124:\n        /* \"#utility.yul\":3113:3115   */\n      0x40\n        /* \"#utility.yul\":3108:3111   */\n      dup3\n        /* \"#utility.yul\":3104:3116   */\n      add\n        /* \"#utility.yul\":3097:3116   */\n      swap1\n      pop\n        /* \"#utility.yul\":2756:3122   */\n      swap2\n      swap1\n      pop\n      jump\t// out\n        /* \"#utility.yul\":3128:3494   */\n    tag_126:\n        /* \"#utility.yul\":3270:3273   */\n      0x00\n        /* \"#utility.yul\":3291:3358   */\n      tag_128\n        /* \"#utility.yul\":3355:3357   */\n      0x2f\n        /* \"#utility.yul\":3350:3353   */\n      dup4\n        /* \"#utility.yul\":3291:3358   */\n      tag_94\n      jump\t// in\n    tag_128:\n        /* \"#utility.yul\":3284:3358   */\n      swap2\n      pop\n        /* \"#utility.yul\":3367:3460   */\n      tag_129\n        /* \"#utility.yul\":3456:3459   */\n      dup3\n        /* \"#utility.yul\":3367:3460   */\n      tag_130\n      jump\t// in\n    tag_129:\n        /* \"#utility.yul\":3485:3487   */\n      0x40\n        /* \"#utility.yul\":3480:3483   */\n      dup3\n        /* \"#utility.yul\":3476:3488   */\n      add\n        /* \"#utility.yul\":3469:3488   */\n      swap1\n      pop\n        /* \"#utility.yul\":3128:3494   */\n      swap2\n      swap1\n      pop\n      jump\t// out\n        /* \"#utility.yul\":3500:3866   */\n    tag_131:\n        /* \"#utility.yul\":3642:3645   */\n      0x00\n        /* \"#utility.yul\":3663:3730   */\n      tag_133\n        /* \"#utility.yul\":3727:3729   */\n      0x22\n        /* \"#utility.yul\":3722:3725   */\n      dup4\n        /* \"#utility.yul\":3663:3730   */\n      tag_94\n      jump\t// in\n    tag_133:\n        /* \"#utility.yul\":3656:3730   */\n      swap2\n      pop\n        /* \"#utility.yul\":3739:3832   */\n      tag_134\n        /* \"#utility.yul\":3828:3831   */\n      dup3\n        /* \"#utility.yul\":3739:3832   */\n      tag_135\n      jump\t// in\n    tag_134:\n        /* \"#utility.yul\":3857:3859   */\n      0x40\n        /* \"#utility.yul\":3852:3855   */\n      dup3\n        /* \"#utility.yul\":3848:3860   */\n      add\n        /* \"#utility.yul\":3841:3860   */\n      swap1\n      pop\n        /* \"#utility.yul\":3500:3866   */\n      swap2\n      swap1\n      pop\n      jump\t// out\n        /* \"#utility.yul\":3872:3990   */\n    tag_136:\n        /* \"#utility.yul\":3959:3983   */\n      tag_138\n        /* \"#utility.yul\":3977:3982   */\n      dup2\n        /* \"#utility.yul\":3959:3983   */\n      tag_139\n      jump\t// in\n    tag_138:\n        /* \"#utility.yul\":3954:3957   */\n      dup3\n        /* \"#utility.yul\":3947:3984   */\n      mstore\n        /* \"#utility.yul\":3872:3990   */\n      pop\n      pop\n      jump\t// out\n        /* \"#utility.yul\":3996:5197   */\n    tag_16:\n        /* \"#utility.yul\":4338:4342   */\n      0x00\n        /* \"#utility.yul\":4376:4379   */\n      0xe0\n        /* \"#utility.yul\":4365:4374   */\n      dup3\n        /* \"#utility.yul\":4361:4380   */\n      add\n        /* \"#utility.yul\":4353:4380   */\n      swap1\n      pop\n        /* \"#utility.yul\":4426:4435   */\n      dup2\n        /* \"#utility.yul\":4420:4424   */\n      dup2\n        /* \"#utility.yul\":4416:4436   */\n      sub\n        /* \"#utility.yul\":4412:4413   */\n      0x00\n        /* \"#utility.yul\":4401:4410   */\n      dup4\n        /* \"#utility.yul\":4397:4414   */\n      add\n        /* \"#utility.yul\":4390:4437   */\n      mstore\n        /* \"#utility.yul\":4454:4532   */\n      tag_141\n        /* \"#utility.yul\":4527:4531   */\n      dup2\n        /* \"#utility.yul\":4518:4524   */\n      dup11\n        /* \"#utility.yul\":4454:4532   */\n      tag_89\n      jump\t// in\n    tag_141:\n        /* \"#utility.yul\":4446:4532   */\n      swap1\n      pop\n        /* \"#utility.yul\":4579:4588   */\n      dup2\n        /* \"#utility.yul\":4573:4577   */\n      dup2\n        /* \"#utility.yul\":4569:4589   */\n      sub\n        /* \"#utility.yul\":4564:4566   */\n      0x20\n        /* \"#utility.yul\":4553:4562   */\n      dup4\n        /* \"#utility.yul\":4549:4567   */\n      add\n        /* \"#utility.yul\":4542:4590   */\n      mstore\n        /* \"#utility.yul\":4607:4685   */\n      tag_142\n        /* \"#utility.yul\":4680:4684   */\n      dup2\n        /* \"#utility.yul\":4671:4677   */\n      dup10\n        /* \"#utility.yul\":4607:4685   */\n      tag_89\n      jump\t// in\n    tag_142:\n        /* \"#utility.yul\":4599:4685   */\n      swap1\n      pop\n        /* \"#utility.yul\":4732:4741   */\n      dup2\n        /* \"#utility.yul\":4726:4730   */\n      dup2\n        /* \"#utility.yul\":4722:4742   */\n      sub\n        /* \"#utility.yul\":4717:4719   */\n      0x40\n        /* \"#utility.yul\":4706:4715   */\n      dup4\n        /* \"#utility.yul\":4702:4720   */\n      add\n        /* \"#utility.yul\":4695:4743   */\n      mstore\n        /* \"#utility.yul\":4760:4838   */\n      tag_143\n        /* \"#utility.yul\":4833:4837   */\n      dup2\n        /* \"#utility.yul\":4824:4830   */\n      dup9\n        /* \"#utility.yul\":4760:4838   */\n      tag_89\n      jump\t// in\n    tag_143:\n        /* \"#utility.yul\":4752:4838   */\n      swap1\n      pop\n        /* \"#utility.yul\":4848:4920   */\n      tag_144\n        /* \"#utility.yul\":4916:4918   */\n      0x60\n        /* \"#utility.yul\":4905:4914   */\n      dup4\n        /* \"#utility.yul\":4901:4919   */\n      add\n        /* \"#utility.yul\":4892:4898   */\n      dup8\n        /* \"#utility.yul\":4848:4920   */\n      tag_136\n      jump\t// in\n    tag_144:\n        /* \"#utility.yul\":4930:5019   */\n      tag_145\n        /* \"#utility.yul\":5014:5017   */\n      0x80\n        /* \"#utility.yul\":5003:5012   */\n      dup4\n        /* \"#utility.yul\":4999:5018   */\n      add\n        /* \"#utility.yul\":4990:4996   */\n      dup7\n        /* \"#utility.yul\":4930:5019   */\n      tag_81\n      jump\t// in\n    tag_145:\n        /* \"#utility.yul\":5029:5102   */\n      tag_146\n        /* \"#utility.yul\":5097:5100   */\n      0xa0\n        /* \"#utility.yul\":5086:5095   */\n      dup4\n        /* \"#utility.yul\":5082:5101   */\n      add\n        /* \"#utility.yul\":5073:5079   */\n      dup6\n        /* \"#utility.yul\":5029:5102   */\n      tag_136\n      jump\t// in\n    tag_146:\n        /* \"#utility.yul\":5112:5190   */\n      tag_147\n        /* \"#utility.yul\":5185:5188   */\n      0xc0\n        /* \"#utility.yul\":5174:5183   */\n      dup4\n        /* \"#utility.yul\":5170:5189   */\n      add\n        /* \"#utility.yul\":5161:5167   */\n      dup5\n        /* \"#utility.yul\":5112:5190   */\n      tag_85\n      jump\t// in\n    tag_147:\n        /* \"#utility.yul\":3996:5197   */\n      swap9\n      swap8\n      pop\n      pop\n      pop\n      pop\n      pop\n      pop\n      pop\n      pop\n      jump\t// out\n        /* \"#utility.yul\":5203:5630   */\n    tag_33:\n        /* \"#utility.yul\":5346:5350   */\n      0x00\n        /* \"#utility.yul\":5384:5386   */\n      0x40\n        /* \"#utility.yul\":5373:5382   */\n      dup3\n        /* \"#utility.yul\":5369:5387   */\n      add\n        /* \"#utility.yul\":5361:5387   */\n      swap1\n      pop\n        /* \"#utility.yul\":5433:5442   */\n      dup2\n        /* \"#utility.yul\":5427:5431   */\n      dup2\n        /* \"#utility.yul\":5423:5443   */\n      sub\n        /* \"#utility.yul\":5419:5420   */\n      0x00\n        /* \"#utility.yul\":5408:5417   */\n      dup4\n        /* \"#utility.yul\":5404:5421   */\n      add\n        /* \"#utility.yul\":5397:5444   */\n      mstore\n        /* \"#utility.yul\":5461:5536   */\n      tag_149\n        /* \"#utility.yul\":5531:5535   */\n      dup2\n        /* \"#utility.yul\":5522:5528   */\n      dup6\n        /* \"#utility.yul\":5461:5536   */\n      tag_99\n      jump\t// in\n    tag_149:\n        /* \"#utility.yul\":5453:5536   */\n      swap1\n      pop\n        /* \"#utility.yul\":5546:5623   */\n      tag_150\n        /* \"#utility.yul\":5619:5621   */\n      0x20\n        /* \"#utility.yul\":5608:5617   */\n      dup4\n        /* \"#utility.yul\":5604:5622   */\n      add\n        /* \"#utility.yul\":5595:5601   */\n      dup5\n        /* \"#utility.yul\":5546:5623   */\n      tag_85\n      jump\t// in\n    tag_150:\n        /* \"#utility.yul\":5203:5630   */\n      swap4\n      swap3\n      pop\n      pop\n      pop\n      jump\t// out\n        /* \"#utility.yul\":5636:6053   */\n    tag_54:\n        /* \"#utility.yul\":5774:5778   */\n      0x00\n        /* \"#utility.yul\":5812:5814   */\n      0x40\n        /* \"#utility.yul\":5801:5810   */\n      dup3\n        /* \"#utility.yul\":5797:5815   */\n      add\n        /* \"#utility.yul\":5789:5815   */\n      swap1\n      pop\n        /* \"#utility.yul\":5861:5870   */\n      dup2\n        /* \"#utility.yul\":5855:5859   */\n      dup2\n        /* \"#utility.yul\":5851:5871   */\n      sub\n        /* \"#utility.yul\":5847:5848   */\n      0x00\n        /* \"#utility.yul\":5836:5845   */\n      dup4\n        /* \"#utility.yul\":5832:5849   */\n      add\n        /* \"#utility.yul\":5825:5872   */\n      mstore\n        /* \"#utility.yul\":5889:5964   */\n      tag_152\n        /* \"#utility.yul\":5959:5963   */\n      dup2\n        /* \"#utility.yul\":5950:5956   */\n      dup6\n        /* \"#utility.yul\":5889:5964   */\n      tag_99\n      jump\t// in\n    tag_152:\n        /* \"#utility.yul\":5881:5964   */\n      swap1\n      pop\n        /* \"#utility.yul\":5974:6046   */\n      tag_153\n        /* \"#utility.yul\":6042:6044   */\n      0x20\n        /* \"#utility.yul\":6031:6040   */\n      dup4\n        /* \"#utility.yul\":6027:6045   */\n      add\n        /* \"#utility.yul\":6018:6024   */\n      dup5\n        /* \"#utility.yul\":5974:6046   */\n      tag_136\n      jump\t// in\n    tag_153:\n        /* \"#utility.yul\":5636:6053   */\n      swap4\n      swap3\n      pop\n      pop\n      pop\n      jump\t// out\n        /* \"#utility.yul\":6059:6478   */\n    tag_37:\n        /* \"#utility.yul\":6225:6229   */\n      0x00\n        /* \"#utility.yul\":6263:6265   */\n      0x20\n        /* \"#utility.yul\":6252:6261   */\n      dup3\n        /* \"#utility.yul\":6248:6266   */\n      add\n        /* \"#utility.yul\":6240:6266   */\n      swap1\n      pop\n        /* \"#utility.yul\":6312:6321   */\n      dup2\n        /* \"#utility.yul\":6306:6310   */\n      dup2\n        /* \"#utility.yul\":6302:6322   */\n      sub\n        /* \"#utility.yul\":6298:6299   */\n      0x00\n        /* \"#utility.yul\":6287:6296   */\n      dup4\n        /* \"#utility.yul\":6283:6300   */\n      add\n        /* \"#utility.yul\":6276:6323   */\n      mstore\n        /* \"#utility.yul\":6340:6471   */\n      tag_155\n        /* \"#utility.yul\":6466:6470   */\n      dup2\n        /* \"#utility.yul\":6340:6471   */\n      tag_111\n      jump\t// in\n    tag_155:\n        /* \"#utility.yul\":6332:6471   */\n      swap1\n      pop\n        /* \"#utility.yul\":6059:6478   */\n      swap2\n      swap1\n      pop\n      jump\t// out\n        /* \"#utility.yul\":6484:6903   */\n    tag_29:\n        /* \"#utility.yul\":6650:6654   */\n      0x00\n        /* \"#utility.yul\":6688:6690   */\n      0x20\n        /* \"#utility.yul\":6677:6686   */\n      dup3\n        /* \"#utility.yul\":6673:6691   */\n      add\n        /* \"#utility.yul\":6665:6691   */\n      swap1\n      pop\n        /* \"#utility.yul\":6737:6746   */\n      dup2\n        /* \"#utility.yul\":6731:6735   */\n      dup2\n        /* \"#utility.yul\":6727:6747   */\n      sub\n        /* \"#utility.yul\":6723:6724   */\n      0x00\n        /* \"#utility.yul\":6712:6721   */\n      dup4\n        /* \"#utility.yul\":6708:6725   */\n      add\n        /* \"#utility.yul\":6701:6748   */\n      mstore\n        /* \"#utility.yul\":6765:6896   */\n      tag_157\n        /* \"#utility.yul\":6891:6895   */\n      dup2\n        /* \"#utility.yul\":6765:6896   */\n      tag_116\n      jump\t// in\n    tag_157:\n        /* \"#utility.yul\":6757:6896   */\n      swap1\n      pop\n        /* \"#utility.yul\":6484:6903   */\n      swap2\n      swap1\n      pop\n      jump\t// out\n        /* \"#utility.yul\":6909:7328   */\n    tag_45:\n        /* \"#utility.yul\":7075:7079   */\n      0x00\n        /* \"#utility.yul\":7113:7115   */\n      0x20\n        /* \"#utility.yul\":7102:7111   */\n      dup3\n        /* \"#utility.yul\":7098:7116   */\n      add\n        /* \"#utility.yul\":7090:7116   */\n      swap1\n      pop\n        /* \"#utility.yul\":7162:7171   */\n      dup2\n        /* \"#utility.yul\":7156:7160   */\n      dup2\n        /* \"#utility.yul\":7152:7172   */\n      sub\n        /* \"#utility.yul\":7148:7149   */\n      0x00\n        /* \"#utility.yul\":7137:7146   */\n      dup4\n        /* \"#utility.yul\":7133:7150   */\n      add\n        /* \"#utility.yul\":7126:7173   */\n      mstore\n        /* \"#utility.yul\":7190:7321   */\n      tag_159\n        /* \"#utility.yul\":7316:7320   */\n      dup2\n        /* \"#utility.yul\":7190:7321   */\n      tag_121\n      jump\t// in\n    tag_159:\n        /* \"#utility.yul\":7182:7321   */\n      swap1\n      pop\n        /* \"#utility.yul\":6909:7328   */\n      swap2\n      swap1\n      pop\n      jump\t// out\n        /* \"#utility.yul\":7334:7753   */\n    tag_20:\n        /* \"#utility.yul\":7500:7504   */\n      0x00\n        /* \"#utility.yul\":7538:7540   */\n      0x20\n        /* \"#utility.yul\":7527:7536   */\n      dup3\n        /* \"#utility.yul\":7523:7541   */\n      add\n        /* \"#utility.yul\":7515:7541   */\n      swap1\n      pop\n        /* \"#utility.yul\":7587:7596   */\n      dup2\n        /* \"#utility.yul\":7581:7585   */\n      dup2\n        /* \"#utility.yul\":7577:7597   */\n      sub\n        /* \"#utility.yul\":7573:7574   */\n      0x00\n        /* \"#utility.yul\":7562:7571   */\n      dup4\n        /* \"#utility.yul\":7558:7575   */\n      add\n        /* \"#utility.yul\":7551:7598   */\n      mstore\n        /* \"#utility.yul\":7615:7746   */\n      tag_161\n        /* \"#utility.yul\":7741:7745   */\n      dup2\n        /* \"#utility.yul\":7615:7746   */\n      tag_126\n      jump\t// in\n    tag_161:\n        /* \"#utility.yul\":7607:7746   */\n      swap1\n      pop\n        /* \"#utility.yul\":7334:7753   */\n      swap2\n      swap1\n      pop\n      jump\t// out\n        /* \"#utility.yul\":7759:8178   */\n    tag_48:\n        /* \"#utility.yul\":7925:7929   */\n      0x00\n        /* \"#utility.yul\":7963:7965   */\n      0x20\n        /* \"#utility.yul\":7952:7961   */\n      dup3\n        /* \"#utility.yul\":7948:7966   */\n      add\n        /* \"#utility.yul\":7940:7966   */\n      swap1\n      pop\n        /* \"#utility.yul\":8012:8021   */\n      dup2\n        /* \"#utility.yul\":8006:8010   */\n      dup2\n        /* \"#utility.yul\":8002:8022   */\n      sub\n        /* \"#utility.yul\":7998:7999   */\n      0x00\n        /* \"#utility.yul\":7987:7996   */\n      dup4\n        /* \"#utility.yul\":7983:8000   */\n      add\n        /* \"#utility.yul\":7976:8023   */\n      mstore\n        /* \"#utility.yul\":8040:8171   */\n      tag_163\n        /* \"#utility.yul\":8166:8170   */\n      dup2\n        /* \"#utility.yul\":8040:8171   */\n      tag_131\n      jump\t// in\n    tag_163:\n        /* \"#utility.yul\":8032:8171   */\n      swap1\n      pop\n        /* \"#utility.yul\":7759:8178   */\n      swap2\n      swap1\n      pop\n      jump\t// out\n        /* \"#utility.yul\":8265:8406   */\n    tag_107:\n        /* \"#utility.yul\":8314:8318   */\n      0x00\n        /* \"#utility.yul\":8337:8340   */\n      dup2\n        /* \"#utility.yul\":8329:8340   */\n      swap1\n      pop\n        /* \"#utility.yul\":8360:8363   */\n      dup2\n        /* \"#utility.yul\":8357:8358   */\n      0x00\n        /* \"#utility.yul\":8350:8364   */\n      mstore\n        /* \"#utility.yul\":8394:8398   */\n      0x20\n        /* \"#utility.yul\":8391:8392   */\n      0x00\n        /* \"#utility.yul\":8381:8399   */\n      keccak256\n        /* \"#utility.yul\":8373:8399   */\n      swap1\n      pop\n        /* \"#utility.yul\":8265:8406   */\n      swap2\n      swap1\n      pop\n      jump\t// out\n        /* \"#utility.yul\":8412:8511   */\n    tag_92:\n        /* \"#utility.yul\":8464:8470   */\n      0x00\n        /* \"#utility.yul\":8498:8503   */\n      dup2\n        /* \"#utility.yul\":8492:8504   */\n      mload\n        /* \"#utility.yul\":8482:8504   */\n      swap1\n      pop\n        /* \"#utility.yul\":8412:8511   */\n      swap2\n      swap1\n      pop\n      jump\t// out\n        /* \"#utility.yul\":8517:8686   */\n    tag_94:\n        /* \"#utility.yul\":8601:8612   */\n      0x00\n        /* \"#utility.yul\":8635:8641   */\n      dup3\n        /* \"#utility.yul\":8630:8633   */\n      dup3\n        /* \"#utility.yul\":8623:8642   */\n      mstore\n        /* \"#utility.yul\":8675:8679   */\n      0x20\n        /* \"#utility.yul\":8670:8673   */\n      dup3\n        /* \"#utility.yul\":8666:8680   */\n      add\n        /* \"#utility.yul\":8651:8680   */\n      swap1\n      pop\n        /* \"#utility.yul\":8517:8686   */\n      swap3\n      swap2\n      pop\n      pop\n      jump\t// out\n        /* \"#utility.yul\":8692:8997   */\n    tag_52:\n        /* \"#utility.yul\":8732:8735   */\n      0x00\n        /* \"#utility.yul\":8751:8771   */\n      tag_170\n        /* \"#utility.yul\":8769:8770   */\n      dup3\n        /* \"#utility.yul\":8751:8771   */\n      tag_139\n      jump\t// in\n    tag_170:\n        /* \"#utility.yul\":8746:8771   */\n      swap2\n      pop\n        /* \"#utility.yul\":8785:8805   */\n      tag_171\n        /* \"#utility.yul\":8803:8804   */\n      dup4\n        /* \"#utility.yul\":8785:8805   */\n      tag_139\n      jump\t// in\n    tag_171:\n        /* \"#utility.yul\":8780:8805   */\n      swap3\n      pop\n        /* \"#utility.yul\":8939:8940   */\n      dup3\n        /* \"#utility.yul\":8871:8937   */\n      0xffffffffffffffffffffffffffffffffffffffffffffffffffffffffffffffff\n        /* \"#utility.yul\":8867:8941   */\n      sub\n        /* \"#utility.yul\":8864:8865   */\n      dup3\n        /* \"#utility.yul\":8861:8942   */\n      gt\n        /* \"#utility.yul\":8858:8965   */\n      iszero\n      tag_172\n      jumpi\n        /* \"#utility.yul\":8945:8963   */\n      tag_173\n      tag_174\n      jump\t// in\n    tag_173:\n        /* \"#utility.yul\":8858:8965   */\n    tag_172:\n        /* \"#utility.yul\":8989:8990   */\n      dup3\n        /* \"#utility.yul\":8986:8987   */\n      dup3\n        /* \"#utility.yul\":8982:8991   */\n      add\n        /* \"#utility.yul\":8975:8991   */\n      swap1\n      pop\n        /* \"#utility.yul\":8692:8997   */\n      swap3\n      swap2\n      pop\n      pop\n      jump\t// out\n        /* \"#utility.yul\":9003:9107   */\n    tag_84:\n        /* \"#utility.yul\":9048:9055   */\n      0x00\n        /* \"#utility.yul\":9077:9101   */\n      tag_176\n        /* \"#utility.yul\":9095:9100   */\n      dup3\n        /* \"#utility.yul\":9077:9101   */\n      tag_177\n      jump\t// in\n    tag_176:\n        /* \"#utility.yul\":9066:9101   */\n      swap1\n      pop\n        /* \"#utility.yul\":9003:9107   */\n      swap2\n      swap1\n      pop\n      jump\t// out\n        /* \"#utility.yul\":9113:9238   */\n    tag_178:\n        /* \"#utility.yul\":9157:9164   */\n      0x00\n        /* \"#utility.yul\":9186:9191   */\n      dup2\n        /* \"#utility.yul\":9175:9191   */\n      swap1\n      pop\n        /* \"#utility.yul\":9192:9232   */\n      tag_180\n        /* \"#utility.yul\":9226:9231   */\n      dup3\n        /* \"#utility.yul\":9192:9232   */\n      tag_181\n      jump\t// in\n    tag_180:\n        /* \"#utility.yul\":9113:9238   */\n      swap2\n      swap1\n      pop\n      jump\t// out\n        /* \"#utility.yul\":9244:9370   */\n    tag_177:\n        /* \"#utility.yul\":9281:9288   */\n      0x00\n        /* \"#utility.yul\":9321:9363   */\n      0xffffffffffffffffffffffffffffffffffffffff\n        /* \"#utility.yul\":9314:9319   */\n      dup3\n        /* \"#utility.yul\":9310:9364   */\n      and\n        /* \"#utility.yul\":9299:9364   */\n      swap1\n      pop\n        /* \"#utility.yul\":9244:9370   */\n      swap2\n      swap1\n      pop\n      jump\t// out\n        /* \"#utility.yul\":9376:9453   */\n    tag_139:\n        /* \"#utility.yul\":9413:9420   */\n      0x00\n        /* \"#utility.yul\":9442:9447   */\n      dup2\n        /* \"#utility.yul\":9431:9447   */\n      swap1\n      pop\n        /* \"#utility.yul\":9376:9453   */\n      swap2\n      swap1\n      pop\n      jump\t// out\n        /* \"#utility.yul\":9459:9584   */\n    tag_88:\n        /* \"#utility.yul\":9514:9523   */\n      0x00\n        /* \"#utility.yul\":9547:9578   */\n      tag_185\n        /* \"#utility.yul\":9572:9577   */\n      dup3\n        /* \"#utility.yul\":9547:9578   */\n      tag_178\n      jump\t// in\n    tag_185:\n        /* \"#utility.yul\":9534:9578   */\n      swap1\n      pop\n        /* \"#utility.yul\":9459:9584   */\n      swap2\n      swap1\n      pop\n      jump\t// out\n        /* \"#utility.yul\":9590:9897   */\n    tag_96:\n        /* \"#utility.yul\":9658:9659   */\n      0x00\n        /* \"#utility.yul\":9668:9781   */\n    tag_187:\n        /* \"#utility.yul\":9682:9688   */\n      dup4\n        /* \"#utility.yul\":9679:9680   */\n      dup2\n        /* \"#utility.yul\":9676:9689   */\n      lt\n        /* \"#utility.yul\":9668:9781   */\n      iszero\n      tag_189\n      jumpi\n        /* \"#utility.yul\":9767:9768   */\n      dup1\n        /* \"#utility.yul\":9762:9765   */\n      dup3\n        /* \"#utility.yul\":9758:9769   */\n      add\n        /* \"#utility.yul\":9752:9770   */\n      mload\n        /* \"#utility.yul\":9748:9749   */\n      dup2\n        /* \"#utility.yul\":9743:9746   */\n      dup5\n        /* \"#utility.yul\":9739:9750   */\n      add\n        /* \"#utility.yul\":9732:9771   */\n      mstore\n        /* \"#utility.yul\":9704:9706   */\n      0x20\n        /* \"#utility.yul\":9701:9702   */\n      dup2\n        /* \"#utility.yul\":9697:9707   */\n      add\n        /* \"#utility.yul\":9692:9707   */\n      swap1\n      pop\n        /* \"#utility.yul\":9668:9781   */\n      jump(tag_187)\n    tag_189:\n        /* \"#utility.yul\":9799:9805   */\n      dup4\n        /* \"#utility.yul\":9796:9797   */\n      dup2\n        /* \"#utility.yul\":9793:9806   */\n      gt\n        /* \"#utility.yul\":9790:9891   */\n      iszero\n      tag_190\n      jumpi\n        /* \"#utility.yul\":9879:9880   */\n      0x00\n        /* \"#utility.yul\":9870:9876   */\n      dup5\n        /* \"#utility.yul\":9865:9868   */\n      dup5\n        /* \"#utility.yul\":9861:9877   */\n      add\n        /* \"#utility.yul\":9854:9881   */\n      mstore\n        /* \"#utility.yul\":9790:9891   */\n    tag_190:\n        /* \"#utility.yul\":9639:9897   */\n      pop\n        /* \"#utility.yul\":9590:9897   */\n      pop\n      pop\n      pop\n      jump\t// out\n        /* \"#utility.yul\":9903:10223   */\n    tag_56:\n        /* \"#utility.yul\":9947:9953   */\n      0x00\n        /* \"#utility.yul\":9984:9985   */\n      0x02\n        /* \"#utility.yul\":9978:9982   */\n      dup3\n        /* \"#utility.yul\":9974:9986   */\n      div\n        /* \"#utility.yul\":9964:9986   */\n      swap1\n      pop\n        /* \"#utility.yul\":10031:10032   */\n      0x01\n        /* \"#utility.yul\":10025:10029   */\n      dup3\n        /* \"#utility.yul\":10021:10033   */\n      and\n        /* \"#utility.yul\":10052:10070   */\n      dup1\n        /* \"#utility.yul\":10042:10123   */\n      tag_192\n      jumpi\n        /* \"#utility.yul\":10108:10112   */\n      0x7f\n        /* \"#utility.yul\":10100:10106   */\n      dup3\n        /* \"#utility.yul\":10096:10113   */\n      and\n        /* \"#utility.yul\":10086:10113   */\n      swap2\n      pop\n        /* \"#utility.yul\":10042:10123   */\n    tag_192:\n        /* \"#utility.yul\":10170:10172   */\n      0x20\n        /* \"#utility.yul\":10162:10168   */\n      dup3\n        /* \"#utility.yul\":10159:10173   */\n      lt\n        /* \"#utility.yul\":10139:10157   */\n      dup2\n        /* \"#utility.yul\":10136:10174   */\n      eq\n        /* \"#utility.yul\":10133:10217   */\n      iszero\n      tag_193\n      jumpi\n        /* \"#utility.yul\":10189:10207   */\n      tag_194\n      tag_195\n      jump\t// in\n    tag_194:\n        /* \"#utility.yul\":10133:10217   */\n    tag_193:\n        /* \"#utility.yul\":9954:10223   */\n      pop\n        /* \"#utility.yul\":9903:10223   */\n      swap2\n      swap1\n      pop\n      jump\t// out\n        /* \"#utility.yul\":10229:10409   */\n    tag_174:\n        /* \"#utility.yul\":10277:10354   */\n      0x4e487b7100000000000000000000000000000000000000000000000000000000\n        /* \"#utility.yul\":10274:10275   */\n      0x00\n        /* \"#utility.yul\":10267:10355   */\n      mstore\n        /* \"#utility.yul\":10374:10378   */\n      0x11\n        /* \"#utility.yul\":10371:10372   */\n      0x04\n        /* \"#utility.yul\":10364:10379   */\n      mstore\n        /* \"#utility.yul\":10398:10402   */\n      0x24\n        /* \"#utility.yul\":10395:10396   */\n      0x00\n        /* \"#utility.yul\":10388:10403   */\n      revert\n        /* \"#utility.yul\":10415:10595   */\n    tag_24:\n        /* \"#utility.yul\":10463:10540   */\n      0x4e487b7100000000000000000000000000000000000000000000000000000000\n        /* \"#utility.yul\":10460:10461   */\n      0x00\n        /* \"#utility.yul\":10453:10541   */\n      mstore\n        /* \"#utility.yul\":10560:10564   */\n      0x21\n        /* \"#utility.yul\":10557:10558   */\n      0x04\n        /* \"#utility.yul\":10550:10565   */\n      mstore\n        /* \"#utility.yul\":10584:10588   */\n      0x24\n        /* \"#utility.yul\":10581:10582   */\n      0x00\n        /* \"#utility.yul\":10574:10589   */\n      revert\n        /* \"#utility.yul\":10601:10781   */\n    tag_195:\n        /* \"#utility.yul\":10649:10726   */\n      0x4e487b7100000000000000000000000000000000000000000000000000000000\n        /* \"#utility.yul\":10646:10647   */\n      0x00\n        /* \"#utility.yul\":10639:10727   */\n      mstore\n        /* \"#utility.yul\":10746:10750   */\n      0x22\n        /* \"#utility.yul\":10743:10744   */\n      0x04\n        /* \"#utility.yul\":10736:10751   */\n      mstore\n        /* \"#utility.yul\":10770:10774   */\n      0x24\n        /* \"#utility.yul\":10767:10768   */\n      0x00\n        /* \"#utility.yul\":10760:10775   */\n      revert\n        /* \"#utility.yul\":10910:11027   */\n    tag_79:\n        /* \"#utility.yul\":11019:11020   */\n      0x00\n        /* \"#utility.yul\":11016:11017   */\n      dup1\n        /* \"#utility.yul\":11009:11021   */\n      revert\n        /* \"#utility.yul\":11033:11135   */\n    tag_98:\n        /* \"#utility.yul\":11074:11080   */\n      0x00\n        /* \"#utility.yul\":11125:11127   */\n      0x1f\n        /* \"#utility.yul\":11121:11128   */\n      not\n        /* \"#utility.yul\":11116:11118   */\n      0x1f\n        /* \"#utility.yul\":11109:11114   */\n      dup4\n        /* \"#utility.yul\":11105:11119   */\n      add\n        /* \"#utility.yul\":11101:11129   */\n      and\n        /* \"#utility.yul\":11091:11129   */\n      swap1\n      pop\n        /* \"#utility.yul\":11033:11135   */\n      swap2\n      swap1\n      pop\n      jump\t// out\n        /* \"#utility.yul\":11141:11362   */\n    tag_115:\n        /* \"#utility.yul\":11281:11315   */\n      0x54686520617574686f722063616e6e6f742066756e64207468652070726f6a65\n        /* \"#utility.yul\":11277:11278   */\n      0x00\n        /* \"#utility.yul\":11269:11275   */\n      dup3\n        /* \"#utility.yul\":11265:11279   */\n      add\n        /* \"#utility.yul\":11258:11316   */\n      mstore\n        /* \"#utility.yul\":11350:11354   */\n      0x6374000000000000000000000000000000000000000000000000000000000000\n        /* \"#utility.yul\":11345:11347   */\n      0x20\n        /* \"#utility.yul\":11337:11343   */\n      dup3\n        /* \"#utility.yul\":11333:11348   */\n      add\n        /* \"#utility.yul\":11326:11355   */\n      mstore\n        /* \"#utility.yul\":11141:11362   */\n      pop\n      jump\t// out\n        /* \"#utility.yul\":11368:11545   */\n    tag_120:\n        /* \"#utility.yul\":11508:11537   */\n      0x4e6577207374617465206d75737420626520646966666572656e740000000000\n        /* \"#utility.yul\":11504:11505   */\n      0x00\n        /* \"#utility.yul\":11496:11502   */\n      dup3\n        /* \"#utility.yul\":11492:11506   */\n      add\n        /* \"#utility.yul\":11485:11538   */\n      mstore\n        /* \"#utility.yul\":11368:11545   */\n      pop\n      jump\t// out\n        /* \"#utility.yul\":11551:11774   */\n    tag_125:\n        /* \"#utility.yul\":11691:11725   */\n      0x5468652066756e64696e67206f66207468652070726f6a65637420697320636c\n        /* \"#utility.yul\":11687:11688   */\n      0x00\n        /* \"#utility.yul\":11679:11685   */\n      dup3\n        /* \"#utility.yul\":11675:11689   */\n      add\n        /* \"#utility.yul\":11668:11726   */\n      mstore\n        /* \"#utility.yul\":11760:11766   */\n      0x6f73656400000000000000000000000000000000000000000000000000000000\n        /* \"#utility.yul\":11755:11757   */\n      0x20\n        /* \"#utility.yul\":11747:11753   */\n      dup3\n        /* \"#utility.yul\":11743:11758   */\n      add\n        /* \"#utility.yul\":11736:11767   */\n      mstore\n        /* \"#utility.yul\":11551:11774   */\n      pop\n      jump\t// out\n        /* \"#utility.yul\":11780:12014   */\n    tag_130:\n        /* \"#utility.yul\":11920:11954   */\n      0x4f6e6c7920617574686f722063616e206368616e676520746865207374617465\n        /* \"#utility.yul\":11916:11917   */\n      0x00\n        /* \"#utility.yul\":11908:11914   */\n      dup3\n        /* \"#utility.yul\":11904:11918   */\n      add\n        /* \"#utility.yul\":11897:11955   */\n      mstore\n        /* \"#utility.yul\":11989:12006   */\n      0x206f66207468652070726f6a6563740000000000000000000000000000000000\n        /* \"#utility.yul\":11984:11986   */\n      0x20\n        /* \"#utility.yul\":11976:11982   */\n      dup3\n        /* \"#utility.yul\":11972:11987   */\n      add\n        /* \"#utility.yul\":11965:12007   */\n      mstore\n        /* \"#utility.yul\":11780:12014   */\n      pop\n      jump\t// out\n        /* \"#utility.yul\":12020:12241   */\n    tag_135:\n        /* \"#utility.yul\":12160:12194   */\n      0x66756e6472616973696e67206d7573742062652067726561746572207468616e\n        /* \"#utility.yul\":12156:12157   */\n      0x00\n        /* \"#utility.yul\":12148:12154   */\n      dup3\n        /* \"#utility.yul\":12144:12158   */\n      add\n        /* \"#utility.yul\":12137:12195   */\n      mstore\n        /* \"#utility.yul\":12229:12233   */\n      0x2030000000000000000000000000000000000000000000000000000000000000\n        /* \"#utility.yul\":12224:12226   */\n      0x20\n        /* \"#utility.yul\":12216:12222   */\n      dup3\n        /* \"#utility.yul\":12212:12227   */\n      add\n        /* \"#utility.yul\":12205:12234   */\n      mstore\n        /* \"#utility.yul\":12020:12241   */\n      pop\n      jump\t// out\n        /* \"#utility.yul\":12247:12359   */\n    tag_181:\n        /* \"#utility.yul\":12327:12328   */\n      0x02\n        /* \"#utility.yul\":12320:12325   */\n      dup2\n        /* \"#utility.yul\":12317:12329   */\n      lt\n        /* \"#utility.yul\":12307:12353   */\n      tag_209\n      jumpi\n        /* \"#utility.yul\":12333:12351   */\n      tag_210\n      tag_24\n      jump\t// in\n    tag_210:\n        /* \"#utility.yul\":12307:12353   */\n    tag_209:\n        /* \"#utility.yul\":12247:12359   */\n      pop\n      jump\t// out\n        /* \"#utility.yul\":12365:12471   */\n    tag_75:\n        /* \"#utility.yul\":12445:12446   */\n      0x02\n        /* \"#utility.yul\":12438:12443   */\n      dup2\n        /* \"#utility.yul\":12435:12447   */\n      lt\n        /* \"#utility.yul\":12425:12465   */\n      tag_212\n      jumpi\n        /* \"#utility.yul\":12461:12462   */\n      0x00\n        /* \"#utility.yul\":12458:12459   */\n      dup1\n        /* \"#utility.yul\":12451:12463   */\n      revert\n        /* \"#utility.yul\":12425:12465   */\n    tag_212:\n        /* \"#utility.yul\":12365:12471   */\n      pop\n      jump\t// out\n\n    auxdata: 0xa26469706673582212204ff6a707cef446bbc735ed4bf01e7fb810c0c926f4b867c3667b79932f82bd8d64736f6c63430008070033\n}\n",
				"bytecode": {
					"linkReferences": {},
					"object": "60806040523480156200001157600080fd5b50604051620012b5380380620012b58339818101604052810190620000379190620002d5565b6040518060e001604052808581526020018481526020018381526020018281526020013373ffffffffffffffffffffffffffffffffffffffff1681526020016000815260200160006001811115620000945762000093620004af565b5b815250600080820151816000019080519060200190620000b692919062000190565b506020820151816001019080519060200190620000d592919062000190565b506040820151816002019080519060200190620000f492919062000190565b506060820151816003015560808201518160040160006101000a81548173ffffffffffffffffffffffffffffffffffffffff021916908373ffffffffffffffffffffffffffffffffffffffff16021790555060a0820151816005015560c08201518160060160006101000a81548160ff021916908360018111156200017e576200017d620004af565b5b0217905550905050505050506200057b565b8280546200019e9062000443565b90600052602060002090601f016020900481019282620001c257600085556200020e565b82601f10620001dd57805160ff19168380011785556200020e565b828001600101855582156200020e579182015b828111156200020d578251825591602001919060010190620001f0565b5b5090506200021d919062000221565b5090565b5b808211156200023c57600081600090555060010162000222565b5090565b6000620002576200025184620003cd565b620003a4565b90508281526020810184848401111562000276576200027562000541565b5b620002838482856200040d565b509392505050565b600082601f830112620002a357620002a26200053c565b5b8151620002b584826020860162000240565b91505092915050565b600081519050620002cf8162000561565b92915050565b60008060008060808587031215620002f257620002f16200054b565b5b600085015167ffffffffffffffff81111562000313576200031262000546565b5b62000321878288016200028b565b945050602085015167ffffffffffffffff81111562000345576200034462000546565b5b62000353878288016200028b565b935050604085015167ffffffffffffffff81111562000377576200037662000546565b5b62000385878288016200028b565b92505060606200039887828801620002be565b91505092959194509250565b6000620003b0620003c3565b9050620003be828262000479565b919050565b6000604051905090565b600067ffffffffffffffff821115620003eb57620003ea6200050d565b5b620003f68262000550565b9050602081019050919050565b6000819050919050565b60005b838110156200042d57808201518184015260208101905062000410565b838111156200043d576000848401525b50505050565b600060028204905060018216806200045c57607f821691505b60208210811415620004735762000472620004de565b5b50919050565b620004848262000550565b810181811067ffffffffffffffff82111715620004a657620004a56200050d565b5b80604052505050565b7f4e487b7100000000000000000000000000000000000000000000000000000000600052602160045260246000fd5b7f4e487b7100000000000000000000000000000000000000000000000000000000600052602260045260246000fd5b7f4e487b7100000000000000000000000000000000000000000000000000000000600052604160045260246000fd5b600080fd5b600080fd5b600080fd5b600080fd5b6000601f19601f8301169050919050565b6200056c8162000403565b81146200057857600080fd5b50565b610d2a806200058b6000396000f3fe6080604052600436106100345760003560e01c80635699fadc14610039578063d63dc66114610062578063f60ca60d1461006c575b600080fd5b34801561004557600080fd5b50610060600480360381019061005b9190610635565b61009d565b005b61006a610215565b005b34801561007857600080fd5b5061008161042b565b60405161009497969594939291906107f7565b60405180910390f35b600060040160009054906101000a900473ffffffffffffffffffffffffffffffffffffffff1673ffffffffffffffffffffffffffffffffffffffff163373ffffffffffffffffffffffffffffffffffffffff1614610130576040517f08c379a00000000000000000000000000000000000000000000000000000000081526004016101279061093b565b60405180910390fd5b80600181111561014357610142610af7565b5b600060060160009054906101000a900460ff16600181111561016857610167610af7565b5b14156101a9576040517f08c379a00000000000000000000000000000000000000000000000000000000081526004016101a0906108fb565b60405180910390fd5b80600060060160006101000a81548160ff021916908360018111156101d1576101d0610af7565b5b02179055507fb364ab0cadec04bec8a97e81743129cecc3480279fb67b9378df4219238b250f600080018260405161020a92919061087b565b60405180910390a150565b600060040160009054906101000a900473ffffffffffffffffffffffffffffffffffffffff1673ffffffffffffffffffffffffffffffffffffffff163373ffffffffffffffffffffffffffffffffffffffff1614156102a9576040517f08c379a00000000000000000000000000000000000000000000000000000000081526004016102a0906108db565b60405180910390fd5b6001808111156102bc576102bb610af7565b5b600060060160009054906101000a900460ff1660018111156102e1576102e0610af7565b5b1415610322576040517f08c379a00000000000000000000000000000000000000000000000000000000081526004016103199061091b565b60405180910390fd5b60003411610365576040517f08c379a000000000000000000000000000000000000000000000000000000000815260040161035c9061095b565b60405180910390fd5b600060040160009054906101000a900473ffffffffffffffffffffffffffffffffffffffff1673ffffffffffffffffffffffffffffffffffffffff166108fc349081150290604051600060405180830381858888f193505050501580156103d0573d6000803e3d6000fd5b5034600060050160008282546103e691906109ac565b925050819055507f98a99e594dc0943c255bf9563ae2c4da6ffcfd06f78b396b88988548ac825ba860008001346040516104219291906108ab565b60405180910390a1565b600080600001805461043c90610a96565b80601f016020809104026020016040519081016040528092919081815260200182805461046890610a96565b80156104b55780601f1061048a576101008083540402835291602001916104b5565b820191906000526020600020905b81548152906001019060200180831161049857829003601f168201915b5050505050908060010180546104ca90610a96565b80601f01602080910402602001604051908101604052809291908181526020018280546104f690610a96565b80156105435780601f1061051857610100808354040283529160200191610543565b820191906000526020600020905b81548152906001019060200180831161052657829003601f168201915b50505050509080600201805461055890610a96565b80601f016020809104026020016040519081016040528092919081815260200182805461058490610a96565b80156105d15780601f106105a6576101008083540402835291602001916105d1565b820191906000526020600020905b8154815290600101906020018083116105b457829003601f168201915b5050505050908060030154908060040160009054906101000a900473ffffffffffffffffffffffffffffffffffffffff16908060050154908060060160009054906101000a900460ff16905087565b60008135905061062f81610ce4565b92915050565b60006020828403121561064b5761064a610b55565b5b600061065984828501610620565b91505092915050565b61066b81610a02565b82525050565b61067a81610a51565b82525050565b600061068b82610990565b610695818561099b565b93506106a5818560208601610a63565b6106ae81610b5a565b840191505092915050565b600081546106c681610a96565b6106d0818661099b565b945060018216600081146106eb57600181146106fd57610730565b60ff1983168652602086019350610730565b6107068561097b565b60005b8381101561072857815481890152600182019150602081019050610709565b808801955050505b50505092915050565b600061074660228361099b565b915061075182610b6b565b604082019050919050565b6000610769601b8361099b565b915061077482610bba565b602082019050919050565b600061078c60248361099b565b915061079782610be3565b604082019050919050565b60006107af602f8361099b565b91506107ba82610c32565b604082019050919050565b60006107d260228361099b565b91506107dd82610c81565b604082019050919050565b6107f181610a47565b82525050565b600060e0820190508181036000830152610811818a610680565b905081810360208301526108258189610680565b905081810360408301526108398188610680565b905061084860608301876107e8565b6108556080830186610662565b61086260a08301856107e8565b61086f60c0830184610671565b98975050505050505050565b6000604082019050818103600083015261089581856106b9565b90506108a46020830184610671565b9392505050565b600060408201905081810360008301526108c581856106b9565b90506108d460208301846107e8565b9392505050565b600060208201905081810360008301526108f481610739565b9050919050565b600060208201905081810360008301526109148161075c565b9050919050565b600060208201905081810360008301526109348161077f565b9050919050565b60006020820190508181036000830152610954816107a2565b9050919050565b60006020820190508181036000830152610974816107c5565b9050919050565b60008190508160005260206000209050919050565b600081519050919050565b600082825260208201905092915050565b60006109b782610a47565b91506109c283610a47565b9250827fffffffffffffffffffffffffffffffffffffffffffffffffffffffffffffffff038211156109f7576109f6610ac8565b5b828201905092915050565b6000610a0d82610a27565b9050919050565b6000819050610a2282610cd0565b919050565b600073ffffffffffffffffffffffffffffffffffffffff82169050919050565b6000819050919050565b6000610a5c82610a14565b9050919050565b60005b83811015610a81578082015181840152602081019050610a66565b83811115610a90576000848401525b50505050565b60006002820490506001821680610aae57607f821691505b60208210811415610ac257610ac1610b26565b5b50919050565b7f4e487b7100000000000000000000000000000000000000000000000000000000600052601160045260246000fd5b7f4e487b7100000000000000000000000000000000000000000000000000000000600052602160045260246000fd5b7f4e487b7100000000000000000000000000000000000000000000000000000000600052602260045260246000fd5b600080fd5b6000601f19601f8301169050919050565b7f54686520617574686f722063616e6e6f742066756e64207468652070726f6a6560008201527f6374000000000000000000000000000000000000000000000000000000000000602082015250565b7f4e6577207374617465206d75737420626520646966666572656e740000000000600082015250565b7f5468652066756e64696e67206f66207468652070726f6a65637420697320636c60008201527f6f73656400000000000000000000000000000000000000000000000000000000602082015250565b7f4f6e6c7920617574686f722063616e206368616e67652074686520737461746560008201527f206f66207468652070726f6a6563740000000000000000000000000000000000602082015250565b7f66756e6472616973696e67206d7573742062652067726561746572207468616e60008201527f2030000000000000000000000000000000000000000000000000000000000000602082015250565b60028110610ce157610ce0610af7565b5b50565b60028110610cf157600080fd5b5056fea26469706673582212204ff6a707cef446bbc735ed4bf01e7fb810c0c926f4b867c3667b79932f82bd8d64736f6c63430008070033",
					"opcodes": "PUSH1 0x80 PUSH1 0x40 MSTORE CALLVALUE DUP1 ISZERO PUSH3 0x11 JUMPI PUSH1 0x0 DUP1 REVERT JUMPDEST POP PUSH1 0x40 MLOAD PUSH3 0x12B5 CODESIZE SUB DUP1 PUSH3 0x12B5 DUP4 CODECOPY DUP2 DUP2 ADD PUSH1 0x40 MSTORE DUP2 ADD SWAP1 PUSH3 0x37 SWAP2 SWAP1 PUSH3 0x2D5 JUMP JUMPDEST PUSH1 0x40 MLOAD DUP1 PUSH1 0xE0 ADD PUSH1 0x40 MSTORE DUP1 DUP6 DUP2 MSTORE PUSH1 0x20 ADD DUP5 DUP2 MSTORE PUSH1 0x20 ADD DUP4 DUP2 MSTORE PUSH1 0x20 ADD DUP3 DUP2 MSTORE PUSH1 0x20 ADD CALLER PUSH20 0xFFFFFFFFFFFFFFFFFFFFFFFFFFFFFFFFFFFFFFFF AND DUP2 MSTORE PUSH1 0x20 ADD PUSH1 0x0 DUP2 MSTORE PUSH1 0x20 ADD PUSH1 0x0 PUSH1 0x1 DUP2 GT ISZERO PUSH3 0x94 JUMPI PUSH3 0x93 PUSH3 0x4AF JUMP JUMPDEST JUMPDEST DUP2 MSTORE POP PUSH1 0x0 DUP1 DUP3 ADD MLOAD DUP2 PUSH1 0x0 ADD SWAP1 DUP1 MLOAD SWAP1 PUSH1 0x20 ADD SWAP1 PUSH3 0xB6 SWAP3 SWAP2 SWAP1 PUSH3 0x190 JUMP JUMPDEST POP PUSH1 0x20 DUP3 ADD MLOAD DUP2 PUSH1 0x1 ADD SWAP1 DUP1 MLOAD SWAP1 PUSH1 0x20 ADD SWAP1 PUSH3 0xD5 SWAP3 SWAP2 SWAP1 PUSH3 0x190 JUMP JUMPDEST POP PUSH1 0x40 DUP3 ADD MLOAD DUP2 PUSH1 0x2 ADD SWAP1 DUP1 MLOAD SWAP1 PUSH1 0x20 ADD SWAP1 PUSH3 0xF4 SWAP3 SWAP2 SWAP1 PUSH3 0x190 JUMP JUMPDEST POP PUSH1 0x60 DUP3 ADD MLOAD DUP2 PUSH1 0x3 ADD SSTORE PUSH1 0x80 DUP3 ADD MLOAD DUP2 PUSH1 0x4 ADD PUSH1 0x0 PUSH2 0x100 EXP DUP2 SLOAD DUP2 PUSH20 0xFFFFFFFFFFFFFFFFFFFFFFFFFFFFFFFFFFFFFFFF MUL NOT AND SWAP1 DUP4 PUSH20 0xFFFFFFFFFFFFFFFFFFFFFFFFFFFFFFFFFFFFFFFF AND MUL OR SWAP1 SSTORE POP PUSH1 0xA0 DUP3 ADD MLOAD DUP2 PUSH1 0x5 ADD SSTORE PUSH1 0xC0 DUP3 ADD MLOAD DUP2 PUSH1 0x6 ADD PUSH1 0x0 PUSH2 0x100 EXP DUP2 SLOAD DUP2 PUSH1 0xFF MUL NOT AND SWAP1 DUP4 PUSH1 0x1 DUP2 GT ISZERO PUSH3 0x17E JUMPI PUSH3 0x17D PUSH3 0x4AF JUMP JUMPDEST JUMPDEST MUL OR SWAP1 SSTORE POP SWAP1 POP POP POP POP POP POP PUSH3 0x57B JUMP JUMPDEST DUP3 DUP1 SLOAD PUSH3 0x19E SWAP1 PUSH3 0x443 JUMP JUMPDEST SWAP1 PUSH1 0x0 MSTORE PUSH1 0x20 PUSH1 0x0 KECCAK256 SWAP1 PUSH1 0x1F ADD PUSH1 0x20 SWAP1 DIV DUP2 ADD SWAP3 DUP3 PUSH3 0x1C2 JUMPI PUSH1 0x0 DUP6 SSTORE PUSH3 0x20E JUMP JUMPDEST DUP3 PUSH1 0x1F LT PUSH3 0x1DD JUMPI DUP1 MLOAD PUSH1 0xFF NOT AND DUP4 DUP1 ADD OR DUP6 SSTORE PUSH3 0x20E JUMP JUMPDEST DUP3 DUP1 ADD PUSH1 0x1 ADD DUP6 SSTORE DUP3 ISZERO PUSH3 0x20E JUMPI SWAP2 DUP3 ADD JUMPDEST DUP3 DUP2 GT ISZERO PUSH3 0x20D JUMPI DUP3 MLOAD DUP3 SSTORE SWAP2 PUSH1 0x20 ADD SWAP2 SWAP1 PUSH1 0x1 ADD SWAP1 PUSH3 0x1F0 JUMP JUMPDEST JUMPDEST POP SWAP1 POP PUSH3 0x21D SWAP2 SWAP1 PUSH3 0x221 JUMP JUMPDEST POP SWAP1 JUMP JUMPDEST JUMPDEST DUP1 DUP3 GT ISZERO PUSH3 0x23C JUMPI PUSH1 0x0 DUP2 PUSH1 0x0 SWAP1 SSTORE POP PUSH1 0x1 ADD PUSH3 0x222 JUMP JUMPDEST POP SWAP1 JUMP JUMPDEST PUSH1 0x0 PUSH3 0x257 PUSH3 0x251 DUP5 PUSH3 0x3CD JUMP JUMPDEST PUSH3 0x3A4 JUMP JUMPDEST SWAP1 POP DUP3 DUP2 MSTORE PUSH1 0x20 DUP2 ADD DUP5 DUP5 DUP5 ADD GT ISZERO PUSH3 0x276 JUMPI PUSH3 0x275 PUSH3 0x541 JUMP JUMPDEST JUMPDEST PUSH3 0x283 DUP5 DUP3 DUP6 PUSH3 0x40D JUMP JUMPDEST POP SWAP4 SWAP3 POP POP POP JUMP JUMPDEST PUSH1 0x0 DUP3 PUSH1 0x1F DUP4 ADD SLT PUSH3 0x2A3 JUMPI PUSH3 0x2A2 PUSH3 0x53C JUMP JUMPDEST JUMPDEST DUP2 MLOAD PUSH3 0x2B5 DUP5 DUP3 PUSH1 0x20 DUP7 ADD PUSH3 0x240 JUMP JUMPDEST SWAP2 POP POP SWAP3 SWAP2 POP POP JUMP JUMPDEST PUSH1 0x0 DUP2 MLOAD SWAP1 POP PUSH3 0x2CF DUP2 PUSH3 0x561 JUMP JUMPDEST SWAP3 SWAP2 POP POP JUMP JUMPDEST PUSH1 0x0 DUP1 PUSH1 0x0 DUP1 PUSH1 0x80 DUP6 DUP8 SUB SLT ISZERO PUSH3 0x2F2 JUMPI PUSH3 0x2F1 PUSH3 0x54B JUMP JUMPDEST JUMPDEST PUSH1 0x0 DUP6 ADD MLOAD PUSH8 0xFFFFFFFFFFFFFFFF DUP2 GT ISZERO PUSH3 0x313 JUMPI PUSH3 0x312 PUSH3 0x546 JUMP JUMPDEST JUMPDEST PUSH3 0x321 DUP8 DUP3 DUP9 ADD PUSH3 0x28B JUMP JUMPDEST SWAP5 POP POP PUSH1 0x20 DUP6 ADD MLOAD PUSH8 0xFFFFFFFFFFFFFFFF DUP2 GT ISZERO PUSH3 0x345 JUMPI PUSH3 0x344 PUSH3 0x546 JUMP JUMPDEST JUMPDEST PUSH3 0x353 DUP8 DUP3 DUP9 ADD PUSH3 0x28B JUMP JUMPDEST SWAP4 POP POP PUSH1 0x40 DUP6 ADD MLOAD PUSH8 0xFFFFFFFFFFFFFFFF DUP2 GT ISZERO PUSH3 0x377 JUMPI PUSH3 0x376 PUSH3 0x546 JUMP JUMPDEST JUMPDEST PUSH3 0x385 DUP8 DUP3 DUP9 ADD PUSH3 0x28B JUMP JUMPDEST SWAP3 POP POP PUSH1 0x60 PUSH3 0x398 DUP8 DUP3 DUP9 ADD PUSH3 0x2BE JUMP JUMPDEST SWAP2 POP POP SWAP3 SWAP6 SWAP2 SWAP5 POP SWAP3 POP JUMP JUMPDEST PUSH1 0x0 PUSH3 0x3B0 PUSH3 0x3C3 JUMP JUMPDEST SWAP1 POP PUSH3 0x3BE DUP3 DUP3 PUSH3 0x479 JUMP JUMPDEST SWAP2 SWAP1 POP JUMP JUMPDEST PUSH1 0x0 PUSH1 0x40 MLOAD SWAP1 POP SWAP1 JUMP JUMPDEST PUSH1 0x0 PUSH8 0xFFFFFFFFFFFFFFFF DUP3 GT ISZERO PUSH3 0x3EB JUMPI PUSH3 0x3EA PUSH3 0x50D JUMP JUMPDEST JUMPDEST PUSH3 0x3F6 DUP3 PUSH3 0x550 JUMP JUMPDEST SWAP1 POP PUSH1 0x20 DUP2 ADD SWAP1 POP SWAP2 SWAP1 POP JUMP JUMPDEST PUSH1 0x0 DUP2 SWAP1 POP SWAP2 SWAP1 POP JUMP JUMPDEST PUSH1 0x0 JUMPDEST DUP4 DUP2 LT ISZERO PUSH3 0x42D JUMPI DUP1 DUP3 ADD MLOAD DUP2 DUP5 ADD MSTORE PUSH1 0x20 DUP2 ADD SWAP1 POP PUSH3 0x410 JUMP JUMPDEST DUP4 DUP2 GT ISZERO PUSH3 0x43D JUMPI PUSH1 0x0 DUP5 DUP5 ADD MSTORE JUMPDEST POP POP POP POP JUMP JUMPDEST PUSH1 0x0 PUSH1 0x2 DUP3 DIV SWAP1 POP PUSH1 0x1 DUP3 AND DUP1 PUSH3 0x45C JUMPI PUSH1 0x7F DUP3 AND SWAP2 POP JUMPDEST PUSH1 0x20 DUP3 LT DUP2 EQ ISZERO PUSH3 0x473 JUMPI PUSH3 0x472 PUSH3 0x4DE JUMP JUMPDEST JUMPDEST POP SWAP2 SWAP1 POP JUMP JUMPDEST PUSH3 0x484 DUP3 PUSH3 0x550 JUMP JUMPDEST DUP2 ADD DUP2 DUP2 LT PUSH8 0xFFFFFFFFFFFFFFFF DUP3 GT OR ISZERO PUSH3 0x4A6 JUMPI PUSH3 0x4A5 PUSH3 0x50D JUMP JUMPDEST JUMPDEST DUP1 PUSH1 0x40 MSTORE POP POP POP JUMP JUMPDEST PUSH32 0x4E487B7100000000000000000000000000000000000000000000000000000000 PUSH1 0x0 MSTORE PUSH1 0x21 PUSH1 0x4 MSTORE PUSH1 0x24 PUSH1 0x0 REVERT JUMPDEST PUSH32 0x4E487B7100000000000000000000000000000000000000000000000000000000 PUSH1 0x0 MSTORE PUSH1 0x22 PUSH1 0x4 MSTORE PUSH1 0x24 PUSH1 0x0 REVERT JUMPDEST PUSH32 0x4E487B7100000000000000000000000000000000000000000000000000000000 PUSH1 0x0 MSTORE PUSH1 0x41 PUSH1 0x4 MSTORE PUSH1 0x24 PUSH1 0x0 REVERT JUMPDEST PUSH1 0x0 DUP1 REVERT JUMPDEST PUSH1 0x0 DUP1 REVERT JUMPDEST PUSH1 0x0 DUP1 REVERT JUMPDEST PUSH1 0x0 DUP1 REVERT JUMPDEST PUSH1 0x0 PUSH1 0x1F NOT PUSH1 0x1F DUP4 ADD AND SWAP1 POP SWAP2 SWAP1 POP JUMP JUMPDEST PUSH3 0x56C DUP2 PUSH3 0x403 JUMP JUMPDEST DUP2 EQ PUSH3 0x578 JUMPI PUSH1 0x0 DUP1 REVERT JUMPDEST POP JUMP JUMPDEST PUSH2 0xD2A DUP1 PUSH3 0x58B PUSH1 0x0 CODECOPY PUSH1 0x0 RETURN INVALID PUSH1 0x80 PUSH1 0x40 MSTORE PUSH1 0x4 CALLDATASIZE LT PUSH2 0x34 JUMPI PUSH1 0x0 CALLDATALOAD PUSH1 0xE0 SHR DUP1 PUSH4 0x5699FADC EQ PUSH2 0x39 JUMPI DUP1 PUSH4 0xD63DC661 EQ PUSH2 0x62 JUMPI DUP1 PUSH4 0xF60CA60D EQ PUSH2 0x6C JUMPI JUMPDEST PUSH1 0x0 DUP1 REVERT JUMPDEST CALLVALUE DUP1 ISZERO PUSH2 0x45 JUMPI PUSH1 0x0 DUP1 REVERT JUMPDEST POP PUSH2 0x60 PUSH1 0x4 DUP1 CALLDATASIZE SUB DUP2 ADD SWAP1 PUSH2 0x5B SWAP2 SWAP1 PUSH2 0x635 JUMP JUMPDEST PUSH2 0x9D JUMP JUMPDEST STOP JUMPDEST PUSH2 0x6A PUSH2 0x215 JUMP JUMPDEST STOP JUMPDEST CALLVALUE DUP1 ISZERO PUSH2 0x78 JUMPI PUSH1 0x0 DUP1 REVERT JUMPDEST POP PUSH2 0x81 PUSH2 0x42B JUMP JUMPDEST PUSH1 0x40 MLOAD PUSH2 0x94 SWAP8 SWAP7 SWAP6 SWAP5 SWAP4 SWAP3 SWAP2 SWAP1 PUSH2 0x7F7 JUMP JUMPDEST PUSH1 0x40 MLOAD DUP1 SWAP2 SUB SWAP1 RETURN JUMPDEST PUSH1 0x0 PUSH1 0x4 ADD PUSH1 0x0 SWAP1 SLOAD SWAP1 PUSH2 0x100 EXP SWAP1 DIV PUSH20 0xFFFFFFFFFFFFFFFFFFFFFFFFFFFFFFFFFFFFFFFF AND PUSH20 0xFFFFFFFFFFFFFFFFFFFFFFFFFFFFFFFFFFFFFFFF AND CALLER PUSH20 0xFFFFFFFFFFFFFFFFFFFFFFFFFFFFFFFFFFFFFFFF AND EQ PUSH2 0x130 JUMPI PUSH1 0x40 MLOAD PUSH32 0x8C379A000000000000000000000000000000000000000000000000000000000 DUP2 MSTORE PUSH1 0x4 ADD PUSH2 0x127 SWAP1 PUSH2 0x93B JUMP JUMPDEST PUSH1 0x40 MLOAD DUP1 SWAP2 SUB SWAP1 REVERT JUMPDEST DUP1 PUSH1 0x1 DUP2 GT ISZERO PUSH2 0x143 JUMPI PUSH2 0x142 PUSH2 0xAF7 JUMP JUMPDEST JUMPDEST PUSH1 0x0 PUSH1 0x6 ADD PUSH1 0x0 SWAP1 SLOAD SWAP1 PUSH2 0x100 EXP SWAP1 DIV PUSH1 0xFF AND PUSH1 0x1 DUP2 GT ISZERO PUSH2 0x168 JUMPI PUSH2 0x167 PUSH2 0xAF7 JUMP JUMPDEST JUMPDEST EQ ISZERO PUSH2 0x1A9 JUMPI PUSH1 0x40 MLOAD PUSH32 0x8C379A000000000000000000000000000000000000000000000000000000000 DUP2 MSTORE PUSH1 0x4 ADD PUSH2 0x1A0 SWAP1 PUSH2 0x8FB JUMP JUMPDEST PUSH1 0x40 MLOAD DUP1 SWAP2 SUB SWAP1 REVERT JUMPDEST DUP1 PUSH1 0x0 PUSH1 0x6 ADD PUSH1 0x0 PUSH2 0x100 EXP DUP2 SLOAD DUP2 PUSH1 0xFF MUL NOT AND SWAP1 DUP4 PUSH1 0x1 DUP2 GT ISZERO PUSH2 0x1D1 JUMPI PUSH2 0x1D0 PUSH2 0xAF7 JUMP JUMPDEST JUMPDEST MUL OR SWAP1 SSTORE POP PUSH32 0xB364AB0CADEC04BEC8A97E81743129CECC3480279FB67B9378DF4219238B250F PUSH1 0x0 DUP1 ADD DUP3 PUSH1 0x40 MLOAD PUSH2 0x20A SWAP3 SWAP2 SWAP1 PUSH2 0x87B JUMP JUMPDEST PUSH1 0x40 MLOAD DUP1 SWAP2 SUB SWAP1 LOG1 POP JUMP JUMPDEST PUSH1 0x0 PUSH1 0x4 ADD PUSH1 0x0 SWAP1 SLOAD SWAP1 PUSH2 0x100 EXP SWAP1 DIV PUSH20 0xFFFFFFFFFFFFFFFFFFFFFFFFFFFFFFFFFFFFFFFF AND PUSH20 0xFFFFFFFFFFFFFFFFFFFFFFFFFFFFFFFFFFFFFFFF AND CALLER PUSH20 0xFFFFFFFFFFFFFFFFFFFFFFFFFFFFFFFFFFFFFFFF AND EQ ISZERO PUSH2 0x2A9 JUMPI PUSH1 0x40 MLOAD PUSH32 0x8C379A000000000000000000000000000000000000000000000000000000000 DUP2 MSTORE PUSH1 0x4 ADD PUSH2 0x2A0 SWAP1 PUSH2 0x8DB JUMP JUMPDEST PUSH1 0x40 MLOAD DUP1 SWAP2 SUB SWAP1 REVERT JUMPDEST PUSH1 0x1 DUP1 DUP2 GT ISZERO PUSH2 0x2BC JUMPI PUSH2 0x2BB PUSH2 0xAF7 JUMP JUMPDEST JUMPDEST PUSH1 0x0 PUSH1 0x6 ADD PUSH1 0x0 SWAP1 SLOAD SWAP1 PUSH2 0x100 EXP SWAP1 DIV PUSH1 0xFF AND PUSH1 0x1 DUP2 GT ISZERO PUSH2 0x2E1 JUMPI PUSH2 0x2E0 PUSH2 0xAF7 JUMP JUMPDEST JUMPDEST EQ ISZERO PUSH2 0x322 JUMPI PUSH1 0x40 MLOAD PUSH32 0x8C379A000000000000000000000000000000000000000000000000000000000 DUP2 MSTORE PUSH1 0x4 ADD PUSH2 0x319 SWAP1 PUSH2 0x91B JUMP JUMPDEST PUSH1 0x40 MLOAD DUP1 SWAP2 SUB SWAP1 REVERT JUMPDEST PUSH1 0x0 CALLVALUE GT PUSH2 0x365 JUMPI PUSH1 0x40 MLOAD PUSH32 0x8C379A000000000000000000000000000000000000000000000000000000000 DUP2 MSTORE PUSH1 0x4 ADD PUSH2 0x35C SWAP1 PUSH2 0x95B JUMP JUMPDEST PUSH1 0x40 MLOAD DUP1 SWAP2 SUB SWAP1 REVERT JUMPDEST PUSH1 0x0 PUSH1 0x4 ADD PUSH1 0x0 SWAP1 SLOAD SWAP1 PUSH2 0x100 EXP SWAP1 DIV PUSH20 0xFFFFFFFFFFFFFFFFFFFFFFFFFFFFFFFFFFFFFFFF AND PUSH20 0xFFFFFFFFFFFFFFFFFFFFFFFFFFFFFFFFFFFFFFFF AND PUSH2 0x8FC CALLVALUE SWAP1 DUP2 ISZERO MUL SWAP1 PUSH1 0x40 MLOAD PUSH1 0x0 PUSH1 0x40 MLOAD DUP1 DUP4 SUB DUP2 DUP6 DUP9 DUP9 CALL SWAP4 POP POP POP POP ISZERO DUP1 ISZERO PUSH2 0x3D0 JUMPI RETURNDATASIZE PUSH1 0x0 DUP1 RETURNDATACOPY RETURNDATASIZE PUSH1 0x0 REVERT JUMPDEST POP CALLVALUE PUSH1 0x0 PUSH1 0x5 ADD PUSH1 0x0 DUP3 DUP3 SLOAD PUSH2 0x3E6 SWAP2 SWAP1 PUSH2 0x9AC JUMP JUMPDEST SWAP3 POP POP DUP2 SWAP1 SSTORE POP PUSH32 0x98A99E594DC0943C255BF9563AE2C4DA6FFCFD06F78B396B88988548AC825BA8 PUSH1 0x0 DUP1 ADD CALLVALUE PUSH1 0x40 MLOAD PUSH2 0x421 SWAP3 SWAP2 SWAP1 PUSH2 0x8AB JUMP JUMPDEST PUSH1 0x40 MLOAD DUP1 SWAP2 SUB SWAP1 LOG1 JUMP JUMPDEST PUSH1 0x0 DUP1 PUSH1 0x0 ADD DUP1 SLOAD PUSH2 0x43C SWAP1 PUSH2 0xA96 JUMP JUMPDEST DUP1 PUSH1 0x1F ADD PUSH1 0x20 DUP1 SWAP2 DIV MUL PUSH1 0x20 ADD PUSH1 0x40 MLOAD SWAP1 DUP2 ADD PUSH1 0x40 MSTORE DUP1 SWAP3 SWAP2 SWAP1 DUP2 DUP2 MSTORE PUSH1 0x20 ADD DUP3 DUP1 SLOAD PUSH2 0x468 SWAP1 PUSH2 0xA96 JUMP JUMPDEST DUP1 ISZERO PUSH2 0x4B5 JUMPI DUP1 PUSH1 0x1F LT PUSH2 0x48A JUMPI PUSH2 0x100 DUP1 DUP4 SLOAD DIV MUL DUP4 MSTORE SWAP2 PUSH1 0x20 ADD SWAP2 PUSH2 0x4B5 JUMP JUMPDEST DUP3 ADD SWAP2 SWAP1 PUSH1 0x0 MSTORE PUSH1 0x20 PUSH1 0x0 KECCAK256 SWAP1 JUMPDEST DUP2 SLOAD DUP2 MSTORE SWAP1 PUSH1 0x1 ADD SWAP1 PUSH1 0x20 ADD DUP1 DUP4 GT PUSH2 0x498 JUMPI DUP3 SWAP1 SUB PUSH1 0x1F AND DUP3 ADD SWAP2 JUMPDEST POP POP POP POP POP SWAP1 DUP1 PUSH1 0x1 ADD DUP1 SLOAD PUSH2 0x4CA SWAP1 PUSH2 0xA96 JUMP JUMPDEST DUP1 PUSH1 0x1F ADD PUSH1 0x20 DUP1 SWAP2 DIV MUL PUSH1 0x20 ADD PUSH1 0x40 MLOAD SWAP1 DUP2 ADD PUSH1 0x40 MSTORE DUP1 SWAP3 SWAP2 SWAP1 DUP2 DUP2 MSTORE PUSH1 0x20 ADD DUP3 DUP1 SLOAD PUSH2 0x4F6 SWAP1 PUSH2 0xA96 JUMP JUMPDEST DUP1 ISZERO PUSH2 0x543 JUMPI DUP1 PUSH1 0x1F LT PUSH2 0x518 JUMPI PUSH2 0x100 DUP1 DUP4 SLOAD DIV MUL DUP4 MSTORE SWAP2 PUSH1 0x20 ADD SWAP2 PUSH2 0x543 JUMP JUMPDEST DUP3 ADD SWAP2 SWAP1 PUSH1 0x0 MSTORE PUSH1 0x20 PUSH1 0x0 KECCAK256 SWAP1 JUMPDEST DUP2 SLOAD DUP2 MSTORE SWAP1 PUSH1 0x1 ADD SWAP1 PUSH1 0x20 ADD DUP1 DUP4 GT PUSH2 0x526 JUMPI DUP3 SWAP1 SUB PUSH1 0x1F AND DUP3 ADD SWAP2 JUMPDEST POP POP POP POP POP SWAP1 DUP1 PUSH1 0x2 ADD DUP1 SLOAD PUSH2 0x558 SWAP1 PUSH2 0xA96 JUMP JUMPDEST DUP1 PUSH1 0x1F ADD PUSH1 0x20 DUP1 SWAP2 DIV MUL PUSH1 0x20 ADD PUSH1 0x40 MLOAD SWAP1 DUP2 ADD PUSH1 0x40 MSTORE DUP1 SWAP3 SWAP2 SWAP1 DUP2 DUP2 MSTORE PUSH1 0x20 ADD DUP3 DUP1 SLOAD PUSH2 0x584 SWAP1 PUSH2 0xA96 JUMP JUMPDEST DUP1 ISZERO PUSH2 0x5D1 JUMPI DUP1 PUSH1 0x1F LT PUSH2 0x5A6 JUMPI PUSH2 0x100 DUP1 DUP4 SLOAD DIV MUL DUP4 MSTORE SWAP2 PUSH1 0x20 ADD SWAP2 PUSH2 0x5D1 JUMP JUMPDEST DUP3 ADD SWAP2 SWAP1 PUSH1 0x0 MSTORE PUSH1 0x20 PUSH1 0x0 KECCAK256 SWAP1 JUMPDEST DUP2 SLOAD DUP2 MSTORE SWAP1 PUSH1 0x1 ADD SWAP1 PUSH1 0x20 ADD DUP1 DUP4 GT PUSH2 0x5B4 JUMPI DUP3 SWAP1 SUB PUSH1 0x1F AND DUP3 ADD SWAP2 JUMPDEST POP POP POP POP POP SWAP1 DUP1 PUSH1 0x3 ADD SLOAD SWAP1 DUP1 PUSH1 0x4 ADD PUSH1 0x0 SWAP1 SLOAD SWAP1 PUSH2 0x100 EXP SWAP1 DIV PUSH20 0xFFFFFFFFFFFFFFFFFFFFFFFFFFFFFFFFFFFFFFFF AND SWAP1 DUP1 PUSH1 0x5 ADD SLOAD SWAP1 DUP1 PUSH1 0x6 ADD PUSH1 0x0 SWAP1 SLOAD SWAP1 PUSH2 0x100 EXP SWAP1 DIV PUSH1 0xFF AND SWAP1 POP DUP8 JUMP JUMPDEST PUSH1 0x0 DUP2 CALLDATALOAD SWAP1 POP PUSH2 0x62F DUP2 PUSH2 0xCE4 JUMP JUMPDEST SWAP3 SWAP2 POP POP JUMP JUMPDEST PUSH1 0x0 PUSH1 0x20 DUP3 DUP5 SUB SLT ISZERO PUSH2 0x64B JUMPI PUSH2 0x64A PUSH2 0xB55 JUMP JUMPDEST JUMPDEST PUSH1 0x0 PUSH2 0x659 DUP5 DUP3 DUP6 ADD PUSH2 0x620 JUMP JUMPDEST SWAP2 POP POP SWAP3 SWAP2 POP POP JUMP JUMPDEST PUSH2 0x66B DUP2 PUSH2 0xA02 JUMP JUMPDEST DUP3 MSTORE POP POP JUMP JUMPDEST PUSH2 0x67A DUP2 PUSH2 0xA51 JUMP JUMPDEST DUP3 MSTORE POP POP JUMP JUMPDEST PUSH1 0x0 PUSH2 0x68B DUP3 PUSH2 0x990 JUMP JUMPDEST PUSH2 0x695 DUP2 DUP6 PUSH2 0x99B JUMP JUMPDEST SWAP4 POP PUSH2 0x6A5 DUP2 DUP6 PUSH1 0x20 DUP7 ADD PUSH2 0xA63 JUMP JUMPDEST PUSH2 0x6AE DUP2 PUSH2 0xB5A JUMP JUMPDEST DUP5 ADD SWAP2 POP POP SWAP3 SWAP2 POP POP JUMP JUMPDEST PUSH1 0x0 DUP2 SLOAD PUSH2 0x6C6 DUP2 PUSH2 0xA96 JUMP JUMPDEST PUSH2 0x6D0 DUP2 DUP7 PUSH2 0x99B JUMP JUMPDEST SWAP5 POP PUSH1 0x1 DUP3 AND PUSH1 0x0 DUP2 EQ PUSH2 0x6EB JUMPI PUSH1 0x1 DUP2 EQ PUSH2 0x6FD JUMPI PUSH2 0x730 JUMP JUMPDEST PUSH1 0xFF NOT DUP4 AND DUP7 MSTORE PUSH1 0x20 DUP7 ADD SWAP4 POP PUSH2 0x730 JUMP JUMPDEST PUSH2 0x706 DUP6 PUSH2 0x97B JUMP JUMPDEST PUSH1 0x0 JUMPDEST DUP4 DUP2 LT ISZERO PUSH2 0x728 JUMPI DUP2 SLOAD DUP2 DUP10 ADD MSTORE PUSH1 0x1 DUP3 ADD SWAP2 POP PUSH1 0x20 DUP2 ADD SWAP1 POP PUSH2 0x709 JUMP JUMPDEST DUP1 DUP9 ADD SWAP6 POP POP POP JUMPDEST POP POP POP SWAP3 SWAP2 POP POP JUMP JUMPDEST PUSH1 0x0 PUSH2 0x746 PUSH1 0x22 DUP4 PUSH2 0x99B JUMP JUMPDEST SWAP2 POP PUSH2 0x751 DUP3 PUSH2 0xB6B JUMP JUMPDEST PUSH1 0x40 DUP3 ADD SWAP1 POP SWAP2 SWAP1 POP JUMP JUMPDEST PUSH1 0x0 PUSH2 0x769 PUSH1 0x1B DUP4 PUSH2 0x99B JUMP JUMPDEST SWAP2 POP PUSH2 0x774 DUP3 PUSH2 0xBBA JUMP JUMPDEST PUSH1 0x20 DUP3 ADD SWAP1 POP SWAP2 SWAP1 POP JUMP JUMPDEST PUSH1 0x0 PUSH2 0x78C PUSH1 0x24 DUP4 PUSH2 0x99B JUMP JUMPDEST SWAP2 POP PUSH2 0x797 DUP3 PUSH2 0xBE3 JUMP JUMPDEST PUSH1 0x40 DUP3 ADD SWAP1 POP SWAP2 SWAP1 POP JUMP JUMPDEST PUSH1 0x0 PUSH2 0x7AF PUSH1 0x2F DUP4 PUSH2 0x99B JUMP JUMPDEST SWAP2 POP PUSH2 0x7BA DUP3 PUSH2 0xC32 JUMP JUMPDEST PUSH1 0x40 DUP3 ADD SWAP1 POP SWAP2 SWAP1 POP JUMP JUMPDEST PUSH1 0x0 PUSH2 0x7D2 PUSH1 0x22 DUP4 PUSH2 0x99B JUMP JUMPDEST SWAP2 POP PUSH2 0x7DD DUP3 PUSH2 0xC81 JUMP JUMPDEST PUSH1 0x40 DUP3 ADD SWAP1 POP SWAP2 SWAP1 POP JUMP JUMPDEST PUSH2 0x7F1 DUP2 PUSH2 0xA47 JUMP JUMPDEST DUP3 MSTORE POP POP JUMP JUMPDEST PUSH1 0x0 PUSH1 0xE0 DUP3 ADD SWAP1 POP DUP2 DUP2 SUB PUSH1 0x0 DUP4 ADD MSTORE PUSH2 0x811 DUP2 DUP11 PUSH2 0x680 JUMP JUMPDEST SWAP1 POP DUP2 DUP2 SUB PUSH1 0x20 DUP4 ADD MSTORE PUSH2 0x825 DUP2 DUP10 PUSH2 0x680 JUMP JUMPDEST SWAP1 POP DUP2 DUP2 SUB PUSH1 0x40 DUP4 ADD MSTORE PUSH2 0x839 DUP2 DUP9 PUSH2 0x680 JUMP JUMPDEST SWAP1 POP PUSH2 0x848 PUSH1 0x60 DUP4 ADD DUP8 PUSH2 0x7E8 JUMP JUMPDEST PUSH2 0x855 PUSH1 0x80 DUP4 ADD DUP7 PUSH2 0x662 JUMP JUMPDEST PUSH2 0x862 PUSH1 0xA0 DUP4 ADD DUP6 PUSH2 0x7E8 JUMP JUMPDEST PUSH2 0x86F PUSH1 0xC0 DUP4 ADD DUP5 PUSH2 0x671 JUMP JUMPDEST SWAP9 SWAP8 POP POP POP POP POP POP POP POP JUMP JUMPDEST PUSH1 0x0 PUSH1 0x40 DUP3 ADD SWAP1 POP DUP2 DUP2 SUB PUSH1 0x0 DUP4 ADD MSTORE PUSH2 0x895 DUP2 DUP6 PUSH2 0x6B9 JUMP JUMPDEST SWAP1 POP PUSH2 0x8A4 PUSH1 0x20 DUP4 ADD DUP5 PUSH2 0x671 JUMP JUMPDEST SWAP4 SWAP3 POP POP POP JUMP JUMPDEST PUSH1 0x0 PUSH1 0x40 DUP3 ADD SWAP1 POP DUP2 DUP2 SUB PUSH1 0x0 DUP4 ADD MSTORE PUSH2 0x8C5 DUP2 DUP6 PUSH2 0x6B9 JUMP JUMPDEST SWAP1 POP PUSH2 0x8D4 PUSH1 0x20 DUP4 ADD DUP5 PUSH2 0x7E8 JUMP JUMPDEST SWAP4 SWAP3 POP POP POP JUMP JUMPDEST PUSH1 0x0 PUSH1 0x20 DUP3 ADD SWAP1 POP DUP2 DUP2 SUB PUSH1 0x0 DUP4 ADD MSTORE PUSH2 0x8F4 DUP2 PUSH2 0x739 JUMP JUMPDEST SWAP1 POP SWAP2 SWAP1 POP JUMP JUMPDEST PUSH1 0x0 PUSH1 0x20 DUP3 ADD SWAP1 POP DUP2 DUP2 SUB PUSH1 0x0 DUP4 ADD MSTORE PUSH2 0x914 DUP2 PUSH2 0x75C JUMP JUMPDEST SWAP1 POP SWAP2 SWAP1 POP JUMP JUMPDEST PUSH1 0x0 PUSH1 0x20 DUP3 ADD SWAP1 POP DUP2 DUP2 SUB PUSH1 0x0 DUP4 ADD MSTORE PUSH2 0x934 DUP2 PUSH2 0x77F JUMP JUMPDEST SWAP1 POP SWAP2 SWAP1 POP JUMP JUMPDEST PUSH1 0x0 PUSH1 0x20 DUP3 ADD SWAP1 POP DUP2 DUP2 SUB PUSH1 0x0 DUP4 ADD MSTORE PUSH2 0x954 DUP2 PUSH2 0x7A2 JUMP JUMPDEST SWAP1 POP SWAP2 SWAP1 POP JUMP JUMPDEST PUSH1 0x0 PUSH1 0x20 DUP3 ADD SWAP1 POP DUP2 DUP2 SUB PUSH1 0x0 DUP4 ADD MSTORE PUSH2 0x974 DUP2 PUSH2 0x7C5 JUMP JUMPDEST SWAP1 POP SWAP2 SWAP1 POP JUMP JUMPDEST PUSH1 0x0 DUP2 SWAP1 POP DUP2 PUSH1 0x0 MSTORE PUSH1 0x20 PUSH1 0x0 KECCAK256 SWAP1 POP SWAP2 SWAP1 POP JUMP JUMPDEST PUSH1 0x0 DUP2 MLOAD SWAP1 POP SWAP2 SWAP1 POP JUMP JUMPDEST PUSH1 0x0 DUP3 DUP3 MSTORE PUSH1 0x20 DUP3 ADD SWAP1 POP SWAP3 SWAP2 POP POP JUMP JUMPDEST PUSH1 0x0 PUSH2 0x9B7 DUP3 PUSH2 0xA47 JUMP JUMPDEST SWAP2 POP PUSH2 0x9C2 DUP4 PUSH2 0xA47 JUMP JUMPDEST SWAP3 POP DUP3 PUSH32 0xFFFFFFFFFFFFFFFFFFFFFFFFFFFFFFFFFFFFFFFFFFFFFFFFFFFFFFFFFFFFFFFF SUB DUP3 GT ISZERO PUSH2 0x9F7 JUMPI PUSH2 0x9F6 PUSH2 0xAC8 JUMP JUMPDEST JUMPDEST DUP3 DUP3 ADD SWAP1 POP SWAP3 SWAP2 POP POP JUMP JUMPDEST PUSH1 0x0 PUSH2 0xA0D DUP3 PUSH2 0xA27 JUMP JUMPDEST SWAP1 POP SWAP2 SWAP1 POP JUMP JUMPDEST PUSH1 0x0 DUP2 SWAP1 POP PUSH2 0xA22 DUP3 PUSH2 0xCD0 JUMP JUMPDEST SWAP2 SWAP1 POP JUMP JUMPDEST PUSH1 0x0 PUSH20 0xFFFFFFFFFFFFFFFFFFFFFFFFFFFFFFFFFFFFFFFF DUP3 AND SWAP1 POP SWAP2 SWAP1 POP JUMP JUMPDEST PUSH1 0x0 DUP2 SWAP1 POP SWAP2 SWAP1 POP JUMP JUMPDEST PUSH1 0x0 PUSH2 0xA5C DUP3 PUSH2 0xA14 JUMP JUMPDEST SWAP1 POP SWAP2 SWAP1 POP JUMP JUMPDEST PUSH1 0x0 JUMPDEST DUP4 DUP2 LT ISZERO PUSH2 0xA81 JUMPI DUP1 DUP3 ADD MLOAD DUP2 DUP5 ADD MSTORE PUSH1 0x20 DUP2 ADD SWAP1 POP PUSH2 0xA66 JUMP JUMPDEST DUP4 DUP2 GT ISZERO PUSH2 0xA90 JUMPI PUSH1 0x0 DUP5 DUP5 ADD MSTORE JUMPDEST POP POP POP POP JUMP JUMPDEST PUSH1 0x0 PUSH1 0x2 DUP3 DIV SWAP1 POP PUSH1 0x1 DUP3 AND DUP1 PUSH2 0xAAE JUMPI PUSH1 0x7F DUP3 AND SWAP2 POP JUMPDEST PUSH1 0x20 DUP3 LT DUP2 EQ ISZERO PUSH2 0xAC2 JUMPI PUSH2 0xAC1 PUSH2 0xB26 JUMP JUMPDEST JUMPDEST POP SWAP2 SWAP1 POP JUMP JUMPDEST PUSH32 0x4E487B7100000000000000000000000000000000000000000000000000000000 PUSH1 0x0 MSTORE PUSH1 0x11 PUSH1 0x4 MSTORE PUSH1 0x24 PUSH1 0x0 REVERT JUMPDEST PUSH32 0x4E487B7100000000000000000000000000000000000000000000000000000000 PUSH1 0x0 MSTORE PUSH1 0x21 PUSH1 0x4 MSTORE PUSH1 0x24 PUSH1 0x0 REVERT JUMPDEST PUSH32 0x4E487B7100000000000000000000000000000000000000000000000000000000 PUSH1 0x0 MSTORE PUSH1 0x22 PUSH1 0x4 MSTORE PUSH1 0x24 PUSH1 0x0 REVERT JUMPDEST PUSH1 0x0 DUP1 REVERT JUMPDEST PUSH1 0x0 PUSH1 0x1F NOT PUSH1 0x1F DUP4 ADD AND SWAP1 POP SWAP2 SWAP1 POP JUMP JUMPDEST PUSH32 0x54686520617574686F722063616E6E6F742066756E64207468652070726F6A65 PUSH1 0x0 DUP3 ADD MSTORE PUSH32 0x6374000000000000000000000000000000000000000000000000000000000000 PUSH1 0x20 DUP3 ADD MSTORE POP JUMP JUMPDEST PUSH32 0x4E6577207374617465206D75737420626520646966666572656E740000000000 PUSH1 0x0 DUP3 ADD MSTORE POP JUMP JUMPDEST PUSH32 0x5468652066756E64696E67206F66207468652070726F6A65637420697320636C PUSH1 0x0 DUP3 ADD MSTORE PUSH32 0x6F73656400000000000000000000000000000000000000000000000000000000 PUSH1 0x20 DUP3 ADD MSTORE POP JUMP JUMPDEST PUSH32 0x4F6E6C7920617574686F722063616E206368616E676520746865207374617465 PUSH1 0x0 DUP3 ADD MSTORE PUSH32 0x206F66207468652070726F6A6563740000000000000000000000000000000000 PUSH1 0x20 DUP3 ADD MSTORE POP JUMP JUMPDEST PUSH32 0x66756E6472616973696E67206D7573742062652067726561746572207468616E PUSH1 0x0 DUP3 ADD MSTORE PUSH32 0x2030000000000000000000000000000000000000000000000000000000000000 PUSH1 0x20 DUP3 ADD MSTORE POP JUMP JUMPDEST PUSH1 0x2 DUP2 LT PUSH2 0xCE1 JUMPI PUSH2 0xCE0 PUSH2 0xAF7 JUMP JUMPDEST JUMPDEST POP JUMP JUMPDEST PUSH1 0x2 DUP2 LT PUSH2 0xCF1 JUMPI PUSH1 0x0 DUP1 REVERT JUMPDEST POP JUMP INVALID LOG2 PUSH5 0x6970667358 0x22 SLT KECCAK256 0x4F 0xF6 0xA7 SMOD 0xCE DELEGATECALL CHAINID 0xBB 0xC7 CALLDATALOAD 0xED 0x4B CREATE 0x1E PUSH32 0xB810C0C926F4B867C3667B79932F82BD8D64736F6C6343000807003300000000 "
				},
				"gasEstimates": {
					"creation": {
						"codeDepositCost": "674000",
						"executionCost": "infinite",
						"totalCost": "infinite"
					},
					"external": {
						"changeProjectState(uint8)": "infinite",
						"fundProject()": "infinite",
						"project()": "infinite"
					}
				},
				"methodIdentifiers": {
					"changeProjectState(uint8)": "5699fadc",
					"fundProject()": "d63dc661",
					"project()": "f60ca60d"
				}
			},
			"storageLayout": {
				"storage": [
					{
						"astId": 23,
						"contract": "contracts/project.sol:CrowdFunding",
						"label": "project",
						"offset": 0,
						"slot": "0",
						"type": "t_struct(Project)20_storage"
					}
				],
				"types": {
					"t_address_payable": {
						"encoding": "inplace",
						"label": "address payable",
						"numberOfBytes": "20"
					},
					"t_enum(State)4": {
						"encoding": "inplace",
						"label": "enum CrowdFunding.State",
						"numberOfBytes": "1"
					},
					"t_string_storage": {
						"encoding": "bytes",
						"label": "string",
						"numberOfBytes": "32"
					},
					"t_struct(Project)20_storage": {
						"encoding": "inplace",
						"label": "struct CrowdFunding.Project",
						"members": [
							{
								"astId": 6,
								"contract": "contracts/project.sol:CrowdFunding",
								"label": "id",
								"offset": 0,
								"slot": "0",
								"type": "t_string_storage"
							},
							{
								"astId": 8,
								"contract": "contracts/project.sol:CrowdFunding",
								"label": "name",
								"offset": 0,
								"slot": "1",
								"type": "t_string_storage"
							},
							{
								"astId": 10,
								"contract": "contracts/project.sol:CrowdFunding",
								"label": "description",
								"offset": 0,
								"slot": "2",
								"type": "t_string_storage"
							},
							{
								"astId": 12,
								"contract": "contracts/project.sol:CrowdFunding",
								"label": "goal",
								"offset": 0,
								"slot": "3",
								"type": "t_uint256"
							},
							{
								"astId": 14,
								"contract": "contracts/project.sol:CrowdFunding",
								"label": "author",
								"offset": 0,
								"slot": "4",
								"type": "t_address_payable"
							},
							{
								"astId": 16,
								"contract": "contracts/project.sol:CrowdFunding",
								"label": "funds",
								"offset": 0,
								"slot": "5",
								"type": "t_uint256"
							},
							{
								"astId": 19,
								"contract": "contracts/project.sol:CrowdFunding",
								"label": "state",
								"offset": 0,
								"slot": "6",
								"type": "t_enum(State)4"
							}
						],
						"numberOfBytes": "224"
					},
					"t_uint256": {
						"encoding": "inplace",
						"label": "uint256",
						"numberOfBytes": "32"
					}
				}
			},
			"userdoc": {
				"kind": "user",
				"methods": {},
				"version": 1
			}
		}
	}
}