{
	"contracts/project.sol": {
		"CrowdFunding": {
			"abi": [
				{
					"anonymous": false,
					"inputs": [
						{
							"indexed": false,
							"internalType": "string",
							"name": "projectId",
							"type": "string"
						},
						{
							"indexed": false,
							"internalType": "enum CrowdFunding.State",
							"name": "newState",
							"type": "uint8"
						}
					],
					"name": "changeProjectStateLog",
					"type": "event"
				},
				{
					"anonymous": false,
					"inputs": [
						{
							"indexed": false,
							"internalType": "string",
							"name": "projectId",
							"type": "string"
						},
						{
							"indexed": false,
							"internalType": "string",
							"name": "name",
							"type": "string"
						},
						{
							"indexed": false,
							"internalType": "string",
							"name": "description",
							"type": "string"
						},
						{
							"indexed": false,
							"internalType": "uint256",
							"name": "goal",
							"type": "uint256"
						}
					],
					"name": "createProjectLog",
					"type": "event"
				},
				{
					"anonymous": false,
					"inputs": [
						{
							"indexed": false,
							"internalType": "string",
							"name": "projectId",
							"type": "string"
						},
						{
							"indexed": false,
							"internalType": "uint256",
							"name": "newFunds",
							"type": "uint256"
						}
					],
					"name": "fundProjectLog",
					"type": "event"
				},
				{
					"inputs": [
						{
							"internalType": "uint256",
							"name": "projectIndex",
							"type": "uint256"
						},
						{
							"internalType": "enum CrowdFunding.State",
							"name": "newState",
							"type": "uint8"
						}
					],
					"name": "changeProjectState",
					"outputs": [],
					"stateMutability": "nonpayable",
					"type": "function"
				},
				{
					"inputs": [
						{
							"internalType": "string",
							"name": "",
							"type": "string"
						},
						{
							"internalType": "uint256",
							"name": "",
							"type": "uint256"
						}
					],
					"name": "contributions",
					"outputs": [
						{
							"internalType": "address",
							"name": "contributor",
							"type": "address"
						},
						{
							"internalType": "uint256",
							"name": "value",
							"type": "uint256"
						}
					],
					"stateMutability": "view",
					"type": "function"
				},
				{
					"inputs": [
						{
							"internalType": "string",
							"name": "_id",
							"type": "string"
						},
						{
							"internalType": "string",
							"name": "_name",
							"type": "string"
						},
						{
							"internalType": "string",
							"name": "_description",
							"type": "string"
						},
						{
							"internalType": "uint256",
							"name": "_goal",
							"type": "uint256"
						}
					],
					"name": "createProject",
					"outputs": [],
					"stateMutability": "nonpayable",
					"type": "function"
				},
				{
					"inputs": [
						{
							"internalType": "uint256",
							"name": "projectIndex",
							"type": "uint256"
						}
					],
					"name": "fundProject",
					"outputs": [],
					"stateMutability": "payable",
					"type": "function"
				},
				{
					"inputs": [
						{
							"internalType": "uint256",
							"name": "",
							"type": "uint256"
						}
					],
					"name": "projects",
					"outputs": [
						{
							"internalType": "string",
							"name": "id",
							"type": "string"
						},
						{
							"internalType": "string",
							"name": "name",
							"type": "string"
						},
						{
							"internalType": "string",
							"name": "description",
							"type": "string"
						},
						{
							"internalType": "uint256",
							"name": "goal",
							"type": "uint256"
						},
						{
							"internalType": "address payable",
							"name": "author",
							"type": "address"
						},
						{
							"internalType": "uint256",
							"name": "funds",
							"type": "uint256"
						},
						{
							"internalType": "enum CrowdFunding.State",
							"name": "state",
							"type": "uint8"
						}
					],
					"stateMutability": "view",
					"type": "function"
				}
			],
			"devdoc": {
				"kind": "dev",
				"methods": {},
				"version": 1
			},
			"evm": {
				"assembly": "    /* \"contracts/project.sol\":74:2389  contract CrowdFunding {\r... */\n  mstore(0x40, 0x80)\n  callvalue\n  dup1\n  iszero\n  tag_1\n  jumpi\n  0x00\n  dup1\n  revert\ntag_1:\n  pop\n  dataSize(sub_0)\n  dup1\n  dataOffset(sub_0)\n  0x00\n  codecopy\n  0x00\n  return\nstop\n\nsub_0: assembly {\n        /* \"contracts/project.sol\":74:2389  contract CrowdFunding {\r... */\n      mstore(0x40, 0x80)\n      jumpi(tag_1, lt(calldatasize, 0x04))\n      shr(0xe0, calldataload(0x00))\n      dup1\n      0x107046bd\n      eq\n      tag_2\n      jumpi\n      dup1\n      0x17e925d7\n      eq\n      tag_3\n      jumpi\n      dup1\n      0x1ca73896\n      eq\n      tag_4\n      jumpi\n      dup1\n      0x6c563abe\n      eq\n      tag_5\n      jumpi\n      dup1\n      0x7f3fcdd9\n      eq\n      tag_6\n      jumpi\n    tag_1:\n      0x00\n      dup1\n      revert\n        /* \"contracts/project.sol\":450:475  Project[] public projects */\n    tag_2:\n      callvalue\n      dup1\n      iszero\n      tag_7\n      jumpi\n      0x00\n      dup1\n      revert\n    tag_7:\n      pop\n      tag_8\n      0x04\n      dup1\n      calldatasize\n      sub\n      dup2\n      add\n      swap1\n      tag_9\n      swap2\n      swap1\n      tag_10\n      jump\t// in\n    tag_9:\n      tag_11\n      jump\t// in\n    tag_8:\n      mload(0x40)\n      tag_12\n      swap8\n      swap7\n      swap6\n      swap5\n      swap4\n      swap3\n      swap2\n      swap1\n      tag_13\n      jump\t// in\n    tag_12:\n      mload(0x40)\n      dup1\n      swap2\n      sub\n      swap1\n      return\n        /* \"contracts/project.sol\":1501:1817  function changeProjectState(uint projectIndex, State newState) public isAuthor(projectIndex) {\r... */\n    tag_3:\n      callvalue\n      dup1\n      iszero\n      tag_14\n      jumpi\n      0x00\n      dup1\n      revert\n    tag_14:\n      pop\n      tag_15\n      0x04\n      dup1\n      calldatasize\n      sub\n      dup2\n      add\n      swap1\n      tag_16\n      swap2\n      swap1\n      tag_17\n      jump\t// in\n    tag_16:\n      tag_18\n      jump\t// in\n    tag_15:\n      stop\n        /* \"contracts/project.sol\":545:948  function createProject(string calldata _id, string calldata _name, string calldata _description, uint _goal) public {\r... */\n    tag_4:\n      callvalue\n      dup1\n      iszero\n      tag_19\n      jumpi\n      0x00\n      dup1\n      revert\n    tag_19:\n      pop\n      tag_20\n      0x04\n      dup1\n      calldatasize\n      sub\n      dup2\n      add\n      swap1\n      tag_21\n      swap2\n      swap1\n      tag_22\n      jump\t// in\n    tag_21:\n      tag_23\n      jump\t// in\n    tag_20:\n      stop\n        /* \"contracts/project.sol\":956:1493  function fundProject(uint projectIndex) public payable isNotAuthor(projectIndex) {\r... */\n    tag_5:\n      tag_24\n      0x04\n      dup1\n      calldatasize\n      sub\n      dup2\n      add\n      swap1\n      tag_25\n      swap2\n      swap1\n      tag_10\n      jump\t// in\n    tag_25:\n      tag_26\n      jump\t// in\n    tag_24:\n      stop\n        /* \"contracts/project.sol\":482:536  mapping(string => Contribution[]) public contributions */\n    tag_6:\n      callvalue\n      dup1\n      iszero\n      tag_27\n      jumpi\n      0x00\n      dup1\n      revert\n    tag_27:\n      pop\n      tag_28\n      0x04\n      dup1\n      calldatasize\n      sub\n      dup2\n      add\n      swap1\n      tag_29\n      swap2\n      swap1\n      tag_30\n      jump\t// in\n    tag_29:\n      tag_31\n      jump\t// in\n    tag_28:\n      mload(0x40)\n      tag_32\n      swap3\n      swap2\n      swap1\n      tag_33\n      jump\t// in\n    tag_32:\n      mload(0x40)\n      dup1\n      swap2\n      sub\n      swap1\n      return\n        /* \"contracts/project.sol\":450:475  Project[] public projects */\n    tag_11:\n      0x00\n      dup2\n      dup2\n      sload\n      dup2\n      lt\n      tag_34\n      jumpi\n      0x00\n      dup1\n      revert\n    tag_34:\n      swap1\n      0x00\n      mstore\n      keccak256(0x00, 0x20)\n      swap1\n      0x07\n      mul\n      add\n      0x00\n      swap2\n      pop\n      swap1\n      pop\n      dup1\n      0x00\n      add\n      dup1\n      sload\n      tag_36\n      swap1\n      tag_37\n      jump\t// in\n    tag_36:\n      dup1\n      0x1f\n      add\n      0x20\n      dup1\n      swap2\n      div\n      mul\n      0x20\n      add\n      mload(0x40)\n      swap1\n      dup2\n      add\n      0x40\n      mstore\n      dup1\n      swap3\n      swap2\n      swap1\n      dup2\n      dup2\n      mstore\n      0x20\n      add\n      dup3\n      dup1\n      sload\n      tag_38\n      swap1\n      tag_37\n      jump\t// in\n    tag_38:\n      dup1\n      iszero\n      tag_39\n      jumpi\n      dup1\n      0x1f\n      lt\n      tag_40\n      jumpi\n      0x0100\n      dup1\n      dup4\n      sload\n      div\n      mul\n      dup4\n      mstore\n      swap2\n      0x20\n      add\n      swap2\n      jump(tag_39)\n    tag_40:\n      dup3\n      add\n      swap2\n      swap1\n      0x00\n      mstore\n      keccak256(0x00, 0x20)\n      swap1\n    tag_41:\n      dup2\n      sload\n      dup2\n      mstore\n      swap1\n      0x01\n      add\n      swap1\n      0x20\n      add\n      dup1\n      dup4\n      gt\n      tag_41\n      jumpi\n      dup3\n      swap1\n      sub\n      0x1f\n      and\n      dup3\n      add\n      swap2\n    tag_39:\n      pop\n      pop\n      pop\n      pop\n      pop\n      swap1\n      dup1\n      0x01\n      add\n      dup1\n      sload\n      tag_42\n      swap1\n      tag_37\n      jump\t// in\n    tag_42:\n      dup1\n      0x1f\n      add\n      0x20\n      dup1\n      swap2\n      div\n      mul\n      0x20\n      add\n      mload(0x40)\n      swap1\n      dup2\n      add\n      0x40\n      mstore\n      dup1\n      swap3\n      swap2\n      swap1\n      dup2\n      dup2\n      mstore\n      0x20\n      add\n      dup3\n      dup1\n      sload\n      tag_43\n      swap1\n      tag_37\n      jump\t// in\n    tag_43:\n      dup1\n      iszero\n      tag_44\n      jumpi\n      dup1\n      0x1f\n      lt\n      tag_45\n      jumpi\n      0x0100\n      dup1\n      dup4\n      sload\n      div\n      mul\n      dup4\n      mstore\n      swap2\n      0x20\n      add\n      swap2\n      jump(tag_44)\n    tag_45:\n      dup3\n      add\n      swap2\n      swap1\n      0x00\n      mstore\n      keccak256(0x00, 0x20)\n      swap1\n    tag_46:\n      dup2\n      sload\n      dup2\n      mstore\n      swap1\n      0x01\n      add\n      swap1\n      0x20\n      add\n      dup1\n      dup4\n      gt\n      tag_46\n      jumpi\n      dup3\n      swap1\n      sub\n      0x1f\n      and\n      dup3\n      add\n      swap2\n    tag_44:\n      pop\n      pop\n      pop\n      pop\n      pop\n      swap1\n      dup1\n      0x02\n      add\n      dup1\n      sload\n      tag_47\n      swap1\n      tag_37\n      jump\t// in\n    tag_47:\n      dup1\n      0x1f\n      add\n      0x20\n      dup1\n      swap2\n      div\n      mul\n      0x20\n      add\n      mload(0x40)\n      swap1\n      dup2\n      add\n      0x40\n      mstore\n      dup1\n      swap3\n      swap2\n      swap1\n      dup2\n      dup2\n      mstore\n      0x20\n      add\n      dup3\n      dup1\n      sload\n      tag_48\n      swap1\n      tag_37\n      jump\t// in\n    tag_48:\n      dup1\n      iszero\n      tag_49\n      jumpi\n      dup1\n      0x1f\n      lt\n      tag_50\n      jumpi\n      0x0100\n      dup1\n      dup4\n      sload\n      div\n      mul\n      dup4\n      mstore\n      swap2\n      0x20\n      add\n      swap2\n      jump(tag_49)\n    tag_50:\n      dup3\n      add\n      swap2\n      swap1\n      0x00\n      mstore\n      keccak256(0x00, 0x20)\n      swap1\n    tag_51:\n      dup2\n      sload\n      dup2\n      mstore\n      swap1\n      0x01\n      add\n      swap1\n      0x20\n      add\n      dup1\n      dup4\n      gt\n      tag_51\n      jumpi\n      dup3\n      swap1\n      sub\n      0x1f\n      and\n      dup3\n      add\n      swap2\n    tag_49:\n      pop\n      pop\n      pop\n      pop\n      pop\n      swap1\n      dup1\n      0x03\n      add\n      sload\n      swap1\n      dup1\n      0x04\n      add\n      0x00\n      swap1\n      sload\n      swap1\n      0x0100\n      exp\n      swap1\n      div\n      0xffffffffffffffffffffffffffffffffffffffff\n      and\n      swap1\n      dup1\n      0x05\n      add\n      sload\n      swap1\n      dup1\n      0x06\n      add\n      0x00\n      swap1\n      sload\n      swap1\n      0x0100\n      exp\n      swap1\n      div\n      0xff\n      and\n      swap1\n      pop\n      dup8\n      jump\t// out\n        /* \"contracts/project.sol\":1501:1817  function changeProjectState(uint projectIndex, State newState) public isAuthor(projectIndex) {\r... */\n    tag_18:\n        /* \"contracts/project.sol\":1580:1592  projectIndex */\n      dup2\n        /* \"contracts/project.sol\":1895:1903  projects */\n      0x00\n        /* \"contracts/project.sol\":1904:1916  projectIndex */\n      dup2\n        /* \"contracts/project.sol\":1895:1917  projects[projectIndex] */\n      dup2\n      sload\n      dup2\n      lt\n      tag_53\n      jumpi\n      tag_54\n      tag_55\n      jump\t// in\n    tag_54:\n    tag_53:\n      swap1\n      0x00\n      mstore\n      keccak256(0x00, 0x20)\n      swap1\n      0x07\n      mul\n      add\n        /* \"contracts/project.sol\":1895:1924  projects[projectIndex].author */\n      0x04\n      add\n      0x00\n      swap1\n      sload\n      swap1\n      0x0100\n      exp\n      swap1\n      div\n      0xffffffffffffffffffffffffffffffffffffffff\n      and\n        /* \"contracts/project.sol\":1881:1924  msg.sender == projects[projectIndex].author */\n      0xffffffffffffffffffffffffffffffffffffffff\n      and\n        /* \"contracts/project.sol\":1881:1891  msg.sender */\n      caller\n        /* \"contracts/project.sol\":1881:1924  msg.sender == projects[projectIndex].author */\n      0xffffffffffffffffffffffffffffffffffffffff\n      and\n      eq\n        /* \"contracts/project.sol\":1873:1976  require(msg.sender == projects[projectIndex].author, 'Only author can change the state of the project') */\n      tag_57\n      jumpi\n      mload(0x40)\n      0x08c379a000000000000000000000000000000000000000000000000000000000\n      dup2\n      mstore\n      0x04\n      add\n      tag_58\n      swap1\n      tag_59\n      jump\t// in\n    tag_58:\n      mload(0x40)\n      dup1\n      swap2\n      sub\n      swap1\n      revert\n    tag_57:\n        /* \"contracts/project.sol\":1645:1653  newState */\n      dup2\n        /* \"contracts/project.sol\":1613:1653  projects[projectIndex].state != newState */\n      0x01\n      dup2\n      gt\n      iszero\n      tag_61\n      jumpi\n      tag_62\n      tag_63\n      jump\t// in\n    tag_62:\n    tag_61:\n        /* \"contracts/project.sol\":1613:1621  projects */\n      0x00\n        /* \"contracts/project.sol\":1622:1634  projectIndex */\n      dup5\n        /* \"contracts/project.sol\":1613:1635  projects[projectIndex] */\n      dup2\n      sload\n      dup2\n      lt\n      tag_64\n      jumpi\n      tag_65\n      tag_55\n      jump\t// in\n    tag_65:\n    tag_64:\n      swap1\n      0x00\n      mstore\n      keccak256(0x00, 0x20)\n      swap1\n      0x07\n      mul\n      add\n        /* \"contracts/project.sol\":1613:1641  projects[projectIndex].state */\n      0x06\n      add\n      0x00\n      swap1\n      sload\n      swap1\n      0x0100\n      exp\n      swap1\n      div\n      0xff\n      and\n        /* \"contracts/project.sol\":1613:1653  projects[projectIndex].state != newState */\n      0x01\n      dup2\n      gt\n      iszero\n      tag_67\n      jumpi\n      tag_68\n      tag_63\n      jump\t// in\n    tag_68:\n    tag_67:\n      eq\n      iszero\n        /* \"contracts/project.sol\":1605:1685  require(projects[projectIndex].state != newState, 'New state must be different') */\n      tag_69\n      jumpi\n      mload(0x40)\n      0x08c379a000000000000000000000000000000000000000000000000000000000\n      dup2\n      mstore\n      0x04\n      add\n      tag_70\n      swap1\n      tag_71\n      jump\t// in\n    tag_70:\n      mload(0x40)\n      dup1\n      swap2\n      sub\n      swap1\n      revert\n    tag_69:\n        /* \"contracts/project.sol\":1727:1735  newState */\n      dup2\n        /* \"contracts/project.sol\":1696:1704  projects */\n      0x00\n        /* \"contracts/project.sol\":1705:1717  projectIndex */\n      dup5\n        /* \"contracts/project.sol\":1696:1718  projects[projectIndex] */\n      dup2\n      sload\n      dup2\n      lt\n      tag_72\n      jumpi\n      tag_73\n      tag_55\n      jump\t// in\n    tag_73:\n    tag_72:\n      swap1\n      0x00\n      mstore\n      keccak256(0x00, 0x20)\n      swap1\n      0x07\n      mul\n      add\n        /* \"contracts/project.sol\":1696:1724  projects[projectIndex].state */\n      0x06\n      add\n      0x00\n        /* \"contracts/project.sol\":1696:1735  projects[projectIndex].state = newState */\n      0x0100\n      exp\n      dup2\n      sload\n      dup2\n      0xff\n      mul\n      not\n      and\n      swap1\n      dup4\n      0x01\n      dup2\n      gt\n      iszero\n      tag_75\n      jumpi\n      tag_76\n      tag_63\n      jump\t// in\n    tag_76:\n    tag_75:\n      mul\n      or\n      swap1\n      sstore\n      pop\n        /* \"contracts/project.sol\":1751:1809  changeProjectStateLog(projects[projectIndex].id, newState) */\n      0xb364ab0cadec04bec8a97e81743129cecc3480279fb67b9378df4219238b250f\n        /* \"contracts/project.sol\":1773:1781  projects */\n      0x00\n        /* \"contracts/project.sol\":1782:1794  projectIndex */\n      dup5\n        /* \"contracts/project.sol\":1773:1795  projects[projectIndex] */\n      dup2\n      sload\n      dup2\n      lt\n      tag_77\n      jumpi\n      tag_78\n      tag_55\n      jump\t// in\n    tag_78:\n    tag_77:\n      swap1\n      0x00\n      mstore\n      keccak256(0x00, 0x20)\n      swap1\n      0x07\n      mul\n      add\n        /* \"contracts/project.sol\":1773:1798  projects[projectIndex].id */\n      0x00\n      add\n        /* \"contracts/project.sol\":1800:1808  newState */\n      dup4\n        /* \"contracts/project.sol\":1751:1809  changeProjectStateLog(projects[projectIndex].id, newState) */\n      mload(0x40)\n      tag_80\n      swap3\n      swap2\n      swap1\n      tag_81\n      jump\t// in\n    tag_80:\n      mload(0x40)\n      dup1\n      swap2\n      sub\n      swap1\n      log1\n        /* \"contracts/project.sol\":1501:1817  function changeProjectState(uint projectIndex, State newState) public isAuthor(projectIndex) {\r... */\n      pop\n      pop\n      pop\n      jump\t// out\n        /* \"contracts/project.sol\":545:948  function createProject(string calldata _id, string calldata _name, string calldata _description, uint _goal) public {\r... */\n    tag_23:\n        /* \"contracts/project.sol\":688:689  0 */\n      0x00\n        /* \"contracts/project.sol\":680:685  _goal */\n      dup2\n        /* \"contracts/project.sol\":680:689  _goal > 0 */\n      gt\n        /* \"contracts/project.sol\":672:728  require(_goal > 0, 'fundraising must be greater than 0') */\n      tag_83\n      jumpi\n      mload(0x40)\n      0x08c379a000000000000000000000000000000000000000000000000000000000\n      dup2\n      mstore\n      0x04\n      add\n      tag_84\n      swap1\n      tag_85\n      jump\t// in\n    tag_84:\n      mload(0x40)\n      dup1\n      swap2\n      sub\n      swap1\n      revert\n    tag_83:\n        /* \"contracts/project.sol\":739:761  Project memory project */\n      0x00\n        /* \"contracts/project.sol\":764:842  Project(_id, _name, _description, _goal, payable(msg.sender), 0, State.Opened) */\n      mload(0x40)\n      dup1\n      0xe0\n      add\n      0x40\n      mstore\n      dup1\n        /* \"contracts/project.sol\":772:775  _id */\n      dup10\n      dup10\n        /* \"contracts/project.sol\":764:842  Project(_id, _name, _description, _goal, payable(msg.sender), 0, State.Opened) */\n      dup1\n      dup1\n      0x1f\n      add\n      0x20\n      dup1\n      swap2\n      div\n      mul\n      0x20\n      add\n      mload(0x40)\n      swap1\n      dup2\n      add\n      0x40\n      mstore\n      dup1\n      swap4\n      swap3\n      swap2\n      swap1\n      dup2\n      dup2\n      mstore\n      0x20\n      add\n      dup4\n      dup4\n      dup1\n      dup3\n      dup5\n      calldatacopy\n      0x00\n      dup2\n      dup5\n      add\n      mstore\n      not(0x1f)\n      0x1f\n      dup3\n      add\n      and\n      swap1\n      pop\n      dup1\n      dup4\n      add\n      swap3\n      pop\n      pop\n      pop\n      pop\n      pop\n      pop\n      pop\n      dup2\n      mstore\n      0x20\n      add\n        /* \"contracts/project.sol\":777:782  _name */\n      dup8\n      dup8\n        /* \"contracts/project.sol\":764:842  Project(_id, _name, _description, _goal, payable(msg.sender), 0, State.Opened) */\n      dup1\n      dup1\n      0x1f\n      add\n      0x20\n      dup1\n      swap2\n      div\n      mul\n      0x20\n      add\n      mload(0x40)\n      swap1\n      dup2\n      add\n      0x40\n      mstore\n      dup1\n      swap4\n      swap3\n      swap2\n      swap1\n      dup2\n      dup2\n      mstore\n      0x20\n      add\n      dup4\n      dup4\n      dup1\n      dup3\n      dup5\n      calldatacopy\n      0x00\n      dup2\n      dup5\n      add\n      mstore\n      not(0x1f)\n      0x1f\n      dup3\n      add\n      and\n      swap1\n      pop\n      dup1\n      dup4\n      add\n      swap3\n      pop\n      pop\n      pop\n      pop\n      pop\n      pop\n      pop\n      dup2\n      mstore\n      0x20\n      add\n        /* \"contracts/project.sol\":784:796  _description */\n      dup6\n      dup6\n        /* \"contracts/project.sol\":764:842  Project(_id, _name, _description, _goal, payable(msg.sender), 0, State.Opened) */\n      dup1\n      dup1\n      0x1f\n      add\n      0x20\n      dup1\n      swap2\n      div\n      mul\n      0x20\n      add\n      mload(0x40)\n      swap1\n      dup2\n      add\n      0x40\n      mstore\n      dup1\n      swap4\n      swap3\n      swap2\n      swap1\n      dup2\n      dup2\n      mstore\n      0x20\n      add\n      dup4\n      dup4\n      dup1\n      dup3\n      dup5\n      calldatacopy\n      0x00\n      dup2\n      dup5\n      add\n      mstore\n      not(0x1f)\n      0x1f\n      dup3\n      add\n      and\n      swap1\n      pop\n      dup1\n      dup4\n      add\n      swap3\n      pop\n      pop\n      pop\n      pop\n      pop\n      pop\n      pop\n      dup2\n      mstore\n      0x20\n      add\n        /* \"contracts/project.sol\":798:803  _goal */\n      dup4\n        /* \"contracts/project.sol\":764:842  Project(_id, _name, _description, _goal, payable(msg.sender), 0, State.Opened) */\n      dup2\n      mstore\n      0x20\n      add\n        /* \"contracts/project.sol\":813:823  msg.sender */\n      caller\n        /* \"contracts/project.sol\":764:842  Project(_id, _name, _description, _goal, payable(msg.sender), 0, State.Opened) */\n      0xffffffffffffffffffffffffffffffffffffffff\n      and\n      dup2\n      mstore\n      0x20\n      add\n        /* \"contracts/project.sol\":826:827  0 */\n      0x00\n        /* \"contracts/project.sol\":764:842  Project(_id, _name, _description, _goal, payable(msg.sender), 0, State.Opened) */\n      dup2\n      mstore\n      0x20\n      add\n        /* \"contracts/project.sol\":829:841  State.Opened */\n      0x00\n        /* \"contracts/project.sol\":764:842  Project(_id, _name, _description, _goal, payable(msg.sender), 0, State.Opened) */\n      0x01\n      dup2\n      gt\n      iszero\n      tag_86\n      jumpi\n      tag_87\n      tag_63\n      jump\t// in\n    tag_87:\n    tag_86:\n      dup2\n      mstore\n      pop\n        /* \"contracts/project.sol\":739:842  Project memory project = Project(_id, _name, _description, _goal, payable(msg.sender), 0, State.Opened) */\n      swap1\n      pop\n        /* \"contracts/project.sol\":853:861  projects */\n      0x00\n        /* \"contracts/project.sol\":867:874  project */\n      dup2\n        /* \"contracts/project.sol\":853:875  projects.push(project) */\n      swap1\n      dup1\n      0x01\n      dup2\n      sload\n      add\n      dup1\n      dup3\n      sstore\n      dup1\n      swap2\n      pop\n      pop\n      0x01\n      swap1\n      sub\n      swap1\n      0x00\n      mstore\n      keccak256(0x00, 0x20)\n      swap1\n      0x07\n      mul\n      add\n      0x00\n      swap1\n      swap2\n      swap1\n      swap2\n      swap1\n      swap2\n      pop\n      0x00\n      dup3\n      add\n      mload\n      dup2\n      0x00\n      add\n      swap1\n      dup1\n      mload\n      swap1\n      0x20\n      add\n      swap1\n      tag_89\n      swap3\n      swap2\n      swap1\n      tag_90\n      jump\t// in\n    tag_89:\n      pop\n      0x20\n      dup3\n      add\n      mload\n      dup2\n      0x01\n      add\n      swap1\n      dup1\n      mload\n      swap1\n      0x20\n      add\n      swap1\n      tag_91\n      swap3\n      swap2\n      swap1\n      tag_90\n      jump\t// in\n    tag_91:\n      pop\n      0x40\n      dup3\n      add\n      mload\n      dup2\n      0x02\n      add\n      swap1\n      dup1\n      mload\n      swap1\n      0x20\n      add\n      swap1\n      tag_92\n      swap3\n      swap2\n      swap1\n      tag_90\n      jump\t// in\n    tag_92:\n      pop\n      0x60\n      dup3\n      add\n      mload\n      dup2\n      0x03\n      add\n      sstore\n      0x80\n      dup3\n      add\n      mload\n      dup2\n      0x04\n      add\n      exp(0x0100, 0x00)\n      dup2\n      sload\n      dup2\n      0xffffffffffffffffffffffffffffffffffffffff\n      mul\n      not\n      and\n      swap1\n      dup4\n      0xffffffffffffffffffffffffffffffffffffffff\n      and\n      mul\n      or\n      swap1\n      sstore\n      pop\n      0xa0\n      dup3\n      add\n      mload\n      dup2\n      0x05\n      add\n      sstore\n      0xc0\n      dup3\n      add\n      mload\n      dup2\n      0x06\n      add\n      exp(0x0100, 0x00)\n      dup2\n      sload\n      dup2\n      0xff\n      mul\n      not\n      and\n      swap1\n      dup4\n      0x01\n      dup2\n      gt\n      iszero\n      tag_93\n      jumpi\n      tag_94\n      tag_63\n      jump\t// in\n    tag_94:\n    tag_93:\n      mul\n      or\n      swap1\n      sstore\n      pop\n      pop\n      pop\n        /* \"contracts/project.sol\":891:940  createProjectLog(_id, _name, _description, _goal) */\n      0x95df29175008deb1f139c97a80ab29ee4f48d3bece10e0dc24beea55367aedff\n        /* \"contracts/project.sol\":908:911  _id */\n      dup9\n      dup9\n        /* \"contracts/project.sol\":913:918  _name */\n      dup9\n      dup9\n        /* \"contracts/project.sol\":920:932  _description */\n      dup9\n      dup9\n        /* \"contracts/project.sol\":934:939  _goal */\n      dup9\n        /* \"contracts/project.sol\":891:940  createProjectLog(_id, _name, _description, _goal) */\n      mload(0x40)\n      tag_95\n      swap8\n      swap7\n      swap6\n      swap5\n      swap4\n      swap3\n      swap2\n      swap1\n      tag_96\n      jump\t// in\n    tag_95:\n      mload(0x40)\n      dup1\n      swap2\n      sub\n      swap1\n      log1\n        /* \"contracts/project.sol\":661:948  {\r... */\n      pop\n        /* \"contracts/project.sol\":545:948  function createProject(string calldata _id, string calldata _name, string calldata _description, uint _goal) public {\r... */\n      pop\n      pop\n      pop\n      pop\n      pop\n      pop\n      pop\n      jump\t// out\n        /* \"contracts/project.sol\":956:1493  function fundProject(uint projectIndex) public payable isNotAuthor(projectIndex) {\r... */\n    tag_26:\n        /* \"contracts/project.sol\":1023:1035  projectIndex */\n      dup1\n        /* \"contracts/project.sol\":2077:2085  projects */\n      0x00\n        /* \"contracts/project.sol\":2086:2098  projectIndex */\n      dup2\n        /* \"contracts/project.sol\":2077:2099  projects[projectIndex] */\n      dup2\n      sload\n      dup2\n      lt\n      tag_98\n      jumpi\n      tag_99\n      tag_55\n      jump\t// in\n    tag_99:\n    tag_98:\n      swap1\n      0x00\n      mstore\n      keccak256(0x00, 0x20)\n      swap1\n      0x07\n      mul\n      add\n        /* \"contracts/project.sol\":2077:2106  projects[projectIndex].author */\n      0x04\n      add\n      0x00\n      swap1\n      sload\n      swap1\n      0x0100\n      exp\n      swap1\n      div\n      0xffffffffffffffffffffffffffffffffffffffff\n      and\n        /* \"contracts/project.sol\":2063:2106  msg.sender != projects[projectIndex].author */\n      0xffffffffffffffffffffffffffffffffffffffff\n      and\n        /* \"contracts/project.sol\":2063:2073  msg.sender */\n      caller\n        /* \"contracts/project.sol\":2063:2106  msg.sender != projects[projectIndex].author */\n      0xffffffffffffffffffffffffffffffffffffffff\n      and\n      eq\n      iszero\n        /* \"contracts/project.sol\":2055:2145  require(msg.sender != projects[projectIndex].author, 'The author cannot fund the project') */\n      tag_101\n      jumpi\n      mload(0x40)\n      0x08c379a000000000000000000000000000000000000000000000000000000000\n      dup2\n      mstore\n      0x04\n      add\n      tag_102\n      swap1\n      tag_103\n      jump\t// in\n    tag_102:\n      mload(0x40)\n      dup1\n      swap2\n      sub\n      swap1\n      revert\n    tag_101:\n        /* \"contracts/project.sol\":1088:1100  State.Closed */\n      0x01\n        /* \"contracts/project.sol\":1056:1100  projects[projectIndex].state != State.Closed */\n      dup1\n      dup2\n      gt\n      iszero\n      tag_105\n      jumpi\n      tag_106\n      tag_63\n      jump\t// in\n    tag_106:\n    tag_105:\n        /* \"contracts/project.sol\":1056:1064  projects */\n      0x00\n        /* \"contracts/project.sol\":1065:1077  projectIndex */\n      dup4\n        /* \"contracts/project.sol\":1056:1078  projects[projectIndex] */\n      dup2\n      sload\n      dup2\n      lt\n      tag_107\n      jumpi\n      tag_108\n      tag_55\n      jump\t// in\n    tag_108:\n    tag_107:\n      swap1\n      0x00\n      mstore\n      keccak256(0x00, 0x20)\n      swap1\n      0x07\n      mul\n      add\n        /* \"contracts/project.sol\":1056:1084  projects[projectIndex].state */\n      0x06\n      add\n      0x00\n      swap1\n      sload\n      swap1\n      0x0100\n      exp\n      swap1\n      div\n      0xff\n      and\n        /* \"contracts/project.sol\":1056:1100  projects[projectIndex].state != State.Closed */\n      0x01\n      dup2\n      gt\n      iszero\n      tag_110\n      jumpi\n      tag_111\n      tag_63\n      jump\t// in\n    tag_111:\n    tag_110:\n      eq\n      iszero\n        /* \"contracts/project.sol\":1048:1141  require(projects[projectIndex].state != State.Closed, 'The funding of the project is closed') */\n      tag_112\n      jumpi\n      mload(0x40)\n      0x08c379a000000000000000000000000000000000000000000000000000000000\n      dup2\n      mstore\n      0x04\n      add\n      tag_113\n      swap1\n      tag_114\n      jump\t// in\n    tag_113:\n      mload(0x40)\n      dup1\n      swap2\n      sub\n      swap1\n      revert\n    tag_112:\n        /* \"contracts/project.sol\":1172:1173  0 */\n      0x00\n        /* \"contracts/project.sol\":1160:1169  msg.value */\n      callvalue\n        /* \"contracts/project.sol\":1160:1173  msg.value > 0 */\n      gt\n        /* \"contracts/project.sol\":1152:1212  require(msg.value > 0, 'fundraising must be greater than 0') */\n      tag_115\n      jumpi\n      mload(0x40)\n      0x08c379a000000000000000000000000000000000000000000000000000000000\n      dup2\n      mstore\n      0x04\n      add\n      tag_116\n      swap1\n      tag_85\n      jump\t// in\n    tag_116:\n      mload(0x40)\n      dup1\n      swap2\n      sub\n      swap1\n      revert\n    tag_115:\n        /* \"contracts/project.sol\":1223:1231  projects */\n      0x00\n        /* \"contracts/project.sol\":1232:1244  projectIndex */\n      dup3\n        /* \"contracts/project.sol\":1223:1245  projects[projectIndex] */\n      dup2\n      sload\n      dup2\n      lt\n      tag_117\n      jumpi\n      tag_118\n      tag_55\n      jump\t// in\n    tag_118:\n    tag_117:\n      swap1\n      0x00\n      mstore\n      keccak256(0x00, 0x20)\n      swap1\n      0x07\n      mul\n      add\n        /* \"contracts/project.sol\":1223:1252  projects[projectIndex].author */\n      0x04\n      add\n      0x00\n      swap1\n      sload\n      swap1\n      0x0100\n      exp\n      swap1\n      div\n      0xffffffffffffffffffffffffffffffffffffffff\n      and\n        /* \"contracts/project.sol\":1223:1261  projects[projectIndex].author.transfer */\n      0xffffffffffffffffffffffffffffffffffffffff\n      and\n        /* \"contracts/project.sol\":1223:1272  projects[projectIndex].author.transfer(msg.value) */\n      0x08fc\n        /* \"contracts/project.sol\":1262:1271  msg.value */\n      callvalue\n        /* \"contracts/project.sol\":1223:1272  projects[projectIndex].author.transfer(msg.value) */\n      swap1\n      dup2\n      iszero\n      mul\n      swap1\n      mload(0x40)\n      0x00\n      mload(0x40)\n      dup1\n      dup4\n      sub\n      dup2\n      dup6\n      dup9\n      dup9\n      call\n      swap4\n      pop\n      pop\n      pop\n      pop\n      iszero\n      dup1\n      iszero\n      tag_121\n      jumpi\n      returndatasize\n      0x00\n      dup1\n      returndatacopy\n      revert(0x00, returndatasize)\n    tag_121:\n      pop\n        /* \"contracts/project.sol\":1315:1324  msg.value */\n      callvalue\n        /* \"contracts/project.sol\":1283:1291  projects */\n      0x00\n        /* \"contracts/project.sol\":1292:1304  projectIndex */\n      dup4\n        /* \"contracts/project.sol\":1283:1305  projects[projectIndex] */\n      dup2\n      sload\n      dup2\n      lt\n      tag_122\n      jumpi\n      tag_123\n      tag_55\n      jump\t// in\n    tag_123:\n    tag_122:\n      swap1\n      0x00\n      mstore\n      keccak256(0x00, 0x20)\n      swap1\n      0x07\n      mul\n      add\n        /* \"contracts/project.sol\":1283:1311  projects[projectIndex].funds */\n      0x05\n      add\n      0x00\n        /* \"contracts/project.sol\":1283:1324  projects[projectIndex].funds += msg.value */\n      dup3\n      dup3\n      sload\n      tag_125\n      swap2\n      swap1\n      tag_126\n      jump\t// in\n    tag_125:\n      swap3\n      pop\n      pop\n      dup2\n      swap1\n      sstore\n      pop\n        /* \"contracts/project.sol\":1335:1348  contributions */\n      0x01\n        /* \"contracts/project.sol\":1349:1357  projects */\n      0x00\n        /* \"contracts/project.sol\":1358:1370  projectIndex */\n      dup4\n        /* \"contracts/project.sol\":1349:1371  projects[projectIndex] */\n      dup2\n      sload\n      dup2\n      lt\n      tag_127\n      jumpi\n      tag_128\n      tag_55\n      jump\t// in\n    tag_128:\n    tag_127:\n      swap1\n      0x00\n      mstore\n      keccak256(0x00, 0x20)\n      swap1\n      0x07\n      mul\n      add\n        /* \"contracts/project.sol\":1349:1374  projects[projectIndex].id */\n      0x00\n      add\n        /* \"contracts/project.sol\":1335:1375  contributions[projects[projectIndex].id] */\n      mload(0x40)\n      tag_130\n      swap2\n      swap1\n      tag_131\n      jump\t// in\n    tag_130:\n      swap1\n      dup2\n      mstore\n      0x20\n      add\n      mload(0x40)\n      dup1\n      swap2\n      sub\n      swap1\n      keccak256\n        /* \"contracts/project.sol\":1381:1416  Contribution(msg.sender, msg.value) */\n      mload(0x40)\n      dup1\n      0x40\n      add\n      0x40\n      mstore\n      dup1\n        /* \"contracts/project.sol\":1394:1404  msg.sender */\n      caller\n        /* \"contracts/project.sol\":1381:1416  Contribution(msg.sender, msg.value) */\n      0xffffffffffffffffffffffffffffffffffffffff\n      and\n      dup2\n      mstore\n      0x20\n      add\n        /* \"contracts/project.sol\":1406:1415  msg.value */\n      callvalue\n        /* \"contracts/project.sol\":1381:1416  Contribution(msg.sender, msg.value) */\n      dup2\n      mstore\n      pop\n        /* \"contracts/project.sol\":1335:1417  contributions[projects[projectIndex].id].push(Contribution(msg.sender, msg.value)) */\n      swap1\n      dup1\n      0x01\n      dup2\n      sload\n      add\n      dup1\n      dup3\n      sstore\n      dup1\n      swap2\n      pop\n      pop\n      0x01\n      swap1\n      sub\n      swap1\n      0x00\n      mstore\n      keccak256(0x00, 0x20)\n      swap1\n      0x02\n      mul\n      add\n      0x00\n      swap1\n      swap2\n      swap1\n      swap2\n      swap1\n      swap2\n      pop\n      0x00\n      dup3\n      add\n      mload\n      dup2\n      0x00\n      add\n      exp(0x0100, 0x00)\n      dup2\n      sload\n      dup2\n      0xffffffffffffffffffffffffffffffffffffffff\n      mul\n      not\n      and\n      swap1\n      dup4\n      0xffffffffffffffffffffffffffffffffffffffff\n      and\n      mul\n      or\n      swap1\n      sstore\n      pop\n      0x20\n      dup3\n      add\n      mload\n      dup2\n      0x01\n      add\n      sstore\n      pop\n      pop\n        /* \"contracts/project.sol\":1433:1485  fundProjectLog(projects[projectIndex].id, msg.value) */\n      0x98a99e594dc0943c255bf9563ae2c4da6ffcfd06f78b396b88988548ac825ba8\n        /* \"contracts/project.sol\":1448:1456  projects */\n      0x00\n        /* \"contracts/project.sol\":1457:1469  projectIndex */\n      dup4\n        /* \"contracts/project.sol\":1448:1470  projects[projectIndex] */\n      dup2\n      sload\n      dup2\n      lt\n      tag_133\n      jumpi\n      tag_134\n      tag_55\n      jump\t// in\n    tag_134:\n    tag_133:\n      swap1\n      0x00\n      mstore\n      keccak256(0x00, 0x20)\n      swap1\n      0x07\n      mul\n      add\n        /* \"contracts/project.sol\":1448:1473  projects[projectIndex].id */\n      0x00\n      add\n        /* \"contracts/project.sol\":1475:1484  msg.value */\n      callvalue\n        /* \"contracts/project.sol\":1433:1485  fundProjectLog(projects[projectIndex].id, msg.value) */\n      mload(0x40)\n      tag_136\n      swap3\n      swap2\n      swap1\n      tag_137\n      jump\t// in\n    tag_136:\n      mload(0x40)\n      dup1\n      swap2\n      sub\n      swap1\n      log1\n        /* \"contracts/project.sol\":956:1493  function fundProject(uint projectIndex) public payable isNotAuthor(projectIndex) {\r... */\n      pop\n      pop\n      jump\t// out\n        /* \"contracts/project.sol\":482:536  mapping(string => Contribution[]) public contributions */\n    tag_31:\n      0x01\n      dup3\n      dup1\n      mload\n      0x20\n      dup2\n      add\n      dup3\n      add\n      dup1\n      mload\n      dup5\n      dup3\n      mstore\n      0x20\n      dup4\n      add\n      0x20\n      dup6\n      add\n      keccak256\n      dup2\n      dup4\n      mstore\n      dup1\n      swap6\n      pop\n      pop\n      pop\n      pop\n      pop\n      pop\n      dup2\n      dup2\n      sload\n      dup2\n      lt\n      tag_138\n      jumpi\n      0x00\n      dup1\n      revert\n    tag_138:\n      swap1\n      0x00\n      mstore\n      keccak256(0x00, 0x20)\n      swap1\n      0x02\n      mul\n      add\n      0x00\n      swap2\n      pop\n      swap2\n      pop\n      pop\n      dup1\n      0x00\n      add\n      0x00\n      swap1\n      sload\n      swap1\n      0x0100\n      exp\n      swap1\n      div\n      0xffffffffffffffffffffffffffffffffffffffff\n      and\n      swap1\n      dup1\n      0x01\n      add\n      sload\n      swap1\n      pop\n      dup3\n      jump\t// out\n    tag_90:\n      dup3\n      dup1\n      sload\n      tag_140\n      swap1\n      tag_37\n      jump\t// in\n    tag_140:\n      swap1\n      0x00\n      mstore\n      keccak256(0x00, 0x20)\n      swap1\n      0x1f\n      add\n      0x20\n      swap1\n      div\n      dup2\n      add\n      swap3\n      dup3\n      tag_142\n      jumpi\n      0x00\n      dup6\n      sstore\n      jump(tag_141)\n    tag_142:\n      dup3\n      0x1f\n      lt\n      tag_143\n      jumpi\n      dup1\n      mload\n      not(0xff)\n      and\n      dup4\n      dup1\n      add\n      or\n      dup6\n      sstore\n      jump(tag_141)\n    tag_143:\n      dup3\n      dup1\n      add\n      0x01\n      add\n      dup6\n      sstore\n      dup3\n      iszero\n      tag_141\n      jumpi\n      swap2\n      dup3\n      add\n    tag_144:\n      dup3\n      dup2\n      gt\n      iszero\n      tag_145\n      jumpi\n      dup3\n      mload\n      dup3\n      sstore\n      swap2\n      0x20\n      add\n      swap2\n      swap1\n      0x01\n      add\n      swap1\n      jump(tag_144)\n    tag_145:\n    tag_141:\n      pop\n      swap1\n      pop\n      tag_146\n      swap2\n      swap1\n      tag_147\n      jump\t// in\n    tag_146:\n      pop\n      swap1\n      jump\t// out\n    tag_147:\n    tag_148:\n      dup1\n      dup3\n      gt\n      iszero\n      tag_149\n      jumpi\n      0x00\n      dup2\n      0x00\n      swap1\n      sstore\n      pop\n      0x01\n      add\n      jump(tag_148)\n    tag_149:\n      pop\n      swap1\n      jump\t// out\n        /* \"#utility.yul\":7:419   */\n    tag_151:\n        /* \"#utility.yul\":85:90   */\n      0x00\n        /* \"#utility.yul\":110:176   */\n      tag_153\n        /* \"#utility.yul\":126:175   */\n      tag_154\n        /* \"#utility.yul\":168:174   */\n      dup5\n        /* \"#utility.yul\":126:175   */\n      tag_155\n      jump\t// in\n    tag_154:\n        /* \"#utility.yul\":110:176   */\n      tag_156\n      jump\t// in\n    tag_153:\n        /* \"#utility.yul\":101:176   */\n      swap1\n      pop\n        /* \"#utility.yul\":199:205   */\n      dup3\n        /* \"#utility.yul\":192:197   */\n      dup2\n        /* \"#utility.yul\":185:206   */\n      mstore\n        /* \"#utility.yul\":237:241   */\n      0x20\n        /* \"#utility.yul\":230:235   */\n      dup2\n        /* \"#utility.yul\":226:242   */\n      add\n        /* \"#utility.yul\":275:278   */\n      dup5\n        /* \"#utility.yul\":266:272   */\n      dup5\n        /* \"#utility.yul\":261:264   */\n      dup5\n        /* \"#utility.yul\":257:273   */\n      add\n        /* \"#utility.yul\":254:279   */\n      gt\n        /* \"#utility.yul\":251:363   */\n      iszero\n      tag_157\n      jumpi\n        /* \"#utility.yul\":282:361   */\n      tag_158\n      tag_159\n      jump\t// in\n    tag_158:\n        /* \"#utility.yul\":251:363   */\n    tag_157:\n        /* \"#utility.yul\":372:413   */\n      tag_160\n        /* \"#utility.yul\":406:412   */\n      dup5\n        /* \"#utility.yul\":401:404   */\n      dup3\n        /* \"#utility.yul\":396:399   */\n      dup6\n        /* \"#utility.yul\":372:413   */\n      tag_161\n      jump\t// in\n    tag_160:\n        /* \"#utility.yul\":91:419   */\n      pop\n        /* \"#utility.yul\":7:419   */\n      swap4\n      swap3\n      pop\n      pop\n      pop\n      jump\t// out\n        /* \"#utility.yul\":425:578   */\n    tag_162:\n        /* \"#utility.yul\":478:483   */\n      0x00\n        /* \"#utility.yul\":516:522   */\n      dup2\n        /* \"#utility.yul\":503:523   */\n      calldataload\n        /* \"#utility.yul\":494:523   */\n      swap1\n      pop\n        /* \"#utility.yul\":532:572   */\n      tag_164\n        /* \"#utility.yul\":566:571   */\n      dup2\n        /* \"#utility.yul\":532:572   */\n      tag_165\n      jump\t// in\n    tag_164:\n        /* \"#utility.yul\":425:578   */\n      swap3\n      swap2\n      pop\n      pop\n      jump\t// out\n        /* \"#utility.yul\":598:1151   */\n    tag_166:\n        /* \"#utility.yul\":656:664   */\n      0x00\n        /* \"#utility.yul\":666:672   */\n      dup1\n        /* \"#utility.yul\":716:719   */\n      dup4\n        /* \"#utility.yul\":709:713   */\n      0x1f\n        /* \"#utility.yul\":701:707   */\n      dup5\n        /* \"#utility.yul\":697:714   */\n      add\n        /* \"#utility.yul\":693:720   */\n      slt\n        /* \"#utility.yul\":683:805   */\n      tag_168\n      jumpi\n        /* \"#utility.yul\":724:803   */\n      tag_169\n      tag_170\n      jump\t// in\n    tag_169:\n        /* \"#utility.yul\":683:805   */\n    tag_168:\n        /* \"#utility.yul\":837:843   */\n      dup3\n        /* \"#utility.yul\":824:844   */\n      calldataload\n        /* \"#utility.yul\":814:844   */\n      swap1\n      pop\n        /* \"#utility.yul\":867:885   */\n      0xffffffffffffffff\n        /* \"#utility.yul\":859:865   */\n      dup2\n        /* \"#utility.yul\":856:886   */\n      gt\n        /* \"#utility.yul\":853:970   */\n      iszero\n      tag_171\n      jumpi\n        /* \"#utility.yul\":889:968   */\n      tag_172\n      tag_173\n      jump\t// in\n    tag_172:\n        /* \"#utility.yul\":853:970   */\n    tag_171:\n        /* \"#utility.yul\":1003:1007   */\n      0x20\n        /* \"#utility.yul\":995:1001   */\n      dup4\n        /* \"#utility.yul\":991:1008   */\n      add\n        /* \"#utility.yul\":979:1008   */\n      swap2\n      pop\n        /* \"#utility.yul\":1057:1060   */\n      dup4\n        /* \"#utility.yul\":1049:1053   */\n      0x01\n        /* \"#utility.yul\":1041:1047   */\n      dup3\n        /* \"#utility.yul\":1037:1054   */\n      mul\n        /* \"#utility.yul\":1027:1035   */\n      dup4\n        /* \"#utility.yul\":1023:1055   */\n      add\n        /* \"#utility.yul\":1020:1061   */\n      gt\n        /* \"#utility.yul\":1017:1145   */\n      iszero\n      tag_174\n      jumpi\n        /* \"#utility.yul\":1064:1143   */\n      tag_175\n      tag_176\n      jump\t// in\n    tag_175:\n        /* \"#utility.yul\":1017:1145   */\n    tag_174:\n        /* \"#utility.yul\":598:1151   */\n      swap3\n      pop\n      swap3\n      swap1\n      pop\n      jump\t// out\n        /* \"#utility.yul\":1171:1511   */\n    tag_177:\n        /* \"#utility.yul\":1227:1232   */\n      0x00\n        /* \"#utility.yul\":1276:1279   */\n      dup3\n        /* \"#utility.yul\":1269:1273   */\n      0x1f\n        /* \"#utility.yul\":1261:1267   */\n      dup4\n        /* \"#utility.yul\":1257:1274   */\n      add\n        /* \"#utility.yul\":1253:1280   */\n      slt\n        /* \"#utility.yul\":1243:1365   */\n      tag_179\n      jumpi\n        /* \"#utility.yul\":1284:1363   */\n      tag_180\n      tag_170\n      jump\t// in\n    tag_180:\n        /* \"#utility.yul\":1243:1365   */\n    tag_179:\n        /* \"#utility.yul\":1401:1407   */\n      dup2\n        /* \"#utility.yul\":1388:1408   */\n      calldataload\n        /* \"#utility.yul\":1426:1505   */\n      tag_181\n        /* \"#utility.yul\":1501:1504   */\n      dup5\n        /* \"#utility.yul\":1493:1499   */\n      dup3\n        /* \"#utility.yul\":1486:1490   */\n      0x20\n        /* \"#utility.yul\":1478:1484   */\n      dup7\n        /* \"#utility.yul\":1474:1491   */\n      add\n        /* \"#utility.yul\":1426:1505   */\n      tag_151\n      jump\t// in\n    tag_181:\n        /* \"#utility.yul\":1417:1505   */\n      swap2\n      pop\n        /* \"#utility.yul\":1233:1511   */\n      pop\n        /* \"#utility.yul\":1171:1511   */\n      swap3\n      swap2\n      pop\n      pop\n      jump\t// out\n        /* \"#utility.yul\":1517:1656   */\n    tag_182:\n        /* \"#utility.yul\":1563:1568   */\n      0x00\n        /* \"#utility.yul\":1601:1607   */\n      dup2\n        /* \"#utility.yul\":1588:1608   */\n      calldataload\n        /* \"#utility.yul\":1579:1608   */\n      swap1\n      pop\n        /* \"#utility.yul\":1617:1650   */\n      tag_184\n        /* \"#utility.yul\":1644:1649   */\n      dup2\n        /* \"#utility.yul\":1617:1650   */\n      tag_185\n      jump\t// in\n    tag_184:\n        /* \"#utility.yul\":1517:1656   */\n      swap3\n      swap2\n      pop\n      pop\n      jump\t// out\n        /* \"#utility.yul\":1662:3027   */\n    tag_22:\n        /* \"#utility.yul\":1784:1790   */\n      0x00\n        /* \"#utility.yul\":1792:1798   */\n      dup1\n        /* \"#utility.yul\":1800:1806   */\n      0x00\n        /* \"#utility.yul\":1808:1814   */\n      dup1\n        /* \"#utility.yul\":1816:1822   */\n      0x00\n        /* \"#utility.yul\":1824:1830   */\n      dup1\n        /* \"#utility.yul\":1832:1838   */\n      0x00\n        /* \"#utility.yul\":1881:1884   */\n      0x80\n        /* \"#utility.yul\":1869:1878   */\n      dup9\n        /* \"#utility.yul\":1860:1867   */\n      dup11\n        /* \"#utility.yul\":1856:1879   */\n      sub\n        /* \"#utility.yul\":1852:1885   */\n      slt\n        /* \"#utility.yul\":1849:1969   */\n      iszero\n      tag_187\n      jumpi\n        /* \"#utility.yul\":1888:1967   */\n      tag_188\n      tag_189\n      jump\t// in\n    tag_188:\n        /* \"#utility.yul\":1849:1969   */\n    tag_187:\n        /* \"#utility.yul\":2036:2037   */\n      0x00\n        /* \"#utility.yul\":2025:2034   */\n      dup9\n        /* \"#utility.yul\":2021:2038   */\n      add\n        /* \"#utility.yul\":2008:2039   */\n      calldataload\n        /* \"#utility.yul\":2066:2084   */\n      0xffffffffffffffff\n        /* \"#utility.yul\":2058:2064   */\n      dup2\n        /* \"#utility.yul\":2055:2085   */\n      gt\n        /* \"#utility.yul\":2052:2169   */\n      iszero\n      tag_190\n      jumpi\n        /* \"#utility.yul\":2088:2167   */\n      tag_191\n      tag_192\n      jump\t// in\n    tag_191:\n        /* \"#utility.yul\":2052:2169   */\n    tag_190:\n        /* \"#utility.yul\":2201:2266   */\n      tag_193\n        /* \"#utility.yul\":2258:2265   */\n      dup11\n        /* \"#utility.yul\":2249:2255   */\n      dup3\n        /* \"#utility.yul\":2238:2247   */\n      dup12\n        /* \"#utility.yul\":2234:2256   */\n      add\n        /* \"#utility.yul\":2201:2266   */\n      tag_166\n      jump\t// in\n    tag_193:\n        /* \"#utility.yul\":2183:2266   */\n      swap8\n      pop\n      swap8\n      pop\n        /* \"#utility.yul\":1979:2276   */\n      pop\n        /* \"#utility.yul\":2343:2345   */\n      0x20\n        /* \"#utility.yul\":2332:2341   */\n      dup9\n        /* \"#utility.yul\":2328:2346   */\n      add\n        /* \"#utility.yul\":2315:2347   */\n      calldataload\n        /* \"#utility.yul\":2374:2392   */\n      0xffffffffffffffff\n        /* \"#utility.yul\":2366:2372   */\n      dup2\n        /* \"#utility.yul\":2363:2393   */\n      gt\n        /* \"#utility.yul\":2360:2477   */\n      iszero\n      tag_194\n      jumpi\n        /* \"#utility.yul\":2396:2475   */\n      tag_195\n      tag_192\n      jump\t// in\n    tag_195:\n        /* \"#utility.yul\":2360:2477   */\n    tag_194:\n        /* \"#utility.yul\":2509:2574   */\n      tag_196\n        /* \"#utility.yul\":2566:2573   */\n      dup11\n        /* \"#utility.yul\":2557:2563   */\n      dup3\n        /* \"#utility.yul\":2546:2555   */\n      dup12\n        /* \"#utility.yul\":2542:2564   */\n      add\n        /* \"#utility.yul\":2509:2574   */\n      tag_166\n      jump\t// in\n    tag_196:\n        /* \"#utility.yul\":2491:2574   */\n      swap6\n      pop\n      swap6\n      pop\n        /* \"#utility.yul\":2286:2584   */\n      pop\n        /* \"#utility.yul\":2651:2653   */\n      0x40\n        /* \"#utility.yul\":2640:2649   */\n      dup9\n        /* \"#utility.yul\":2636:2654   */\n      add\n        /* \"#utility.yul\":2623:2655   */\n      calldataload\n        /* \"#utility.yul\":2682:2700   */\n      0xffffffffffffffff\n        /* \"#utility.yul\":2674:2680   */\n      dup2\n        /* \"#utility.yul\":2671:2701   */\n      gt\n        /* \"#utility.yul\":2668:2785   */\n      iszero\n      tag_197\n      jumpi\n        /* \"#utility.yul\":2704:2783   */\n      tag_198\n      tag_192\n      jump\t// in\n    tag_198:\n        /* \"#utility.yul\":2668:2785   */\n    tag_197:\n        /* \"#utility.yul\":2817:2882   */\n      tag_199\n        /* \"#utility.yul\":2874:2881   */\n      dup11\n        /* \"#utility.yul\":2865:2871   */\n      dup3\n        /* \"#utility.yul\":2854:2863   */\n      dup12\n        /* \"#utility.yul\":2850:2872   */\n      add\n        /* \"#utility.yul\":2817:2882   */\n      tag_166\n      jump\t// in\n    tag_199:\n        /* \"#utility.yul\":2799:2882   */\n      swap4\n      pop\n      swap4\n      pop\n        /* \"#utility.yul\":2594:2892   */\n      pop\n        /* \"#utility.yul\":2931:2933   */\n      0x60\n        /* \"#utility.yul\":2957:3010   */\n      tag_200\n        /* \"#utility.yul\":3002:3009   */\n      dup11\n        /* \"#utility.yul\":2993:2999   */\n      dup3\n        /* \"#utility.yul\":2982:2991   */\n      dup12\n        /* \"#utility.yul\":2978:3000   */\n      add\n        /* \"#utility.yul\":2957:3010   */\n      tag_182\n      jump\t// in\n    tag_200:\n        /* \"#utility.yul\":2947:3010   */\n      swap2\n      pop\n        /* \"#utility.yul\":2902:3020   */\n      pop\n        /* \"#utility.yul\":1662:3027   */\n      swap3\n      swap6\n      swap9\n      swap2\n      swap5\n      swap8\n      pop\n      swap3\n      swap6\n      pop\n      jump\t// out\n        /* \"#utility.yul\":3033:3687   */\n    tag_30:\n        /* \"#utility.yul\":3111:3117   */\n      0x00\n        /* \"#utility.yul\":3119:3125   */\n      dup1\n        /* \"#utility.yul\":3168:3170   */\n      0x40\n        /* \"#utility.yul\":3156:3165   */\n      dup4\n        /* \"#utility.yul\":3147:3154   */\n      dup6\n        /* \"#utility.yul\":3143:3166   */\n      sub\n        /* \"#utility.yul\":3139:3171   */\n      slt\n        /* \"#utility.yul\":3136:3255   */\n      iszero\n      tag_202\n      jumpi\n        /* \"#utility.yul\":3174:3253   */\n      tag_203\n      tag_189\n      jump\t// in\n    tag_203:\n        /* \"#utility.yul\":3136:3255   */\n    tag_202:\n        /* \"#utility.yul\":3322:3323   */\n      0x00\n        /* \"#utility.yul\":3311:3320   */\n      dup4\n        /* \"#utility.yul\":3307:3324   */\n      add\n        /* \"#utility.yul\":3294:3325   */\n      calldataload\n        /* \"#utility.yul\":3352:3370   */\n      0xffffffffffffffff\n        /* \"#utility.yul\":3344:3350   */\n      dup2\n        /* \"#utility.yul\":3341:3371   */\n      gt\n        /* \"#utility.yul\":3338:3455   */\n      iszero\n      tag_204\n      jumpi\n        /* \"#utility.yul\":3374:3453   */\n      tag_205\n      tag_192\n      jump\t// in\n    tag_205:\n        /* \"#utility.yul\":3338:3455   */\n    tag_204:\n        /* \"#utility.yul\":3479:3542   */\n      tag_206\n        /* \"#utility.yul\":3534:3541   */\n      dup6\n        /* \"#utility.yul\":3525:3531   */\n      dup3\n        /* \"#utility.yul\":3514:3523   */\n      dup7\n        /* \"#utility.yul\":3510:3532   */\n      add\n        /* \"#utility.yul\":3479:3542   */\n      tag_177\n      jump\t// in\n    tag_206:\n        /* \"#utility.yul\":3469:3542   */\n      swap3\n      pop\n        /* \"#utility.yul\":3265:3552   */\n      pop\n        /* \"#utility.yul\":3591:3593   */\n      0x20\n        /* \"#utility.yul\":3617:3670   */\n      tag_207\n        /* \"#utility.yul\":3662:3669   */\n      dup6\n        /* \"#utility.yul\":3653:3659   */\n      dup3\n        /* \"#utility.yul\":3642:3651   */\n      dup7\n        /* \"#utility.yul\":3638:3660   */\n      add\n        /* \"#utility.yul\":3617:3670   */\n      tag_182\n      jump\t// in\n    tag_207:\n        /* \"#utility.yul\":3607:3670   */\n      swap2\n      pop\n        /* \"#utility.yul\":3562:3680   */\n      pop\n        /* \"#utility.yul\":3033:3687   */\n      swap3\n      pop\n      swap3\n      swap1\n      pop\n      jump\t// out\n        /* \"#utility.yul\":3693:4022   */\n    tag_10:\n        /* \"#utility.yul\":3752:3758   */\n      0x00\n        /* \"#utility.yul\":3801:3803   */\n      0x20\n        /* \"#utility.yul\":3789:3798   */\n      dup3\n        /* \"#utility.yul\":3780:3787   */\n      dup5\n        /* \"#utility.yul\":3776:3799   */\n      sub\n        /* \"#utility.yul\":3772:3804   */\n      slt\n        /* \"#utility.yul\":3769:3888   */\n      iszero\n      tag_209\n      jumpi\n        /* \"#utility.yul\":3807:3886   */\n      tag_210\n      tag_189\n      jump\t// in\n    tag_210:\n        /* \"#utility.yul\":3769:3888   */\n    tag_209:\n        /* \"#utility.yul\":3927:3928   */\n      0x00\n        /* \"#utility.yul\":3952:4005   */\n      tag_211\n        /* \"#utility.yul\":3997:4004   */\n      dup5\n        /* \"#utility.yul\":3988:3994   */\n      dup3\n        /* \"#utility.yul\":3977:3986   */\n      dup6\n        /* \"#utility.yul\":3973:3995   */\n      add\n        /* \"#utility.yul\":3952:4005   */\n      tag_182\n      jump\t// in\n    tag_211:\n        /* \"#utility.yul\":3942:4005   */\n      swap2\n      pop\n        /* \"#utility.yul\":3898:4015   */\n      pop\n        /* \"#utility.yul\":3693:4022   */\n      swap3\n      swap2\n      pop\n      pop\n      jump\t// out\n        /* \"#utility.yul\":4028:4516   */\n    tag_17:\n        /* \"#utility.yul\":4103:4109   */\n      0x00\n        /* \"#utility.yul\":4111:4117   */\n      dup1\n        /* \"#utility.yul\":4160:4162   */\n      0x40\n        /* \"#utility.yul\":4148:4157   */\n      dup4\n        /* \"#utility.yul\":4139:4146   */\n      dup6\n        /* \"#utility.yul\":4135:4158   */\n      sub\n        /* \"#utility.yul\":4131:4163   */\n      slt\n        /* \"#utility.yul\":4128:4247   */\n      iszero\n      tag_213\n      jumpi\n        /* \"#utility.yul\":4166:4245   */\n      tag_214\n      tag_189\n      jump\t// in\n    tag_214:\n        /* \"#utility.yul\":4128:4247   */\n    tag_213:\n        /* \"#utility.yul\":4286:4287   */\n      0x00\n        /* \"#utility.yul\":4311:4364   */\n      tag_215\n        /* \"#utility.yul\":4356:4363   */\n      dup6\n        /* \"#utility.yul\":4347:4353   */\n      dup3\n        /* \"#utility.yul\":4336:4345   */\n      dup7\n        /* \"#utility.yul\":4332:4354   */\n      add\n        /* \"#utility.yul\":4311:4364   */\n      tag_182\n      jump\t// in\n    tag_215:\n        /* \"#utility.yul\":4301:4364   */\n      swap3\n      pop\n        /* \"#utility.yul\":4257:4374   */\n      pop\n        /* \"#utility.yul\":4413:4415   */\n      0x20\n        /* \"#utility.yul\":4439:4499   */\n      tag_216\n        /* \"#utility.yul\":4491:4498   */\n      dup6\n        /* \"#utility.yul\":4482:4488   */\n      dup3\n        /* \"#utility.yul\":4471:4480   */\n      dup7\n        /* \"#utility.yul\":4467:4489   */\n      add\n        /* \"#utility.yul\":4439:4499   */\n      tag_162\n      jump\t// in\n    tag_216:\n        /* \"#utility.yul\":4429:4499   */\n      swap2\n      pop\n        /* \"#utility.yul\":4384:4509   */\n      pop\n        /* \"#utility.yul\":4028:4516   */\n      swap3\n      pop\n      swap3\n      swap1\n      pop\n      jump\t// out\n        /* \"#utility.yul\":4522:4664   */\n    tag_217:\n        /* \"#utility.yul\":4625:4657   */\n      tag_219\n        /* \"#utility.yul\":4651:4656   */\n      dup2\n        /* \"#utility.yul\":4625:4657   */\n      tag_220\n      jump\t// in\n    tag_219:\n        /* \"#utility.yul\":4620:4623   */\n      dup3\n        /* \"#utility.yul\":4613:4658   */\n      mstore\n        /* \"#utility.yul\":4522:4664   */\n      pop\n      pop\n      jump\t// out\n        /* \"#utility.yul\":4670:4788   */\n    tag_221:\n        /* \"#utility.yul\":4757:4781   */\n      tag_223\n        /* \"#utility.yul\":4775:4780   */\n      dup2\n        /* \"#utility.yul\":4757:4781   */\n      tag_224\n      jump\t// in\n    tag_223:\n        /* \"#utility.yul\":4752:4755   */\n      dup3\n        /* \"#utility.yul\":4745:4782   */\n      mstore\n        /* \"#utility.yul\":4670:4788   */\n      pop\n      pop\n      jump\t// out\n        /* \"#utility.yul\":4794:4935   */\n    tag_225:\n        /* \"#utility.yul\":4886:4928   */\n      tag_227\n        /* \"#utility.yul\":4922:4927   */\n      dup2\n        /* \"#utility.yul\":4886:4928   */\n      tag_228\n      jump\t// in\n    tag_227:\n        /* \"#utility.yul\":4881:4884   */\n      dup3\n        /* \"#utility.yul\":4874:4929   */\n      mstore\n        /* \"#utility.yul\":4794:4935   */\n      pop\n      pop\n      jump\t// out\n        /* \"#utility.yul\":4965:5269   */\n    tag_229:\n        /* \"#utility.yul\":5063:5066   */\n      0x00\n        /* \"#utility.yul\":5084:5155   */\n      tag_231\n        /* \"#utility.yul\":5148:5154   */\n      dup4\n        /* \"#utility.yul\":5143:5146   */\n      dup6\n        /* \"#utility.yul\":5084:5155   */\n      tag_232\n      jump\t// in\n    tag_231:\n        /* \"#utility.yul\":5077:5155   */\n      swap4\n      pop\n        /* \"#utility.yul\":5165:5208   */\n      tag_233\n        /* \"#utility.yul\":5201:5207   */\n      dup4\n        /* \"#utility.yul\":5196:5199   */\n      dup6\n        /* \"#utility.yul\":5189:5194   */\n      dup5\n        /* \"#utility.yul\":5165:5208   */\n      tag_161\n      jump\t// in\n    tag_233:\n        /* \"#utility.yul\":5233:5262   */\n      tag_234\n        /* \"#utility.yul\":5255:5261   */\n      dup4\n        /* \"#utility.yul\":5233:5262   */\n      tag_235\n      jump\t// in\n    tag_234:\n        /* \"#utility.yul\":5228:5231   */\n      dup5\n        /* \"#utility.yul\":5224:5263   */\n      add\n        /* \"#utility.yul\":5217:5263   */\n      swap1\n      pop\n        /* \"#utility.yul\":4965:5269   */\n      swap4\n      swap3\n      pop\n      pop\n      pop\n      jump\t// out\n        /* \"#utility.yul\":5275:5639   */\n    tag_236:\n        /* \"#utility.yul\":5363:5366   */\n      0x00\n        /* \"#utility.yul\":5391:5430   */\n      tag_238\n        /* \"#utility.yul\":5424:5429   */\n      dup3\n        /* \"#utility.yul\":5391:5430   */\n      tag_239\n      jump\t// in\n    tag_238:\n        /* \"#utility.yul\":5446:5517   */\n      tag_240\n        /* \"#utility.yul\":5510:5516   */\n      dup2\n        /* \"#utility.yul\":5505:5508   */\n      dup6\n        /* \"#utility.yul\":5446:5517   */\n      tag_232\n      jump\t// in\n    tag_240:\n        /* \"#utility.yul\":5439:5517   */\n      swap4\n      pop\n        /* \"#utility.yul\":5526:5578   */\n      tag_241\n        /* \"#utility.yul\":5571:5577   */\n      dup2\n        /* \"#utility.yul\":5566:5569   */\n      dup6\n        /* \"#utility.yul\":5559:5563   */\n      0x20\n        /* \"#utility.yul\":5552:5557   */\n      dup7\n        /* \"#utility.yul\":5548:5564   */\n      add\n        /* \"#utility.yul\":5526:5578   */\n      tag_242\n      jump\t// in\n    tag_241:\n        /* \"#utility.yul\":5603:5632   */\n      tag_243\n        /* \"#utility.yul\":5625:5631   */\n      dup2\n        /* \"#utility.yul\":5603:5632   */\n      tag_235\n      jump\t// in\n    tag_243:\n        /* \"#utility.yul\":5598:5601   */\n      dup5\n        /* \"#utility.yul\":5594:5633   */\n      add\n        /* \"#utility.yul\":5587:5633   */\n      swap2\n      pop\n        /* \"#utility.yul\":5367:5639   */\n      pop\n        /* \"#utility.yul\":5275:5639   */\n      swap3\n      swap2\n      pop\n      pop\n      jump\t// out\n        /* \"#utility.yul\":5669:6471   */\n    tag_244:\n        /* \"#utility.yul\":5754:5757   */\n      0x00\n        /* \"#utility.yul\":5791:5796   */\n      dup2\n        /* \"#utility.yul\":5785:5797   */\n      sload\n        /* \"#utility.yul\":5820:5856   */\n      tag_246\n        /* \"#utility.yul\":5846:5855   */\n      dup2\n        /* \"#utility.yul\":5820:5856   */\n      tag_37\n      jump\t// in\n    tag_246:\n        /* \"#utility.yul\":5872:5943   */\n      tag_247\n        /* \"#utility.yul\":5936:5942   */\n      dup2\n        /* \"#utility.yul\":5931:5934   */\n      dup7\n        /* \"#utility.yul\":5872:5943   */\n      tag_232\n      jump\t// in\n    tag_247:\n        /* \"#utility.yul\":5865:5943   */\n      swap5\n      pop\n        /* \"#utility.yul\":5974:5975   */\n      0x01\n        /* \"#utility.yul\":5963:5972   */\n      dup3\n        /* \"#utility.yul\":5959:5976   */\n      and\n        /* \"#utility.yul\":5990:5991   */\n      0x00\n        /* \"#utility.yul\":5985:6120   */\n      dup2\n      eq\n      tag_249\n      jumpi\n        /* \"#utility.yul\":6134:6135   */\n      0x01\n        /* \"#utility.yul\":6129:6465   */\n      dup2\n      eq\n      tag_250\n      jumpi\n        /* \"#utility.yul\":5952:6465   */\n      jump(tag_248)\n        /* \"#utility.yul\":5985:6120   */\n    tag_249:\n        /* \"#utility.yul\":6069:6073   */\n      0xff\n        /* \"#utility.yul\":6065:6074   */\n      not\n        /* \"#utility.yul\":6054:6063   */\n      dup4\n        /* \"#utility.yul\":6050:6075   */\n      and\n        /* \"#utility.yul\":6045:6048   */\n      dup7\n        /* \"#utility.yul\":6038:6076   */\n      mstore\n        /* \"#utility.yul\":6105:6109   */\n      0x20\n        /* \"#utility.yul\":6100:6103   */\n      dup7\n        /* \"#utility.yul\":6096:6110   */\n      add\n        /* \"#utility.yul\":6089:6110   */\n      swap4\n      pop\n        /* \"#utility.yul\":5985:6120   */\n      jump(tag_248)\n        /* \"#utility.yul\":6129:6465   */\n    tag_250:\n        /* \"#utility.yul\":6196:6234   */\n      tag_251\n        /* \"#utility.yul\":6228:6233   */\n      dup6\n        /* \"#utility.yul\":6196:6234   */\n      tag_252\n      jump\t// in\n    tag_251:\n        /* \"#utility.yul\":6256:6257   */\n      0x00\n        /* \"#utility.yul\":6270:6424   */\n    tag_253:\n        /* \"#utility.yul\":6284:6290   */\n      dup4\n        /* \"#utility.yul\":6281:6282   */\n      dup2\n        /* \"#utility.yul\":6278:6291   */\n      lt\n        /* \"#utility.yul\":6270:6424   */\n      iszero\n      tag_255\n      jumpi\n        /* \"#utility.yul\":6358:6365   */\n      dup2\n        /* \"#utility.yul\":6352:6366   */\n      sload\n        /* \"#utility.yul\":6348:6349   */\n      dup2\n        /* \"#utility.yul\":6343:6346   */\n      dup10\n        /* \"#utility.yul\":6339:6350   */\n      add\n        /* \"#utility.yul\":6332:6367   */\n      mstore\n        /* \"#utility.yul\":6408:6409   */\n      0x01\n        /* \"#utility.yul\":6399:6406   */\n      dup3\n        /* \"#utility.yul\":6395:6410   */\n      add\n        /* \"#utility.yul\":6384:6410   */\n      swap2\n      pop\n        /* \"#utility.yul\":6306:6310   */\n      0x20\n        /* \"#utility.yul\":6303:6304   */\n      dup2\n        /* \"#utility.yul\":6299:6311   */\n      add\n        /* \"#utility.yul\":6294:6311   */\n      swap1\n      pop\n        /* \"#utility.yul\":6270:6424   */\n      jump(tag_253)\n    tag_255:\n        /* \"#utility.yul\":6453:6454   */\n      dup1\n        /* \"#utility.yul\":6448:6451   */\n      dup9\n        /* \"#utility.yul\":6444:6455   */\n      add\n        /* \"#utility.yul\":6437:6455   */\n      swap6\n      pop\n        /* \"#utility.yul\":6136:6465   */\n      pop\n      pop\n        /* \"#utility.yul\":5952:6465   */\n    tag_248:\n      pop\n        /* \"#utility.yul\":5758:6471   */\n      pop\n      pop\n        /* \"#utility.yul\":5669:6471   */\n      swap3\n      swap2\n      pop\n      pop\n      jump\t// out\n        /* \"#utility.yul\":6501:7346   */\n    tag_256:\n        /* \"#utility.yul\":6604:6607   */\n      0x00\n        /* \"#utility.yul\":6641:6646   */\n      dup2\n        /* \"#utility.yul\":6635:6647   */\n      sload\n        /* \"#utility.yul\":6670:6706   */\n      tag_258\n        /* \"#utility.yul\":6696:6705   */\n      dup2\n        /* \"#utility.yul\":6670:6706   */\n      tag_37\n      jump\t// in\n    tag_258:\n        /* \"#utility.yul\":6722:6811   */\n      tag_259\n        /* \"#utility.yul\":6804:6810   */\n      dup2\n        /* \"#utility.yul\":6799:6802   */\n      dup7\n        /* \"#utility.yul\":6722:6811   */\n      tag_260\n      jump\t// in\n    tag_259:\n        /* \"#utility.yul\":6715:6811   */\n      swap5\n      pop\n        /* \"#utility.yul\":6842:6843   */\n      0x01\n        /* \"#utility.yul\":6831:6840   */\n      dup3\n        /* \"#utility.yul\":6827:6844   */\n      and\n        /* \"#utility.yul\":6858:6859   */\n      0x00\n        /* \"#utility.yul\":6853:6990   */\n      dup2\n      eq\n      tag_262\n      jumpi\n        /* \"#utility.yul\":7004:7005   */\n      0x01\n        /* \"#utility.yul\":6999:7340   */\n      dup2\n      eq\n      tag_263\n      jumpi\n        /* \"#utility.yul\":6820:7340   */\n      jump(tag_261)\n        /* \"#utility.yul\":6853:6990   */\n    tag_262:\n        /* \"#utility.yul\":6937:6941   */\n      0xff\n        /* \"#utility.yul\":6933:6942   */\n      not\n        /* \"#utility.yul\":6922:6931   */\n      dup4\n        /* \"#utility.yul\":6918:6943   */\n      and\n        /* \"#utility.yul\":6913:6916   */\n      dup7\n        /* \"#utility.yul\":6906:6944   */\n      mstore\n        /* \"#utility.yul\":6973:6979   */\n      dup2\n        /* \"#utility.yul\":6968:6971   */\n      dup7\n        /* \"#utility.yul\":6964:6980   */\n      add\n        /* \"#utility.yul\":6957:6980   */\n      swap4\n      pop\n        /* \"#utility.yul\":6853:6990   */\n      jump(tag_261)\n        /* \"#utility.yul\":6999:7340   */\n    tag_263:\n        /* \"#utility.yul\":7066:7104   */\n      tag_264\n        /* \"#utility.yul\":7098:7103   */\n      dup6\n        /* \"#utility.yul\":7066:7104   */\n      tag_252\n      jump\t// in\n    tag_264:\n        /* \"#utility.yul\":7126:7127   */\n      0x00\n        /* \"#utility.yul\":7140:7294   */\n    tag_265:\n        /* \"#utility.yul\":7154:7160   */\n      dup4\n        /* \"#utility.yul\":7151:7152   */\n      dup2\n        /* \"#utility.yul\":7148:7161   */\n      lt\n        /* \"#utility.yul\":7140:7294   */\n      iszero\n      tag_267\n      jumpi\n        /* \"#utility.yul\":7228:7235   */\n      dup2\n        /* \"#utility.yul\":7222:7236   */\n      sload\n        /* \"#utility.yul\":7218:7219   */\n      dup2\n        /* \"#utility.yul\":7213:7216   */\n      dup10\n        /* \"#utility.yul\":7209:7220   */\n      add\n        /* \"#utility.yul\":7202:7237   */\n      mstore\n        /* \"#utility.yul\":7278:7279   */\n      0x01\n        /* \"#utility.yul\":7269:7276   */\n      dup3\n        /* \"#utility.yul\":7265:7280   */\n      add\n        /* \"#utility.yul\":7254:7280   */\n      swap2\n      pop\n        /* \"#utility.yul\":7176:7180   */\n      0x20\n        /* \"#utility.yul\":7173:7174   */\n      dup2\n        /* \"#utility.yul\":7169:7181   */\n      add\n        /* \"#utility.yul\":7164:7181   */\n      swap1\n      pop\n        /* \"#utility.yul\":7140:7294   */\n      jump(tag_265)\n    tag_267:\n        /* \"#utility.yul\":7323:7329   */\n      dup4\n        /* \"#utility.yul\":7318:7321   */\n      dup9\n        /* \"#utility.yul\":7314:7330   */\n      add\n        /* \"#utility.yul\":7307:7330   */\n      swap6\n      pop\n        /* \"#utility.yul\":7006:7340   */\n      pop\n      pop\n        /* \"#utility.yul\":6820:7340   */\n    tag_261:\n      pop\n        /* \"#utility.yul\":6608:7346   */\n      pop\n      pop\n        /* \"#utility.yul\":6501:7346   */\n      swap3\n      swap2\n      pop\n      pop\n      jump\t// out\n        /* \"#utility.yul\":7352:7718   */\n    tag_268:\n        /* \"#utility.yul\":7494:7497   */\n      0x00\n        /* \"#utility.yul\":7515:7582   */\n      tag_270\n        /* \"#utility.yul\":7579:7581   */\n      0x22\n        /* \"#utility.yul\":7574:7577   */\n      dup4\n        /* \"#utility.yul\":7515:7582   */\n      tag_232\n      jump\t// in\n    tag_270:\n        /* \"#utility.yul\":7508:7582   */\n      swap2\n      pop\n        /* \"#utility.yul\":7591:7684   */\n      tag_271\n        /* \"#utility.yul\":7680:7683   */\n      dup3\n        /* \"#utility.yul\":7591:7684   */\n      tag_272\n      jump\t// in\n    tag_271:\n        /* \"#utility.yul\":7709:7711   */\n      0x40\n        /* \"#utility.yul\":7704:7707   */\n      dup3\n        /* \"#utility.yul\":7700:7712   */\n      add\n        /* \"#utility.yul\":7693:7712   */\n      swap1\n      pop\n        /* \"#utility.yul\":7352:7718   */\n      swap2\n      swap1\n      pop\n      jump\t// out\n        /* \"#utility.yul\":7724:8090   */\n    tag_273:\n        /* \"#utility.yul\":7866:7869   */\n      0x00\n        /* \"#utility.yul\":7887:7954   */\n      tag_275\n        /* \"#utility.yul\":7951:7953   */\n      0x1b\n        /* \"#utility.yul\":7946:7949   */\n      dup4\n        /* \"#utility.yul\":7887:7954   */\n      tag_232\n      jump\t// in\n    tag_275:\n        /* \"#utility.yul\":7880:7954   */\n      swap2\n      pop\n        /* \"#utility.yul\":7963:8056   */\n      tag_276\n        /* \"#utility.yul\":8052:8055   */\n      dup3\n        /* \"#utility.yul\":7963:8056   */\n      tag_277\n      jump\t// in\n    tag_276:\n        /* \"#utility.yul\":8081:8083   */\n      0x20\n        /* \"#utility.yul\":8076:8079   */\n      dup3\n        /* \"#utility.yul\":8072:8084   */\n      add\n        /* \"#utility.yul\":8065:8084   */\n      swap1\n      pop\n        /* \"#utility.yul\":7724:8090   */\n      swap2\n      swap1\n      pop\n      jump\t// out\n        /* \"#utility.yul\":8096:8462   */\n    tag_278:\n        /* \"#utility.yul\":8238:8241   */\n      0x00\n        /* \"#utility.yul\":8259:8326   */\n      tag_280\n        /* \"#utility.yul\":8323:8325   */\n      0x24\n        /* \"#utility.yul\":8318:8321   */\n      dup4\n        /* \"#utility.yul\":8259:8326   */\n      tag_232\n      jump\t// in\n    tag_280:\n        /* \"#utility.yul\":8252:8326   */\n      swap2\n      pop\n        /* \"#utility.yul\":8335:8428   */\n      tag_281\n        /* \"#utility.yul\":8424:8427   */\n      dup3\n        /* \"#utility.yul\":8335:8428   */\n      tag_282\n      jump\t// in\n    tag_281:\n        /* \"#utility.yul\":8453:8455   */\n      0x40\n        /* \"#utility.yul\":8448:8451   */\n      dup3\n        /* \"#utility.yul\":8444:8456   */\n      add\n        /* \"#utility.yul\":8437:8456   */\n      swap1\n      pop\n        /* \"#utility.yul\":8096:8462   */\n      swap2\n      swap1\n      pop\n      jump\t// out\n        /* \"#utility.yul\":8468:8834   */\n    tag_283:\n        /* \"#utility.yul\":8610:8613   */\n      0x00\n        /* \"#utility.yul\":8631:8698   */\n      tag_285\n        /* \"#utility.yul\":8695:8697   */\n      0x2f\n        /* \"#utility.yul\":8690:8693   */\n      dup4\n        /* \"#utility.yul\":8631:8698   */\n      tag_232\n      jump\t// in\n    tag_285:\n        /* \"#utility.yul\":8624:8698   */\n      swap2\n      pop\n        /* \"#utility.yul\":8707:8800   */\n      tag_286\n        /* \"#utility.yul\":8796:8799   */\n      dup3\n        /* \"#utility.yul\":8707:8800   */\n      tag_287\n      jump\t// in\n    tag_286:\n        /* \"#utility.yul\":8825:8827   */\n      0x40\n        /* \"#utility.yul\":8820:8823   */\n      dup3\n        /* \"#utility.yul\":8816:8828   */\n      add\n        /* \"#utility.yul\":8809:8828   */\n      swap1\n      pop\n        /* \"#utility.yul\":8468:8834   */\n      swap2\n      swap1\n      pop\n      jump\t// out\n        /* \"#utility.yul\":8840:9206   */\n    tag_288:\n        /* \"#utility.yul\":8982:8985   */\n      0x00\n        /* \"#utility.yul\":9003:9070   */\n      tag_290\n        /* \"#utility.yul\":9067:9069   */\n      0x22\n        /* \"#utility.yul\":9062:9065   */\n      dup4\n        /* \"#utility.yul\":9003:9070   */\n      tag_232\n      jump\t// in\n    tag_290:\n        /* \"#utility.yul\":8996:9070   */\n      swap2\n      pop\n        /* \"#utility.yul\":9079:9172   */\n      tag_291\n        /* \"#utility.yul\":9168:9171   */\n      dup3\n        /* \"#utility.yul\":9079:9172   */\n      tag_292\n      jump\t// in\n    tag_291:\n        /* \"#utility.yul\":9197:9199   */\n      0x40\n        /* \"#utility.yul\":9192:9195   */\n      dup3\n        /* \"#utility.yul\":9188:9200   */\n      add\n        /* \"#utility.yul\":9181:9200   */\n      swap1\n      pop\n        /* \"#utility.yul\":8840:9206   */\n      swap2\n      swap1\n      pop\n      jump\t// out\n        /* \"#utility.yul\":9212:9330   */\n    tag_293:\n        /* \"#utility.yul\":9299:9323   */\n      tag_295\n        /* \"#utility.yul\":9317:9322   */\n      dup2\n        /* \"#utility.yul\":9299:9323   */\n      tag_296\n      jump\t// in\n    tag_295:\n        /* \"#utility.yul\":9294:9297   */\n      dup3\n        /* \"#utility.yul\":9287:9324   */\n      mstore\n        /* \"#utility.yul\":9212:9330   */\n      pop\n      pop\n      jump\t// out\n        /* \"#utility.yul\":9336:9605   */\n    tag_131:\n        /* \"#utility.yul\":9465:9468   */\n      0x00\n        /* \"#utility.yul\":9487:9579   */\n      tag_298\n        /* \"#utility.yul\":9575:9578   */\n      dup3\n        /* \"#utility.yul\":9566:9572   */\n      dup5\n        /* \"#utility.yul\":9487:9579   */\n      tag_256\n      jump\t// in\n    tag_298:\n        /* \"#utility.yul\":9480:9579   */\n      swap2\n      pop\n        /* \"#utility.yul\":9596:9599   */\n      dup2\n        /* \"#utility.yul\":9589:9599   */\n      swap1\n      pop\n        /* \"#utility.yul\":9336:9605   */\n      swap3\n      swap2\n      pop\n      pop\n      jump\t// out\n        /* \"#utility.yul\":9611:9943   */\n    tag_33:\n        /* \"#utility.yul\":9732:9736   */\n      0x00\n        /* \"#utility.yul\":9770:9772   */\n      0x40\n        /* \"#utility.yul\":9759:9768   */\n      dup3\n        /* \"#utility.yul\":9755:9773   */\n      add\n        /* \"#utility.yul\":9747:9773   */\n      swap1\n      pop\n        /* \"#utility.yul\":9783:9854   */\n      tag_300\n        /* \"#utility.yul\":9851:9852   */\n      0x00\n        /* \"#utility.yul\":9840:9849   */\n      dup4\n        /* \"#utility.yul\":9836:9853   */\n      add\n        /* \"#utility.yul\":9827:9833   */\n      dup6\n        /* \"#utility.yul\":9783:9854   */\n      tag_221\n      jump\t// in\n    tag_300:\n        /* \"#utility.yul\":9864:9936   */\n      tag_301\n        /* \"#utility.yul\":9932:9934   */\n      0x20\n        /* \"#utility.yul\":9921:9930   */\n      dup4\n        /* \"#utility.yul\":9917:9935   */\n      add\n        /* \"#utility.yul\":9908:9914   */\n      dup5\n        /* \"#utility.yul\":9864:9936   */\n      tag_293\n      jump\t// in\n    tag_301:\n        /* \"#utility.yul\":9611:9943   */\n      swap4\n      swap3\n      pop\n      pop\n      pop\n      jump\t// out\n        /* \"#utility.yul\":9949:10835   */\n    tag_96:\n        /* \"#utility.yul\":10216:10220   */\n      0x00\n        /* \"#utility.yul\":10254:10257   */\n      0x80\n        /* \"#utility.yul\":10243:10252   */\n      dup3\n        /* \"#utility.yul\":10239:10258   */\n      add\n        /* \"#utility.yul\":10231:10258   */\n      swap1\n      pop\n        /* \"#utility.yul\":10304:10313   */\n      dup2\n        /* \"#utility.yul\":10298:10302   */\n      dup2\n        /* \"#utility.yul\":10294:10314   */\n      sub\n        /* \"#utility.yul\":10290:10291   */\n      0x00\n        /* \"#utility.yul\":10279:10288   */\n      dup4\n        /* \"#utility.yul\":10275:10292   */\n      add\n        /* \"#utility.yul\":10268:10315   */\n      mstore\n        /* \"#utility.yul\":10332:10420   */\n      tag_303\n        /* \"#utility.yul\":10415:10419   */\n      dup2\n        /* \"#utility.yul\":10406:10412   */\n      dup10\n        /* \"#utility.yul\":10398:10404   */\n      dup12\n        /* \"#utility.yul\":10332:10420   */\n      tag_229\n      jump\t// in\n    tag_303:\n        /* \"#utility.yul\":10324:10420   */\n      swap1\n      pop\n        /* \"#utility.yul\":10467:10476   */\n      dup2\n        /* \"#utility.yul\":10461:10465   */\n      dup2\n        /* \"#utility.yul\":10457:10477   */\n      sub\n        /* \"#utility.yul\":10452:10454   */\n      0x20\n        /* \"#utility.yul\":10441:10450   */\n      dup4\n        /* \"#utility.yul\":10437:10455   */\n      add\n        /* \"#utility.yul\":10430:10478   */\n      mstore\n        /* \"#utility.yul\":10495:10583   */\n      tag_304\n        /* \"#utility.yul\":10578:10582   */\n      dup2\n        /* \"#utility.yul\":10569:10575   */\n      dup8\n        /* \"#utility.yul\":10561:10567   */\n      dup10\n        /* \"#utility.yul\":10495:10583   */\n      tag_229\n      jump\t// in\n    tag_304:\n        /* \"#utility.yul\":10487:10583   */\n      swap1\n      pop\n        /* \"#utility.yul\":10630:10639   */\n      dup2\n        /* \"#utility.yul\":10624:10628   */\n      dup2\n        /* \"#utility.yul\":10620:10640   */\n      sub\n        /* \"#utility.yul\":10615:10617   */\n      0x40\n        /* \"#utility.yul\":10604:10613   */\n      dup4\n        /* \"#utility.yul\":10600:10618   */\n      add\n        /* \"#utility.yul\":10593:10641   */\n      mstore\n        /* \"#utility.yul\":10658:10746   */\n      tag_305\n        /* \"#utility.yul\":10741:10745   */\n      dup2\n        /* \"#utility.yul\":10732:10738   */\n      dup6\n        /* \"#utility.yul\":10724:10730   */\n      dup8\n        /* \"#utility.yul\":10658:10746   */\n      tag_229\n      jump\t// in\n    tag_305:\n        /* \"#utility.yul\":10650:10746   */\n      swap1\n      pop\n        /* \"#utility.yul\":10756:10828   */\n      tag_306\n        /* \"#utility.yul\":10824:10826   */\n      0x60\n        /* \"#utility.yul\":10813:10822   */\n      dup4\n        /* \"#utility.yul\":10809:10827   */\n      add\n        /* \"#utility.yul\":10800:10806   */\n      dup5\n        /* \"#utility.yul\":10756:10828   */\n      tag_293\n      jump\t// in\n    tag_306:\n        /* \"#utility.yul\":9949:10835   */\n      swap9\n      swap8\n      pop\n      pop\n      pop\n      pop\n      pop\n      pop\n      pop\n      pop\n      jump\t// out\n        /* \"#utility.yul\":10841:12042   */\n    tag_13:\n        /* \"#utility.yul\":11183:11187   */\n      0x00\n        /* \"#utility.yul\":11221:11224   */\n      0xe0\n        /* \"#utility.yul\":11210:11219   */\n      dup3\n        /* \"#utility.yul\":11206:11225   */\n      add\n        /* \"#utility.yul\":11198:11225   */\n      swap1\n      pop\n        /* \"#utility.yul\":11271:11280   */\n      dup2\n        /* \"#utility.yul\":11265:11269   */\n      dup2\n        /* \"#utility.yul\":11261:11281   */\n      sub\n        /* \"#utility.yul\":11257:11258   */\n      0x00\n        /* \"#utility.yul\":11246:11255   */\n      dup4\n        /* \"#utility.yul\":11242:11259   */\n      add\n        /* \"#utility.yul\":11235:11282   */\n      mstore\n        /* \"#utility.yul\":11299:11377   */\n      tag_308\n        /* \"#utility.yul\":11372:11376   */\n      dup2\n        /* \"#utility.yul\":11363:11369   */\n      dup11\n        /* \"#utility.yul\":11299:11377   */\n      tag_236\n      jump\t// in\n    tag_308:\n        /* \"#utility.yul\":11291:11377   */\n      swap1\n      pop\n        /* \"#utility.yul\":11424:11433   */\n      dup2\n        /* \"#utility.yul\":11418:11422   */\n      dup2\n        /* \"#utility.yul\":11414:11434   */\n      sub\n        /* \"#utility.yul\":11409:11411   */\n      0x20\n        /* \"#utility.yul\":11398:11407   */\n      dup4\n        /* \"#utility.yul\":11394:11412   */\n      add\n        /* \"#utility.yul\":11387:11435   */\n      mstore\n        /* \"#utility.yul\":11452:11530   */\n      tag_309\n        /* \"#utility.yul\":11525:11529   */\n      dup2\n        /* \"#utility.yul\":11516:11522   */\n      dup10\n        /* \"#utility.yul\":11452:11530   */\n      tag_236\n      jump\t// in\n    tag_309:\n        /* \"#utility.yul\":11444:11530   */\n      swap1\n      pop\n        /* \"#utility.yul\":11577:11586   */\n      dup2\n        /* \"#utility.yul\":11571:11575   */\n      dup2\n        /* \"#utility.yul\":11567:11587   */\n      sub\n        /* \"#utility.yul\":11562:11564   */\n      0x40\n        /* \"#utility.yul\":11551:11560   */\n      dup4\n        /* \"#utility.yul\":11547:11565   */\n      add\n        /* \"#utility.yul\":11540:11588   */\n      mstore\n        /* \"#utility.yul\":11605:11683   */\n      tag_310\n        /* \"#utility.yul\":11678:11682   */\n      dup2\n        /* \"#utility.yul\":11669:11675   */\n      dup9\n        /* \"#utility.yul\":11605:11683   */\n      tag_236\n      jump\t// in\n    tag_310:\n        /* \"#utility.yul\":11597:11683   */\n      swap1\n      pop\n        /* \"#utility.yul\":11693:11765   */\n      tag_311\n        /* \"#utility.yul\":11761:11763   */\n      0x60\n        /* \"#utility.yul\":11750:11759   */\n      dup4\n        /* \"#utility.yul\":11746:11764   */\n      add\n        /* \"#utility.yul\":11737:11743   */\n      dup8\n        /* \"#utility.yul\":11693:11765   */\n      tag_293\n      jump\t// in\n    tag_311:\n        /* \"#utility.yul\":11775:11864   */\n      tag_312\n        /* \"#utility.yul\":11859:11862   */\n      0x80\n        /* \"#utility.yul\":11848:11857   */\n      dup4\n        /* \"#utility.yul\":11844:11863   */\n      add\n        /* \"#utility.yul\":11835:11841   */\n      dup7\n        /* \"#utility.yul\":11775:11864   */\n      tag_217\n      jump\t// in\n    tag_312:\n        /* \"#utility.yul\":11874:11947   */\n      tag_313\n        /* \"#utility.yul\":11942:11945   */\n      0xa0\n        /* \"#utility.yul\":11931:11940   */\n      dup4\n        /* \"#utility.yul\":11927:11946   */\n      add\n        /* \"#utility.yul\":11918:11924   */\n      dup6\n        /* \"#utility.yul\":11874:11947   */\n      tag_293\n      jump\t// in\n    tag_313:\n        /* \"#utility.yul\":11957:12035   */\n      tag_314\n        /* \"#utility.yul\":12030:12033   */\n      0xc0\n        /* \"#utility.yul\":12019:12028   */\n      dup4\n        /* \"#utility.yul\":12015:12034   */\n      add\n        /* \"#utility.yul\":12006:12012   */\n      dup5\n        /* \"#utility.yul\":11957:12035   */\n      tag_225\n      jump\t// in\n    tag_314:\n        /* \"#utility.yul\":10841:12042   */\n      swap9\n      swap8\n      pop\n      pop\n      pop\n      pop\n      pop\n      pop\n      pop\n      pop\n      jump\t// out\n        /* \"#utility.yul\":12048:12475   */\n    tag_81:\n        /* \"#utility.yul\":12191:12195   */\n      0x00\n        /* \"#utility.yul\":12229:12231   */\n      0x40\n        /* \"#utility.yul\":12218:12227   */\n      dup3\n        /* \"#utility.yul\":12214:12232   */\n      add\n        /* \"#utility.yul\":12206:12232   */\n      swap1\n      pop\n        /* \"#utility.yul\":12278:12287   */\n      dup2\n        /* \"#utility.yul\":12272:12276   */\n      dup2\n        /* \"#utility.yul\":12268:12288   */\n      sub\n        /* \"#utility.yul\":12264:12265   */\n      0x00\n        /* \"#utility.yul\":12253:12262   */\n      dup4\n        /* \"#utility.yul\":12249:12266   */\n      add\n        /* \"#utility.yul\":12242:12289   */\n      mstore\n        /* \"#utility.yul\":12306:12381   */\n      tag_316\n        /* \"#utility.yul\":12376:12380   */\n      dup2\n        /* \"#utility.yul\":12367:12373   */\n      dup6\n        /* \"#utility.yul\":12306:12381   */\n      tag_244\n      jump\t// in\n    tag_316:\n        /* \"#utility.yul\":12298:12381   */\n      swap1\n      pop\n        /* \"#utility.yul\":12391:12468   */\n      tag_317\n        /* \"#utility.yul\":12464:12466   */\n      0x20\n        /* \"#utility.yul\":12453:12462   */\n      dup4\n        /* \"#utility.yul\":12449:12467   */\n      add\n        /* \"#utility.yul\":12440:12446   */\n      dup5\n        /* \"#utility.yul\":12391:12468   */\n      tag_225\n      jump\t// in\n    tag_317:\n        /* \"#utility.yul\":12048:12475   */\n      swap4\n      swap3\n      pop\n      pop\n      pop\n      jump\t// out\n        /* \"#utility.yul\":12481:12898   */\n    tag_137:\n        /* \"#utility.yul\":12619:12623   */\n      0x00\n        /* \"#utility.yul\":12657:12659   */\n      0x40\n        /* \"#utility.yul\":12646:12655   */\n      dup3\n        /* \"#utility.yul\":12642:12660   */\n      add\n        /* \"#utility.yul\":12634:12660   */\n      swap1\n      pop\n        /* \"#utility.yul\":12706:12715   */\n      dup2\n        /* \"#utility.yul\":12700:12704   */\n      dup2\n        /* \"#utility.yul\":12696:12716   */\n      sub\n        /* \"#utility.yul\":12692:12693   */\n      0x00\n        /* \"#utility.yul\":12681:12690   */\n      dup4\n        /* \"#utility.yul\":12677:12694   */\n      add\n        /* \"#utility.yul\":12670:12717   */\n      mstore\n        /* \"#utility.yul\":12734:12809   */\n      tag_319\n        /* \"#utility.yul\":12804:12808   */\n      dup2\n        /* \"#utility.yul\":12795:12801   */\n      dup6\n        /* \"#utility.yul\":12734:12809   */\n      tag_244\n      jump\t// in\n    tag_319:\n        /* \"#utility.yul\":12726:12809   */\n      swap1\n      pop\n        /* \"#utility.yul\":12819:12891   */\n      tag_320\n        /* \"#utility.yul\":12887:12889   */\n      0x20\n        /* \"#utility.yul\":12876:12885   */\n      dup4\n        /* \"#utility.yul\":12872:12890   */\n      add\n        /* \"#utility.yul\":12863:12869   */\n      dup5\n        /* \"#utility.yul\":12819:12891   */\n      tag_293\n      jump\t// in\n    tag_320:\n        /* \"#utility.yul\":12481:12898   */\n      swap4\n      swap3\n      pop\n      pop\n      pop\n      jump\t// out\n        /* \"#utility.yul\":12904:13323   */\n    tag_103:\n        /* \"#utility.yul\":13070:13074   */\n      0x00\n        /* \"#utility.yul\":13108:13110   */\n      0x20\n        /* \"#utility.yul\":13097:13106   */\n      dup3\n        /* \"#utility.yul\":13093:13111   */\n      add\n        /* \"#utility.yul\":13085:13111   */\n      swap1\n      pop\n        /* \"#utility.yul\":13157:13166   */\n      dup2\n        /* \"#utility.yul\":13151:13155   */\n      dup2\n        /* \"#utility.yul\":13147:13167   */\n      sub\n        /* \"#utility.yul\":13143:13144   */\n      0x00\n        /* \"#utility.yul\":13132:13141   */\n      dup4\n        /* \"#utility.yul\":13128:13145   */\n      add\n        /* \"#utility.yul\":13121:13168   */\n      mstore\n        /* \"#utility.yul\":13185:13316   */\n      tag_322\n        /* \"#utility.yul\":13311:13315   */\n      dup2\n        /* \"#utility.yul\":13185:13316   */\n      tag_268\n      jump\t// in\n    tag_322:\n        /* \"#utility.yul\":13177:13316   */\n      swap1\n      pop\n        /* \"#utility.yul\":12904:13323   */\n      swap2\n      swap1\n      pop\n      jump\t// out\n        /* \"#utility.yul\":13329:13748   */\n    tag_71:\n        /* \"#utility.yul\":13495:13499   */\n      0x00\n        /* \"#utility.yul\":13533:13535   */\n      0x20\n        /* \"#utility.yul\":13522:13531   */\n      dup3\n        /* \"#utility.yul\":13518:13536   */\n      add\n        /* \"#utility.yul\":13510:13536   */\n      swap1\n      pop\n        /* \"#utility.yul\":13582:13591   */\n      dup2\n        /* \"#utility.yul\":13576:13580   */\n      dup2\n        /* \"#utility.yul\":13572:13592   */\n      sub\n        /* \"#utility.yul\":13568:13569   */\n      0x00\n        /* \"#utility.yul\":13557:13566   */\n      dup4\n        /* \"#utility.yul\":13553:13570   */\n      add\n        /* \"#utility.yul\":13546:13593   */\n      mstore\n        /* \"#utility.yul\":13610:13741   */\n      tag_324\n        /* \"#utility.yul\":13736:13740   */\n      dup2\n        /* \"#utility.yul\":13610:13741   */\n      tag_273\n      jump\t// in\n    tag_324:\n        /* \"#utility.yul\":13602:13741   */\n      swap1\n      pop\n        /* \"#utility.yul\":13329:13748   */\n      swap2\n      swap1\n      pop\n      jump\t// out\n        /* \"#utility.yul\":13754:14173   */\n    tag_114:\n        /* \"#utility.yul\":13920:13924   */\n      0x00\n        /* \"#utility.yul\":13958:13960   */\n      0x20\n        /* \"#utility.yul\":13947:13956   */\n      dup3\n        /* \"#utility.yul\":13943:13961   */\n      add\n        /* \"#utility.yul\":13935:13961   */\n      swap1\n      pop\n        /* \"#utility.yul\":14007:14016   */\n      dup2\n        /* \"#utility.yul\":14001:14005   */\n      dup2\n        /* \"#utility.yul\":13997:14017   */\n      sub\n        /* \"#utility.yul\":13993:13994   */\n      0x00\n        /* \"#utility.yul\":13982:13991   */\n      dup4\n        /* \"#utility.yul\":13978:13995   */\n      add\n        /* \"#utility.yul\":13971:14018   */\n      mstore\n        /* \"#utility.yul\":14035:14166   */\n      tag_326\n        /* \"#utility.yul\":14161:14165   */\n      dup2\n        /* \"#utility.yul\":14035:14166   */\n      tag_278\n      jump\t// in\n    tag_326:\n        /* \"#utility.yul\":14027:14166   */\n      swap1\n      pop\n        /* \"#utility.yul\":13754:14173   */\n      swap2\n      swap1\n      pop\n      jump\t// out\n        /* \"#utility.yul\":14179:14598   */\n    tag_59:\n        /* \"#utility.yul\":14345:14349   */\n      0x00\n        /* \"#utility.yul\":14383:14385   */\n      0x20\n        /* \"#utility.yul\":14372:14381   */\n      dup3\n        /* \"#utility.yul\":14368:14386   */\n      add\n        /* \"#utility.yul\":14360:14386   */\n      swap1\n      pop\n        /* \"#utility.yul\":14432:14441   */\n      dup2\n        /* \"#utility.yul\":14426:14430   */\n      dup2\n        /* \"#utility.yul\":14422:14442   */\n      sub\n        /* \"#utility.yul\":14418:14419   */\n      0x00\n        /* \"#utility.yul\":14407:14416   */\n      dup4\n        /* \"#utility.yul\":14403:14420   */\n      add\n        /* \"#utility.yul\":14396:14443   */\n      mstore\n        /* \"#utility.yul\":14460:14591   */\n      tag_328\n        /* \"#utility.yul\":14586:14590   */\n      dup2\n        /* \"#utility.yul\":14460:14591   */\n      tag_283\n      jump\t// in\n    tag_328:\n        /* \"#utility.yul\":14452:14591   */\n      swap1\n      pop\n        /* \"#utility.yul\":14179:14598   */\n      swap2\n      swap1\n      pop\n      jump\t// out\n        /* \"#utility.yul\":14604:15023   */\n    tag_85:\n        /* \"#utility.yul\":14770:14774   */\n      0x00\n        /* \"#utility.yul\":14808:14810   */\n      0x20\n        /* \"#utility.yul\":14797:14806   */\n      dup3\n        /* \"#utility.yul\":14793:14811   */\n      add\n        /* \"#utility.yul\":14785:14811   */\n      swap1\n      pop\n        /* \"#utility.yul\":14857:14866   */\n      dup2\n        /* \"#utility.yul\":14851:14855   */\n      dup2\n        /* \"#utility.yul\":14847:14867   */\n      sub\n        /* \"#utility.yul\":14843:14844   */\n      0x00\n        /* \"#utility.yul\":14832:14841   */\n      dup4\n        /* \"#utility.yul\":14828:14845   */\n      add\n        /* \"#utility.yul\":14821:14868   */\n      mstore\n        /* \"#utility.yul\":14885:15016   */\n      tag_330\n        /* \"#utility.yul\":15011:15015   */\n      dup2\n        /* \"#utility.yul\":14885:15016   */\n      tag_288\n      jump\t// in\n    tag_330:\n        /* \"#utility.yul\":14877:15016   */\n      swap1\n      pop\n        /* \"#utility.yul\":14604:15023   */\n      swap2\n      swap1\n      pop\n      jump\t// out\n        /* \"#utility.yul\":15029:15158   */\n    tag_156:\n        /* \"#utility.yul\":15063:15069   */\n      0x00\n        /* \"#utility.yul\":15090:15110   */\n      tag_332\n      tag_333\n      jump\t// in\n    tag_332:\n        /* \"#utility.yul\":15080:15110   */\n      swap1\n      pop\n        /* \"#utility.yul\":15119:15152   */\n      tag_334\n        /* \"#utility.yul\":15147:15151   */\n      dup3\n        /* \"#utility.yul\":15139:15145   */\n      dup3\n        /* \"#utility.yul\":15119:15152   */\n      tag_335\n      jump\t// in\n    tag_334:\n        /* \"#utility.yul\":15029:15158   */\n      swap2\n      swap1\n      pop\n      jump\t// out\n        /* \"#utility.yul\":15164:15239   */\n    tag_333:\n        /* \"#utility.yul\":15197:15203   */\n      0x00\n        /* \"#utility.yul\":15230:15232   */\n      0x40\n        /* \"#utility.yul\":15224:15233   */\n      mload\n        /* \"#utility.yul\":15214:15233   */\n      swap1\n      pop\n        /* \"#utility.yul\":15164:15239   */\n      swap1\n      jump\t// out\n        /* \"#utility.yul\":15245:15553   */\n    tag_155:\n        /* \"#utility.yul\":15307:15311   */\n      0x00\n        /* \"#utility.yul\":15397:15415   */\n      0xffffffffffffffff\n        /* \"#utility.yul\":15389:15395   */\n      dup3\n        /* \"#utility.yul\":15386:15416   */\n      gt\n        /* \"#utility.yul\":15383:15439   */\n      iszero\n      tag_338\n      jumpi\n        /* \"#utility.yul\":15419:15437   */\n      tag_339\n      tag_340\n      jump\t// in\n    tag_339:\n        /* \"#utility.yul\":15383:15439   */\n    tag_338:\n        /* \"#utility.yul\":15457:15486   */\n      tag_341\n        /* \"#utility.yul\":15479:15485   */\n      dup3\n        /* \"#utility.yul\":15457:15486   */\n      tag_235\n      jump\t// in\n    tag_341:\n        /* \"#utility.yul\":15449:15486   */\n      swap1\n      pop\n        /* \"#utility.yul\":15541:15545   */\n      0x20\n        /* \"#utility.yul\":15535:15539   */\n      dup2\n        /* \"#utility.yul\":15531:15546   */\n      add\n        /* \"#utility.yul\":15523:15546   */\n      swap1\n      pop\n        /* \"#utility.yul\":15245:15553   */\n      swap2\n      swap1\n      pop\n      jump\t// out\n        /* \"#utility.yul\":15559:15700   */\n    tag_252:\n        /* \"#utility.yul\":15608:15612   */\n      0x00\n        /* \"#utility.yul\":15631:15634   */\n      dup2\n        /* \"#utility.yul\":15623:15634   */\n      swap1\n      pop\n        /* \"#utility.yul\":15654:15657   */\n      dup2\n        /* \"#utility.yul\":15651:15652   */\n      0x00\n        /* \"#utility.yul\":15644:15658   */\n      mstore\n        /* \"#utility.yul\":15688:15692   */\n      0x20\n        /* \"#utility.yul\":15685:15686   */\n      0x00\n        /* \"#utility.yul\":15675:15693   */\n      keccak256\n        /* \"#utility.yul\":15667:15693   */\n      swap1\n      pop\n        /* \"#utility.yul\":15559:15700   */\n      swap2\n      swap1\n      pop\n      jump\t// out\n        /* \"#utility.yul\":15706:15805   */\n    tag_239:\n        /* \"#utility.yul\":15758:15764   */\n      0x00\n        /* \"#utility.yul\":15792:15797   */\n      dup2\n        /* \"#utility.yul\":15786:15798   */\n      mload\n        /* \"#utility.yul\":15776:15798   */\n      swap1\n      pop\n        /* \"#utility.yul\":15706:15805   */\n      swap2\n      swap1\n      pop\n      jump\t// out\n        /* \"#utility.yul\":15811:15980   */\n    tag_232:\n        /* \"#utility.yul\":15895:15906   */\n      0x00\n        /* \"#utility.yul\":15929:15935   */\n      dup3\n        /* \"#utility.yul\":15924:15927   */\n      dup3\n        /* \"#utility.yul\":15917:15936   */\n      mstore\n        /* \"#utility.yul\":15969:15973   */\n      0x20\n        /* \"#utility.yul\":15964:15967   */\n      dup3\n        /* \"#utility.yul\":15960:15974   */\n      add\n        /* \"#utility.yul\":15945:15974   */\n      swap1\n      pop\n        /* \"#utility.yul\":15811:15980   */\n      swap3\n      swap2\n      pop\n      pop\n      jump\t// out\n        /* \"#utility.yul\":15986:16134   */\n    tag_260:\n        /* \"#utility.yul\":16088:16099   */\n      0x00\n        /* \"#utility.yul\":16125:16128   */\n      dup2\n        /* \"#utility.yul\":16110:16128   */\n      swap1\n      pop\n        /* \"#utility.yul\":15986:16134   */\n      swap3\n      swap2\n      pop\n      pop\n      jump\t// out\n        /* \"#utility.yul\":16140:16445   */\n    tag_126:\n        /* \"#utility.yul\":16180:16183   */\n      0x00\n        /* \"#utility.yul\":16199:16219   */\n      tag_347\n        /* \"#utility.yul\":16217:16218   */\n      dup3\n        /* \"#utility.yul\":16199:16219   */\n      tag_296\n      jump\t// in\n    tag_347:\n        /* \"#utility.yul\":16194:16219   */\n      swap2\n      pop\n        /* \"#utility.yul\":16233:16253   */\n      tag_348\n        /* \"#utility.yul\":16251:16252   */\n      dup4\n        /* \"#utility.yul\":16233:16253   */\n      tag_296\n      jump\t// in\n    tag_348:\n        /* \"#utility.yul\":16228:16253   */\n      swap3\n      pop\n        /* \"#utility.yul\":16387:16388   */\n      dup3\n        /* \"#utility.yul\":16319:16385   */\n      0xffffffffffffffffffffffffffffffffffffffffffffffffffffffffffffffff\n        /* \"#utility.yul\":16315:16389   */\n      sub\n        /* \"#utility.yul\":16312:16313   */\n      dup3\n        /* \"#utility.yul\":16309:16390   */\n      gt\n        /* \"#utility.yul\":16306:16413   */\n      iszero\n      tag_349\n      jumpi\n        /* \"#utility.yul\":16393:16411   */\n      tag_350\n      tag_351\n      jump\t// in\n    tag_350:\n        /* \"#utility.yul\":16306:16413   */\n    tag_349:\n        /* \"#utility.yul\":16437:16438   */\n      dup3\n        /* \"#utility.yul\":16434:16435   */\n      dup3\n        /* \"#utility.yul\":16430:16439   */\n      add\n        /* \"#utility.yul\":16423:16439   */\n      swap1\n      pop\n        /* \"#utility.yul\":16140:16445   */\n      swap3\n      swap2\n      pop\n      pop\n      jump\t// out\n        /* \"#utility.yul\":16451:16547   */\n    tag_224:\n        /* \"#utility.yul\":16488:16495   */\n      0x00\n        /* \"#utility.yul\":16517:16541   */\n      tag_353\n        /* \"#utility.yul\":16535:16540   */\n      dup3\n        /* \"#utility.yul\":16517:16541   */\n      tag_354\n      jump\t// in\n    tag_353:\n        /* \"#utility.yul\":16506:16541   */\n      swap1\n      pop\n        /* \"#utility.yul\":16451:16547   */\n      swap2\n      swap1\n      pop\n      jump\t// out\n        /* \"#utility.yul\":16553:16657   */\n    tag_220:\n        /* \"#utility.yul\":16598:16605   */\n      0x00\n        /* \"#utility.yul\":16627:16651   */\n      tag_356\n        /* \"#utility.yul\":16645:16650   */\n      dup3\n        /* \"#utility.yul\":16627:16651   */\n      tag_354\n      jump\t// in\n    tag_356:\n        /* \"#utility.yul\":16616:16651   */\n      swap1\n      pop\n        /* \"#utility.yul\":16553:16657   */\n      swap2\n      swap1\n      pop\n      jump\t// out\n        /* \"#utility.yul\":16663:16788   */\n    tag_357:\n        /* \"#utility.yul\":16707:16714   */\n      0x00\n        /* \"#utility.yul\":16736:16741   */\n      dup2\n        /* \"#utility.yul\":16725:16741   */\n      swap1\n      pop\n        /* \"#utility.yul\":16742:16782   */\n      tag_359\n        /* \"#utility.yul\":16776:16781   */\n      dup3\n        /* \"#utility.yul\":16742:16782   */\n      tag_360\n      jump\t// in\n    tag_359:\n        /* \"#utility.yul\":16663:16788   */\n      swap2\n      swap1\n      pop\n      jump\t// out\n        /* \"#utility.yul\":16794:16920   */\n    tag_354:\n        /* \"#utility.yul\":16831:16838   */\n      0x00\n        /* \"#utility.yul\":16871:16913   */\n      0xffffffffffffffffffffffffffffffffffffffff\n        /* \"#utility.yul\":16864:16869   */\n      dup3\n        /* \"#utility.yul\":16860:16914   */\n      and\n        /* \"#utility.yul\":16849:16914   */\n      swap1\n      pop\n        /* \"#utility.yul\":16794:16920   */\n      swap2\n      swap1\n      pop\n      jump\t// out\n        /* \"#utility.yul\":16926:17003   */\n    tag_296:\n        /* \"#utility.yul\":16963:16970   */\n      0x00\n        /* \"#utility.yul\":16992:16997   */\n      dup2\n        /* \"#utility.yul\":16981:16997   */\n      swap1\n      pop\n        /* \"#utility.yul\":16926:17003   */\n      swap2\n      swap1\n      pop\n      jump\t// out\n        /* \"#utility.yul\":17009:17134   */\n    tag_228:\n        /* \"#utility.yul\":17064:17073   */\n      0x00\n        /* \"#utility.yul\":17097:17128   */\n      tag_364\n        /* \"#utility.yul\":17122:17127   */\n      dup3\n        /* \"#utility.yul\":17097:17128   */\n      tag_357\n      jump\t// in\n    tag_364:\n        /* \"#utility.yul\":17084:17128   */\n      swap1\n      pop\n        /* \"#utility.yul\":17009:17134   */\n      swap2\n      swap1\n      pop\n      jump\t// out\n        /* \"#utility.yul\":17140:17294   */\n    tag_161:\n        /* \"#utility.yul\":17224:17230   */\n      dup3\n        /* \"#utility.yul\":17219:17222   */\n      dup2\n        /* \"#utility.yul\":17214:17217   */\n      dup4\n        /* \"#utility.yul\":17201:17231   */\n      calldatacopy\n        /* \"#utility.yul\":17286:17287   */\n      0x00\n        /* \"#utility.yul\":17277:17283   */\n      dup4\n        /* \"#utility.yul\":17272:17275   */\n      dup4\n        /* \"#utility.yul\":17268:17284   */\n      add\n        /* \"#utility.yul\":17261:17288   */\n      mstore\n        /* \"#utility.yul\":17140:17294   */\n      pop\n      pop\n      pop\n      jump\t// out\n        /* \"#utility.yul\":17300:17607   */\n    tag_242:\n        /* \"#utility.yul\":17368:17369   */\n      0x00\n        /* \"#utility.yul\":17378:17491   */\n    tag_367:\n        /* \"#utility.yul\":17392:17398   */\n      dup4\n        /* \"#utility.yul\":17389:17390   */\n      dup2\n        /* \"#utility.yul\":17386:17399   */\n      lt\n        /* \"#utility.yul\":17378:17491   */\n      iszero\n      tag_369\n      jumpi\n        /* \"#utility.yul\":17477:17478   */\n      dup1\n        /* \"#utility.yul\":17472:17475   */\n      dup3\n        /* \"#utility.yul\":17468:17479   */\n      add\n        /* \"#utility.yul\":17462:17480   */\n      mload\n        /* \"#utility.yul\":17458:17459   */\n      dup2\n        /* \"#utility.yul\":17453:17456   */\n      dup5\n        /* \"#utility.yul\":17449:17460   */\n      add\n        /* \"#utility.yul\":17442:17481   */\n      mstore\n        /* \"#utility.yul\":17414:17416   */\n      0x20\n        /* \"#utility.yul\":17411:17412   */\n      dup2\n        /* \"#utility.yul\":17407:17417   */\n      add\n        /* \"#utility.yul\":17402:17417   */\n      swap1\n      pop\n        /* \"#utility.yul\":17378:17491   */\n      jump(tag_367)\n    tag_369:\n        /* \"#utility.yul\":17509:17515   */\n      dup4\n        /* \"#utility.yul\":17506:17507   */\n      dup2\n        /* \"#utility.yul\":17503:17516   */\n      gt\n        /* \"#utility.yul\":17500:17601   */\n      iszero\n      tag_370\n      jumpi\n        /* \"#utility.yul\":17589:17590   */\n      0x00\n        /* \"#utility.yul\":17580:17586   */\n      dup5\n        /* \"#utility.yul\":17575:17578   */\n      dup5\n        /* \"#utility.yul\":17571:17587   */\n      add\n        /* \"#utility.yul\":17564:17591   */\n      mstore\n        /* \"#utility.yul\":17500:17601   */\n    tag_370:\n        /* \"#utility.yul\":17349:17607   */\n      pop\n        /* \"#utility.yul\":17300:17607   */\n      pop\n      pop\n      pop\n      jump\t// out\n        /* \"#utility.yul\":17613:17933   */\n    tag_37:\n        /* \"#utility.yul\":17657:17663   */\n      0x00\n        /* \"#utility.yul\":17694:17695   */\n      0x02\n        /* \"#utility.yul\":17688:17692   */\n      dup3\n        /* \"#utility.yul\":17684:17696   */\n      div\n        /* \"#utility.yul\":17674:17696   */\n      swap1\n      pop\n        /* \"#utility.yul\":17741:17742   */\n      0x01\n        /* \"#utility.yul\":17735:17739   */\n      dup3\n        /* \"#utility.yul\":17731:17743   */\n      and\n        /* \"#utility.yul\":17762:17780   */\n      dup1\n        /* \"#utility.yul\":17752:17833   */\n      tag_372\n      jumpi\n        /* \"#utility.yul\":17818:17822   */\n      0x7f\n        /* \"#utility.yul\":17810:17816   */\n      dup3\n        /* \"#utility.yul\":17806:17823   */\n      and\n        /* \"#utility.yul\":17796:17823   */\n      swap2\n      pop\n        /* \"#utility.yul\":17752:17833   */\n    tag_372:\n        /* \"#utility.yul\":17880:17882   */\n      0x20\n        /* \"#utility.yul\":17872:17878   */\n      dup3\n        /* \"#utility.yul\":17869:17883   */\n      lt\n        /* \"#utility.yul\":17849:17867   */\n      dup2\n        /* \"#utility.yul\":17846:17884   */\n      eq\n        /* \"#utility.yul\":17843:17927   */\n      iszero\n      tag_373\n      jumpi\n        /* \"#utility.yul\":17899:17917   */\n      tag_374\n      tag_375\n      jump\t// in\n    tag_374:\n        /* \"#utility.yul\":17843:17927   */\n    tag_373:\n        /* \"#utility.yul\":17664:17933   */\n      pop\n        /* \"#utility.yul\":17613:17933   */\n      swap2\n      swap1\n      pop\n      jump\t// out\n        /* \"#utility.yul\":17939:18220   */\n    tag_335:\n        /* \"#utility.yul\":18022:18049   */\n      tag_377\n        /* \"#utility.yul\":18044:18048   */\n      dup3\n        /* \"#utility.yul\":18022:18049   */\n      tag_235\n      jump\t// in\n    tag_377:\n        /* \"#utility.yul\":18014:18020   */\n      dup2\n        /* \"#utility.yul\":18010:18050   */\n      add\n        /* \"#utility.yul\":18152:18158   */\n      dup2\n        /* \"#utility.yul\":18140:18150   */\n      dup2\n        /* \"#utility.yul\":18137:18159   */\n      lt\n        /* \"#utility.yul\":18116:18134   */\n      0xffffffffffffffff\n        /* \"#utility.yul\":18104:18114   */\n      dup3\n        /* \"#utility.yul\":18101:18135   */\n      gt\n        /* \"#utility.yul\":18098:18160   */\n      or\n        /* \"#utility.yul\":18095:18183   */\n      iszero\n      tag_378\n      jumpi\n        /* \"#utility.yul\":18163:18181   */\n      tag_379\n      tag_340\n      jump\t// in\n    tag_379:\n        /* \"#utility.yul\":18095:18183   */\n    tag_378:\n        /* \"#utility.yul\":18203:18213   */\n      dup1\n        /* \"#utility.yul\":18199:18201   */\n      0x40\n        /* \"#utility.yul\":18192:18214   */\n      mstore\n        /* \"#utility.yul\":17982:18220   */\n      pop\n        /* \"#utility.yul\":17939:18220   */\n      pop\n      pop\n      jump\t// out\n        /* \"#utility.yul\":18226:18406   */\n    tag_351:\n        /* \"#utility.yul\":18274:18351   */\n      0x4e487b7100000000000000000000000000000000000000000000000000000000\n        /* \"#utility.yul\":18271:18272   */\n      0x00\n        /* \"#utility.yul\":18264:18352   */\n      mstore\n        /* \"#utility.yul\":18371:18375   */\n      0x11\n        /* \"#utility.yul\":18368:18369   */\n      0x04\n        /* \"#utility.yul\":18361:18376   */\n      mstore\n        /* \"#utility.yul\":18395:18399   */\n      0x24\n        /* \"#utility.yul\":18392:18393   */\n      0x00\n        /* \"#utility.yul\":18385:18400   */\n      revert\n        /* \"#utility.yul\":18412:18592   */\n    tag_63:\n        /* \"#utility.yul\":18460:18537   */\n      0x4e487b7100000000000000000000000000000000000000000000000000000000\n        /* \"#utility.yul\":18457:18458   */\n      0x00\n        /* \"#utility.yul\":18450:18538   */\n      mstore\n        /* \"#utility.yul\":18557:18561   */\n      0x21\n        /* \"#utility.yul\":18554:18555   */\n      0x04\n        /* \"#utility.yul\":18547:18562   */\n      mstore\n        /* \"#utility.yul\":18581:18585   */\n      0x24\n        /* \"#utility.yul\":18578:18579   */\n      0x00\n        /* \"#utility.yul\":18571:18586   */\n      revert\n        /* \"#utility.yul\":18598:18778   */\n    tag_375:\n        /* \"#utility.yul\":18646:18723   */\n      0x4e487b7100000000000000000000000000000000000000000000000000000000\n        /* \"#utility.yul\":18643:18644   */\n      0x00\n        /* \"#utility.yul\":18636:18724   */\n      mstore\n        /* \"#utility.yul\":18743:18747   */\n      0x22\n        /* \"#utility.yul\":18740:18741   */\n      0x04\n        /* \"#utility.yul\":18733:18748   */\n      mstore\n        /* \"#utility.yul\":18767:18771   */\n      0x24\n        /* \"#utility.yul\":18764:18765   */\n      0x00\n        /* \"#utility.yul\":18757:18772   */\n      revert\n        /* \"#utility.yul\":18784:18964   */\n    tag_55:\n        /* \"#utility.yul\":18832:18909   */\n      0x4e487b7100000000000000000000000000000000000000000000000000000000\n        /* \"#utility.yul\":18829:18830   */\n      0x00\n        /* \"#utility.yul\":18822:18910   */\n      mstore\n        /* \"#utility.yul\":18929:18933   */\n      0x32\n        /* \"#utility.yul\":18926:18927   */\n      0x04\n        /* \"#utility.yul\":18919:18934   */\n      mstore\n        /* \"#utility.yul\":18953:18957   */\n      0x24\n        /* \"#utility.yul\":18950:18951   */\n      0x00\n        /* \"#utility.yul\":18943:18958   */\n      revert\n        /* \"#utility.yul\":18970:19150   */\n    tag_340:\n        /* \"#utility.yul\":19018:19095   */\n      0x4e487b7100000000000000000000000000000000000000000000000000000000\n        /* \"#utility.yul\":19015:19016   */\n      0x00\n        /* \"#utility.yul\":19008:19096   */\n      mstore\n        /* \"#utility.yul\":19115:19119   */\n      0x41\n        /* \"#utility.yul\":19112:19113   */\n      0x04\n        /* \"#utility.yul\":19105:19120   */\n      mstore\n        /* \"#utility.yul\":19139:19143   */\n      0x24\n        /* \"#utility.yul\":19136:19137   */\n      0x00\n        /* \"#utility.yul\":19129:19144   */\n      revert\n        /* \"#utility.yul\":19156:19273   */\n    tag_173:\n        /* \"#utility.yul\":19265:19266   */\n      0x00\n        /* \"#utility.yul\":19262:19263   */\n      dup1\n        /* \"#utility.yul\":19255:19267   */\n      revert\n        /* \"#utility.yul\":19279:19396   */\n    tag_170:\n        /* \"#utility.yul\":19388:19389   */\n      0x00\n        /* \"#utility.yul\":19385:19386   */\n      dup1\n        /* \"#utility.yul\":19378:19390   */\n      revert\n        /* \"#utility.yul\":19402:19519   */\n    tag_176:\n        /* \"#utility.yul\":19511:19512   */\n      0x00\n        /* \"#utility.yul\":19508:19509   */\n      dup1\n        /* \"#utility.yul\":19501:19513   */\n      revert\n        /* \"#utility.yul\":19525:19642   */\n    tag_159:\n        /* \"#utility.yul\":19634:19635   */\n      0x00\n        /* \"#utility.yul\":19631:19632   */\n      dup1\n        /* \"#utility.yul\":19624:19636   */\n      revert\n        /* \"#utility.yul\":19648:19765   */\n    tag_192:\n        /* \"#utility.yul\":19757:19758   */\n      0x00\n        /* \"#utility.yul\":19754:19755   */\n      dup1\n        /* \"#utility.yul\":19747:19759   */\n      revert\n        /* \"#utility.yul\":19771:19888   */\n    tag_189:\n        /* \"#utility.yul\":19880:19881   */\n      0x00\n        /* \"#utility.yul\":19877:19878   */\n      dup1\n        /* \"#utility.yul\":19870:19882   */\n      revert\n        /* \"#utility.yul\":19894:19996   */\n    tag_235:\n        /* \"#utility.yul\":19935:19941   */\n      0x00\n        /* \"#utility.yul\":19986:19988   */\n      0x1f\n        /* \"#utility.yul\":19982:19989   */\n      not\n        /* \"#utility.yul\":19977:19979   */\n      0x1f\n        /* \"#utility.yul\":19970:19975   */\n      dup4\n        /* \"#utility.yul\":19966:19980   */\n      add\n        /* \"#utility.yul\":19962:19990   */\n      and\n        /* \"#utility.yul\":19952:19990   */\n      swap1\n      pop\n        /* \"#utility.yul\":19894:19996   */\n      swap2\n      swap1\n      pop\n      jump\t// out\n        /* \"#utility.yul\":20002:20223   */\n    tag_272:\n        /* \"#utility.yul\":20142:20176   */\n      0x54686520617574686f722063616e6e6f742066756e64207468652070726f6a65\n        /* \"#utility.yul\":20138:20139   */\n      0x00\n        /* \"#utility.yul\":20130:20136   */\n      dup3\n        /* \"#utility.yul\":20126:20140   */\n      add\n        /* \"#utility.yul\":20119:20177   */\n      mstore\n        /* \"#utility.yul\":20211:20215   */\n      0x6374000000000000000000000000000000000000000000000000000000000000\n        /* \"#utility.yul\":20206:20208   */\n      0x20\n        /* \"#utility.yul\":20198:20204   */\n      dup3\n        /* \"#utility.yul\":20194:20209   */\n      add\n        /* \"#utility.yul\":20187:20216   */\n      mstore\n        /* \"#utility.yul\":20002:20223   */\n      pop\n      jump\t// out\n        /* \"#utility.yul\":20229:20406   */\n    tag_277:\n        /* \"#utility.yul\":20369:20398   */\n      0x4e6577207374617465206d75737420626520646966666572656e740000000000\n        /* \"#utility.yul\":20365:20366   */\n      0x00\n        /* \"#utility.yul\":20357:20363   */\n      dup3\n        /* \"#utility.yul\":20353:20367   */\n      add\n        /* \"#utility.yul\":20346:20399   */\n      mstore\n        /* \"#utility.yul\":20229:20406   */\n      pop\n      jump\t// out\n        /* \"#utility.yul\":20412:20635   */\n    tag_282:\n        /* \"#utility.yul\":20552:20586   */\n      0x5468652066756e64696e67206f66207468652070726f6a65637420697320636c\n        /* \"#utility.yul\":20548:20549   */\n      0x00\n        /* \"#utility.yul\":20540:20546   */\n      dup3\n        /* \"#utility.yul\":20536:20550   */\n      add\n        /* \"#utility.yul\":20529:20587   */\n      mstore\n        /* \"#utility.yul\":20621:20627   */\n      0x6f73656400000000000000000000000000000000000000000000000000000000\n        /* \"#utility.yul\":20616:20618   */\n      0x20\n        /* \"#utility.yul\":20608:20614   */\n      dup3\n        /* \"#utility.yul\":20604:20619   */\n      add\n        /* \"#utility.yul\":20597:20628   */\n      mstore\n        /* \"#utility.yul\":20412:20635   */\n      pop\n      jump\t// out\n        /* \"#utility.yul\":20641:20875   */\n    tag_287:\n        /* \"#utility.yul\":20781:20815   */\n      0x4f6e6c7920617574686f722063616e206368616e676520746865207374617465\n        /* \"#utility.yul\":20777:20778   */\n      0x00\n        /* \"#utility.yul\":20769:20775   */\n      dup3\n        /* \"#utility.yul\":20765:20779   */\n      add\n        /* \"#utility.yul\":20758:20816   */\n      mstore\n        /* \"#utility.yul\":20850:20867   */\n      0x206f66207468652070726f6a6563740000000000000000000000000000000000\n        /* \"#utility.yul\":20845:20847   */\n      0x20\n        /* \"#utility.yul\":20837:20843   */\n      dup3\n        /* \"#utility.yul\":20833:20848   */\n      add\n        /* \"#utility.yul\":20826:20868   */\n      mstore\n        /* \"#utility.yul\":20641:20875   */\n      pop\n      jump\t// out\n        /* \"#utility.yul\":20881:21102   */\n    tag_292:\n        /* \"#utility.yul\":21021:21055   */\n      0x66756e6472616973696e67206d7573742062652067726561746572207468616e\n        /* \"#utility.yul\":21017:21018   */\n      0x00\n        /* \"#utility.yul\":21009:21015   */\n      dup3\n        /* \"#utility.yul\":21005:21019   */\n      add\n        /* \"#utility.yul\":20998:21056   */\n      mstore\n        /* \"#utility.yul\":21090:21094   */\n      0x2030000000000000000000000000000000000000000000000000000000000000\n        /* \"#utility.yul\":21085:21087   */\n      0x20\n        /* \"#utility.yul\":21077:21083   */\n      dup3\n        /* \"#utility.yul\":21073:21088   */\n      add\n        /* \"#utility.yul\":21066:21095   */\n      mstore\n        /* \"#utility.yul\":20881:21102   */\n      pop\n      jump\t// out\n        /* \"#utility.yul\":21108:21220   */\n    tag_360:\n        /* \"#utility.yul\":21188:21189   */\n      0x02\n        /* \"#utility.yul\":21181:21186   */\n      dup2\n        /* \"#utility.yul\":21178:21190   */\n      lt\n        /* \"#utility.yul\":21168:21214   */\n      tag_398\n      jumpi\n        /* \"#utility.yul\":21194:21212   */\n      tag_399\n      tag_63\n      jump\t// in\n    tag_399:\n        /* \"#utility.yul\":21168:21214   */\n    tag_398:\n        /* \"#utility.yul\":21108:21220   */\n      pop\n      jump\t// out\n        /* \"#utility.yul\":21226:21332   */\n    tag_165:\n        /* \"#utility.yul\":21306:21307   */\n      0x02\n        /* \"#utility.yul\":21299:21304   */\n      dup2\n        /* \"#utility.yul\":21296:21308   */\n      lt\n        /* \"#utility.yul\":21286:21326   */\n      tag_401\n      jumpi\n        /* \"#utility.yul\":21322:21323   */\n      0x00\n        /* \"#utility.yul\":21319:21320   */\n      dup1\n        /* \"#utility.yul\":21312:21324   */\n      revert\n        /* \"#utility.yul\":21286:21326   */\n    tag_401:\n        /* \"#utility.yul\":21226:21332   */\n      pop\n      jump\t// out\n        /* \"#utility.yul\":21338:21460   */\n    tag_185:\n        /* \"#utility.yul\":21411:21435   */\n      tag_403\n        /* \"#utility.yul\":21429:21434   */\n      dup2\n        /* \"#utility.yul\":21411:21435   */\n      tag_296\n      jump\t// in\n    tag_403:\n        /* \"#utility.yul\":21404:21409   */\n      dup2\n        /* \"#utility.yul\":21401:21436   */\n      eq\n        /* \"#utility.yul\":21391:21454   */\n      tag_404\n      jumpi\n        /* \"#utility.yul\":21450:21451   */\n      0x00\n        /* \"#utility.yul\":21447:21448   */\n      dup1\n        /* \"#utility.yul\":21440:21452   */\n      revert\n        /* \"#utility.yul\":21391:21454   */\n    tag_404:\n        /* \"#utility.yul\":21338:21460   */\n      pop\n      jump\t// out\n\n    auxdata: 0xa2646970667358221220105f95fe17237b2eefd519ee100fcea7a4965ab06ebdad74e7788ba630f625e264736f6c63430008070033\n}\n",
				"bytecode": {
					"linkReferences": {},
					"object": "608060405234801561001057600080fd5b506118c1806100206000396000f3fe60806040526004361061004a5760003560e01c8063107046bd1461004f57806317e925d7146100925780631ca73896146100bb5780636c563abe146100e45780637f3fcdd914610100575b600080fd5b34801561005b57600080fd5b5061007660048036038101906100719190610ef0565b61013e565b604051610089979695949392919061124d565b60405180910390f35b34801561009e57600080fd5b506100b960048036038101906100b49190610f1d565b610355565b005b3480156100c757600080fd5b506100e260048036038101906100dd9190610dcb565b610551565b005b6100fe60048036038101906100f99190610ef0565b61081e565b005b34801561010c57600080fd5b5061012760048036038101906101229190610e94565b610bc1565b6040516101359291906111c4565b60405180910390f35b6000818154811061014e57600080fd5b90600052602060002090600702016000915090508060000180546101719061156e565b80601f016020809104026020016040519081016040528092919081815260200182805461019d9061156e565b80156101ea5780601f106101bf576101008083540402835291602001916101ea565b820191906000526020600020905b8154815290600101906020018083116101cd57829003601f168201915b5050505050908060010180546101ff9061156e565b80601f016020809104026020016040519081016040528092919081815260200182805461022b9061156e565b80156102785780601f1061024d57610100808354040283529160200191610278565b820191906000526020600020905b81548152906001019060200180831161025b57829003601f168201915b50505050509080600201805461028d9061156e565b80601f01602080910402602001604051908101604052809291908181526020018280546102b99061156e565b80156103065780601f106102db57610100808354040283529160200191610306565b820191906000526020600020905b8154815290600101906020018083116102e957829003601f168201915b5050505050908060030154908060040160009054906101000a900473ffffffffffffffffffffffffffffffffffffffff16908060050154908060060160009054906101000a900460ff16905087565b816000818154811061036a5761036961165e565b5b906000526020600020906007020160040160009054906101000a900473ffffffffffffffffffffffffffffffffffffffff1673ffffffffffffffffffffffffffffffffffffffff163373ffffffffffffffffffffffffffffffffffffffff1614610409576040517f08c379a000000000000000000000000000000000000000000000000000000000815260040161040090611391565b60405180910390fd5b81600181111561041c5761041b611600565b5b600084815481106104305761042f61165e565b5b906000526020600020906007020160060160009054906101000a900460ff16600181111561046157610460611600565b5b14156104a2576040517f08c379a000000000000000000000000000000000000000000000000000000000815260040161049990611351565b60405180910390fd5b81600084815481106104b7576104b661165e565b5b906000526020600020906007020160060160006101000a81548160ff021916908360018111156104ea576104e9611600565b5b02179055507fb364ab0cadec04bec8a97e81743129cecc3480279fb67b9378df4219238b250f600084815481106105245761052361165e565b5b9060005260206000209060070201600001836040516105449291906112d1565b60405180910390a1505050565b60008111610594576040517f08c379a000000000000000000000000000000000000000000000000000000000815260040161058b906113b1565b60405180910390fd5b60006040518060e0016040528089898080601f016020809104026020016040519081016040528093929190818152602001838380828437600081840152601f19601f82011690508083019250505050505050815260200187878080601f016020809104026020016040519081016040528093929190818152602001838380828437600081840152601f19601f82011690508083019250505050505050815260200185858080601f016020809104026020016040519081016040528093929190818152602001838380828437600081840152601f19601f8201169050808301925050505050505081526020018381526020013373ffffffffffffffffffffffffffffffffffffffff16815260200160008152602001600060018111156106bc576106bb611600565b5b815250905060008190806001815401808255809150506001900390600052602060002090600702016000909190919091506000820151816000019080519060200190610709929190610c38565b506020820151816001019080519060200190610726929190610c38565b506040820151816002019080519060200190610743929190610c38565b506060820151816003015560808201518160040160006101000a81548173ffffffffffffffffffffffffffffffffffffffff021916908373ffffffffffffffffffffffffffffffffffffffff16021790555060a0820151816005015560c08201518160060160006101000a81548160ff021916908360018111156107ca576107c9611600565b5b021790555050507f95df29175008deb1f139c97a80ab29ee4f48d3bece10e0dc24beea55367aedff8888888888888860405161080c97969594939291906111ed565b60405180910390a15050505050505050565b80600081815481106108335761083261165e565b5b906000526020600020906007020160040160009054906101000a900473ffffffffffffffffffffffffffffffffffffffff1673ffffffffffffffffffffffffffffffffffffffff163373ffffffffffffffffffffffffffffffffffffffff1614156108d3576040517f08c379a00000000000000000000000000000000000000000000000000000000081526004016108ca90611331565b60405180910390fd5b6001808111156108e6576108e5611600565b5b600083815481106108fa576108f961165e565b5b906000526020600020906007020160060160009054906101000a900460ff16600181111561092b5761092a611600565b5b141561096c576040517f08c379a000000000000000000000000000000000000000000000000000000000815260040161096390611371565b60405180910390fd5b600034116109af576040517f08c379a00000000000000000000000000000000000000000000000000000000081526004016109a6906113b1565b60405180910390fd5b600082815481106109c3576109c261165e565b5b906000526020600020906007020160040160009054906101000a900473ffffffffffffffffffffffffffffffffffffffff1673ffffffffffffffffffffffffffffffffffffffff166108fc349081150290604051600060405180830381858888f19350505050158015610a3a573d6000803e3d6000fd5b503460008381548110610a5057610a4f61165e565b5b90600052602060002090600702016005016000828254610a709190611463565b92505081905550600160008381548110610a8d57610a8c61165e565b5b9060005260206000209060070201600001604051610aab91906111ad565b908152602001604051809103902060405180604001604052803373ffffffffffffffffffffffffffffffffffffffff16815260200134815250908060018154018082558091505060019003906000526020600020906002020160009091909190915060008201518160000160006101000a81548173ffffffffffffffffffffffffffffffffffffffff021916908373ffffffffffffffffffffffffffffffffffffffff1602179055506020820151816001015550507f98a99e594dc0943c255bf9563ae2c4da6ffcfd06f78b396b88988548ac825ba860008381548110610b9557610b9461165e565b5b906000526020600020906007020160000134604051610bb5929190611301565b60405180910390a15050565b6001828051602081018201805184825260208301602085012081835280955050505050508181548110610bf357600080fd5b9060005260206000209060020201600091509150508060000160009054906101000a900473ffffffffffffffffffffffffffffffffffffffff16908060010154905082565b828054610c449061156e565b90600052602060002090601f016020900481019282610c665760008555610cad565b82601f10610c7f57805160ff1916838001178555610cad565b82800160010185558215610cad579182015b82811115610cac578251825591602001919060010190610c91565b5b509050610cba9190610cbe565b5090565b5b80821115610cd7576000816000905550600101610cbf565b5090565b6000610cee610ce9846113f6565b6113d1565b905082815260208101848484011115610d0a57610d096116cb565b5b610d1584828561152c565b509392505050565b600081359050610d2c81611864565b92915050565b60008083601f840112610d4857610d476116c1565b5b8235905067ffffffffffffffff811115610d6557610d646116bc565b5b602083019150836001820283011115610d8157610d806116c6565b5b9250929050565b600082601f830112610d9d57610d9c6116c1565b5b8135610dad848260208601610cdb565b91505092915050565b600081359050610dc581611874565b92915050565b60008060008060008060006080888a031215610dea57610de96116d5565b5b600088013567ffffffffffffffff811115610e0857610e076116d0565b5b610e148a828b01610d32565b9750975050602088013567ffffffffffffffff811115610e3757610e366116d0565b5b610e438a828b01610d32565b9550955050604088013567ffffffffffffffff811115610e6657610e656116d0565b5b610e728a828b01610d32565b93509350506060610e858a828b01610db6565b91505092959891949750929550565b60008060408385031215610eab57610eaa6116d5565b5b600083013567ffffffffffffffff811115610ec957610ec86116d0565b5b610ed585828601610d88565b9250506020610ee685828601610db6565b9150509250929050565b600060208284031215610f0657610f056116d5565b5b6000610f1484828501610db6565b91505092915050565b60008060408385031215610f3457610f336116d5565b5b6000610f4285828601610db6565b9250506020610f5385828601610d1d565b9150509250929050565b610f66816114cb565b82525050565b610f75816114b9565b82525050565b610f848161151a565b82525050565b6000610f968385611447565b9350610fa383858461152c565b610fac836116da565b840190509392505050565b6000610fc28261143c565b610fcc8185611447565b9350610fdc81856020860161153b565b610fe5816116da565b840191505092915050565b60008154610ffd8161156e565b6110078186611447565b94506001821660008114611022576001811461103457611067565b60ff1983168652602086019350611067565b61103d85611427565b60005b8381101561105f57815481890152600182019150602081019050611040565b808801955050505b50505092915050565b6000815461107d8161156e565b6110878186611458565b945060018216600081146110a257600181146110b3576110e6565b60ff198316865281860193506110e6565b6110bc85611427565b60005b838110156110de578154818901526001820191506020810190506110bf565b838801955050505b50505092915050565b60006110fc602283611447565b9150611107826116eb565b604082019050919050565b600061111f601b83611447565b915061112a8261173a565b602082019050919050565b6000611142602483611447565b915061114d82611763565b604082019050919050565b6000611165602f83611447565b9150611170826117b2565b604082019050919050565b6000611188602283611447565b915061119382611801565b604082019050919050565b6111a781611510565b82525050565b60006111b98284611070565b915081905092915050565b60006040820190506111d96000830185610f6c565b6111e6602083018461119e565b9392505050565b6000608082019050818103600083015261120881898b610f8a565b9050818103602083015261121d818789610f8a565b90508181036040830152611232818587610f8a565b9050611241606083018461119e565b98975050505050505050565b600060e0820190508181036000830152611267818a610fb7565b9050818103602083015261127b8189610fb7565b9050818103604083015261128f8188610fb7565b905061129e606083018761119e565b6112ab6080830186610f5d565b6112b860a083018561119e565b6112c560c0830184610f7b565b98975050505050505050565b600060408201905081810360008301526112eb8185610ff0565b90506112fa6020830184610f7b565b9392505050565b6000604082019050818103600083015261131b8185610ff0565b905061132a602083018461119e565b9392505050565b6000602082019050818103600083015261134a816110ef565b9050919050565b6000602082019050818103600083015261136a81611112565b9050919050565b6000602082019050818103600083015261138a81611135565b9050919050565b600060208201905081810360008301526113aa81611158565b9050919050565b600060208201905081810360008301526113ca8161117b565b9050919050565b60006113db6113ec565b90506113e782826115a0565b919050565b6000604051905090565b600067ffffffffffffffff8211156114115761141061168d565b5b61141a826116da565b9050602081019050919050565b60008190508160005260206000209050919050565b600081519050919050565b600082825260208201905092915050565b600081905092915050565b600061146e82611510565b915061147983611510565b9250827fffffffffffffffffffffffffffffffffffffffffffffffffffffffffffffffff038211156114ae576114ad6115d1565b5b828201905092915050565b60006114c4826114f0565b9050919050565b60006114d6826114f0565b9050919050565b60008190506114eb82611850565b919050565b600073ffffffffffffffffffffffffffffffffffffffff82169050919050565b6000819050919050565b6000611525826114dd565b9050919050565b82818337600083830152505050565b60005b8381101561155957808201518184015260208101905061153e565b83811115611568576000848401525b50505050565b6000600282049050600182168061158657607f821691505b6020821081141561159a5761159961162f565b5b50919050565b6115a9826116da565b810181811067ffffffffffffffff821117156115c8576115c761168d565b5b80604052505050565b7f4e487b7100000000000000000000000000000000000000000000000000000000600052601160045260246000fd5b7f4e487b7100000000000000000000000000000000000000000000000000000000600052602160045260246000fd5b7f4e487b7100000000000000000000000000000000000000000000000000000000600052602260045260246000fd5b7f4e487b7100000000000000000000000000000000000000000000000000000000600052603260045260246000fd5b7f4e487b7100000000000000000000000000000000000000000000000000000000600052604160045260246000fd5b600080fd5b600080fd5b600080fd5b600080fd5b600080fd5b600080fd5b6000601f19601f8301169050919050565b7f54686520617574686f722063616e6e6f742066756e64207468652070726f6a6560008201527f6374000000000000000000000000000000000000000000000000000000000000602082015250565b7f4e6577207374617465206d75737420626520646966666572656e740000000000600082015250565b7f5468652066756e64696e67206f66207468652070726f6a65637420697320636c60008201527f6f73656400000000000000000000000000000000000000000000000000000000602082015250565b7f4f6e6c7920617574686f722063616e206368616e67652074686520737461746560008201527f206f66207468652070726f6a6563740000000000000000000000000000000000602082015250565b7f66756e6472616973696e67206d7573742062652067726561746572207468616e60008201527f2030000000000000000000000000000000000000000000000000000000000000602082015250565b6002811061186157611860611600565b5b50565b6002811061187157600080fd5b50565b61187d81611510565b811461188857600080fd5b5056fea2646970667358221220105f95fe17237b2eefd519ee100fcea7a4965ab06ebdad74e7788ba630f625e264736f6c63430008070033",
					"opcodes": "PUSH1 0x80 PUSH1 0x40 MSTORE CALLVALUE DUP1 ISZERO PUSH2 0x10 JUMPI PUSH1 0x0 DUP1 REVERT JUMPDEST POP PUSH2 0x18C1 DUP1 PUSH2 0x20 PUSH1 0x0 CODECOPY PUSH1 0x0 RETURN INVALID PUSH1 0x80 PUSH1 0x40 MSTORE PUSH1 0x4 CALLDATASIZE LT PUSH2 0x4A JUMPI PUSH1 0x0 CALLDATALOAD PUSH1 0xE0 SHR DUP1 PUSH4 0x107046BD EQ PUSH2 0x4F JUMPI DUP1 PUSH4 0x17E925D7 EQ PUSH2 0x92 JUMPI DUP1 PUSH4 0x1CA73896 EQ PUSH2 0xBB JUMPI DUP1 PUSH4 0x6C563ABE EQ PUSH2 0xE4 JUMPI DUP1 PUSH4 0x7F3FCDD9 EQ PUSH2 0x100 JUMPI JUMPDEST PUSH1 0x0 DUP1 REVERT JUMPDEST CALLVALUE DUP1 ISZERO PUSH2 0x5B JUMPI PUSH1 0x0 DUP1 REVERT JUMPDEST POP PUSH2 0x76 PUSH1 0x4 DUP1 CALLDATASIZE SUB DUP2 ADD SWAP1 PUSH2 0x71 SWAP2 SWAP1 PUSH2 0xEF0 JUMP JUMPDEST PUSH2 0x13E JUMP JUMPDEST PUSH1 0x40 MLOAD PUSH2 0x89 SWAP8 SWAP7 SWAP6 SWAP5 SWAP4 SWAP3 SWAP2 SWAP1 PUSH2 0x124D JUMP JUMPDEST PUSH1 0x40 MLOAD DUP1 SWAP2 SUB SWAP1 RETURN JUMPDEST CALLVALUE DUP1 ISZERO PUSH2 0x9E JUMPI PUSH1 0x0 DUP1 REVERT JUMPDEST POP PUSH2 0xB9 PUSH1 0x4 DUP1 CALLDATASIZE SUB DUP2 ADD SWAP1 PUSH2 0xB4 SWAP2 SWAP1 PUSH2 0xF1D JUMP JUMPDEST PUSH2 0x355 JUMP JUMPDEST STOP JUMPDEST CALLVALUE DUP1 ISZERO PUSH2 0xC7 JUMPI PUSH1 0x0 DUP1 REVERT JUMPDEST POP PUSH2 0xE2 PUSH1 0x4 DUP1 CALLDATASIZE SUB DUP2 ADD SWAP1 PUSH2 0xDD SWAP2 SWAP1 PUSH2 0xDCB JUMP JUMPDEST PUSH2 0x551 JUMP JUMPDEST STOP JUMPDEST PUSH2 0xFE PUSH1 0x4 DUP1 CALLDATASIZE SUB DUP2 ADD SWAP1 PUSH2 0xF9 SWAP2 SWAP1 PUSH2 0xEF0 JUMP JUMPDEST PUSH2 0x81E JUMP JUMPDEST STOP JUMPDEST CALLVALUE DUP1 ISZERO PUSH2 0x10C JUMPI PUSH1 0x0 DUP1 REVERT JUMPDEST POP PUSH2 0x127 PUSH1 0x4 DUP1 CALLDATASIZE SUB DUP2 ADD SWAP1 PUSH2 0x122 SWAP2 SWAP1 PUSH2 0xE94 JUMP JUMPDEST PUSH2 0xBC1 JUMP JUMPDEST PUSH1 0x40 MLOAD PUSH2 0x135 SWAP3 SWAP2 SWAP1 PUSH2 0x11C4 JUMP JUMPDEST PUSH1 0x40 MLOAD DUP1 SWAP2 SUB SWAP1 RETURN JUMPDEST PUSH1 0x0 DUP2 DUP2 SLOAD DUP2 LT PUSH2 0x14E JUMPI PUSH1 0x0 DUP1 REVERT JUMPDEST SWAP1 PUSH1 0x0 MSTORE PUSH1 0x20 PUSH1 0x0 KECCAK256 SWAP1 PUSH1 0x7 MUL ADD PUSH1 0x0 SWAP2 POP SWAP1 POP DUP1 PUSH1 0x0 ADD DUP1 SLOAD PUSH2 0x171 SWAP1 PUSH2 0x156E JUMP JUMPDEST DUP1 PUSH1 0x1F ADD PUSH1 0x20 DUP1 SWAP2 DIV MUL PUSH1 0x20 ADD PUSH1 0x40 MLOAD SWAP1 DUP2 ADD PUSH1 0x40 MSTORE DUP1 SWAP3 SWAP2 SWAP1 DUP2 DUP2 MSTORE PUSH1 0x20 ADD DUP3 DUP1 SLOAD PUSH2 0x19D SWAP1 PUSH2 0x156E JUMP JUMPDEST DUP1 ISZERO PUSH2 0x1EA JUMPI DUP1 PUSH1 0x1F LT PUSH2 0x1BF JUMPI PUSH2 0x100 DUP1 DUP4 SLOAD DIV MUL DUP4 MSTORE SWAP2 PUSH1 0x20 ADD SWAP2 PUSH2 0x1EA JUMP JUMPDEST DUP3 ADD SWAP2 SWAP1 PUSH1 0x0 MSTORE PUSH1 0x20 PUSH1 0x0 KECCAK256 SWAP1 JUMPDEST DUP2 SLOAD DUP2 MSTORE SWAP1 PUSH1 0x1 ADD SWAP1 PUSH1 0x20 ADD DUP1 DUP4 GT PUSH2 0x1CD JUMPI DUP3 SWAP1 SUB PUSH1 0x1F AND DUP3 ADD SWAP2 JUMPDEST POP POP POP POP POP SWAP1 DUP1 PUSH1 0x1 ADD DUP1 SLOAD PUSH2 0x1FF SWAP1 PUSH2 0x156E JUMP JUMPDEST DUP1 PUSH1 0x1F ADD PUSH1 0x20 DUP1 SWAP2 DIV MUL PUSH1 0x20 ADD PUSH1 0x40 MLOAD SWAP1 DUP2 ADD PUSH1 0x40 MSTORE DUP1 SWAP3 SWAP2 SWAP1 DUP2 DUP2 MSTORE PUSH1 0x20 ADD DUP3 DUP1 SLOAD PUSH2 0x22B SWAP1 PUSH2 0x156E JUMP JUMPDEST DUP1 ISZERO PUSH2 0x278 JUMPI DUP1 PUSH1 0x1F LT PUSH2 0x24D JUMPI PUSH2 0x100 DUP1 DUP4 SLOAD DIV MUL DUP4 MSTORE SWAP2 PUSH1 0x20 ADD SWAP2 PUSH2 0x278 JUMP JUMPDEST DUP3 ADD SWAP2 SWAP1 PUSH1 0x0 MSTORE PUSH1 0x20 PUSH1 0x0 KECCAK256 SWAP1 JUMPDEST DUP2 SLOAD DUP2 MSTORE SWAP1 PUSH1 0x1 ADD SWAP1 PUSH1 0x20 ADD DUP1 DUP4 GT PUSH2 0x25B JUMPI DUP3 SWAP1 SUB PUSH1 0x1F AND DUP3 ADD SWAP2 JUMPDEST POP POP POP POP POP SWAP1 DUP1 PUSH1 0x2 ADD DUP1 SLOAD PUSH2 0x28D SWAP1 PUSH2 0x156E JUMP JUMPDEST DUP1 PUSH1 0x1F ADD PUSH1 0x20 DUP1 SWAP2 DIV MUL PUSH1 0x20 ADD PUSH1 0x40 MLOAD SWAP1 DUP2 ADD PUSH1 0x40 MSTORE DUP1 SWAP3 SWAP2 SWAP1 DUP2 DUP2 MSTORE PUSH1 0x20 ADD DUP3 DUP1 SLOAD PUSH2 0x2B9 SWAP1 PUSH2 0x156E JUMP JUMPDEST DUP1 ISZERO PUSH2 0x306 JUMPI DUP1 PUSH1 0x1F LT PUSH2 0x2DB JUMPI PUSH2 0x100 DUP1 DUP4 SLOAD DIV MUL DUP4 MSTORE SWAP2 PUSH1 0x20 ADD SWAP2 PUSH2 0x306 JUMP JUMPDEST DUP3 ADD SWAP2 SWAP1 PUSH1 0x0 MSTORE PUSH1 0x20 PUSH1 0x0 KECCAK256 SWAP1 JUMPDEST DUP2 SLOAD DUP2 MSTORE SWAP1 PUSH1 0x1 ADD SWAP1 PUSH1 0x20 ADD DUP1 DUP4 GT PUSH2 0x2E9 JUMPI DUP3 SWAP1 SUB PUSH1 0x1F AND DUP3 ADD SWAP2 JUMPDEST POP POP POP POP POP SWAP1 DUP1 PUSH1 0x3 ADD SLOAD SWAP1 DUP1 PUSH1 0x4 ADD PUSH1 0x0 SWAP1 SLOAD SWAP1 PUSH2 0x100 EXP SWAP1 DIV PUSH20 0xFFFFFFFFFFFFFFFFFFFFFFFFFFFFFFFFFFFFFFFF AND SWAP1 DUP1 PUSH1 0x5 ADD SLOAD SWAP1 DUP1 PUSH1 0x6 ADD PUSH1 0x0 SWAP1 SLOAD SWAP1 PUSH2 0x100 EXP SWAP1 DIV PUSH1 0xFF AND SWAP1 POP DUP8 JUMP JUMPDEST DUP2 PUSH1 0x0 DUP2 DUP2 SLOAD DUP2 LT PUSH2 0x36A JUMPI PUSH2 0x369 PUSH2 0x165E JUMP JUMPDEST JUMPDEST SWAP1 PUSH1 0x0 MSTORE PUSH1 0x20 PUSH1 0x0 KECCAK256 SWAP1 PUSH1 0x7 MUL ADD PUSH1 0x4 ADD PUSH1 0x0 SWAP1 SLOAD SWAP1 PUSH2 0x100 EXP SWAP1 DIV PUSH20 0xFFFFFFFFFFFFFFFFFFFFFFFFFFFFFFFFFFFFFFFF AND PUSH20 0xFFFFFFFFFFFFFFFFFFFFFFFFFFFFFFFFFFFFFFFF AND CALLER PUSH20 0xFFFFFFFFFFFFFFFFFFFFFFFFFFFFFFFFFFFFFFFF AND EQ PUSH2 0x409 JUMPI PUSH1 0x40 MLOAD PUSH32 0x8C379A000000000000000000000000000000000000000000000000000000000 DUP2 MSTORE PUSH1 0x4 ADD PUSH2 0x400 SWAP1 PUSH2 0x1391 JUMP JUMPDEST PUSH1 0x40 MLOAD DUP1 SWAP2 SUB SWAP1 REVERT JUMPDEST DUP2 PUSH1 0x1 DUP2 GT ISZERO PUSH2 0x41C JUMPI PUSH2 0x41B PUSH2 0x1600 JUMP JUMPDEST JUMPDEST PUSH1 0x0 DUP5 DUP2 SLOAD DUP2 LT PUSH2 0x430 JUMPI PUSH2 0x42F PUSH2 0x165E JUMP JUMPDEST JUMPDEST SWAP1 PUSH1 0x0 MSTORE PUSH1 0x20 PUSH1 0x0 KECCAK256 SWAP1 PUSH1 0x7 MUL ADD PUSH1 0x6 ADD PUSH1 0x0 SWAP1 SLOAD SWAP1 PUSH2 0x100 EXP SWAP1 DIV PUSH1 0xFF AND PUSH1 0x1 DUP2 GT ISZERO PUSH2 0x461 JUMPI PUSH2 0x460 PUSH2 0x1600 JUMP JUMPDEST JUMPDEST EQ ISZERO PUSH2 0x4A2 JUMPI PUSH1 0x40 MLOAD PUSH32 0x8C379A000000000000000000000000000000000000000000000000000000000 DUP2 MSTORE PUSH1 0x4 ADD PUSH2 0x499 SWAP1 PUSH2 0x1351 JUMP JUMPDEST PUSH1 0x40 MLOAD DUP1 SWAP2 SUB SWAP1 REVERT JUMPDEST DUP2 PUSH1 0x0 DUP5 DUP2 SLOAD DUP2 LT PUSH2 0x4B7 JUMPI PUSH2 0x4B6 PUSH2 0x165E JUMP JUMPDEST JUMPDEST SWAP1 PUSH1 0x0 MSTORE PUSH1 0x20 PUSH1 0x0 KECCAK256 SWAP1 PUSH1 0x7 MUL ADD PUSH1 0x6 ADD PUSH1 0x0 PUSH2 0x100 EXP DUP2 SLOAD DUP2 PUSH1 0xFF MUL NOT AND SWAP1 DUP4 PUSH1 0x1 DUP2 GT ISZERO PUSH2 0x4EA JUMPI PUSH2 0x4E9 PUSH2 0x1600 JUMP JUMPDEST JUMPDEST MUL OR SWAP1 SSTORE POP PUSH32 0xB364AB0CADEC04BEC8A97E81743129CECC3480279FB67B9378DF4219238B250F PUSH1 0x0 DUP5 DUP2 SLOAD DUP2 LT PUSH2 0x524 JUMPI PUSH2 0x523 PUSH2 0x165E JUMP JUMPDEST JUMPDEST SWAP1 PUSH1 0x0 MSTORE PUSH1 0x20 PUSH1 0x0 KECCAK256 SWAP1 PUSH1 0x7 MUL ADD PUSH1 0x0 ADD DUP4 PUSH1 0x40 MLOAD PUSH2 0x544 SWAP3 SWAP2 SWAP1 PUSH2 0x12D1 JUMP JUMPDEST PUSH1 0x40 MLOAD DUP1 SWAP2 SUB SWAP1 LOG1 POP POP POP JUMP JUMPDEST PUSH1 0x0 DUP2 GT PUSH2 0x594 JUMPI PUSH1 0x40 MLOAD PUSH32 0x8C379A000000000000000000000000000000000000000000000000000000000 DUP2 MSTORE PUSH1 0x4 ADD PUSH2 0x58B SWAP1 PUSH2 0x13B1 JUMP JUMPDEST PUSH1 0x40 MLOAD DUP1 SWAP2 SUB SWAP1 REVERT JUMPDEST PUSH1 0x0 PUSH1 0x40 MLOAD DUP1 PUSH1 0xE0 ADD PUSH1 0x40 MSTORE DUP1 DUP10 DUP10 DUP1 DUP1 PUSH1 0x1F ADD PUSH1 0x20 DUP1 SWAP2 DIV MUL PUSH1 0x20 ADD PUSH1 0x40 MLOAD SWAP1 DUP2 ADD PUSH1 0x40 MSTORE DUP1 SWAP4 SWAP3 SWAP2 SWAP1 DUP2 DUP2 MSTORE PUSH1 0x20 ADD DUP4 DUP4 DUP1 DUP3 DUP5 CALLDATACOPY PUSH1 0x0 DUP2 DUP5 ADD MSTORE PUSH1 0x1F NOT PUSH1 0x1F DUP3 ADD AND SWAP1 POP DUP1 DUP4 ADD SWAP3 POP POP POP POP POP POP POP DUP2 MSTORE PUSH1 0x20 ADD DUP8 DUP8 DUP1 DUP1 PUSH1 0x1F ADD PUSH1 0x20 DUP1 SWAP2 DIV MUL PUSH1 0x20 ADD PUSH1 0x40 MLOAD SWAP1 DUP2 ADD PUSH1 0x40 MSTORE DUP1 SWAP4 SWAP3 SWAP2 SWAP1 DUP2 DUP2 MSTORE PUSH1 0x20 ADD DUP4 DUP4 DUP1 DUP3 DUP5 CALLDATACOPY PUSH1 0x0 DUP2 DUP5 ADD MSTORE PUSH1 0x1F NOT PUSH1 0x1F DUP3 ADD AND SWAP1 POP DUP1 DUP4 ADD SWAP3 POP POP POP POP POP POP POP DUP2 MSTORE PUSH1 0x20 ADD DUP6 DUP6 DUP1 DUP1 PUSH1 0x1F ADD PUSH1 0x20 DUP1 SWAP2 DIV MUL PUSH1 0x20 ADD PUSH1 0x40 MLOAD SWAP1 DUP2 ADD PUSH1 0x40 MSTORE DUP1 SWAP4 SWAP3 SWAP2 SWAP1 DUP2 DUP2 MSTORE PUSH1 0x20 ADD DUP4 DUP4 DUP1 DUP3 DUP5 CALLDATACOPY PUSH1 0x0 DUP2 DUP5 ADD MSTORE PUSH1 0x1F NOT PUSH1 0x1F DUP3 ADD AND SWAP1 POP DUP1 DUP4 ADD SWAP3 POP POP POP POP POP POP POP DUP2 MSTORE PUSH1 0x20 ADD DUP4 DUP2 MSTORE PUSH1 0x20 ADD CALLER PUSH20 0xFFFFFFFFFFFFFFFFFFFFFFFFFFFFFFFFFFFFFFFF AND DUP2 MSTORE PUSH1 0x20 ADD PUSH1 0x0 DUP2 MSTORE PUSH1 0x20 ADD PUSH1 0x0 PUSH1 0x1 DUP2 GT ISZERO PUSH2 0x6BC JUMPI PUSH2 0x6BB PUSH2 0x1600 JUMP JUMPDEST JUMPDEST DUP2 MSTORE POP SWAP1 POP PUSH1 0x0 DUP2 SWAP1 DUP1 PUSH1 0x1 DUP2 SLOAD ADD DUP1 DUP3 SSTORE DUP1 SWAP2 POP POP PUSH1 0x1 SWAP1 SUB SWAP1 PUSH1 0x0 MSTORE PUSH1 0x20 PUSH1 0x0 KECCAK256 SWAP1 PUSH1 0x7 MUL ADD PUSH1 0x0 SWAP1 SWAP2 SWAP1 SWAP2 SWAP1 SWAP2 POP PUSH1 0x0 DUP3 ADD MLOAD DUP2 PUSH1 0x0 ADD SWAP1 DUP1 MLOAD SWAP1 PUSH1 0x20 ADD SWAP1 PUSH2 0x709 SWAP3 SWAP2 SWAP1 PUSH2 0xC38 JUMP JUMPDEST POP PUSH1 0x20 DUP3 ADD MLOAD DUP2 PUSH1 0x1 ADD SWAP1 DUP1 MLOAD SWAP1 PUSH1 0x20 ADD SWAP1 PUSH2 0x726 SWAP3 SWAP2 SWAP1 PUSH2 0xC38 JUMP JUMPDEST POP PUSH1 0x40 DUP3 ADD MLOAD DUP2 PUSH1 0x2 ADD SWAP1 DUP1 MLOAD SWAP1 PUSH1 0x20 ADD SWAP1 PUSH2 0x743 SWAP3 SWAP2 SWAP1 PUSH2 0xC38 JUMP JUMPDEST POP PUSH1 0x60 DUP3 ADD MLOAD DUP2 PUSH1 0x3 ADD SSTORE PUSH1 0x80 DUP3 ADD MLOAD DUP2 PUSH1 0x4 ADD PUSH1 0x0 PUSH2 0x100 EXP DUP2 SLOAD DUP2 PUSH20 0xFFFFFFFFFFFFFFFFFFFFFFFFFFFFFFFFFFFFFFFF MUL NOT AND SWAP1 DUP4 PUSH20 0xFFFFFFFFFFFFFFFFFFFFFFFFFFFFFFFFFFFFFFFF AND MUL OR SWAP1 SSTORE POP PUSH1 0xA0 DUP3 ADD MLOAD DUP2 PUSH1 0x5 ADD SSTORE PUSH1 0xC0 DUP3 ADD MLOAD DUP2 PUSH1 0x6 ADD PUSH1 0x0 PUSH2 0x100 EXP DUP2 SLOAD DUP2 PUSH1 0xFF MUL NOT AND SWAP1 DUP4 PUSH1 0x1 DUP2 GT ISZERO PUSH2 0x7CA JUMPI PUSH2 0x7C9 PUSH2 0x1600 JUMP JUMPDEST JUMPDEST MUL OR SWAP1 SSTORE POP POP POP PUSH32 0x95DF29175008DEB1F139C97A80AB29EE4F48D3BECE10E0DC24BEEA55367AEDFF DUP9 DUP9 DUP9 DUP9 DUP9 DUP9 DUP9 PUSH1 0x40 MLOAD PUSH2 0x80C SWAP8 SWAP7 SWAP6 SWAP5 SWAP4 SWAP3 SWAP2 SWAP1 PUSH2 0x11ED JUMP JUMPDEST PUSH1 0x40 MLOAD DUP1 SWAP2 SUB SWAP1 LOG1 POP POP POP POP POP POP POP POP JUMP JUMPDEST DUP1 PUSH1 0x0 DUP2 DUP2 SLOAD DUP2 LT PUSH2 0x833 JUMPI PUSH2 0x832 PUSH2 0x165E JUMP JUMPDEST JUMPDEST SWAP1 PUSH1 0x0 MSTORE PUSH1 0x20 PUSH1 0x0 KECCAK256 SWAP1 PUSH1 0x7 MUL ADD PUSH1 0x4 ADD PUSH1 0x0 SWAP1 SLOAD SWAP1 PUSH2 0x100 EXP SWAP1 DIV PUSH20 0xFFFFFFFFFFFFFFFFFFFFFFFFFFFFFFFFFFFFFFFF AND PUSH20 0xFFFFFFFFFFFFFFFFFFFFFFFFFFFFFFFFFFFFFFFF AND CALLER PUSH20 0xFFFFFFFFFFFFFFFFFFFFFFFFFFFFFFFFFFFFFFFF AND EQ ISZERO PUSH2 0x8D3 JUMPI PUSH1 0x40 MLOAD PUSH32 0x8C379A000000000000000000000000000000000000000000000000000000000 DUP2 MSTORE PUSH1 0x4 ADD PUSH2 0x8CA SWAP1 PUSH2 0x1331 JUMP JUMPDEST PUSH1 0x40 MLOAD DUP1 SWAP2 SUB SWAP1 REVERT JUMPDEST PUSH1 0x1 DUP1 DUP2 GT ISZERO PUSH2 0x8E6 JUMPI PUSH2 0x8E5 PUSH2 0x1600 JUMP JUMPDEST JUMPDEST PUSH1 0x0 DUP4 DUP2 SLOAD DUP2 LT PUSH2 0x8FA JUMPI PUSH2 0x8F9 PUSH2 0x165E JUMP JUMPDEST JUMPDEST SWAP1 PUSH1 0x0 MSTORE PUSH1 0x20 PUSH1 0x0 KECCAK256 SWAP1 PUSH1 0x7 MUL ADD PUSH1 0x6 ADD PUSH1 0x0 SWAP1 SLOAD SWAP1 PUSH2 0x100 EXP SWAP1 DIV PUSH1 0xFF AND PUSH1 0x1 DUP2 GT ISZERO PUSH2 0x92B JUMPI PUSH2 0x92A PUSH2 0x1600 JUMP JUMPDEST JUMPDEST EQ ISZERO PUSH2 0x96C JUMPI PUSH1 0x40 MLOAD PUSH32 0x8C379A000000000000000000000000000000000000000000000000000000000 DUP2 MSTORE PUSH1 0x4 ADD PUSH2 0x963 SWAP1 PUSH2 0x1371 JUMP JUMPDEST PUSH1 0x40 MLOAD DUP1 SWAP2 SUB SWAP1 REVERT JUMPDEST PUSH1 0x0 CALLVALUE GT PUSH2 0x9AF JUMPI PUSH1 0x40 MLOAD PUSH32 0x8C379A000000000000000000000000000000000000000000000000000000000 DUP2 MSTORE PUSH1 0x4 ADD PUSH2 0x9A6 SWAP1 PUSH2 0x13B1 JUMP JUMPDEST PUSH1 0x40 MLOAD DUP1 SWAP2 SUB SWAP1 REVERT JUMPDEST PUSH1 0x0 DUP3 DUP2 SLOAD DUP2 LT PUSH2 0x9C3 JUMPI PUSH2 0x9C2 PUSH2 0x165E JUMP JUMPDEST JUMPDEST SWAP1 PUSH1 0x0 MSTORE PUSH1 0x20 PUSH1 0x0 KECCAK256 SWAP1 PUSH1 0x7 MUL ADD PUSH1 0x4 ADD PUSH1 0x0 SWAP1 SLOAD SWAP1 PUSH2 0x100 EXP SWAP1 DIV PUSH20 0xFFFFFFFFFFFFFFFFFFFFFFFFFFFFFFFFFFFFFFFF AND PUSH20 0xFFFFFFFFFFFFFFFFFFFFFFFFFFFFFFFFFFFFFFFF AND PUSH2 0x8FC CALLVALUE SWAP1 DUP2 ISZERO MUL SWAP1 PUSH1 0x40 MLOAD PUSH1 0x0 PUSH1 0x40 MLOAD DUP1 DUP4 SUB DUP2 DUP6 DUP9 DUP9 CALL SWAP4 POP POP POP POP ISZERO DUP1 ISZERO PUSH2 0xA3A JUMPI RETURNDATASIZE PUSH1 0x0 DUP1 RETURNDATACOPY RETURNDATASIZE PUSH1 0x0 REVERT JUMPDEST POP CALLVALUE PUSH1 0x0 DUP4 DUP2 SLOAD DUP2 LT PUSH2 0xA50 JUMPI PUSH2 0xA4F PUSH2 0x165E JUMP JUMPDEST JUMPDEST SWAP1 PUSH1 0x0 MSTORE PUSH1 0x20 PUSH1 0x0 KECCAK256 SWAP1 PUSH1 0x7 MUL ADD PUSH1 0x5 ADD PUSH1 0x0 DUP3 DUP3 SLOAD PUSH2 0xA70 SWAP2 SWAP1 PUSH2 0x1463 JUMP JUMPDEST SWAP3 POP POP DUP2 SWAP1 SSTORE POP PUSH1 0x1 PUSH1 0x0 DUP4 DUP2 SLOAD DUP2 LT PUSH2 0xA8D JUMPI PUSH2 0xA8C PUSH2 0x165E JUMP JUMPDEST JUMPDEST SWAP1 PUSH1 0x0 MSTORE PUSH1 0x20 PUSH1 0x0 KECCAK256 SWAP1 PUSH1 0x7 MUL ADD PUSH1 0x0 ADD PUSH1 0x40 MLOAD PUSH2 0xAAB SWAP2 SWAP1 PUSH2 0x11AD JUMP JUMPDEST SWAP1 DUP2 MSTORE PUSH1 0x20 ADD PUSH1 0x40 MLOAD DUP1 SWAP2 SUB SWAP1 KECCAK256 PUSH1 0x40 MLOAD DUP1 PUSH1 0x40 ADD PUSH1 0x40 MSTORE DUP1 CALLER PUSH20 0xFFFFFFFFFFFFFFFFFFFFFFFFFFFFFFFFFFFFFFFF AND DUP2 MSTORE PUSH1 0x20 ADD CALLVALUE DUP2 MSTORE POP SWAP1 DUP1 PUSH1 0x1 DUP2 SLOAD ADD DUP1 DUP3 SSTORE DUP1 SWAP2 POP POP PUSH1 0x1 SWAP1 SUB SWAP1 PUSH1 0x0 MSTORE PUSH1 0x20 PUSH1 0x0 KECCAK256 SWAP1 PUSH1 0x2 MUL ADD PUSH1 0x0 SWAP1 SWAP2 SWAP1 SWAP2 SWAP1 SWAP2 POP PUSH1 0x0 DUP3 ADD MLOAD DUP2 PUSH1 0x0 ADD PUSH1 0x0 PUSH2 0x100 EXP DUP2 SLOAD DUP2 PUSH20 0xFFFFFFFFFFFFFFFFFFFFFFFFFFFFFFFFFFFFFFFF MUL NOT AND SWAP1 DUP4 PUSH20 0xFFFFFFFFFFFFFFFFFFFFFFFFFFFFFFFFFFFFFFFF AND MUL OR SWAP1 SSTORE POP PUSH1 0x20 DUP3 ADD MLOAD DUP2 PUSH1 0x1 ADD SSTORE POP POP PUSH32 0x98A99E594DC0943C255BF9563AE2C4DA6FFCFD06F78B396B88988548AC825BA8 PUSH1 0x0 DUP4 DUP2 SLOAD DUP2 LT PUSH2 0xB95 JUMPI PUSH2 0xB94 PUSH2 0x165E JUMP JUMPDEST JUMPDEST SWAP1 PUSH1 0x0 MSTORE PUSH1 0x20 PUSH1 0x0 KECCAK256 SWAP1 PUSH1 0x7 MUL ADD PUSH1 0x0 ADD CALLVALUE PUSH1 0x40 MLOAD PUSH2 0xBB5 SWAP3 SWAP2 SWAP1 PUSH2 0x1301 JUMP JUMPDEST PUSH1 0x40 MLOAD DUP1 SWAP2 SUB SWAP1 LOG1 POP POP JUMP JUMPDEST PUSH1 0x1 DUP3 DUP1 MLOAD PUSH1 0x20 DUP2 ADD DUP3 ADD DUP1 MLOAD DUP5 DUP3 MSTORE PUSH1 0x20 DUP4 ADD PUSH1 0x20 DUP6 ADD KECCAK256 DUP2 DUP4 MSTORE DUP1 SWAP6 POP POP POP POP POP POP DUP2 DUP2 SLOAD DUP2 LT PUSH2 0xBF3 JUMPI PUSH1 0x0 DUP1 REVERT JUMPDEST SWAP1 PUSH1 0x0 MSTORE PUSH1 0x20 PUSH1 0x0 KECCAK256 SWAP1 PUSH1 0x2 MUL ADD PUSH1 0x0 SWAP2 POP SWAP2 POP POP DUP1 PUSH1 0x0 ADD PUSH1 0x0 SWAP1 SLOAD SWAP1 PUSH2 0x100 EXP SWAP1 DIV PUSH20 0xFFFFFFFFFFFFFFFFFFFFFFFFFFFFFFFFFFFFFFFF AND SWAP1 DUP1 PUSH1 0x1 ADD SLOAD SWAP1 POP DUP3 JUMP JUMPDEST DUP3 DUP1 SLOAD PUSH2 0xC44 SWAP1 PUSH2 0x156E JUMP JUMPDEST SWAP1 PUSH1 0x0 MSTORE PUSH1 0x20 PUSH1 0x0 KECCAK256 SWAP1 PUSH1 0x1F ADD PUSH1 0x20 SWAP1 DIV DUP2 ADD SWAP3 DUP3 PUSH2 0xC66 JUMPI PUSH1 0x0 DUP6 SSTORE PUSH2 0xCAD JUMP JUMPDEST DUP3 PUSH1 0x1F LT PUSH2 0xC7F JUMPI DUP1 MLOAD PUSH1 0xFF NOT AND DUP4 DUP1 ADD OR DUP6 SSTORE PUSH2 0xCAD JUMP JUMPDEST DUP3 DUP1 ADD PUSH1 0x1 ADD DUP6 SSTORE DUP3 ISZERO PUSH2 0xCAD JUMPI SWAP2 DUP3 ADD JUMPDEST DUP3 DUP2 GT ISZERO PUSH2 0xCAC JUMPI DUP3 MLOAD DUP3 SSTORE SWAP2 PUSH1 0x20 ADD SWAP2 SWAP1 PUSH1 0x1 ADD SWAP1 PUSH2 0xC91 JUMP JUMPDEST JUMPDEST POP SWAP1 POP PUSH2 0xCBA SWAP2 SWAP1 PUSH2 0xCBE JUMP JUMPDEST POP SWAP1 JUMP JUMPDEST JUMPDEST DUP1 DUP3 GT ISZERO PUSH2 0xCD7 JUMPI PUSH1 0x0 DUP2 PUSH1 0x0 SWAP1 SSTORE POP PUSH1 0x1 ADD PUSH2 0xCBF JUMP JUMPDEST POP SWAP1 JUMP JUMPDEST PUSH1 0x0 PUSH2 0xCEE PUSH2 0xCE9 DUP5 PUSH2 0x13F6 JUMP JUMPDEST PUSH2 0x13D1 JUMP JUMPDEST SWAP1 POP DUP3 DUP2 MSTORE PUSH1 0x20 DUP2 ADD DUP5 DUP5 DUP5 ADD GT ISZERO PUSH2 0xD0A JUMPI PUSH2 0xD09 PUSH2 0x16CB JUMP JUMPDEST JUMPDEST PUSH2 0xD15 DUP5 DUP3 DUP6 PUSH2 0x152C JUMP JUMPDEST POP SWAP4 SWAP3 POP POP POP JUMP JUMPDEST PUSH1 0x0 DUP2 CALLDATALOAD SWAP1 POP PUSH2 0xD2C DUP2 PUSH2 0x1864 JUMP JUMPDEST SWAP3 SWAP2 POP POP JUMP JUMPDEST PUSH1 0x0 DUP1 DUP4 PUSH1 0x1F DUP5 ADD SLT PUSH2 0xD48 JUMPI PUSH2 0xD47 PUSH2 0x16C1 JUMP JUMPDEST JUMPDEST DUP3 CALLDATALOAD SWAP1 POP PUSH8 0xFFFFFFFFFFFFFFFF DUP2 GT ISZERO PUSH2 0xD65 JUMPI PUSH2 0xD64 PUSH2 0x16BC JUMP JUMPDEST JUMPDEST PUSH1 0x20 DUP4 ADD SWAP2 POP DUP4 PUSH1 0x1 DUP3 MUL DUP4 ADD GT ISZERO PUSH2 0xD81 JUMPI PUSH2 0xD80 PUSH2 0x16C6 JUMP JUMPDEST JUMPDEST SWAP3 POP SWAP3 SWAP1 POP JUMP JUMPDEST PUSH1 0x0 DUP3 PUSH1 0x1F DUP4 ADD SLT PUSH2 0xD9D JUMPI PUSH2 0xD9C PUSH2 0x16C1 JUMP JUMPDEST JUMPDEST DUP2 CALLDATALOAD PUSH2 0xDAD DUP5 DUP3 PUSH1 0x20 DUP7 ADD PUSH2 0xCDB JUMP JUMPDEST SWAP2 POP POP SWAP3 SWAP2 POP POP JUMP JUMPDEST PUSH1 0x0 DUP2 CALLDATALOAD SWAP1 POP PUSH2 0xDC5 DUP2 PUSH2 0x1874 JUMP JUMPDEST SWAP3 SWAP2 POP POP JUMP JUMPDEST PUSH1 0x0 DUP1 PUSH1 0x0 DUP1 PUSH1 0x0 DUP1 PUSH1 0x0 PUSH1 0x80 DUP9 DUP11 SUB SLT ISZERO PUSH2 0xDEA JUMPI PUSH2 0xDE9 PUSH2 0x16D5 JUMP JUMPDEST JUMPDEST PUSH1 0x0 DUP9 ADD CALLDATALOAD PUSH8 0xFFFFFFFFFFFFFFFF DUP2 GT ISZERO PUSH2 0xE08 JUMPI PUSH2 0xE07 PUSH2 0x16D0 JUMP JUMPDEST JUMPDEST PUSH2 0xE14 DUP11 DUP3 DUP12 ADD PUSH2 0xD32 JUMP JUMPDEST SWAP8 POP SWAP8 POP POP PUSH1 0x20 DUP9 ADD CALLDATALOAD PUSH8 0xFFFFFFFFFFFFFFFF DUP2 GT ISZERO PUSH2 0xE37 JUMPI PUSH2 0xE36 PUSH2 0x16D0 JUMP JUMPDEST JUMPDEST PUSH2 0xE43 DUP11 DUP3 DUP12 ADD PUSH2 0xD32 JUMP JUMPDEST SWAP6 POP SWAP6 POP POP PUSH1 0x40 DUP9 ADD CALLDATALOAD PUSH8 0xFFFFFFFFFFFFFFFF DUP2 GT ISZERO PUSH2 0xE66 JUMPI PUSH2 0xE65 PUSH2 0x16D0 JUMP JUMPDEST JUMPDEST PUSH2 0xE72 DUP11 DUP3 DUP12 ADD PUSH2 0xD32 JUMP JUMPDEST SWAP4 POP SWAP4 POP POP PUSH1 0x60 PUSH2 0xE85 DUP11 DUP3 DUP12 ADD PUSH2 0xDB6 JUMP JUMPDEST SWAP2 POP POP SWAP3 SWAP6 SWAP9 SWAP2 SWAP5 SWAP8 POP SWAP3 SWAP6 POP JUMP JUMPDEST PUSH1 0x0 DUP1 PUSH1 0x40 DUP4 DUP6 SUB SLT ISZERO PUSH2 0xEAB JUMPI PUSH2 0xEAA PUSH2 0x16D5 JUMP JUMPDEST JUMPDEST PUSH1 0x0 DUP4 ADD CALLDATALOAD PUSH8 0xFFFFFFFFFFFFFFFF DUP2 GT ISZERO PUSH2 0xEC9 JUMPI PUSH2 0xEC8 PUSH2 0x16D0 JUMP JUMPDEST JUMPDEST PUSH2 0xED5 DUP6 DUP3 DUP7 ADD PUSH2 0xD88 JUMP JUMPDEST SWAP3 POP POP PUSH1 0x20 PUSH2 0xEE6 DUP6 DUP3 DUP7 ADD PUSH2 0xDB6 JUMP JUMPDEST SWAP2 POP POP SWAP3 POP SWAP3 SWAP1 POP JUMP JUMPDEST PUSH1 0x0 PUSH1 0x20 DUP3 DUP5 SUB SLT ISZERO PUSH2 0xF06 JUMPI PUSH2 0xF05 PUSH2 0x16D5 JUMP JUMPDEST JUMPDEST PUSH1 0x0 PUSH2 0xF14 DUP5 DUP3 DUP6 ADD PUSH2 0xDB6 JUMP JUMPDEST SWAP2 POP POP SWAP3 SWAP2 POP POP JUMP JUMPDEST PUSH1 0x0 DUP1 PUSH1 0x40 DUP4 DUP6 SUB SLT ISZERO PUSH2 0xF34 JUMPI PUSH2 0xF33 PUSH2 0x16D5 JUMP JUMPDEST JUMPDEST PUSH1 0x0 PUSH2 0xF42 DUP6 DUP3 DUP7 ADD PUSH2 0xDB6 JUMP JUMPDEST SWAP3 POP POP PUSH1 0x20 PUSH2 0xF53 DUP6 DUP3 DUP7 ADD PUSH2 0xD1D JUMP JUMPDEST SWAP2 POP POP SWAP3 POP SWAP3 SWAP1 POP JUMP JUMPDEST PUSH2 0xF66 DUP2 PUSH2 0x14CB JUMP JUMPDEST DUP3 MSTORE POP POP JUMP JUMPDEST PUSH2 0xF75 DUP2 PUSH2 0x14B9 JUMP JUMPDEST DUP3 MSTORE POP POP JUMP JUMPDEST PUSH2 0xF84 DUP2 PUSH2 0x151A JUMP JUMPDEST DUP3 MSTORE POP POP JUMP JUMPDEST PUSH1 0x0 PUSH2 0xF96 DUP4 DUP6 PUSH2 0x1447 JUMP JUMPDEST SWAP4 POP PUSH2 0xFA3 DUP4 DUP6 DUP5 PUSH2 0x152C JUMP JUMPDEST PUSH2 0xFAC DUP4 PUSH2 0x16DA JUMP JUMPDEST DUP5 ADD SWAP1 POP SWAP4 SWAP3 POP POP POP JUMP JUMPDEST PUSH1 0x0 PUSH2 0xFC2 DUP3 PUSH2 0x143C JUMP JUMPDEST PUSH2 0xFCC DUP2 DUP6 PUSH2 0x1447 JUMP JUMPDEST SWAP4 POP PUSH2 0xFDC DUP2 DUP6 PUSH1 0x20 DUP7 ADD PUSH2 0x153B JUMP JUMPDEST PUSH2 0xFE5 DUP2 PUSH2 0x16DA JUMP JUMPDEST DUP5 ADD SWAP2 POP POP SWAP3 SWAP2 POP POP JUMP JUMPDEST PUSH1 0x0 DUP2 SLOAD PUSH2 0xFFD DUP2 PUSH2 0x156E JUMP JUMPDEST PUSH2 0x1007 DUP2 DUP7 PUSH2 0x1447 JUMP JUMPDEST SWAP5 POP PUSH1 0x1 DUP3 AND PUSH1 0x0 DUP2 EQ PUSH2 0x1022 JUMPI PUSH1 0x1 DUP2 EQ PUSH2 0x1034 JUMPI PUSH2 0x1067 JUMP JUMPDEST PUSH1 0xFF NOT DUP4 AND DUP7 MSTORE PUSH1 0x20 DUP7 ADD SWAP4 POP PUSH2 0x1067 JUMP JUMPDEST PUSH2 0x103D DUP6 PUSH2 0x1427 JUMP JUMPDEST PUSH1 0x0 JUMPDEST DUP4 DUP2 LT ISZERO PUSH2 0x105F JUMPI DUP2 SLOAD DUP2 DUP10 ADD MSTORE PUSH1 0x1 DUP3 ADD SWAP2 POP PUSH1 0x20 DUP2 ADD SWAP1 POP PUSH2 0x1040 JUMP JUMPDEST DUP1 DUP9 ADD SWAP6 POP POP POP JUMPDEST POP POP POP SWAP3 SWAP2 POP POP JUMP JUMPDEST PUSH1 0x0 DUP2 SLOAD PUSH2 0x107D DUP2 PUSH2 0x156E JUMP JUMPDEST PUSH2 0x1087 DUP2 DUP7 PUSH2 0x1458 JUMP JUMPDEST SWAP5 POP PUSH1 0x1 DUP3 AND PUSH1 0x0 DUP2 EQ PUSH2 0x10A2 JUMPI PUSH1 0x1 DUP2 EQ PUSH2 0x10B3 JUMPI PUSH2 0x10E6 JUMP JUMPDEST PUSH1 0xFF NOT DUP4 AND DUP7 MSTORE DUP2 DUP7 ADD SWAP4 POP PUSH2 0x10E6 JUMP JUMPDEST PUSH2 0x10BC DUP6 PUSH2 0x1427 JUMP JUMPDEST PUSH1 0x0 JUMPDEST DUP4 DUP2 LT ISZERO PUSH2 0x10DE JUMPI DUP2 SLOAD DUP2 DUP10 ADD MSTORE PUSH1 0x1 DUP3 ADD SWAP2 POP PUSH1 0x20 DUP2 ADD SWAP1 POP PUSH2 0x10BF JUMP JUMPDEST DUP4 DUP9 ADD SWAP6 POP POP POP JUMPDEST POP POP POP SWAP3 SWAP2 POP POP JUMP JUMPDEST PUSH1 0x0 PUSH2 0x10FC PUSH1 0x22 DUP4 PUSH2 0x1447 JUMP JUMPDEST SWAP2 POP PUSH2 0x1107 DUP3 PUSH2 0x16EB JUMP JUMPDEST PUSH1 0x40 DUP3 ADD SWAP1 POP SWAP2 SWAP1 POP JUMP JUMPDEST PUSH1 0x0 PUSH2 0x111F PUSH1 0x1B DUP4 PUSH2 0x1447 JUMP JUMPDEST SWAP2 POP PUSH2 0x112A DUP3 PUSH2 0x173A JUMP JUMPDEST PUSH1 0x20 DUP3 ADD SWAP1 POP SWAP2 SWAP1 POP JUMP JUMPDEST PUSH1 0x0 PUSH2 0x1142 PUSH1 0x24 DUP4 PUSH2 0x1447 JUMP JUMPDEST SWAP2 POP PUSH2 0x114D DUP3 PUSH2 0x1763 JUMP JUMPDEST PUSH1 0x40 DUP3 ADD SWAP1 POP SWAP2 SWAP1 POP JUMP JUMPDEST PUSH1 0x0 PUSH2 0x1165 PUSH1 0x2F DUP4 PUSH2 0x1447 JUMP JUMPDEST SWAP2 POP PUSH2 0x1170 DUP3 PUSH2 0x17B2 JUMP JUMPDEST PUSH1 0x40 DUP3 ADD SWAP1 POP SWAP2 SWAP1 POP JUMP JUMPDEST PUSH1 0x0 PUSH2 0x1188 PUSH1 0x22 DUP4 PUSH2 0x1447 JUMP JUMPDEST SWAP2 POP PUSH2 0x1193 DUP3 PUSH2 0x1801 JUMP JUMPDEST PUSH1 0x40 DUP3 ADD SWAP1 POP SWAP2 SWAP1 POP JUMP JUMPDEST PUSH2 0x11A7 DUP2 PUSH2 0x1510 JUMP JUMPDEST DUP3 MSTORE POP POP JUMP JUMPDEST PUSH1 0x0 PUSH2 0x11B9 DUP3 DUP5 PUSH2 0x1070 JUMP JUMPDEST SWAP2 POP DUP2 SWAP1 POP SWAP3 SWAP2 POP POP JUMP JUMPDEST PUSH1 0x0 PUSH1 0x40 DUP3 ADD SWAP1 POP PUSH2 0x11D9 PUSH1 0x0 DUP4 ADD DUP6 PUSH2 0xF6C JUMP JUMPDEST PUSH2 0x11E6 PUSH1 0x20 DUP4 ADD DUP5 PUSH2 0x119E JUMP JUMPDEST SWAP4 SWAP3 POP POP POP JUMP JUMPDEST PUSH1 0x0 PUSH1 0x80 DUP3 ADD SWAP1 POP DUP2 DUP2 SUB PUSH1 0x0 DUP4 ADD MSTORE PUSH2 0x1208 DUP2 DUP10 DUP12 PUSH2 0xF8A JUMP JUMPDEST SWAP1 POP DUP2 DUP2 SUB PUSH1 0x20 DUP4 ADD MSTORE PUSH2 0x121D DUP2 DUP8 DUP10 PUSH2 0xF8A JUMP JUMPDEST SWAP1 POP DUP2 DUP2 SUB PUSH1 0x40 DUP4 ADD MSTORE PUSH2 0x1232 DUP2 DUP6 DUP8 PUSH2 0xF8A JUMP JUMPDEST SWAP1 POP PUSH2 0x1241 PUSH1 0x60 DUP4 ADD DUP5 PUSH2 0x119E JUMP JUMPDEST SWAP9 SWAP8 POP POP POP POP POP POP POP POP JUMP JUMPDEST PUSH1 0x0 PUSH1 0xE0 DUP3 ADD SWAP1 POP DUP2 DUP2 SUB PUSH1 0x0 DUP4 ADD MSTORE PUSH2 0x1267 DUP2 DUP11 PUSH2 0xFB7 JUMP JUMPDEST SWAP1 POP DUP2 DUP2 SUB PUSH1 0x20 DUP4 ADD MSTORE PUSH2 0x127B DUP2 DUP10 PUSH2 0xFB7 JUMP JUMPDEST SWAP1 POP DUP2 DUP2 SUB PUSH1 0x40 DUP4 ADD MSTORE PUSH2 0x128F DUP2 DUP9 PUSH2 0xFB7 JUMP JUMPDEST SWAP1 POP PUSH2 0x129E PUSH1 0x60 DUP4 ADD DUP8 PUSH2 0x119E JUMP JUMPDEST PUSH2 0x12AB PUSH1 0x80 DUP4 ADD DUP7 PUSH2 0xF5D JUMP JUMPDEST PUSH2 0x12B8 PUSH1 0xA0 DUP4 ADD DUP6 PUSH2 0x119E JUMP JUMPDEST PUSH2 0x12C5 PUSH1 0xC0 DUP4 ADD DUP5 PUSH2 0xF7B JUMP JUMPDEST SWAP9 SWAP8 POP POP POP POP POP POP POP POP JUMP JUMPDEST PUSH1 0x0 PUSH1 0x40 DUP3 ADD SWAP1 POP DUP2 DUP2 SUB PUSH1 0x0 DUP4 ADD MSTORE PUSH2 0x12EB DUP2 DUP6 PUSH2 0xFF0 JUMP JUMPDEST SWAP1 POP PUSH2 0x12FA PUSH1 0x20 DUP4 ADD DUP5 PUSH2 0xF7B JUMP JUMPDEST SWAP4 SWAP3 POP POP POP JUMP JUMPDEST PUSH1 0x0 PUSH1 0x40 DUP3 ADD SWAP1 POP DUP2 DUP2 SUB PUSH1 0x0 DUP4 ADD MSTORE PUSH2 0x131B DUP2 DUP6 PUSH2 0xFF0 JUMP JUMPDEST SWAP1 POP PUSH2 0x132A PUSH1 0x20 DUP4 ADD DUP5 PUSH2 0x119E JUMP JUMPDEST SWAP4 SWAP3 POP POP POP JUMP JUMPDEST PUSH1 0x0 PUSH1 0x20 DUP3 ADD SWAP1 POP DUP2 DUP2 SUB PUSH1 0x0 DUP4 ADD MSTORE PUSH2 0x134A DUP2 PUSH2 0x10EF JUMP JUMPDEST SWAP1 POP SWAP2 SWAP1 POP JUMP JUMPDEST PUSH1 0x0 PUSH1 0x20 DUP3 ADD SWAP1 POP DUP2 DUP2 SUB PUSH1 0x0 DUP4 ADD MSTORE PUSH2 0x136A DUP2 PUSH2 0x1112 JUMP JUMPDEST SWAP1 POP SWAP2 SWAP1 POP JUMP JUMPDEST PUSH1 0x0 PUSH1 0x20 DUP3 ADD SWAP1 POP DUP2 DUP2 SUB PUSH1 0x0 DUP4 ADD MSTORE PUSH2 0x138A DUP2 PUSH2 0x1135 JUMP JUMPDEST SWAP1 POP SWAP2 SWAP1 POP JUMP JUMPDEST PUSH1 0x0 PUSH1 0x20 DUP3 ADD SWAP1 POP DUP2 DUP2 SUB PUSH1 0x0 DUP4 ADD MSTORE PUSH2 0x13AA DUP2 PUSH2 0x1158 JUMP JUMPDEST SWAP1 POP SWAP2 SWAP1 POP JUMP JUMPDEST PUSH1 0x0 PUSH1 0x20 DUP3 ADD SWAP1 POP DUP2 DUP2 SUB PUSH1 0x0 DUP4 ADD MSTORE PUSH2 0x13CA DUP2 PUSH2 0x117B JUMP JUMPDEST SWAP1 POP SWAP2 SWAP1 POP JUMP JUMPDEST PUSH1 0x0 PUSH2 0x13DB PUSH2 0x13EC JUMP JUMPDEST SWAP1 POP PUSH2 0x13E7 DUP3 DUP3 PUSH2 0x15A0 JUMP JUMPDEST SWAP2 SWAP1 POP JUMP JUMPDEST PUSH1 0x0 PUSH1 0x40 MLOAD SWAP1 POP SWAP1 JUMP JUMPDEST PUSH1 0x0 PUSH8 0xFFFFFFFFFFFFFFFF DUP3 GT ISZERO PUSH2 0x1411 JUMPI PUSH2 0x1410 PUSH2 0x168D JUMP JUMPDEST JUMPDEST PUSH2 0x141A DUP3 PUSH2 0x16DA JUMP JUMPDEST SWAP1 POP PUSH1 0x20 DUP2 ADD SWAP1 POP SWAP2 SWAP1 POP JUMP JUMPDEST PUSH1 0x0 DUP2 SWAP1 POP DUP2 PUSH1 0x0 MSTORE PUSH1 0x20 PUSH1 0x0 KECCAK256 SWAP1 POP SWAP2 SWAP1 POP JUMP JUMPDEST PUSH1 0x0 DUP2 MLOAD SWAP1 POP SWAP2 SWAP1 POP JUMP JUMPDEST PUSH1 0x0 DUP3 DUP3 MSTORE PUSH1 0x20 DUP3 ADD SWAP1 POP SWAP3 SWAP2 POP POP JUMP JUMPDEST PUSH1 0x0 DUP2 SWAP1 POP SWAP3 SWAP2 POP POP JUMP JUMPDEST PUSH1 0x0 PUSH2 0x146E DUP3 PUSH2 0x1510 JUMP JUMPDEST SWAP2 POP PUSH2 0x1479 DUP4 PUSH2 0x1510 JUMP JUMPDEST SWAP3 POP DUP3 PUSH32 0xFFFFFFFFFFFFFFFFFFFFFFFFFFFFFFFFFFFFFFFFFFFFFFFFFFFFFFFFFFFFFFFF SUB DUP3 GT ISZERO PUSH2 0x14AE JUMPI PUSH2 0x14AD PUSH2 0x15D1 JUMP JUMPDEST JUMPDEST DUP3 DUP3 ADD SWAP1 POP SWAP3 SWAP2 POP POP JUMP JUMPDEST PUSH1 0x0 PUSH2 0x14C4 DUP3 PUSH2 0x14F0 JUMP JUMPDEST SWAP1 POP SWAP2 SWAP1 POP JUMP JUMPDEST PUSH1 0x0 PUSH2 0x14D6 DUP3 PUSH2 0x14F0 JUMP JUMPDEST SWAP1 POP SWAP2 SWAP1 POP JUMP JUMPDEST PUSH1 0x0 DUP2 SWAP1 POP PUSH2 0x14EB DUP3 PUSH2 0x1850 JUMP JUMPDEST SWAP2 SWAP1 POP JUMP JUMPDEST PUSH1 0x0 PUSH20 0xFFFFFFFFFFFFFFFFFFFFFFFFFFFFFFFFFFFFFFFF DUP3 AND SWAP1 POP SWAP2 SWAP1 POP JUMP JUMPDEST PUSH1 0x0 DUP2 SWAP1 POP SWAP2 SWAP1 POP JUMP JUMPDEST PUSH1 0x0 PUSH2 0x1525 DUP3 PUSH2 0x14DD JUMP JUMPDEST SWAP1 POP SWAP2 SWAP1 POP JUMP JUMPDEST DUP3 DUP2 DUP4 CALLDATACOPY PUSH1 0x0 DUP4 DUP4 ADD MSTORE POP POP POP JUMP JUMPDEST PUSH1 0x0 JUMPDEST DUP4 DUP2 LT ISZERO PUSH2 0x1559 JUMPI DUP1 DUP3 ADD MLOAD DUP2 DUP5 ADD MSTORE PUSH1 0x20 DUP2 ADD SWAP1 POP PUSH2 0x153E JUMP JUMPDEST DUP4 DUP2 GT ISZERO PUSH2 0x1568 JUMPI PUSH1 0x0 DUP5 DUP5 ADD MSTORE JUMPDEST POP POP POP POP JUMP JUMPDEST PUSH1 0x0 PUSH1 0x2 DUP3 DIV SWAP1 POP PUSH1 0x1 DUP3 AND DUP1 PUSH2 0x1586 JUMPI PUSH1 0x7F DUP3 AND SWAP2 POP JUMPDEST PUSH1 0x20 DUP3 LT DUP2 EQ ISZERO PUSH2 0x159A JUMPI PUSH2 0x1599 PUSH2 0x162F JUMP JUMPDEST JUMPDEST POP SWAP2 SWAP1 POP JUMP JUMPDEST PUSH2 0x15A9 DUP3 PUSH2 0x16DA JUMP JUMPDEST DUP2 ADD DUP2 DUP2 LT PUSH8 0xFFFFFFFFFFFFFFFF DUP3 GT OR ISZERO PUSH2 0x15C8 JUMPI PUSH2 0x15C7 PUSH2 0x168D JUMP JUMPDEST JUMPDEST DUP1 PUSH1 0x40 MSTORE POP POP POP JUMP JUMPDEST PUSH32 0x4E487B7100000000000000000000000000000000000000000000000000000000 PUSH1 0x0 MSTORE PUSH1 0x11 PUSH1 0x4 MSTORE PUSH1 0x24 PUSH1 0x0 REVERT JUMPDEST PUSH32 0x4E487B7100000000000000000000000000000000000000000000000000000000 PUSH1 0x0 MSTORE PUSH1 0x21 PUSH1 0x4 MSTORE PUSH1 0x24 PUSH1 0x0 REVERT JUMPDEST PUSH32 0x4E487B7100000000000000000000000000000000000000000000000000000000 PUSH1 0x0 MSTORE PUSH1 0x22 PUSH1 0x4 MSTORE PUSH1 0x24 PUSH1 0x0 REVERT JUMPDEST PUSH32 0x4E487B7100000000000000000000000000000000000000000000000000000000 PUSH1 0x0 MSTORE PUSH1 0x32 PUSH1 0x4 MSTORE PUSH1 0x24 PUSH1 0x0 REVERT JUMPDEST PUSH32 0x4E487B7100000000000000000000000000000000000000000000000000000000 PUSH1 0x0 MSTORE PUSH1 0x41 PUSH1 0x4 MSTORE PUSH1 0x24 PUSH1 0x0 REVERT JUMPDEST PUSH1 0x0 DUP1 REVERT JUMPDEST PUSH1 0x0 DUP1 REVERT JUMPDEST PUSH1 0x0 DUP1 REVERT JUMPDEST PUSH1 0x0 DUP1 REVERT JUMPDEST PUSH1 0x0 DUP1 REVERT JUMPDEST PUSH1 0x0 DUP1 REVERT JUMPDEST PUSH1 0x0 PUSH1 0x1F NOT PUSH1 0x1F DUP4 ADD AND SWAP1 POP SWAP2 SWAP1 POP JUMP JUMPDEST PUSH32 0x54686520617574686F722063616E6E6F742066756E64207468652070726F6A65 PUSH1 0x0 DUP3 ADD MSTORE PUSH32 0x6374000000000000000000000000000000000000000000000000000000000000 PUSH1 0x20 DUP3 ADD MSTORE POP JUMP JUMPDEST PUSH32 0x4E6577207374617465206D75737420626520646966666572656E740000000000 PUSH1 0x0 DUP3 ADD MSTORE POP JUMP JUMPDEST PUSH32 0x5468652066756E64696E67206F66207468652070726F6A65637420697320636C PUSH1 0x0 DUP3 ADD MSTORE PUSH32 0x6F73656400000000000000000000000000000000000000000000000000000000 PUSH1 0x20 DUP3 ADD MSTORE POP JUMP JUMPDEST PUSH32 0x4F6E6C7920617574686F722063616E206368616E676520746865207374617465 PUSH1 0x0 DUP3 ADD MSTORE PUSH32 0x206F66207468652070726F6A6563740000000000000000000000000000000000 PUSH1 0x20 DUP3 ADD MSTORE POP JUMP JUMPDEST PUSH32 0x66756E6472616973696E67206D7573742062652067726561746572207468616E PUSH1 0x0 DUP3 ADD MSTORE PUSH32 0x2030000000000000000000000000000000000000000000000000000000000000 PUSH1 0x20 DUP3 ADD MSTORE POP JUMP JUMPDEST PUSH1 0x2 DUP2 LT PUSH2 0x1861 JUMPI PUSH2 0x1860 PUSH2 0x1600 JUMP JUMPDEST JUMPDEST POP JUMP JUMPDEST PUSH1 0x2 DUP2 LT PUSH2 0x1871 JUMPI PUSH1 0x0 DUP1 REVERT JUMPDEST POP JUMP JUMPDEST PUSH2 0x187D DUP2 PUSH2 0x1510 JUMP JUMPDEST DUP2 EQ PUSH2 0x1888 JUMPI PUSH1 0x0 DUP1 REVERT JUMPDEST POP JUMP INVALID LOG2 PUSH5 0x6970667358 0x22 SLT KECCAK256 LT 0x5F SWAP6 INVALID OR 0x23 PUSH28 0x2EEFD519EE100FCEA7A4965AB06EBDAD74E7788BA630F625E264736F PUSH13 0x63430008070033000000000000 "
				},
				"gasEstimates": {
					"creation": {
						"codeDepositCost": "1267400",
						"executionCost": "1322",
						"totalCost": "1268722"
					},
					"external": {
						"changeProjectState(uint256,uint8)": "infinite",
						"contributions(string,uint256)": "infinite",
						"createProject(string,string,string,uint256)": "infinite",
						"fundProject(uint256)": "infinite",
						"projects(uint256)": "infinite"
					}
				},
				"methodIdentifiers": {
					"changeProjectState(uint256,uint8)": "17e925d7",
					"contributions(string,uint256)": "7f3fcdd9",
					"createProject(string,string,string,uint256)": "1ca73896",
					"fundProject(uint256)": "6c563abe",
					"projects(uint256)": "107046bd"
				}
			},
			"storageLayout": {
				"storage": [
					{
						"astId": 29,
						"contract": "contracts/project.sol:CrowdFunding",
						"label": "projects",
						"offset": 0,
						"slot": "0",
						"type": "t_array(t_struct(Project)20_storage)dyn_storage"
					},
					{
						"astId": 35,
						"contract": "contracts/project.sol:CrowdFunding",
						"label": "contributions",
						"offset": 0,
						"slot": "1",
						"type": "t_mapping(t_string_memory_ptr,t_array(t_struct(Contribution)25_storage)dyn_storage)"
					}
				],
				"types": {
					"t_address": {
						"encoding": "inplace",
						"label": "address",
						"numberOfBytes": "20"
					},
					"t_address_payable": {
						"encoding": "inplace",
						"label": "address payable",
						"numberOfBytes": "20"
					},
					"t_array(t_struct(Contribution)25_storage)dyn_storage": {
						"base": "t_struct(Contribution)25_storage",
						"encoding": "dynamic_array",
						"label": "struct CrowdFunding.Contribution[]",
						"numberOfBytes": "32"
					},
					"t_array(t_struct(Project)20_storage)dyn_storage": {
						"base": "t_struct(Project)20_storage",
						"encoding": "dynamic_array",
						"label": "struct CrowdFunding.Project[]",
						"numberOfBytes": "32"
					},
					"t_enum(State)4": {
						"encoding": "inplace",
						"label": "enum CrowdFunding.State",
						"numberOfBytes": "1"
					},
					"t_mapping(t_string_memory_ptr,t_array(t_struct(Contribution)25_storage)dyn_storage)": {
						"encoding": "mapping",
						"key": "t_string_memory_ptr",
						"label": "mapping(string => struct CrowdFunding.Contribution[])",
						"numberOfBytes": "32",
						"value": "t_array(t_struct(Contribution)25_storage)dyn_storage"
					},
					"t_string_memory_ptr": {
						"encoding": "bytes",
						"label": "string",
						"numberOfBytes": "32"
					},
					"t_string_storage": {
						"encoding": "bytes",
						"label": "string",
						"numberOfBytes": "32"
					},
					"t_struct(Contribution)25_storage": {
						"encoding": "inplace",
						"label": "struct CrowdFunding.Contribution",
						"members": [
							{
								"astId": 22,
								"contract": "contracts/project.sol:CrowdFunding",
								"label": "contributor",
								"offset": 0,
								"slot": "0",
								"type": "t_address"
							},
							{
								"astId": 24,
								"contract": "contracts/project.sol:CrowdFunding",
								"label": "value",
								"offset": 0,
								"slot": "1",
								"type": "t_uint256"
							}
						],
						"numberOfBytes": "64"
					},
					"t_struct(Project)20_storage": {
						"encoding": "inplace",
						"label": "struct CrowdFunding.Project",
						"members": [
							{
								"astId": 6,
								"contract": "contracts/project.sol:CrowdFunding",
								"label": "id",
								"offset": 0,
								"slot": "0",
								"type": "t_string_storage"
							},
							{
								"astId": 8,
								"contract": "contracts/project.sol:CrowdFunding",
								"label": "name",
								"offset": 0,
								"slot": "1",
								"type": "t_string_storage"
							},
							{
								"astId": 10,
								"contract": "contracts/project.sol:CrowdFunding",
								"label": "description",
								"offset": 0,
								"slot": "2",
								"type": "t_string_storage"
							},
							{
								"astId": 12,
								"contract": "contracts/project.sol:CrowdFunding",
								"label": "goal",
								"offset": 0,
								"slot": "3",
								"type": "t_uint256"
							},
							{
								"astId": 14,
								"contract": "contracts/project.sol:CrowdFunding",
								"label": "author",
								"offset": 0,
								"slot": "4",
								"type": "t_address_payable"
							},
							{
								"astId": 16,
								"contract": "contracts/project.sol:CrowdFunding",
								"label": "funds",
								"offset": 0,
								"slot": "5",
								"type": "t_uint256"
							},
							{
								"astId": 19,
								"contract": "contracts/project.sol:CrowdFunding",
								"label": "state",
								"offset": 0,
								"slot": "6",
								"type": "t_enum(State)4"
							}
						],
						"numberOfBytes": "224"
					},
					"t_uint256": {
						"encoding": "inplace",
						"label": "uint256",
						"numberOfBytes": "32"
					}
				}
			},
			"userdoc": {
				"kind": "user",
				"methods": {},
				"version": 1
			}
		}
	}
}