{
	"contracts/project.sol": {
		"CrowdFunding": {
			"abi": [
				{
					"inputs": [
						{
							"internalType": "string",
							"name": "_id",
							"type": "string"
						},
						{
							"internalType": "string",
							"name": "_name",
							"type": "string"
						},
						{
							"internalType": "string",
							"name": "_description",
							"type": "string"
						},
						{
							"internalType": "uint256",
							"name": "_goal",
							"type": "uint256"
						}
					],
					"stateMutability": "nonpayable",
					"type": "constructor"
				},
				{
					"anonymous": false,
					"inputs": [
						{
							"indexed": false,
							"internalType": "string",
							"name": "projectId",
							"type": "string"
						},
						{
							"indexed": false,
							"internalType": "enum CrowdFunding.State",
							"name": "newState",
							"type": "uint8"
						}
					],
					"name": "changeProjectStateLog",
					"type": "event"
				},
				{
					"anonymous": false,
					"inputs": [
						{
							"indexed": false,
							"internalType": "string",
							"name": "projectId",
							"type": "string"
						},
						{
							"indexed": false,
							"internalType": "uint256",
							"name": "newFunds",
							"type": "uint256"
						}
					],
					"name": "fundProjectLog",
					"type": "event"
				},
				{
					"inputs": [
						{
							"internalType": "enum CrowdFunding.State",
							"name": "newState",
							"type": "uint8"
						}
					],
					"name": "changeProjectState",
					"outputs": [],
					"stateMutability": "nonpayable",
					"type": "function"
				},
				{
					"inputs": [],
					"name": "fundProject",
					"outputs": [],
					"stateMutability": "payable",
					"type": "function"
				}
			],
			"devdoc": {
				"kind": "dev",
				"methods": {},
				"version": 1
			},
			"evm": {
				"assembly": "    /* \"contracts/project.sol\":74:1613  contract CrowdFunding {\r... */\n  mstore(0x40, 0x80)\n    /* \"contracts/project.sol\":331:662  constructor(string memory _id, string memory _name, string memory _description, uint _goal) {\r... */\n  callvalue\n  dup1\n  iszero\n  tag_1\n  jumpi\n  0x00\n  dup1\n  revert\ntag_1:\n  pop\n  mload(0x40)\n  sub(codesize, bytecodeSize)\n  dup1\n  bytecodeSize\n  dup4\n  codecopy\n  dup2\n  dup2\n  add\n  0x40\n  mstore\n  dup2\n  add\n  swap1\n  tag_2\n  swap2\n  swap1\n  tag_3\n  jump\t// in\ntag_2:\n    /* \"contracts/project.sol\":439:442  _id */\n  dup4\n    /* \"contracts/project.sol\":434:436  id */\n  0x00\n    /* \"contracts/project.sol\":434:442  id = _id */\n  swap1\n  dup1\n  mload\n  swap1\n  0x20\n  add\n  swap1\n  tag_6\n  swap3\n  swap2\n  swap1\n  tag_7\n  jump\t// in\ntag_6:\n  pop\n    /* \"contracts/project.sol\":460:465  _name */\n  dup3\n    /* \"contracts/project.sol\":453:457  name */\n  0x01\n    /* \"contracts/project.sol\":453:465  name = _name */\n  swap1\n  dup1\n  mload\n  swap1\n  0x20\n  add\n  swap1\n  tag_8\n  swap3\n  swap2\n  swap1\n  tag_7\n  jump\t// in\ntag_8:\n  pop\n    /* \"contracts/project.sol\":489:501  _description */\n  dup2\n    /* \"contracts/project.sol\":476:487  description */\n  0x02\n    /* \"contracts/project.sol\":476:501  description= _description */\n  swap1\n  dup1\n  mload\n  swap1\n  0x20\n  add\n  swap1\n  tag_9\n  swap3\n  swap2\n  swap1\n  tag_7\n  jump\t// in\ntag_9:\n  pop\n    /* \"contracts/project.sol\":519:524  _goal */\n  dup1\n    /* \"contracts/project.sol\":512:516  goal */\n  0x03\n    /* \"contracts/project.sol\":512:524  goal = _goal */\n  dup2\n  swap1\n  sstore\n  pop\n    /* \"contracts/project.sol\":552:562  msg.sender */\n  caller\n    /* \"contracts/project.sol\":535:541  author */\n  0x05\n  0x00\n    /* \"contracts/project.sol\":535:563  author = payable(msg.sender) */\n  0x0100\n  exp\n  dup2\n  sload\n  dup2\n  0xffffffffffffffffffffffffffffffffffffffff\n  mul\n  not\n  and\n  swap1\n  dup4\n  0xffffffffffffffffffffffffffffffffffffffff\n  and\n  mul\n  or\n  swap1\n  sstore\n  pop\n    /* \"contracts/project.sol\":615:616  0 */\n  0x00\n    /* \"contracts/project.sol\":607:612  funds */\n  0x04\n    /* \"contracts/project.sol\":607:616  funds = 0 */\n  dup2\n  swap1\n  sstore\n  pop\n    /* \"contracts/project.sol\":642:654  State.Opened */\n  0x00\n    /* \"contracts/project.sol\":627:639  projectState */\n  0x05\n  0x15\n    /* \"contracts/project.sol\":627:654  projectState = State.Opened */\n  0x0100\n  exp\n  dup2\n  sload\n  dup2\n  0xff\n  mul\n  not\n  and\n  swap1\n  dup4\n  0x01\n  dup2\n  gt\n  iszero\n  tag_10\n  jumpi\n  tag_11\n  tag_12\n  jump\t// in\ntag_11:\ntag_10:\n  mul\n  or\n  swap1\n  sstore\n  pop\n    /* \"contracts/project.sol\":331:662  constructor(string memory _id, string memory _name, string memory _description, uint _goal) {\r... */\n  pop\n  pop\n  pop\n  pop\n    /* \"contracts/project.sol\":74:1613  contract CrowdFunding {\r... */\n  jump(tag_13)\ntag_7:\n  dup3\n  dup1\n  sload\n  tag_14\n  swap1\n  tag_15\n  jump\t// in\ntag_14:\n  swap1\n  0x00\n  mstore\n  keccak256(0x00, 0x20)\n  swap1\n  0x1f\n  add\n  0x20\n  swap1\n  div\n  dup2\n  add\n  swap3\n  dup3\n  tag_17\n  jumpi\n  0x00\n  dup6\n  sstore\n  jump(tag_16)\ntag_17:\n  dup3\n  0x1f\n  lt\n  tag_18\n  jumpi\n  dup1\n  mload\n  not(0xff)\n  and\n  dup4\n  dup1\n  add\n  or\n  dup6\n  sstore\n  jump(tag_16)\ntag_18:\n  dup3\n  dup1\n  add\n  0x01\n  add\n  dup6\n  sstore\n  dup3\n  iszero\n  tag_16\n  jumpi\n  swap2\n  dup3\n  add\ntag_19:\n  dup3\n  dup2\n  gt\n  iszero\n  tag_20\n  jumpi\n  dup3\n  mload\n  dup3\n  sstore\n  swap2\n  0x20\n  add\n  swap2\n  swap1\n  0x01\n  add\n  swap1\n  jump(tag_19)\ntag_20:\ntag_16:\n  pop\n  swap1\n  pop\n  tag_21\n  swap2\n  swap1\n  tag_22\n  jump\t// in\ntag_21:\n  pop\n  swap1\n  jump\t// out\ntag_22:\ntag_23:\n  dup1\n  dup3\n  gt\n  iszero\n  tag_24\n  jumpi\n  0x00\n  dup2\n  0x00\n  swap1\n  sstore\n  pop\n  0x01\n  add\n  jump(tag_23)\ntag_24:\n  pop\n  swap1\n  jump\t// out\n    /* \"#utility.yul\":7:428   */\ntag_26:\n    /* \"#utility.yul\":96:101   */\n  0x00\n    /* \"#utility.yul\":121:187   */\n  tag_28\n    /* \"#utility.yul\":137:186   */\n  tag_29\n    /* \"#utility.yul\":179:185   */\n  dup5\n    /* \"#utility.yul\":137:186   */\n  tag_30\n  jump\t// in\ntag_29:\n    /* \"#utility.yul\":121:187   */\n  tag_31\n  jump\t// in\ntag_28:\n    /* \"#utility.yul\":112:187   */\n  swap1\n  pop\n    /* \"#utility.yul\":210:216   */\n  dup3\n    /* \"#utility.yul\":203:208   */\n  dup2\n    /* \"#utility.yul\":196:217   */\n  mstore\n    /* \"#utility.yul\":248:252   */\n  0x20\n    /* \"#utility.yul\":241:246   */\n  dup2\n    /* \"#utility.yul\":237:253   */\n  add\n    /* \"#utility.yul\":286:289   */\n  dup5\n    /* \"#utility.yul\":277:283   */\n  dup5\n    /* \"#utility.yul\":272:275   */\n  dup5\n    /* \"#utility.yul\":268:284   */\n  add\n    /* \"#utility.yul\":265:290   */\n  gt\n    /* \"#utility.yul\":262:374   */\n  iszero\n  tag_32\n  jumpi\n    /* \"#utility.yul\":293:372   */\n  tag_33\n  tag_34\n  jump\t// in\ntag_33:\n    /* \"#utility.yul\":262:374   */\ntag_32:\n    /* \"#utility.yul\":383:422   */\n  tag_35\n    /* \"#utility.yul\":415:421   */\n  dup5\n    /* \"#utility.yul\":410:413   */\n  dup3\n    /* \"#utility.yul\":405:408   */\n  dup6\n    /* \"#utility.yul\":383:422   */\n  tag_36\n  jump\t// in\ntag_35:\n    /* \"#utility.yul\":102:428   */\n  pop\n    /* \"#utility.yul\":7:428   */\n  swap4\n  swap3\n  pop\n  pop\n  pop\n  jump\t// out\n    /* \"#utility.yul\":448:803   */\ntag_37:\n    /* \"#utility.yul\":515:520   */\n  0x00\n    /* \"#utility.yul\":564:567   */\n  dup3\n    /* \"#utility.yul\":557:561   */\n  0x1f\n    /* \"#utility.yul\":549:555   */\n  dup4\n    /* \"#utility.yul\":545:562   */\n  add\n    /* \"#utility.yul\":541:568   */\n  slt\n    /* \"#utility.yul\":531:653   */\n  tag_39\n  jumpi\n    /* \"#utility.yul\":572:651   */\n  tag_40\n  tag_41\n  jump\t// in\ntag_40:\n    /* \"#utility.yul\":531:653   */\ntag_39:\n    /* \"#utility.yul\":682:688   */\n  dup2\n    /* \"#utility.yul\":676:689   */\n  mload\n    /* \"#utility.yul\":707:797   */\n  tag_42\n    /* \"#utility.yul\":793:796   */\n  dup5\n    /* \"#utility.yul\":785:791   */\n  dup3\n    /* \"#utility.yul\":778:782   */\n  0x20\n    /* \"#utility.yul\":770:776   */\n  dup7\n    /* \"#utility.yul\":766:783   */\n  add\n    /* \"#utility.yul\":707:797   */\n  tag_26\n  jump\t// in\ntag_42:\n    /* \"#utility.yul\":698:797   */\n  swap2\n  pop\n    /* \"#utility.yul\":521:803   */\n  pop\n    /* \"#utility.yul\":448:803   */\n  swap3\n  swap2\n  pop\n  pop\n  jump\t// out\n    /* \"#utility.yul\":809:952   */\ntag_43:\n    /* \"#utility.yul\":866:871   */\n  0x00\n    /* \"#utility.yul\":897:903   */\n  dup2\n    /* \"#utility.yul\":891:904   */\n  mload\n    /* \"#utility.yul\":882:904   */\n  swap1\n  pop\n    /* \"#utility.yul\":913:946   */\n  tag_45\n    /* \"#utility.yul\":940:945   */\n  dup2\n    /* \"#utility.yul\":913:946   */\n  tag_46\n  jump\t// in\ntag_45:\n    /* \"#utility.yul\":809:952   */\n  swap3\n  swap2\n  pop\n  pop\n  jump\t// out\n    /* \"#utility.yul\":958:2297   */\ntag_3:\n    /* \"#utility.yul\":1085:1091   */\n  0x00\n    /* \"#utility.yul\":1093:1099   */\n  dup1\n    /* \"#utility.yul\":1101:1107   */\n  0x00\n    /* \"#utility.yul\":1109:1115   */\n  dup1\n    /* \"#utility.yul\":1158:1161   */\n  0x80\n    /* \"#utility.yul\":1146:1155   */\n  dup6\n    /* \"#utility.yul\":1137:1144   */\n  dup8\n    /* \"#utility.yul\":1133:1156   */\n  sub\n    /* \"#utility.yul\":1129:1162   */\n  slt\n    /* \"#utility.yul\":1126:1246   */\n  iszero\n  tag_48\n  jumpi\n    /* \"#utility.yul\":1165:1244   */\n  tag_49\n  tag_50\n  jump\t// in\ntag_49:\n    /* \"#utility.yul\":1126:1246   */\ntag_48:\n    /* \"#utility.yul\":1306:1307   */\n  0x00\n    /* \"#utility.yul\":1295:1304   */\n  dup6\n    /* \"#utility.yul\":1291:1308   */\n  add\n    /* \"#utility.yul\":1285:1309   */\n  mload\n    /* \"#utility.yul\":1336:1354   */\n  0xffffffffffffffff\n    /* \"#utility.yul\":1328:1334   */\n  dup2\n    /* \"#utility.yul\":1325:1355   */\n  gt\n    /* \"#utility.yul\":1322:1439   */\n  iszero\n  tag_51\n  jumpi\n    /* \"#utility.yul\":1358:1437   */\n  tag_52\n  tag_53\n  jump\t// in\ntag_52:\n    /* \"#utility.yul\":1322:1439   */\ntag_51:\n    /* \"#utility.yul\":1463:1537   */\n  tag_54\n    /* \"#utility.yul\":1529:1536   */\n  dup8\n    /* \"#utility.yul\":1520:1526   */\n  dup3\n    /* \"#utility.yul\":1509:1518   */\n  dup9\n    /* \"#utility.yul\":1505:1527   */\n  add\n    /* \"#utility.yul\":1463:1537   */\n  tag_37\n  jump\t// in\ntag_54:\n    /* \"#utility.yul\":1453:1537   */\n  swap5\n  pop\n    /* \"#utility.yul\":1256:1547   */\n  pop\n    /* \"#utility.yul\":1607:1609   */\n  0x20\n    /* \"#utility.yul\":1596:1605   */\n  dup6\n    /* \"#utility.yul\":1592:1610   */\n  add\n    /* \"#utility.yul\":1586:1611   */\n  mload\n    /* \"#utility.yul\":1638:1656   */\n  0xffffffffffffffff\n    /* \"#utility.yul\":1630:1636   */\n  dup2\n    /* \"#utility.yul\":1627:1657   */\n  gt\n    /* \"#utility.yul\":1624:1741   */\n  iszero\n  tag_55\n  jumpi\n    /* \"#utility.yul\":1660:1739   */\n  tag_56\n  tag_53\n  jump\t// in\ntag_56:\n    /* \"#utility.yul\":1624:1741   */\ntag_55:\n    /* \"#utility.yul\":1765:1839   */\n  tag_57\n    /* \"#utility.yul\":1831:1838   */\n  dup8\n    /* \"#utility.yul\":1822:1828   */\n  dup3\n    /* \"#utility.yul\":1811:1820   */\n  dup9\n    /* \"#utility.yul\":1807:1829   */\n  add\n    /* \"#utility.yul\":1765:1839   */\n  tag_37\n  jump\t// in\ntag_57:\n    /* \"#utility.yul\":1755:1839   */\n  swap4\n  pop\n    /* \"#utility.yul\":1557:1849   */\n  pop\n    /* \"#utility.yul\":1909:1911   */\n  0x40\n    /* \"#utility.yul\":1898:1907   */\n  dup6\n    /* \"#utility.yul\":1894:1912   */\n  add\n    /* \"#utility.yul\":1888:1913   */\n  mload\n    /* \"#utility.yul\":1940:1958   */\n  0xffffffffffffffff\n    /* \"#utility.yul\":1932:1938   */\n  dup2\n    /* \"#utility.yul\":1929:1959   */\n  gt\n    /* \"#utility.yul\":1926:2043   */\n  iszero\n  tag_58\n  jumpi\n    /* \"#utility.yul\":1962:2041   */\n  tag_59\n  tag_53\n  jump\t// in\ntag_59:\n    /* \"#utility.yul\":1926:2043   */\ntag_58:\n    /* \"#utility.yul\":2067:2141   */\n  tag_60\n    /* \"#utility.yul\":2133:2140   */\n  dup8\n    /* \"#utility.yul\":2124:2130   */\n  dup3\n    /* \"#utility.yul\":2113:2122   */\n  dup9\n    /* \"#utility.yul\":2109:2131   */\n  add\n    /* \"#utility.yul\":2067:2141   */\n  tag_37\n  jump\t// in\ntag_60:\n    /* \"#utility.yul\":2057:2141   */\n  swap3\n  pop\n    /* \"#utility.yul\":1859:2151   */\n  pop\n    /* \"#utility.yul\":2190:2192   */\n  0x60\n    /* \"#utility.yul\":2216:2280   */\n  tag_61\n    /* \"#utility.yul\":2272:2279   */\n  dup8\n    /* \"#utility.yul\":2263:2269   */\n  dup3\n    /* \"#utility.yul\":2252:2261   */\n  dup9\n    /* \"#utility.yul\":2248:2270   */\n  add\n    /* \"#utility.yul\":2216:2280   */\n  tag_43\n  jump\t// in\ntag_61:\n    /* \"#utility.yul\":2206:2280   */\n  swap2\n  pop\n    /* \"#utility.yul\":2161:2290   */\n  pop\n    /* \"#utility.yul\":958:2297   */\n  swap3\n  swap6\n  swap2\n  swap5\n  pop\n  swap3\n  pop\n  jump\t// out\n    /* \"#utility.yul\":2303:2432   */\ntag_31:\n    /* \"#utility.yul\":2337:2343   */\n  0x00\n    /* \"#utility.yul\":2364:2384   */\n  tag_63\n  tag_64\n  jump\t// in\ntag_63:\n    /* \"#utility.yul\":2354:2384   */\n  swap1\n  pop\n    /* \"#utility.yul\":2393:2426   */\n  tag_65\n    /* \"#utility.yul\":2421:2425   */\n  dup3\n    /* \"#utility.yul\":2413:2419   */\n  dup3\n    /* \"#utility.yul\":2393:2426   */\n  tag_66\n  jump\t// in\ntag_65:\n    /* \"#utility.yul\":2303:2432   */\n  swap2\n  swap1\n  pop\n  jump\t// out\n    /* \"#utility.yul\":2438:2513   */\ntag_64:\n    /* \"#utility.yul\":2471:2477   */\n  0x00\n    /* \"#utility.yul\":2504:2506   */\n  0x40\n    /* \"#utility.yul\":2498:2507   */\n  mload\n    /* \"#utility.yul\":2488:2507   */\n  swap1\n  pop\n    /* \"#utility.yul\":2438:2513   */\n  swap1\n  jump\t// out\n    /* \"#utility.yul\":2519:2827   */\ntag_30:\n    /* \"#utility.yul\":2581:2585   */\n  0x00\n    /* \"#utility.yul\":2671:2689   */\n  0xffffffffffffffff\n    /* \"#utility.yul\":2663:2669   */\n  dup3\n    /* \"#utility.yul\":2660:2690   */\n  gt\n    /* \"#utility.yul\":2657:2713   */\n  iszero\n  tag_69\n  jumpi\n    /* \"#utility.yul\":2693:2711   */\n  tag_70\n  tag_71\n  jump\t// in\ntag_70:\n    /* \"#utility.yul\":2657:2713   */\ntag_69:\n    /* \"#utility.yul\":2731:2760   */\n  tag_72\n    /* \"#utility.yul\":2753:2759   */\n  dup3\n    /* \"#utility.yul\":2731:2760   */\n  tag_73\n  jump\t// in\ntag_72:\n    /* \"#utility.yul\":2723:2760   */\n  swap1\n  pop\n    /* \"#utility.yul\":2815:2819   */\n  0x20\n    /* \"#utility.yul\":2809:2813   */\n  dup2\n    /* \"#utility.yul\":2805:2820   */\n  add\n    /* \"#utility.yul\":2797:2820   */\n  swap1\n  pop\n    /* \"#utility.yul\":2519:2827   */\n  swap2\n  swap1\n  pop\n  jump\t// out\n    /* \"#utility.yul\":2833:2910   */\ntag_74:\n    /* \"#utility.yul\":2870:2877   */\n  0x00\n    /* \"#utility.yul\":2899:2904   */\n  dup2\n    /* \"#utility.yul\":2888:2904   */\n  swap1\n  pop\n    /* \"#utility.yul\":2833:2910   */\n  swap2\n  swap1\n  pop\n  jump\t// out\n    /* \"#utility.yul\":2916:3223   */\ntag_36:\n    /* \"#utility.yul\":2984:2985   */\n  0x00\n    /* \"#utility.yul\":2994:3107   */\ntag_77:\n    /* \"#utility.yul\":3008:3014   */\n  dup4\n    /* \"#utility.yul\":3005:3006   */\n  dup2\n    /* \"#utility.yul\":3002:3015   */\n  lt\n    /* \"#utility.yul\":2994:3107   */\n  iszero\n  tag_79\n  jumpi\n    /* \"#utility.yul\":3093:3094   */\n  dup1\n    /* \"#utility.yul\":3088:3091   */\n  dup3\n    /* \"#utility.yul\":3084:3095   */\n  add\n    /* \"#utility.yul\":3078:3096   */\n  mload\n    /* \"#utility.yul\":3074:3075   */\n  dup2\n    /* \"#utility.yul\":3069:3072   */\n  dup5\n    /* \"#utility.yul\":3065:3076   */\n  add\n    /* \"#utility.yul\":3058:3097   */\n  mstore\n    /* \"#utility.yul\":3030:3032   */\n  0x20\n    /* \"#utility.yul\":3027:3028   */\n  dup2\n    /* \"#utility.yul\":3023:3033   */\n  add\n    /* \"#utility.yul\":3018:3033   */\n  swap1\n  pop\n    /* \"#utility.yul\":2994:3107   */\n  jump(tag_77)\ntag_79:\n    /* \"#utility.yul\":3125:3131   */\n  dup4\n    /* \"#utility.yul\":3122:3123   */\n  dup2\n    /* \"#utility.yul\":3119:3132   */\n  gt\n    /* \"#utility.yul\":3116:3217   */\n  iszero\n  tag_80\n  jumpi\n    /* \"#utility.yul\":3205:3206   */\n  0x00\n    /* \"#utility.yul\":3196:3202   */\n  dup5\n    /* \"#utility.yul\":3191:3194   */\n  dup5\n    /* \"#utility.yul\":3187:3203   */\n  add\n    /* \"#utility.yul\":3180:3207   */\n  mstore\n    /* \"#utility.yul\":3116:3217   */\ntag_80:\n    /* \"#utility.yul\":2965:3223   */\n  pop\n    /* \"#utility.yul\":2916:3223   */\n  pop\n  pop\n  pop\n  jump\t// out\n    /* \"#utility.yul\":3229:3549   */\ntag_15:\n    /* \"#utility.yul\":3273:3279   */\n  0x00\n    /* \"#utility.yul\":3310:3311   */\n  0x02\n    /* \"#utility.yul\":3304:3308   */\n  dup3\n    /* \"#utility.yul\":3300:3312   */\n  div\n    /* \"#utility.yul\":3290:3312   */\n  swap1\n  pop\n    /* \"#utility.yul\":3357:3358   */\n  0x01\n    /* \"#utility.yul\":3351:3355   */\n  dup3\n    /* \"#utility.yul\":3347:3359   */\n  and\n    /* \"#utility.yul\":3378:3396   */\n  dup1\n    /* \"#utility.yul\":3368:3449   */\n  tag_82\n  jumpi\n    /* \"#utility.yul\":3434:3438   */\n  0x7f\n    /* \"#utility.yul\":3426:3432   */\n  dup3\n    /* \"#utility.yul\":3422:3439   */\n  and\n    /* \"#utility.yul\":3412:3439   */\n  swap2\n  pop\n    /* \"#utility.yul\":3368:3449   */\ntag_82:\n    /* \"#utility.yul\":3496:3498   */\n  0x20\n    /* \"#utility.yul\":3488:3494   */\n  dup3\n    /* \"#utility.yul\":3485:3499   */\n  lt\n    /* \"#utility.yul\":3465:3483   */\n  dup2\n    /* \"#utility.yul\":3462:3500   */\n  eq\n    /* \"#utility.yul\":3459:3543   */\n  iszero\n  tag_83\n  jumpi\n    /* \"#utility.yul\":3515:3533   */\n  tag_84\n  tag_85\n  jump\t// in\ntag_84:\n    /* \"#utility.yul\":3459:3543   */\ntag_83:\n    /* \"#utility.yul\":3280:3549   */\n  pop\n    /* \"#utility.yul\":3229:3549   */\n  swap2\n  swap1\n  pop\n  jump\t// out\n    /* \"#utility.yul\":3555:3836   */\ntag_66:\n    /* \"#utility.yul\":3638:3665   */\n  tag_87\n    /* \"#utility.yul\":3660:3664   */\n  dup3\n    /* \"#utility.yul\":3638:3665   */\n  tag_73\n  jump\t// in\ntag_87:\n    /* \"#utility.yul\":3630:3636   */\n  dup2\n    /* \"#utility.yul\":3626:3666   */\n  add\n    /* \"#utility.yul\":3768:3774   */\n  dup2\n    /* \"#utility.yul\":3756:3766   */\n  dup2\n    /* \"#utility.yul\":3753:3775   */\n  lt\n    /* \"#utility.yul\":3732:3750   */\n  0xffffffffffffffff\n    /* \"#utility.yul\":3720:3730   */\n  dup3\n    /* \"#utility.yul\":3717:3751   */\n  gt\n    /* \"#utility.yul\":3714:3776   */\n  or\n    /* \"#utility.yul\":3711:3799   */\n  iszero\n  tag_88\n  jumpi\n    /* \"#utility.yul\":3779:3797   */\n  tag_89\n  tag_71\n  jump\t// in\ntag_89:\n    /* \"#utility.yul\":3711:3799   */\ntag_88:\n    /* \"#utility.yul\":3819:3829   */\n  dup1\n    /* \"#utility.yul\":3815:3817   */\n  0x40\n    /* \"#utility.yul\":3808:3830   */\n  mstore\n    /* \"#utility.yul\":3598:3836   */\n  pop\n    /* \"#utility.yul\":3555:3836   */\n  pop\n  pop\n  jump\t// out\n    /* \"#utility.yul\":3842:4022   */\ntag_12:\n    /* \"#utility.yul\":3890:3967   */\n  0x4e487b7100000000000000000000000000000000000000000000000000000000\n    /* \"#utility.yul\":3887:3888   */\n  0x00\n    /* \"#utility.yul\":3880:3968   */\n  mstore\n    /* \"#utility.yul\":3987:3991   */\n  0x21\n    /* \"#utility.yul\":3984:3985   */\n  0x04\n    /* \"#utility.yul\":3977:3992   */\n  mstore\n    /* \"#utility.yul\":4011:4015   */\n  0x24\n    /* \"#utility.yul\":4008:4009   */\n  0x00\n    /* \"#utility.yul\":4001:4016   */\n  revert\n    /* \"#utility.yul\":4028:4208   */\ntag_85:\n    /* \"#utility.yul\":4076:4153   */\n  0x4e487b7100000000000000000000000000000000000000000000000000000000\n    /* \"#utility.yul\":4073:4074   */\n  0x00\n    /* \"#utility.yul\":4066:4154   */\n  mstore\n    /* \"#utility.yul\":4173:4177   */\n  0x22\n    /* \"#utility.yul\":4170:4171   */\n  0x04\n    /* \"#utility.yul\":4163:4178   */\n  mstore\n    /* \"#utility.yul\":4197:4201   */\n  0x24\n    /* \"#utility.yul\":4194:4195   */\n  0x00\n    /* \"#utility.yul\":4187:4202   */\n  revert\n    /* \"#utility.yul\":4214:4394   */\ntag_71:\n    /* \"#utility.yul\":4262:4339   */\n  0x4e487b7100000000000000000000000000000000000000000000000000000000\n    /* \"#utility.yul\":4259:4260   */\n  0x00\n    /* \"#utility.yul\":4252:4340   */\n  mstore\n    /* \"#utility.yul\":4359:4363   */\n  0x41\n    /* \"#utility.yul\":4356:4357   */\n  0x04\n    /* \"#utility.yul\":4349:4364   */\n  mstore\n    /* \"#utility.yul\":4383:4387   */\n  0x24\n    /* \"#utility.yul\":4380:4381   */\n  0x00\n    /* \"#utility.yul\":4373:4388   */\n  revert\n    /* \"#utility.yul\":4400:4517   */\ntag_41:\n    /* \"#utility.yul\":4509:4510   */\n  0x00\n    /* \"#utility.yul\":4506:4507   */\n  dup1\n    /* \"#utility.yul\":4499:4511   */\n  revert\n    /* \"#utility.yul\":4523:4640   */\ntag_34:\n    /* \"#utility.yul\":4632:4633   */\n  0x00\n    /* \"#utility.yul\":4629:4630   */\n  dup1\n    /* \"#utility.yul\":4622:4634   */\n  revert\n    /* \"#utility.yul\":4646:4763   */\ntag_53:\n    /* \"#utility.yul\":4755:4756   */\n  0x00\n    /* \"#utility.yul\":4752:4753   */\n  dup1\n    /* \"#utility.yul\":4745:4757   */\n  revert\n    /* \"#utility.yul\":4769:4886   */\ntag_50:\n    /* \"#utility.yul\":4878:4879   */\n  0x00\n    /* \"#utility.yul\":4875:4876   */\n  dup1\n    /* \"#utility.yul\":4868:4880   */\n  revert\n    /* \"#utility.yul\":4892:4994   */\ntag_73:\n    /* \"#utility.yul\":4933:4939   */\n  0x00\n    /* \"#utility.yul\":4984:4986   */\n  0x1f\n    /* \"#utility.yul\":4980:4987   */\n  not\n    /* \"#utility.yul\":4975:4977   */\n  0x1f\n    /* \"#utility.yul\":4968:4973   */\n  dup4\n    /* \"#utility.yul\":4964:4978   */\n  add\n    /* \"#utility.yul\":4960:4988   */\n  and\n    /* \"#utility.yul\":4950:4988   */\n  swap1\n  pop\n    /* \"#utility.yul\":4892:4994   */\n  swap2\n  swap1\n  pop\n  jump\t// out\n    /* \"#utility.yul\":5000:5122   */\ntag_46:\n    /* \"#utility.yul\":5073:5097   */\n  tag_99\n    /* \"#utility.yul\":5091:5096   */\n  dup2\n    /* \"#utility.yul\":5073:5097   */\n  tag_74\n  jump\t// in\ntag_99:\n    /* \"#utility.yul\":5066:5071   */\n  dup2\n    /* \"#utility.yul\":5063:5098   */\n  eq\n    /* \"#utility.yul\":5053:5116   */\n  tag_100\n  jumpi\n    /* \"#utility.yul\":5112:5113   */\n  0x00\n    /* \"#utility.yul\":5109:5110   */\n  dup1\n    /* \"#utility.yul\":5102:5114   */\n  revert\n    /* \"#utility.yul\":5053:5116   */\ntag_100:\n    /* \"#utility.yul\":5000:5122   */\n  pop\n  jump\t// out\n    /* \"contracts/project.sol\":74:1613  contract CrowdFunding {\r... */\ntag_13:\n  dataSize(sub_0)\n  dup1\n  dataOffset(sub_0)\n  0x00\n  codecopy\n  0x00\n  return\nstop\n\nsub_0: assembly {\n        /* \"contracts/project.sol\":74:1613  contract CrowdFunding {\r... */\n      mstore(0x40, 0x80)\n      jumpi(tag_1, lt(calldatasize, 0x04))\n      shr(0xe0, calldataload(0x00))\n      dup1\n      0x5699fadc\n      eq\n      tag_2\n      jumpi\n      dup1\n      0xd63dc661\n      eq\n      tag_3\n      jumpi\n    tag_1:\n      0x00\n      dup1\n      revert\n        /* \"contracts/project.sol\":999:1210  function changeProjectState(State newState) public isAuthor {\r... */\n    tag_2:\n      callvalue\n      dup1\n      iszero\n      tag_4\n      jumpi\n      0x00\n      dup1\n      revert\n    tag_4:\n      pop\n      tag_5\n      0x04\n      dup1\n      calldatasize\n      sub\n      dup2\n      add\n      swap1\n      tag_6\n      swap2\n      swap1\n      tag_7\n      jump\t// in\n    tag_6:\n      tag_8\n      jump\t// in\n    tag_5:\n      stop\n        /* \"contracts/project.sol\":670:991  function fundProject() public payable isNotAuthor {\r... */\n    tag_3:\n      tag_9\n      tag_10\n      jump\t// in\n    tag_9:\n      stop\n        /* \"contracts/project.sol\":999:1210  function changeProjectState(State newState) public isAuthor {\r... */\n    tag_8:\n        /* \"contracts/project.sol\":1271:1277  author */\n      0x05\n      0x00\n      swap1\n      sload\n      swap1\n      0x0100\n      exp\n      swap1\n      div\n      0xffffffffffffffffffffffffffffffffffffffff\n      and\n        /* \"contracts/project.sol\":1257:1277  msg.sender == author */\n      0xffffffffffffffffffffffffffffffffffffffff\n      and\n        /* \"contracts/project.sol\":1257:1267  msg.sender */\n      caller\n        /* \"contracts/project.sol\":1257:1277  msg.sender == author */\n      0xffffffffffffffffffffffffffffffffffffffff\n      and\n      eq\n        /* \"contracts/project.sol\":1249:1329  require(msg.sender == author, 'Only author can change the state of the project') */\n      tag_12\n      jumpi\n      mload(0x40)\n      0x08c379a000000000000000000000000000000000000000000000000000000000\n      dup2\n      mstore\n      0x04\n      add\n      tag_13\n      swap1\n      tag_14\n      jump\t// in\n    tag_13:\n      mload(0x40)\n      dup1\n      swap2\n      sub\n      swap1\n      revert\n    tag_12:\n        /* \"contracts/project.sol\":1087:1095  newState */\n      dup1\n        /* \"contracts/project.sol\":1078:1095  state != newState */\n      0x01\n      dup2\n      gt\n      iszero\n      tag_16\n      jumpi\n      tag_17\n      tag_18\n      jump\t// in\n    tag_17:\n    tag_16:\n        /* \"contracts/project.sol\":1078:1083  state */\n      0x05\n      0x14\n      swap1\n      sload\n      swap1\n      0x0100\n      exp\n      swap1\n      div\n      0xff\n      and\n        /* \"contracts/project.sol\":1078:1095  state != newState */\n      0x01\n      dup2\n      gt\n      iszero\n      tag_19\n      jumpi\n      tag_20\n      tag_18\n      jump\t// in\n    tag_20:\n    tag_19:\n      eq\n      iszero\n        /* \"contracts/project.sol\":1070:1127  require(state != newState, 'New state must be different') */\n      tag_21\n      jumpi\n      mload(0x40)\n      0x08c379a000000000000000000000000000000000000000000000000000000000\n      dup2\n      mstore\n      0x04\n      add\n      tag_22\n      swap1\n      tag_23\n      jump\t// in\n    tag_22:\n      mload(0x40)\n      dup1\n      swap2\n      sub\n      swap1\n      revert\n    tag_21:\n        /* \"contracts/project.sol\":1146:1154  newState */\n      dup1\n        /* \"contracts/project.sol\":1138:1143  state */\n      0x05\n      0x14\n        /* \"contracts/project.sol\":1138:1154  state = newState */\n      0x0100\n      exp\n      dup2\n      sload\n      dup2\n      0xff\n      mul\n      not\n      and\n      swap1\n      dup4\n      0x01\n      dup2\n      gt\n      iszero\n      tag_24\n      jumpi\n      tag_25\n      tag_18\n      jump\t// in\n    tag_25:\n    tag_24:\n      mul\n      or\n      swap1\n      sstore\n      pop\n        /* \"contracts/project.sol\":1170:1202  changeProjectStateLog(id, state) */\n      0xb364ab0cadec04bec8a97e81743129cecc3480279fb67b9378df4219238b250f\n        /* \"contracts/project.sol\":1192:1194  id */\n      0x00\n        /* \"contracts/project.sol\":1196:1201  state */\n      0x05\n      0x14\n      swap1\n      sload\n      swap1\n      0x0100\n      exp\n      swap1\n      div\n      0xff\n      and\n        /* \"contracts/project.sol\":1170:1202  changeProjectStateLog(id, state) */\n      mload(0x40)\n      tag_26\n      swap3\n      swap2\n      swap1\n      tag_27\n      jump\t// in\n    tag_26:\n      mload(0x40)\n      dup1\n      swap2\n      sub\n      swap1\n      log1\n        /* \"contracts/project.sol\":999:1210  function changeProjectState(State newState) public isAuthor {\r... */\n      pop\n      jump\t// out\n        /* \"contracts/project.sol\":670:991  function fundProject() public payable isNotAuthor {\r... */\n    tag_10:\n        /* \"contracts/project.sol\":1413:1419  author */\n      0x05\n      0x00\n      swap1\n      sload\n      swap1\n      0x0100\n      exp\n      swap1\n      div\n      0xffffffffffffffffffffffffffffffffffffffff\n      and\n        /* \"contracts/project.sol\":1399:1419  msg.sender != author */\n      0xffffffffffffffffffffffffffffffffffffffff\n      and\n        /* \"contracts/project.sol\":1399:1409  msg.sender */\n      caller\n        /* \"contracts/project.sol\":1399:1419  msg.sender != author */\n      0xffffffffffffffffffffffffffffffffffffffff\n      and\n      eq\n      iszero\n        /* \"contracts/project.sol\":1391:1458  require(msg.sender != author, 'The author cannot fund the project') */\n      tag_29\n      jumpi\n      mload(0x40)\n      0x08c379a000000000000000000000000000000000000000000000000000000000\n      dup2\n      mstore\n      0x04\n      add\n      tag_30\n      swap1\n      tag_31\n      jump\t// in\n    tag_30:\n      mload(0x40)\n      dup1\n      swap2\n      sub\n      swap1\n      revert\n    tag_29:\n        /* \"contracts/project.sol\":748:760  State.Closed */\n      0x01\n        /* \"contracts/project.sol\":739:760  state != State.Closed */\n      dup1\n      dup2\n      gt\n      iszero\n      tag_33\n      jumpi\n      tag_34\n      tag_18\n      jump\t// in\n    tag_34:\n    tag_33:\n        /* \"contracts/project.sol\":739:744  state */\n      0x05\n      0x14\n      swap1\n      sload\n      swap1\n      0x0100\n      exp\n      swap1\n      div\n      0xff\n      and\n        /* \"contracts/project.sol\":739:760  state != State.Closed */\n      0x01\n      dup2\n      gt\n      iszero\n      tag_35\n      jumpi\n      tag_36\n      tag_18\n      jump\t// in\n    tag_36:\n    tag_35:\n      eq\n      iszero\n        /* \"contracts/project.sol\":731:801  require(state != State.Closed, 'The funding of the project is closed') */\n      tag_37\n      jumpi\n      mload(0x40)\n      0x08c379a000000000000000000000000000000000000000000000000000000000\n      dup2\n      mstore\n      0x04\n      add\n      tag_38\n      swap1\n      tag_39\n      jump\t// in\n    tag_38:\n      mload(0x40)\n      dup1\n      swap2\n      sub\n      swap1\n      revert\n    tag_37:\n        /* \"contracts/project.sol\":832:833  0 */\n      0x00\n        /* \"contracts/project.sol\":820:829  msg.value */\n      callvalue\n        /* \"contracts/project.sol\":820:833  msg.value > 0 */\n      gt\n        /* \"contracts/project.sol\":812:872  require(msg.value > 0, 'fundraising must be greater than 0') */\n      tag_40\n      jumpi\n      mload(0x40)\n      0x08c379a000000000000000000000000000000000000000000000000000000000\n      dup2\n      mstore\n      0x04\n      add\n      tag_41\n      swap1\n      tag_42\n      jump\t// in\n    tag_41:\n      mload(0x40)\n      dup1\n      swap2\n      sub\n      swap1\n      revert\n    tag_40:\n        /* \"contracts/project.sol\":883:889  author */\n      0x05\n      0x00\n      swap1\n      sload\n      swap1\n      0x0100\n      exp\n      swap1\n      div\n      0xffffffffffffffffffffffffffffffffffffffff\n      and\n        /* \"contracts/project.sol\":883:898  author.transfer */\n      0xffffffffffffffffffffffffffffffffffffffff\n      and\n        /* \"contracts/project.sol\":883:909  author.transfer(msg.value) */\n      0x08fc\n        /* \"contracts/project.sol\":899:908  msg.value */\n      callvalue\n        /* \"contracts/project.sol\":883:909  author.transfer(msg.value) */\n      swap1\n      dup2\n      iszero\n      mul\n      swap1\n      mload(0x40)\n      0x00\n      mload(0x40)\n      dup1\n      dup4\n      sub\n      dup2\n      dup6\n      dup9\n      dup9\n      call\n      swap4\n      pop\n      pop\n      pop\n      pop\n      iszero\n      dup1\n      iszero\n      tag_44\n      jumpi\n      returndatasize\n      0x00\n      dup1\n      returndatacopy\n      revert(0x00, returndatasize)\n    tag_44:\n      pop\n        /* \"contracts/project.sol\":929:938  msg.value */\n      callvalue\n        /* \"contracts/project.sol\":920:925  funds */\n      0x04\n      0x00\n        /* \"contracts/project.sol\":920:938  funds += msg.value */\n      dup3\n      dup3\n      sload\n      tag_45\n      swap2\n      swap1\n      tag_46\n      jump\t// in\n    tag_45:\n      swap3\n      pop\n      pop\n      dup2\n      swap1\n      sstore\n      pop\n        /* \"contracts/project.sol\":954:983  fundProjectLog(id, msg.value) */\n      0x98a99e594dc0943c255bf9563ae2c4da6ffcfd06f78b396b88988548ac825ba8\n        /* \"contracts/project.sol\":969:971  id */\n      0x00\n        /* \"contracts/project.sol\":973:982  msg.value */\n      callvalue\n        /* \"contracts/project.sol\":954:983  fundProjectLog(id, msg.value) */\n      mload(0x40)\n      tag_47\n      swap3\n      swap2\n      swap1\n      tag_48\n      jump\t// in\n    tag_47:\n      mload(0x40)\n      dup1\n      swap2\n      sub\n      swap1\n      log1\n        /* \"contracts/project.sol\":670:991  function fundProject() public payable isNotAuthor {\r... */\n      jump\t// out\n        /* \"#utility.yul\":7:160   */\n    tag_50:\n        /* \"#utility.yul\":60:65   */\n      0x00\n        /* \"#utility.yul\":98:104   */\n      dup2\n        /* \"#utility.yul\":85:105   */\n      calldataload\n        /* \"#utility.yul\":76:105   */\n      swap1\n      pop\n        /* \"#utility.yul\":114:154   */\n      tag_52\n        /* \"#utility.yul\":148:153   */\n      dup2\n        /* \"#utility.yul\":114:154   */\n      tag_53\n      jump\t// in\n    tag_52:\n        /* \"#utility.yul\":7:160   */\n      swap3\n      swap2\n      pop\n      pop\n      jump\t// out\n        /* \"#utility.yul\":166:509   */\n    tag_7:\n        /* \"#utility.yul\":232:238   */\n      0x00\n        /* \"#utility.yul\":281:283   */\n      0x20\n        /* \"#utility.yul\":269:278   */\n      dup3\n        /* \"#utility.yul\":260:267   */\n      dup5\n        /* \"#utility.yul\":256:279   */\n      sub\n        /* \"#utility.yul\":252:284   */\n      slt\n        /* \"#utility.yul\":249:368   */\n      iszero\n      tag_55\n      jumpi\n        /* \"#utility.yul\":287:366   */\n      tag_56\n      tag_57\n      jump\t// in\n    tag_56:\n        /* \"#utility.yul\":249:368   */\n    tag_55:\n        /* \"#utility.yul\":407:408   */\n      0x00\n        /* \"#utility.yul\":432:492   */\n      tag_58\n        /* \"#utility.yul\":484:491   */\n      dup5\n        /* \"#utility.yul\":475:481   */\n      dup3\n        /* \"#utility.yul\":464:473   */\n      dup6\n        /* \"#utility.yul\":460:482   */\n      add\n        /* \"#utility.yul\":432:492   */\n      tag_50\n      jump\t// in\n    tag_58:\n        /* \"#utility.yul\":422:492   */\n      swap2\n      pop\n        /* \"#utility.yul\":378:502   */\n      pop\n        /* \"#utility.yul\":166:509   */\n      swap3\n      swap2\n      pop\n      pop\n      jump\t// out\n        /* \"#utility.yul\":515:656   */\n    tag_59:\n        /* \"#utility.yul\":607:649   */\n      tag_61\n        /* \"#utility.yul\":643:648   */\n      dup2\n        /* \"#utility.yul\":607:649   */\n      tag_62\n      jump\t// in\n    tag_61:\n        /* \"#utility.yul\":602:605   */\n      dup3\n        /* \"#utility.yul\":595:650   */\n      mstore\n        /* \"#utility.yul\":515:656   */\n      pop\n      pop\n      jump\t// out\n        /* \"#utility.yul\":686:1488   */\n    tag_63:\n        /* \"#utility.yul\":771:774   */\n      0x00\n        /* \"#utility.yul\":808:813   */\n      dup2\n        /* \"#utility.yul\":802:814   */\n      sload\n        /* \"#utility.yul\":837:873   */\n      tag_65\n        /* \"#utility.yul\":863:872   */\n      dup2\n        /* \"#utility.yul\":837:873   */\n      tag_66\n      jump\t// in\n    tag_65:\n        /* \"#utility.yul\":889:960   */\n      tag_67\n        /* \"#utility.yul\":953:959   */\n      dup2\n        /* \"#utility.yul\":948:951   */\n      dup7\n        /* \"#utility.yul\":889:960   */\n      tag_68\n      jump\t// in\n    tag_67:\n        /* \"#utility.yul\":882:960   */\n      swap5\n      pop\n        /* \"#utility.yul\":991:992   */\n      0x01\n        /* \"#utility.yul\":980:989   */\n      dup3\n        /* \"#utility.yul\":976:993   */\n      and\n        /* \"#utility.yul\":1007:1008   */\n      0x00\n        /* \"#utility.yul\":1002:1137   */\n      dup2\n      eq\n      tag_70\n      jumpi\n        /* \"#utility.yul\":1151:1152   */\n      0x01\n        /* \"#utility.yul\":1146:1482   */\n      dup2\n      eq\n      tag_71\n      jumpi\n        /* \"#utility.yul\":969:1482   */\n      jump(tag_69)\n        /* \"#utility.yul\":1002:1137   */\n    tag_70:\n        /* \"#utility.yul\":1086:1090   */\n      0xff\n        /* \"#utility.yul\":1082:1091   */\n      not\n        /* \"#utility.yul\":1071:1080   */\n      dup4\n        /* \"#utility.yul\":1067:1092   */\n      and\n        /* \"#utility.yul\":1062:1065   */\n      dup7\n        /* \"#utility.yul\":1055:1093   */\n      mstore\n        /* \"#utility.yul\":1122:1126   */\n      0x20\n        /* \"#utility.yul\":1117:1120   */\n      dup7\n        /* \"#utility.yul\":1113:1127   */\n      add\n        /* \"#utility.yul\":1106:1127   */\n      swap4\n      pop\n        /* \"#utility.yul\":1002:1137   */\n      jump(tag_69)\n        /* \"#utility.yul\":1146:1482   */\n    tag_71:\n        /* \"#utility.yul\":1213:1251   */\n      tag_72\n        /* \"#utility.yul\":1245:1250   */\n      dup6\n        /* \"#utility.yul\":1213:1251   */\n      tag_73\n      jump\t// in\n    tag_72:\n        /* \"#utility.yul\":1273:1274   */\n      0x00\n        /* \"#utility.yul\":1287:1441   */\n    tag_74:\n        /* \"#utility.yul\":1301:1307   */\n      dup4\n        /* \"#utility.yul\":1298:1299   */\n      dup2\n        /* \"#utility.yul\":1295:1308   */\n      lt\n        /* \"#utility.yul\":1287:1441   */\n      iszero\n      tag_76\n      jumpi\n        /* \"#utility.yul\":1375:1382   */\n      dup2\n        /* \"#utility.yul\":1369:1383   */\n      sload\n        /* \"#utility.yul\":1365:1366   */\n      dup2\n        /* \"#utility.yul\":1360:1363   */\n      dup10\n        /* \"#utility.yul\":1356:1367   */\n      add\n        /* \"#utility.yul\":1349:1384   */\n      mstore\n        /* \"#utility.yul\":1425:1426   */\n      0x01\n        /* \"#utility.yul\":1416:1423   */\n      dup3\n        /* \"#utility.yul\":1412:1427   */\n      add\n        /* \"#utility.yul\":1401:1427   */\n      swap2\n      pop\n        /* \"#utility.yul\":1323:1327   */\n      0x20\n        /* \"#utility.yul\":1320:1321   */\n      dup2\n        /* \"#utility.yul\":1316:1328   */\n      add\n        /* \"#utility.yul\":1311:1328   */\n      swap1\n      pop\n        /* \"#utility.yul\":1287:1441   */\n      jump(tag_74)\n    tag_76:\n        /* \"#utility.yul\":1470:1471   */\n      dup1\n        /* \"#utility.yul\":1465:1468   */\n      dup9\n        /* \"#utility.yul\":1461:1472   */\n      add\n        /* \"#utility.yul\":1454:1472   */\n      swap6\n      pop\n        /* \"#utility.yul\":1153:1482   */\n      pop\n      pop\n        /* \"#utility.yul\":969:1482   */\n    tag_69:\n      pop\n        /* \"#utility.yul\":775:1488   */\n      pop\n      pop\n        /* \"#utility.yul\":686:1488   */\n      swap3\n      swap2\n      pop\n      pop\n      jump\t// out\n        /* \"#utility.yul\":1494:1860   */\n    tag_77:\n        /* \"#utility.yul\":1636:1639   */\n      0x00\n        /* \"#utility.yul\":1657:1724   */\n      tag_79\n        /* \"#utility.yul\":1721:1723   */\n      0x22\n        /* \"#utility.yul\":1716:1719   */\n      dup4\n        /* \"#utility.yul\":1657:1724   */\n      tag_68\n      jump\t// in\n    tag_79:\n        /* \"#utility.yul\":1650:1724   */\n      swap2\n      pop\n        /* \"#utility.yul\":1733:1826   */\n      tag_80\n        /* \"#utility.yul\":1822:1825   */\n      dup3\n        /* \"#utility.yul\":1733:1826   */\n      tag_81\n      jump\t// in\n    tag_80:\n        /* \"#utility.yul\":1851:1853   */\n      0x40\n        /* \"#utility.yul\":1846:1849   */\n      dup3\n        /* \"#utility.yul\":1842:1854   */\n      add\n        /* \"#utility.yul\":1835:1854   */\n      swap1\n      pop\n        /* \"#utility.yul\":1494:1860   */\n      swap2\n      swap1\n      pop\n      jump\t// out\n        /* \"#utility.yul\":1866:2232   */\n    tag_82:\n        /* \"#utility.yul\":2008:2011   */\n      0x00\n        /* \"#utility.yul\":2029:2096   */\n      tag_84\n        /* \"#utility.yul\":2093:2095   */\n      0x1b\n        /* \"#utility.yul\":2088:2091   */\n      dup4\n        /* \"#utility.yul\":2029:2096   */\n      tag_68\n      jump\t// in\n    tag_84:\n        /* \"#utility.yul\":2022:2096   */\n      swap2\n      pop\n        /* \"#utility.yul\":2105:2198   */\n      tag_85\n        /* \"#utility.yul\":2194:2197   */\n      dup3\n        /* \"#utility.yul\":2105:2198   */\n      tag_86\n      jump\t// in\n    tag_85:\n        /* \"#utility.yul\":2223:2225   */\n      0x20\n        /* \"#utility.yul\":2218:2221   */\n      dup3\n        /* \"#utility.yul\":2214:2226   */\n      add\n        /* \"#utility.yul\":2207:2226   */\n      swap1\n      pop\n        /* \"#utility.yul\":1866:2232   */\n      swap2\n      swap1\n      pop\n      jump\t// out\n        /* \"#utility.yul\":2238:2604   */\n    tag_87:\n        /* \"#utility.yul\":2380:2383   */\n      0x00\n        /* \"#utility.yul\":2401:2468   */\n      tag_89\n        /* \"#utility.yul\":2465:2467   */\n      0x24\n        /* \"#utility.yul\":2460:2463   */\n      dup4\n        /* \"#utility.yul\":2401:2468   */\n      tag_68\n      jump\t// in\n    tag_89:\n        /* \"#utility.yul\":2394:2468   */\n      swap2\n      pop\n        /* \"#utility.yul\":2477:2570   */\n      tag_90\n        /* \"#utility.yul\":2566:2569   */\n      dup3\n        /* \"#utility.yul\":2477:2570   */\n      tag_91\n      jump\t// in\n    tag_90:\n        /* \"#utility.yul\":2595:2597   */\n      0x40\n        /* \"#utility.yul\":2590:2593   */\n      dup3\n        /* \"#utility.yul\":2586:2598   */\n      add\n        /* \"#utility.yul\":2579:2598   */\n      swap1\n      pop\n        /* \"#utility.yul\":2238:2604   */\n      swap2\n      swap1\n      pop\n      jump\t// out\n        /* \"#utility.yul\":2610:2976   */\n    tag_92:\n        /* \"#utility.yul\":2752:2755   */\n      0x00\n        /* \"#utility.yul\":2773:2840   */\n      tag_94\n        /* \"#utility.yul\":2837:2839   */\n      0x2f\n        /* \"#utility.yul\":2832:2835   */\n      dup4\n        /* \"#utility.yul\":2773:2840   */\n      tag_68\n      jump\t// in\n    tag_94:\n        /* \"#utility.yul\":2766:2840   */\n      swap2\n      pop\n        /* \"#utility.yul\":2849:2942   */\n      tag_95\n        /* \"#utility.yul\":2938:2941   */\n      dup3\n        /* \"#utility.yul\":2849:2942   */\n      tag_96\n      jump\t// in\n    tag_95:\n        /* \"#utility.yul\":2967:2969   */\n      0x40\n        /* \"#utility.yul\":2962:2965   */\n      dup3\n        /* \"#utility.yul\":2958:2970   */\n      add\n        /* \"#utility.yul\":2951:2970   */\n      swap1\n      pop\n        /* \"#utility.yul\":2610:2976   */\n      swap2\n      swap1\n      pop\n      jump\t// out\n        /* \"#utility.yul\":2982:3348   */\n    tag_97:\n        /* \"#utility.yul\":3124:3127   */\n      0x00\n        /* \"#utility.yul\":3145:3212   */\n      tag_99\n        /* \"#utility.yul\":3209:3211   */\n      0x22\n        /* \"#utility.yul\":3204:3207   */\n      dup4\n        /* \"#utility.yul\":3145:3212   */\n      tag_68\n      jump\t// in\n    tag_99:\n        /* \"#utility.yul\":3138:3212   */\n      swap2\n      pop\n        /* \"#utility.yul\":3221:3314   */\n      tag_100\n        /* \"#utility.yul\":3310:3313   */\n      dup3\n        /* \"#utility.yul\":3221:3314   */\n      tag_101\n      jump\t// in\n    tag_100:\n        /* \"#utility.yul\":3339:3341   */\n      0x40\n        /* \"#utility.yul\":3334:3337   */\n      dup3\n        /* \"#utility.yul\":3330:3342   */\n      add\n        /* \"#utility.yul\":3323:3342   */\n      swap1\n      pop\n        /* \"#utility.yul\":2982:3348   */\n      swap2\n      swap1\n      pop\n      jump\t// out\n        /* \"#utility.yul\":3354:3472   */\n    tag_102:\n        /* \"#utility.yul\":3441:3465   */\n      tag_104\n        /* \"#utility.yul\":3459:3464   */\n      dup2\n        /* \"#utility.yul\":3441:3465   */\n      tag_105\n      jump\t// in\n    tag_104:\n        /* \"#utility.yul\":3436:3439   */\n      dup3\n        /* \"#utility.yul\":3429:3466   */\n      mstore\n        /* \"#utility.yul\":3354:3472   */\n      pop\n      pop\n      jump\t// out\n        /* \"#utility.yul\":3478:3905   */\n    tag_27:\n        /* \"#utility.yul\":3621:3625   */\n      0x00\n        /* \"#utility.yul\":3659:3661   */\n      0x40\n        /* \"#utility.yul\":3648:3657   */\n      dup3\n        /* \"#utility.yul\":3644:3662   */\n      add\n        /* \"#utility.yul\":3636:3662   */\n      swap1\n      pop\n        /* \"#utility.yul\":3708:3717   */\n      dup2\n        /* \"#utility.yul\":3702:3706   */\n      dup2\n        /* \"#utility.yul\":3698:3718   */\n      sub\n        /* \"#utility.yul\":3694:3695   */\n      0x00\n        /* \"#utility.yul\":3683:3692   */\n      dup4\n        /* \"#utility.yul\":3679:3696   */\n      add\n        /* \"#utility.yul\":3672:3719   */\n      mstore\n        /* \"#utility.yul\":3736:3811   */\n      tag_107\n        /* \"#utility.yul\":3806:3810   */\n      dup2\n        /* \"#utility.yul\":3797:3803   */\n      dup6\n        /* \"#utility.yul\":3736:3811   */\n      tag_63\n      jump\t// in\n    tag_107:\n        /* \"#utility.yul\":3728:3811   */\n      swap1\n      pop\n        /* \"#utility.yul\":3821:3898   */\n      tag_108\n        /* \"#utility.yul\":3894:3896   */\n      0x20\n        /* \"#utility.yul\":3883:3892   */\n      dup4\n        /* \"#utility.yul\":3879:3897   */\n      add\n        /* \"#utility.yul\":3870:3876   */\n      dup5\n        /* \"#utility.yul\":3821:3898   */\n      tag_59\n      jump\t// in\n    tag_108:\n        /* \"#utility.yul\":3478:3905   */\n      swap4\n      swap3\n      pop\n      pop\n      pop\n      jump\t// out\n        /* \"#utility.yul\":3911:4328   */\n    tag_48:\n        /* \"#utility.yul\":4049:4053   */\n      0x00\n        /* \"#utility.yul\":4087:4089   */\n      0x40\n        /* \"#utility.yul\":4076:4085   */\n      dup3\n        /* \"#utility.yul\":4072:4090   */\n      add\n        /* \"#utility.yul\":4064:4090   */\n      swap1\n      pop\n        /* \"#utility.yul\":4136:4145   */\n      dup2\n        /* \"#utility.yul\":4130:4134   */\n      dup2\n        /* \"#utility.yul\":4126:4146   */\n      sub\n        /* \"#utility.yul\":4122:4123   */\n      0x00\n        /* \"#utility.yul\":4111:4120   */\n      dup4\n        /* \"#utility.yul\":4107:4124   */\n      add\n        /* \"#utility.yul\":4100:4147   */\n      mstore\n        /* \"#utility.yul\":4164:4239   */\n      tag_110\n        /* \"#utility.yul\":4234:4238   */\n      dup2\n        /* \"#utility.yul\":4225:4231   */\n      dup6\n        /* \"#utility.yul\":4164:4239   */\n      tag_63\n      jump\t// in\n    tag_110:\n        /* \"#utility.yul\":4156:4239   */\n      swap1\n      pop\n        /* \"#utility.yul\":4249:4321   */\n      tag_111\n        /* \"#utility.yul\":4317:4319   */\n      0x20\n        /* \"#utility.yul\":4306:4315   */\n      dup4\n        /* \"#utility.yul\":4302:4320   */\n      add\n        /* \"#utility.yul\":4293:4299   */\n      dup5\n        /* \"#utility.yul\":4249:4321   */\n      tag_102\n      jump\t// in\n    tag_111:\n        /* \"#utility.yul\":3911:4328   */\n      swap4\n      swap3\n      pop\n      pop\n      pop\n      jump\t// out\n        /* \"#utility.yul\":4334:4753   */\n    tag_31:\n        /* \"#utility.yul\":4500:4504   */\n      0x00\n        /* \"#utility.yul\":4538:4540   */\n      0x20\n        /* \"#utility.yul\":4527:4536   */\n      dup3\n        /* \"#utility.yul\":4523:4541   */\n      add\n        /* \"#utility.yul\":4515:4541   */\n      swap1\n      pop\n        /* \"#utility.yul\":4587:4596   */\n      dup2\n        /* \"#utility.yul\":4581:4585   */\n      dup2\n        /* \"#utility.yul\":4577:4597   */\n      sub\n        /* \"#utility.yul\":4573:4574   */\n      0x00\n        /* \"#utility.yul\":4562:4571   */\n      dup4\n        /* \"#utility.yul\":4558:4575   */\n      add\n        /* \"#utility.yul\":4551:4598   */\n      mstore\n        /* \"#utility.yul\":4615:4746   */\n      tag_113\n        /* \"#utility.yul\":4741:4745   */\n      dup2\n        /* \"#utility.yul\":4615:4746   */\n      tag_77\n      jump\t// in\n    tag_113:\n        /* \"#utility.yul\":4607:4746   */\n      swap1\n      pop\n        /* \"#utility.yul\":4334:4753   */\n      swap2\n      swap1\n      pop\n      jump\t// out\n        /* \"#utility.yul\":4759:5178   */\n    tag_23:\n        /* \"#utility.yul\":4925:4929   */\n      0x00\n        /* \"#utility.yul\":4963:4965   */\n      0x20\n        /* \"#utility.yul\":4952:4961   */\n      dup3\n        /* \"#utility.yul\":4948:4966   */\n      add\n        /* \"#utility.yul\":4940:4966   */\n      swap1\n      pop\n        /* \"#utility.yul\":5012:5021   */\n      dup2\n        /* \"#utility.yul\":5006:5010   */\n      dup2\n        /* \"#utility.yul\":5002:5022   */\n      sub\n        /* \"#utility.yul\":4998:4999   */\n      0x00\n        /* \"#utility.yul\":4987:4996   */\n      dup4\n        /* \"#utility.yul\":4983:5000   */\n      add\n        /* \"#utility.yul\":4976:5023   */\n      mstore\n        /* \"#utility.yul\":5040:5171   */\n      tag_115\n        /* \"#utility.yul\":5166:5170   */\n      dup2\n        /* \"#utility.yul\":5040:5171   */\n      tag_82\n      jump\t// in\n    tag_115:\n        /* \"#utility.yul\":5032:5171   */\n      swap1\n      pop\n        /* \"#utility.yul\":4759:5178   */\n      swap2\n      swap1\n      pop\n      jump\t// out\n        /* \"#utility.yul\":5184:5603   */\n    tag_39:\n        /* \"#utility.yul\":5350:5354   */\n      0x00\n        /* \"#utility.yul\":5388:5390   */\n      0x20\n        /* \"#utility.yul\":5377:5386   */\n      dup3\n        /* \"#utility.yul\":5373:5391   */\n      add\n        /* \"#utility.yul\":5365:5391   */\n      swap1\n      pop\n        /* \"#utility.yul\":5437:5446   */\n      dup2\n        /* \"#utility.yul\":5431:5435   */\n      dup2\n        /* \"#utility.yul\":5427:5447   */\n      sub\n        /* \"#utility.yul\":5423:5424   */\n      0x00\n        /* \"#utility.yul\":5412:5421   */\n      dup4\n        /* \"#utility.yul\":5408:5425   */\n      add\n        /* \"#utility.yul\":5401:5448   */\n      mstore\n        /* \"#utility.yul\":5465:5596   */\n      tag_117\n        /* \"#utility.yul\":5591:5595   */\n      dup2\n        /* \"#utility.yul\":5465:5596   */\n      tag_87\n      jump\t// in\n    tag_117:\n        /* \"#utility.yul\":5457:5596   */\n      swap1\n      pop\n        /* \"#utility.yul\":5184:5603   */\n      swap2\n      swap1\n      pop\n      jump\t// out\n        /* \"#utility.yul\":5609:6028   */\n    tag_14:\n        /* \"#utility.yul\":5775:5779   */\n      0x00\n        /* \"#utility.yul\":5813:5815   */\n      0x20\n        /* \"#utility.yul\":5802:5811   */\n      dup3\n        /* \"#utility.yul\":5798:5816   */\n      add\n        /* \"#utility.yul\":5790:5816   */\n      swap1\n      pop\n        /* \"#utility.yul\":5862:5871   */\n      dup2\n        /* \"#utility.yul\":5856:5860   */\n      dup2\n        /* \"#utility.yul\":5852:5872   */\n      sub\n        /* \"#utility.yul\":5848:5849   */\n      0x00\n        /* \"#utility.yul\":5837:5846   */\n      dup4\n        /* \"#utility.yul\":5833:5850   */\n      add\n        /* \"#utility.yul\":5826:5873   */\n      mstore\n        /* \"#utility.yul\":5890:6021   */\n      tag_119\n        /* \"#utility.yul\":6016:6020   */\n      dup2\n        /* \"#utility.yul\":5890:6021   */\n      tag_92\n      jump\t// in\n    tag_119:\n        /* \"#utility.yul\":5882:6021   */\n      swap1\n      pop\n        /* \"#utility.yul\":5609:6028   */\n      swap2\n      swap1\n      pop\n      jump\t// out\n        /* \"#utility.yul\":6034:6453   */\n    tag_42:\n        /* \"#utility.yul\":6200:6204   */\n      0x00\n        /* \"#utility.yul\":6238:6240   */\n      0x20\n        /* \"#utility.yul\":6227:6236   */\n      dup3\n        /* \"#utility.yul\":6223:6241   */\n      add\n        /* \"#utility.yul\":6215:6241   */\n      swap1\n      pop\n        /* \"#utility.yul\":6287:6296   */\n      dup2\n        /* \"#utility.yul\":6281:6285   */\n      dup2\n        /* \"#utility.yul\":6277:6297   */\n      sub\n        /* \"#utility.yul\":6273:6274   */\n      0x00\n        /* \"#utility.yul\":6262:6271   */\n      dup4\n        /* \"#utility.yul\":6258:6275   */\n      add\n        /* \"#utility.yul\":6251:6298   */\n      mstore\n        /* \"#utility.yul\":6315:6446   */\n      tag_121\n        /* \"#utility.yul\":6441:6445   */\n      dup2\n        /* \"#utility.yul\":6315:6446   */\n      tag_97\n      jump\t// in\n    tag_121:\n        /* \"#utility.yul\":6307:6446   */\n      swap1\n      pop\n        /* \"#utility.yul\":6034:6453   */\n      swap2\n      swap1\n      pop\n      jump\t// out\n        /* \"#utility.yul\":6540:6681   */\n    tag_73:\n        /* \"#utility.yul\":6589:6593   */\n      0x00\n        /* \"#utility.yul\":6612:6615   */\n      dup2\n        /* \"#utility.yul\":6604:6615   */\n      swap1\n      pop\n        /* \"#utility.yul\":6635:6638   */\n      dup2\n        /* \"#utility.yul\":6632:6633   */\n      0x00\n        /* \"#utility.yul\":6625:6639   */\n      mstore\n        /* \"#utility.yul\":6669:6673   */\n      0x20\n        /* \"#utility.yul\":6666:6667   */\n      0x00\n        /* \"#utility.yul\":6656:6674   */\n      keccak256\n        /* \"#utility.yul\":6648:6674   */\n      swap1\n      pop\n        /* \"#utility.yul\":6540:6681   */\n      swap2\n      swap1\n      pop\n      jump\t// out\n        /* \"#utility.yul\":6687:6856   */\n    tag_68:\n        /* \"#utility.yul\":6771:6782   */\n      0x00\n        /* \"#utility.yul\":6805:6811   */\n      dup3\n        /* \"#utility.yul\":6800:6803   */\n      dup3\n        /* \"#utility.yul\":6793:6812   */\n      mstore\n        /* \"#utility.yul\":6845:6849   */\n      0x20\n        /* \"#utility.yul\":6840:6843   */\n      dup3\n        /* \"#utility.yul\":6836:6850   */\n      add\n        /* \"#utility.yul\":6821:6850   */\n      swap1\n      pop\n        /* \"#utility.yul\":6687:6856   */\n      swap3\n      swap2\n      pop\n      pop\n      jump\t// out\n        /* \"#utility.yul\":6862:7167   */\n    tag_46:\n        /* \"#utility.yul\":6902:6905   */\n      0x00\n        /* \"#utility.yul\":6921:6941   */\n      tag_127\n        /* \"#utility.yul\":6939:6940   */\n      dup3\n        /* \"#utility.yul\":6921:6941   */\n      tag_105\n      jump\t// in\n    tag_127:\n        /* \"#utility.yul\":6916:6941   */\n      swap2\n      pop\n        /* \"#utility.yul\":6955:6975   */\n      tag_128\n        /* \"#utility.yul\":6973:6974   */\n      dup4\n        /* \"#utility.yul\":6955:6975   */\n      tag_105\n      jump\t// in\n    tag_128:\n        /* \"#utility.yul\":6950:6975   */\n      swap3\n      pop\n        /* \"#utility.yul\":7109:7110   */\n      dup3\n        /* \"#utility.yul\":7041:7107   */\n      0xffffffffffffffffffffffffffffffffffffffffffffffffffffffffffffffff\n        /* \"#utility.yul\":7037:7111   */\n      sub\n        /* \"#utility.yul\":7034:7035   */\n      dup3\n        /* \"#utility.yul\":7031:7112   */\n      gt\n        /* \"#utility.yul\":7028:7135   */\n      iszero\n      tag_129\n      jumpi\n        /* \"#utility.yul\":7115:7133   */\n      tag_130\n      tag_131\n      jump\t// in\n    tag_130:\n        /* \"#utility.yul\":7028:7135   */\n    tag_129:\n        /* \"#utility.yul\":7159:7160   */\n      dup3\n        /* \"#utility.yul\":7156:7157   */\n      dup3\n        /* \"#utility.yul\":7152:7161   */\n      add\n        /* \"#utility.yul\":7145:7161   */\n      swap1\n      pop\n        /* \"#utility.yul\":6862:7167   */\n      swap3\n      swap2\n      pop\n      pop\n      jump\t// out\n        /* \"#utility.yul\":7173:7298   */\n    tag_132:\n        /* \"#utility.yul\":7217:7224   */\n      0x00\n        /* \"#utility.yul\":7246:7251   */\n      dup2\n        /* \"#utility.yul\":7235:7251   */\n      swap1\n      pop\n        /* \"#utility.yul\":7252:7292   */\n      tag_134\n        /* \"#utility.yul\":7286:7291   */\n      dup3\n        /* \"#utility.yul\":7252:7292   */\n      tag_135\n      jump\t// in\n    tag_134:\n        /* \"#utility.yul\":7173:7298   */\n      swap2\n      swap1\n      pop\n      jump\t// out\n        /* \"#utility.yul\":7304:7381   */\n    tag_105:\n        /* \"#utility.yul\":7341:7348   */\n      0x00\n        /* \"#utility.yul\":7370:7375   */\n      dup2\n        /* \"#utility.yul\":7359:7375   */\n      swap1\n      pop\n        /* \"#utility.yul\":7304:7381   */\n      swap2\n      swap1\n      pop\n      jump\t// out\n        /* \"#utility.yul\":7387:7512   */\n    tag_62:\n        /* \"#utility.yul\":7442:7451   */\n      0x00\n        /* \"#utility.yul\":7475:7506   */\n      tag_138\n        /* \"#utility.yul\":7500:7505   */\n      dup3\n        /* \"#utility.yul\":7475:7506   */\n      tag_132\n      jump\t// in\n    tag_138:\n        /* \"#utility.yul\":7462:7506   */\n      swap1\n      pop\n        /* \"#utility.yul\":7387:7512   */\n      swap2\n      swap1\n      pop\n      jump\t// out\n        /* \"#utility.yul\":7518:7838   */\n    tag_66:\n        /* \"#utility.yul\":7562:7568   */\n      0x00\n        /* \"#utility.yul\":7599:7600   */\n      0x02\n        /* \"#utility.yul\":7593:7597   */\n      dup3\n        /* \"#utility.yul\":7589:7601   */\n      div\n        /* \"#utility.yul\":7579:7601   */\n      swap1\n      pop\n        /* \"#utility.yul\":7646:7647   */\n      0x01\n        /* \"#utility.yul\":7640:7644   */\n      dup3\n        /* \"#utility.yul\":7636:7648   */\n      and\n        /* \"#utility.yul\":7667:7685   */\n      dup1\n        /* \"#utility.yul\":7657:7738   */\n      tag_140\n      jumpi\n        /* \"#utility.yul\":7723:7727   */\n      0x7f\n        /* \"#utility.yul\":7715:7721   */\n      dup3\n        /* \"#utility.yul\":7711:7728   */\n      and\n        /* \"#utility.yul\":7701:7728   */\n      swap2\n      pop\n        /* \"#utility.yul\":7657:7738   */\n    tag_140:\n        /* \"#utility.yul\":7785:7787   */\n      0x20\n        /* \"#utility.yul\":7777:7783   */\n      dup3\n        /* \"#utility.yul\":7774:7788   */\n      lt\n        /* \"#utility.yul\":7754:7772   */\n      dup2\n        /* \"#utility.yul\":7751:7789   */\n      eq\n        /* \"#utility.yul\":7748:7832   */\n      iszero\n      tag_141\n      jumpi\n        /* \"#utility.yul\":7804:7822   */\n      tag_142\n      tag_143\n      jump\t// in\n    tag_142:\n        /* \"#utility.yul\":7748:7832   */\n    tag_141:\n        /* \"#utility.yul\":7569:7838   */\n      pop\n        /* \"#utility.yul\":7518:7838   */\n      swap2\n      swap1\n      pop\n      jump\t// out\n        /* \"#utility.yul\":7844:8024   */\n    tag_131:\n        /* \"#utility.yul\":7892:7969   */\n      0x4e487b7100000000000000000000000000000000000000000000000000000000\n        /* \"#utility.yul\":7889:7890   */\n      0x00\n        /* \"#utility.yul\":7882:7970   */\n      mstore\n        /* \"#utility.yul\":7989:7993   */\n      0x11\n        /* \"#utility.yul\":7986:7987   */\n      0x04\n        /* \"#utility.yul\":7979:7994   */\n      mstore\n        /* \"#utility.yul\":8013:8017   */\n      0x24\n        /* \"#utility.yul\":8010:8011   */\n      0x00\n        /* \"#utility.yul\":8003:8018   */\n      revert\n        /* \"#utility.yul\":8030:8210   */\n    tag_18:\n        /* \"#utility.yul\":8078:8155   */\n      0x4e487b7100000000000000000000000000000000000000000000000000000000\n        /* \"#utility.yul\":8075:8076   */\n      0x00\n        /* \"#utility.yul\":8068:8156   */\n      mstore\n        /* \"#utility.yul\":8175:8179   */\n      0x21\n        /* \"#utility.yul\":8172:8173   */\n      0x04\n        /* \"#utility.yul\":8165:8180   */\n      mstore\n        /* \"#utility.yul\":8199:8203   */\n      0x24\n        /* \"#utility.yul\":8196:8197   */\n      0x00\n        /* \"#utility.yul\":8189:8204   */\n      revert\n        /* \"#utility.yul\":8216:8396   */\n    tag_143:\n        /* \"#utility.yul\":8264:8341   */\n      0x4e487b7100000000000000000000000000000000000000000000000000000000\n        /* \"#utility.yul\":8261:8262   */\n      0x00\n        /* \"#utility.yul\":8254:8342   */\n      mstore\n        /* \"#utility.yul\":8361:8365   */\n      0x22\n        /* \"#utility.yul\":8358:8359   */\n      0x04\n        /* \"#utility.yul\":8351:8366   */\n      mstore\n        /* \"#utility.yul\":8385:8389   */\n      0x24\n        /* \"#utility.yul\":8382:8383   */\n      0x00\n        /* \"#utility.yul\":8375:8390   */\n      revert\n        /* \"#utility.yul\":8525:8642   */\n    tag_57:\n        /* \"#utility.yul\":8634:8635   */\n      0x00\n        /* \"#utility.yul\":8631:8632   */\n      dup1\n        /* \"#utility.yul\":8624:8636   */\n      revert\n        /* \"#utility.yul\":8648:8869   */\n    tag_81:\n        /* \"#utility.yul\":8788:8822   */\n      0x54686520617574686f722063616e6e6f742066756e64207468652070726f6a65\n        /* \"#utility.yul\":8784:8785   */\n      0x00\n        /* \"#utility.yul\":8776:8782   */\n      dup3\n        /* \"#utility.yul\":8772:8786   */\n      add\n        /* \"#utility.yul\":8765:8823   */\n      mstore\n        /* \"#utility.yul\":8857:8861   */\n      0x6374000000000000000000000000000000000000000000000000000000000000\n        /* \"#utility.yul\":8852:8854   */\n      0x20\n        /* \"#utility.yul\":8844:8850   */\n      dup3\n        /* \"#utility.yul\":8840:8855   */\n      add\n        /* \"#utility.yul\":8833:8862   */\n      mstore\n        /* \"#utility.yul\":8648:8869   */\n      pop\n      jump\t// out\n        /* \"#utility.yul\":8875:9052   */\n    tag_86:\n        /* \"#utility.yul\":9015:9044   */\n      0x4e6577207374617465206d75737420626520646966666572656e740000000000\n        /* \"#utility.yul\":9011:9012   */\n      0x00\n        /* \"#utility.yul\":9003:9009   */\n      dup3\n        /* \"#utility.yul\":8999:9013   */\n      add\n        /* \"#utility.yul\":8992:9045   */\n      mstore\n        /* \"#utility.yul\":8875:9052   */\n      pop\n      jump\t// out\n        /* \"#utility.yul\":9058:9281   */\n    tag_91:\n        /* \"#utility.yul\":9198:9232   */\n      0x5468652066756e64696e67206f66207468652070726f6a65637420697320636c\n        /* \"#utility.yul\":9194:9195   */\n      0x00\n        /* \"#utility.yul\":9186:9192   */\n      dup3\n        /* \"#utility.yul\":9182:9196   */\n      add\n        /* \"#utility.yul\":9175:9233   */\n      mstore\n        /* \"#utility.yul\":9267:9273   */\n      0x6f73656400000000000000000000000000000000000000000000000000000000\n        /* \"#utility.yul\":9262:9264   */\n      0x20\n        /* \"#utility.yul\":9254:9260   */\n      dup3\n        /* \"#utility.yul\":9250:9265   */\n      add\n        /* \"#utility.yul\":9243:9274   */\n      mstore\n        /* \"#utility.yul\":9058:9281   */\n      pop\n      jump\t// out\n        /* \"#utility.yul\":9287:9521   */\n    tag_96:\n        /* \"#utility.yul\":9427:9461   */\n      0x4f6e6c7920617574686f722063616e206368616e676520746865207374617465\n        /* \"#utility.yul\":9423:9424   */\n      0x00\n        /* \"#utility.yul\":9415:9421   */\n      dup3\n        /* \"#utility.yul\":9411:9425   */\n      add\n        /* \"#utility.yul\":9404:9462   */\n      mstore\n        /* \"#utility.yul\":9496:9513   */\n      0x206f66207468652070726f6a6563740000000000000000000000000000000000\n        /* \"#utility.yul\":9491:9493   */\n      0x20\n        /* \"#utility.yul\":9483:9489   */\n      dup3\n        /* \"#utility.yul\":9479:9494   */\n      add\n        /* \"#utility.yul\":9472:9514   */\n      mstore\n        /* \"#utility.yul\":9287:9521   */\n      pop\n      jump\t// out\n        /* \"#utility.yul\":9527:9748   */\n    tag_101:\n        /* \"#utility.yul\":9667:9701   */\n      0x66756e6472616973696e67206d7573742062652067726561746572207468616e\n        /* \"#utility.yul\":9663:9664   */\n      0x00\n        /* \"#utility.yul\":9655:9661   */\n      dup3\n        /* \"#utility.yul\":9651:9665   */\n      add\n        /* \"#utility.yul\":9644:9702   */\n      mstore\n        /* \"#utility.yul\":9736:9740   */\n      0x2030000000000000000000000000000000000000000000000000000000000000\n        /* \"#utility.yul\":9731:9733   */\n      0x20\n        /* \"#utility.yul\":9723:9729   */\n      dup3\n        /* \"#utility.yul\":9719:9734   */\n      add\n        /* \"#utility.yul\":9712:9741   */\n      mstore\n        /* \"#utility.yul\":9527:9748   */\n      pop\n      jump\t// out\n        /* \"#utility.yul\":9754:9866   */\n    tag_135:\n        /* \"#utility.yul\":9834:9835   */\n      0x02\n        /* \"#utility.yul\":9827:9832   */\n      dup2\n        /* \"#utility.yul\":9824:9836   */\n      lt\n        /* \"#utility.yul\":9814:9860   */\n      tag_156\n      jumpi\n        /* \"#utility.yul\":9840:9858   */\n      tag_157\n      tag_18\n      jump\t// in\n    tag_157:\n        /* \"#utility.yul\":9814:9860   */\n    tag_156:\n        /* \"#utility.yul\":9754:9866   */\n      pop\n      jump\t// out\n        /* \"#utility.yul\":9872:9978   */\n    tag_53:\n        /* \"#utility.yul\":9952:9953   */\n      0x02\n        /* \"#utility.yul\":9945:9950   */\n      dup2\n        /* \"#utility.yul\":9942:9954   */\n      lt\n        /* \"#utility.yul\":9932:9972   */\n      tag_159\n      jumpi\n        /* \"#utility.yul\":9968:9969   */\n      0x00\n        /* \"#utility.yul\":9965:9966   */\n      dup1\n        /* \"#utility.yul\":9958:9970   */\n      revert\n        /* \"#utility.yul\":9932:9972   */\n    tag_159:\n        /* \"#utility.yul\":9872:9978   */\n      pop\n      jump\t// out\n\n    auxdata: 0xa26469706673582212205e6765da0d65afeaa83878293f2f7f86ca870b26f6bd8fd98f87fec50b726bf164736f6c63430008070033\n}\n",
				"bytecode": {
					"linkReferences": {},
					"object": "60806040523480156200001157600080fd5b5060405162000ea738038062000ea783398181016040528101906200003791906200024f565b83600090805190602001906200004f9291906200010a565b508260019080519060200190620000689291906200010a565b508160029080519060200190620000819291906200010a565b508060038190555033600560006101000a81548173ffffffffffffffffffffffffffffffffffffffff021916908373ffffffffffffffffffffffffffffffffffffffff16021790555060006004819055506000600560156101000a81548160ff02191690836001811115620000fb57620000fa62000429565b5b021790555050505050620004f5565b8280546200011890620003bd565b90600052602060002090601f0160209004810192826200013c576000855562000188565b82601f106200015757805160ff191683800117855562000188565b8280016001018555821562000188579182015b82811115620001875782518255916020019190600101906200016a565b5b5090506200019791906200019b565b5090565b5b80821115620001b65760008160009055506001016200019c565b5090565b6000620001d1620001cb8462000347565b6200031e565b905082815260208101848484011115620001f057620001ef620004bb565b5b620001fd84828562000387565b509392505050565b600082601f8301126200021d576200021c620004b6565b5b81516200022f848260208601620001ba565b91505092915050565b6000815190506200024981620004db565b92915050565b600080600080608085870312156200026c576200026b620004c5565b5b600085015167ffffffffffffffff8111156200028d576200028c620004c0565b5b6200029b8782880162000205565b945050602085015167ffffffffffffffff811115620002bf57620002be620004c0565b5b620002cd8782880162000205565b935050604085015167ffffffffffffffff811115620002f157620002f0620004c0565b5b620002ff8782880162000205565b9250506060620003128782880162000238565b91505092959194509250565b60006200032a6200033d565b9050620003388282620003f3565b919050565b6000604051905090565b600067ffffffffffffffff82111562000365576200036462000487565b5b6200037082620004ca565b9050602081019050919050565b6000819050919050565b60005b83811015620003a75780820151818401526020810190506200038a565b83811115620003b7576000848401525b50505050565b60006002820490506001821680620003d657607f821691505b60208210811415620003ed57620003ec62000458565b5b50919050565b620003fe82620004ca565b810181811067ffffffffffffffff8211171562000420576200041f62000487565b5b80604052505050565b7f4e487b7100000000000000000000000000000000000000000000000000000000600052602160045260246000fd5b7f4e487b7100000000000000000000000000000000000000000000000000000000600052602260045260246000fd5b7f4e487b7100000000000000000000000000000000000000000000000000000000600052604160045260246000fd5b600080fd5b600080fd5b600080fd5b600080fd5b6000601f19601f8301169050919050565b620004e6816200037d565b8114620004f257600080fd5b50565b6109a280620005056000396000f3fe6080604052600436106100295760003560e01c80635699fadc1461002e578063d63dc66114610057575b600080fd5b34801561003a57600080fd5b50610055600480360381019061005091906103fa565b610061565b005b61005f6101dd565b005b600560009054906101000a900473ffffffffffffffffffffffffffffffffffffffff1673ffffffffffffffffffffffffffffffffffffffff163373ffffffffffffffffffffffffffffffffffffffff16146100f1576040517f08c379a00000000000000000000000000000000000000000000000000000000081526004016100e890610634565b60405180910390fd5b80600181111561010457610103610780565b5b600560149054906101000a900460ff16600181111561012657610125610780565b5b1415610167576040517f08c379a000000000000000000000000000000000000000000000000000000000815260040161015e906105f4565b60405180910390fd5b80600560146101000a81548160ff0219169083600181111561018c5761018b610780565b5b02179055507fb364ab0cadec04bec8a97e81743129cecc3480279fb67b9378df4219238b250f6000600560149054906101000a900460ff166040516101d2929190610574565b60405180910390a150565b600560009054906101000a900473ffffffffffffffffffffffffffffffffffffffff1673ffffffffffffffffffffffffffffffffffffffff163373ffffffffffffffffffffffffffffffffffffffff16141561026e576040517f08c379a0000000000000000000000000000000000000000000000000000000008152600401610265906105d4565b60405180910390fd5b60018081111561028157610280610780565b5b600560149054906101000a900460ff1660018111156102a3576102a2610780565b5b14156102e4576040517f08c379a00000000000000000000000000000000000000000000000000000000081526004016102db90610614565b60405180910390fd5b60003411610327576040517f08c379a000000000000000000000000000000000000000000000000000000000815260040161031e90610654565b60405180910390fd5b600560009054906101000a900473ffffffffffffffffffffffffffffffffffffffff1673ffffffffffffffffffffffffffffffffffffffff166108fc349081150290604051600060405180830381858888f1935050505015801561038f573d6000803e3d6000fd5b5034600460008282546103a2919061069a565b925050819055507f98a99e594dc0943c255bf9563ae2c4da6ffcfd06f78b396b88988548ac825ba86000346040516103db9291906105a4565b60405180910390a1565b6000813590506103f48161095c565b92915050565b6000602082840312156104105761040f6107de565b5b600061041e848285016103e5565b91505092915050565b6104308161070d565b82525050565b600081546104438161071f565b61044d8186610689565b94506001821660008114610468576001811461047a576104ad565b60ff19831686526020860193506104ad565b61048385610674565b60005b838110156104a557815481890152600182019150602081019050610486565b808801955050505b50505092915050565b60006104c3602283610689565b91506104ce826107e3565b604082019050919050565b60006104e6601b83610689565b91506104f182610832565b602082019050919050565b6000610509602483610689565b91506105148261085b565b604082019050919050565b600061052c602f83610689565b9150610537826108aa565b604082019050919050565b600061054f602283610689565b915061055a826108f9565b604082019050919050565b61056e81610703565b82525050565b6000604082019050818103600083015261058e8185610436565b905061059d6020830184610427565b9392505050565b600060408201905081810360008301526105be8185610436565b90506105cd6020830184610565565b9392505050565b600060208201905081810360008301526105ed816104b6565b9050919050565b6000602082019050818103600083015261060d816104d9565b9050919050565b6000602082019050818103600083015261062d816104fc565b9050919050565b6000602082019050818103600083015261064d8161051f565b9050919050565b6000602082019050818103600083015261066d81610542565b9050919050565b60008190508160005260206000209050919050565b600082825260208201905092915050565b60006106a582610703565b91506106b083610703565b9250827fffffffffffffffffffffffffffffffffffffffffffffffffffffffffffffffff038211156106e5576106e4610751565b5b828201905092915050565b60008190506106fe82610948565b919050565b6000819050919050565b6000610718826106f0565b9050919050565b6000600282049050600182168061073757607f821691505b6020821081141561074b5761074a6107af565b5b50919050565b7f4e487b7100000000000000000000000000000000000000000000000000000000600052601160045260246000fd5b7f4e487b7100000000000000000000000000000000000000000000000000000000600052602160045260246000fd5b7f4e487b7100000000000000000000000000000000000000000000000000000000600052602260045260246000fd5b600080fd5b7f54686520617574686f722063616e6e6f742066756e64207468652070726f6a6560008201527f6374000000000000000000000000000000000000000000000000000000000000602082015250565b7f4e6577207374617465206d75737420626520646966666572656e740000000000600082015250565b7f5468652066756e64696e67206f66207468652070726f6a65637420697320636c60008201527f6f73656400000000000000000000000000000000000000000000000000000000602082015250565b7f4f6e6c7920617574686f722063616e206368616e67652074686520737461746560008201527f206f66207468652070726f6a6563740000000000000000000000000000000000602082015250565b7f66756e6472616973696e67206d7573742062652067726561746572207468616e60008201527f2030000000000000000000000000000000000000000000000000000000000000602082015250565b6002811061095957610958610780565b5b50565b6002811061096957600080fd5b5056fea26469706673582212205e6765da0d65afeaa83878293f2f7f86ca870b26f6bd8fd98f87fec50b726bf164736f6c63430008070033",
					"opcodes": "PUSH1 0x80 PUSH1 0x40 MSTORE CALLVALUE DUP1 ISZERO PUSH3 0x11 JUMPI PUSH1 0x0 DUP1 REVERT JUMPDEST POP PUSH1 0x40 MLOAD PUSH3 0xEA7 CODESIZE SUB DUP1 PUSH3 0xEA7 DUP4 CODECOPY DUP2 DUP2 ADD PUSH1 0x40 MSTORE DUP2 ADD SWAP1 PUSH3 0x37 SWAP2 SWAP1 PUSH3 0x24F JUMP JUMPDEST DUP4 PUSH1 0x0 SWAP1 DUP1 MLOAD SWAP1 PUSH1 0x20 ADD SWAP1 PUSH3 0x4F SWAP3 SWAP2 SWAP1 PUSH3 0x10A JUMP JUMPDEST POP DUP3 PUSH1 0x1 SWAP1 DUP1 MLOAD SWAP1 PUSH1 0x20 ADD SWAP1 PUSH3 0x68 SWAP3 SWAP2 SWAP1 PUSH3 0x10A JUMP JUMPDEST POP DUP2 PUSH1 0x2 SWAP1 DUP1 MLOAD SWAP1 PUSH1 0x20 ADD SWAP1 PUSH3 0x81 SWAP3 SWAP2 SWAP1 PUSH3 0x10A JUMP JUMPDEST POP DUP1 PUSH1 0x3 DUP2 SWAP1 SSTORE POP CALLER PUSH1 0x5 PUSH1 0x0 PUSH2 0x100 EXP DUP2 SLOAD DUP2 PUSH20 0xFFFFFFFFFFFFFFFFFFFFFFFFFFFFFFFFFFFFFFFF MUL NOT AND SWAP1 DUP4 PUSH20 0xFFFFFFFFFFFFFFFFFFFFFFFFFFFFFFFFFFFFFFFF AND MUL OR SWAP1 SSTORE POP PUSH1 0x0 PUSH1 0x4 DUP2 SWAP1 SSTORE POP PUSH1 0x0 PUSH1 0x5 PUSH1 0x15 PUSH2 0x100 EXP DUP2 SLOAD DUP2 PUSH1 0xFF MUL NOT AND SWAP1 DUP4 PUSH1 0x1 DUP2 GT ISZERO PUSH3 0xFB JUMPI PUSH3 0xFA PUSH3 0x429 JUMP JUMPDEST JUMPDEST MUL OR SWAP1 SSTORE POP POP POP POP POP PUSH3 0x4F5 JUMP JUMPDEST DUP3 DUP1 SLOAD PUSH3 0x118 SWAP1 PUSH3 0x3BD JUMP JUMPDEST SWAP1 PUSH1 0x0 MSTORE PUSH1 0x20 PUSH1 0x0 KECCAK256 SWAP1 PUSH1 0x1F ADD PUSH1 0x20 SWAP1 DIV DUP2 ADD SWAP3 DUP3 PUSH3 0x13C JUMPI PUSH1 0x0 DUP6 SSTORE PUSH3 0x188 JUMP JUMPDEST DUP3 PUSH1 0x1F LT PUSH3 0x157 JUMPI DUP1 MLOAD PUSH1 0xFF NOT AND DUP4 DUP1 ADD OR DUP6 SSTORE PUSH3 0x188 JUMP JUMPDEST DUP3 DUP1 ADD PUSH1 0x1 ADD DUP6 SSTORE DUP3 ISZERO PUSH3 0x188 JUMPI SWAP2 DUP3 ADD JUMPDEST DUP3 DUP2 GT ISZERO PUSH3 0x187 JUMPI DUP3 MLOAD DUP3 SSTORE SWAP2 PUSH1 0x20 ADD SWAP2 SWAP1 PUSH1 0x1 ADD SWAP1 PUSH3 0x16A JUMP JUMPDEST JUMPDEST POP SWAP1 POP PUSH3 0x197 SWAP2 SWAP1 PUSH3 0x19B JUMP JUMPDEST POP SWAP1 JUMP JUMPDEST JUMPDEST DUP1 DUP3 GT ISZERO PUSH3 0x1B6 JUMPI PUSH1 0x0 DUP2 PUSH1 0x0 SWAP1 SSTORE POP PUSH1 0x1 ADD PUSH3 0x19C JUMP JUMPDEST POP SWAP1 JUMP JUMPDEST PUSH1 0x0 PUSH3 0x1D1 PUSH3 0x1CB DUP5 PUSH3 0x347 JUMP JUMPDEST PUSH3 0x31E JUMP JUMPDEST SWAP1 POP DUP3 DUP2 MSTORE PUSH1 0x20 DUP2 ADD DUP5 DUP5 DUP5 ADD GT ISZERO PUSH3 0x1F0 JUMPI PUSH3 0x1EF PUSH3 0x4BB JUMP JUMPDEST JUMPDEST PUSH3 0x1FD DUP5 DUP3 DUP6 PUSH3 0x387 JUMP JUMPDEST POP SWAP4 SWAP3 POP POP POP JUMP JUMPDEST PUSH1 0x0 DUP3 PUSH1 0x1F DUP4 ADD SLT PUSH3 0x21D JUMPI PUSH3 0x21C PUSH3 0x4B6 JUMP JUMPDEST JUMPDEST DUP2 MLOAD PUSH3 0x22F DUP5 DUP3 PUSH1 0x20 DUP7 ADD PUSH3 0x1BA JUMP JUMPDEST SWAP2 POP POP SWAP3 SWAP2 POP POP JUMP JUMPDEST PUSH1 0x0 DUP2 MLOAD SWAP1 POP PUSH3 0x249 DUP2 PUSH3 0x4DB JUMP JUMPDEST SWAP3 SWAP2 POP POP JUMP JUMPDEST PUSH1 0x0 DUP1 PUSH1 0x0 DUP1 PUSH1 0x80 DUP6 DUP8 SUB SLT ISZERO PUSH3 0x26C JUMPI PUSH3 0x26B PUSH3 0x4C5 JUMP JUMPDEST JUMPDEST PUSH1 0x0 DUP6 ADD MLOAD PUSH8 0xFFFFFFFFFFFFFFFF DUP2 GT ISZERO PUSH3 0x28D JUMPI PUSH3 0x28C PUSH3 0x4C0 JUMP JUMPDEST JUMPDEST PUSH3 0x29B DUP8 DUP3 DUP9 ADD PUSH3 0x205 JUMP JUMPDEST SWAP5 POP POP PUSH1 0x20 DUP6 ADD MLOAD PUSH8 0xFFFFFFFFFFFFFFFF DUP2 GT ISZERO PUSH3 0x2BF JUMPI PUSH3 0x2BE PUSH3 0x4C0 JUMP JUMPDEST JUMPDEST PUSH3 0x2CD DUP8 DUP3 DUP9 ADD PUSH3 0x205 JUMP JUMPDEST SWAP4 POP POP PUSH1 0x40 DUP6 ADD MLOAD PUSH8 0xFFFFFFFFFFFFFFFF DUP2 GT ISZERO PUSH3 0x2F1 JUMPI PUSH3 0x2F0 PUSH3 0x4C0 JUMP JUMPDEST JUMPDEST PUSH3 0x2FF DUP8 DUP3 DUP9 ADD PUSH3 0x205 JUMP JUMPDEST SWAP3 POP POP PUSH1 0x60 PUSH3 0x312 DUP8 DUP3 DUP9 ADD PUSH3 0x238 JUMP JUMPDEST SWAP2 POP POP SWAP3 SWAP6 SWAP2 SWAP5 POP SWAP3 POP JUMP JUMPDEST PUSH1 0x0 PUSH3 0x32A PUSH3 0x33D JUMP JUMPDEST SWAP1 POP PUSH3 0x338 DUP3 DUP3 PUSH3 0x3F3 JUMP JUMPDEST SWAP2 SWAP1 POP JUMP JUMPDEST PUSH1 0x0 PUSH1 0x40 MLOAD SWAP1 POP SWAP1 JUMP JUMPDEST PUSH1 0x0 PUSH8 0xFFFFFFFFFFFFFFFF DUP3 GT ISZERO PUSH3 0x365 JUMPI PUSH3 0x364 PUSH3 0x487 JUMP JUMPDEST JUMPDEST PUSH3 0x370 DUP3 PUSH3 0x4CA JUMP JUMPDEST SWAP1 POP PUSH1 0x20 DUP2 ADD SWAP1 POP SWAP2 SWAP1 POP JUMP JUMPDEST PUSH1 0x0 DUP2 SWAP1 POP SWAP2 SWAP1 POP JUMP JUMPDEST PUSH1 0x0 JUMPDEST DUP4 DUP2 LT ISZERO PUSH3 0x3A7 JUMPI DUP1 DUP3 ADD MLOAD DUP2 DUP5 ADD MSTORE PUSH1 0x20 DUP2 ADD SWAP1 POP PUSH3 0x38A JUMP JUMPDEST DUP4 DUP2 GT ISZERO PUSH3 0x3B7 JUMPI PUSH1 0x0 DUP5 DUP5 ADD MSTORE JUMPDEST POP POP POP POP JUMP JUMPDEST PUSH1 0x0 PUSH1 0x2 DUP3 DIV SWAP1 POP PUSH1 0x1 DUP3 AND DUP1 PUSH3 0x3D6 JUMPI PUSH1 0x7F DUP3 AND SWAP2 POP JUMPDEST PUSH1 0x20 DUP3 LT DUP2 EQ ISZERO PUSH3 0x3ED JUMPI PUSH3 0x3EC PUSH3 0x458 JUMP JUMPDEST JUMPDEST POP SWAP2 SWAP1 POP JUMP JUMPDEST PUSH3 0x3FE DUP3 PUSH3 0x4CA JUMP JUMPDEST DUP2 ADD DUP2 DUP2 LT PUSH8 0xFFFFFFFFFFFFFFFF DUP3 GT OR ISZERO PUSH3 0x420 JUMPI PUSH3 0x41F PUSH3 0x487 JUMP JUMPDEST JUMPDEST DUP1 PUSH1 0x40 MSTORE POP POP POP JUMP JUMPDEST PUSH32 0x4E487B7100000000000000000000000000000000000000000000000000000000 PUSH1 0x0 MSTORE PUSH1 0x21 PUSH1 0x4 MSTORE PUSH1 0x24 PUSH1 0x0 REVERT JUMPDEST PUSH32 0x4E487B7100000000000000000000000000000000000000000000000000000000 PUSH1 0x0 MSTORE PUSH1 0x22 PUSH1 0x4 MSTORE PUSH1 0x24 PUSH1 0x0 REVERT JUMPDEST PUSH32 0x4E487B7100000000000000000000000000000000000000000000000000000000 PUSH1 0x0 MSTORE PUSH1 0x41 PUSH1 0x4 MSTORE PUSH1 0x24 PUSH1 0x0 REVERT JUMPDEST PUSH1 0x0 DUP1 REVERT JUMPDEST PUSH1 0x0 DUP1 REVERT JUMPDEST PUSH1 0x0 DUP1 REVERT JUMPDEST PUSH1 0x0 DUP1 REVERT JUMPDEST PUSH1 0x0 PUSH1 0x1F NOT PUSH1 0x1F DUP4 ADD AND SWAP1 POP SWAP2 SWAP1 POP JUMP JUMPDEST PUSH3 0x4E6 DUP2 PUSH3 0x37D JUMP JUMPDEST DUP2 EQ PUSH3 0x4F2 JUMPI PUSH1 0x0 DUP1 REVERT JUMPDEST POP JUMP JUMPDEST PUSH2 0x9A2 DUP1 PUSH3 0x505 PUSH1 0x0 CODECOPY PUSH1 0x0 RETURN INVALID PUSH1 0x80 PUSH1 0x40 MSTORE PUSH1 0x4 CALLDATASIZE LT PUSH2 0x29 JUMPI PUSH1 0x0 CALLDATALOAD PUSH1 0xE0 SHR DUP1 PUSH4 0x5699FADC EQ PUSH2 0x2E JUMPI DUP1 PUSH4 0xD63DC661 EQ PUSH2 0x57 JUMPI JUMPDEST PUSH1 0x0 DUP1 REVERT JUMPDEST CALLVALUE DUP1 ISZERO PUSH2 0x3A JUMPI PUSH1 0x0 DUP1 REVERT JUMPDEST POP PUSH2 0x55 PUSH1 0x4 DUP1 CALLDATASIZE SUB DUP2 ADD SWAP1 PUSH2 0x50 SWAP2 SWAP1 PUSH2 0x3FA JUMP JUMPDEST PUSH2 0x61 JUMP JUMPDEST STOP JUMPDEST PUSH2 0x5F PUSH2 0x1DD JUMP JUMPDEST STOP JUMPDEST PUSH1 0x5 PUSH1 0x0 SWAP1 SLOAD SWAP1 PUSH2 0x100 EXP SWAP1 DIV PUSH20 0xFFFFFFFFFFFFFFFFFFFFFFFFFFFFFFFFFFFFFFFF AND PUSH20 0xFFFFFFFFFFFFFFFFFFFFFFFFFFFFFFFFFFFFFFFF AND CALLER PUSH20 0xFFFFFFFFFFFFFFFFFFFFFFFFFFFFFFFFFFFFFFFF AND EQ PUSH2 0xF1 JUMPI PUSH1 0x40 MLOAD PUSH32 0x8C379A000000000000000000000000000000000000000000000000000000000 DUP2 MSTORE PUSH1 0x4 ADD PUSH2 0xE8 SWAP1 PUSH2 0x634 JUMP JUMPDEST PUSH1 0x40 MLOAD DUP1 SWAP2 SUB SWAP1 REVERT JUMPDEST DUP1 PUSH1 0x1 DUP2 GT ISZERO PUSH2 0x104 JUMPI PUSH2 0x103 PUSH2 0x780 JUMP JUMPDEST JUMPDEST PUSH1 0x5 PUSH1 0x14 SWAP1 SLOAD SWAP1 PUSH2 0x100 EXP SWAP1 DIV PUSH1 0xFF AND PUSH1 0x1 DUP2 GT ISZERO PUSH2 0x126 JUMPI PUSH2 0x125 PUSH2 0x780 JUMP JUMPDEST JUMPDEST EQ ISZERO PUSH2 0x167 JUMPI PUSH1 0x40 MLOAD PUSH32 0x8C379A000000000000000000000000000000000000000000000000000000000 DUP2 MSTORE PUSH1 0x4 ADD PUSH2 0x15E SWAP1 PUSH2 0x5F4 JUMP JUMPDEST PUSH1 0x40 MLOAD DUP1 SWAP2 SUB SWAP1 REVERT JUMPDEST DUP1 PUSH1 0x5 PUSH1 0x14 PUSH2 0x100 EXP DUP2 SLOAD DUP2 PUSH1 0xFF MUL NOT AND SWAP1 DUP4 PUSH1 0x1 DUP2 GT ISZERO PUSH2 0x18C JUMPI PUSH2 0x18B PUSH2 0x780 JUMP JUMPDEST JUMPDEST MUL OR SWAP1 SSTORE POP PUSH32 0xB364AB0CADEC04BEC8A97E81743129CECC3480279FB67B9378DF4219238B250F PUSH1 0x0 PUSH1 0x5 PUSH1 0x14 SWAP1 SLOAD SWAP1 PUSH2 0x100 EXP SWAP1 DIV PUSH1 0xFF AND PUSH1 0x40 MLOAD PUSH2 0x1D2 SWAP3 SWAP2 SWAP1 PUSH2 0x574 JUMP JUMPDEST PUSH1 0x40 MLOAD DUP1 SWAP2 SUB SWAP1 LOG1 POP JUMP JUMPDEST PUSH1 0x5 PUSH1 0x0 SWAP1 SLOAD SWAP1 PUSH2 0x100 EXP SWAP1 DIV PUSH20 0xFFFFFFFFFFFFFFFFFFFFFFFFFFFFFFFFFFFFFFFF AND PUSH20 0xFFFFFFFFFFFFFFFFFFFFFFFFFFFFFFFFFFFFFFFF AND CALLER PUSH20 0xFFFFFFFFFFFFFFFFFFFFFFFFFFFFFFFFFFFFFFFF AND EQ ISZERO PUSH2 0x26E JUMPI PUSH1 0x40 MLOAD PUSH32 0x8C379A000000000000000000000000000000000000000000000000000000000 DUP2 MSTORE PUSH1 0x4 ADD PUSH2 0x265 SWAP1 PUSH2 0x5D4 JUMP JUMPDEST PUSH1 0x40 MLOAD DUP1 SWAP2 SUB SWAP1 REVERT JUMPDEST PUSH1 0x1 DUP1 DUP2 GT ISZERO PUSH2 0x281 JUMPI PUSH2 0x280 PUSH2 0x780 JUMP JUMPDEST JUMPDEST PUSH1 0x5 PUSH1 0x14 SWAP1 SLOAD SWAP1 PUSH2 0x100 EXP SWAP1 DIV PUSH1 0xFF AND PUSH1 0x1 DUP2 GT ISZERO PUSH2 0x2A3 JUMPI PUSH2 0x2A2 PUSH2 0x780 JUMP JUMPDEST JUMPDEST EQ ISZERO PUSH2 0x2E4 JUMPI PUSH1 0x40 MLOAD PUSH32 0x8C379A000000000000000000000000000000000000000000000000000000000 DUP2 MSTORE PUSH1 0x4 ADD PUSH2 0x2DB SWAP1 PUSH2 0x614 JUMP JUMPDEST PUSH1 0x40 MLOAD DUP1 SWAP2 SUB SWAP1 REVERT JUMPDEST PUSH1 0x0 CALLVALUE GT PUSH2 0x327 JUMPI PUSH1 0x40 MLOAD PUSH32 0x8C379A000000000000000000000000000000000000000000000000000000000 DUP2 MSTORE PUSH1 0x4 ADD PUSH2 0x31E SWAP1 PUSH2 0x654 JUMP JUMPDEST PUSH1 0x40 MLOAD DUP1 SWAP2 SUB SWAP1 REVERT JUMPDEST PUSH1 0x5 PUSH1 0x0 SWAP1 SLOAD SWAP1 PUSH2 0x100 EXP SWAP1 DIV PUSH20 0xFFFFFFFFFFFFFFFFFFFFFFFFFFFFFFFFFFFFFFFF AND PUSH20 0xFFFFFFFFFFFFFFFFFFFFFFFFFFFFFFFFFFFFFFFF AND PUSH2 0x8FC CALLVALUE SWAP1 DUP2 ISZERO MUL SWAP1 PUSH1 0x40 MLOAD PUSH1 0x0 PUSH1 0x40 MLOAD DUP1 DUP4 SUB DUP2 DUP6 DUP9 DUP9 CALL SWAP4 POP POP POP POP ISZERO DUP1 ISZERO PUSH2 0x38F JUMPI RETURNDATASIZE PUSH1 0x0 DUP1 RETURNDATACOPY RETURNDATASIZE PUSH1 0x0 REVERT JUMPDEST POP CALLVALUE PUSH1 0x4 PUSH1 0x0 DUP3 DUP3 SLOAD PUSH2 0x3A2 SWAP2 SWAP1 PUSH2 0x69A JUMP JUMPDEST SWAP3 POP POP DUP2 SWAP1 SSTORE POP PUSH32 0x98A99E594DC0943C255BF9563AE2C4DA6FFCFD06F78B396B88988548AC825BA8 PUSH1 0x0 CALLVALUE PUSH1 0x40 MLOAD PUSH2 0x3DB SWAP3 SWAP2 SWAP1 PUSH2 0x5A4 JUMP JUMPDEST PUSH1 0x40 MLOAD DUP1 SWAP2 SUB SWAP1 LOG1 JUMP JUMPDEST PUSH1 0x0 DUP2 CALLDATALOAD SWAP1 POP PUSH2 0x3F4 DUP2 PUSH2 0x95C JUMP JUMPDEST SWAP3 SWAP2 POP POP JUMP JUMPDEST PUSH1 0x0 PUSH1 0x20 DUP3 DUP5 SUB SLT ISZERO PUSH2 0x410 JUMPI PUSH2 0x40F PUSH2 0x7DE JUMP JUMPDEST JUMPDEST PUSH1 0x0 PUSH2 0x41E DUP5 DUP3 DUP6 ADD PUSH2 0x3E5 JUMP JUMPDEST SWAP2 POP POP SWAP3 SWAP2 POP POP JUMP JUMPDEST PUSH2 0x430 DUP2 PUSH2 0x70D JUMP JUMPDEST DUP3 MSTORE POP POP JUMP JUMPDEST PUSH1 0x0 DUP2 SLOAD PUSH2 0x443 DUP2 PUSH2 0x71F JUMP JUMPDEST PUSH2 0x44D DUP2 DUP7 PUSH2 0x689 JUMP JUMPDEST SWAP5 POP PUSH1 0x1 DUP3 AND PUSH1 0x0 DUP2 EQ PUSH2 0x468 JUMPI PUSH1 0x1 DUP2 EQ PUSH2 0x47A JUMPI PUSH2 0x4AD JUMP JUMPDEST PUSH1 0xFF NOT DUP4 AND DUP7 MSTORE PUSH1 0x20 DUP7 ADD SWAP4 POP PUSH2 0x4AD JUMP JUMPDEST PUSH2 0x483 DUP6 PUSH2 0x674 JUMP JUMPDEST PUSH1 0x0 JUMPDEST DUP4 DUP2 LT ISZERO PUSH2 0x4A5 JUMPI DUP2 SLOAD DUP2 DUP10 ADD MSTORE PUSH1 0x1 DUP3 ADD SWAP2 POP PUSH1 0x20 DUP2 ADD SWAP1 POP PUSH2 0x486 JUMP JUMPDEST DUP1 DUP9 ADD SWAP6 POP POP POP JUMPDEST POP POP POP SWAP3 SWAP2 POP POP JUMP JUMPDEST PUSH1 0x0 PUSH2 0x4C3 PUSH1 0x22 DUP4 PUSH2 0x689 JUMP JUMPDEST SWAP2 POP PUSH2 0x4CE DUP3 PUSH2 0x7E3 JUMP JUMPDEST PUSH1 0x40 DUP3 ADD SWAP1 POP SWAP2 SWAP1 POP JUMP JUMPDEST PUSH1 0x0 PUSH2 0x4E6 PUSH1 0x1B DUP4 PUSH2 0x689 JUMP JUMPDEST SWAP2 POP PUSH2 0x4F1 DUP3 PUSH2 0x832 JUMP JUMPDEST PUSH1 0x20 DUP3 ADD SWAP1 POP SWAP2 SWAP1 POP JUMP JUMPDEST PUSH1 0x0 PUSH2 0x509 PUSH1 0x24 DUP4 PUSH2 0x689 JUMP JUMPDEST SWAP2 POP PUSH2 0x514 DUP3 PUSH2 0x85B JUMP JUMPDEST PUSH1 0x40 DUP3 ADD SWAP1 POP SWAP2 SWAP1 POP JUMP JUMPDEST PUSH1 0x0 PUSH2 0x52C PUSH1 0x2F DUP4 PUSH2 0x689 JUMP JUMPDEST SWAP2 POP PUSH2 0x537 DUP3 PUSH2 0x8AA JUMP JUMPDEST PUSH1 0x40 DUP3 ADD SWAP1 POP SWAP2 SWAP1 POP JUMP JUMPDEST PUSH1 0x0 PUSH2 0x54F PUSH1 0x22 DUP4 PUSH2 0x689 JUMP JUMPDEST SWAP2 POP PUSH2 0x55A DUP3 PUSH2 0x8F9 JUMP JUMPDEST PUSH1 0x40 DUP3 ADD SWAP1 POP SWAP2 SWAP1 POP JUMP JUMPDEST PUSH2 0x56E DUP2 PUSH2 0x703 JUMP JUMPDEST DUP3 MSTORE POP POP JUMP JUMPDEST PUSH1 0x0 PUSH1 0x40 DUP3 ADD SWAP1 POP DUP2 DUP2 SUB PUSH1 0x0 DUP4 ADD MSTORE PUSH2 0x58E DUP2 DUP6 PUSH2 0x436 JUMP JUMPDEST SWAP1 POP PUSH2 0x59D PUSH1 0x20 DUP4 ADD DUP5 PUSH2 0x427 JUMP JUMPDEST SWAP4 SWAP3 POP POP POP JUMP JUMPDEST PUSH1 0x0 PUSH1 0x40 DUP3 ADD SWAP1 POP DUP2 DUP2 SUB PUSH1 0x0 DUP4 ADD MSTORE PUSH2 0x5BE DUP2 DUP6 PUSH2 0x436 JUMP JUMPDEST SWAP1 POP PUSH2 0x5CD PUSH1 0x20 DUP4 ADD DUP5 PUSH2 0x565 JUMP JUMPDEST SWAP4 SWAP3 POP POP POP JUMP JUMPDEST PUSH1 0x0 PUSH1 0x20 DUP3 ADD SWAP1 POP DUP2 DUP2 SUB PUSH1 0x0 DUP4 ADD MSTORE PUSH2 0x5ED DUP2 PUSH2 0x4B6 JUMP JUMPDEST SWAP1 POP SWAP2 SWAP1 POP JUMP JUMPDEST PUSH1 0x0 PUSH1 0x20 DUP3 ADD SWAP1 POP DUP2 DUP2 SUB PUSH1 0x0 DUP4 ADD MSTORE PUSH2 0x60D DUP2 PUSH2 0x4D9 JUMP JUMPDEST SWAP1 POP SWAP2 SWAP1 POP JUMP JUMPDEST PUSH1 0x0 PUSH1 0x20 DUP3 ADD SWAP1 POP DUP2 DUP2 SUB PUSH1 0x0 DUP4 ADD MSTORE PUSH2 0x62D DUP2 PUSH2 0x4FC JUMP JUMPDEST SWAP1 POP SWAP2 SWAP1 POP JUMP JUMPDEST PUSH1 0x0 PUSH1 0x20 DUP3 ADD SWAP1 POP DUP2 DUP2 SUB PUSH1 0x0 DUP4 ADD MSTORE PUSH2 0x64D DUP2 PUSH2 0x51F JUMP JUMPDEST SWAP1 POP SWAP2 SWAP1 POP JUMP JUMPDEST PUSH1 0x0 PUSH1 0x20 DUP3 ADD SWAP1 POP DUP2 DUP2 SUB PUSH1 0x0 DUP4 ADD MSTORE PUSH2 0x66D DUP2 PUSH2 0x542 JUMP JUMPDEST SWAP1 POP SWAP2 SWAP1 POP JUMP JUMPDEST PUSH1 0x0 DUP2 SWAP1 POP DUP2 PUSH1 0x0 MSTORE PUSH1 0x20 PUSH1 0x0 KECCAK256 SWAP1 POP SWAP2 SWAP1 POP JUMP JUMPDEST PUSH1 0x0 DUP3 DUP3 MSTORE PUSH1 0x20 DUP3 ADD SWAP1 POP SWAP3 SWAP2 POP POP JUMP JUMPDEST PUSH1 0x0 PUSH2 0x6A5 DUP3 PUSH2 0x703 JUMP JUMPDEST SWAP2 POP PUSH2 0x6B0 DUP4 PUSH2 0x703 JUMP JUMPDEST SWAP3 POP DUP3 PUSH32 0xFFFFFFFFFFFFFFFFFFFFFFFFFFFFFFFFFFFFFFFFFFFFFFFFFFFFFFFFFFFFFFFF SUB DUP3 GT ISZERO PUSH2 0x6E5 JUMPI PUSH2 0x6E4 PUSH2 0x751 JUMP JUMPDEST JUMPDEST DUP3 DUP3 ADD SWAP1 POP SWAP3 SWAP2 POP POP JUMP JUMPDEST PUSH1 0x0 DUP2 SWAP1 POP PUSH2 0x6FE DUP3 PUSH2 0x948 JUMP JUMPDEST SWAP2 SWAP1 POP JUMP JUMPDEST PUSH1 0x0 DUP2 SWAP1 POP SWAP2 SWAP1 POP JUMP JUMPDEST PUSH1 0x0 PUSH2 0x718 DUP3 PUSH2 0x6F0 JUMP JUMPDEST SWAP1 POP SWAP2 SWAP1 POP JUMP JUMPDEST PUSH1 0x0 PUSH1 0x2 DUP3 DIV SWAP1 POP PUSH1 0x1 DUP3 AND DUP1 PUSH2 0x737 JUMPI PUSH1 0x7F DUP3 AND SWAP2 POP JUMPDEST PUSH1 0x20 DUP3 LT DUP2 EQ ISZERO PUSH2 0x74B JUMPI PUSH2 0x74A PUSH2 0x7AF JUMP JUMPDEST JUMPDEST POP SWAP2 SWAP1 POP JUMP JUMPDEST PUSH32 0x4E487B7100000000000000000000000000000000000000000000000000000000 PUSH1 0x0 MSTORE PUSH1 0x11 PUSH1 0x4 MSTORE PUSH1 0x24 PUSH1 0x0 REVERT JUMPDEST PUSH32 0x4E487B7100000000000000000000000000000000000000000000000000000000 PUSH1 0x0 MSTORE PUSH1 0x21 PUSH1 0x4 MSTORE PUSH1 0x24 PUSH1 0x0 REVERT JUMPDEST PUSH32 0x4E487B7100000000000000000000000000000000000000000000000000000000 PUSH1 0x0 MSTORE PUSH1 0x22 PUSH1 0x4 MSTORE PUSH1 0x24 PUSH1 0x0 REVERT JUMPDEST PUSH1 0x0 DUP1 REVERT JUMPDEST PUSH32 0x54686520617574686F722063616E6E6F742066756E64207468652070726F6A65 PUSH1 0x0 DUP3 ADD MSTORE PUSH32 0x6374000000000000000000000000000000000000000000000000000000000000 PUSH1 0x20 DUP3 ADD MSTORE POP JUMP JUMPDEST PUSH32 0x4E6577207374617465206D75737420626520646966666572656E740000000000 PUSH1 0x0 DUP3 ADD MSTORE POP JUMP JUMPDEST PUSH32 0x5468652066756E64696E67206F66207468652070726F6A65637420697320636C PUSH1 0x0 DUP3 ADD MSTORE PUSH32 0x6F73656400000000000000000000000000000000000000000000000000000000 PUSH1 0x20 DUP3 ADD MSTORE POP JUMP JUMPDEST PUSH32 0x4F6E6C7920617574686F722063616E206368616E676520746865207374617465 PUSH1 0x0 DUP3 ADD MSTORE PUSH32 0x206F66207468652070726F6A6563740000000000000000000000000000000000 PUSH1 0x20 DUP3 ADD MSTORE POP JUMP JUMPDEST PUSH32 0x66756E6472616973696E67206D7573742062652067726561746572207468616E PUSH1 0x0 DUP3 ADD MSTORE PUSH32 0x2030000000000000000000000000000000000000000000000000000000000000 PUSH1 0x20 DUP3 ADD MSTORE POP JUMP JUMPDEST PUSH1 0x2 DUP2 LT PUSH2 0x959 JUMPI PUSH2 0x958 PUSH2 0x780 JUMP JUMPDEST JUMPDEST POP JUMP JUMPDEST PUSH1 0x2 DUP2 LT PUSH2 0x969 JUMPI PUSH1 0x0 DUP1 REVERT JUMPDEST POP JUMP INVALID LOG2 PUSH5 0x6970667358 0x22 SLT KECCAK256 0x5E PUSH8 0x65DA0D65AFEAA838 PUSH25 0x293F2F7F86CA870B26F6BD8FD98F87FEC50B726BF164736F6C PUSH4 0x43000807 STOP CALLER "
				},
				"gasEstimates": {
					"creation": {
						"codeDepositCost": "493200",
						"executionCost": "infinite",
						"totalCost": "infinite"
					},
					"external": {
						"changeProjectState(uint8)": "infinite",
						"fundProject()": "infinite"
					}
				},
				"methodIdentifiers": {
					"changeProjectState(uint8)": "5699fadc",
					"fundProject()": "d63dc661"
				}
			},
			"storageLayout": {
				"storage": [
					{
						"astId": 6,
						"contract": "contracts/project.sol:CrowdFunding",
						"label": "id",
						"offset": 0,
						"slot": "0",
						"type": "t_string_storage"
					},
					{
						"astId": 8,
						"contract": "contracts/project.sol:CrowdFunding",
						"label": "name",
						"offset": 0,
						"slot": "1",
						"type": "t_string_storage"
					},
					{
						"astId": 10,
						"contract": "contracts/project.sol:CrowdFunding",
						"label": "description",
						"offset": 0,
						"slot": "2",
						"type": "t_string_storage"
					},
					{
						"astId": 12,
						"contract": "contracts/project.sol:CrowdFunding",
						"label": "goal",
						"offset": 0,
						"slot": "3",
						"type": "t_uint256"
					},
					{
						"astId": 14,
						"contract": "contracts/project.sol:CrowdFunding",
						"label": "funds",
						"offset": 0,
						"slot": "4",
						"type": "t_uint256"
					},
					{
						"astId": 16,
						"contract": "contracts/project.sol:CrowdFunding",
						"label": "author",
						"offset": 0,
						"slot": "5",
						"type": "t_address_payable"
					},
					{
						"astId": 19,
						"contract": "contracts/project.sol:CrowdFunding",
						"label": "state",
						"offset": 20,
						"slot": "5",
						"type": "t_enum(State)4"
					},
					{
						"astId": 22,
						"contract": "contracts/project.sol:CrowdFunding",
						"label": "projectState",
						"offset": 21,
						"slot": "5",
						"type": "t_enum(State)4"
					}
				],
				"types": {
					"t_address_payable": {
						"encoding": "inplace",
						"label": "address payable",
						"numberOfBytes": "20"
					},
					"t_enum(State)4": {
						"encoding": "inplace",
						"label": "enum CrowdFunding.State",
						"numberOfBytes": "1"
					},
					"t_string_storage": {
						"encoding": "bytes",
						"label": "string",
						"numberOfBytes": "32"
					},
					"t_uint256": {
						"encoding": "inplace",
						"label": "uint256",
						"numberOfBytes": "32"
					}
				}
			},
			"userdoc": {
				"kind": "user",
				"methods": {},
				"version": 1
			}
		}
	}
}