{
	"contracts/project.sol": {
		"CrowdFunding": {
			"abi": [
				{
					"inputs": [
						{
							"internalType": "string",
							"name": "_id",
							"type": "string"
						},
						{
							"internalType": "string",
							"name": "_name",
							"type": "string"
						},
						{
							"internalType": "string",
							"name": "_description",
							"type": "string"
						},
						{
							"internalType": "uint256",
							"name": "_goal",
							"type": "uint256"
						}
					],
					"stateMutability": "nonpayable",
					"type": "constructor"
				},
				{
					"anonymous": false,
					"inputs": [
						{
							"indexed": false,
							"internalType": "string",
							"name": "newState",
							"type": "string"
						}
					],
					"name": "changeProjectStateLog",
					"type": "event"
				},
				{
					"anonymous": false,
					"inputs": [
						{
							"indexed": false,
							"internalType": "address",
							"name": "funder",
							"type": "address"
						},
						{
							"indexed": false,
							"internalType": "uint256",
							"name": "newFunds",
							"type": "uint256"
						}
					],
					"name": "fundProjectLog",
					"type": "event"
				},
				{
					"inputs": [
						{
							"internalType": "string",
							"name": "newState",
							"type": "string"
						}
					],
					"name": "changeProjectState",
					"outputs": [],
					"stateMutability": "nonpayable",
					"type": "function"
				},
				{
					"inputs": [],
					"name": "fundProject",
					"outputs": [],
					"stateMutability": "payable",
					"type": "function"
				}
			],
			"devdoc": {
				"kind": "dev",
				"methods": {},
				"version": 1
			},
			"evm": {
				"assembly": "    /* \"contracts/project.sol\":74:1293  contract CrowdFunding {\r... */\n  mstore(0x40, 0x80)\n    /* \"contracts/project.sol\":247:567  constructor(string memory _id, string memory _name, string memory _description, uint _goal) {\r... */\n  callvalue\n  dup1\n  iszero\n  tag_1\n  jumpi\n  0x00\n  dup1\n  revert\ntag_1:\n  pop\n  mload(0x40)\n  sub(codesize, bytecodeSize)\n  dup1\n  bytecodeSize\n  dup4\n  codecopy\n  dup2\n  dup2\n  add\n  0x40\n  mstore\n  dup2\n  add\n  swap1\n  tag_2\n  swap2\n  swap1\n  tag_3\n  jump\t// in\ntag_2:\n    /* \"contracts/project.sol\":355:358  _id */\n  dup4\n    /* \"contracts/project.sol\":350:352  id */\n  0x00\n    /* \"contracts/project.sol\":350:358  id = _id */\n  swap1\n  dup1\n  mload\n  swap1\n  0x20\n  add\n  swap1\n  tag_6\n  swap3\n  swap2\n  swap1\n  tag_7\n  jump\t// in\ntag_6:\n  pop\n    /* \"contracts/project.sol\":376:381  _name */\n  dup3\n    /* \"contracts/project.sol\":369:373  name */\n  0x01\n    /* \"contracts/project.sol\":369:381  name = _name */\n  swap1\n  dup1\n  mload\n  swap1\n  0x20\n  add\n  swap1\n  tag_8\n  swap3\n  swap2\n  swap1\n  tag_7\n  jump\t// in\ntag_8:\n  pop\n    /* \"contracts/project.sol\":405:417  _description */\n  dup2\n    /* \"contracts/project.sol\":392:403  description */\n  0x02\n    /* \"contracts/project.sol\":392:417  description= _description */\n  swap1\n  dup1\n  mload\n  swap1\n  0x20\n  add\n  swap1\n  tag_9\n  swap3\n  swap2\n  swap1\n  tag_7\n  jump\t// in\ntag_9:\n  pop\n    /* \"contracts/project.sol\":435:440  _goal */\n  dup1\n    /* \"contracts/project.sol\":428:432  goal */\n  0x03\n    /* \"contracts/project.sol\":428:440  goal = _goal */\n  dup2\n  swap1\n  sstore\n  pop\n    /* \"contracts/project.sol\":468:478  msg.sender */\n  caller\n    /* \"contracts/project.sol\":451:457  author */\n  0x05\n  0x00\n    /* \"contracts/project.sol\":451:479  author = payable(msg.sender) */\n  0x0100\n  exp\n  dup2\n  sload\n  dup2\n  0xffffffffffffffffffffffffffffffffffffffff\n  mul\n  not\n  and\n  swap1\n  dup4\n  0xffffffffffffffffffffffffffffffffffffffff\n  and\n  mul\n  or\n  swap1\n  sstore\n  pop\n    /* \"contracts/project.sol\":531:532  0 */\n  0x00\n    /* \"contracts/project.sol\":523:528  funds */\n  0x04\n    /* \"contracts/project.sol\":523:532  funds = 0 */\n  dup2\n  swap1\n  sstore\n  pop\n    /* \"contracts/project.sol\":543:559  state = 'Opened' */\n  mload(0x40)\n  dup1\n  0x40\n  add\n  0x40\n  mstore\n  dup1\n  0x06\n  dup2\n  mstore\n  0x20\n  add\n  0x4f70656e65640000000000000000000000000000000000000000000000000000\n  dup2\n  mstore\n  pop\n    /* \"contracts/project.sol\":543:548  state */\n  0x06\n    /* \"contracts/project.sol\":543:559  state = 'Opened' */\n  swap1\n  dup1\n  mload\n  swap1\n  0x20\n  add\n  swap1\n  tag_10\n  swap3\n  swap2\n  swap1\n  tag_7\n  jump\t// in\ntag_10:\n  pop\n    /* \"contracts/project.sol\":247:567  constructor(string memory _id, string memory _name, string memory _description, uint _goal) {\r... */\n  pop\n  pop\n  pop\n  pop\n    /* \"contracts/project.sol\":74:1293  contract CrowdFunding {\r... */\n  jump(tag_11)\ntag_7:\n  dup3\n  dup1\n  sload\n  tag_12\n  swap1\n  tag_13\n  jump\t// in\ntag_12:\n  swap1\n  0x00\n  mstore\n  keccak256(0x00, 0x20)\n  swap1\n  0x1f\n  add\n  0x20\n  swap1\n  div\n  dup2\n  add\n  swap3\n  dup3\n  tag_15\n  jumpi\n  0x00\n  dup6\n  sstore\n  jump(tag_14)\ntag_15:\n  dup3\n  0x1f\n  lt\n  tag_16\n  jumpi\n  dup1\n  mload\n  not(0xff)\n  and\n  dup4\n  dup1\n  add\n  or\n  dup6\n  sstore\n  jump(tag_14)\ntag_16:\n  dup3\n  dup1\n  add\n  0x01\n  add\n  dup6\n  sstore\n  dup3\n  iszero\n  tag_14\n  jumpi\n  swap2\n  dup3\n  add\ntag_17:\n  dup3\n  dup2\n  gt\n  iszero\n  tag_18\n  jumpi\n  dup3\n  mload\n  dup3\n  sstore\n  swap2\n  0x20\n  add\n  swap2\n  swap1\n  0x01\n  add\n  swap1\n  jump(tag_17)\ntag_18:\ntag_14:\n  pop\n  swap1\n  pop\n  tag_19\n  swap2\n  swap1\n  tag_20\n  jump\t// in\ntag_19:\n  pop\n  swap1\n  jump\t// out\ntag_20:\ntag_21:\n  dup1\n  dup3\n  gt\n  iszero\n  tag_22\n  jumpi\n  0x00\n  dup2\n  0x00\n  swap1\n  sstore\n  pop\n  0x01\n  add\n  jump(tag_21)\ntag_22:\n  pop\n  swap1\n  jump\t// out\n    /* \"#utility.yul\":7:428   */\ntag_24:\n    /* \"#utility.yul\":96:101   */\n  0x00\n    /* \"#utility.yul\":121:187   */\n  tag_26\n    /* \"#utility.yul\":137:186   */\n  tag_27\n    /* \"#utility.yul\":179:185   */\n  dup5\n    /* \"#utility.yul\":137:186   */\n  tag_28\n  jump\t// in\ntag_27:\n    /* \"#utility.yul\":121:187   */\n  tag_29\n  jump\t// in\ntag_26:\n    /* \"#utility.yul\":112:187   */\n  swap1\n  pop\n    /* \"#utility.yul\":210:216   */\n  dup3\n    /* \"#utility.yul\":203:208   */\n  dup2\n    /* \"#utility.yul\":196:217   */\n  mstore\n    /* \"#utility.yul\":248:252   */\n  0x20\n    /* \"#utility.yul\":241:246   */\n  dup2\n    /* \"#utility.yul\":237:253   */\n  add\n    /* \"#utility.yul\":286:289   */\n  dup5\n    /* \"#utility.yul\":277:283   */\n  dup5\n    /* \"#utility.yul\":272:275   */\n  dup5\n    /* \"#utility.yul\":268:284   */\n  add\n    /* \"#utility.yul\":265:290   */\n  gt\n    /* \"#utility.yul\":262:374   */\n  iszero\n  tag_30\n  jumpi\n    /* \"#utility.yul\":293:372   */\n  tag_31\n  tag_32\n  jump\t// in\ntag_31:\n    /* \"#utility.yul\":262:374   */\ntag_30:\n    /* \"#utility.yul\":383:422   */\n  tag_33\n    /* \"#utility.yul\":415:421   */\n  dup5\n    /* \"#utility.yul\":410:413   */\n  dup3\n    /* \"#utility.yul\":405:408   */\n  dup6\n    /* \"#utility.yul\":383:422   */\n  tag_34\n  jump\t// in\ntag_33:\n    /* \"#utility.yul\":102:428   */\n  pop\n    /* \"#utility.yul\":7:428   */\n  swap4\n  swap3\n  pop\n  pop\n  pop\n  jump\t// out\n    /* \"#utility.yul\":448:803   */\ntag_35:\n    /* \"#utility.yul\":515:520   */\n  0x00\n    /* \"#utility.yul\":564:567   */\n  dup3\n    /* \"#utility.yul\":557:561   */\n  0x1f\n    /* \"#utility.yul\":549:555   */\n  dup4\n    /* \"#utility.yul\":545:562   */\n  add\n    /* \"#utility.yul\":541:568   */\n  slt\n    /* \"#utility.yul\":531:653   */\n  tag_37\n  jumpi\n    /* \"#utility.yul\":572:651   */\n  tag_38\n  tag_39\n  jump\t// in\ntag_38:\n    /* \"#utility.yul\":531:653   */\ntag_37:\n    /* \"#utility.yul\":682:688   */\n  dup2\n    /* \"#utility.yul\":676:689   */\n  mload\n    /* \"#utility.yul\":707:797   */\n  tag_40\n    /* \"#utility.yul\":793:796   */\n  dup5\n    /* \"#utility.yul\":785:791   */\n  dup3\n    /* \"#utility.yul\":778:782   */\n  0x20\n    /* \"#utility.yul\":770:776   */\n  dup7\n    /* \"#utility.yul\":766:783   */\n  add\n    /* \"#utility.yul\":707:797   */\n  tag_24\n  jump\t// in\ntag_40:\n    /* \"#utility.yul\":698:797   */\n  swap2\n  pop\n    /* \"#utility.yul\":521:803   */\n  pop\n    /* \"#utility.yul\":448:803   */\n  swap3\n  swap2\n  pop\n  pop\n  jump\t// out\n    /* \"#utility.yul\":809:952   */\ntag_41:\n    /* \"#utility.yul\":866:871   */\n  0x00\n    /* \"#utility.yul\":897:903   */\n  dup2\n    /* \"#utility.yul\":891:904   */\n  mload\n    /* \"#utility.yul\":882:904   */\n  swap1\n  pop\n    /* \"#utility.yul\":913:946   */\n  tag_43\n    /* \"#utility.yul\":940:945   */\n  dup2\n    /* \"#utility.yul\":913:946   */\n  tag_44\n  jump\t// in\ntag_43:\n    /* \"#utility.yul\":809:952   */\n  swap3\n  swap2\n  pop\n  pop\n  jump\t// out\n    /* \"#utility.yul\":958:2297   */\ntag_3:\n    /* \"#utility.yul\":1085:1091   */\n  0x00\n    /* \"#utility.yul\":1093:1099   */\n  dup1\n    /* \"#utility.yul\":1101:1107   */\n  0x00\n    /* \"#utility.yul\":1109:1115   */\n  dup1\n    /* \"#utility.yul\":1158:1161   */\n  0x80\n    /* \"#utility.yul\":1146:1155   */\n  dup6\n    /* \"#utility.yul\":1137:1144   */\n  dup8\n    /* \"#utility.yul\":1133:1156   */\n  sub\n    /* \"#utility.yul\":1129:1162   */\n  slt\n    /* \"#utility.yul\":1126:1246   */\n  iszero\n  tag_46\n  jumpi\n    /* \"#utility.yul\":1165:1244   */\n  tag_47\n  tag_48\n  jump\t// in\ntag_47:\n    /* \"#utility.yul\":1126:1246   */\ntag_46:\n    /* \"#utility.yul\":1306:1307   */\n  0x00\n    /* \"#utility.yul\":1295:1304   */\n  dup6\n    /* \"#utility.yul\":1291:1308   */\n  add\n    /* \"#utility.yul\":1285:1309   */\n  mload\n    /* \"#utility.yul\":1336:1354   */\n  0xffffffffffffffff\n    /* \"#utility.yul\":1328:1334   */\n  dup2\n    /* \"#utility.yul\":1325:1355   */\n  gt\n    /* \"#utility.yul\":1322:1439   */\n  iszero\n  tag_49\n  jumpi\n    /* \"#utility.yul\":1358:1437   */\n  tag_50\n  tag_51\n  jump\t// in\ntag_50:\n    /* \"#utility.yul\":1322:1439   */\ntag_49:\n    /* \"#utility.yul\":1463:1537   */\n  tag_52\n    /* \"#utility.yul\":1529:1536   */\n  dup8\n    /* \"#utility.yul\":1520:1526   */\n  dup3\n    /* \"#utility.yul\":1509:1518   */\n  dup9\n    /* \"#utility.yul\":1505:1527   */\n  add\n    /* \"#utility.yul\":1463:1537   */\n  tag_35\n  jump\t// in\ntag_52:\n    /* \"#utility.yul\":1453:1537   */\n  swap5\n  pop\n    /* \"#utility.yul\":1256:1547   */\n  pop\n    /* \"#utility.yul\":1607:1609   */\n  0x20\n    /* \"#utility.yul\":1596:1605   */\n  dup6\n    /* \"#utility.yul\":1592:1610   */\n  add\n    /* \"#utility.yul\":1586:1611   */\n  mload\n    /* \"#utility.yul\":1638:1656   */\n  0xffffffffffffffff\n    /* \"#utility.yul\":1630:1636   */\n  dup2\n    /* \"#utility.yul\":1627:1657   */\n  gt\n    /* \"#utility.yul\":1624:1741   */\n  iszero\n  tag_53\n  jumpi\n    /* \"#utility.yul\":1660:1739   */\n  tag_54\n  tag_51\n  jump\t// in\ntag_54:\n    /* \"#utility.yul\":1624:1741   */\ntag_53:\n    /* \"#utility.yul\":1765:1839   */\n  tag_55\n    /* \"#utility.yul\":1831:1838   */\n  dup8\n    /* \"#utility.yul\":1822:1828   */\n  dup3\n    /* \"#utility.yul\":1811:1820   */\n  dup9\n    /* \"#utility.yul\":1807:1829   */\n  add\n    /* \"#utility.yul\":1765:1839   */\n  tag_35\n  jump\t// in\ntag_55:\n    /* \"#utility.yul\":1755:1839   */\n  swap4\n  pop\n    /* \"#utility.yul\":1557:1849   */\n  pop\n    /* \"#utility.yul\":1909:1911   */\n  0x40\n    /* \"#utility.yul\":1898:1907   */\n  dup6\n    /* \"#utility.yul\":1894:1912   */\n  add\n    /* \"#utility.yul\":1888:1913   */\n  mload\n    /* \"#utility.yul\":1940:1958   */\n  0xffffffffffffffff\n    /* \"#utility.yul\":1932:1938   */\n  dup2\n    /* \"#utility.yul\":1929:1959   */\n  gt\n    /* \"#utility.yul\":1926:2043   */\n  iszero\n  tag_56\n  jumpi\n    /* \"#utility.yul\":1962:2041   */\n  tag_57\n  tag_51\n  jump\t// in\ntag_57:\n    /* \"#utility.yul\":1926:2043   */\ntag_56:\n    /* \"#utility.yul\":2067:2141   */\n  tag_58\n    /* \"#utility.yul\":2133:2140   */\n  dup8\n    /* \"#utility.yul\":2124:2130   */\n  dup3\n    /* \"#utility.yul\":2113:2122   */\n  dup9\n    /* \"#utility.yul\":2109:2131   */\n  add\n    /* \"#utility.yul\":2067:2141   */\n  tag_35\n  jump\t// in\ntag_58:\n    /* \"#utility.yul\":2057:2141   */\n  swap3\n  pop\n    /* \"#utility.yul\":1859:2151   */\n  pop\n    /* \"#utility.yul\":2190:2192   */\n  0x60\n    /* \"#utility.yul\":2216:2280   */\n  tag_59\n    /* \"#utility.yul\":2272:2279   */\n  dup8\n    /* \"#utility.yul\":2263:2269   */\n  dup3\n    /* \"#utility.yul\":2252:2261   */\n  dup9\n    /* \"#utility.yul\":2248:2270   */\n  add\n    /* \"#utility.yul\":2216:2280   */\n  tag_41\n  jump\t// in\ntag_59:\n    /* \"#utility.yul\":2206:2280   */\n  swap2\n  pop\n    /* \"#utility.yul\":2161:2290   */\n  pop\n    /* \"#utility.yul\":958:2297   */\n  swap3\n  swap6\n  swap2\n  swap5\n  pop\n  swap3\n  pop\n  jump\t// out\n    /* \"#utility.yul\":2303:2432   */\ntag_29:\n    /* \"#utility.yul\":2337:2343   */\n  0x00\n    /* \"#utility.yul\":2364:2384   */\n  tag_61\n  tag_62\n  jump\t// in\ntag_61:\n    /* \"#utility.yul\":2354:2384   */\n  swap1\n  pop\n    /* \"#utility.yul\":2393:2426   */\n  tag_63\n    /* \"#utility.yul\":2421:2425   */\n  dup3\n    /* \"#utility.yul\":2413:2419   */\n  dup3\n    /* \"#utility.yul\":2393:2426   */\n  tag_64\n  jump\t// in\ntag_63:\n    /* \"#utility.yul\":2303:2432   */\n  swap2\n  swap1\n  pop\n  jump\t// out\n    /* \"#utility.yul\":2438:2513   */\ntag_62:\n    /* \"#utility.yul\":2471:2477   */\n  0x00\n    /* \"#utility.yul\":2504:2506   */\n  0x40\n    /* \"#utility.yul\":2498:2507   */\n  mload\n    /* \"#utility.yul\":2488:2507   */\n  swap1\n  pop\n    /* \"#utility.yul\":2438:2513   */\n  swap1\n  jump\t// out\n    /* \"#utility.yul\":2519:2827   */\ntag_28:\n    /* \"#utility.yul\":2581:2585   */\n  0x00\n    /* \"#utility.yul\":2671:2689   */\n  0xffffffffffffffff\n    /* \"#utility.yul\":2663:2669   */\n  dup3\n    /* \"#utility.yul\":2660:2690   */\n  gt\n    /* \"#utility.yul\":2657:2713   */\n  iszero\n  tag_67\n  jumpi\n    /* \"#utility.yul\":2693:2711   */\n  tag_68\n  tag_69\n  jump\t// in\ntag_68:\n    /* \"#utility.yul\":2657:2713   */\ntag_67:\n    /* \"#utility.yul\":2731:2760   */\n  tag_70\n    /* \"#utility.yul\":2753:2759   */\n  dup3\n    /* \"#utility.yul\":2731:2760   */\n  tag_71\n  jump\t// in\ntag_70:\n    /* \"#utility.yul\":2723:2760   */\n  swap1\n  pop\n    /* \"#utility.yul\":2815:2819   */\n  0x20\n    /* \"#utility.yul\":2809:2813   */\n  dup2\n    /* \"#utility.yul\":2805:2820   */\n  add\n    /* \"#utility.yul\":2797:2820   */\n  swap1\n  pop\n    /* \"#utility.yul\":2519:2827   */\n  swap2\n  swap1\n  pop\n  jump\t// out\n    /* \"#utility.yul\":2833:2910   */\ntag_72:\n    /* \"#utility.yul\":2870:2877   */\n  0x00\n    /* \"#utility.yul\":2899:2904   */\n  dup2\n    /* \"#utility.yul\":2888:2904   */\n  swap1\n  pop\n    /* \"#utility.yul\":2833:2910   */\n  swap2\n  swap1\n  pop\n  jump\t// out\n    /* \"#utility.yul\":2916:3223   */\ntag_34:\n    /* \"#utility.yul\":2984:2985   */\n  0x00\n    /* \"#utility.yul\":2994:3107   */\ntag_75:\n    /* \"#utility.yul\":3008:3014   */\n  dup4\n    /* \"#utility.yul\":3005:3006   */\n  dup2\n    /* \"#utility.yul\":3002:3015   */\n  lt\n    /* \"#utility.yul\":2994:3107   */\n  iszero\n  tag_77\n  jumpi\n    /* \"#utility.yul\":3093:3094   */\n  dup1\n    /* \"#utility.yul\":3088:3091   */\n  dup3\n    /* \"#utility.yul\":3084:3095   */\n  add\n    /* \"#utility.yul\":3078:3096   */\n  mload\n    /* \"#utility.yul\":3074:3075   */\n  dup2\n    /* \"#utility.yul\":3069:3072   */\n  dup5\n    /* \"#utility.yul\":3065:3076   */\n  add\n    /* \"#utility.yul\":3058:3097   */\n  mstore\n    /* \"#utility.yul\":3030:3032   */\n  0x20\n    /* \"#utility.yul\":3027:3028   */\n  dup2\n    /* \"#utility.yul\":3023:3033   */\n  add\n    /* \"#utility.yul\":3018:3033   */\n  swap1\n  pop\n    /* \"#utility.yul\":2994:3107   */\n  jump(tag_75)\ntag_77:\n    /* \"#utility.yul\":3125:3131   */\n  dup4\n    /* \"#utility.yul\":3122:3123   */\n  dup2\n    /* \"#utility.yul\":3119:3132   */\n  gt\n    /* \"#utility.yul\":3116:3217   */\n  iszero\n  tag_78\n  jumpi\n    /* \"#utility.yul\":3205:3206   */\n  0x00\n    /* \"#utility.yul\":3196:3202   */\n  dup5\n    /* \"#utility.yul\":3191:3194   */\n  dup5\n    /* \"#utility.yul\":3187:3203   */\n  add\n    /* \"#utility.yul\":3180:3207   */\n  mstore\n    /* \"#utility.yul\":3116:3217   */\ntag_78:\n    /* \"#utility.yul\":2965:3223   */\n  pop\n    /* \"#utility.yul\":2916:3223   */\n  pop\n  pop\n  pop\n  jump\t// out\n    /* \"#utility.yul\":3229:3549   */\ntag_13:\n    /* \"#utility.yul\":3273:3279   */\n  0x00\n    /* \"#utility.yul\":3310:3311   */\n  0x02\n    /* \"#utility.yul\":3304:3308   */\n  dup3\n    /* \"#utility.yul\":3300:3312   */\n  div\n    /* \"#utility.yul\":3290:3312   */\n  swap1\n  pop\n    /* \"#utility.yul\":3357:3358   */\n  0x01\n    /* \"#utility.yul\":3351:3355   */\n  dup3\n    /* \"#utility.yul\":3347:3359   */\n  and\n    /* \"#utility.yul\":3378:3396   */\n  dup1\n    /* \"#utility.yul\":3368:3449   */\n  tag_80\n  jumpi\n    /* \"#utility.yul\":3434:3438   */\n  0x7f\n    /* \"#utility.yul\":3426:3432   */\n  dup3\n    /* \"#utility.yul\":3422:3439   */\n  and\n    /* \"#utility.yul\":3412:3439   */\n  swap2\n  pop\n    /* \"#utility.yul\":3368:3449   */\ntag_80:\n    /* \"#utility.yul\":3496:3498   */\n  0x20\n    /* \"#utility.yul\":3488:3494   */\n  dup3\n    /* \"#utility.yul\":3485:3499   */\n  lt\n    /* \"#utility.yul\":3465:3483   */\n  dup2\n    /* \"#utility.yul\":3462:3500   */\n  eq\n    /* \"#utility.yul\":3459:3543   */\n  iszero\n  tag_81\n  jumpi\n    /* \"#utility.yul\":3515:3533   */\n  tag_82\n  tag_83\n  jump\t// in\ntag_82:\n    /* \"#utility.yul\":3459:3543   */\ntag_81:\n    /* \"#utility.yul\":3280:3549   */\n  pop\n    /* \"#utility.yul\":3229:3549   */\n  swap2\n  swap1\n  pop\n  jump\t// out\n    /* \"#utility.yul\":3555:3836   */\ntag_64:\n    /* \"#utility.yul\":3638:3665   */\n  tag_85\n    /* \"#utility.yul\":3660:3664   */\n  dup3\n    /* \"#utility.yul\":3638:3665   */\n  tag_71\n  jump\t// in\ntag_85:\n    /* \"#utility.yul\":3630:3636   */\n  dup2\n    /* \"#utility.yul\":3626:3666   */\n  add\n    /* \"#utility.yul\":3768:3774   */\n  dup2\n    /* \"#utility.yul\":3756:3766   */\n  dup2\n    /* \"#utility.yul\":3753:3775   */\n  lt\n    /* \"#utility.yul\":3732:3750   */\n  0xffffffffffffffff\n    /* \"#utility.yul\":3720:3730   */\n  dup3\n    /* \"#utility.yul\":3717:3751   */\n  gt\n    /* \"#utility.yul\":3714:3776   */\n  or\n    /* \"#utility.yul\":3711:3799   */\n  iszero\n  tag_86\n  jumpi\n    /* \"#utility.yul\":3779:3797   */\n  tag_87\n  tag_69\n  jump\t// in\ntag_87:\n    /* \"#utility.yul\":3711:3799   */\ntag_86:\n    /* \"#utility.yul\":3819:3829   */\n  dup1\n    /* \"#utility.yul\":3815:3817   */\n  0x40\n    /* \"#utility.yul\":3808:3830   */\n  mstore\n    /* \"#utility.yul\":3598:3836   */\n  pop\n    /* \"#utility.yul\":3555:3836   */\n  pop\n  pop\n  jump\t// out\n    /* \"#utility.yul\":3842:4022   */\ntag_83:\n    /* \"#utility.yul\":3890:3967   */\n  0x4e487b7100000000000000000000000000000000000000000000000000000000\n    /* \"#utility.yul\":3887:3888   */\n  0x00\n    /* \"#utility.yul\":3880:3968   */\n  mstore\n    /* \"#utility.yul\":3987:3991   */\n  0x22\n    /* \"#utility.yul\":3984:3985   */\n  0x04\n    /* \"#utility.yul\":3977:3992   */\n  mstore\n    /* \"#utility.yul\":4011:4015   */\n  0x24\n    /* \"#utility.yul\":4008:4009   */\n  0x00\n    /* \"#utility.yul\":4001:4016   */\n  revert\n    /* \"#utility.yul\":4028:4208   */\ntag_69:\n    /* \"#utility.yul\":4076:4153   */\n  0x4e487b7100000000000000000000000000000000000000000000000000000000\n    /* \"#utility.yul\":4073:4074   */\n  0x00\n    /* \"#utility.yul\":4066:4154   */\n  mstore\n    /* \"#utility.yul\":4173:4177   */\n  0x41\n    /* \"#utility.yul\":4170:4171   */\n  0x04\n    /* \"#utility.yul\":4163:4178   */\n  mstore\n    /* \"#utility.yul\":4197:4201   */\n  0x24\n    /* \"#utility.yul\":4194:4195   */\n  0x00\n    /* \"#utility.yul\":4187:4202   */\n  revert\n    /* \"#utility.yul\":4214:4331   */\ntag_39:\n    /* \"#utility.yul\":4323:4324   */\n  0x00\n    /* \"#utility.yul\":4320:4321   */\n  dup1\n    /* \"#utility.yul\":4313:4325   */\n  revert\n    /* \"#utility.yul\":4337:4454   */\ntag_32:\n    /* \"#utility.yul\":4446:4447   */\n  0x00\n    /* \"#utility.yul\":4443:4444   */\n  dup1\n    /* \"#utility.yul\":4436:4448   */\n  revert\n    /* \"#utility.yul\":4460:4577   */\ntag_51:\n    /* \"#utility.yul\":4569:4570   */\n  0x00\n    /* \"#utility.yul\":4566:4567   */\n  dup1\n    /* \"#utility.yul\":4559:4571   */\n  revert\n    /* \"#utility.yul\":4583:4700   */\ntag_48:\n    /* \"#utility.yul\":4692:4693   */\n  0x00\n    /* \"#utility.yul\":4689:4690   */\n  dup1\n    /* \"#utility.yul\":4682:4694   */\n  revert\n    /* \"#utility.yul\":4706:4808   */\ntag_71:\n    /* \"#utility.yul\":4747:4753   */\n  0x00\n    /* \"#utility.yul\":4798:4800   */\n  0x1f\n    /* \"#utility.yul\":4794:4801   */\n  not\n    /* \"#utility.yul\":4789:4791   */\n  0x1f\n    /* \"#utility.yul\":4782:4787   */\n  dup4\n    /* \"#utility.yul\":4778:4792   */\n  add\n    /* \"#utility.yul\":4774:4802   */\n  and\n    /* \"#utility.yul\":4764:4802   */\n  swap1\n  pop\n    /* \"#utility.yul\":4706:4808   */\n  swap2\n  swap1\n  pop\n  jump\t// out\n    /* \"#utility.yul\":4814:4936   */\ntag_44:\n    /* \"#utility.yul\":4887:4911   */\n  tag_96\n    /* \"#utility.yul\":4905:4910   */\n  dup2\n    /* \"#utility.yul\":4887:4911   */\n  tag_72\n  jump\t// in\ntag_96:\n    /* \"#utility.yul\":4880:4885   */\n  dup2\n    /* \"#utility.yul\":4877:4912   */\n  eq\n    /* \"#utility.yul\":4867:4930   */\n  tag_97\n  jumpi\n    /* \"#utility.yul\":4926:4927   */\n  0x00\n    /* \"#utility.yul\":4923:4924   */\n  dup1\n    /* \"#utility.yul\":4916:4928   */\n  revert\n    /* \"#utility.yul\":4867:4930   */\ntag_97:\n    /* \"#utility.yul\":4814:4936   */\n  pop\n  jump\t// out\n    /* \"contracts/project.sol\":74:1293  contract CrowdFunding {\r... */\ntag_11:\n  dataSize(sub_0)\n  dup1\n  dataOffset(sub_0)\n  0x00\n  codecopy\n  0x00\n  return\nstop\n\nsub_0: assembly {\n        /* \"contracts/project.sol\":74:1293  contract CrowdFunding {\r... */\n      mstore(0x40, 0x80)\n      jumpi(tag_1, lt(calldatasize, 0x04))\n      shr(0xe0, calldataload(0x00))\n      dup1\n      0xb767050d\n      eq\n      tag_2\n      jumpi\n      dup1\n      0xd63dc661\n      eq\n      tag_3\n      jumpi\n    tag_1:\n      0x00\n      dup1\n      revert\n        /* \"contracts/project.sol\":760:909  function changeProjectState(string calldata newState) public isAuthor {\r... */\n    tag_2:\n      callvalue\n      dup1\n      iszero\n      tag_4\n      jumpi\n      0x00\n      dup1\n      revert\n    tag_4:\n      pop\n      tag_5\n      0x04\n      dup1\n      calldatasize\n      sub\n      dup2\n      add\n      swap1\n      tag_6\n      swap2\n      swap1\n      tag_7\n      jump\t// in\n    tag_6:\n      tag_8\n      jump\t// in\n    tag_5:\n      stop\n        /* \"contracts/project.sol\":575:752  function fundProject() public payable isNotAuthor {\r... */\n    tag_3:\n      tag_9\n      tag_10\n      jump\t// in\n    tag_9:\n      stop\n        /* \"contracts/project.sol\":760:909  function changeProjectState(string calldata newState) public isAuthor {\r... */\n    tag_8:\n        /* \"contracts/project.sol\":970:976  author */\n      0x05\n      0x00\n      swap1\n      sload\n      swap1\n      0x0100\n      exp\n      swap1\n      div\n      0xffffffffffffffffffffffffffffffffffffffff\n      and\n        /* \"contracts/project.sol\":956:976  msg.sender == author */\n      0xffffffffffffffffffffffffffffffffffffffff\n      and\n        /* \"contracts/project.sol\":956:966  msg.sender */\n      caller\n        /* \"contracts/project.sol\":956:976  msg.sender == author */\n      0xffffffffffffffffffffffffffffffffffffffff\n      and\n      eq\n        /* \"contracts/project.sol\":948:1028  require(msg.sender == author, 'Only author can change the state of the project') */\n      tag_12\n      jumpi\n      mload(0x40)\n      0x08c379a000000000000000000000000000000000000000000000000000000000\n      dup2\n      mstore\n      0x04\n      add\n      tag_13\n      swap1\n      tag_14\n      jump\t// in\n    tag_13:\n      mload(0x40)\n      dup1\n      swap2\n      sub\n      swap1\n      revert\n    tag_12:\n        /* \"contracts/project.sol\":849:857  newState */\n      dup2\n      dup2\n        /* \"contracts/project.sol\":841:846  state */\n      0x06\n        /* \"contracts/project.sol\":841:857  state = newState */\n      swap2\n      swap1\n      tag_16\n      swap3\n      swap2\n      swap1\n      tag_17\n      jump\t// in\n    tag_16:\n      pop\n        /* \"contracts/project.sol\":873:901  changeProjectStateLog(state) */\n      0x1d3640291de4384417d59d1bf694336e947992271bde4aec9ddd4d2f4bac8d5f\n        /* \"contracts/project.sol\":895:900  state */\n      0x06\n        /* \"contracts/project.sol\":873:901  changeProjectStateLog(state) */\n      mload(0x40)\n      tag_18\n      swap2\n      swap1\n      tag_19\n      jump\t// in\n    tag_18:\n      mload(0x40)\n      dup1\n      swap2\n      sub\n      swap1\n      log1\n        /* \"contracts/project.sol\":760:909  function changeProjectState(string calldata newState) public isAuthor {\r... */\n      pop\n      pop\n      jump\t// out\n        /* \"contracts/project.sol\":575:752  function fundProject() public payable isNotAuthor {\r... */\n    tag_10:\n        /* \"contracts/project.sol\":1112:1118  author */\n      0x05\n      0x00\n      swap1\n      sload\n      swap1\n      0x0100\n      exp\n      swap1\n      div\n      0xffffffffffffffffffffffffffffffffffffffff\n      and\n        /* \"contracts/project.sol\":1098:1118  msg.sender != author */\n      0xffffffffffffffffffffffffffffffffffffffff\n      and\n        /* \"contracts/project.sol\":1098:1108  msg.sender */\n      caller\n        /* \"contracts/project.sol\":1098:1118  msg.sender != author */\n      0xffffffffffffffffffffffffffffffffffffffff\n      and\n      eq\n      iszero\n        /* \"contracts/project.sol\":1090:1157  require(msg.sender != author, 'The author cannot fund the project') */\n      tag_21\n      jumpi\n      mload(0x40)\n      0x08c379a000000000000000000000000000000000000000000000000000000000\n      dup2\n      mstore\n      0x04\n      add\n      tag_22\n      swap1\n      tag_23\n      jump\t// in\n    tag_22:\n      mload(0x40)\n      dup1\n      swap2\n      sub\n      swap1\n      revert\n    tag_21:\n        /* \"contracts/project.sol\":636:642  author */\n      0x05\n      0x00\n      swap1\n      sload\n      swap1\n      0x0100\n      exp\n      swap1\n      div\n      0xffffffffffffffffffffffffffffffffffffffff\n      and\n        /* \"contracts/project.sol\":636:651  author.transfer */\n      0xffffffffffffffffffffffffffffffffffffffff\n      and\n        /* \"contracts/project.sol\":636:662  author.transfer(msg.value) */\n      0x08fc\n        /* \"contracts/project.sol\":652:661  msg.value */\n      callvalue\n        /* \"contracts/project.sol\":636:662  author.transfer(msg.value) */\n      swap1\n      dup2\n      iszero\n      mul\n      swap1\n      mload(0x40)\n      0x00\n      mload(0x40)\n      dup1\n      dup4\n      sub\n      dup2\n      dup6\n      dup9\n      dup9\n      call\n      swap4\n      pop\n      pop\n      pop\n      pop\n      iszero\n      dup1\n      iszero\n      tag_26\n      jumpi\n      returndatasize\n      0x00\n      dup1\n      returndatacopy\n      revert(0x00, returndatasize)\n    tag_26:\n      pop\n        /* \"contracts/project.sol\":682:691  msg.value */\n      callvalue\n        /* \"contracts/project.sol\":673:678  funds */\n      0x04\n      0x00\n        /* \"contracts/project.sol\":673:691  funds += msg.value */\n      dup3\n      dup3\n      sload\n      tag_27\n      swap2\n      swap1\n      tag_28\n      jump\t// in\n    tag_27:\n      swap3\n      pop\n      pop\n      dup2\n      swap1\n      sstore\n      pop\n        /* \"contracts/project.sol\":707:744  fundProjectLog(msg.sender, msg.value) */\n      0xd8e685d20efff2f4c155033a76924c523215986852e802fbf5fd476a8e2ee9ea\n        /* \"contracts/project.sol\":722:732  msg.sender */\n      caller\n        /* \"contracts/project.sol\":734:743  msg.value */\n      callvalue\n        /* \"contracts/project.sol\":707:744  fundProjectLog(msg.sender, msg.value) */\n      mload(0x40)\n      tag_29\n      swap3\n      swap2\n      swap1\n      tag_30\n      jump\t// in\n    tag_29:\n      mload(0x40)\n      dup1\n      swap2\n      sub\n      swap1\n      log1\n        /* \"contracts/project.sol\":575:752  function fundProject() public payable isNotAuthor {\r... */\n      jump\t// out\n    tag_17:\n      dup3\n      dup1\n      sload\n      tag_31\n      swap1\n      tag_32\n      jump\t// in\n    tag_31:\n      swap1\n      0x00\n      mstore\n      keccak256(0x00, 0x20)\n      swap1\n      0x1f\n      add\n      0x20\n      swap1\n      div\n      dup2\n      add\n      swap3\n      dup3\n      tag_34\n      jumpi\n      0x00\n      dup6\n      sstore\n      jump(tag_33)\n    tag_34:\n      dup3\n      0x1f\n      lt\n      tag_35\n      jumpi\n      dup1\n      calldataload\n      not(0xff)\n      and\n      dup4\n      dup1\n      add\n      or\n      dup6\n      sstore\n      jump(tag_33)\n    tag_35:\n      dup3\n      dup1\n      add\n      0x01\n      add\n      dup6\n      sstore\n      dup3\n      iszero\n      tag_33\n      jumpi\n      swap2\n      dup3\n      add\n    tag_36:\n      dup3\n      dup2\n      gt\n      iszero\n      tag_37\n      jumpi\n      dup3\n      calldataload\n      dup3\n      sstore\n      swap2\n      0x20\n      add\n      swap2\n      swap1\n      0x01\n      add\n      swap1\n      jump(tag_36)\n    tag_37:\n    tag_33:\n      pop\n      swap1\n      pop\n      tag_38\n      swap2\n      swap1\n      tag_39\n      jump\t// in\n    tag_38:\n      pop\n      swap1\n      jump\t// out\n    tag_39:\n    tag_40:\n      dup1\n      dup3\n      gt\n      iszero\n      tag_41\n      jumpi\n      0x00\n      dup2\n      0x00\n      swap1\n      sstore\n      pop\n      0x01\n      add\n      jump(tag_40)\n    tag_41:\n      pop\n      swap1\n      jump\t// out\n        /* \"#utility.yul\":21:574   */\n    tag_43:\n        /* \"#utility.yul\":79:87   */\n      0x00\n        /* \"#utility.yul\":89:95   */\n      dup1\n        /* \"#utility.yul\":139:142   */\n      dup4\n        /* \"#utility.yul\":132:136   */\n      0x1f\n        /* \"#utility.yul\":124:130   */\n      dup5\n        /* \"#utility.yul\":120:137   */\n      add\n        /* \"#utility.yul\":116:143   */\n      slt\n        /* \"#utility.yul\":106:228   */\n      tag_45\n      jumpi\n        /* \"#utility.yul\":147:226   */\n      tag_46\n      tag_47\n      jump\t// in\n    tag_46:\n        /* \"#utility.yul\":106:228   */\n    tag_45:\n        /* \"#utility.yul\":260:266   */\n      dup3\n        /* \"#utility.yul\":247:267   */\n      calldataload\n        /* \"#utility.yul\":237:267   */\n      swap1\n      pop\n        /* \"#utility.yul\":290:308   */\n      0xffffffffffffffff\n        /* \"#utility.yul\":282:288   */\n      dup2\n        /* \"#utility.yul\":279:309   */\n      gt\n        /* \"#utility.yul\":276:393   */\n      iszero\n      tag_48\n      jumpi\n        /* \"#utility.yul\":312:391   */\n      tag_49\n      tag_50\n      jump\t// in\n    tag_49:\n        /* \"#utility.yul\":276:393   */\n    tag_48:\n        /* \"#utility.yul\":426:430   */\n      0x20\n        /* \"#utility.yul\":418:424   */\n      dup4\n        /* \"#utility.yul\":414:431   */\n      add\n        /* \"#utility.yul\":402:431   */\n      swap2\n      pop\n        /* \"#utility.yul\":480:483   */\n      dup4\n        /* \"#utility.yul\":472:476   */\n      0x01\n        /* \"#utility.yul\":464:470   */\n      dup3\n        /* \"#utility.yul\":460:477   */\n      mul\n        /* \"#utility.yul\":450:458   */\n      dup4\n        /* \"#utility.yul\":446:478   */\n      add\n        /* \"#utility.yul\":443:484   */\n      gt\n        /* \"#utility.yul\":440:568   */\n      iszero\n      tag_51\n      jumpi\n        /* \"#utility.yul\":487:566   */\n      tag_52\n      tag_53\n      jump\t// in\n    tag_52:\n        /* \"#utility.yul\":440:568   */\n    tag_51:\n        /* \"#utility.yul\":21:574   */\n      swap3\n      pop\n      swap3\n      swap1\n      pop\n      jump\t// out\n        /* \"#utility.yul\":580:1109   */\n    tag_7:\n        /* \"#utility.yul\":651:657   */\n      0x00\n        /* \"#utility.yul\":659:665   */\n      dup1\n        /* \"#utility.yul\":708:710   */\n      0x20\n        /* \"#utility.yul\":696:705   */\n      dup4\n        /* \"#utility.yul\":687:694   */\n      dup6\n        /* \"#utility.yul\":683:706   */\n      sub\n        /* \"#utility.yul\":679:711   */\n      slt\n        /* \"#utility.yul\":676:795   */\n      iszero\n      tag_55\n      jumpi\n        /* \"#utility.yul\":714:793   */\n      tag_56\n      tag_57\n      jump\t// in\n    tag_56:\n        /* \"#utility.yul\":676:795   */\n    tag_55:\n        /* \"#utility.yul\":862:863   */\n      0x00\n        /* \"#utility.yul\":851:860   */\n      dup4\n        /* \"#utility.yul\":847:864   */\n      add\n        /* \"#utility.yul\":834:865   */\n      calldataload\n        /* \"#utility.yul\":892:910   */\n      0xffffffffffffffff\n        /* \"#utility.yul\":884:890   */\n      dup2\n        /* \"#utility.yul\":881:911   */\n      gt\n        /* \"#utility.yul\":878:995   */\n      iszero\n      tag_58\n      jumpi\n        /* \"#utility.yul\":914:993   */\n      tag_59\n      tag_60\n      jump\t// in\n    tag_59:\n        /* \"#utility.yul\":878:995   */\n    tag_58:\n        /* \"#utility.yul\":1027:1092   */\n      tag_61\n        /* \"#utility.yul\":1084:1091   */\n      dup6\n        /* \"#utility.yul\":1075:1081   */\n      dup3\n        /* \"#utility.yul\":1064:1073   */\n      dup7\n        /* \"#utility.yul\":1060:1082   */\n      add\n        /* \"#utility.yul\":1027:1092   */\n      tag_43\n      jump\t// in\n    tag_61:\n        /* \"#utility.yul\":1009:1092   */\n      swap3\n      pop\n      swap3\n      pop\n        /* \"#utility.yul\":805:1102   */\n      pop\n        /* \"#utility.yul\":580:1109   */\n      swap3\n      pop\n      swap3\n      swap1\n      pop\n      jump\t// out\n        /* \"#utility.yul\":1115:1233   */\n    tag_62:\n        /* \"#utility.yul\":1202:1226   */\n      tag_64\n        /* \"#utility.yul\":1220:1225   */\n      dup2\n        /* \"#utility.yul\":1202:1226   */\n      tag_65\n      jump\t// in\n    tag_64:\n        /* \"#utility.yul\":1197:1200   */\n      dup3\n        /* \"#utility.yul\":1190:1227   */\n      mstore\n        /* \"#utility.yul\":1115:1233   */\n      pop\n      pop\n      jump\t// out\n        /* \"#utility.yul\":1263:2065   */\n    tag_66:\n        /* \"#utility.yul\":1348:1351   */\n      0x00\n        /* \"#utility.yul\":1385:1390   */\n      dup2\n        /* \"#utility.yul\":1379:1391   */\n      sload\n        /* \"#utility.yul\":1414:1450   */\n      tag_68\n        /* \"#utility.yul\":1440:1449   */\n      dup2\n        /* \"#utility.yul\":1414:1450   */\n      tag_32\n      jump\t// in\n    tag_68:\n        /* \"#utility.yul\":1466:1537   */\n      tag_69\n        /* \"#utility.yul\":1530:1536   */\n      dup2\n        /* \"#utility.yul\":1525:1528   */\n      dup7\n        /* \"#utility.yul\":1466:1537   */\n      tag_70\n      jump\t// in\n    tag_69:\n        /* \"#utility.yul\":1459:1537   */\n      swap5\n      pop\n        /* \"#utility.yul\":1568:1569   */\n      0x01\n        /* \"#utility.yul\":1557:1566   */\n      dup3\n        /* \"#utility.yul\":1553:1570   */\n      and\n        /* \"#utility.yul\":1584:1585   */\n      0x00\n        /* \"#utility.yul\":1579:1714   */\n      dup2\n      eq\n      tag_72\n      jumpi\n        /* \"#utility.yul\":1728:1729   */\n      0x01\n        /* \"#utility.yul\":1723:2059   */\n      dup2\n      eq\n      tag_73\n      jumpi\n        /* \"#utility.yul\":1546:2059   */\n      jump(tag_71)\n        /* \"#utility.yul\":1579:1714   */\n    tag_72:\n        /* \"#utility.yul\":1663:1667   */\n      0xff\n        /* \"#utility.yul\":1659:1668   */\n      not\n        /* \"#utility.yul\":1648:1657   */\n      dup4\n        /* \"#utility.yul\":1644:1669   */\n      and\n        /* \"#utility.yul\":1639:1642   */\n      dup7\n        /* \"#utility.yul\":1632:1670   */\n      mstore\n        /* \"#utility.yul\":1699:1703   */\n      0x20\n        /* \"#utility.yul\":1694:1697   */\n      dup7\n        /* \"#utility.yul\":1690:1704   */\n      add\n        /* \"#utility.yul\":1683:1704   */\n      swap4\n      pop\n        /* \"#utility.yul\":1579:1714   */\n      jump(tag_71)\n        /* \"#utility.yul\":1723:2059   */\n    tag_73:\n        /* \"#utility.yul\":1790:1828   */\n      tag_74\n        /* \"#utility.yul\":1822:1827   */\n      dup6\n        /* \"#utility.yul\":1790:1828   */\n      tag_75\n      jump\t// in\n    tag_74:\n        /* \"#utility.yul\":1850:1851   */\n      0x00\n        /* \"#utility.yul\":1864:2018   */\n    tag_76:\n        /* \"#utility.yul\":1878:1884   */\n      dup4\n        /* \"#utility.yul\":1875:1876   */\n      dup2\n        /* \"#utility.yul\":1872:1885   */\n      lt\n        /* \"#utility.yul\":1864:2018   */\n      iszero\n      tag_78\n      jumpi\n        /* \"#utility.yul\":1952:1959   */\n      dup2\n        /* \"#utility.yul\":1946:1960   */\n      sload\n        /* \"#utility.yul\":1942:1943   */\n      dup2\n        /* \"#utility.yul\":1937:1940   */\n      dup10\n        /* \"#utility.yul\":1933:1944   */\n      add\n        /* \"#utility.yul\":1926:1961   */\n      mstore\n        /* \"#utility.yul\":2002:2003   */\n      0x01\n        /* \"#utility.yul\":1993:2000   */\n      dup3\n        /* \"#utility.yul\":1989:2004   */\n      add\n        /* \"#utility.yul\":1978:2004   */\n      swap2\n      pop\n        /* \"#utility.yul\":1900:1904   */\n      0x20\n        /* \"#utility.yul\":1897:1898   */\n      dup2\n        /* \"#utility.yul\":1893:1905   */\n      add\n        /* \"#utility.yul\":1888:1905   */\n      swap1\n      pop\n        /* \"#utility.yul\":1864:2018   */\n      jump(tag_76)\n    tag_78:\n        /* \"#utility.yul\":2047:2048   */\n      dup1\n        /* \"#utility.yul\":2042:2045   */\n      dup9\n        /* \"#utility.yul\":2038:2049   */\n      add\n        /* \"#utility.yul\":2031:2049   */\n      swap6\n      pop\n        /* \"#utility.yul\":1730:2059   */\n      pop\n      pop\n        /* \"#utility.yul\":1546:2059   */\n    tag_71:\n      pop\n        /* \"#utility.yul\":1352:2065   */\n      pop\n      pop\n        /* \"#utility.yul\":1263:2065   */\n      swap3\n      swap2\n      pop\n      pop\n      jump\t// out\n        /* \"#utility.yul\":2071:2437   */\n    tag_79:\n        /* \"#utility.yul\":2213:2216   */\n      0x00\n        /* \"#utility.yul\":2234:2301   */\n      tag_81\n        /* \"#utility.yul\":2298:2300   */\n      0x22\n        /* \"#utility.yul\":2293:2296   */\n      dup4\n        /* \"#utility.yul\":2234:2301   */\n      tag_70\n      jump\t// in\n    tag_81:\n        /* \"#utility.yul\":2227:2301   */\n      swap2\n      pop\n        /* \"#utility.yul\":2310:2403   */\n      tag_82\n        /* \"#utility.yul\":2399:2402   */\n      dup3\n        /* \"#utility.yul\":2310:2403   */\n      tag_83\n      jump\t// in\n    tag_82:\n        /* \"#utility.yul\":2428:2430   */\n      0x40\n        /* \"#utility.yul\":2423:2426   */\n      dup3\n        /* \"#utility.yul\":2419:2431   */\n      add\n        /* \"#utility.yul\":2412:2431   */\n      swap1\n      pop\n        /* \"#utility.yul\":2071:2437   */\n      swap2\n      swap1\n      pop\n      jump\t// out\n        /* \"#utility.yul\":2443:2809   */\n    tag_84:\n        /* \"#utility.yul\":2585:2588   */\n      0x00\n        /* \"#utility.yul\":2606:2673   */\n      tag_86\n        /* \"#utility.yul\":2670:2672   */\n      0x2f\n        /* \"#utility.yul\":2665:2668   */\n      dup4\n        /* \"#utility.yul\":2606:2673   */\n      tag_70\n      jump\t// in\n    tag_86:\n        /* \"#utility.yul\":2599:2673   */\n      swap2\n      pop\n        /* \"#utility.yul\":2682:2775   */\n      tag_87\n        /* \"#utility.yul\":2771:2774   */\n      dup3\n        /* \"#utility.yul\":2682:2775   */\n      tag_88\n      jump\t// in\n    tag_87:\n        /* \"#utility.yul\":2800:2802   */\n      0x40\n        /* \"#utility.yul\":2795:2798   */\n      dup3\n        /* \"#utility.yul\":2791:2803   */\n      add\n        /* \"#utility.yul\":2784:2803   */\n      swap1\n      pop\n        /* \"#utility.yul\":2443:2809   */\n      swap2\n      swap1\n      pop\n      jump\t// out\n        /* \"#utility.yul\":2815:2933   */\n    tag_89:\n        /* \"#utility.yul\":2902:2926   */\n      tag_91\n        /* \"#utility.yul\":2920:2925   */\n      dup2\n        /* \"#utility.yul\":2902:2926   */\n      tag_92\n      jump\t// in\n    tag_91:\n        /* \"#utility.yul\":2897:2900   */\n      dup3\n        /* \"#utility.yul\":2890:2927   */\n      mstore\n        /* \"#utility.yul\":2815:2933   */\n      pop\n      pop\n      jump\t// out\n        /* \"#utility.yul\":2939:3271   */\n    tag_30:\n        /* \"#utility.yul\":3060:3064   */\n      0x00\n        /* \"#utility.yul\":3098:3100   */\n      0x40\n        /* \"#utility.yul\":3087:3096   */\n      dup3\n        /* \"#utility.yul\":3083:3101   */\n      add\n        /* \"#utility.yul\":3075:3101   */\n      swap1\n      pop\n        /* \"#utility.yul\":3111:3182   */\n      tag_94\n        /* \"#utility.yul\":3179:3180   */\n      0x00\n        /* \"#utility.yul\":3168:3177   */\n      dup4\n        /* \"#utility.yul\":3164:3181   */\n      add\n        /* \"#utility.yul\":3155:3161   */\n      dup6\n        /* \"#utility.yul\":3111:3182   */\n      tag_62\n      jump\t// in\n    tag_94:\n        /* \"#utility.yul\":3192:3264   */\n      tag_95\n        /* \"#utility.yul\":3260:3262   */\n      0x20\n        /* \"#utility.yul\":3249:3258   */\n      dup4\n        /* \"#utility.yul\":3245:3263   */\n      add\n        /* \"#utility.yul\":3236:3242   */\n      dup5\n        /* \"#utility.yul\":3192:3264   */\n      tag_89\n      jump\t// in\n    tag_95:\n        /* \"#utility.yul\":2939:3271   */\n      swap4\n      swap3\n      pop\n      pop\n      pop\n      jump\t// out\n        /* \"#utility.yul\":3277:3584   */\n    tag_19:\n        /* \"#utility.yul\":3387:3391   */\n      0x00\n        /* \"#utility.yul\":3425:3427   */\n      0x20\n        /* \"#utility.yul\":3414:3423   */\n      dup3\n        /* \"#utility.yul\":3410:3428   */\n      add\n        /* \"#utility.yul\":3402:3428   */\n      swap1\n      pop\n        /* \"#utility.yul\":3474:3483   */\n      dup2\n        /* \"#utility.yul\":3468:3472   */\n      dup2\n        /* \"#utility.yul\":3464:3484   */\n      sub\n        /* \"#utility.yul\":3460:3461   */\n      0x00\n        /* \"#utility.yul\":3449:3458   */\n      dup4\n        /* \"#utility.yul\":3445:3462   */\n      add\n        /* \"#utility.yul\":3438:3485   */\n      mstore\n        /* \"#utility.yul\":3502:3577   */\n      tag_97\n        /* \"#utility.yul\":3572:3576   */\n      dup2\n        /* \"#utility.yul\":3563:3569   */\n      dup5\n        /* \"#utility.yul\":3502:3577   */\n      tag_66\n      jump\t// in\n    tag_97:\n        /* \"#utility.yul\":3494:3577   */\n      swap1\n      pop\n        /* \"#utility.yul\":3277:3584   */\n      swap3\n      swap2\n      pop\n      pop\n      jump\t// out\n        /* \"#utility.yul\":3590:4009   */\n    tag_23:\n        /* \"#utility.yul\":3756:3760   */\n      0x00\n        /* \"#utility.yul\":3794:3796   */\n      0x20\n        /* \"#utility.yul\":3783:3792   */\n      dup3\n        /* \"#utility.yul\":3779:3797   */\n      add\n        /* \"#utility.yul\":3771:3797   */\n      swap1\n      pop\n        /* \"#utility.yul\":3843:3852   */\n      dup2\n        /* \"#utility.yul\":3837:3841   */\n      dup2\n        /* \"#utility.yul\":3833:3853   */\n      sub\n        /* \"#utility.yul\":3829:3830   */\n      0x00\n        /* \"#utility.yul\":3818:3827   */\n      dup4\n        /* \"#utility.yul\":3814:3831   */\n      add\n        /* \"#utility.yul\":3807:3854   */\n      mstore\n        /* \"#utility.yul\":3871:4002   */\n      tag_99\n        /* \"#utility.yul\":3997:4001   */\n      dup2\n        /* \"#utility.yul\":3871:4002   */\n      tag_79\n      jump\t// in\n    tag_99:\n        /* \"#utility.yul\":3863:4002   */\n      swap1\n      pop\n        /* \"#utility.yul\":3590:4009   */\n      swap2\n      swap1\n      pop\n      jump\t// out\n        /* \"#utility.yul\":4015:4434   */\n    tag_14:\n        /* \"#utility.yul\":4181:4185   */\n      0x00\n        /* \"#utility.yul\":4219:4221   */\n      0x20\n        /* \"#utility.yul\":4208:4217   */\n      dup3\n        /* \"#utility.yul\":4204:4222   */\n      add\n        /* \"#utility.yul\":4196:4222   */\n      swap1\n      pop\n        /* \"#utility.yul\":4268:4277   */\n      dup2\n        /* \"#utility.yul\":4262:4266   */\n      dup2\n        /* \"#utility.yul\":4258:4278   */\n      sub\n        /* \"#utility.yul\":4254:4255   */\n      0x00\n        /* \"#utility.yul\":4243:4252   */\n      dup4\n        /* \"#utility.yul\":4239:4256   */\n      add\n        /* \"#utility.yul\":4232:4279   */\n      mstore\n        /* \"#utility.yul\":4296:4427   */\n      tag_101\n        /* \"#utility.yul\":4422:4426   */\n      dup2\n        /* \"#utility.yul\":4296:4427   */\n      tag_84\n      jump\t// in\n    tag_101:\n        /* \"#utility.yul\":4288:4427   */\n      swap1\n      pop\n        /* \"#utility.yul\":4015:4434   */\n      swap2\n      swap1\n      pop\n      jump\t// out\n        /* \"#utility.yul\":4521:4662   */\n    tag_75:\n        /* \"#utility.yul\":4570:4574   */\n      0x00\n        /* \"#utility.yul\":4593:4596   */\n      dup2\n        /* \"#utility.yul\":4585:4596   */\n      swap1\n      pop\n        /* \"#utility.yul\":4616:4619   */\n      dup2\n        /* \"#utility.yul\":4613:4614   */\n      0x00\n        /* \"#utility.yul\":4606:4620   */\n      mstore\n        /* \"#utility.yul\":4650:4654   */\n      0x20\n        /* \"#utility.yul\":4647:4648   */\n      0x00\n        /* \"#utility.yul\":4637:4655   */\n      keccak256\n        /* \"#utility.yul\":4629:4655   */\n      swap1\n      pop\n        /* \"#utility.yul\":4521:4662   */\n      swap2\n      swap1\n      pop\n      jump\t// out\n        /* \"#utility.yul\":4668:4837   */\n    tag_70:\n        /* \"#utility.yul\":4752:4763   */\n      0x00\n        /* \"#utility.yul\":4786:4792   */\n      dup3\n        /* \"#utility.yul\":4781:4784   */\n      dup3\n        /* \"#utility.yul\":4774:4793   */\n      mstore\n        /* \"#utility.yul\":4826:4830   */\n      0x20\n        /* \"#utility.yul\":4821:4824   */\n      dup3\n        /* \"#utility.yul\":4817:4831   */\n      add\n        /* \"#utility.yul\":4802:4831   */\n      swap1\n      pop\n        /* \"#utility.yul\":4668:4837   */\n      swap3\n      swap2\n      pop\n      pop\n      jump\t// out\n        /* \"#utility.yul\":4843:5148   */\n    tag_28:\n        /* \"#utility.yul\":4883:4886   */\n      0x00\n        /* \"#utility.yul\":4902:4922   */\n      tag_107\n        /* \"#utility.yul\":4920:4921   */\n      dup3\n        /* \"#utility.yul\":4902:4922   */\n      tag_92\n      jump\t// in\n    tag_107:\n        /* \"#utility.yul\":4897:4922   */\n      swap2\n      pop\n        /* \"#utility.yul\":4936:4956   */\n      tag_108\n        /* \"#utility.yul\":4954:4955   */\n      dup4\n        /* \"#utility.yul\":4936:4956   */\n      tag_92\n      jump\t// in\n    tag_108:\n        /* \"#utility.yul\":4931:4956   */\n      swap3\n      pop\n        /* \"#utility.yul\":5090:5091   */\n      dup3\n        /* \"#utility.yul\":5022:5088   */\n      0xffffffffffffffffffffffffffffffffffffffffffffffffffffffffffffffff\n        /* \"#utility.yul\":5018:5092   */\n      sub\n        /* \"#utility.yul\":5015:5016   */\n      dup3\n        /* \"#utility.yul\":5012:5093   */\n      gt\n        /* \"#utility.yul\":5009:5116   */\n      iszero\n      tag_109\n      jumpi\n        /* \"#utility.yul\":5096:5114   */\n      tag_110\n      tag_111\n      jump\t// in\n    tag_110:\n        /* \"#utility.yul\":5009:5116   */\n    tag_109:\n        /* \"#utility.yul\":5140:5141   */\n      dup3\n        /* \"#utility.yul\":5137:5138   */\n      dup3\n        /* \"#utility.yul\":5133:5142   */\n      add\n        /* \"#utility.yul\":5126:5142   */\n      swap1\n      pop\n        /* \"#utility.yul\":4843:5148   */\n      swap3\n      swap2\n      pop\n      pop\n      jump\t// out\n        /* \"#utility.yul\":5154:5250   */\n    tag_65:\n        /* \"#utility.yul\":5191:5198   */\n      0x00\n        /* \"#utility.yul\":5220:5244   */\n      tag_113\n        /* \"#utility.yul\":5238:5243   */\n      dup3\n        /* \"#utility.yul\":5220:5244   */\n      tag_114\n      jump\t// in\n    tag_113:\n        /* \"#utility.yul\":5209:5244   */\n      swap1\n      pop\n        /* \"#utility.yul\":5154:5250   */\n      swap2\n      swap1\n      pop\n      jump\t// out\n        /* \"#utility.yul\":5256:5382   */\n    tag_114:\n        /* \"#utility.yul\":5293:5300   */\n      0x00\n        /* \"#utility.yul\":5333:5375   */\n      0xffffffffffffffffffffffffffffffffffffffff\n        /* \"#utility.yul\":5326:5331   */\n      dup3\n        /* \"#utility.yul\":5322:5376   */\n      and\n        /* \"#utility.yul\":5311:5376   */\n      swap1\n      pop\n        /* \"#utility.yul\":5256:5382   */\n      swap2\n      swap1\n      pop\n      jump\t// out\n        /* \"#utility.yul\":5388:5465   */\n    tag_92:\n        /* \"#utility.yul\":5425:5432   */\n      0x00\n        /* \"#utility.yul\":5454:5459   */\n      dup2\n        /* \"#utility.yul\":5443:5459   */\n      swap1\n      pop\n        /* \"#utility.yul\":5388:5465   */\n      swap2\n      swap1\n      pop\n      jump\t// out\n        /* \"#utility.yul\":5471:5791   */\n    tag_32:\n        /* \"#utility.yul\":5515:5521   */\n      0x00\n        /* \"#utility.yul\":5552:5553   */\n      0x02\n        /* \"#utility.yul\":5546:5550   */\n      dup3\n        /* \"#utility.yul\":5542:5554   */\n      div\n        /* \"#utility.yul\":5532:5554   */\n      swap1\n      pop\n        /* \"#utility.yul\":5599:5600   */\n      0x01\n        /* \"#utility.yul\":5593:5597   */\n      dup3\n        /* \"#utility.yul\":5589:5601   */\n      and\n        /* \"#utility.yul\":5620:5638   */\n      dup1\n        /* \"#utility.yul\":5610:5691   */\n      tag_118\n      jumpi\n        /* \"#utility.yul\":5676:5680   */\n      0x7f\n        /* \"#utility.yul\":5668:5674   */\n      dup3\n        /* \"#utility.yul\":5664:5681   */\n      and\n        /* \"#utility.yul\":5654:5681   */\n      swap2\n      pop\n        /* \"#utility.yul\":5610:5691   */\n    tag_118:\n        /* \"#utility.yul\":5738:5740   */\n      0x20\n        /* \"#utility.yul\":5730:5736   */\n      dup3\n        /* \"#utility.yul\":5727:5741   */\n      lt\n        /* \"#utility.yul\":5707:5725   */\n      dup2\n        /* \"#utility.yul\":5704:5742   */\n      eq\n        /* \"#utility.yul\":5701:5785   */\n      iszero\n      tag_119\n      jumpi\n        /* \"#utility.yul\":5757:5775   */\n      tag_120\n      tag_121\n      jump\t// in\n    tag_120:\n        /* \"#utility.yul\":5701:5785   */\n    tag_119:\n        /* \"#utility.yul\":5522:5791   */\n      pop\n        /* \"#utility.yul\":5471:5791   */\n      swap2\n      swap1\n      pop\n      jump\t// out\n        /* \"#utility.yul\":5797:5977   */\n    tag_111:\n        /* \"#utility.yul\":5845:5922   */\n      0x4e487b7100000000000000000000000000000000000000000000000000000000\n        /* \"#utility.yul\":5842:5843   */\n      0x00\n        /* \"#utility.yul\":5835:5923   */\n      mstore\n        /* \"#utility.yul\":5942:5946   */\n      0x11\n        /* \"#utility.yul\":5939:5940   */\n      0x04\n        /* \"#utility.yul\":5932:5947   */\n      mstore\n        /* \"#utility.yul\":5966:5970   */\n      0x24\n        /* \"#utility.yul\":5963:5964   */\n      0x00\n        /* \"#utility.yul\":5956:5971   */\n      revert\n        /* \"#utility.yul\":5983:6163   */\n    tag_121:\n        /* \"#utility.yul\":6031:6108   */\n      0x4e487b7100000000000000000000000000000000000000000000000000000000\n        /* \"#utility.yul\":6028:6029   */\n      0x00\n        /* \"#utility.yul\":6021:6109   */\n      mstore\n        /* \"#utility.yul\":6128:6132   */\n      0x22\n        /* \"#utility.yul\":6125:6126   */\n      0x04\n        /* \"#utility.yul\":6118:6133   */\n      mstore\n        /* \"#utility.yul\":6152:6156   */\n      0x24\n        /* \"#utility.yul\":6149:6150   */\n      0x00\n        /* \"#utility.yul\":6142:6157   */\n      revert\n        /* \"#utility.yul\":6169:6286   */\n    tag_50:\n        /* \"#utility.yul\":6278:6279   */\n      0x00\n        /* \"#utility.yul\":6275:6276   */\n      dup1\n        /* \"#utility.yul\":6268:6280   */\n      revert\n        /* \"#utility.yul\":6292:6409   */\n    tag_47:\n        /* \"#utility.yul\":6401:6402   */\n      0x00\n        /* \"#utility.yul\":6398:6399   */\n      dup1\n        /* \"#utility.yul\":6391:6403   */\n      revert\n        /* \"#utility.yul\":6415:6532   */\n    tag_53:\n        /* \"#utility.yul\":6524:6525   */\n      0x00\n        /* \"#utility.yul\":6521:6522   */\n      dup1\n        /* \"#utility.yul\":6514:6526   */\n      revert\n        /* \"#utility.yul\":6538:6655   */\n    tag_60:\n        /* \"#utility.yul\":6647:6648   */\n      0x00\n        /* \"#utility.yul\":6644:6645   */\n      dup1\n        /* \"#utility.yul\":6637:6649   */\n      revert\n        /* \"#utility.yul\":6661:6778   */\n    tag_57:\n        /* \"#utility.yul\":6770:6771   */\n      0x00\n        /* \"#utility.yul\":6767:6768   */\n      dup1\n        /* \"#utility.yul\":6760:6772   */\n      revert\n        /* \"#utility.yul\":6784:7005   */\n    tag_83:\n        /* \"#utility.yul\":6924:6958   */\n      0x54686520617574686f722063616e6e6f742066756e64207468652070726f6a65\n        /* \"#utility.yul\":6920:6921   */\n      0x00\n        /* \"#utility.yul\":6912:6918   */\n      dup3\n        /* \"#utility.yul\":6908:6922   */\n      add\n        /* \"#utility.yul\":6901:6959   */\n      mstore\n        /* \"#utility.yul\":6993:6997   */\n      0x6374000000000000000000000000000000000000000000000000000000000000\n        /* \"#utility.yul\":6988:6990   */\n      0x20\n        /* \"#utility.yul\":6980:6986   */\n      dup3\n        /* \"#utility.yul\":6976:6991   */\n      add\n        /* \"#utility.yul\":6969:6998   */\n      mstore\n        /* \"#utility.yul\":6784:7005   */\n      pop\n      jump\t// out\n        /* \"#utility.yul\":7011:7245   */\n    tag_88:\n        /* \"#utility.yul\":7151:7185   */\n      0x4f6e6c7920617574686f722063616e206368616e676520746865207374617465\n        /* \"#utility.yul\":7147:7148   */\n      0x00\n        /* \"#utility.yul\":7139:7145   */\n      dup3\n        /* \"#utility.yul\":7135:7149   */\n      add\n        /* \"#utility.yul\":7128:7186   */\n      mstore\n        /* \"#utility.yul\":7220:7237   */\n      0x206f66207468652070726f6a6563740000000000000000000000000000000000\n        /* \"#utility.yul\":7215:7217   */\n      0x20\n        /* \"#utility.yul\":7207:7213   */\n      dup3\n        /* \"#utility.yul\":7203:7218   */\n      add\n        /* \"#utility.yul\":7196:7238   */\n      mstore\n        /* \"#utility.yul\":7011:7245   */\n      pop\n      jump\t// out\n\n    auxdata: 0xa264697066735822122034e0775d649ce940bc160b6268dd3286d2762d38f8a73dbd3760e269953bd12c64736f6c63430008070033\n}\n",
				"bytecode": {
					"linkReferences": {},
					"object": "60806040523480156200001157600080fd5b5060405162000c6d38038062000c6d83398181016040528101906200003791906200026f565b83600090805190602001906200004f9291906200012a565b508260019080519060200190620000689291906200012a565b508160029080519060200190620000819291906200012a565b508060038190555033600560006101000a81548173ffffffffffffffffffffffffffffffffffffffff021916908373ffffffffffffffffffffffffffffffffffffffff16021790555060006004819055506040518060400160405280600681526020017f4f70656e65640000000000000000000000000000000000000000000000000000815250600690805190602001906200011f9291906200012a565b5050505050620004e6565b8280546200013890620003dd565b90600052602060002090601f0160209004810192826200015c5760008555620001a8565b82601f106200017757805160ff1916838001178555620001a8565b82800160010185558215620001a8579182015b82811115620001a75782518255916020019190600101906200018a565b5b509050620001b79190620001bb565b5090565b5b80821115620001d6576000816000905550600101620001bc565b5090565b6000620001f1620001eb8462000367565b6200033e565b90508281526020810184848401111562000210576200020f620004ac565b5b6200021d848285620003a7565b509392505050565b600082601f8301126200023d576200023c620004a7565b5b81516200024f848260208601620001da565b91505092915050565b6000815190506200026981620004cc565b92915050565b600080600080608085870312156200028c576200028b620004b6565b5b600085015167ffffffffffffffff811115620002ad57620002ac620004b1565b5b620002bb8782880162000225565b945050602085015167ffffffffffffffff811115620002df57620002de620004b1565b5b620002ed8782880162000225565b935050604085015167ffffffffffffffff811115620003115762000310620004b1565b5b6200031f8782880162000225565b9250506060620003328782880162000258565b91505092959194509250565b60006200034a6200035d565b905062000358828262000413565b919050565b6000604051905090565b600067ffffffffffffffff82111562000385576200038462000478565b5b6200039082620004bb565b9050602081019050919050565b6000819050919050565b60005b83811015620003c7578082015181840152602081019050620003aa565b83811115620003d7576000848401525b50505050565b60006002820490506001821680620003f657607f821691505b602082108114156200040d576200040c62000449565b5b50919050565b6200041e82620004bb565b810181811067ffffffffffffffff8211171562000440576200043f62000478565b5b80604052505050565b7f4e487b7100000000000000000000000000000000000000000000000000000000600052602260045260246000fd5b7f4e487b7100000000000000000000000000000000000000000000000000000000600052604160045260246000fd5b600080fd5b600080fd5b600080fd5b600080fd5b6000601f19601f8301169050919050565b620004d7816200039d565b8114620004e357600080fd5b50565b61077780620004f66000396000f3fe6080604052600436106100295760003560e01c8063b767050d1461002e578063d63dc66114610057575b600080fd5b34801561003a57600080fd5b5061005560048036038101906100509190610386565b610061565b005b61005f61013f565b005b600560009054906101000a900473ffffffffffffffffffffffffffffffffffffffff1673ffffffffffffffffffffffffffffffffffffffff163373ffffffffffffffffffffffffffffffffffffffff16146100f1576040517f08c379a00000000000000000000000000000000000000000000000000000000081526004016100e890610522565b60405180910390fd5b81816006919061010292919061028d565b507f1d3640291de4384417d59d1bf694336e947992271bde4aec9ddd4d2f4bac8d5f600660405161013391906104e0565b60405180910390a15050565b600560009054906101000a900473ffffffffffffffffffffffffffffffffffffffff1673ffffffffffffffffffffffffffffffffffffffff163373ffffffffffffffffffffffffffffffffffffffff1614156101d0576040517f08c379a00000000000000000000000000000000000000000000000000000000081526004016101c790610502565b60405180910390fd5b600560009054906101000a900473ffffffffffffffffffffffffffffffffffffffff1673ffffffffffffffffffffffffffffffffffffffff166108fc349081150290604051600060405180830381858888f19350505050158015610238573d6000803e3d6000fd5b50346004600082825461024b9190610568565b925050819055507fd8e685d20efff2f4c155033a76924c523215986852e802fbf5fd476a8e2ee9ea33346040516102839291906104b7565b60405180910390a1565b828054610299906105fa565b90600052602060002090601f0160209004810192826102bb5760008555610302565b82601f106102d457803560ff1916838001178555610302565b82800160010185558215610302579182015b828111156103015782358255916020019190600101906102e6565b5b50905061030f9190610313565b5090565b5b8082111561032c576000816000905550600101610314565b5090565b60008083601f8401126103465761034561068f565b5b8235905067ffffffffffffffff8111156103635761036261068a565b5b60208301915083600182028301111561037f5761037e610694565b5b9250929050565b6000806020838503121561039d5761039c61069e565b5b600083013567ffffffffffffffff8111156103bb576103ba610699565b5b6103c785828601610330565b92509250509250929050565b6103dc816105be565b82525050565b600081546103ef816105fa565b6103f98186610557565b94506001821660008114610414576001811461042657610459565b60ff1983168652602086019350610459565b61042f85610542565b60005b8381101561045157815481890152600182019150602081019050610432565b808801955050505b50505092915050565b600061046f602283610557565b915061047a826106a3565b604082019050919050565b6000610492602f83610557565b915061049d826106f2565b604082019050919050565b6104b1816105f0565b82525050565b60006040820190506104cc60008301856103d3565b6104d960208301846104a8565b9392505050565b600060208201905081810360008301526104fa81846103e2565b905092915050565b6000602082019050818103600083015261051b81610462565b9050919050565b6000602082019050818103600083015261053b81610485565b9050919050565b60008190508160005260206000209050919050565b600082825260208201905092915050565b6000610573826105f0565b915061057e836105f0565b9250827fffffffffffffffffffffffffffffffffffffffffffffffffffffffffffffffff038211156105b3576105b261062c565b5b828201905092915050565b60006105c9826105d0565b9050919050565b600073ffffffffffffffffffffffffffffffffffffffff82169050919050565b6000819050919050565b6000600282049050600182168061061257607f821691505b602082108114156106265761062561065b565b5b50919050565b7f4e487b7100000000000000000000000000000000000000000000000000000000600052601160045260246000fd5b7f4e487b7100000000000000000000000000000000000000000000000000000000600052602260045260246000fd5b600080fd5b600080fd5b600080fd5b600080fd5b600080fd5b7f54686520617574686f722063616e6e6f742066756e64207468652070726f6a6560008201527f6374000000000000000000000000000000000000000000000000000000000000602082015250565b7f4f6e6c7920617574686f722063616e206368616e67652074686520737461746560008201527f206f66207468652070726f6a656374000000000000000000000000000000000060208201525056fea264697066735822122034e0775d649ce940bc160b6268dd3286d2762d38f8a73dbd3760e269953bd12c64736f6c63430008070033",
					"opcodes": "PUSH1 0x80 PUSH1 0x40 MSTORE CALLVALUE DUP1 ISZERO PUSH3 0x11 JUMPI PUSH1 0x0 DUP1 REVERT JUMPDEST POP PUSH1 0x40 MLOAD PUSH3 0xC6D CODESIZE SUB DUP1 PUSH3 0xC6D DUP4 CODECOPY DUP2 DUP2 ADD PUSH1 0x40 MSTORE DUP2 ADD SWAP1 PUSH3 0x37 SWAP2 SWAP1 PUSH3 0x26F JUMP JUMPDEST DUP4 PUSH1 0x0 SWAP1 DUP1 MLOAD SWAP1 PUSH1 0x20 ADD SWAP1 PUSH3 0x4F SWAP3 SWAP2 SWAP1 PUSH3 0x12A JUMP JUMPDEST POP DUP3 PUSH1 0x1 SWAP1 DUP1 MLOAD SWAP1 PUSH1 0x20 ADD SWAP1 PUSH3 0x68 SWAP3 SWAP2 SWAP1 PUSH3 0x12A JUMP JUMPDEST POP DUP2 PUSH1 0x2 SWAP1 DUP1 MLOAD SWAP1 PUSH1 0x20 ADD SWAP1 PUSH3 0x81 SWAP3 SWAP2 SWAP1 PUSH3 0x12A JUMP JUMPDEST POP DUP1 PUSH1 0x3 DUP2 SWAP1 SSTORE POP CALLER PUSH1 0x5 PUSH1 0x0 PUSH2 0x100 EXP DUP2 SLOAD DUP2 PUSH20 0xFFFFFFFFFFFFFFFFFFFFFFFFFFFFFFFFFFFFFFFF MUL NOT AND SWAP1 DUP4 PUSH20 0xFFFFFFFFFFFFFFFFFFFFFFFFFFFFFFFFFFFFFFFF AND MUL OR SWAP1 SSTORE POP PUSH1 0x0 PUSH1 0x4 DUP2 SWAP1 SSTORE POP PUSH1 0x40 MLOAD DUP1 PUSH1 0x40 ADD PUSH1 0x40 MSTORE DUP1 PUSH1 0x6 DUP2 MSTORE PUSH1 0x20 ADD PUSH32 0x4F70656E65640000000000000000000000000000000000000000000000000000 DUP2 MSTORE POP PUSH1 0x6 SWAP1 DUP1 MLOAD SWAP1 PUSH1 0x20 ADD SWAP1 PUSH3 0x11F SWAP3 SWAP2 SWAP1 PUSH3 0x12A JUMP JUMPDEST POP POP POP POP POP PUSH3 0x4E6 JUMP JUMPDEST DUP3 DUP1 SLOAD PUSH3 0x138 SWAP1 PUSH3 0x3DD JUMP JUMPDEST SWAP1 PUSH1 0x0 MSTORE PUSH1 0x20 PUSH1 0x0 KECCAK256 SWAP1 PUSH1 0x1F ADD PUSH1 0x20 SWAP1 DIV DUP2 ADD SWAP3 DUP3 PUSH3 0x15C JUMPI PUSH1 0x0 DUP6 SSTORE PUSH3 0x1A8 JUMP JUMPDEST DUP3 PUSH1 0x1F LT PUSH3 0x177 JUMPI DUP1 MLOAD PUSH1 0xFF NOT AND DUP4 DUP1 ADD OR DUP6 SSTORE PUSH3 0x1A8 JUMP JUMPDEST DUP3 DUP1 ADD PUSH1 0x1 ADD DUP6 SSTORE DUP3 ISZERO PUSH3 0x1A8 JUMPI SWAP2 DUP3 ADD JUMPDEST DUP3 DUP2 GT ISZERO PUSH3 0x1A7 JUMPI DUP3 MLOAD DUP3 SSTORE SWAP2 PUSH1 0x20 ADD SWAP2 SWAP1 PUSH1 0x1 ADD SWAP1 PUSH3 0x18A JUMP JUMPDEST JUMPDEST POP SWAP1 POP PUSH3 0x1B7 SWAP2 SWAP1 PUSH3 0x1BB JUMP JUMPDEST POP SWAP1 JUMP JUMPDEST JUMPDEST DUP1 DUP3 GT ISZERO PUSH3 0x1D6 JUMPI PUSH1 0x0 DUP2 PUSH1 0x0 SWAP1 SSTORE POP PUSH1 0x1 ADD PUSH3 0x1BC JUMP JUMPDEST POP SWAP1 JUMP JUMPDEST PUSH1 0x0 PUSH3 0x1F1 PUSH3 0x1EB DUP5 PUSH3 0x367 JUMP JUMPDEST PUSH3 0x33E JUMP JUMPDEST SWAP1 POP DUP3 DUP2 MSTORE PUSH1 0x20 DUP2 ADD DUP5 DUP5 DUP5 ADD GT ISZERO PUSH3 0x210 JUMPI PUSH3 0x20F PUSH3 0x4AC JUMP JUMPDEST JUMPDEST PUSH3 0x21D DUP5 DUP3 DUP6 PUSH3 0x3A7 JUMP JUMPDEST POP SWAP4 SWAP3 POP POP POP JUMP JUMPDEST PUSH1 0x0 DUP3 PUSH1 0x1F DUP4 ADD SLT PUSH3 0x23D JUMPI PUSH3 0x23C PUSH3 0x4A7 JUMP JUMPDEST JUMPDEST DUP2 MLOAD PUSH3 0x24F DUP5 DUP3 PUSH1 0x20 DUP7 ADD PUSH3 0x1DA JUMP JUMPDEST SWAP2 POP POP SWAP3 SWAP2 POP POP JUMP JUMPDEST PUSH1 0x0 DUP2 MLOAD SWAP1 POP PUSH3 0x269 DUP2 PUSH3 0x4CC JUMP JUMPDEST SWAP3 SWAP2 POP POP JUMP JUMPDEST PUSH1 0x0 DUP1 PUSH1 0x0 DUP1 PUSH1 0x80 DUP6 DUP8 SUB SLT ISZERO PUSH3 0x28C JUMPI PUSH3 0x28B PUSH3 0x4B6 JUMP JUMPDEST JUMPDEST PUSH1 0x0 DUP6 ADD MLOAD PUSH8 0xFFFFFFFFFFFFFFFF DUP2 GT ISZERO PUSH3 0x2AD JUMPI PUSH3 0x2AC PUSH3 0x4B1 JUMP JUMPDEST JUMPDEST PUSH3 0x2BB DUP8 DUP3 DUP9 ADD PUSH3 0x225 JUMP JUMPDEST SWAP5 POP POP PUSH1 0x20 DUP6 ADD MLOAD PUSH8 0xFFFFFFFFFFFFFFFF DUP2 GT ISZERO PUSH3 0x2DF JUMPI PUSH3 0x2DE PUSH3 0x4B1 JUMP JUMPDEST JUMPDEST PUSH3 0x2ED DUP8 DUP3 DUP9 ADD PUSH3 0x225 JUMP JUMPDEST SWAP4 POP POP PUSH1 0x40 DUP6 ADD MLOAD PUSH8 0xFFFFFFFFFFFFFFFF DUP2 GT ISZERO PUSH3 0x311 JUMPI PUSH3 0x310 PUSH3 0x4B1 JUMP JUMPDEST JUMPDEST PUSH3 0x31F DUP8 DUP3 DUP9 ADD PUSH3 0x225 JUMP JUMPDEST SWAP3 POP POP PUSH1 0x60 PUSH3 0x332 DUP8 DUP3 DUP9 ADD PUSH3 0x258 JUMP JUMPDEST SWAP2 POP POP SWAP3 SWAP6 SWAP2 SWAP5 POP SWAP3 POP JUMP JUMPDEST PUSH1 0x0 PUSH3 0x34A PUSH3 0x35D JUMP JUMPDEST SWAP1 POP PUSH3 0x358 DUP3 DUP3 PUSH3 0x413 JUMP JUMPDEST SWAP2 SWAP1 POP JUMP JUMPDEST PUSH1 0x0 PUSH1 0x40 MLOAD SWAP1 POP SWAP1 JUMP JUMPDEST PUSH1 0x0 PUSH8 0xFFFFFFFFFFFFFFFF DUP3 GT ISZERO PUSH3 0x385 JUMPI PUSH3 0x384 PUSH3 0x478 JUMP JUMPDEST JUMPDEST PUSH3 0x390 DUP3 PUSH3 0x4BB JUMP JUMPDEST SWAP1 POP PUSH1 0x20 DUP2 ADD SWAP1 POP SWAP2 SWAP1 POP JUMP JUMPDEST PUSH1 0x0 DUP2 SWAP1 POP SWAP2 SWAP1 POP JUMP JUMPDEST PUSH1 0x0 JUMPDEST DUP4 DUP2 LT ISZERO PUSH3 0x3C7 JUMPI DUP1 DUP3 ADD MLOAD DUP2 DUP5 ADD MSTORE PUSH1 0x20 DUP2 ADD SWAP1 POP PUSH3 0x3AA JUMP JUMPDEST DUP4 DUP2 GT ISZERO PUSH3 0x3D7 JUMPI PUSH1 0x0 DUP5 DUP5 ADD MSTORE JUMPDEST POP POP POP POP JUMP JUMPDEST PUSH1 0x0 PUSH1 0x2 DUP3 DIV SWAP1 POP PUSH1 0x1 DUP3 AND DUP1 PUSH3 0x3F6 JUMPI PUSH1 0x7F DUP3 AND SWAP2 POP JUMPDEST PUSH1 0x20 DUP3 LT DUP2 EQ ISZERO PUSH3 0x40D JUMPI PUSH3 0x40C PUSH3 0x449 JUMP JUMPDEST JUMPDEST POP SWAP2 SWAP1 POP JUMP JUMPDEST PUSH3 0x41E DUP3 PUSH3 0x4BB JUMP JUMPDEST DUP2 ADD DUP2 DUP2 LT PUSH8 0xFFFFFFFFFFFFFFFF DUP3 GT OR ISZERO PUSH3 0x440 JUMPI PUSH3 0x43F PUSH3 0x478 JUMP JUMPDEST JUMPDEST DUP1 PUSH1 0x40 MSTORE POP POP POP JUMP JUMPDEST PUSH32 0x4E487B7100000000000000000000000000000000000000000000000000000000 PUSH1 0x0 MSTORE PUSH1 0x22 PUSH1 0x4 MSTORE PUSH1 0x24 PUSH1 0x0 REVERT JUMPDEST PUSH32 0x4E487B7100000000000000000000000000000000000000000000000000000000 PUSH1 0x0 MSTORE PUSH1 0x41 PUSH1 0x4 MSTORE PUSH1 0x24 PUSH1 0x0 REVERT JUMPDEST PUSH1 0x0 DUP1 REVERT JUMPDEST PUSH1 0x0 DUP1 REVERT JUMPDEST PUSH1 0x0 DUP1 REVERT JUMPDEST PUSH1 0x0 DUP1 REVERT JUMPDEST PUSH1 0x0 PUSH1 0x1F NOT PUSH1 0x1F DUP4 ADD AND SWAP1 POP SWAP2 SWAP1 POP JUMP JUMPDEST PUSH3 0x4D7 DUP2 PUSH3 0x39D JUMP JUMPDEST DUP2 EQ PUSH3 0x4E3 JUMPI PUSH1 0x0 DUP1 REVERT JUMPDEST POP JUMP JUMPDEST PUSH2 0x777 DUP1 PUSH3 0x4F6 PUSH1 0x0 CODECOPY PUSH1 0x0 RETURN INVALID PUSH1 0x80 PUSH1 0x40 MSTORE PUSH1 0x4 CALLDATASIZE LT PUSH2 0x29 JUMPI PUSH1 0x0 CALLDATALOAD PUSH1 0xE0 SHR DUP1 PUSH4 0xB767050D EQ PUSH2 0x2E JUMPI DUP1 PUSH4 0xD63DC661 EQ PUSH2 0x57 JUMPI JUMPDEST PUSH1 0x0 DUP1 REVERT JUMPDEST CALLVALUE DUP1 ISZERO PUSH2 0x3A JUMPI PUSH1 0x0 DUP1 REVERT JUMPDEST POP PUSH2 0x55 PUSH1 0x4 DUP1 CALLDATASIZE SUB DUP2 ADD SWAP1 PUSH2 0x50 SWAP2 SWAP1 PUSH2 0x386 JUMP JUMPDEST PUSH2 0x61 JUMP JUMPDEST STOP JUMPDEST PUSH2 0x5F PUSH2 0x13F JUMP JUMPDEST STOP JUMPDEST PUSH1 0x5 PUSH1 0x0 SWAP1 SLOAD SWAP1 PUSH2 0x100 EXP SWAP1 DIV PUSH20 0xFFFFFFFFFFFFFFFFFFFFFFFFFFFFFFFFFFFFFFFF AND PUSH20 0xFFFFFFFFFFFFFFFFFFFFFFFFFFFFFFFFFFFFFFFF AND CALLER PUSH20 0xFFFFFFFFFFFFFFFFFFFFFFFFFFFFFFFFFFFFFFFF AND EQ PUSH2 0xF1 JUMPI PUSH1 0x40 MLOAD PUSH32 0x8C379A000000000000000000000000000000000000000000000000000000000 DUP2 MSTORE PUSH1 0x4 ADD PUSH2 0xE8 SWAP1 PUSH2 0x522 JUMP JUMPDEST PUSH1 0x40 MLOAD DUP1 SWAP2 SUB SWAP1 REVERT JUMPDEST DUP2 DUP2 PUSH1 0x6 SWAP2 SWAP1 PUSH2 0x102 SWAP3 SWAP2 SWAP1 PUSH2 0x28D JUMP JUMPDEST POP PUSH32 0x1D3640291DE4384417D59D1BF694336E947992271BDE4AEC9DDD4D2F4BAC8D5F PUSH1 0x6 PUSH1 0x40 MLOAD PUSH2 0x133 SWAP2 SWAP1 PUSH2 0x4E0 JUMP JUMPDEST PUSH1 0x40 MLOAD DUP1 SWAP2 SUB SWAP1 LOG1 POP POP JUMP JUMPDEST PUSH1 0x5 PUSH1 0x0 SWAP1 SLOAD SWAP1 PUSH2 0x100 EXP SWAP1 DIV PUSH20 0xFFFFFFFFFFFFFFFFFFFFFFFFFFFFFFFFFFFFFFFF AND PUSH20 0xFFFFFFFFFFFFFFFFFFFFFFFFFFFFFFFFFFFFFFFF AND CALLER PUSH20 0xFFFFFFFFFFFFFFFFFFFFFFFFFFFFFFFFFFFFFFFF AND EQ ISZERO PUSH2 0x1D0 JUMPI PUSH1 0x40 MLOAD PUSH32 0x8C379A000000000000000000000000000000000000000000000000000000000 DUP2 MSTORE PUSH1 0x4 ADD PUSH2 0x1C7 SWAP1 PUSH2 0x502 JUMP JUMPDEST PUSH1 0x40 MLOAD DUP1 SWAP2 SUB SWAP1 REVERT JUMPDEST PUSH1 0x5 PUSH1 0x0 SWAP1 SLOAD SWAP1 PUSH2 0x100 EXP SWAP1 DIV PUSH20 0xFFFFFFFFFFFFFFFFFFFFFFFFFFFFFFFFFFFFFFFF AND PUSH20 0xFFFFFFFFFFFFFFFFFFFFFFFFFFFFFFFFFFFFFFFF AND PUSH2 0x8FC CALLVALUE SWAP1 DUP2 ISZERO MUL SWAP1 PUSH1 0x40 MLOAD PUSH1 0x0 PUSH1 0x40 MLOAD DUP1 DUP4 SUB DUP2 DUP6 DUP9 DUP9 CALL SWAP4 POP POP POP POP ISZERO DUP1 ISZERO PUSH2 0x238 JUMPI RETURNDATASIZE PUSH1 0x0 DUP1 RETURNDATACOPY RETURNDATASIZE PUSH1 0x0 REVERT JUMPDEST POP CALLVALUE PUSH1 0x4 PUSH1 0x0 DUP3 DUP3 SLOAD PUSH2 0x24B SWAP2 SWAP1 PUSH2 0x568 JUMP JUMPDEST SWAP3 POP POP DUP2 SWAP1 SSTORE POP PUSH32 0xD8E685D20EFFF2F4C155033A76924C523215986852E802FBF5FD476A8E2EE9EA CALLER CALLVALUE PUSH1 0x40 MLOAD PUSH2 0x283 SWAP3 SWAP2 SWAP1 PUSH2 0x4B7 JUMP JUMPDEST PUSH1 0x40 MLOAD DUP1 SWAP2 SUB SWAP1 LOG1 JUMP JUMPDEST DUP3 DUP1 SLOAD PUSH2 0x299 SWAP1 PUSH2 0x5FA JUMP JUMPDEST SWAP1 PUSH1 0x0 MSTORE PUSH1 0x20 PUSH1 0x0 KECCAK256 SWAP1 PUSH1 0x1F ADD PUSH1 0x20 SWAP1 DIV DUP2 ADD SWAP3 DUP3 PUSH2 0x2BB JUMPI PUSH1 0x0 DUP6 SSTORE PUSH2 0x302 JUMP JUMPDEST DUP3 PUSH1 0x1F LT PUSH2 0x2D4 JUMPI DUP1 CALLDATALOAD PUSH1 0xFF NOT AND DUP4 DUP1 ADD OR DUP6 SSTORE PUSH2 0x302 JUMP JUMPDEST DUP3 DUP1 ADD PUSH1 0x1 ADD DUP6 SSTORE DUP3 ISZERO PUSH2 0x302 JUMPI SWAP2 DUP3 ADD JUMPDEST DUP3 DUP2 GT ISZERO PUSH2 0x301 JUMPI DUP3 CALLDATALOAD DUP3 SSTORE SWAP2 PUSH1 0x20 ADD SWAP2 SWAP1 PUSH1 0x1 ADD SWAP1 PUSH2 0x2E6 JUMP JUMPDEST JUMPDEST POP SWAP1 POP PUSH2 0x30F SWAP2 SWAP1 PUSH2 0x313 JUMP JUMPDEST POP SWAP1 JUMP JUMPDEST JUMPDEST DUP1 DUP3 GT ISZERO PUSH2 0x32C JUMPI PUSH1 0x0 DUP2 PUSH1 0x0 SWAP1 SSTORE POP PUSH1 0x1 ADD PUSH2 0x314 JUMP JUMPDEST POP SWAP1 JUMP JUMPDEST PUSH1 0x0 DUP1 DUP4 PUSH1 0x1F DUP5 ADD SLT PUSH2 0x346 JUMPI PUSH2 0x345 PUSH2 0x68F JUMP JUMPDEST JUMPDEST DUP3 CALLDATALOAD SWAP1 POP PUSH8 0xFFFFFFFFFFFFFFFF DUP2 GT ISZERO PUSH2 0x363 JUMPI PUSH2 0x362 PUSH2 0x68A JUMP JUMPDEST JUMPDEST PUSH1 0x20 DUP4 ADD SWAP2 POP DUP4 PUSH1 0x1 DUP3 MUL DUP4 ADD GT ISZERO PUSH2 0x37F JUMPI PUSH2 0x37E PUSH2 0x694 JUMP JUMPDEST JUMPDEST SWAP3 POP SWAP3 SWAP1 POP JUMP JUMPDEST PUSH1 0x0 DUP1 PUSH1 0x20 DUP4 DUP6 SUB SLT ISZERO PUSH2 0x39D JUMPI PUSH2 0x39C PUSH2 0x69E JUMP JUMPDEST JUMPDEST PUSH1 0x0 DUP4 ADD CALLDATALOAD PUSH8 0xFFFFFFFFFFFFFFFF DUP2 GT ISZERO PUSH2 0x3BB JUMPI PUSH2 0x3BA PUSH2 0x699 JUMP JUMPDEST JUMPDEST PUSH2 0x3C7 DUP6 DUP3 DUP7 ADD PUSH2 0x330 JUMP JUMPDEST SWAP3 POP SWAP3 POP POP SWAP3 POP SWAP3 SWAP1 POP JUMP JUMPDEST PUSH2 0x3DC DUP2 PUSH2 0x5BE JUMP JUMPDEST DUP3 MSTORE POP POP JUMP JUMPDEST PUSH1 0x0 DUP2 SLOAD PUSH2 0x3EF DUP2 PUSH2 0x5FA JUMP JUMPDEST PUSH2 0x3F9 DUP2 DUP7 PUSH2 0x557 JUMP JUMPDEST SWAP5 POP PUSH1 0x1 DUP3 AND PUSH1 0x0 DUP2 EQ PUSH2 0x414 JUMPI PUSH1 0x1 DUP2 EQ PUSH2 0x426 JUMPI PUSH2 0x459 JUMP JUMPDEST PUSH1 0xFF NOT DUP4 AND DUP7 MSTORE PUSH1 0x20 DUP7 ADD SWAP4 POP PUSH2 0x459 JUMP JUMPDEST PUSH2 0x42F DUP6 PUSH2 0x542 JUMP JUMPDEST PUSH1 0x0 JUMPDEST DUP4 DUP2 LT ISZERO PUSH2 0x451 JUMPI DUP2 SLOAD DUP2 DUP10 ADD MSTORE PUSH1 0x1 DUP3 ADD SWAP2 POP PUSH1 0x20 DUP2 ADD SWAP1 POP PUSH2 0x432 JUMP JUMPDEST DUP1 DUP9 ADD SWAP6 POP POP POP JUMPDEST POP POP POP SWAP3 SWAP2 POP POP JUMP JUMPDEST PUSH1 0x0 PUSH2 0x46F PUSH1 0x22 DUP4 PUSH2 0x557 JUMP JUMPDEST SWAP2 POP PUSH2 0x47A DUP3 PUSH2 0x6A3 JUMP JUMPDEST PUSH1 0x40 DUP3 ADD SWAP1 POP SWAP2 SWAP1 POP JUMP JUMPDEST PUSH1 0x0 PUSH2 0x492 PUSH1 0x2F DUP4 PUSH2 0x557 JUMP JUMPDEST SWAP2 POP PUSH2 0x49D DUP3 PUSH2 0x6F2 JUMP JUMPDEST PUSH1 0x40 DUP3 ADD SWAP1 POP SWAP2 SWAP1 POP JUMP JUMPDEST PUSH2 0x4B1 DUP2 PUSH2 0x5F0 JUMP JUMPDEST DUP3 MSTORE POP POP JUMP JUMPDEST PUSH1 0x0 PUSH1 0x40 DUP3 ADD SWAP1 POP PUSH2 0x4CC PUSH1 0x0 DUP4 ADD DUP6 PUSH2 0x3D3 JUMP JUMPDEST PUSH2 0x4D9 PUSH1 0x20 DUP4 ADD DUP5 PUSH2 0x4A8 JUMP JUMPDEST SWAP4 SWAP3 POP POP POP JUMP JUMPDEST PUSH1 0x0 PUSH1 0x20 DUP3 ADD SWAP1 POP DUP2 DUP2 SUB PUSH1 0x0 DUP4 ADD MSTORE PUSH2 0x4FA DUP2 DUP5 PUSH2 0x3E2 JUMP JUMPDEST SWAP1 POP SWAP3 SWAP2 POP POP JUMP JUMPDEST PUSH1 0x0 PUSH1 0x20 DUP3 ADD SWAP1 POP DUP2 DUP2 SUB PUSH1 0x0 DUP4 ADD MSTORE PUSH2 0x51B DUP2 PUSH2 0x462 JUMP JUMPDEST SWAP1 POP SWAP2 SWAP1 POP JUMP JUMPDEST PUSH1 0x0 PUSH1 0x20 DUP3 ADD SWAP1 POP DUP2 DUP2 SUB PUSH1 0x0 DUP4 ADD MSTORE PUSH2 0x53B DUP2 PUSH2 0x485 JUMP JUMPDEST SWAP1 POP SWAP2 SWAP1 POP JUMP JUMPDEST PUSH1 0x0 DUP2 SWAP1 POP DUP2 PUSH1 0x0 MSTORE PUSH1 0x20 PUSH1 0x0 KECCAK256 SWAP1 POP SWAP2 SWAP1 POP JUMP JUMPDEST PUSH1 0x0 DUP3 DUP3 MSTORE PUSH1 0x20 DUP3 ADD SWAP1 POP SWAP3 SWAP2 POP POP JUMP JUMPDEST PUSH1 0x0 PUSH2 0x573 DUP3 PUSH2 0x5F0 JUMP JUMPDEST SWAP2 POP PUSH2 0x57E DUP4 PUSH2 0x5F0 JUMP JUMPDEST SWAP3 POP DUP3 PUSH32 0xFFFFFFFFFFFFFFFFFFFFFFFFFFFFFFFFFFFFFFFFFFFFFFFFFFFFFFFFFFFFFFFF SUB DUP3 GT ISZERO PUSH2 0x5B3 JUMPI PUSH2 0x5B2 PUSH2 0x62C JUMP JUMPDEST JUMPDEST DUP3 DUP3 ADD SWAP1 POP SWAP3 SWAP2 POP POP JUMP JUMPDEST PUSH1 0x0 PUSH2 0x5C9 DUP3 PUSH2 0x5D0 JUMP JUMPDEST SWAP1 POP SWAP2 SWAP1 POP JUMP JUMPDEST PUSH1 0x0 PUSH20 0xFFFFFFFFFFFFFFFFFFFFFFFFFFFFFFFFFFFFFFFF DUP3 AND SWAP1 POP SWAP2 SWAP1 POP JUMP JUMPDEST PUSH1 0x0 DUP2 SWAP1 POP SWAP2 SWAP1 POP JUMP JUMPDEST PUSH1 0x0 PUSH1 0x2 DUP3 DIV SWAP1 POP PUSH1 0x1 DUP3 AND DUP1 PUSH2 0x612 JUMPI PUSH1 0x7F DUP3 AND SWAP2 POP JUMPDEST PUSH1 0x20 DUP3 LT DUP2 EQ ISZERO PUSH2 0x626 JUMPI PUSH2 0x625 PUSH2 0x65B JUMP JUMPDEST JUMPDEST POP SWAP2 SWAP1 POP JUMP JUMPDEST PUSH32 0x4E487B7100000000000000000000000000000000000000000000000000000000 PUSH1 0x0 MSTORE PUSH1 0x11 PUSH1 0x4 MSTORE PUSH1 0x24 PUSH1 0x0 REVERT JUMPDEST PUSH32 0x4E487B7100000000000000000000000000000000000000000000000000000000 PUSH1 0x0 MSTORE PUSH1 0x22 PUSH1 0x4 MSTORE PUSH1 0x24 PUSH1 0x0 REVERT JUMPDEST PUSH1 0x0 DUP1 REVERT JUMPDEST PUSH1 0x0 DUP1 REVERT JUMPDEST PUSH1 0x0 DUP1 REVERT JUMPDEST PUSH1 0x0 DUP1 REVERT JUMPDEST PUSH1 0x0 DUP1 REVERT JUMPDEST PUSH32 0x54686520617574686F722063616E6E6F742066756E64207468652070726F6A65 PUSH1 0x0 DUP3 ADD MSTORE PUSH32 0x6374000000000000000000000000000000000000000000000000000000000000 PUSH1 0x20 DUP3 ADD MSTORE POP JUMP JUMPDEST PUSH32 0x4F6E6C7920617574686F722063616E206368616E676520746865207374617465 PUSH1 0x0 DUP3 ADD MSTORE PUSH32 0x206F66207468652070726F6A6563740000000000000000000000000000000000 PUSH1 0x20 DUP3 ADD MSTORE POP JUMP INVALID LOG2 PUSH5 0x6970667358 0x22 SLT KECCAK256 CALLVALUE 0xE0 PUSH24 0x5D649CE940BC160B6268DD3286D2762D38F8A73DBD3760E2 PUSH10 0x953BD12C64736F6C6343 STOP ADDMOD SMOD STOP CALLER "
				},
				"gasEstimates": {
					"creation": {
						"codeDepositCost": "382200",
						"executionCost": "infinite",
						"totalCost": "infinite"
					},
					"external": {
						"changeProjectState(string)": "infinite",
						"fundProject()": "infinite"
					}
				},
				"methodIdentifiers": {
					"changeProjectState(string)": "b767050d",
					"fundProject()": "d63dc661"
				}
			},
			"storageLayout": {
				"storage": [
					{
						"astId": 3,
						"contract": "contracts/project.sol:CrowdFunding",
						"label": "id",
						"offset": 0,
						"slot": "0",
						"type": "t_string_storage"
					},
					{
						"astId": 5,
						"contract": "contracts/project.sol:CrowdFunding",
						"label": "name",
						"offset": 0,
						"slot": "1",
						"type": "t_string_storage"
					},
					{
						"astId": 7,
						"contract": "contracts/project.sol:CrowdFunding",
						"label": "description",
						"offset": 0,
						"slot": "2",
						"type": "t_string_storage"
					},
					{
						"astId": 9,
						"contract": "contracts/project.sol:CrowdFunding",
						"label": "goal",
						"offset": 0,
						"slot": "3",
						"type": "t_uint256"
					},
					{
						"astId": 11,
						"contract": "contracts/project.sol:CrowdFunding",
						"label": "funds",
						"offset": 0,
						"slot": "4",
						"type": "t_uint256"
					},
					{
						"astId": 13,
						"contract": "contracts/project.sol:CrowdFunding",
						"label": "author",
						"offset": 0,
						"slot": "5",
						"type": "t_address_payable"
					},
					{
						"astId": 15,
						"contract": "contracts/project.sol:CrowdFunding",
						"label": "state",
						"offset": 0,
						"slot": "6",
						"type": "t_string_storage"
					}
				],
				"types": {
					"t_address_payable": {
						"encoding": "inplace",
						"label": "address payable",
						"numberOfBytes": "20"
					},
					"t_string_storage": {
						"encoding": "bytes",
						"label": "string",
						"numberOfBytes": "32"
					},
					"t_uint256": {
						"encoding": "inplace",
						"label": "uint256",
						"numberOfBytes": "32"
					}
				}
			},
			"userdoc": {
				"kind": "user",
				"methods": {},
				"version": 1
			}
		}
	}
}