{
	"contracts/project.sol": {
		"CrowdFunding": {
			"abi": [
				{
					"anonymous": false,
					"inputs": [
						{
							"indexed": false,
							"internalType": "string",
							"name": "projectId",
							"type": "string"
						},
						{
							"indexed": false,
							"internalType": "enum CrowdFunding.State",
							"name": "newState",
							"type": "uint8"
						}
					],
					"name": "changeProjectStateLog",
					"type": "event"
				},
				{
					"anonymous": false,
					"inputs": [
						{
							"indexed": false,
							"internalType": "string",
							"name": "projectId",
							"type": "string"
						},
						{
							"indexed": false,
							"internalType": "string",
							"name": "name",
							"type": "string"
						},
						{
							"indexed": false,
							"internalType": "string",
							"name": "description",
							"type": "string"
						},
						{
							"indexed": false,
							"internalType": "uint256",
							"name": "goal",
							"type": "uint256"
						}
					],
					"name": "createProjectLog",
					"type": "event"
				},
				{
					"anonymous": false,
					"inputs": [
						{
							"indexed": false,
							"internalType": "string",
							"name": "projectId",
							"type": "string"
						},
						{
							"indexed": false,
							"internalType": "uint256",
							"name": "newFunds",
							"type": "uint256"
						}
					],
					"name": "fundProjectLog",
					"type": "event"
				},
				{
					"inputs": [
						{
							"internalType": "uint256",
							"name": "projectIndex",
							"type": "uint256"
						},
						{
							"internalType": "enum CrowdFunding.State",
							"name": "newState",
							"type": "uint8"
						}
					],
					"name": "changeProjectState",
					"outputs": [],
					"stateMutability": "nonpayable",
					"type": "function"
				},
				{
					"inputs": [
						{
							"internalType": "string",
							"name": "",
							"type": "string"
						},
						{
							"internalType": "uint256",
							"name": "",
							"type": "uint256"
						}
					],
					"name": "contributions",
					"outputs": [
						{
							"internalType": "address",
							"name": "contributor",
							"type": "address"
						},
						{
							"internalType": "uint256",
							"name": "value",
							"type": "uint256"
						}
					],
					"stateMutability": "view",
					"type": "function"
				},
				{
					"inputs": [
						{
							"internalType": "string",
							"name": "_id",
							"type": "string"
						},
						{
							"internalType": "string",
							"name": "_name",
							"type": "string"
						},
						{
							"internalType": "string",
							"name": "_description",
							"type": "string"
						},
						{
							"internalType": "uint256",
							"name": "_goal",
							"type": "uint256"
						}
					],
					"name": "createProject",
					"outputs": [],
					"stateMutability": "nonpayable",
					"type": "function"
				},
				{
					"inputs": [
						{
							"internalType": "uint256",
							"name": "projectIndex",
							"type": "uint256"
						}
					],
					"name": "fundProject",
					"outputs": [],
					"stateMutability": "payable",
					"type": "function"
				},
				{
					"inputs": [
						{
							"internalType": "uint256",
							"name": "",
							"type": "uint256"
						}
					],
					"name": "projects",
					"outputs": [
						{
							"internalType": "string",
							"name": "id",
							"type": "string"
						},
						{
							"internalType": "string",
							"name": "name",
							"type": "string"
						},
						{
							"internalType": "string",
							"name": "description",
							"type": "string"
						},
						{
							"internalType": "uint256",
							"name": "goal",
							"type": "uint256"
						},
						{
							"internalType": "address payable",
							"name": "author",
							"type": "address"
						},
						{
							"internalType": "uint256",
							"name": "funds",
							"type": "uint256"
						},
						{
							"internalType": "enum CrowdFunding.State",
							"name": "state",
							"type": "uint8"
						}
					],
					"stateMutability": "view",
					"type": "function"
				}
			],
			"devdoc": {
				"kind": "dev",
				"methods": {},
				"version": 1
			},
			"evm": {
				"assembly": "    /* \"contracts/project.sol\":74:2465  contract CrowdFunding {\r... */\n  mstore(0x40, 0x80)\n  callvalue\n  dup1\n  iszero\n  tag_1\n  jumpi\n  0x00\n  dup1\n  revert\ntag_1:\n  pop\n  dataSize(sub_0)\n  dup1\n  dataOffset(sub_0)\n  0x00\n  codecopy\n  0x00\n  return\nstop\n\nsub_0: assembly {\n        /* \"contracts/project.sol\":74:2465  contract CrowdFunding {\r... */\n      mstore(0x40, 0x80)\n      jumpi(tag_1, lt(calldatasize, 0x04))\n      shr(0xe0, calldataload(0x00))\n      dup1\n      0x107046bd\n      eq\n      tag_2\n      jumpi\n      dup1\n      0x17e925d7\n      eq\n      tag_3\n      jumpi\n      dup1\n      0x1ca73896\n      eq\n      tag_4\n      jumpi\n      dup1\n      0x6c563abe\n      eq\n      tag_5\n      jumpi\n      dup1\n      0x7f3fcdd9\n      eq\n      tag_6\n      jumpi\n    tag_1:\n      0x00\n      dup1\n      revert\n        /* \"contracts/project.sol\":450:475  Project[] public projects */\n    tag_2:\n      callvalue\n      dup1\n      iszero\n      tag_7\n      jumpi\n      0x00\n      dup1\n      revert\n    tag_7:\n      pop\n      tag_8\n      0x04\n      dup1\n      calldatasize\n      sub\n      dup2\n      add\n      swap1\n      tag_9\n      swap2\n      swap1\n      tag_10\n      jump\t// in\n    tag_9:\n      tag_11\n      jump\t// in\n    tag_8:\n      mload(0x40)\n      tag_12\n      swap8\n      swap7\n      swap6\n      swap5\n      swap4\n      swap3\n      swap2\n      swap1\n      tag_13\n      jump\t// in\n    tag_12:\n      mload(0x40)\n      dup1\n      swap2\n      sub\n      swap1\n      return\n        /* \"contracts/project.sol\":1506:1893  function changeProjectState(uint projectIndex, State newState) public isAuthor(projectIndex) {\r... */\n    tag_3:\n      callvalue\n      dup1\n      iszero\n      tag_14\n      jumpi\n      0x00\n      dup1\n      revert\n    tag_14:\n      pop\n      tag_15\n      0x04\n      dup1\n      calldatasize\n      sub\n      dup2\n      add\n      swap1\n      tag_16\n      swap2\n      swap1\n      tag_17\n      jump\t// in\n    tag_16:\n      tag_18\n      jump\t// in\n    tag_15:\n      stop\n        /* \"contracts/project.sol\":545:953  function createProject(string calldata _id, string calldata _name, string calldata _description, uint _goal) public {\r... */\n    tag_4:\n      callvalue\n      dup1\n      iszero\n      tag_19\n      jumpi\n      0x00\n      dup1\n      revert\n    tag_19:\n      pop\n      tag_20\n      0x04\n      dup1\n      calldatasize\n      sub\n      dup2\n      add\n      swap1\n      tag_21\n      swap2\n      swap1\n      tag_22\n      jump\t// in\n    tag_21:\n      tag_23\n      jump\t// in\n    tag_20:\n      stop\n        /* \"contracts/project.sol\":961:1498  function fundProject(uint projectIndex) public payable isNotAuthor(projectIndex) {\r... */\n    tag_5:\n      tag_24\n      0x04\n      dup1\n      calldatasize\n      sub\n      dup2\n      add\n      swap1\n      tag_25\n      swap2\n      swap1\n      tag_10\n      jump\t// in\n    tag_25:\n      tag_26\n      jump\t// in\n    tag_24:\n      stop\n        /* \"contracts/project.sol\":482:536  mapping(string => Contribution[]) public contributions */\n    tag_6:\n      callvalue\n      dup1\n      iszero\n      tag_27\n      jumpi\n      0x00\n      dup1\n      revert\n    tag_27:\n      pop\n      tag_28\n      0x04\n      dup1\n      calldatasize\n      sub\n      dup2\n      add\n      swap1\n      tag_29\n      swap2\n      swap1\n      tag_30\n      jump\t// in\n    tag_29:\n      tag_31\n      jump\t// in\n    tag_28:\n      mload(0x40)\n      tag_32\n      swap3\n      swap2\n      swap1\n      tag_33\n      jump\t// in\n    tag_32:\n      mload(0x40)\n      dup1\n      swap2\n      sub\n      swap1\n      return\n        /* \"contracts/project.sol\":450:475  Project[] public projects */\n    tag_11:\n      0x00\n      dup2\n      dup2\n      sload\n      dup2\n      lt\n      tag_34\n      jumpi\n      0x00\n      dup1\n      revert\n    tag_34:\n      swap1\n      0x00\n      mstore\n      keccak256(0x00, 0x20)\n      swap1\n      0x07\n      mul\n      add\n      0x00\n      swap2\n      pop\n      swap1\n      pop\n      dup1\n      0x00\n      add\n      dup1\n      sload\n      tag_36\n      swap1\n      tag_37\n      jump\t// in\n    tag_36:\n      dup1\n      0x1f\n      add\n      0x20\n      dup1\n      swap2\n      div\n      mul\n      0x20\n      add\n      mload(0x40)\n      swap1\n      dup2\n      add\n      0x40\n      mstore\n      dup1\n      swap3\n      swap2\n      swap1\n      dup2\n      dup2\n      mstore\n      0x20\n      add\n      dup3\n      dup1\n      sload\n      tag_38\n      swap1\n      tag_37\n      jump\t// in\n    tag_38:\n      dup1\n      iszero\n      tag_39\n      jumpi\n      dup1\n      0x1f\n      lt\n      tag_40\n      jumpi\n      0x0100\n      dup1\n      dup4\n      sload\n      div\n      mul\n      dup4\n      mstore\n      swap2\n      0x20\n      add\n      swap2\n      jump(tag_39)\n    tag_40:\n      dup3\n      add\n      swap2\n      swap1\n      0x00\n      mstore\n      keccak256(0x00, 0x20)\n      swap1\n    tag_41:\n      dup2\n      sload\n      dup2\n      mstore\n      swap1\n      0x01\n      add\n      swap1\n      0x20\n      add\n      dup1\n      dup4\n      gt\n      tag_41\n      jumpi\n      dup3\n      swap1\n      sub\n      0x1f\n      and\n      dup3\n      add\n      swap2\n    tag_39:\n      pop\n      pop\n      pop\n      pop\n      pop\n      swap1\n      dup1\n      0x01\n      add\n      dup1\n      sload\n      tag_42\n      swap1\n      tag_37\n      jump\t// in\n    tag_42:\n      dup1\n      0x1f\n      add\n      0x20\n      dup1\n      swap2\n      div\n      mul\n      0x20\n      add\n      mload(0x40)\n      swap1\n      dup2\n      add\n      0x40\n      mstore\n      dup1\n      swap3\n      swap2\n      swap1\n      dup2\n      dup2\n      mstore\n      0x20\n      add\n      dup3\n      dup1\n      sload\n      tag_43\n      swap1\n      tag_37\n      jump\t// in\n    tag_43:\n      dup1\n      iszero\n      tag_44\n      jumpi\n      dup1\n      0x1f\n      lt\n      tag_45\n      jumpi\n      0x0100\n      dup1\n      dup4\n      sload\n      div\n      mul\n      dup4\n      mstore\n      swap2\n      0x20\n      add\n      swap2\n      jump(tag_44)\n    tag_45:\n      dup3\n      add\n      swap2\n      swap1\n      0x00\n      mstore\n      keccak256(0x00, 0x20)\n      swap1\n    tag_46:\n      dup2\n      sload\n      dup2\n      mstore\n      swap1\n      0x01\n      add\n      swap1\n      0x20\n      add\n      dup1\n      dup4\n      gt\n      tag_46\n      jumpi\n      dup3\n      swap1\n      sub\n      0x1f\n      and\n      dup3\n      add\n      swap2\n    tag_44:\n      pop\n      pop\n      pop\n      pop\n      pop\n      swap1\n      dup1\n      0x02\n      add\n      dup1\n      sload\n      tag_47\n      swap1\n      tag_37\n      jump\t// in\n    tag_47:\n      dup1\n      0x1f\n      add\n      0x20\n      dup1\n      swap2\n      div\n      mul\n      0x20\n      add\n      mload(0x40)\n      swap1\n      dup2\n      add\n      0x40\n      mstore\n      dup1\n      swap3\n      swap2\n      swap1\n      dup2\n      dup2\n      mstore\n      0x20\n      add\n      dup3\n      dup1\n      sload\n      tag_48\n      swap1\n      tag_37\n      jump\t// in\n    tag_48:\n      dup1\n      iszero\n      tag_49\n      jumpi\n      dup1\n      0x1f\n      lt\n      tag_50\n      jumpi\n      0x0100\n      dup1\n      dup4\n      sload\n      div\n      mul\n      dup4\n      mstore\n      swap2\n      0x20\n      add\n      swap2\n      jump(tag_49)\n    tag_50:\n      dup3\n      add\n      swap2\n      swap1\n      0x00\n      mstore\n      keccak256(0x00, 0x20)\n      swap1\n    tag_51:\n      dup2\n      sload\n      dup2\n      mstore\n      swap1\n      0x01\n      add\n      swap1\n      0x20\n      add\n      dup1\n      dup4\n      gt\n      tag_51\n      jumpi\n      dup3\n      swap1\n      sub\n      0x1f\n      and\n      dup3\n      add\n      swap2\n    tag_49:\n      pop\n      pop\n      pop\n      pop\n      pop\n      swap1\n      dup1\n      0x03\n      add\n      sload\n      swap1\n      dup1\n      0x04\n      add\n      0x00\n      swap1\n      sload\n      swap1\n      0x0100\n      exp\n      swap1\n      div\n      0xffffffffffffffffffffffffffffffffffffffff\n      and\n      swap1\n      dup1\n      0x05\n      add\n      sload\n      swap1\n      dup1\n      0x06\n      add\n      0x00\n      swap1\n      sload\n      swap1\n      0x0100\n      exp\n      swap1\n      div\n      0xff\n      and\n      swap1\n      pop\n      dup8\n      jump\t// out\n        /* \"contracts/project.sol\":1506:1893  function changeProjectState(uint projectIndex, State newState) public isAuthor(projectIndex) {\r... */\n    tag_18:\n        /* \"contracts/project.sol\":1585:1597  projectIndex */\n      dup2\n        /* \"contracts/project.sol\":1971:1979  projects */\n      0x00\n        /* \"contracts/project.sol\":1980:1992  projectIndex */\n      dup2\n        /* \"contracts/project.sol\":1971:1993  projects[projectIndex] */\n      dup2\n      sload\n      dup2\n      lt\n      tag_53\n      jumpi\n      tag_54\n      tag_55\n      jump\t// in\n    tag_54:\n    tag_53:\n      swap1\n      0x00\n      mstore\n      keccak256(0x00, 0x20)\n      swap1\n      0x07\n      mul\n      add\n        /* \"contracts/project.sol\":1971:2000  projects[projectIndex].author */\n      0x04\n      add\n      0x00\n      swap1\n      sload\n      swap1\n      0x0100\n      exp\n      swap1\n      div\n      0xffffffffffffffffffffffffffffffffffffffff\n      and\n        /* \"contracts/project.sol\":1957:2000  msg.sender == projects[projectIndex].author */\n      0xffffffffffffffffffffffffffffffffffffffff\n      and\n        /* \"contracts/project.sol\":1957:1967  msg.sender */\n      caller\n        /* \"contracts/project.sol\":1957:2000  msg.sender == projects[projectIndex].author */\n      0xffffffffffffffffffffffffffffffffffffffff\n      and\n      eq\n        /* \"contracts/project.sol\":1949:2052  require(msg.sender == projects[projectIndex].author, 'Only author can change the state of the project') */\n      tag_57\n      jumpi\n      mload(0x40)\n      0x08c379a000000000000000000000000000000000000000000000000000000000\n      dup2\n      mstore\n      0x04\n      add\n      tag_58\n      swap1\n      tag_59\n      jump\t// in\n    tag_58:\n      mload(0x40)\n      dup1\n      swap2\n      sub\n      swap1\n      revert\n    tag_57:\n        /* \"contracts/project.sol\":1610:1632  Project memory project */\n      0x00\n        /* \"contracts/project.sol\":1635:1643  projects */\n      dup1\n        /* \"contracts/project.sol\":1644:1656  projectIndex */\n      dup5\n        /* \"contracts/project.sol\":1635:1657  projects[projectIndex] */\n      dup2\n      sload\n      dup2\n      lt\n      tag_61\n      jumpi\n      tag_62\n      tag_55\n      jump\t// in\n    tag_62:\n    tag_61:\n      swap1\n      0x00\n      mstore\n      keccak256(0x00, 0x20)\n      swap1\n      0x07\n      mul\n      add\n        /* \"contracts/project.sol\":1610:1657  Project memory project = projects[projectIndex] */\n      mload(0x40)\n      dup1\n      0xe0\n      add\n      0x40\n      mstore\n      swap1\n      dup2\n      0x00\n      dup3\n      add\n      dup1\n      sload\n      tag_64\n      swap1\n      tag_37\n      jump\t// in\n    tag_64:\n      dup1\n      0x1f\n      add\n      0x20\n      dup1\n      swap2\n      div\n      mul\n      0x20\n      add\n      mload(0x40)\n      swap1\n      dup2\n      add\n      0x40\n      mstore\n      dup1\n      swap3\n      swap2\n      swap1\n      dup2\n      dup2\n      mstore\n      0x20\n      add\n      dup3\n      dup1\n      sload\n      tag_65\n      swap1\n      tag_37\n      jump\t// in\n    tag_65:\n      dup1\n      iszero\n      tag_66\n      jumpi\n      dup1\n      0x1f\n      lt\n      tag_67\n      jumpi\n      0x0100\n      dup1\n      dup4\n      sload\n      div\n      mul\n      dup4\n      mstore\n      swap2\n      0x20\n      add\n      swap2\n      jump(tag_66)\n    tag_67:\n      dup3\n      add\n      swap2\n      swap1\n      0x00\n      mstore\n      keccak256(0x00, 0x20)\n      swap1\n    tag_68:\n      dup2\n      sload\n      dup2\n      mstore\n      swap1\n      0x01\n      add\n      swap1\n      0x20\n      add\n      dup1\n      dup4\n      gt\n      tag_68\n      jumpi\n      dup3\n      swap1\n      sub\n      0x1f\n      and\n      dup3\n      add\n      swap2\n    tag_66:\n      pop\n      pop\n      pop\n      pop\n      pop\n      dup2\n      mstore\n      0x20\n      add\n      0x01\n      dup3\n      add\n      dup1\n      sload\n      tag_69\n      swap1\n      tag_37\n      jump\t// in\n    tag_69:\n      dup1\n      0x1f\n      add\n      0x20\n      dup1\n      swap2\n      div\n      mul\n      0x20\n      add\n      mload(0x40)\n      swap1\n      dup2\n      add\n      0x40\n      mstore\n      dup1\n      swap3\n      swap2\n      swap1\n      dup2\n      dup2\n      mstore\n      0x20\n      add\n      dup3\n      dup1\n      sload\n      tag_70\n      swap1\n      tag_37\n      jump\t// in\n    tag_70:\n      dup1\n      iszero\n      tag_71\n      jumpi\n      dup1\n      0x1f\n      lt\n      tag_72\n      jumpi\n      0x0100\n      dup1\n      dup4\n      sload\n      div\n      mul\n      dup4\n      mstore\n      swap2\n      0x20\n      add\n      swap2\n      jump(tag_71)\n    tag_72:\n      dup3\n      add\n      swap2\n      swap1\n      0x00\n      mstore\n      keccak256(0x00, 0x20)\n      swap1\n    tag_73:\n      dup2\n      sload\n      dup2\n      mstore\n      swap1\n      0x01\n      add\n      swap1\n      0x20\n      add\n      dup1\n      dup4\n      gt\n      tag_73\n      jumpi\n      dup3\n      swap1\n      sub\n      0x1f\n      and\n      dup3\n      add\n      swap2\n    tag_71:\n      pop\n      pop\n      pop\n      pop\n      pop\n      dup2\n      mstore\n      0x20\n      add\n      0x02\n      dup3\n      add\n      dup1\n      sload\n      tag_74\n      swap1\n      tag_37\n      jump\t// in\n    tag_74:\n      dup1\n      0x1f\n      add\n      0x20\n      dup1\n      swap2\n      div\n      mul\n      0x20\n      add\n      mload(0x40)\n      swap1\n      dup2\n      add\n      0x40\n      mstore\n      dup1\n      swap3\n      swap2\n      swap1\n      dup2\n      dup2\n      mstore\n      0x20\n      add\n      dup3\n      dup1\n      sload\n      tag_75\n      swap1\n      tag_37\n      jump\t// in\n    tag_75:\n      dup1\n      iszero\n      tag_76\n      jumpi\n      dup1\n      0x1f\n      lt\n      tag_77\n      jumpi\n      0x0100\n      dup1\n      dup4\n      sload\n      div\n      mul\n      dup4\n      mstore\n      swap2\n      0x20\n      add\n      swap2\n      jump(tag_76)\n    tag_77:\n      dup3\n      add\n      swap2\n      swap1\n      0x00\n      mstore\n      keccak256(0x00, 0x20)\n      swap1\n    tag_78:\n      dup2\n      sload\n      dup2\n      mstore\n      swap1\n      0x01\n      add\n      swap1\n      0x20\n      add\n      dup1\n      dup4\n      gt\n      tag_78\n      jumpi\n      dup3\n      swap1\n      sub\n      0x1f\n      and\n      dup3\n      add\n      swap2\n    tag_76:\n      pop\n      pop\n      pop\n      pop\n      pop\n      dup2\n      mstore\n      0x20\n      add\n      0x03\n      dup3\n      add\n      sload\n      dup2\n      mstore\n      0x20\n      add\n      0x04\n      dup3\n      add\n      0x00\n      swap1\n      sload\n      swap1\n      0x0100\n      exp\n      swap1\n      div\n      0xffffffffffffffffffffffffffffffffffffffff\n      and\n      0xffffffffffffffffffffffffffffffffffffffff\n      and\n      0xffffffffffffffffffffffffffffffffffffffff\n      and\n      dup2\n      mstore\n      0x20\n      add\n      0x05\n      dup3\n      add\n      sload\n      dup2\n      mstore\n      0x20\n      add\n      0x06\n      dup3\n      add\n      0x00\n      swap1\n      sload\n      swap1\n      0x0100\n      exp\n      swap1\n      div\n      0xff\n      and\n      0x01\n      dup2\n      gt\n      iszero\n      tag_79\n      jumpi\n      tag_80\n      tag_81\n      jump\t// in\n    tag_80:\n    tag_79:\n      0x01\n      dup2\n      gt\n      iszero\n      tag_82\n      jumpi\n      tag_83\n      tag_81\n      jump\t// in\n    tag_83:\n    tag_82:\n      dup2\n      mstore\n      pop\n      pop\n      swap1\n      pop\n        /* \"contracts/project.sol\":1693:1701  newState */\n      dup3\n        /* \"contracts/project.sol\":1676:1701  project.state != newState */\n      0x01\n      dup2\n      gt\n      iszero\n      tag_84\n      jumpi\n      tag_85\n      tag_81\n      jump\t// in\n    tag_85:\n    tag_84:\n        /* \"contracts/project.sol\":1676:1683  project */\n      dup2\n        /* \"contracts/project.sol\":1676:1689  project.state */\n      0xc0\n      add\n      mload\n        /* \"contracts/project.sol\":1676:1701  project.state != newState */\n      0x01\n      dup2\n      gt\n      iszero\n      tag_86\n      jumpi\n      tag_87\n      tag_81\n      jump\t// in\n    tag_87:\n    tag_86:\n      eq\n      iszero\n        /* \"contracts/project.sol\":1668:1733  require(project.state != newState, 'New state must be different') */\n      tag_88\n      jumpi\n      mload(0x40)\n      0x08c379a000000000000000000000000000000000000000000000000000000000\n      dup2\n      mstore\n      0x04\n      add\n      tag_89\n      swap1\n      tag_90\n      jump\t// in\n    tag_89:\n      mload(0x40)\n      dup1\n      swap2\n      sub\n      swap1\n      revert\n    tag_88:\n        /* \"contracts/project.sol\":1760:1768  newState */\n      dup3\n        /* \"contracts/project.sol\":1744:1751  project */\n      dup2\n        /* \"contracts/project.sol\":1744:1757  project.state */\n      0xc0\n      add\n        /* \"contracts/project.sol\":1744:1768  project.state = newState */\n      swap1\n      0x01\n      dup2\n      gt\n      iszero\n      tag_91\n      jumpi\n      tag_92\n      tag_81\n      jump\t// in\n    tag_92:\n    tag_91:\n      swap1\n      dup2\n      0x01\n      dup2\n      gt\n      iszero\n      tag_93\n      jumpi\n      tag_94\n      tag_81\n      jump\t// in\n    tag_94:\n    tag_93:\n      dup2\n      mstore\n      pop\n      pop\n        /* \"contracts/project.sol\":1804:1811  project */\n      dup1\n        /* \"contracts/project.sol\":1779:1787  projects */\n      0x00\n        /* \"contracts/project.sol\":1788:1800  projectIndex */\n      dup6\n        /* \"contracts/project.sol\":1779:1801  projects[projectIndex] */\n      dup2\n      sload\n      dup2\n      lt\n      tag_95\n      jumpi\n      tag_96\n      tag_55\n      jump\t// in\n    tag_96:\n    tag_95:\n      swap1\n      0x00\n      mstore\n      keccak256(0x00, 0x20)\n      swap1\n      0x07\n      mul\n      add\n        /* \"contracts/project.sol\":1779:1811  projects[projectIndex] = project */\n      0x00\n      dup3\n      add\n      mload\n      dup2\n      0x00\n      add\n      swap1\n      dup1\n      mload\n      swap1\n      0x20\n      add\n      swap1\n      tag_98\n      swap3\n      swap2\n      swap1\n      tag_99\n      jump\t// in\n    tag_98:\n      pop\n      0x20\n      dup3\n      add\n      mload\n      dup2\n      0x01\n      add\n      swap1\n      dup1\n      mload\n      swap1\n      0x20\n      add\n      swap1\n      tag_100\n      swap3\n      swap2\n      swap1\n      tag_99\n      jump\t// in\n    tag_100:\n      pop\n      0x40\n      dup3\n      add\n      mload\n      dup2\n      0x02\n      add\n      swap1\n      dup1\n      mload\n      swap1\n      0x20\n      add\n      swap1\n      tag_101\n      swap3\n      swap2\n      swap1\n      tag_99\n      jump\t// in\n    tag_101:\n      pop\n      0x60\n      dup3\n      add\n      mload\n      dup2\n      0x03\n      add\n      sstore\n      0x80\n      dup3\n      add\n      mload\n      dup2\n      0x04\n      add\n      exp(0x0100, 0x00)\n      dup2\n      sload\n      dup2\n      0xffffffffffffffffffffffffffffffffffffffff\n      mul\n      not\n      and\n      swap1\n      dup4\n      0xffffffffffffffffffffffffffffffffffffffff\n      and\n      mul\n      or\n      swap1\n      sstore\n      pop\n      0xa0\n      dup3\n      add\n      mload\n      dup2\n      0x05\n      add\n      sstore\n      0xc0\n      dup3\n      add\n      mload\n      dup2\n      0x06\n      add\n      exp(0x0100, 0x00)\n      dup2\n      sload\n      dup2\n      0xff\n      mul\n      not\n      and\n      swap1\n      dup4\n      0x01\n      dup2\n      gt\n      iszero\n      tag_102\n      jumpi\n      tag_103\n      tag_81\n      jump\t// in\n    tag_103:\n    tag_102:\n      mul\n      or\n      swap1\n      sstore\n      pop\n      swap1\n      pop\n      pop\n        /* \"contracts/project.sol\":1827:1885  changeProjectStateLog(projects[projectIndex].id, newState) */\n      0xb364ab0cadec04bec8a97e81743129cecc3480279fb67b9378df4219238b250f\n        /* \"contracts/project.sol\":1849:1857  projects */\n      0x00\n        /* \"contracts/project.sol\":1858:1870  projectIndex */\n      dup6\n        /* \"contracts/project.sol\":1849:1871  projects[projectIndex] */\n      dup2\n      sload\n      dup2\n      lt\n      tag_104\n      jumpi\n      tag_105\n      tag_55\n      jump\t// in\n    tag_105:\n    tag_104:\n      swap1\n      0x00\n      mstore\n      keccak256(0x00, 0x20)\n      swap1\n      0x07\n      mul\n      add\n        /* \"contracts/project.sol\":1849:1874  projects[projectIndex].id */\n      0x00\n      add\n        /* \"contracts/project.sol\":1876:1884  newState */\n      dup5\n        /* \"contracts/project.sol\":1827:1885  changeProjectStateLog(projects[projectIndex].id, newState) */\n      mload(0x40)\n      tag_107\n      swap3\n      swap2\n      swap1\n      tag_108\n      jump\t// in\n    tag_107:\n      mload(0x40)\n      dup1\n      swap2\n      sub\n      swap1\n      log1\n        /* \"contracts/project.sol\":1599:1893  {\r... */\n      pop\n        /* \"contracts/project.sol\":1506:1893  function changeProjectState(uint projectIndex, State newState) public isAuthor(projectIndex) {\r... */\n      pop\n      pop\n      pop\n      jump\t// out\n        /* \"contracts/project.sol\":545:953  function createProject(string calldata _id, string calldata _name, string calldata _description, uint _goal) public {\r... */\n    tag_23:\n        /* \"contracts/project.sol\":688:689  0 */\n      0x00\n        /* \"contracts/project.sol\":680:685  _goal */\n      dup2\n        /* \"contracts/project.sol\":680:689  _goal > 0 */\n      gt\n        /* \"contracts/project.sol\":672:733  require(_goal > 0, 'fundraising goal must be greater than 0') */\n      tag_110\n      jumpi\n      mload(0x40)\n      0x08c379a000000000000000000000000000000000000000000000000000000000\n      dup2\n      mstore\n      0x04\n      add\n      tag_111\n      swap1\n      tag_112\n      jump\t// in\n    tag_111:\n      mload(0x40)\n      dup1\n      swap2\n      sub\n      swap1\n      revert\n    tag_110:\n        /* \"contracts/project.sol\":744:766  Project memory project */\n      0x00\n        /* \"contracts/project.sol\":769:847  Project(_id, _name, _description, _goal, payable(msg.sender), 0, State.Opened) */\n      mload(0x40)\n      dup1\n      0xe0\n      add\n      0x40\n      mstore\n      dup1\n        /* \"contracts/project.sol\":777:780  _id */\n      dup10\n      dup10\n        /* \"contracts/project.sol\":769:847  Project(_id, _name, _description, _goal, payable(msg.sender), 0, State.Opened) */\n      dup1\n      dup1\n      0x1f\n      add\n      0x20\n      dup1\n      swap2\n      div\n      mul\n      0x20\n      add\n      mload(0x40)\n      swap1\n      dup2\n      add\n      0x40\n      mstore\n      dup1\n      swap4\n      swap3\n      swap2\n      swap1\n      dup2\n      dup2\n      mstore\n      0x20\n      add\n      dup4\n      dup4\n      dup1\n      dup3\n      dup5\n      calldatacopy\n      0x00\n      dup2\n      dup5\n      add\n      mstore\n      not(0x1f)\n      0x1f\n      dup3\n      add\n      and\n      swap1\n      pop\n      dup1\n      dup4\n      add\n      swap3\n      pop\n      pop\n      pop\n      pop\n      pop\n      pop\n      pop\n      dup2\n      mstore\n      0x20\n      add\n        /* \"contracts/project.sol\":782:787  _name */\n      dup8\n      dup8\n        /* \"contracts/project.sol\":769:847  Project(_id, _name, _description, _goal, payable(msg.sender), 0, State.Opened) */\n      dup1\n      dup1\n      0x1f\n      add\n      0x20\n      dup1\n      swap2\n      div\n      mul\n      0x20\n      add\n      mload(0x40)\n      swap1\n      dup2\n      add\n      0x40\n      mstore\n      dup1\n      swap4\n      swap3\n      swap2\n      swap1\n      dup2\n      dup2\n      mstore\n      0x20\n      add\n      dup4\n      dup4\n      dup1\n      dup3\n      dup5\n      calldatacopy\n      0x00\n      dup2\n      dup5\n      add\n      mstore\n      not(0x1f)\n      0x1f\n      dup3\n      add\n      and\n      swap1\n      pop\n      dup1\n      dup4\n      add\n      swap3\n      pop\n      pop\n      pop\n      pop\n      pop\n      pop\n      pop\n      dup2\n      mstore\n      0x20\n      add\n        /* \"contracts/project.sol\":789:801  _description */\n      dup6\n      dup6\n        /* \"contracts/project.sol\":769:847  Project(_id, _name, _description, _goal, payable(msg.sender), 0, State.Opened) */\n      dup1\n      dup1\n      0x1f\n      add\n      0x20\n      dup1\n      swap2\n      div\n      mul\n      0x20\n      add\n      mload(0x40)\n      swap1\n      dup2\n      add\n      0x40\n      mstore\n      dup1\n      swap4\n      swap3\n      swap2\n      swap1\n      dup2\n      dup2\n      mstore\n      0x20\n      add\n      dup4\n      dup4\n      dup1\n      dup3\n      dup5\n      calldatacopy\n      0x00\n      dup2\n      dup5\n      add\n      mstore\n      not(0x1f)\n      0x1f\n      dup3\n      add\n      and\n      swap1\n      pop\n      dup1\n      dup4\n      add\n      swap3\n      pop\n      pop\n      pop\n      pop\n      pop\n      pop\n      pop\n      dup2\n      mstore\n      0x20\n      add\n        /* \"contracts/project.sol\":803:808  _goal */\n      dup4\n        /* \"contracts/project.sol\":769:847  Project(_id, _name, _description, _goal, payable(msg.sender), 0, State.Opened) */\n      dup2\n      mstore\n      0x20\n      add\n        /* \"contracts/project.sol\":818:828  msg.sender */\n      caller\n        /* \"contracts/project.sol\":769:847  Project(_id, _name, _description, _goal, payable(msg.sender), 0, State.Opened) */\n      0xffffffffffffffffffffffffffffffffffffffff\n      and\n      dup2\n      mstore\n      0x20\n      add\n        /* \"contracts/project.sol\":831:832  0 */\n      0x00\n        /* \"contracts/project.sol\":769:847  Project(_id, _name, _description, _goal, payable(msg.sender), 0, State.Opened) */\n      dup2\n      mstore\n      0x20\n      add\n        /* \"contracts/project.sol\":834:846  State.Opened */\n      0x00\n        /* \"contracts/project.sol\":769:847  Project(_id, _name, _description, _goal, payable(msg.sender), 0, State.Opened) */\n      0x01\n      dup2\n      gt\n      iszero\n      tag_113\n      jumpi\n      tag_114\n      tag_81\n      jump\t// in\n    tag_114:\n    tag_113:\n      dup2\n      mstore\n      pop\n        /* \"contracts/project.sol\":744:847  Project memory project = Project(_id, _name, _description, _goal, payable(msg.sender), 0, State.Opened) */\n      swap1\n      pop\n        /* \"contracts/project.sol\":858:866  projects */\n      0x00\n        /* \"contracts/project.sol\":872:879  project */\n      dup2\n        /* \"contracts/project.sol\":858:880  projects.push(project) */\n      swap1\n      dup1\n      0x01\n      dup2\n      sload\n      add\n      dup1\n      dup3\n      sstore\n      dup1\n      swap2\n      pop\n      pop\n      0x01\n      swap1\n      sub\n      swap1\n      0x00\n      mstore\n      keccak256(0x00, 0x20)\n      swap1\n      0x07\n      mul\n      add\n      0x00\n      swap1\n      swap2\n      swap1\n      swap2\n      swap1\n      swap2\n      pop\n      0x00\n      dup3\n      add\n      mload\n      dup2\n      0x00\n      add\n      swap1\n      dup1\n      mload\n      swap1\n      0x20\n      add\n      swap1\n      tag_116\n      swap3\n      swap2\n      swap1\n      tag_99\n      jump\t// in\n    tag_116:\n      pop\n      0x20\n      dup3\n      add\n      mload\n      dup2\n      0x01\n      add\n      swap1\n      dup1\n      mload\n      swap1\n      0x20\n      add\n      swap1\n      tag_117\n      swap3\n      swap2\n      swap1\n      tag_99\n      jump\t// in\n    tag_117:\n      pop\n      0x40\n      dup3\n      add\n      mload\n      dup2\n      0x02\n      add\n      swap1\n      dup1\n      mload\n      swap1\n      0x20\n      add\n      swap1\n      tag_118\n      swap3\n      swap2\n      swap1\n      tag_99\n      jump\t// in\n    tag_118:\n      pop\n      0x60\n      dup3\n      add\n      mload\n      dup2\n      0x03\n      add\n      sstore\n      0x80\n      dup3\n      add\n      mload\n      dup2\n      0x04\n      add\n      exp(0x0100, 0x00)\n      dup2\n      sload\n      dup2\n      0xffffffffffffffffffffffffffffffffffffffff\n      mul\n      not\n      and\n      swap1\n      dup4\n      0xffffffffffffffffffffffffffffffffffffffff\n      and\n      mul\n      or\n      swap1\n      sstore\n      pop\n      0xa0\n      dup3\n      add\n      mload\n      dup2\n      0x05\n      add\n      sstore\n      0xc0\n      dup3\n      add\n      mload\n      dup2\n      0x06\n      add\n      exp(0x0100, 0x00)\n      dup2\n      sload\n      dup2\n      0xff\n      mul\n      not\n      and\n      swap1\n      dup4\n      0x01\n      dup2\n      gt\n      iszero\n      tag_119\n      jumpi\n      tag_120\n      tag_81\n      jump\t// in\n    tag_120:\n    tag_119:\n      mul\n      or\n      swap1\n      sstore\n      pop\n      pop\n      pop\n        /* \"contracts/project.sol\":896:945  createProjectLog(_id, _name, _description, _goal) */\n      0x95df29175008deb1f139c97a80ab29ee4f48d3bece10e0dc24beea55367aedff\n        /* \"contracts/project.sol\":913:916  _id */\n      dup9\n      dup9\n        /* \"contracts/project.sol\":918:923  _name */\n      dup9\n      dup9\n        /* \"contracts/project.sol\":925:937  _description */\n      dup9\n      dup9\n        /* \"contracts/project.sol\":939:944  _goal */\n      dup9\n        /* \"contracts/project.sol\":896:945  createProjectLog(_id, _name, _description, _goal) */\n      mload(0x40)\n      tag_121\n      swap8\n      swap7\n      swap6\n      swap5\n      swap4\n      swap3\n      swap2\n      swap1\n      tag_122\n      jump\t// in\n    tag_121:\n      mload(0x40)\n      dup1\n      swap2\n      sub\n      swap1\n      log1\n        /* \"contracts/project.sol\":661:953  {\r... */\n      pop\n        /* \"contracts/project.sol\":545:953  function createProject(string calldata _id, string calldata _name, string calldata _description, uint _goal) public {\r... */\n      pop\n      pop\n      pop\n      pop\n      pop\n      pop\n      pop\n      jump\t// out\n        /* \"contracts/project.sol\":961:1498  function fundProject(uint projectIndex) public payable isNotAuthor(projectIndex) {\r... */\n    tag_26:\n        /* \"contracts/project.sol\":1028:1040  projectIndex */\n      dup1\n        /* \"contracts/project.sol\":2153:2161  projects */\n      0x00\n        /* \"contracts/project.sol\":2162:2174  projectIndex */\n      dup2\n        /* \"contracts/project.sol\":2153:2175  projects[projectIndex] */\n      dup2\n      sload\n      dup2\n      lt\n      tag_124\n      jumpi\n      tag_125\n      tag_55\n      jump\t// in\n    tag_125:\n    tag_124:\n      swap1\n      0x00\n      mstore\n      keccak256(0x00, 0x20)\n      swap1\n      0x07\n      mul\n      add\n        /* \"contracts/project.sol\":2153:2182  projects[projectIndex].author */\n      0x04\n      add\n      0x00\n      swap1\n      sload\n      swap1\n      0x0100\n      exp\n      swap1\n      div\n      0xffffffffffffffffffffffffffffffffffffffff\n      and\n        /* \"contracts/project.sol\":2139:2182  msg.sender != projects[projectIndex].author */\n      0xffffffffffffffffffffffffffffffffffffffff\n      and\n        /* \"contracts/project.sol\":2139:2149  msg.sender */\n      caller\n        /* \"contracts/project.sol\":2139:2182  msg.sender != projects[projectIndex].author */\n      0xffffffffffffffffffffffffffffffffffffffff\n      and\n      eq\n      iszero\n        /* \"contracts/project.sol\":2131:2221  require(msg.sender != projects[projectIndex].author, 'The author cannot fund the project') */\n      tag_127\n      jumpi\n      mload(0x40)\n      0x08c379a000000000000000000000000000000000000000000000000000000000\n      dup2\n      mstore\n      0x04\n      add\n      tag_128\n      swap1\n      tag_129\n      jump\t// in\n    tag_128:\n      mload(0x40)\n      dup1\n      swap2\n      sub\n      swap1\n      revert\n    tag_127:\n        /* \"contracts/project.sol\":1093:1105  State.Closed */\n      0x01\n        /* \"contracts/project.sol\":1061:1105  projects[projectIndex].state != State.Closed */\n      dup1\n      dup2\n      gt\n      iszero\n      tag_131\n      jumpi\n      tag_132\n      tag_81\n      jump\t// in\n    tag_132:\n    tag_131:\n        /* \"contracts/project.sol\":1061:1069  projects */\n      0x00\n        /* \"contracts/project.sol\":1070:1082  projectIndex */\n      dup4\n        /* \"contracts/project.sol\":1061:1083  projects[projectIndex] */\n      dup2\n      sload\n      dup2\n      lt\n      tag_133\n      jumpi\n      tag_134\n      tag_55\n      jump\t// in\n    tag_134:\n    tag_133:\n      swap1\n      0x00\n      mstore\n      keccak256(0x00, 0x20)\n      swap1\n      0x07\n      mul\n      add\n        /* \"contracts/project.sol\":1061:1089  projects[projectIndex].state */\n      0x06\n      add\n      0x00\n      swap1\n      sload\n      swap1\n      0x0100\n      exp\n      swap1\n      div\n      0xff\n      and\n        /* \"contracts/project.sol\":1061:1105  projects[projectIndex].state != State.Closed */\n      0x01\n      dup2\n      gt\n      iszero\n      tag_136\n      jumpi\n      tag_137\n      tag_81\n      jump\t// in\n    tag_137:\n    tag_136:\n      eq\n      iszero\n        /* \"contracts/project.sol\":1053:1146  require(projects[projectIndex].state != State.Closed, 'The funding of the project is closed') */\n      tag_138\n      jumpi\n      mload(0x40)\n      0x08c379a000000000000000000000000000000000000000000000000000000000\n      dup2\n      mstore\n      0x04\n      add\n      tag_139\n      swap1\n      tag_140\n      jump\t// in\n    tag_139:\n      mload(0x40)\n      dup1\n      swap2\n      sub\n      swap1\n      revert\n    tag_138:\n        /* \"contracts/project.sol\":1177:1178  0 */\n      0x00\n        /* \"contracts/project.sol\":1165:1174  msg.value */\n      callvalue\n        /* \"contracts/project.sol\":1165:1178  msg.value > 0 */\n      gt\n        /* \"contracts/project.sol\":1157:1217  require(msg.value > 0, 'fundraising must be greater than 0') */\n      tag_141\n      jumpi\n      mload(0x40)\n      0x08c379a000000000000000000000000000000000000000000000000000000000\n      dup2\n      mstore\n      0x04\n      add\n      tag_142\n      swap1\n      tag_143\n      jump\t// in\n    tag_142:\n      mload(0x40)\n      dup1\n      swap2\n      sub\n      swap1\n      revert\n    tag_141:\n        /* \"contracts/project.sol\":1228:1236  projects */\n      0x00\n        /* \"contracts/project.sol\":1237:1249  projectIndex */\n      dup3\n        /* \"contracts/project.sol\":1228:1250  projects[projectIndex] */\n      dup2\n      sload\n      dup2\n      lt\n      tag_144\n      jumpi\n      tag_145\n      tag_55\n      jump\t// in\n    tag_145:\n    tag_144:\n      swap1\n      0x00\n      mstore\n      keccak256(0x00, 0x20)\n      swap1\n      0x07\n      mul\n      add\n        /* \"contracts/project.sol\":1228:1257  projects[projectIndex].author */\n      0x04\n      add\n      0x00\n      swap1\n      sload\n      swap1\n      0x0100\n      exp\n      swap1\n      div\n      0xffffffffffffffffffffffffffffffffffffffff\n      and\n        /* \"contracts/project.sol\":1228:1266  projects[projectIndex].author.transfer */\n      0xffffffffffffffffffffffffffffffffffffffff\n      and\n        /* \"contracts/project.sol\":1228:1277  projects[projectIndex].author.transfer(msg.value) */\n      0x08fc\n        /* \"contracts/project.sol\":1267:1276  msg.value */\n      callvalue\n        /* \"contracts/project.sol\":1228:1277  projects[projectIndex].author.transfer(msg.value) */\n      swap1\n      dup2\n      iszero\n      mul\n      swap1\n      mload(0x40)\n      0x00\n      mload(0x40)\n      dup1\n      dup4\n      sub\n      dup2\n      dup6\n      dup9\n      dup9\n      call\n      swap4\n      pop\n      pop\n      pop\n      pop\n      iszero\n      dup1\n      iszero\n      tag_148\n      jumpi\n      returndatasize\n      0x00\n      dup1\n      returndatacopy\n      revert(0x00, returndatasize)\n    tag_148:\n      pop\n        /* \"contracts/project.sol\":1320:1329  msg.value */\n      callvalue\n        /* \"contracts/project.sol\":1288:1296  projects */\n      0x00\n        /* \"contracts/project.sol\":1297:1309  projectIndex */\n      dup4\n        /* \"contracts/project.sol\":1288:1310  projects[projectIndex] */\n      dup2\n      sload\n      dup2\n      lt\n      tag_149\n      jumpi\n      tag_150\n      tag_55\n      jump\t// in\n    tag_150:\n    tag_149:\n      swap1\n      0x00\n      mstore\n      keccak256(0x00, 0x20)\n      swap1\n      0x07\n      mul\n      add\n        /* \"contracts/project.sol\":1288:1316  projects[projectIndex].funds */\n      0x05\n      add\n      0x00\n        /* \"contracts/project.sol\":1288:1329  projects[projectIndex].funds += msg.value */\n      dup3\n      dup3\n      sload\n      tag_152\n      swap2\n      swap1\n      tag_153\n      jump\t// in\n    tag_152:\n      swap3\n      pop\n      pop\n      dup2\n      swap1\n      sstore\n      pop\n        /* \"contracts/project.sol\":1340:1353  contributions */\n      0x01\n        /* \"contracts/project.sol\":1354:1362  projects */\n      0x00\n        /* \"contracts/project.sol\":1363:1375  projectIndex */\n      dup4\n        /* \"contracts/project.sol\":1354:1376  projects[projectIndex] */\n      dup2\n      sload\n      dup2\n      lt\n      tag_154\n      jumpi\n      tag_155\n      tag_55\n      jump\t// in\n    tag_155:\n    tag_154:\n      swap1\n      0x00\n      mstore\n      keccak256(0x00, 0x20)\n      swap1\n      0x07\n      mul\n      add\n        /* \"contracts/project.sol\":1354:1379  projects[projectIndex].id */\n      0x00\n      add\n        /* \"contracts/project.sol\":1340:1380  contributions[projects[projectIndex].id] */\n      mload(0x40)\n      tag_157\n      swap2\n      swap1\n      tag_158\n      jump\t// in\n    tag_157:\n      swap1\n      dup2\n      mstore\n      0x20\n      add\n      mload(0x40)\n      dup1\n      swap2\n      sub\n      swap1\n      keccak256\n        /* \"contracts/project.sol\":1386:1421  Contribution(msg.sender, msg.value) */\n      mload(0x40)\n      dup1\n      0x40\n      add\n      0x40\n      mstore\n      dup1\n        /* \"contracts/project.sol\":1399:1409  msg.sender */\n      caller\n        /* \"contracts/project.sol\":1386:1421  Contribution(msg.sender, msg.value) */\n      0xffffffffffffffffffffffffffffffffffffffff\n      and\n      dup2\n      mstore\n      0x20\n      add\n        /* \"contracts/project.sol\":1411:1420  msg.value */\n      callvalue\n        /* \"contracts/project.sol\":1386:1421  Contribution(msg.sender, msg.value) */\n      dup2\n      mstore\n      pop\n        /* \"contracts/project.sol\":1340:1422  contributions[projects[projectIndex].id].push(Contribution(msg.sender, msg.value)) */\n      swap1\n      dup1\n      0x01\n      dup2\n      sload\n      add\n      dup1\n      dup3\n      sstore\n      dup1\n      swap2\n      pop\n      pop\n      0x01\n      swap1\n      sub\n      swap1\n      0x00\n      mstore\n      keccak256(0x00, 0x20)\n      swap1\n      0x02\n      mul\n      add\n      0x00\n      swap1\n      swap2\n      swap1\n      swap2\n      swap1\n      swap2\n      pop\n      0x00\n      dup3\n      add\n      mload\n      dup2\n      0x00\n      add\n      exp(0x0100, 0x00)\n      dup2\n      sload\n      dup2\n      0xffffffffffffffffffffffffffffffffffffffff\n      mul\n      not\n      and\n      swap1\n      dup4\n      0xffffffffffffffffffffffffffffffffffffffff\n      and\n      mul\n      or\n      swap1\n      sstore\n      pop\n      0x20\n      dup3\n      add\n      mload\n      dup2\n      0x01\n      add\n      sstore\n      pop\n      pop\n        /* \"contracts/project.sol\":1438:1490  fundProjectLog(projects[projectIndex].id, msg.value) */\n      0x98a99e594dc0943c255bf9563ae2c4da6ffcfd06f78b396b88988548ac825ba8\n        /* \"contracts/project.sol\":1453:1461  projects */\n      0x00\n        /* \"contracts/project.sol\":1462:1474  projectIndex */\n      dup4\n        /* \"contracts/project.sol\":1453:1475  projects[projectIndex] */\n      dup2\n      sload\n      dup2\n      lt\n      tag_160\n      jumpi\n      tag_161\n      tag_55\n      jump\t// in\n    tag_161:\n    tag_160:\n      swap1\n      0x00\n      mstore\n      keccak256(0x00, 0x20)\n      swap1\n      0x07\n      mul\n      add\n        /* \"contracts/project.sol\":1453:1478  projects[projectIndex].id */\n      0x00\n      add\n        /* \"contracts/project.sol\":1480:1489  msg.value */\n      callvalue\n        /* \"contracts/project.sol\":1438:1490  fundProjectLog(projects[projectIndex].id, msg.value) */\n      mload(0x40)\n      tag_163\n      swap3\n      swap2\n      swap1\n      tag_164\n      jump\t// in\n    tag_163:\n      mload(0x40)\n      dup1\n      swap2\n      sub\n      swap1\n      log1\n        /* \"contracts/project.sol\":961:1498  function fundProject(uint projectIndex) public payable isNotAuthor(projectIndex) {\r... */\n      pop\n      pop\n      jump\t// out\n        /* \"contracts/project.sol\":482:536  mapping(string => Contribution[]) public contributions */\n    tag_31:\n      0x01\n      dup3\n      dup1\n      mload\n      0x20\n      dup2\n      add\n      dup3\n      add\n      dup1\n      mload\n      dup5\n      dup3\n      mstore\n      0x20\n      dup4\n      add\n      0x20\n      dup6\n      add\n      keccak256\n      dup2\n      dup4\n      mstore\n      dup1\n      swap6\n      pop\n      pop\n      pop\n      pop\n      pop\n      pop\n      dup2\n      dup2\n      sload\n      dup2\n      lt\n      tag_165\n      jumpi\n      0x00\n      dup1\n      revert\n    tag_165:\n      swap1\n      0x00\n      mstore\n      keccak256(0x00, 0x20)\n      swap1\n      0x02\n      mul\n      add\n      0x00\n      swap2\n      pop\n      swap2\n      pop\n      pop\n      dup1\n      0x00\n      add\n      0x00\n      swap1\n      sload\n      swap1\n      0x0100\n      exp\n      swap1\n      div\n      0xffffffffffffffffffffffffffffffffffffffff\n      and\n      swap1\n      dup1\n      0x01\n      add\n      sload\n      swap1\n      pop\n      dup3\n      jump\t// out\n    tag_99:\n      dup3\n      dup1\n      sload\n      tag_167\n      swap1\n      tag_37\n      jump\t// in\n    tag_167:\n      swap1\n      0x00\n      mstore\n      keccak256(0x00, 0x20)\n      swap1\n      0x1f\n      add\n      0x20\n      swap1\n      div\n      dup2\n      add\n      swap3\n      dup3\n      tag_169\n      jumpi\n      0x00\n      dup6\n      sstore\n      jump(tag_168)\n    tag_169:\n      dup3\n      0x1f\n      lt\n      tag_170\n      jumpi\n      dup1\n      mload\n      not(0xff)\n      and\n      dup4\n      dup1\n      add\n      or\n      dup6\n      sstore\n      jump(tag_168)\n    tag_170:\n      dup3\n      dup1\n      add\n      0x01\n      add\n      dup6\n      sstore\n      dup3\n      iszero\n      tag_168\n      jumpi\n      swap2\n      dup3\n      add\n    tag_171:\n      dup3\n      dup2\n      gt\n      iszero\n      tag_172\n      jumpi\n      dup3\n      mload\n      dup3\n      sstore\n      swap2\n      0x20\n      add\n      swap2\n      swap1\n      0x01\n      add\n      swap1\n      jump(tag_171)\n    tag_172:\n    tag_168:\n      pop\n      swap1\n      pop\n      tag_173\n      swap2\n      swap1\n      tag_174\n      jump\t// in\n    tag_173:\n      pop\n      swap1\n      jump\t// out\n    tag_174:\n    tag_175:\n      dup1\n      dup3\n      gt\n      iszero\n      tag_176\n      jumpi\n      0x00\n      dup2\n      0x00\n      swap1\n      sstore\n      pop\n      0x01\n      add\n      jump(tag_175)\n    tag_176:\n      pop\n      swap1\n      jump\t// out\n        /* \"#utility.yul\":7:419   */\n    tag_178:\n        /* \"#utility.yul\":85:90   */\n      0x00\n        /* \"#utility.yul\":110:176   */\n      tag_180\n        /* \"#utility.yul\":126:175   */\n      tag_181\n        /* \"#utility.yul\":168:174   */\n      dup5\n        /* \"#utility.yul\":126:175   */\n      tag_182\n      jump\t// in\n    tag_181:\n        /* \"#utility.yul\":110:176   */\n      tag_183\n      jump\t// in\n    tag_180:\n        /* \"#utility.yul\":101:176   */\n      swap1\n      pop\n        /* \"#utility.yul\":199:205   */\n      dup3\n        /* \"#utility.yul\":192:197   */\n      dup2\n        /* \"#utility.yul\":185:206   */\n      mstore\n        /* \"#utility.yul\":237:241   */\n      0x20\n        /* \"#utility.yul\":230:235   */\n      dup2\n        /* \"#utility.yul\":226:242   */\n      add\n        /* \"#utility.yul\":275:278   */\n      dup5\n        /* \"#utility.yul\":266:272   */\n      dup5\n        /* \"#utility.yul\":261:264   */\n      dup5\n        /* \"#utility.yul\":257:273   */\n      add\n        /* \"#utility.yul\":254:279   */\n      gt\n        /* \"#utility.yul\":251:363   */\n      iszero\n      tag_184\n      jumpi\n        /* \"#utility.yul\":282:361   */\n      tag_185\n      tag_186\n      jump\t// in\n    tag_185:\n        /* \"#utility.yul\":251:363   */\n    tag_184:\n        /* \"#utility.yul\":372:413   */\n      tag_187\n        /* \"#utility.yul\":406:412   */\n      dup5\n        /* \"#utility.yul\":401:404   */\n      dup3\n        /* \"#utility.yul\":396:399   */\n      dup6\n        /* \"#utility.yul\":372:413   */\n      tag_188\n      jump\t// in\n    tag_187:\n        /* \"#utility.yul\":91:419   */\n      pop\n        /* \"#utility.yul\":7:419   */\n      swap4\n      swap3\n      pop\n      pop\n      pop\n      jump\t// out\n        /* \"#utility.yul\":425:578   */\n    tag_189:\n        /* \"#utility.yul\":478:483   */\n      0x00\n        /* \"#utility.yul\":516:522   */\n      dup2\n        /* \"#utility.yul\":503:523   */\n      calldataload\n        /* \"#utility.yul\":494:523   */\n      swap1\n      pop\n        /* \"#utility.yul\":532:572   */\n      tag_191\n        /* \"#utility.yul\":566:571   */\n      dup2\n        /* \"#utility.yul\":532:572   */\n      tag_192\n      jump\t// in\n    tag_191:\n        /* \"#utility.yul\":425:578   */\n      swap3\n      swap2\n      pop\n      pop\n      jump\t// out\n        /* \"#utility.yul\":598:1151   */\n    tag_193:\n        /* \"#utility.yul\":656:664   */\n      0x00\n        /* \"#utility.yul\":666:672   */\n      dup1\n        /* \"#utility.yul\":716:719   */\n      dup4\n        /* \"#utility.yul\":709:713   */\n      0x1f\n        /* \"#utility.yul\":701:707   */\n      dup5\n        /* \"#utility.yul\":697:714   */\n      add\n        /* \"#utility.yul\":693:720   */\n      slt\n        /* \"#utility.yul\":683:805   */\n      tag_195\n      jumpi\n        /* \"#utility.yul\":724:803   */\n      tag_196\n      tag_197\n      jump\t// in\n    tag_196:\n        /* \"#utility.yul\":683:805   */\n    tag_195:\n        /* \"#utility.yul\":837:843   */\n      dup3\n        /* \"#utility.yul\":824:844   */\n      calldataload\n        /* \"#utility.yul\":814:844   */\n      swap1\n      pop\n        /* \"#utility.yul\":867:885   */\n      0xffffffffffffffff\n        /* \"#utility.yul\":859:865   */\n      dup2\n        /* \"#utility.yul\":856:886   */\n      gt\n        /* \"#utility.yul\":853:970   */\n      iszero\n      tag_198\n      jumpi\n        /* \"#utility.yul\":889:968   */\n      tag_199\n      tag_200\n      jump\t// in\n    tag_199:\n        /* \"#utility.yul\":853:970   */\n    tag_198:\n        /* \"#utility.yul\":1003:1007   */\n      0x20\n        /* \"#utility.yul\":995:1001   */\n      dup4\n        /* \"#utility.yul\":991:1008   */\n      add\n        /* \"#utility.yul\":979:1008   */\n      swap2\n      pop\n        /* \"#utility.yul\":1057:1060   */\n      dup4\n        /* \"#utility.yul\":1049:1053   */\n      0x01\n        /* \"#utility.yul\":1041:1047   */\n      dup3\n        /* \"#utility.yul\":1037:1054   */\n      mul\n        /* \"#utility.yul\":1027:1035   */\n      dup4\n        /* \"#utility.yul\":1023:1055   */\n      add\n        /* \"#utility.yul\":1020:1061   */\n      gt\n        /* \"#utility.yul\":1017:1145   */\n      iszero\n      tag_201\n      jumpi\n        /* \"#utility.yul\":1064:1143   */\n      tag_202\n      tag_203\n      jump\t// in\n    tag_202:\n        /* \"#utility.yul\":1017:1145   */\n    tag_201:\n        /* \"#utility.yul\":598:1151   */\n      swap3\n      pop\n      swap3\n      swap1\n      pop\n      jump\t// out\n        /* \"#utility.yul\":1171:1511   */\n    tag_204:\n        /* \"#utility.yul\":1227:1232   */\n      0x00\n        /* \"#utility.yul\":1276:1279   */\n      dup3\n        /* \"#utility.yul\":1269:1273   */\n      0x1f\n        /* \"#utility.yul\":1261:1267   */\n      dup4\n        /* \"#utility.yul\":1257:1274   */\n      add\n        /* \"#utility.yul\":1253:1280   */\n      slt\n        /* \"#utility.yul\":1243:1365   */\n      tag_206\n      jumpi\n        /* \"#utility.yul\":1284:1363   */\n      tag_207\n      tag_197\n      jump\t// in\n    tag_207:\n        /* \"#utility.yul\":1243:1365   */\n    tag_206:\n        /* \"#utility.yul\":1401:1407   */\n      dup2\n        /* \"#utility.yul\":1388:1408   */\n      calldataload\n        /* \"#utility.yul\":1426:1505   */\n      tag_208\n        /* \"#utility.yul\":1501:1504   */\n      dup5\n        /* \"#utility.yul\":1493:1499   */\n      dup3\n        /* \"#utility.yul\":1486:1490   */\n      0x20\n        /* \"#utility.yul\":1478:1484   */\n      dup7\n        /* \"#utility.yul\":1474:1491   */\n      add\n        /* \"#utility.yul\":1426:1505   */\n      tag_178\n      jump\t// in\n    tag_208:\n        /* \"#utility.yul\":1417:1505   */\n      swap2\n      pop\n        /* \"#utility.yul\":1233:1511   */\n      pop\n        /* \"#utility.yul\":1171:1511   */\n      swap3\n      swap2\n      pop\n      pop\n      jump\t// out\n        /* \"#utility.yul\":1517:1656   */\n    tag_209:\n        /* \"#utility.yul\":1563:1568   */\n      0x00\n        /* \"#utility.yul\":1601:1607   */\n      dup2\n        /* \"#utility.yul\":1588:1608   */\n      calldataload\n        /* \"#utility.yul\":1579:1608   */\n      swap1\n      pop\n        /* \"#utility.yul\":1617:1650   */\n      tag_211\n        /* \"#utility.yul\":1644:1649   */\n      dup2\n        /* \"#utility.yul\":1617:1650   */\n      tag_212\n      jump\t// in\n    tag_211:\n        /* \"#utility.yul\":1517:1656   */\n      swap3\n      swap2\n      pop\n      pop\n      jump\t// out\n        /* \"#utility.yul\":1662:3027   */\n    tag_22:\n        /* \"#utility.yul\":1784:1790   */\n      0x00\n        /* \"#utility.yul\":1792:1798   */\n      dup1\n        /* \"#utility.yul\":1800:1806   */\n      0x00\n        /* \"#utility.yul\":1808:1814   */\n      dup1\n        /* \"#utility.yul\":1816:1822   */\n      0x00\n        /* \"#utility.yul\":1824:1830   */\n      dup1\n        /* \"#utility.yul\":1832:1838   */\n      0x00\n        /* \"#utility.yul\":1881:1884   */\n      0x80\n        /* \"#utility.yul\":1869:1878   */\n      dup9\n        /* \"#utility.yul\":1860:1867   */\n      dup11\n        /* \"#utility.yul\":1856:1879   */\n      sub\n        /* \"#utility.yul\":1852:1885   */\n      slt\n        /* \"#utility.yul\":1849:1969   */\n      iszero\n      tag_214\n      jumpi\n        /* \"#utility.yul\":1888:1967   */\n      tag_215\n      tag_216\n      jump\t// in\n    tag_215:\n        /* \"#utility.yul\":1849:1969   */\n    tag_214:\n        /* \"#utility.yul\":2036:2037   */\n      0x00\n        /* \"#utility.yul\":2025:2034   */\n      dup9\n        /* \"#utility.yul\":2021:2038   */\n      add\n        /* \"#utility.yul\":2008:2039   */\n      calldataload\n        /* \"#utility.yul\":2066:2084   */\n      0xffffffffffffffff\n        /* \"#utility.yul\":2058:2064   */\n      dup2\n        /* \"#utility.yul\":2055:2085   */\n      gt\n        /* \"#utility.yul\":2052:2169   */\n      iszero\n      tag_217\n      jumpi\n        /* \"#utility.yul\":2088:2167   */\n      tag_218\n      tag_219\n      jump\t// in\n    tag_218:\n        /* \"#utility.yul\":2052:2169   */\n    tag_217:\n        /* \"#utility.yul\":2201:2266   */\n      tag_220\n        /* \"#utility.yul\":2258:2265   */\n      dup11\n        /* \"#utility.yul\":2249:2255   */\n      dup3\n        /* \"#utility.yul\":2238:2247   */\n      dup12\n        /* \"#utility.yul\":2234:2256   */\n      add\n        /* \"#utility.yul\":2201:2266   */\n      tag_193\n      jump\t// in\n    tag_220:\n        /* \"#utility.yul\":2183:2266   */\n      swap8\n      pop\n      swap8\n      pop\n        /* \"#utility.yul\":1979:2276   */\n      pop\n        /* \"#utility.yul\":2343:2345   */\n      0x20\n        /* \"#utility.yul\":2332:2341   */\n      dup9\n        /* \"#utility.yul\":2328:2346   */\n      add\n        /* \"#utility.yul\":2315:2347   */\n      calldataload\n        /* \"#utility.yul\":2374:2392   */\n      0xffffffffffffffff\n        /* \"#utility.yul\":2366:2372   */\n      dup2\n        /* \"#utility.yul\":2363:2393   */\n      gt\n        /* \"#utility.yul\":2360:2477   */\n      iszero\n      tag_221\n      jumpi\n        /* \"#utility.yul\":2396:2475   */\n      tag_222\n      tag_219\n      jump\t// in\n    tag_222:\n        /* \"#utility.yul\":2360:2477   */\n    tag_221:\n        /* \"#utility.yul\":2509:2574   */\n      tag_223\n        /* \"#utility.yul\":2566:2573   */\n      dup11\n        /* \"#utility.yul\":2557:2563   */\n      dup3\n        /* \"#utility.yul\":2546:2555   */\n      dup12\n        /* \"#utility.yul\":2542:2564   */\n      add\n        /* \"#utility.yul\":2509:2574   */\n      tag_193\n      jump\t// in\n    tag_223:\n        /* \"#utility.yul\":2491:2574   */\n      swap6\n      pop\n      swap6\n      pop\n        /* \"#utility.yul\":2286:2584   */\n      pop\n        /* \"#utility.yul\":2651:2653   */\n      0x40\n        /* \"#utility.yul\":2640:2649   */\n      dup9\n        /* \"#utility.yul\":2636:2654   */\n      add\n        /* \"#utility.yul\":2623:2655   */\n      calldataload\n        /* \"#utility.yul\":2682:2700   */\n      0xffffffffffffffff\n        /* \"#utility.yul\":2674:2680   */\n      dup2\n        /* \"#utility.yul\":2671:2701   */\n      gt\n        /* \"#utility.yul\":2668:2785   */\n      iszero\n      tag_224\n      jumpi\n        /* \"#utility.yul\":2704:2783   */\n      tag_225\n      tag_219\n      jump\t// in\n    tag_225:\n        /* \"#utility.yul\":2668:2785   */\n    tag_224:\n        /* \"#utility.yul\":2817:2882   */\n      tag_226\n        /* \"#utility.yul\":2874:2881   */\n      dup11\n        /* \"#utility.yul\":2865:2871   */\n      dup3\n        /* \"#utility.yul\":2854:2863   */\n      dup12\n        /* \"#utility.yul\":2850:2872   */\n      add\n        /* \"#utility.yul\":2817:2882   */\n      tag_193\n      jump\t// in\n    tag_226:\n        /* \"#utility.yul\":2799:2882   */\n      swap4\n      pop\n      swap4\n      pop\n        /* \"#utility.yul\":2594:2892   */\n      pop\n        /* \"#utility.yul\":2931:2933   */\n      0x60\n        /* \"#utility.yul\":2957:3010   */\n      tag_227\n        /* \"#utility.yul\":3002:3009   */\n      dup11\n        /* \"#utility.yul\":2993:2999   */\n      dup3\n        /* \"#utility.yul\":2982:2991   */\n      dup12\n        /* \"#utility.yul\":2978:3000   */\n      add\n        /* \"#utility.yul\":2957:3010   */\n      tag_209\n      jump\t// in\n    tag_227:\n        /* \"#utility.yul\":2947:3010   */\n      swap2\n      pop\n        /* \"#utility.yul\":2902:3020   */\n      pop\n        /* \"#utility.yul\":1662:3027   */\n      swap3\n      swap6\n      swap9\n      swap2\n      swap5\n      swap8\n      pop\n      swap3\n      swap6\n      pop\n      jump\t// out\n        /* \"#utility.yul\":3033:3687   */\n    tag_30:\n        /* \"#utility.yul\":3111:3117   */\n      0x00\n        /* \"#utility.yul\":3119:3125   */\n      dup1\n        /* \"#utility.yul\":3168:3170   */\n      0x40\n        /* \"#utility.yul\":3156:3165   */\n      dup4\n        /* \"#utility.yul\":3147:3154   */\n      dup6\n        /* \"#utility.yul\":3143:3166   */\n      sub\n        /* \"#utility.yul\":3139:3171   */\n      slt\n        /* \"#utility.yul\":3136:3255   */\n      iszero\n      tag_229\n      jumpi\n        /* \"#utility.yul\":3174:3253   */\n      tag_230\n      tag_216\n      jump\t// in\n    tag_230:\n        /* \"#utility.yul\":3136:3255   */\n    tag_229:\n        /* \"#utility.yul\":3322:3323   */\n      0x00\n        /* \"#utility.yul\":3311:3320   */\n      dup4\n        /* \"#utility.yul\":3307:3324   */\n      add\n        /* \"#utility.yul\":3294:3325   */\n      calldataload\n        /* \"#utility.yul\":3352:3370   */\n      0xffffffffffffffff\n        /* \"#utility.yul\":3344:3350   */\n      dup2\n        /* \"#utility.yul\":3341:3371   */\n      gt\n        /* \"#utility.yul\":3338:3455   */\n      iszero\n      tag_231\n      jumpi\n        /* \"#utility.yul\":3374:3453   */\n      tag_232\n      tag_219\n      jump\t// in\n    tag_232:\n        /* \"#utility.yul\":3338:3455   */\n    tag_231:\n        /* \"#utility.yul\":3479:3542   */\n      tag_233\n        /* \"#utility.yul\":3534:3541   */\n      dup6\n        /* \"#utility.yul\":3525:3531   */\n      dup3\n        /* \"#utility.yul\":3514:3523   */\n      dup7\n        /* \"#utility.yul\":3510:3532   */\n      add\n        /* \"#utility.yul\":3479:3542   */\n      tag_204\n      jump\t// in\n    tag_233:\n        /* \"#utility.yul\":3469:3542   */\n      swap3\n      pop\n        /* \"#utility.yul\":3265:3552   */\n      pop\n        /* \"#utility.yul\":3591:3593   */\n      0x20\n        /* \"#utility.yul\":3617:3670   */\n      tag_234\n        /* \"#utility.yul\":3662:3669   */\n      dup6\n        /* \"#utility.yul\":3653:3659   */\n      dup3\n        /* \"#utility.yul\":3642:3651   */\n      dup7\n        /* \"#utility.yul\":3638:3660   */\n      add\n        /* \"#utility.yul\":3617:3670   */\n      tag_209\n      jump\t// in\n    tag_234:\n        /* \"#utility.yul\":3607:3670   */\n      swap2\n      pop\n        /* \"#utility.yul\":3562:3680   */\n      pop\n        /* \"#utility.yul\":3033:3687   */\n      swap3\n      pop\n      swap3\n      swap1\n      pop\n      jump\t// out\n        /* \"#utility.yul\":3693:4022   */\n    tag_10:\n        /* \"#utility.yul\":3752:3758   */\n      0x00\n        /* \"#utility.yul\":3801:3803   */\n      0x20\n        /* \"#utility.yul\":3789:3798   */\n      dup3\n        /* \"#utility.yul\":3780:3787   */\n      dup5\n        /* \"#utility.yul\":3776:3799   */\n      sub\n        /* \"#utility.yul\":3772:3804   */\n      slt\n        /* \"#utility.yul\":3769:3888   */\n      iszero\n      tag_236\n      jumpi\n        /* \"#utility.yul\":3807:3886   */\n      tag_237\n      tag_216\n      jump\t// in\n    tag_237:\n        /* \"#utility.yul\":3769:3888   */\n    tag_236:\n        /* \"#utility.yul\":3927:3928   */\n      0x00\n        /* \"#utility.yul\":3952:4005   */\n      tag_238\n        /* \"#utility.yul\":3997:4004   */\n      dup5\n        /* \"#utility.yul\":3988:3994   */\n      dup3\n        /* \"#utility.yul\":3977:3986   */\n      dup6\n        /* \"#utility.yul\":3973:3995   */\n      add\n        /* \"#utility.yul\":3952:4005   */\n      tag_209\n      jump\t// in\n    tag_238:\n        /* \"#utility.yul\":3942:4005   */\n      swap2\n      pop\n        /* \"#utility.yul\":3898:4015   */\n      pop\n        /* \"#utility.yul\":3693:4022   */\n      swap3\n      swap2\n      pop\n      pop\n      jump\t// out\n        /* \"#utility.yul\":4028:4516   */\n    tag_17:\n        /* \"#utility.yul\":4103:4109   */\n      0x00\n        /* \"#utility.yul\":4111:4117   */\n      dup1\n        /* \"#utility.yul\":4160:4162   */\n      0x40\n        /* \"#utility.yul\":4148:4157   */\n      dup4\n        /* \"#utility.yul\":4139:4146   */\n      dup6\n        /* \"#utility.yul\":4135:4158   */\n      sub\n        /* \"#utility.yul\":4131:4163   */\n      slt\n        /* \"#utility.yul\":4128:4247   */\n      iszero\n      tag_240\n      jumpi\n        /* \"#utility.yul\":4166:4245   */\n      tag_241\n      tag_216\n      jump\t// in\n    tag_241:\n        /* \"#utility.yul\":4128:4247   */\n    tag_240:\n        /* \"#utility.yul\":4286:4287   */\n      0x00\n        /* \"#utility.yul\":4311:4364   */\n      tag_242\n        /* \"#utility.yul\":4356:4363   */\n      dup6\n        /* \"#utility.yul\":4347:4353   */\n      dup3\n        /* \"#utility.yul\":4336:4345   */\n      dup7\n        /* \"#utility.yul\":4332:4354   */\n      add\n        /* \"#utility.yul\":4311:4364   */\n      tag_209\n      jump\t// in\n    tag_242:\n        /* \"#utility.yul\":4301:4364   */\n      swap3\n      pop\n        /* \"#utility.yul\":4257:4374   */\n      pop\n        /* \"#utility.yul\":4413:4415   */\n      0x20\n        /* \"#utility.yul\":4439:4499   */\n      tag_243\n        /* \"#utility.yul\":4491:4498   */\n      dup6\n        /* \"#utility.yul\":4482:4488   */\n      dup3\n        /* \"#utility.yul\":4471:4480   */\n      dup7\n        /* \"#utility.yul\":4467:4489   */\n      add\n        /* \"#utility.yul\":4439:4499   */\n      tag_189\n      jump\t// in\n    tag_243:\n        /* \"#utility.yul\":4429:4499   */\n      swap2\n      pop\n        /* \"#utility.yul\":4384:4509   */\n      pop\n        /* \"#utility.yul\":4028:4516   */\n      swap3\n      pop\n      swap3\n      swap1\n      pop\n      jump\t// out\n        /* \"#utility.yul\":4522:4664   */\n    tag_244:\n        /* \"#utility.yul\":4625:4657   */\n      tag_246\n        /* \"#utility.yul\":4651:4656   */\n      dup2\n        /* \"#utility.yul\":4625:4657   */\n      tag_247\n      jump\t// in\n    tag_246:\n        /* \"#utility.yul\":4620:4623   */\n      dup3\n        /* \"#utility.yul\":4613:4658   */\n      mstore\n        /* \"#utility.yul\":4522:4664   */\n      pop\n      pop\n      jump\t// out\n        /* \"#utility.yul\":4670:4788   */\n    tag_248:\n        /* \"#utility.yul\":4757:4781   */\n      tag_250\n        /* \"#utility.yul\":4775:4780   */\n      dup2\n        /* \"#utility.yul\":4757:4781   */\n      tag_251\n      jump\t// in\n    tag_250:\n        /* \"#utility.yul\":4752:4755   */\n      dup3\n        /* \"#utility.yul\":4745:4782   */\n      mstore\n        /* \"#utility.yul\":4670:4788   */\n      pop\n      pop\n      jump\t// out\n        /* \"#utility.yul\":4794:4935   */\n    tag_252:\n        /* \"#utility.yul\":4886:4928   */\n      tag_254\n        /* \"#utility.yul\":4922:4927   */\n      dup2\n        /* \"#utility.yul\":4886:4928   */\n      tag_255\n      jump\t// in\n    tag_254:\n        /* \"#utility.yul\":4881:4884   */\n      dup3\n        /* \"#utility.yul\":4874:4929   */\n      mstore\n        /* \"#utility.yul\":4794:4935   */\n      pop\n      pop\n      jump\t// out\n        /* \"#utility.yul\":4965:5269   */\n    tag_256:\n        /* \"#utility.yul\":5063:5066   */\n      0x00\n        /* \"#utility.yul\":5084:5155   */\n      tag_258\n        /* \"#utility.yul\":5148:5154   */\n      dup4\n        /* \"#utility.yul\":5143:5146   */\n      dup6\n        /* \"#utility.yul\":5084:5155   */\n      tag_259\n      jump\t// in\n    tag_258:\n        /* \"#utility.yul\":5077:5155   */\n      swap4\n      pop\n        /* \"#utility.yul\":5165:5208   */\n      tag_260\n        /* \"#utility.yul\":5201:5207   */\n      dup4\n        /* \"#utility.yul\":5196:5199   */\n      dup6\n        /* \"#utility.yul\":5189:5194   */\n      dup5\n        /* \"#utility.yul\":5165:5208   */\n      tag_188\n      jump\t// in\n    tag_260:\n        /* \"#utility.yul\":5233:5262   */\n      tag_261\n        /* \"#utility.yul\":5255:5261   */\n      dup4\n        /* \"#utility.yul\":5233:5262   */\n      tag_262\n      jump\t// in\n    tag_261:\n        /* \"#utility.yul\":5228:5231   */\n      dup5\n        /* \"#utility.yul\":5224:5263   */\n      add\n        /* \"#utility.yul\":5217:5263   */\n      swap1\n      pop\n        /* \"#utility.yul\":4965:5269   */\n      swap4\n      swap3\n      pop\n      pop\n      pop\n      jump\t// out\n        /* \"#utility.yul\":5275:5639   */\n    tag_263:\n        /* \"#utility.yul\":5363:5366   */\n      0x00\n        /* \"#utility.yul\":5391:5430   */\n      tag_265\n        /* \"#utility.yul\":5424:5429   */\n      dup3\n        /* \"#utility.yul\":5391:5430   */\n      tag_266\n      jump\t// in\n    tag_265:\n        /* \"#utility.yul\":5446:5517   */\n      tag_267\n        /* \"#utility.yul\":5510:5516   */\n      dup2\n        /* \"#utility.yul\":5505:5508   */\n      dup6\n        /* \"#utility.yul\":5446:5517   */\n      tag_259\n      jump\t// in\n    tag_267:\n        /* \"#utility.yul\":5439:5517   */\n      swap4\n      pop\n        /* \"#utility.yul\":5526:5578   */\n      tag_268\n        /* \"#utility.yul\":5571:5577   */\n      dup2\n        /* \"#utility.yul\":5566:5569   */\n      dup6\n        /* \"#utility.yul\":5559:5563   */\n      0x20\n        /* \"#utility.yul\":5552:5557   */\n      dup7\n        /* \"#utility.yul\":5548:5564   */\n      add\n        /* \"#utility.yul\":5526:5578   */\n      tag_269\n      jump\t// in\n    tag_268:\n        /* \"#utility.yul\":5603:5632   */\n      tag_270\n        /* \"#utility.yul\":5625:5631   */\n      dup2\n        /* \"#utility.yul\":5603:5632   */\n      tag_262\n      jump\t// in\n    tag_270:\n        /* \"#utility.yul\":5598:5601   */\n      dup5\n        /* \"#utility.yul\":5594:5633   */\n      add\n        /* \"#utility.yul\":5587:5633   */\n      swap2\n      pop\n        /* \"#utility.yul\":5367:5639   */\n      pop\n        /* \"#utility.yul\":5275:5639   */\n      swap3\n      swap2\n      pop\n      pop\n      jump\t// out\n        /* \"#utility.yul\":5669:6471   */\n    tag_271:\n        /* \"#utility.yul\":5754:5757   */\n      0x00\n        /* \"#utility.yul\":5791:5796   */\n      dup2\n        /* \"#utility.yul\":5785:5797   */\n      sload\n        /* \"#utility.yul\":5820:5856   */\n      tag_273\n        /* \"#utility.yul\":5846:5855   */\n      dup2\n        /* \"#utility.yul\":5820:5856   */\n      tag_37\n      jump\t// in\n    tag_273:\n        /* \"#utility.yul\":5872:5943   */\n      tag_274\n        /* \"#utility.yul\":5936:5942   */\n      dup2\n        /* \"#utility.yul\":5931:5934   */\n      dup7\n        /* \"#utility.yul\":5872:5943   */\n      tag_259\n      jump\t// in\n    tag_274:\n        /* \"#utility.yul\":5865:5943   */\n      swap5\n      pop\n        /* \"#utility.yul\":5974:5975   */\n      0x01\n        /* \"#utility.yul\":5963:5972   */\n      dup3\n        /* \"#utility.yul\":5959:5976   */\n      and\n        /* \"#utility.yul\":5990:5991   */\n      0x00\n        /* \"#utility.yul\":5985:6120   */\n      dup2\n      eq\n      tag_276\n      jumpi\n        /* \"#utility.yul\":6134:6135   */\n      0x01\n        /* \"#utility.yul\":6129:6465   */\n      dup2\n      eq\n      tag_277\n      jumpi\n        /* \"#utility.yul\":5952:6465   */\n      jump(tag_275)\n        /* \"#utility.yul\":5985:6120   */\n    tag_276:\n        /* \"#utility.yul\":6069:6073   */\n      0xff\n        /* \"#utility.yul\":6065:6074   */\n      not\n        /* \"#utility.yul\":6054:6063   */\n      dup4\n        /* \"#utility.yul\":6050:6075   */\n      and\n        /* \"#utility.yul\":6045:6048   */\n      dup7\n        /* \"#utility.yul\":6038:6076   */\n      mstore\n        /* \"#utility.yul\":6105:6109   */\n      0x20\n        /* \"#utility.yul\":6100:6103   */\n      dup7\n        /* \"#utility.yul\":6096:6110   */\n      add\n        /* \"#utility.yul\":6089:6110   */\n      swap4\n      pop\n        /* \"#utility.yul\":5985:6120   */\n      jump(tag_275)\n        /* \"#utility.yul\":6129:6465   */\n    tag_277:\n        /* \"#utility.yul\":6196:6234   */\n      tag_278\n        /* \"#utility.yul\":6228:6233   */\n      dup6\n        /* \"#utility.yul\":6196:6234   */\n      tag_279\n      jump\t// in\n    tag_278:\n        /* \"#utility.yul\":6256:6257   */\n      0x00\n        /* \"#utility.yul\":6270:6424   */\n    tag_280:\n        /* \"#utility.yul\":6284:6290   */\n      dup4\n        /* \"#utility.yul\":6281:6282   */\n      dup2\n        /* \"#utility.yul\":6278:6291   */\n      lt\n        /* \"#utility.yul\":6270:6424   */\n      iszero\n      tag_282\n      jumpi\n        /* \"#utility.yul\":6358:6365   */\n      dup2\n        /* \"#utility.yul\":6352:6366   */\n      sload\n        /* \"#utility.yul\":6348:6349   */\n      dup2\n        /* \"#utility.yul\":6343:6346   */\n      dup10\n        /* \"#utility.yul\":6339:6350   */\n      add\n        /* \"#utility.yul\":6332:6367   */\n      mstore\n        /* \"#utility.yul\":6408:6409   */\n      0x01\n        /* \"#utility.yul\":6399:6406   */\n      dup3\n        /* \"#utility.yul\":6395:6410   */\n      add\n        /* \"#utility.yul\":6384:6410   */\n      swap2\n      pop\n        /* \"#utility.yul\":6306:6310   */\n      0x20\n        /* \"#utility.yul\":6303:6304   */\n      dup2\n        /* \"#utility.yul\":6299:6311   */\n      add\n        /* \"#utility.yul\":6294:6311   */\n      swap1\n      pop\n        /* \"#utility.yul\":6270:6424   */\n      jump(tag_280)\n    tag_282:\n        /* \"#utility.yul\":6453:6454   */\n      dup1\n        /* \"#utility.yul\":6448:6451   */\n      dup9\n        /* \"#utility.yul\":6444:6455   */\n      add\n        /* \"#utility.yul\":6437:6455   */\n      swap6\n      pop\n        /* \"#utility.yul\":6136:6465   */\n      pop\n      pop\n        /* \"#utility.yul\":5952:6465   */\n    tag_275:\n      pop\n        /* \"#utility.yul\":5758:6471   */\n      pop\n      pop\n        /* \"#utility.yul\":5669:6471   */\n      swap3\n      swap2\n      pop\n      pop\n      jump\t// out\n        /* \"#utility.yul\":6501:7346   */\n    tag_283:\n        /* \"#utility.yul\":6604:6607   */\n      0x00\n        /* \"#utility.yul\":6641:6646   */\n      dup2\n        /* \"#utility.yul\":6635:6647   */\n      sload\n        /* \"#utility.yul\":6670:6706   */\n      tag_285\n        /* \"#utility.yul\":6696:6705   */\n      dup2\n        /* \"#utility.yul\":6670:6706   */\n      tag_37\n      jump\t// in\n    tag_285:\n        /* \"#utility.yul\":6722:6811   */\n      tag_286\n        /* \"#utility.yul\":6804:6810   */\n      dup2\n        /* \"#utility.yul\":6799:6802   */\n      dup7\n        /* \"#utility.yul\":6722:6811   */\n      tag_287\n      jump\t// in\n    tag_286:\n        /* \"#utility.yul\":6715:6811   */\n      swap5\n      pop\n        /* \"#utility.yul\":6842:6843   */\n      0x01\n        /* \"#utility.yul\":6831:6840   */\n      dup3\n        /* \"#utility.yul\":6827:6844   */\n      and\n        /* \"#utility.yul\":6858:6859   */\n      0x00\n        /* \"#utility.yul\":6853:6990   */\n      dup2\n      eq\n      tag_289\n      jumpi\n        /* \"#utility.yul\":7004:7005   */\n      0x01\n        /* \"#utility.yul\":6999:7340   */\n      dup2\n      eq\n      tag_290\n      jumpi\n        /* \"#utility.yul\":6820:7340   */\n      jump(tag_288)\n        /* \"#utility.yul\":6853:6990   */\n    tag_289:\n        /* \"#utility.yul\":6937:6941   */\n      0xff\n        /* \"#utility.yul\":6933:6942   */\n      not\n        /* \"#utility.yul\":6922:6931   */\n      dup4\n        /* \"#utility.yul\":6918:6943   */\n      and\n        /* \"#utility.yul\":6913:6916   */\n      dup7\n        /* \"#utility.yul\":6906:6944   */\n      mstore\n        /* \"#utility.yul\":6973:6979   */\n      dup2\n        /* \"#utility.yul\":6968:6971   */\n      dup7\n        /* \"#utility.yul\":6964:6980   */\n      add\n        /* \"#utility.yul\":6957:6980   */\n      swap4\n      pop\n        /* \"#utility.yul\":6853:6990   */\n      jump(tag_288)\n        /* \"#utility.yul\":6999:7340   */\n    tag_290:\n        /* \"#utility.yul\":7066:7104   */\n      tag_291\n        /* \"#utility.yul\":7098:7103   */\n      dup6\n        /* \"#utility.yul\":7066:7104   */\n      tag_279\n      jump\t// in\n    tag_291:\n        /* \"#utility.yul\":7126:7127   */\n      0x00\n        /* \"#utility.yul\":7140:7294   */\n    tag_292:\n        /* \"#utility.yul\":7154:7160   */\n      dup4\n        /* \"#utility.yul\":7151:7152   */\n      dup2\n        /* \"#utility.yul\":7148:7161   */\n      lt\n        /* \"#utility.yul\":7140:7294   */\n      iszero\n      tag_294\n      jumpi\n        /* \"#utility.yul\":7228:7235   */\n      dup2\n        /* \"#utility.yul\":7222:7236   */\n      sload\n        /* \"#utility.yul\":7218:7219   */\n      dup2\n        /* \"#utility.yul\":7213:7216   */\n      dup10\n        /* \"#utility.yul\":7209:7220   */\n      add\n        /* \"#utility.yul\":7202:7237   */\n      mstore\n        /* \"#utility.yul\":7278:7279   */\n      0x01\n        /* \"#utility.yul\":7269:7276   */\n      dup3\n        /* \"#utility.yul\":7265:7280   */\n      add\n        /* \"#utility.yul\":7254:7280   */\n      swap2\n      pop\n        /* \"#utility.yul\":7176:7180   */\n      0x20\n        /* \"#utility.yul\":7173:7174   */\n      dup2\n        /* \"#utility.yul\":7169:7181   */\n      add\n        /* \"#utility.yul\":7164:7181   */\n      swap1\n      pop\n        /* \"#utility.yul\":7140:7294   */\n      jump(tag_292)\n    tag_294:\n        /* \"#utility.yul\":7323:7329   */\n      dup4\n        /* \"#utility.yul\":7318:7321   */\n      dup9\n        /* \"#utility.yul\":7314:7330   */\n      add\n        /* \"#utility.yul\":7307:7330   */\n      swap6\n      pop\n        /* \"#utility.yul\":7006:7340   */\n      pop\n      pop\n        /* \"#utility.yul\":6820:7340   */\n    tag_288:\n      pop\n        /* \"#utility.yul\":6608:7346   */\n      pop\n      pop\n        /* \"#utility.yul\":6501:7346   */\n      swap3\n      swap2\n      pop\n      pop\n      jump\t// out\n        /* \"#utility.yul\":7352:7718   */\n    tag_295:\n        /* \"#utility.yul\":7494:7497   */\n      0x00\n        /* \"#utility.yul\":7515:7582   */\n      tag_297\n        /* \"#utility.yul\":7579:7581   */\n      0x22\n        /* \"#utility.yul\":7574:7577   */\n      dup4\n        /* \"#utility.yul\":7515:7582   */\n      tag_259\n      jump\t// in\n    tag_297:\n        /* \"#utility.yul\":7508:7582   */\n      swap2\n      pop\n        /* \"#utility.yul\":7591:7684   */\n      tag_298\n        /* \"#utility.yul\":7680:7683   */\n      dup3\n        /* \"#utility.yul\":7591:7684   */\n      tag_299\n      jump\t// in\n    tag_298:\n        /* \"#utility.yul\":7709:7711   */\n      0x40\n        /* \"#utility.yul\":7704:7707   */\n      dup3\n        /* \"#utility.yul\":7700:7712   */\n      add\n        /* \"#utility.yul\":7693:7712   */\n      swap1\n      pop\n        /* \"#utility.yul\":7352:7718   */\n      swap2\n      swap1\n      pop\n      jump\t// out\n        /* \"#utility.yul\":7724:8090   */\n    tag_300:\n        /* \"#utility.yul\":7866:7869   */\n      0x00\n        /* \"#utility.yul\":7887:7954   */\n      tag_302\n        /* \"#utility.yul\":7951:7953   */\n      0x1b\n        /* \"#utility.yul\":7946:7949   */\n      dup4\n        /* \"#utility.yul\":7887:7954   */\n      tag_259\n      jump\t// in\n    tag_302:\n        /* \"#utility.yul\":7880:7954   */\n      swap2\n      pop\n        /* \"#utility.yul\":7963:8056   */\n      tag_303\n        /* \"#utility.yul\":8052:8055   */\n      dup3\n        /* \"#utility.yul\":7963:8056   */\n      tag_304\n      jump\t// in\n    tag_303:\n        /* \"#utility.yul\":8081:8083   */\n      0x20\n        /* \"#utility.yul\":8076:8079   */\n      dup3\n        /* \"#utility.yul\":8072:8084   */\n      add\n        /* \"#utility.yul\":8065:8084   */\n      swap1\n      pop\n        /* \"#utility.yul\":7724:8090   */\n      swap2\n      swap1\n      pop\n      jump\t// out\n        /* \"#utility.yul\":8096:8462   */\n    tag_305:\n        /* \"#utility.yul\":8238:8241   */\n      0x00\n        /* \"#utility.yul\":8259:8326   */\n      tag_307\n        /* \"#utility.yul\":8323:8325   */\n      0x27\n        /* \"#utility.yul\":8318:8321   */\n      dup4\n        /* \"#utility.yul\":8259:8326   */\n      tag_259\n      jump\t// in\n    tag_307:\n        /* \"#utility.yul\":8252:8326   */\n      swap2\n      pop\n        /* \"#utility.yul\":8335:8428   */\n      tag_308\n        /* \"#utility.yul\":8424:8427   */\n      dup3\n        /* \"#utility.yul\":8335:8428   */\n      tag_309\n      jump\t// in\n    tag_308:\n        /* \"#utility.yul\":8453:8455   */\n      0x40\n        /* \"#utility.yul\":8448:8451   */\n      dup3\n        /* \"#utility.yul\":8444:8456   */\n      add\n        /* \"#utility.yul\":8437:8456   */\n      swap1\n      pop\n        /* \"#utility.yul\":8096:8462   */\n      swap2\n      swap1\n      pop\n      jump\t// out\n        /* \"#utility.yul\":8468:8834   */\n    tag_310:\n        /* \"#utility.yul\":8610:8613   */\n      0x00\n        /* \"#utility.yul\":8631:8698   */\n      tag_312\n        /* \"#utility.yul\":8695:8697   */\n      0x24\n        /* \"#utility.yul\":8690:8693   */\n      dup4\n        /* \"#utility.yul\":8631:8698   */\n      tag_259\n      jump\t// in\n    tag_312:\n        /* \"#utility.yul\":8624:8698   */\n      swap2\n      pop\n        /* \"#utility.yul\":8707:8800   */\n      tag_313\n        /* \"#utility.yul\":8796:8799   */\n      dup3\n        /* \"#utility.yul\":8707:8800   */\n      tag_314\n      jump\t// in\n    tag_313:\n        /* \"#utility.yul\":8825:8827   */\n      0x40\n        /* \"#utility.yul\":8820:8823   */\n      dup3\n        /* \"#utility.yul\":8816:8828   */\n      add\n        /* \"#utility.yul\":8809:8828   */\n      swap1\n      pop\n        /* \"#utility.yul\":8468:8834   */\n      swap2\n      swap1\n      pop\n      jump\t// out\n        /* \"#utility.yul\":8840:9206   */\n    tag_315:\n        /* \"#utility.yul\":8982:8985   */\n      0x00\n        /* \"#utility.yul\":9003:9070   */\n      tag_317\n        /* \"#utility.yul\":9067:9069   */\n      0x2f\n        /* \"#utility.yul\":9062:9065   */\n      dup4\n        /* \"#utility.yul\":9003:9070   */\n      tag_259\n      jump\t// in\n    tag_317:\n        /* \"#utility.yul\":8996:9070   */\n      swap2\n      pop\n        /* \"#utility.yul\":9079:9172   */\n      tag_318\n        /* \"#utility.yul\":9168:9171   */\n      dup3\n        /* \"#utility.yul\":9079:9172   */\n      tag_319\n      jump\t// in\n    tag_318:\n        /* \"#utility.yul\":9197:9199   */\n      0x40\n        /* \"#utility.yul\":9192:9195   */\n      dup3\n        /* \"#utility.yul\":9188:9200   */\n      add\n        /* \"#utility.yul\":9181:9200   */\n      swap1\n      pop\n        /* \"#utility.yul\":8840:9206   */\n      swap2\n      swap1\n      pop\n      jump\t// out\n        /* \"#utility.yul\":9212:9578   */\n    tag_320:\n        /* \"#utility.yul\":9354:9357   */\n      0x00\n        /* \"#utility.yul\":9375:9442   */\n      tag_322\n        /* \"#utility.yul\":9439:9441   */\n      0x22\n        /* \"#utility.yul\":9434:9437   */\n      dup4\n        /* \"#utility.yul\":9375:9442   */\n      tag_259\n      jump\t// in\n    tag_322:\n        /* \"#utility.yul\":9368:9442   */\n      swap2\n      pop\n        /* \"#utility.yul\":9451:9544   */\n      tag_323\n        /* \"#utility.yul\":9540:9543   */\n      dup3\n        /* \"#utility.yul\":9451:9544   */\n      tag_324\n      jump\t// in\n    tag_323:\n        /* \"#utility.yul\":9569:9571   */\n      0x40\n        /* \"#utility.yul\":9564:9567   */\n      dup3\n        /* \"#utility.yul\":9560:9572   */\n      add\n        /* \"#utility.yul\":9553:9572   */\n      swap1\n      pop\n        /* \"#utility.yul\":9212:9578   */\n      swap2\n      swap1\n      pop\n      jump\t// out\n        /* \"#utility.yul\":9584:9702   */\n    tag_325:\n        /* \"#utility.yul\":9671:9695   */\n      tag_327\n        /* \"#utility.yul\":9689:9694   */\n      dup2\n        /* \"#utility.yul\":9671:9695   */\n      tag_328\n      jump\t// in\n    tag_327:\n        /* \"#utility.yul\":9666:9669   */\n      dup3\n        /* \"#utility.yul\":9659:9696   */\n      mstore\n        /* \"#utility.yul\":9584:9702   */\n      pop\n      pop\n      jump\t// out\n        /* \"#utility.yul\":9708:9977   */\n    tag_158:\n        /* \"#utility.yul\":9837:9840   */\n      0x00\n        /* \"#utility.yul\":9859:9951   */\n      tag_330\n        /* \"#utility.yul\":9947:9950   */\n      dup3\n        /* \"#utility.yul\":9938:9944   */\n      dup5\n        /* \"#utility.yul\":9859:9951   */\n      tag_283\n      jump\t// in\n    tag_330:\n        /* \"#utility.yul\":9852:9951   */\n      swap2\n      pop\n        /* \"#utility.yul\":9968:9971   */\n      dup2\n        /* \"#utility.yul\":9961:9971   */\n      swap1\n      pop\n        /* \"#utility.yul\":9708:9977   */\n      swap3\n      swap2\n      pop\n      pop\n      jump\t// out\n        /* \"#utility.yul\":9983:10315   */\n    tag_33:\n        /* \"#utility.yul\":10104:10108   */\n      0x00\n        /* \"#utility.yul\":10142:10144   */\n      0x40\n        /* \"#utility.yul\":10131:10140   */\n      dup3\n        /* \"#utility.yul\":10127:10145   */\n      add\n        /* \"#utility.yul\":10119:10145   */\n      swap1\n      pop\n        /* \"#utility.yul\":10155:10226   */\n      tag_332\n        /* \"#utility.yul\":10223:10224   */\n      0x00\n        /* \"#utility.yul\":10212:10221   */\n      dup4\n        /* \"#utility.yul\":10208:10225   */\n      add\n        /* \"#utility.yul\":10199:10205   */\n      dup6\n        /* \"#utility.yul\":10155:10226   */\n      tag_248\n      jump\t// in\n    tag_332:\n        /* \"#utility.yul\":10236:10308   */\n      tag_333\n        /* \"#utility.yul\":10304:10306   */\n      0x20\n        /* \"#utility.yul\":10293:10302   */\n      dup4\n        /* \"#utility.yul\":10289:10307   */\n      add\n        /* \"#utility.yul\":10280:10286   */\n      dup5\n        /* \"#utility.yul\":10236:10308   */\n      tag_325\n      jump\t// in\n    tag_333:\n        /* \"#utility.yul\":9983:10315   */\n      swap4\n      swap3\n      pop\n      pop\n      pop\n      jump\t// out\n        /* \"#utility.yul\":10321:11207   */\n    tag_122:\n        /* \"#utility.yul\":10588:10592   */\n      0x00\n        /* \"#utility.yul\":10626:10629   */\n      0x80\n        /* \"#utility.yul\":10615:10624   */\n      dup3\n        /* \"#utility.yul\":10611:10630   */\n      add\n        /* \"#utility.yul\":10603:10630   */\n      swap1\n      pop\n        /* \"#utility.yul\":10676:10685   */\n      dup2\n        /* \"#utility.yul\":10670:10674   */\n      dup2\n        /* \"#utility.yul\":10666:10686   */\n      sub\n        /* \"#utility.yul\":10662:10663   */\n      0x00\n        /* \"#utility.yul\":10651:10660   */\n      dup4\n        /* \"#utility.yul\":10647:10664   */\n      add\n        /* \"#utility.yul\":10640:10687   */\n      mstore\n        /* \"#utility.yul\":10704:10792   */\n      tag_335\n        /* \"#utility.yul\":10787:10791   */\n      dup2\n        /* \"#utility.yul\":10778:10784   */\n      dup10\n        /* \"#utility.yul\":10770:10776   */\n      dup12\n        /* \"#utility.yul\":10704:10792   */\n      tag_256\n      jump\t// in\n    tag_335:\n        /* \"#utility.yul\":10696:10792   */\n      swap1\n      pop\n        /* \"#utility.yul\":10839:10848   */\n      dup2\n        /* \"#utility.yul\":10833:10837   */\n      dup2\n        /* \"#utility.yul\":10829:10849   */\n      sub\n        /* \"#utility.yul\":10824:10826   */\n      0x20\n        /* \"#utility.yul\":10813:10822   */\n      dup4\n        /* \"#utility.yul\":10809:10827   */\n      add\n        /* \"#utility.yul\":10802:10850   */\n      mstore\n        /* \"#utility.yul\":10867:10955   */\n      tag_336\n        /* \"#utility.yul\":10950:10954   */\n      dup2\n        /* \"#utility.yul\":10941:10947   */\n      dup8\n        /* \"#utility.yul\":10933:10939   */\n      dup10\n        /* \"#utility.yul\":10867:10955   */\n      tag_256\n      jump\t// in\n    tag_336:\n        /* \"#utility.yul\":10859:10955   */\n      swap1\n      pop\n        /* \"#utility.yul\":11002:11011   */\n      dup2\n        /* \"#utility.yul\":10996:11000   */\n      dup2\n        /* \"#utility.yul\":10992:11012   */\n      sub\n        /* \"#utility.yul\":10987:10989   */\n      0x40\n        /* \"#utility.yul\":10976:10985   */\n      dup4\n        /* \"#utility.yul\":10972:10990   */\n      add\n        /* \"#utility.yul\":10965:11013   */\n      mstore\n        /* \"#utility.yul\":11030:11118   */\n      tag_337\n        /* \"#utility.yul\":11113:11117   */\n      dup2\n        /* \"#utility.yul\":11104:11110   */\n      dup6\n        /* \"#utility.yul\":11096:11102   */\n      dup8\n        /* \"#utility.yul\":11030:11118   */\n      tag_256\n      jump\t// in\n    tag_337:\n        /* \"#utility.yul\":11022:11118   */\n      swap1\n      pop\n        /* \"#utility.yul\":11128:11200   */\n      tag_338\n        /* \"#utility.yul\":11196:11198   */\n      0x60\n        /* \"#utility.yul\":11185:11194   */\n      dup4\n        /* \"#utility.yul\":11181:11199   */\n      add\n        /* \"#utility.yul\":11172:11178   */\n      dup5\n        /* \"#utility.yul\":11128:11200   */\n      tag_325\n      jump\t// in\n    tag_338:\n        /* \"#utility.yul\":10321:11207   */\n      swap9\n      swap8\n      pop\n      pop\n      pop\n      pop\n      pop\n      pop\n      pop\n      pop\n      jump\t// out\n        /* \"#utility.yul\":11213:12414   */\n    tag_13:\n        /* \"#utility.yul\":11555:11559   */\n      0x00\n        /* \"#utility.yul\":11593:11596   */\n      0xe0\n        /* \"#utility.yul\":11582:11591   */\n      dup3\n        /* \"#utility.yul\":11578:11597   */\n      add\n        /* \"#utility.yul\":11570:11597   */\n      swap1\n      pop\n        /* \"#utility.yul\":11643:11652   */\n      dup2\n        /* \"#utility.yul\":11637:11641   */\n      dup2\n        /* \"#utility.yul\":11633:11653   */\n      sub\n        /* \"#utility.yul\":11629:11630   */\n      0x00\n        /* \"#utility.yul\":11618:11627   */\n      dup4\n        /* \"#utility.yul\":11614:11631   */\n      add\n        /* \"#utility.yul\":11607:11654   */\n      mstore\n        /* \"#utility.yul\":11671:11749   */\n      tag_340\n        /* \"#utility.yul\":11744:11748   */\n      dup2\n        /* \"#utility.yul\":11735:11741   */\n      dup11\n        /* \"#utility.yul\":11671:11749   */\n      tag_263\n      jump\t// in\n    tag_340:\n        /* \"#utility.yul\":11663:11749   */\n      swap1\n      pop\n        /* \"#utility.yul\":11796:11805   */\n      dup2\n        /* \"#utility.yul\":11790:11794   */\n      dup2\n        /* \"#utility.yul\":11786:11806   */\n      sub\n        /* \"#utility.yul\":11781:11783   */\n      0x20\n        /* \"#utility.yul\":11770:11779   */\n      dup4\n        /* \"#utility.yul\":11766:11784   */\n      add\n        /* \"#utility.yul\":11759:11807   */\n      mstore\n        /* \"#utility.yul\":11824:11902   */\n      tag_341\n        /* \"#utility.yul\":11897:11901   */\n      dup2\n        /* \"#utility.yul\":11888:11894   */\n      dup10\n        /* \"#utility.yul\":11824:11902   */\n      tag_263\n      jump\t// in\n    tag_341:\n        /* \"#utility.yul\":11816:11902   */\n      swap1\n      pop\n        /* \"#utility.yul\":11949:11958   */\n      dup2\n        /* \"#utility.yul\":11943:11947   */\n      dup2\n        /* \"#utility.yul\":11939:11959   */\n      sub\n        /* \"#utility.yul\":11934:11936   */\n      0x40\n        /* \"#utility.yul\":11923:11932   */\n      dup4\n        /* \"#utility.yul\":11919:11937   */\n      add\n        /* \"#utility.yul\":11912:11960   */\n      mstore\n        /* \"#utility.yul\":11977:12055   */\n      tag_342\n        /* \"#utility.yul\":12050:12054   */\n      dup2\n        /* \"#utility.yul\":12041:12047   */\n      dup9\n        /* \"#utility.yul\":11977:12055   */\n      tag_263\n      jump\t// in\n    tag_342:\n        /* \"#utility.yul\":11969:12055   */\n      swap1\n      pop\n        /* \"#utility.yul\":12065:12137   */\n      tag_343\n        /* \"#utility.yul\":12133:12135   */\n      0x60\n        /* \"#utility.yul\":12122:12131   */\n      dup4\n        /* \"#utility.yul\":12118:12136   */\n      add\n        /* \"#utility.yul\":12109:12115   */\n      dup8\n        /* \"#utility.yul\":12065:12137   */\n      tag_325\n      jump\t// in\n    tag_343:\n        /* \"#utility.yul\":12147:12236   */\n      tag_344\n        /* \"#utility.yul\":12231:12234   */\n      0x80\n        /* \"#utility.yul\":12220:12229   */\n      dup4\n        /* \"#utility.yul\":12216:12235   */\n      add\n        /* \"#utility.yul\":12207:12213   */\n      dup7\n        /* \"#utility.yul\":12147:12236   */\n      tag_244\n      jump\t// in\n    tag_344:\n        /* \"#utility.yul\":12246:12319   */\n      tag_345\n        /* \"#utility.yul\":12314:12317   */\n      0xa0\n        /* \"#utility.yul\":12303:12312   */\n      dup4\n        /* \"#utility.yul\":12299:12318   */\n      add\n        /* \"#utility.yul\":12290:12296   */\n      dup6\n        /* \"#utility.yul\":12246:12319   */\n      tag_325\n      jump\t// in\n    tag_345:\n        /* \"#utility.yul\":12329:12407   */\n      tag_346\n        /* \"#utility.yul\":12402:12405   */\n      0xc0\n        /* \"#utility.yul\":12391:12400   */\n      dup4\n        /* \"#utility.yul\":12387:12406   */\n      add\n        /* \"#utility.yul\":12378:12384   */\n      dup5\n        /* \"#utility.yul\":12329:12407   */\n      tag_252\n      jump\t// in\n    tag_346:\n        /* \"#utility.yul\":11213:12414   */\n      swap9\n      swap8\n      pop\n      pop\n      pop\n      pop\n      pop\n      pop\n      pop\n      pop\n      jump\t// out\n        /* \"#utility.yul\":12420:12847   */\n    tag_108:\n        /* \"#utility.yul\":12563:12567   */\n      0x00\n        /* \"#utility.yul\":12601:12603   */\n      0x40\n        /* \"#utility.yul\":12590:12599   */\n      dup3\n        /* \"#utility.yul\":12586:12604   */\n      add\n        /* \"#utility.yul\":12578:12604   */\n      swap1\n      pop\n        /* \"#utility.yul\":12650:12659   */\n      dup2\n        /* \"#utility.yul\":12644:12648   */\n      dup2\n        /* \"#utility.yul\":12640:12660   */\n      sub\n        /* \"#utility.yul\":12636:12637   */\n      0x00\n        /* \"#utility.yul\":12625:12634   */\n      dup4\n        /* \"#utility.yul\":12621:12638   */\n      add\n        /* \"#utility.yul\":12614:12661   */\n      mstore\n        /* \"#utility.yul\":12678:12753   */\n      tag_348\n        /* \"#utility.yul\":12748:12752   */\n      dup2\n        /* \"#utility.yul\":12739:12745   */\n      dup6\n        /* \"#utility.yul\":12678:12753   */\n      tag_271\n      jump\t// in\n    tag_348:\n        /* \"#utility.yul\":12670:12753   */\n      swap1\n      pop\n        /* \"#utility.yul\":12763:12840   */\n      tag_349\n        /* \"#utility.yul\":12836:12838   */\n      0x20\n        /* \"#utility.yul\":12825:12834   */\n      dup4\n        /* \"#utility.yul\":12821:12839   */\n      add\n        /* \"#utility.yul\":12812:12818   */\n      dup5\n        /* \"#utility.yul\":12763:12840   */\n      tag_252\n      jump\t// in\n    tag_349:\n        /* \"#utility.yul\":12420:12847   */\n      swap4\n      swap3\n      pop\n      pop\n      pop\n      jump\t// out\n        /* \"#utility.yul\":12853:13270   */\n    tag_164:\n        /* \"#utility.yul\":12991:12995   */\n      0x00\n        /* \"#utility.yul\":13029:13031   */\n      0x40\n        /* \"#utility.yul\":13018:13027   */\n      dup3\n        /* \"#utility.yul\":13014:13032   */\n      add\n        /* \"#utility.yul\":13006:13032   */\n      swap1\n      pop\n        /* \"#utility.yul\":13078:13087   */\n      dup2\n        /* \"#utility.yul\":13072:13076   */\n      dup2\n        /* \"#utility.yul\":13068:13088   */\n      sub\n        /* \"#utility.yul\":13064:13065   */\n      0x00\n        /* \"#utility.yul\":13053:13062   */\n      dup4\n        /* \"#utility.yul\":13049:13066   */\n      add\n        /* \"#utility.yul\":13042:13089   */\n      mstore\n        /* \"#utility.yul\":13106:13181   */\n      tag_351\n        /* \"#utility.yul\":13176:13180   */\n      dup2\n        /* \"#utility.yul\":13167:13173   */\n      dup6\n        /* \"#utility.yul\":13106:13181   */\n      tag_271\n      jump\t// in\n    tag_351:\n        /* \"#utility.yul\":13098:13181   */\n      swap1\n      pop\n        /* \"#utility.yul\":13191:13263   */\n      tag_352\n        /* \"#utility.yul\":13259:13261   */\n      0x20\n        /* \"#utility.yul\":13248:13257   */\n      dup4\n        /* \"#utility.yul\":13244:13262   */\n      add\n        /* \"#utility.yul\":13235:13241   */\n      dup5\n        /* \"#utility.yul\":13191:13263   */\n      tag_325\n      jump\t// in\n    tag_352:\n        /* \"#utility.yul\":12853:13270   */\n      swap4\n      swap3\n      pop\n      pop\n      pop\n      jump\t// out\n        /* \"#utility.yul\":13276:13695   */\n    tag_129:\n        /* \"#utility.yul\":13442:13446   */\n      0x00\n        /* \"#utility.yul\":13480:13482   */\n      0x20\n        /* \"#utility.yul\":13469:13478   */\n      dup3\n        /* \"#utility.yul\":13465:13483   */\n      add\n        /* \"#utility.yul\":13457:13483   */\n      swap1\n      pop\n        /* \"#utility.yul\":13529:13538   */\n      dup2\n        /* \"#utility.yul\":13523:13527   */\n      dup2\n        /* \"#utility.yul\":13519:13539   */\n      sub\n        /* \"#utility.yul\":13515:13516   */\n      0x00\n        /* \"#utility.yul\":13504:13513   */\n      dup4\n        /* \"#utility.yul\":13500:13517   */\n      add\n        /* \"#utility.yul\":13493:13540   */\n      mstore\n        /* \"#utility.yul\":13557:13688   */\n      tag_354\n        /* \"#utility.yul\":13683:13687   */\n      dup2\n        /* \"#utility.yul\":13557:13688   */\n      tag_295\n      jump\t// in\n    tag_354:\n        /* \"#utility.yul\":13549:13688   */\n      swap1\n      pop\n        /* \"#utility.yul\":13276:13695   */\n      swap2\n      swap1\n      pop\n      jump\t// out\n        /* \"#utility.yul\":13701:14120   */\n    tag_90:\n        /* \"#utility.yul\":13867:13871   */\n      0x00\n        /* \"#utility.yul\":13905:13907   */\n      0x20\n        /* \"#utility.yul\":13894:13903   */\n      dup3\n        /* \"#utility.yul\":13890:13908   */\n      add\n        /* \"#utility.yul\":13882:13908   */\n      swap1\n      pop\n        /* \"#utility.yul\":13954:13963   */\n      dup2\n        /* \"#utility.yul\":13948:13952   */\n      dup2\n        /* \"#utility.yul\":13944:13964   */\n      sub\n        /* \"#utility.yul\":13940:13941   */\n      0x00\n        /* \"#utility.yul\":13929:13938   */\n      dup4\n        /* \"#utility.yul\":13925:13942   */\n      add\n        /* \"#utility.yul\":13918:13965   */\n      mstore\n        /* \"#utility.yul\":13982:14113   */\n      tag_356\n        /* \"#utility.yul\":14108:14112   */\n      dup2\n        /* \"#utility.yul\":13982:14113   */\n      tag_300\n      jump\t// in\n    tag_356:\n        /* \"#utility.yul\":13974:14113   */\n      swap1\n      pop\n        /* \"#utility.yul\":13701:14120   */\n      swap2\n      swap1\n      pop\n      jump\t// out\n        /* \"#utility.yul\":14126:14545   */\n    tag_112:\n        /* \"#utility.yul\":14292:14296   */\n      0x00\n        /* \"#utility.yul\":14330:14332   */\n      0x20\n        /* \"#utility.yul\":14319:14328   */\n      dup3\n        /* \"#utility.yul\":14315:14333   */\n      add\n        /* \"#utility.yul\":14307:14333   */\n      swap1\n      pop\n        /* \"#utility.yul\":14379:14388   */\n      dup2\n        /* \"#utility.yul\":14373:14377   */\n      dup2\n        /* \"#utility.yul\":14369:14389   */\n      sub\n        /* \"#utility.yul\":14365:14366   */\n      0x00\n        /* \"#utility.yul\":14354:14363   */\n      dup4\n        /* \"#utility.yul\":14350:14367   */\n      add\n        /* \"#utility.yul\":14343:14390   */\n      mstore\n        /* \"#utility.yul\":14407:14538   */\n      tag_358\n        /* \"#utility.yul\":14533:14537   */\n      dup2\n        /* \"#utility.yul\":14407:14538   */\n      tag_305\n      jump\t// in\n    tag_358:\n        /* \"#utility.yul\":14399:14538   */\n      swap1\n      pop\n        /* \"#utility.yul\":14126:14545   */\n      swap2\n      swap1\n      pop\n      jump\t// out\n        /* \"#utility.yul\":14551:14970   */\n    tag_140:\n        /* \"#utility.yul\":14717:14721   */\n      0x00\n        /* \"#utility.yul\":14755:14757   */\n      0x20\n        /* \"#utility.yul\":14744:14753   */\n      dup3\n        /* \"#utility.yul\":14740:14758   */\n      add\n        /* \"#utility.yul\":14732:14758   */\n      swap1\n      pop\n        /* \"#utility.yul\":14804:14813   */\n      dup2\n        /* \"#utility.yul\":14798:14802   */\n      dup2\n        /* \"#utility.yul\":14794:14814   */\n      sub\n        /* \"#utility.yul\":14790:14791   */\n      0x00\n        /* \"#utility.yul\":14779:14788   */\n      dup4\n        /* \"#utility.yul\":14775:14792   */\n      add\n        /* \"#utility.yul\":14768:14815   */\n      mstore\n        /* \"#utility.yul\":14832:14963   */\n      tag_360\n        /* \"#utility.yul\":14958:14962   */\n      dup2\n        /* \"#utility.yul\":14832:14963   */\n      tag_310\n      jump\t// in\n    tag_360:\n        /* \"#utility.yul\":14824:14963   */\n      swap1\n      pop\n        /* \"#utility.yul\":14551:14970   */\n      swap2\n      swap1\n      pop\n      jump\t// out\n        /* \"#utility.yul\":14976:15395   */\n    tag_59:\n        /* \"#utility.yul\":15142:15146   */\n      0x00\n        /* \"#utility.yul\":15180:15182   */\n      0x20\n        /* \"#utility.yul\":15169:15178   */\n      dup3\n        /* \"#utility.yul\":15165:15183   */\n      add\n        /* \"#utility.yul\":15157:15183   */\n      swap1\n      pop\n        /* \"#utility.yul\":15229:15238   */\n      dup2\n        /* \"#utility.yul\":15223:15227   */\n      dup2\n        /* \"#utility.yul\":15219:15239   */\n      sub\n        /* \"#utility.yul\":15215:15216   */\n      0x00\n        /* \"#utility.yul\":15204:15213   */\n      dup4\n        /* \"#utility.yul\":15200:15217   */\n      add\n        /* \"#utility.yul\":15193:15240   */\n      mstore\n        /* \"#utility.yul\":15257:15388   */\n      tag_362\n        /* \"#utility.yul\":15383:15387   */\n      dup2\n        /* \"#utility.yul\":15257:15388   */\n      tag_315\n      jump\t// in\n    tag_362:\n        /* \"#utility.yul\":15249:15388   */\n      swap1\n      pop\n        /* \"#utility.yul\":14976:15395   */\n      swap2\n      swap1\n      pop\n      jump\t// out\n        /* \"#utility.yul\":15401:15820   */\n    tag_143:\n        /* \"#utility.yul\":15567:15571   */\n      0x00\n        /* \"#utility.yul\":15605:15607   */\n      0x20\n        /* \"#utility.yul\":15594:15603   */\n      dup3\n        /* \"#utility.yul\":15590:15608   */\n      add\n        /* \"#utility.yul\":15582:15608   */\n      swap1\n      pop\n        /* \"#utility.yul\":15654:15663   */\n      dup2\n        /* \"#utility.yul\":15648:15652   */\n      dup2\n        /* \"#utility.yul\":15644:15664   */\n      sub\n        /* \"#utility.yul\":15640:15641   */\n      0x00\n        /* \"#utility.yul\":15629:15638   */\n      dup4\n        /* \"#utility.yul\":15625:15642   */\n      add\n        /* \"#utility.yul\":15618:15665   */\n      mstore\n        /* \"#utility.yul\":15682:15813   */\n      tag_364\n        /* \"#utility.yul\":15808:15812   */\n      dup2\n        /* \"#utility.yul\":15682:15813   */\n      tag_320\n      jump\t// in\n    tag_364:\n        /* \"#utility.yul\":15674:15813   */\n      swap1\n      pop\n        /* \"#utility.yul\":15401:15820   */\n      swap2\n      swap1\n      pop\n      jump\t// out\n        /* \"#utility.yul\":15826:15955   */\n    tag_183:\n        /* \"#utility.yul\":15860:15866   */\n      0x00\n        /* \"#utility.yul\":15887:15907   */\n      tag_366\n      tag_367\n      jump\t// in\n    tag_366:\n        /* \"#utility.yul\":15877:15907   */\n      swap1\n      pop\n        /* \"#utility.yul\":15916:15949   */\n      tag_368\n        /* \"#utility.yul\":15944:15948   */\n      dup3\n        /* \"#utility.yul\":15936:15942   */\n      dup3\n        /* \"#utility.yul\":15916:15949   */\n      tag_369\n      jump\t// in\n    tag_368:\n        /* \"#utility.yul\":15826:15955   */\n      swap2\n      swap1\n      pop\n      jump\t// out\n        /* \"#utility.yul\":15961:16036   */\n    tag_367:\n        /* \"#utility.yul\":15994:16000   */\n      0x00\n        /* \"#utility.yul\":16027:16029   */\n      0x40\n        /* \"#utility.yul\":16021:16030   */\n      mload\n        /* \"#utility.yul\":16011:16030   */\n      swap1\n      pop\n        /* \"#utility.yul\":15961:16036   */\n      swap1\n      jump\t// out\n        /* \"#utility.yul\":16042:16350   */\n    tag_182:\n        /* \"#utility.yul\":16104:16108   */\n      0x00\n        /* \"#utility.yul\":16194:16212   */\n      0xffffffffffffffff\n        /* \"#utility.yul\":16186:16192   */\n      dup3\n        /* \"#utility.yul\":16183:16213   */\n      gt\n        /* \"#utility.yul\":16180:16236   */\n      iszero\n      tag_372\n      jumpi\n        /* \"#utility.yul\":16216:16234   */\n      tag_373\n      tag_374\n      jump\t// in\n    tag_373:\n        /* \"#utility.yul\":16180:16236   */\n    tag_372:\n        /* \"#utility.yul\":16254:16283   */\n      tag_375\n        /* \"#utility.yul\":16276:16282   */\n      dup3\n        /* \"#utility.yul\":16254:16283   */\n      tag_262\n      jump\t// in\n    tag_375:\n        /* \"#utility.yul\":16246:16283   */\n      swap1\n      pop\n        /* \"#utility.yul\":16338:16342   */\n      0x20\n        /* \"#utility.yul\":16332:16336   */\n      dup2\n        /* \"#utility.yul\":16328:16343   */\n      add\n        /* \"#utility.yul\":16320:16343   */\n      swap1\n      pop\n        /* \"#utility.yul\":16042:16350   */\n      swap2\n      swap1\n      pop\n      jump\t// out\n        /* \"#utility.yul\":16356:16497   */\n    tag_279:\n        /* \"#utility.yul\":16405:16409   */\n      0x00\n        /* \"#utility.yul\":16428:16431   */\n      dup2\n        /* \"#utility.yul\":16420:16431   */\n      swap1\n      pop\n        /* \"#utility.yul\":16451:16454   */\n      dup2\n        /* \"#utility.yul\":16448:16449   */\n      0x00\n        /* \"#utility.yul\":16441:16455   */\n      mstore\n        /* \"#utility.yul\":16485:16489   */\n      0x20\n        /* \"#utility.yul\":16482:16483   */\n      0x00\n        /* \"#utility.yul\":16472:16490   */\n      keccak256\n        /* \"#utility.yul\":16464:16490   */\n      swap1\n      pop\n        /* \"#utility.yul\":16356:16497   */\n      swap2\n      swap1\n      pop\n      jump\t// out\n        /* \"#utility.yul\":16503:16602   */\n    tag_266:\n        /* \"#utility.yul\":16555:16561   */\n      0x00\n        /* \"#utility.yul\":16589:16594   */\n      dup2\n        /* \"#utility.yul\":16583:16595   */\n      mload\n        /* \"#utility.yul\":16573:16595   */\n      swap1\n      pop\n        /* \"#utility.yul\":16503:16602   */\n      swap2\n      swap1\n      pop\n      jump\t// out\n        /* \"#utility.yul\":16608:16777   */\n    tag_259:\n        /* \"#utility.yul\":16692:16703   */\n      0x00\n        /* \"#utility.yul\":16726:16732   */\n      dup3\n        /* \"#utility.yul\":16721:16724   */\n      dup3\n        /* \"#utility.yul\":16714:16733   */\n      mstore\n        /* \"#utility.yul\":16766:16770   */\n      0x20\n        /* \"#utility.yul\":16761:16764   */\n      dup3\n        /* \"#utility.yul\":16757:16771   */\n      add\n        /* \"#utility.yul\":16742:16771   */\n      swap1\n      pop\n        /* \"#utility.yul\":16608:16777   */\n      swap3\n      swap2\n      pop\n      pop\n      jump\t// out\n        /* \"#utility.yul\":16783:16931   */\n    tag_287:\n        /* \"#utility.yul\":16885:16896   */\n      0x00\n        /* \"#utility.yul\":16922:16925   */\n      dup2\n        /* \"#utility.yul\":16907:16925   */\n      swap1\n      pop\n        /* \"#utility.yul\":16783:16931   */\n      swap3\n      swap2\n      pop\n      pop\n      jump\t// out\n        /* \"#utility.yul\":16937:17242   */\n    tag_153:\n        /* \"#utility.yul\":16977:16980   */\n      0x00\n        /* \"#utility.yul\":16996:17016   */\n      tag_381\n        /* \"#utility.yul\":17014:17015   */\n      dup3\n        /* \"#utility.yul\":16996:17016   */\n      tag_328\n      jump\t// in\n    tag_381:\n        /* \"#utility.yul\":16991:17016   */\n      swap2\n      pop\n        /* \"#utility.yul\":17030:17050   */\n      tag_382\n        /* \"#utility.yul\":17048:17049   */\n      dup4\n        /* \"#utility.yul\":17030:17050   */\n      tag_328\n      jump\t// in\n    tag_382:\n        /* \"#utility.yul\":17025:17050   */\n      swap3\n      pop\n        /* \"#utility.yul\":17184:17185   */\n      dup3\n        /* \"#utility.yul\":17116:17182   */\n      0xffffffffffffffffffffffffffffffffffffffffffffffffffffffffffffffff\n        /* \"#utility.yul\":17112:17186   */\n      sub\n        /* \"#utility.yul\":17109:17110   */\n      dup3\n        /* \"#utility.yul\":17106:17187   */\n      gt\n        /* \"#utility.yul\":17103:17210   */\n      iszero\n      tag_383\n      jumpi\n        /* \"#utility.yul\":17190:17208   */\n      tag_384\n      tag_385\n      jump\t// in\n    tag_384:\n        /* \"#utility.yul\":17103:17210   */\n    tag_383:\n        /* \"#utility.yul\":17234:17235   */\n      dup3\n        /* \"#utility.yul\":17231:17232   */\n      dup3\n        /* \"#utility.yul\":17227:17236   */\n      add\n        /* \"#utility.yul\":17220:17236   */\n      swap1\n      pop\n        /* \"#utility.yul\":16937:17242   */\n      swap3\n      swap2\n      pop\n      pop\n      jump\t// out\n        /* \"#utility.yul\":17248:17344   */\n    tag_251:\n        /* \"#utility.yul\":17285:17292   */\n      0x00\n        /* \"#utility.yul\":17314:17338   */\n      tag_387\n        /* \"#utility.yul\":17332:17337   */\n      dup3\n        /* \"#utility.yul\":17314:17338   */\n      tag_388\n      jump\t// in\n    tag_387:\n        /* \"#utility.yul\":17303:17338   */\n      swap1\n      pop\n        /* \"#utility.yul\":17248:17344   */\n      swap2\n      swap1\n      pop\n      jump\t// out\n        /* \"#utility.yul\":17350:17454   */\n    tag_247:\n        /* \"#utility.yul\":17395:17402   */\n      0x00\n        /* \"#utility.yul\":17424:17448   */\n      tag_390\n        /* \"#utility.yul\":17442:17447   */\n      dup3\n        /* \"#utility.yul\":17424:17448   */\n      tag_388\n      jump\t// in\n    tag_390:\n        /* \"#utility.yul\":17413:17448   */\n      swap1\n      pop\n        /* \"#utility.yul\":17350:17454   */\n      swap2\n      swap1\n      pop\n      jump\t// out\n        /* \"#utility.yul\":17460:17585   */\n    tag_391:\n        /* \"#utility.yul\":17504:17511   */\n      0x00\n        /* \"#utility.yul\":17533:17538   */\n      dup2\n        /* \"#utility.yul\":17522:17538   */\n      swap1\n      pop\n        /* \"#utility.yul\":17539:17579   */\n      tag_393\n        /* \"#utility.yul\":17573:17578   */\n      dup3\n        /* \"#utility.yul\":17539:17579   */\n      tag_394\n      jump\t// in\n    tag_393:\n        /* \"#utility.yul\":17460:17585   */\n      swap2\n      swap1\n      pop\n      jump\t// out\n        /* \"#utility.yul\":17591:17717   */\n    tag_388:\n        /* \"#utility.yul\":17628:17635   */\n      0x00\n        /* \"#utility.yul\":17668:17710   */\n      0xffffffffffffffffffffffffffffffffffffffff\n        /* \"#utility.yul\":17661:17666   */\n      dup3\n        /* \"#utility.yul\":17657:17711   */\n      and\n        /* \"#utility.yul\":17646:17711   */\n      swap1\n      pop\n        /* \"#utility.yul\":17591:17717   */\n      swap2\n      swap1\n      pop\n      jump\t// out\n        /* \"#utility.yul\":17723:17800   */\n    tag_328:\n        /* \"#utility.yul\":17760:17767   */\n      0x00\n        /* \"#utility.yul\":17789:17794   */\n      dup2\n        /* \"#utility.yul\":17778:17794   */\n      swap1\n      pop\n        /* \"#utility.yul\":17723:17800   */\n      swap2\n      swap1\n      pop\n      jump\t// out\n        /* \"#utility.yul\":17806:17931   */\n    tag_255:\n        /* \"#utility.yul\":17861:17870   */\n      0x00\n        /* \"#utility.yul\":17894:17925   */\n      tag_398\n        /* \"#utility.yul\":17919:17924   */\n      dup3\n        /* \"#utility.yul\":17894:17925   */\n      tag_391\n      jump\t// in\n    tag_398:\n        /* \"#utility.yul\":17881:17925   */\n      swap1\n      pop\n        /* \"#utility.yul\":17806:17931   */\n      swap2\n      swap1\n      pop\n      jump\t// out\n        /* \"#utility.yul\":17937:18091   */\n    tag_188:\n        /* \"#utility.yul\":18021:18027   */\n      dup3\n        /* \"#utility.yul\":18016:18019   */\n      dup2\n        /* \"#utility.yul\":18011:18014   */\n      dup4\n        /* \"#utility.yul\":17998:18028   */\n      calldatacopy\n        /* \"#utility.yul\":18083:18084   */\n      0x00\n        /* \"#utility.yul\":18074:18080   */\n      dup4\n        /* \"#utility.yul\":18069:18072   */\n      dup4\n        /* \"#utility.yul\":18065:18081   */\n      add\n        /* \"#utility.yul\":18058:18085   */\n      mstore\n        /* \"#utility.yul\":17937:18091   */\n      pop\n      pop\n      pop\n      jump\t// out\n        /* \"#utility.yul\":18097:18404   */\n    tag_269:\n        /* \"#utility.yul\":18165:18166   */\n      0x00\n        /* \"#utility.yul\":18175:18288   */\n    tag_401:\n        /* \"#utility.yul\":18189:18195   */\n      dup4\n        /* \"#utility.yul\":18186:18187   */\n      dup2\n        /* \"#utility.yul\":18183:18196   */\n      lt\n        /* \"#utility.yul\":18175:18288   */\n      iszero\n      tag_403\n      jumpi\n        /* \"#utility.yul\":18274:18275   */\n      dup1\n        /* \"#utility.yul\":18269:18272   */\n      dup3\n        /* \"#utility.yul\":18265:18276   */\n      add\n        /* \"#utility.yul\":18259:18277   */\n      mload\n        /* \"#utility.yul\":18255:18256   */\n      dup2\n        /* \"#utility.yul\":18250:18253   */\n      dup5\n        /* \"#utility.yul\":18246:18257   */\n      add\n        /* \"#utility.yul\":18239:18278   */\n      mstore\n        /* \"#utility.yul\":18211:18213   */\n      0x20\n        /* \"#utility.yul\":18208:18209   */\n      dup2\n        /* \"#utility.yul\":18204:18214   */\n      add\n        /* \"#utility.yul\":18199:18214   */\n      swap1\n      pop\n        /* \"#utility.yul\":18175:18288   */\n      jump(tag_401)\n    tag_403:\n        /* \"#utility.yul\":18306:18312   */\n      dup4\n        /* \"#utility.yul\":18303:18304   */\n      dup2\n        /* \"#utility.yul\":18300:18313   */\n      gt\n        /* \"#utility.yul\":18297:18398   */\n      iszero\n      tag_404\n      jumpi\n        /* \"#utility.yul\":18386:18387   */\n      0x00\n        /* \"#utility.yul\":18377:18383   */\n      dup5\n        /* \"#utility.yul\":18372:18375   */\n      dup5\n        /* \"#utility.yul\":18368:18384   */\n      add\n        /* \"#utility.yul\":18361:18388   */\n      mstore\n        /* \"#utility.yul\":18297:18398   */\n    tag_404:\n        /* \"#utility.yul\":18146:18404   */\n      pop\n        /* \"#utility.yul\":18097:18404   */\n      pop\n      pop\n      pop\n      jump\t// out\n        /* \"#utility.yul\":18410:18730   */\n    tag_37:\n        /* \"#utility.yul\":18454:18460   */\n      0x00\n        /* \"#utility.yul\":18491:18492   */\n      0x02\n        /* \"#utility.yul\":18485:18489   */\n      dup3\n        /* \"#utility.yul\":18481:18493   */\n      div\n        /* \"#utility.yul\":18471:18493   */\n      swap1\n      pop\n        /* \"#utility.yul\":18538:18539   */\n      0x01\n        /* \"#utility.yul\":18532:18536   */\n      dup3\n        /* \"#utility.yul\":18528:18540   */\n      and\n        /* \"#utility.yul\":18559:18577   */\n      dup1\n        /* \"#utility.yul\":18549:18630   */\n      tag_406\n      jumpi\n        /* \"#utility.yul\":18615:18619   */\n      0x7f\n        /* \"#utility.yul\":18607:18613   */\n      dup3\n        /* \"#utility.yul\":18603:18620   */\n      and\n        /* \"#utility.yul\":18593:18620   */\n      swap2\n      pop\n        /* \"#utility.yul\":18549:18630   */\n    tag_406:\n        /* \"#utility.yul\":18677:18679   */\n      0x20\n        /* \"#utility.yul\":18669:18675   */\n      dup3\n        /* \"#utility.yul\":18666:18680   */\n      lt\n        /* \"#utility.yul\":18646:18664   */\n      dup2\n        /* \"#utility.yul\":18643:18681   */\n      eq\n        /* \"#utility.yul\":18640:18724   */\n      iszero\n      tag_407\n      jumpi\n        /* \"#utility.yul\":18696:18714   */\n      tag_408\n      tag_409\n      jump\t// in\n    tag_408:\n        /* \"#utility.yul\":18640:18724   */\n    tag_407:\n        /* \"#utility.yul\":18461:18730   */\n      pop\n        /* \"#utility.yul\":18410:18730   */\n      swap2\n      swap1\n      pop\n      jump\t// out\n        /* \"#utility.yul\":18736:19017   */\n    tag_369:\n        /* \"#utility.yul\":18819:18846   */\n      tag_411\n        /* \"#utility.yul\":18841:18845   */\n      dup3\n        /* \"#utility.yul\":18819:18846   */\n      tag_262\n      jump\t// in\n    tag_411:\n        /* \"#utility.yul\":18811:18817   */\n      dup2\n        /* \"#utility.yul\":18807:18847   */\n      add\n        /* \"#utility.yul\":18949:18955   */\n      dup2\n        /* \"#utility.yul\":18937:18947   */\n      dup2\n        /* \"#utility.yul\":18934:18956   */\n      lt\n        /* \"#utility.yul\":18913:18931   */\n      0xffffffffffffffff\n        /* \"#utility.yul\":18901:18911   */\n      dup3\n        /* \"#utility.yul\":18898:18932   */\n      gt\n        /* \"#utility.yul\":18895:18957   */\n      or\n        /* \"#utility.yul\":18892:18980   */\n      iszero\n      tag_412\n      jumpi\n        /* \"#utility.yul\":18960:18978   */\n      tag_413\n      tag_374\n      jump\t// in\n    tag_413:\n        /* \"#utility.yul\":18892:18980   */\n    tag_412:\n        /* \"#utility.yul\":19000:19010   */\n      dup1\n        /* \"#utility.yul\":18996:18998   */\n      0x40\n        /* \"#utility.yul\":18989:19011   */\n      mstore\n        /* \"#utility.yul\":18779:19017   */\n      pop\n        /* \"#utility.yul\":18736:19017   */\n      pop\n      pop\n      jump\t// out\n        /* \"#utility.yul\":19023:19203   */\n    tag_385:\n        /* \"#utility.yul\":19071:19148   */\n      0x4e487b7100000000000000000000000000000000000000000000000000000000\n        /* \"#utility.yul\":19068:19069   */\n      0x00\n        /* \"#utility.yul\":19061:19149   */\n      mstore\n        /* \"#utility.yul\":19168:19172   */\n      0x11\n        /* \"#utility.yul\":19165:19166   */\n      0x04\n        /* \"#utility.yul\":19158:19173   */\n      mstore\n        /* \"#utility.yul\":19192:19196   */\n      0x24\n        /* \"#utility.yul\":19189:19190   */\n      0x00\n        /* \"#utility.yul\":19182:19197   */\n      revert\n        /* \"#utility.yul\":19209:19389   */\n    tag_81:\n        /* \"#utility.yul\":19257:19334   */\n      0x4e487b7100000000000000000000000000000000000000000000000000000000\n        /* \"#utility.yul\":19254:19255   */\n      0x00\n        /* \"#utility.yul\":19247:19335   */\n      mstore\n        /* \"#utility.yul\":19354:19358   */\n      0x21\n        /* \"#utility.yul\":19351:19352   */\n      0x04\n        /* \"#utility.yul\":19344:19359   */\n      mstore\n        /* \"#utility.yul\":19378:19382   */\n      0x24\n        /* \"#utility.yul\":19375:19376   */\n      0x00\n        /* \"#utility.yul\":19368:19383   */\n      revert\n        /* \"#utility.yul\":19395:19575   */\n    tag_409:\n        /* \"#utility.yul\":19443:19520   */\n      0x4e487b7100000000000000000000000000000000000000000000000000000000\n        /* \"#utility.yul\":19440:19441   */\n      0x00\n        /* \"#utility.yul\":19433:19521   */\n      mstore\n        /* \"#utility.yul\":19540:19544   */\n      0x22\n        /* \"#utility.yul\":19537:19538   */\n      0x04\n        /* \"#utility.yul\":19530:19545   */\n      mstore\n        /* \"#utility.yul\":19564:19568   */\n      0x24\n        /* \"#utility.yul\":19561:19562   */\n      0x00\n        /* \"#utility.yul\":19554:19569   */\n      revert\n        /* \"#utility.yul\":19581:19761   */\n    tag_55:\n        /* \"#utility.yul\":19629:19706   */\n      0x4e487b7100000000000000000000000000000000000000000000000000000000\n        /* \"#utility.yul\":19626:19627   */\n      0x00\n        /* \"#utility.yul\":19619:19707   */\n      mstore\n        /* \"#utility.yul\":19726:19730   */\n      0x32\n        /* \"#utility.yul\":19723:19724   */\n      0x04\n        /* \"#utility.yul\":19716:19731   */\n      mstore\n        /* \"#utility.yul\":19750:19754   */\n      0x24\n        /* \"#utility.yul\":19747:19748   */\n      0x00\n        /* \"#utility.yul\":19740:19755   */\n      revert\n        /* \"#utility.yul\":19767:19947   */\n    tag_374:\n        /* \"#utility.yul\":19815:19892   */\n      0x4e487b7100000000000000000000000000000000000000000000000000000000\n        /* \"#utility.yul\":19812:19813   */\n      0x00\n        /* \"#utility.yul\":19805:19893   */\n      mstore\n        /* \"#utility.yul\":19912:19916   */\n      0x41\n        /* \"#utility.yul\":19909:19910   */\n      0x04\n        /* \"#utility.yul\":19902:19917   */\n      mstore\n        /* \"#utility.yul\":19936:19940   */\n      0x24\n        /* \"#utility.yul\":19933:19934   */\n      0x00\n        /* \"#utility.yul\":19926:19941   */\n      revert\n        /* \"#utility.yul\":19953:20070   */\n    tag_200:\n        /* \"#utility.yul\":20062:20063   */\n      0x00\n        /* \"#utility.yul\":20059:20060   */\n      dup1\n        /* \"#utility.yul\":20052:20064   */\n      revert\n        /* \"#utility.yul\":20076:20193   */\n    tag_197:\n        /* \"#utility.yul\":20185:20186   */\n      0x00\n        /* \"#utility.yul\":20182:20183   */\n      dup1\n        /* \"#utility.yul\":20175:20187   */\n      revert\n        /* \"#utility.yul\":20199:20316   */\n    tag_203:\n        /* \"#utility.yul\":20308:20309   */\n      0x00\n        /* \"#utility.yul\":20305:20306   */\n      dup1\n        /* \"#utility.yul\":20298:20310   */\n      revert\n        /* \"#utility.yul\":20322:20439   */\n    tag_186:\n        /* \"#utility.yul\":20431:20432   */\n      0x00\n        /* \"#utility.yul\":20428:20429   */\n      dup1\n        /* \"#utility.yul\":20421:20433   */\n      revert\n        /* \"#utility.yul\":20445:20562   */\n    tag_219:\n        /* \"#utility.yul\":20554:20555   */\n      0x00\n        /* \"#utility.yul\":20551:20552   */\n      dup1\n        /* \"#utility.yul\":20544:20556   */\n      revert\n        /* \"#utility.yul\":20568:20685   */\n    tag_216:\n        /* \"#utility.yul\":20677:20678   */\n      0x00\n        /* \"#utility.yul\":20674:20675   */\n      dup1\n        /* \"#utility.yul\":20667:20679   */\n      revert\n        /* \"#utility.yul\":20691:20793   */\n    tag_262:\n        /* \"#utility.yul\":20732:20738   */\n      0x00\n        /* \"#utility.yul\":20783:20785   */\n      0x1f\n        /* \"#utility.yul\":20779:20786   */\n      not\n        /* \"#utility.yul\":20774:20776   */\n      0x1f\n        /* \"#utility.yul\":20767:20772   */\n      dup4\n        /* \"#utility.yul\":20763:20777   */\n      add\n        /* \"#utility.yul\":20759:20787   */\n      and\n        /* \"#utility.yul\":20749:20787   */\n      swap1\n      pop\n        /* \"#utility.yul\":20691:20793   */\n      swap2\n      swap1\n      pop\n      jump\t// out\n        /* \"#utility.yul\":20799:21020   */\n    tag_299:\n        /* \"#utility.yul\":20939:20973   */\n      0x54686520617574686f722063616e6e6f742066756e64207468652070726f6a65\n        /* \"#utility.yul\":20935:20936   */\n      0x00\n        /* \"#utility.yul\":20927:20933   */\n      dup3\n        /* \"#utility.yul\":20923:20937   */\n      add\n        /* \"#utility.yul\":20916:20974   */\n      mstore\n        /* \"#utility.yul\":21008:21012   */\n      0x6374000000000000000000000000000000000000000000000000000000000000\n        /* \"#utility.yul\":21003:21005   */\n      0x20\n        /* \"#utility.yul\":20995:21001   */\n      dup3\n        /* \"#utility.yul\":20991:21006   */\n      add\n        /* \"#utility.yul\":20984:21013   */\n      mstore\n        /* \"#utility.yul\":20799:21020   */\n      pop\n      jump\t// out\n        /* \"#utility.yul\":21026:21203   */\n    tag_304:\n        /* \"#utility.yul\":21166:21195   */\n      0x4e6577207374617465206d75737420626520646966666572656e740000000000\n        /* \"#utility.yul\":21162:21163   */\n      0x00\n        /* \"#utility.yul\":21154:21160   */\n      dup3\n        /* \"#utility.yul\":21150:21164   */\n      add\n        /* \"#utility.yul\":21143:21196   */\n      mstore\n        /* \"#utility.yul\":21026:21203   */\n      pop\n      jump\t// out\n        /* \"#utility.yul\":21209:21435   */\n    tag_309:\n        /* \"#utility.yul\":21349:21383   */\n      0x66756e6472616973696e6720676f616c206d7573742062652067726561746572\n        /* \"#utility.yul\":21345:21346   */\n      0x00\n        /* \"#utility.yul\":21337:21343   */\n      dup3\n        /* \"#utility.yul\":21333:21347   */\n      add\n        /* \"#utility.yul\":21326:21384   */\n      mstore\n        /* \"#utility.yul\":21418:21427   */\n      0x207468616e203000000000000000000000000000000000000000000000000000\n        /* \"#utility.yul\":21413:21415   */\n      0x20\n        /* \"#utility.yul\":21405:21411   */\n      dup3\n        /* \"#utility.yul\":21401:21416   */\n      add\n        /* \"#utility.yul\":21394:21428   */\n      mstore\n        /* \"#utility.yul\":21209:21435   */\n      pop\n      jump\t// out\n        /* \"#utility.yul\":21441:21664   */\n    tag_314:\n        /* \"#utility.yul\":21581:21615   */\n      0x5468652066756e64696e67206f66207468652070726f6a65637420697320636c\n        /* \"#utility.yul\":21577:21578   */\n      0x00\n        /* \"#utility.yul\":21569:21575   */\n      dup3\n        /* \"#utility.yul\":21565:21579   */\n      add\n        /* \"#utility.yul\":21558:21616   */\n      mstore\n        /* \"#utility.yul\":21650:21656   */\n      0x6f73656400000000000000000000000000000000000000000000000000000000\n        /* \"#utility.yul\":21645:21647   */\n      0x20\n        /* \"#utility.yul\":21637:21643   */\n      dup3\n        /* \"#utility.yul\":21633:21648   */\n      add\n        /* \"#utility.yul\":21626:21657   */\n      mstore\n        /* \"#utility.yul\":21441:21664   */\n      pop\n      jump\t// out\n        /* \"#utility.yul\":21670:21904   */\n    tag_319:\n        /* \"#utility.yul\":21810:21844   */\n      0x4f6e6c7920617574686f722063616e206368616e676520746865207374617465\n        /* \"#utility.yul\":21806:21807   */\n      0x00\n        /* \"#utility.yul\":21798:21804   */\n      dup3\n        /* \"#utility.yul\":21794:21808   */\n      add\n        /* \"#utility.yul\":21787:21845   */\n      mstore\n        /* \"#utility.yul\":21879:21896   */\n      0x206f66207468652070726f6a6563740000000000000000000000000000000000\n        /* \"#utility.yul\":21874:21876   */\n      0x20\n        /* \"#utility.yul\":21866:21872   */\n      dup3\n        /* \"#utility.yul\":21862:21877   */\n      add\n        /* \"#utility.yul\":21855:21897   */\n      mstore\n        /* \"#utility.yul\":21670:21904   */\n      pop\n      jump\t// out\n        /* \"#utility.yul\":21910:22131   */\n    tag_324:\n        /* \"#utility.yul\":22050:22084   */\n      0x66756e6472616973696e67206d7573742062652067726561746572207468616e\n        /* \"#utility.yul\":22046:22047   */\n      0x00\n        /* \"#utility.yul\":22038:22044   */\n      dup3\n        /* \"#utility.yul\":22034:22048   */\n      add\n        /* \"#utility.yul\":22027:22085   */\n      mstore\n        /* \"#utility.yul\":22119:22123   */\n      0x2030000000000000000000000000000000000000000000000000000000000000\n        /* \"#utility.yul\":22114:22116   */\n      0x20\n        /* \"#utility.yul\":22106:22112   */\n      dup3\n        /* \"#utility.yul\":22102:22117   */\n      add\n        /* \"#utility.yul\":22095:22124   */\n      mstore\n        /* \"#utility.yul\":21910:22131   */\n      pop\n      jump\t// out\n        /* \"#utility.yul\":22137:22249   */\n    tag_394:\n        /* \"#utility.yul\":22217:22218   */\n      0x02\n        /* \"#utility.yul\":22210:22215   */\n      dup2\n        /* \"#utility.yul\":22207:22219   */\n      lt\n        /* \"#utility.yul\":22197:22243   */\n      tag_433\n      jumpi\n        /* \"#utility.yul\":22223:22241   */\n      tag_434\n      tag_81\n      jump\t// in\n    tag_434:\n        /* \"#utility.yul\":22197:22243   */\n    tag_433:\n        /* \"#utility.yul\":22137:22249   */\n      pop\n      jump\t// out\n        /* \"#utility.yul\":22255:22361   */\n    tag_192:\n        /* \"#utility.yul\":22335:22336   */\n      0x02\n        /* \"#utility.yul\":22328:22333   */\n      dup2\n        /* \"#utility.yul\":22325:22337   */\n      lt\n        /* \"#utility.yul\":22315:22355   */\n      tag_436\n      jumpi\n        /* \"#utility.yul\":22351:22352   */\n      0x00\n        /* \"#utility.yul\":22348:22349   */\n      dup1\n        /* \"#utility.yul\":22341:22353   */\n      revert\n        /* \"#utility.yul\":22315:22355   */\n    tag_436:\n        /* \"#utility.yul\":22255:22361   */\n      pop\n      jump\t// out\n        /* \"#utility.yul\":22367:22489   */\n    tag_212:\n        /* \"#utility.yul\":22440:22464   */\n      tag_438\n        /* \"#utility.yul\":22458:22463   */\n      dup2\n        /* \"#utility.yul\":22440:22464   */\n      tag_328\n      jump\t// in\n    tag_438:\n        /* \"#utility.yul\":22433:22438   */\n      dup2\n        /* \"#utility.yul\":22430:22465   */\n      eq\n        /* \"#utility.yul\":22420:22483   */\n      tag_439\n      jumpi\n        /* \"#utility.yul\":22479:22480   */\n      0x00\n        /* \"#utility.yul\":22476:22477   */\n      dup1\n        /* \"#utility.yul\":22469:22481   */\n      revert\n        /* \"#utility.yul\":22420:22483   */\n    tag_439:\n        /* \"#utility.yul\":22367:22489   */\n      pop\n      jump\t// out\n\n    auxdata: 0xa26469706673582212208db2cdaf1844ed5a5eb323747108df04b61cf47016955bb9c2124db09b9222b264736f6c63430008070033\n}\n",
				"bytecode": {
					"linkReferences": {},
					"object": "608060405234801561001057600080fd5b50611c9c806100206000396000f3fe60806040526004361061004a5760003560e01c8063107046bd1461004f57806317e925d7146100925780631ca73896146100bb5780636c563abe146100e45780637f3fcdd914610100575b600080fd5b34801561005b57600080fd5b5061007660048036038101906100719190611239565b61013e565b60405161008997969594939291906115b9565b60405180910390f35b34801561009e57600080fd5b506100b960048036038101906100b49190611266565b610355565b005b3480156100c757600080fd5b506100e260048036038101906100dd9190611114565b61089a565b005b6100fe60048036038101906100f99190611239565b610b67565b005b34801561010c57600080fd5b50610127600480360381019061012291906111dd565b610f0a565b604051610135929190611530565b60405180910390f35b6000818154811061014e57600080fd5b9060005260206000209060070201600091509050806000018054610171906118fa565b80601f016020809104026020016040519081016040528092919081815260200182805461019d906118fa565b80156101ea5780601f106101bf576101008083540402835291602001916101ea565b820191906000526020600020905b8154815290600101906020018083116101cd57829003601f168201915b5050505050908060010180546101ff906118fa565b80601f016020809104026020016040519081016040528092919081815260200182805461022b906118fa565b80156102785780601f1061024d57610100808354040283529160200191610278565b820191906000526020600020905b81548152906001019060200180831161025b57829003601f168201915b50505050509080600201805461028d906118fa565b80601f01602080910402602001604051908101604052809291908181526020018280546102b9906118fa565b80156103065780601f106102db57610100808354040283529160200191610306565b820191906000526020600020905b8154815290600101906020018083116102e957829003601f168201915b5050505050908060030154908060040160009054906101000a900473ffffffffffffffffffffffffffffffffffffffff16908060050154908060060160009054906101000a900460ff16905087565b816000818154811061036a576103696119ea565b5b906000526020600020906007020160040160009054906101000a900473ffffffffffffffffffffffffffffffffffffffff1673ffffffffffffffffffffffffffffffffffffffff163373ffffffffffffffffffffffffffffffffffffffff1614610409576040517f08c379a00000000000000000000000000000000000000000000000000000000081526004016104009061171d565b60405180910390fd5b600080848154811061041e5761041d6119ea565b5b90600052602060002090600702016040518060e0016040529081600082018054610447906118fa565b80601f0160208091040260200160405190810160405280929190818152602001828054610473906118fa565b80156104c05780601f10610495576101008083540402835291602001916104c0565b820191906000526020600020905b8154815290600101906020018083116104a357829003601f168201915b505050505081526020016001820180546104d9906118fa565b80601f0160208091040260200160405190810160405280929190818152602001828054610505906118fa565b80156105525780601f1061052757610100808354040283529160200191610552565b820191906000526020600020905b81548152906001019060200180831161053557829003601f168201915b5050505050815260200160028201805461056b906118fa565b80601f0160208091040260200160405190810160405280929190818152602001828054610597906118fa565b80156105e45780601f106105b9576101008083540402835291602001916105e4565b820191906000526020600020905b8154815290600101906020018083116105c757829003601f168201915b50505050508152602001600382015481526020016004820160009054906101000a900473ffffffffffffffffffffffffffffffffffffffff1673ffffffffffffffffffffffffffffffffffffffff1673ffffffffffffffffffffffffffffffffffffffff168152602001600582015481526020016006820160009054906101000a900460ff16600181111561067c5761067b61198c565b5b600181111561068e5761068d61198c565b5b8152505090508260018111156106a7576106a661198c565b5b8160c0015160018111156106be576106bd61198c565b5b14156106ff576040517f08c379a00000000000000000000000000000000000000000000000000000000081526004016106f6906116bd565b60405180910390fd5b828160c0019060018111156107175761071661198c565b5b9081600181111561072b5761072a61198c565b5b815250508060008581548110610744576107436119ea565b5b9060005260206000209060070201600082015181600001908051906020019061076e929190610f81565b50602082015181600101908051906020019061078b929190610f81565b5060408201518160020190805190602001906107a8929190610f81565b506060820151816003015560808201518160040160006101000a81548173ffffffffffffffffffffffffffffffffffffffff021916908373ffffffffffffffffffffffffffffffffffffffff16021790555060a0820151816005015560c08201518160060160006101000a81548160ff0219169083600181111561082f5761082e61198c565b5b02179055509050507fb364ab0cadec04bec8a97e81743129cecc3480279fb67b9378df4219238b250f6000858154811061086c5761086b6119ea565b5b90600052602060002090600702016000018460405161088c92919061163d565b60405180910390a150505050565b600081116108dd576040517f08c379a00000000000000000000000000000000000000000000000000000000081526004016108d4906116dd565b60405180910390fd5b60006040518060e0016040528089898080601f016020809104026020016040519081016040528093929190818152602001838380828437600081840152601f19601f82011690508083019250505050505050815260200187878080601f016020809104026020016040519081016040528093929190818152602001838380828437600081840152601f19601f82011690508083019250505050505050815260200185858080601f016020809104026020016040519081016040528093929190818152602001838380828437600081840152601f19601f8201169050808301925050505050505081526020018381526020013373ffffffffffffffffffffffffffffffffffffffff1681526020016000815260200160006001811115610a0557610a0461198c565b5b815250905060008190806001815401808255809150506001900390600052602060002090600702016000909190919091506000820151816000019080519060200190610a52929190610f81565b506020820151816001019080519060200190610a6f929190610f81565b506040820151816002019080519060200190610a8c929190610f81565b506060820151816003015560808201518160040160006101000a81548173ffffffffffffffffffffffffffffffffffffffff021916908373ffffffffffffffffffffffffffffffffffffffff16021790555060a0820151816005015560c08201518160060160006101000a81548160ff02191690836001811115610b1357610b1261198c565b5b021790555050507f95df29175008deb1f139c97a80ab29ee4f48d3bece10e0dc24beea55367aedff88888888888888604051610b559796959493929190611559565b60405180910390a15050505050505050565b8060008181548110610b7c57610b7b6119ea565b5b906000526020600020906007020160040160009054906101000a900473ffffffffffffffffffffffffffffffffffffffff1673ffffffffffffffffffffffffffffffffffffffff163373ffffffffffffffffffffffffffffffffffffffff161415610c1c576040517f08c379a0000000000000000000000000000000000000000000000000000000008152600401610c139061169d565b60405180910390fd5b600180811115610c2f57610c2e61198c565b5b60008381548110610c4357610c426119ea565b5b906000526020600020906007020160060160009054906101000a900460ff166001811115610c7457610c7361198c565b5b1415610cb5576040517f08c379a0000000000000000000000000000000000000000000000000000000008152600401610cac906116fd565b60405180910390fd5b60003411610cf8576040517f08c379a0000000000000000000000000000000000000000000000000000000008152600401610cef9061173d565b60405180910390fd5b60008281548110610d0c57610d0b6119ea565b5b906000526020600020906007020160040160009054906101000a900473ffffffffffffffffffffffffffffffffffffffff1673ffffffffffffffffffffffffffffffffffffffff166108fc349081150290604051600060405180830381858888f19350505050158015610d83573d6000803e3d6000fd5b503460008381548110610d9957610d986119ea565b5b90600052602060002090600702016005016000828254610db991906117ef565b92505081905550600160008381548110610dd657610dd56119ea565b5b9060005260206000209060070201600001604051610df49190611519565b908152602001604051809103902060405180604001604052803373ffffffffffffffffffffffffffffffffffffffff16815260200134815250908060018154018082558091505060019003906000526020600020906002020160009091909190915060008201518160000160006101000a81548173ffffffffffffffffffffffffffffffffffffffff021916908373ffffffffffffffffffffffffffffffffffffffff1602179055506020820151816001015550507f98a99e594dc0943c255bf9563ae2c4da6ffcfd06f78b396b88988548ac825ba860008381548110610ede57610edd6119ea565b5b906000526020600020906007020160000134604051610efe92919061166d565b60405180910390a15050565b6001828051602081018201805184825260208301602085012081835280955050505050508181548110610f3c57600080fd5b9060005260206000209060020201600091509150508060000160009054906101000a900473ffffffffffffffffffffffffffffffffffffffff16908060010154905082565b828054610f8d906118fa565b90600052602060002090601f016020900481019282610faf5760008555610ff6565b82601f10610fc857805160ff1916838001178555610ff6565b82800160010185558215610ff6579182015b82811115610ff5578251825591602001919060010190610fda565b5b5090506110039190611007565b5090565b5b80821115611020576000816000905550600101611008565b5090565b600061103761103284611782565b61175d565b90508281526020810184848401111561105357611052611a57565b5b61105e8482856118b8565b509392505050565b60008135905061107581611c3f565b92915050565b60008083601f84011261109157611090611a4d565b5b8235905067ffffffffffffffff8111156110ae576110ad611a48565b5b6020830191508360018202830111156110ca576110c9611a52565b5b9250929050565b600082601f8301126110e6576110e5611a4d565b5b81356110f6848260208601611024565b91505092915050565b60008135905061110e81611c4f565b92915050565b60008060008060008060006080888a03121561113357611132611a61565b5b600088013567ffffffffffffffff81111561115157611150611a5c565b5b61115d8a828b0161107b565b9750975050602088013567ffffffffffffffff8111156111805761117f611a5c565b5b61118c8a828b0161107b565b9550955050604088013567ffffffffffffffff8111156111af576111ae611a5c565b5b6111bb8a828b0161107b565b935093505060606111ce8a828b016110ff565b91505092959891949750929550565b600080604083850312156111f4576111f3611a61565b5b600083013567ffffffffffffffff81111561121257611211611a5c565b5b61121e858286016110d1565b925050602061122f858286016110ff565b9150509250929050565b60006020828403121561124f5761124e611a61565b5b600061125d848285016110ff565b91505092915050565b6000806040838503121561127d5761127c611a61565b5b600061128b858286016110ff565b925050602061129c85828601611066565b9150509250929050565b6112af81611857565b82525050565b6112be81611845565b82525050565b6112cd816118a6565b82525050565b60006112df83856117d3565b93506112ec8385846118b8565b6112f583611a66565b840190509392505050565b600061130b826117c8565b61131581856117d3565b93506113258185602086016118c7565b61132e81611a66565b840191505092915050565b60008154611346816118fa565b61135081866117d3565b9450600182166000811461136b576001811461137d576113b0565b60ff19831686526020860193506113b0565b611386856117b3565b60005b838110156113a857815481890152600182019150602081019050611389565b808801955050505b50505092915050565b600081546113c6816118fa565b6113d081866117e4565b945060018216600081146113eb57600181146113fc5761142f565b60ff1983168652818601935061142f565b611405856117b3565b60005b8381101561142757815481890152600182019150602081019050611408565b838801955050505b50505092915050565b60006114456022836117d3565b915061145082611a77565b604082019050919050565b6000611468601b836117d3565b915061147382611ac6565b602082019050919050565b600061148b6027836117d3565b915061149682611aef565b604082019050919050565b60006114ae6024836117d3565b91506114b982611b3e565b604082019050919050565b60006114d1602f836117d3565b91506114dc82611b8d565b604082019050919050565b60006114f46022836117d3565b91506114ff82611bdc565b604082019050919050565b6115138161189c565b82525050565b600061152582846113b9565b915081905092915050565b600060408201905061154560008301856112b5565b611552602083018461150a565b9392505050565b6000608082019050818103600083015261157481898b6112d3565b905081810360208301526115898187896112d3565b9050818103604083015261159e8185876112d3565b90506115ad606083018461150a565b98975050505050505050565b600060e08201905081810360008301526115d3818a611300565b905081810360208301526115e78189611300565b905081810360408301526115fb8188611300565b905061160a606083018761150a565b61161760808301866112a6565b61162460a083018561150a565b61163160c08301846112c4565b98975050505050505050565b600060408201905081810360008301526116578185611339565b905061166660208301846112c4565b9392505050565b600060408201905081810360008301526116878185611339565b9050611696602083018461150a565b9392505050565b600060208201905081810360008301526116b681611438565b9050919050565b600060208201905081810360008301526116d68161145b565b9050919050565b600060208201905081810360008301526116f68161147e565b9050919050565b60006020820190508181036000830152611716816114a1565b9050919050565b60006020820190508181036000830152611736816114c4565b9050919050565b60006020820190508181036000830152611756816114e7565b9050919050565b6000611767611778565b9050611773828261192c565b919050565b6000604051905090565b600067ffffffffffffffff82111561179d5761179c611a19565b5b6117a682611a66565b9050602081019050919050565b60008190508160005260206000209050919050565b600081519050919050565b600082825260208201905092915050565b600081905092915050565b60006117fa8261189c565b91506118058361189c565b9250827fffffffffffffffffffffffffffffffffffffffffffffffffffffffffffffffff0382111561183a5761183961195d565b5b828201905092915050565b60006118508261187c565b9050919050565b60006118628261187c565b9050919050565b600081905061187782611c2b565b919050565b600073ffffffffffffffffffffffffffffffffffffffff82169050919050565b6000819050919050565b60006118b182611869565b9050919050565b82818337600083830152505050565b60005b838110156118e55780820151818401526020810190506118ca565b838111156118f4576000848401525b50505050565b6000600282049050600182168061191257607f821691505b60208210811415611926576119256119bb565b5b50919050565b61193582611a66565b810181811067ffffffffffffffff8211171561195457611953611a19565b5b80604052505050565b7f4e487b7100000000000000000000000000000000000000000000000000000000600052601160045260246000fd5b7f4e487b7100000000000000000000000000000000000000000000000000000000600052602160045260246000fd5b7f4e487b7100000000000000000000000000000000000000000000000000000000600052602260045260246000fd5b7f4e487b7100000000000000000000000000000000000000000000000000000000600052603260045260246000fd5b7f4e487b7100000000000000000000000000000000000000000000000000000000600052604160045260246000fd5b600080fd5b600080fd5b600080fd5b600080fd5b600080fd5b600080fd5b6000601f19601f8301169050919050565b7f54686520617574686f722063616e6e6f742066756e64207468652070726f6a6560008201527f6374000000000000000000000000000000000000000000000000000000000000602082015250565b7f4e6577207374617465206d75737420626520646966666572656e740000000000600082015250565b7f66756e6472616973696e6720676f616c206d757374206265206772656174657260008201527f207468616e203000000000000000000000000000000000000000000000000000602082015250565b7f5468652066756e64696e67206f66207468652070726f6a65637420697320636c60008201527f6f73656400000000000000000000000000000000000000000000000000000000602082015250565b7f4f6e6c7920617574686f722063616e206368616e67652074686520737461746560008201527f206f66207468652070726f6a6563740000000000000000000000000000000000602082015250565b7f66756e6472616973696e67206d7573742062652067726561746572207468616e60008201527f2030000000000000000000000000000000000000000000000000000000000000602082015250565b60028110611c3c57611c3b61198c565b5b50565b60028110611c4c57600080fd5b50565b611c588161189c565b8114611c6357600080fd5b5056fea26469706673582212208db2cdaf1844ed5a5eb323747108df04b61cf47016955bb9c2124db09b9222b264736f6c63430008070033",
					"opcodes": "PUSH1 0x80 PUSH1 0x40 MSTORE CALLVALUE DUP1 ISZERO PUSH2 0x10 JUMPI PUSH1 0x0 DUP1 REVERT JUMPDEST POP PUSH2 0x1C9C DUP1 PUSH2 0x20 PUSH1 0x0 CODECOPY PUSH1 0x0 RETURN INVALID PUSH1 0x80 PUSH1 0x40 MSTORE PUSH1 0x4 CALLDATASIZE LT PUSH2 0x4A JUMPI PUSH1 0x0 CALLDATALOAD PUSH1 0xE0 SHR DUP1 PUSH4 0x107046BD EQ PUSH2 0x4F JUMPI DUP1 PUSH4 0x17E925D7 EQ PUSH2 0x92 JUMPI DUP1 PUSH4 0x1CA73896 EQ PUSH2 0xBB JUMPI DUP1 PUSH4 0x6C563ABE EQ PUSH2 0xE4 JUMPI DUP1 PUSH4 0x7F3FCDD9 EQ PUSH2 0x100 JUMPI JUMPDEST PUSH1 0x0 DUP1 REVERT JUMPDEST CALLVALUE DUP1 ISZERO PUSH2 0x5B JUMPI PUSH1 0x0 DUP1 REVERT JUMPDEST POP PUSH2 0x76 PUSH1 0x4 DUP1 CALLDATASIZE SUB DUP2 ADD SWAP1 PUSH2 0x71 SWAP2 SWAP1 PUSH2 0x1239 JUMP JUMPDEST PUSH2 0x13E JUMP JUMPDEST PUSH1 0x40 MLOAD PUSH2 0x89 SWAP8 SWAP7 SWAP6 SWAP5 SWAP4 SWAP3 SWAP2 SWAP1 PUSH2 0x15B9 JUMP JUMPDEST PUSH1 0x40 MLOAD DUP1 SWAP2 SUB SWAP1 RETURN JUMPDEST CALLVALUE DUP1 ISZERO PUSH2 0x9E JUMPI PUSH1 0x0 DUP1 REVERT JUMPDEST POP PUSH2 0xB9 PUSH1 0x4 DUP1 CALLDATASIZE SUB DUP2 ADD SWAP1 PUSH2 0xB4 SWAP2 SWAP1 PUSH2 0x1266 JUMP JUMPDEST PUSH2 0x355 JUMP JUMPDEST STOP JUMPDEST CALLVALUE DUP1 ISZERO PUSH2 0xC7 JUMPI PUSH1 0x0 DUP1 REVERT JUMPDEST POP PUSH2 0xE2 PUSH1 0x4 DUP1 CALLDATASIZE SUB DUP2 ADD SWAP1 PUSH2 0xDD SWAP2 SWAP1 PUSH2 0x1114 JUMP JUMPDEST PUSH2 0x89A JUMP JUMPDEST STOP JUMPDEST PUSH2 0xFE PUSH1 0x4 DUP1 CALLDATASIZE SUB DUP2 ADD SWAP1 PUSH2 0xF9 SWAP2 SWAP1 PUSH2 0x1239 JUMP JUMPDEST PUSH2 0xB67 JUMP JUMPDEST STOP JUMPDEST CALLVALUE DUP1 ISZERO PUSH2 0x10C JUMPI PUSH1 0x0 DUP1 REVERT JUMPDEST POP PUSH2 0x127 PUSH1 0x4 DUP1 CALLDATASIZE SUB DUP2 ADD SWAP1 PUSH2 0x122 SWAP2 SWAP1 PUSH2 0x11DD JUMP JUMPDEST PUSH2 0xF0A JUMP JUMPDEST PUSH1 0x40 MLOAD PUSH2 0x135 SWAP3 SWAP2 SWAP1 PUSH2 0x1530 JUMP JUMPDEST PUSH1 0x40 MLOAD DUP1 SWAP2 SUB SWAP1 RETURN JUMPDEST PUSH1 0x0 DUP2 DUP2 SLOAD DUP2 LT PUSH2 0x14E JUMPI PUSH1 0x0 DUP1 REVERT JUMPDEST SWAP1 PUSH1 0x0 MSTORE PUSH1 0x20 PUSH1 0x0 KECCAK256 SWAP1 PUSH1 0x7 MUL ADD PUSH1 0x0 SWAP2 POP SWAP1 POP DUP1 PUSH1 0x0 ADD DUP1 SLOAD PUSH2 0x171 SWAP1 PUSH2 0x18FA JUMP JUMPDEST DUP1 PUSH1 0x1F ADD PUSH1 0x20 DUP1 SWAP2 DIV MUL PUSH1 0x20 ADD PUSH1 0x40 MLOAD SWAP1 DUP2 ADD PUSH1 0x40 MSTORE DUP1 SWAP3 SWAP2 SWAP1 DUP2 DUP2 MSTORE PUSH1 0x20 ADD DUP3 DUP1 SLOAD PUSH2 0x19D SWAP1 PUSH2 0x18FA JUMP JUMPDEST DUP1 ISZERO PUSH2 0x1EA JUMPI DUP1 PUSH1 0x1F LT PUSH2 0x1BF JUMPI PUSH2 0x100 DUP1 DUP4 SLOAD DIV MUL DUP4 MSTORE SWAP2 PUSH1 0x20 ADD SWAP2 PUSH2 0x1EA JUMP JUMPDEST DUP3 ADD SWAP2 SWAP1 PUSH1 0x0 MSTORE PUSH1 0x20 PUSH1 0x0 KECCAK256 SWAP1 JUMPDEST DUP2 SLOAD DUP2 MSTORE SWAP1 PUSH1 0x1 ADD SWAP1 PUSH1 0x20 ADD DUP1 DUP4 GT PUSH2 0x1CD JUMPI DUP3 SWAP1 SUB PUSH1 0x1F AND DUP3 ADD SWAP2 JUMPDEST POP POP POP POP POP SWAP1 DUP1 PUSH1 0x1 ADD DUP1 SLOAD PUSH2 0x1FF SWAP1 PUSH2 0x18FA JUMP JUMPDEST DUP1 PUSH1 0x1F ADD PUSH1 0x20 DUP1 SWAP2 DIV MUL PUSH1 0x20 ADD PUSH1 0x40 MLOAD SWAP1 DUP2 ADD PUSH1 0x40 MSTORE DUP1 SWAP3 SWAP2 SWAP1 DUP2 DUP2 MSTORE PUSH1 0x20 ADD DUP3 DUP1 SLOAD PUSH2 0x22B SWAP1 PUSH2 0x18FA JUMP JUMPDEST DUP1 ISZERO PUSH2 0x278 JUMPI DUP1 PUSH1 0x1F LT PUSH2 0x24D JUMPI PUSH2 0x100 DUP1 DUP4 SLOAD DIV MUL DUP4 MSTORE SWAP2 PUSH1 0x20 ADD SWAP2 PUSH2 0x278 JUMP JUMPDEST DUP3 ADD SWAP2 SWAP1 PUSH1 0x0 MSTORE PUSH1 0x20 PUSH1 0x0 KECCAK256 SWAP1 JUMPDEST DUP2 SLOAD DUP2 MSTORE SWAP1 PUSH1 0x1 ADD SWAP1 PUSH1 0x20 ADD DUP1 DUP4 GT PUSH2 0x25B JUMPI DUP3 SWAP1 SUB PUSH1 0x1F AND DUP3 ADD SWAP2 JUMPDEST POP POP POP POP POP SWAP1 DUP1 PUSH1 0x2 ADD DUP1 SLOAD PUSH2 0x28D SWAP1 PUSH2 0x18FA JUMP JUMPDEST DUP1 PUSH1 0x1F ADD PUSH1 0x20 DUP1 SWAP2 DIV MUL PUSH1 0x20 ADD PUSH1 0x40 MLOAD SWAP1 DUP2 ADD PUSH1 0x40 MSTORE DUP1 SWAP3 SWAP2 SWAP1 DUP2 DUP2 MSTORE PUSH1 0x20 ADD DUP3 DUP1 SLOAD PUSH2 0x2B9 SWAP1 PUSH2 0x18FA JUMP JUMPDEST DUP1 ISZERO PUSH2 0x306 JUMPI DUP1 PUSH1 0x1F LT PUSH2 0x2DB JUMPI PUSH2 0x100 DUP1 DUP4 SLOAD DIV MUL DUP4 MSTORE SWAP2 PUSH1 0x20 ADD SWAP2 PUSH2 0x306 JUMP JUMPDEST DUP3 ADD SWAP2 SWAP1 PUSH1 0x0 MSTORE PUSH1 0x20 PUSH1 0x0 KECCAK256 SWAP1 JUMPDEST DUP2 SLOAD DUP2 MSTORE SWAP1 PUSH1 0x1 ADD SWAP1 PUSH1 0x20 ADD DUP1 DUP4 GT PUSH2 0x2E9 JUMPI DUP3 SWAP1 SUB PUSH1 0x1F AND DUP3 ADD SWAP2 JUMPDEST POP POP POP POP POP SWAP1 DUP1 PUSH1 0x3 ADD SLOAD SWAP1 DUP1 PUSH1 0x4 ADD PUSH1 0x0 SWAP1 SLOAD SWAP1 PUSH2 0x100 EXP SWAP1 DIV PUSH20 0xFFFFFFFFFFFFFFFFFFFFFFFFFFFFFFFFFFFFFFFF AND SWAP1 DUP1 PUSH1 0x5 ADD SLOAD SWAP1 DUP1 PUSH1 0x6 ADD PUSH1 0x0 SWAP1 SLOAD SWAP1 PUSH2 0x100 EXP SWAP1 DIV PUSH1 0xFF AND SWAP1 POP DUP8 JUMP JUMPDEST DUP2 PUSH1 0x0 DUP2 DUP2 SLOAD DUP2 LT PUSH2 0x36A JUMPI PUSH2 0x369 PUSH2 0x19EA JUMP JUMPDEST JUMPDEST SWAP1 PUSH1 0x0 MSTORE PUSH1 0x20 PUSH1 0x0 KECCAK256 SWAP1 PUSH1 0x7 MUL ADD PUSH1 0x4 ADD PUSH1 0x0 SWAP1 SLOAD SWAP1 PUSH2 0x100 EXP SWAP1 DIV PUSH20 0xFFFFFFFFFFFFFFFFFFFFFFFFFFFFFFFFFFFFFFFF AND PUSH20 0xFFFFFFFFFFFFFFFFFFFFFFFFFFFFFFFFFFFFFFFF AND CALLER PUSH20 0xFFFFFFFFFFFFFFFFFFFFFFFFFFFFFFFFFFFFFFFF AND EQ PUSH2 0x409 JUMPI PUSH1 0x40 MLOAD PUSH32 0x8C379A000000000000000000000000000000000000000000000000000000000 DUP2 MSTORE PUSH1 0x4 ADD PUSH2 0x400 SWAP1 PUSH2 0x171D JUMP JUMPDEST PUSH1 0x40 MLOAD DUP1 SWAP2 SUB SWAP1 REVERT JUMPDEST PUSH1 0x0 DUP1 DUP5 DUP2 SLOAD DUP2 LT PUSH2 0x41E JUMPI PUSH2 0x41D PUSH2 0x19EA JUMP JUMPDEST JUMPDEST SWAP1 PUSH1 0x0 MSTORE PUSH1 0x20 PUSH1 0x0 KECCAK256 SWAP1 PUSH1 0x7 MUL ADD PUSH1 0x40 MLOAD DUP1 PUSH1 0xE0 ADD PUSH1 0x40 MSTORE SWAP1 DUP2 PUSH1 0x0 DUP3 ADD DUP1 SLOAD PUSH2 0x447 SWAP1 PUSH2 0x18FA JUMP JUMPDEST DUP1 PUSH1 0x1F ADD PUSH1 0x20 DUP1 SWAP2 DIV MUL PUSH1 0x20 ADD PUSH1 0x40 MLOAD SWAP1 DUP2 ADD PUSH1 0x40 MSTORE DUP1 SWAP3 SWAP2 SWAP1 DUP2 DUP2 MSTORE PUSH1 0x20 ADD DUP3 DUP1 SLOAD PUSH2 0x473 SWAP1 PUSH2 0x18FA JUMP JUMPDEST DUP1 ISZERO PUSH2 0x4C0 JUMPI DUP1 PUSH1 0x1F LT PUSH2 0x495 JUMPI PUSH2 0x100 DUP1 DUP4 SLOAD DIV MUL DUP4 MSTORE SWAP2 PUSH1 0x20 ADD SWAP2 PUSH2 0x4C0 JUMP JUMPDEST DUP3 ADD SWAP2 SWAP1 PUSH1 0x0 MSTORE PUSH1 0x20 PUSH1 0x0 KECCAK256 SWAP1 JUMPDEST DUP2 SLOAD DUP2 MSTORE SWAP1 PUSH1 0x1 ADD SWAP1 PUSH1 0x20 ADD DUP1 DUP4 GT PUSH2 0x4A3 JUMPI DUP3 SWAP1 SUB PUSH1 0x1F AND DUP3 ADD SWAP2 JUMPDEST POP POP POP POP POP DUP2 MSTORE PUSH1 0x20 ADD PUSH1 0x1 DUP3 ADD DUP1 SLOAD PUSH2 0x4D9 SWAP1 PUSH2 0x18FA JUMP JUMPDEST DUP1 PUSH1 0x1F ADD PUSH1 0x20 DUP1 SWAP2 DIV MUL PUSH1 0x20 ADD PUSH1 0x40 MLOAD SWAP1 DUP2 ADD PUSH1 0x40 MSTORE DUP1 SWAP3 SWAP2 SWAP1 DUP2 DUP2 MSTORE PUSH1 0x20 ADD DUP3 DUP1 SLOAD PUSH2 0x505 SWAP1 PUSH2 0x18FA JUMP JUMPDEST DUP1 ISZERO PUSH2 0x552 JUMPI DUP1 PUSH1 0x1F LT PUSH2 0x527 JUMPI PUSH2 0x100 DUP1 DUP4 SLOAD DIV MUL DUP4 MSTORE SWAP2 PUSH1 0x20 ADD SWAP2 PUSH2 0x552 JUMP JUMPDEST DUP3 ADD SWAP2 SWAP1 PUSH1 0x0 MSTORE PUSH1 0x20 PUSH1 0x0 KECCAK256 SWAP1 JUMPDEST DUP2 SLOAD DUP2 MSTORE SWAP1 PUSH1 0x1 ADD SWAP1 PUSH1 0x20 ADD DUP1 DUP4 GT PUSH2 0x535 JUMPI DUP3 SWAP1 SUB PUSH1 0x1F AND DUP3 ADD SWAP2 JUMPDEST POP POP POP POP POP DUP2 MSTORE PUSH1 0x20 ADD PUSH1 0x2 DUP3 ADD DUP1 SLOAD PUSH2 0x56B SWAP1 PUSH2 0x18FA JUMP JUMPDEST DUP1 PUSH1 0x1F ADD PUSH1 0x20 DUP1 SWAP2 DIV MUL PUSH1 0x20 ADD PUSH1 0x40 MLOAD SWAP1 DUP2 ADD PUSH1 0x40 MSTORE DUP1 SWAP3 SWAP2 SWAP1 DUP2 DUP2 MSTORE PUSH1 0x20 ADD DUP3 DUP1 SLOAD PUSH2 0x597 SWAP1 PUSH2 0x18FA JUMP JUMPDEST DUP1 ISZERO PUSH2 0x5E4 JUMPI DUP1 PUSH1 0x1F LT PUSH2 0x5B9 JUMPI PUSH2 0x100 DUP1 DUP4 SLOAD DIV MUL DUP4 MSTORE SWAP2 PUSH1 0x20 ADD SWAP2 PUSH2 0x5E4 JUMP JUMPDEST DUP3 ADD SWAP2 SWAP1 PUSH1 0x0 MSTORE PUSH1 0x20 PUSH1 0x0 KECCAK256 SWAP1 JUMPDEST DUP2 SLOAD DUP2 MSTORE SWAP1 PUSH1 0x1 ADD SWAP1 PUSH1 0x20 ADD DUP1 DUP4 GT PUSH2 0x5C7 JUMPI DUP3 SWAP1 SUB PUSH1 0x1F AND DUP3 ADD SWAP2 JUMPDEST POP POP POP POP POP DUP2 MSTORE PUSH1 0x20 ADD PUSH1 0x3 DUP3 ADD SLOAD DUP2 MSTORE PUSH1 0x20 ADD PUSH1 0x4 DUP3 ADD PUSH1 0x0 SWAP1 SLOAD SWAP1 PUSH2 0x100 EXP SWAP1 DIV PUSH20 0xFFFFFFFFFFFFFFFFFFFFFFFFFFFFFFFFFFFFFFFF AND PUSH20 0xFFFFFFFFFFFFFFFFFFFFFFFFFFFFFFFFFFFFFFFF AND PUSH20 0xFFFFFFFFFFFFFFFFFFFFFFFFFFFFFFFFFFFFFFFF AND DUP2 MSTORE PUSH1 0x20 ADD PUSH1 0x5 DUP3 ADD SLOAD DUP2 MSTORE PUSH1 0x20 ADD PUSH1 0x6 DUP3 ADD PUSH1 0x0 SWAP1 SLOAD SWAP1 PUSH2 0x100 EXP SWAP1 DIV PUSH1 0xFF AND PUSH1 0x1 DUP2 GT ISZERO PUSH2 0x67C JUMPI PUSH2 0x67B PUSH2 0x198C JUMP JUMPDEST JUMPDEST PUSH1 0x1 DUP2 GT ISZERO PUSH2 0x68E JUMPI PUSH2 0x68D PUSH2 0x198C JUMP JUMPDEST JUMPDEST DUP2 MSTORE POP POP SWAP1 POP DUP3 PUSH1 0x1 DUP2 GT ISZERO PUSH2 0x6A7 JUMPI PUSH2 0x6A6 PUSH2 0x198C JUMP JUMPDEST JUMPDEST DUP2 PUSH1 0xC0 ADD MLOAD PUSH1 0x1 DUP2 GT ISZERO PUSH2 0x6BE JUMPI PUSH2 0x6BD PUSH2 0x198C JUMP JUMPDEST JUMPDEST EQ ISZERO PUSH2 0x6FF JUMPI PUSH1 0x40 MLOAD PUSH32 0x8C379A000000000000000000000000000000000000000000000000000000000 DUP2 MSTORE PUSH1 0x4 ADD PUSH2 0x6F6 SWAP1 PUSH2 0x16BD JUMP JUMPDEST PUSH1 0x40 MLOAD DUP1 SWAP2 SUB SWAP1 REVERT JUMPDEST DUP3 DUP2 PUSH1 0xC0 ADD SWAP1 PUSH1 0x1 DUP2 GT ISZERO PUSH2 0x717 JUMPI PUSH2 0x716 PUSH2 0x198C JUMP JUMPDEST JUMPDEST SWAP1 DUP2 PUSH1 0x1 DUP2 GT ISZERO PUSH2 0x72B JUMPI PUSH2 0x72A PUSH2 0x198C JUMP JUMPDEST JUMPDEST DUP2 MSTORE POP POP DUP1 PUSH1 0x0 DUP6 DUP2 SLOAD DUP2 LT PUSH2 0x744 JUMPI PUSH2 0x743 PUSH2 0x19EA JUMP JUMPDEST JUMPDEST SWAP1 PUSH1 0x0 MSTORE PUSH1 0x20 PUSH1 0x0 KECCAK256 SWAP1 PUSH1 0x7 MUL ADD PUSH1 0x0 DUP3 ADD MLOAD DUP2 PUSH1 0x0 ADD SWAP1 DUP1 MLOAD SWAP1 PUSH1 0x20 ADD SWAP1 PUSH2 0x76E SWAP3 SWAP2 SWAP1 PUSH2 0xF81 JUMP JUMPDEST POP PUSH1 0x20 DUP3 ADD MLOAD DUP2 PUSH1 0x1 ADD SWAP1 DUP1 MLOAD SWAP1 PUSH1 0x20 ADD SWAP1 PUSH2 0x78B SWAP3 SWAP2 SWAP1 PUSH2 0xF81 JUMP JUMPDEST POP PUSH1 0x40 DUP3 ADD MLOAD DUP2 PUSH1 0x2 ADD SWAP1 DUP1 MLOAD SWAP1 PUSH1 0x20 ADD SWAP1 PUSH2 0x7A8 SWAP3 SWAP2 SWAP1 PUSH2 0xF81 JUMP JUMPDEST POP PUSH1 0x60 DUP3 ADD MLOAD DUP2 PUSH1 0x3 ADD SSTORE PUSH1 0x80 DUP3 ADD MLOAD DUP2 PUSH1 0x4 ADD PUSH1 0x0 PUSH2 0x100 EXP DUP2 SLOAD DUP2 PUSH20 0xFFFFFFFFFFFFFFFFFFFFFFFFFFFFFFFFFFFFFFFF MUL NOT AND SWAP1 DUP4 PUSH20 0xFFFFFFFFFFFFFFFFFFFFFFFFFFFFFFFFFFFFFFFF AND MUL OR SWAP1 SSTORE POP PUSH1 0xA0 DUP3 ADD MLOAD DUP2 PUSH1 0x5 ADD SSTORE PUSH1 0xC0 DUP3 ADD MLOAD DUP2 PUSH1 0x6 ADD PUSH1 0x0 PUSH2 0x100 EXP DUP2 SLOAD DUP2 PUSH1 0xFF MUL NOT AND SWAP1 DUP4 PUSH1 0x1 DUP2 GT ISZERO PUSH2 0x82F JUMPI PUSH2 0x82E PUSH2 0x198C JUMP JUMPDEST JUMPDEST MUL OR SWAP1 SSTORE POP SWAP1 POP POP PUSH32 0xB364AB0CADEC04BEC8A97E81743129CECC3480279FB67B9378DF4219238B250F PUSH1 0x0 DUP6 DUP2 SLOAD DUP2 LT PUSH2 0x86C JUMPI PUSH2 0x86B PUSH2 0x19EA JUMP JUMPDEST JUMPDEST SWAP1 PUSH1 0x0 MSTORE PUSH1 0x20 PUSH1 0x0 KECCAK256 SWAP1 PUSH1 0x7 MUL ADD PUSH1 0x0 ADD DUP5 PUSH1 0x40 MLOAD PUSH2 0x88C SWAP3 SWAP2 SWAP1 PUSH2 0x163D JUMP JUMPDEST PUSH1 0x40 MLOAD DUP1 SWAP2 SUB SWAP1 LOG1 POP POP POP POP JUMP JUMPDEST PUSH1 0x0 DUP2 GT PUSH2 0x8DD JUMPI PUSH1 0x40 MLOAD PUSH32 0x8C379A000000000000000000000000000000000000000000000000000000000 DUP2 MSTORE PUSH1 0x4 ADD PUSH2 0x8D4 SWAP1 PUSH2 0x16DD JUMP JUMPDEST PUSH1 0x40 MLOAD DUP1 SWAP2 SUB SWAP1 REVERT JUMPDEST PUSH1 0x0 PUSH1 0x40 MLOAD DUP1 PUSH1 0xE0 ADD PUSH1 0x40 MSTORE DUP1 DUP10 DUP10 DUP1 DUP1 PUSH1 0x1F ADD PUSH1 0x20 DUP1 SWAP2 DIV MUL PUSH1 0x20 ADD PUSH1 0x40 MLOAD SWAP1 DUP2 ADD PUSH1 0x40 MSTORE DUP1 SWAP4 SWAP3 SWAP2 SWAP1 DUP2 DUP2 MSTORE PUSH1 0x20 ADD DUP4 DUP4 DUP1 DUP3 DUP5 CALLDATACOPY PUSH1 0x0 DUP2 DUP5 ADD MSTORE PUSH1 0x1F NOT PUSH1 0x1F DUP3 ADD AND SWAP1 POP DUP1 DUP4 ADD SWAP3 POP POP POP POP POP POP POP DUP2 MSTORE PUSH1 0x20 ADD DUP8 DUP8 DUP1 DUP1 PUSH1 0x1F ADD PUSH1 0x20 DUP1 SWAP2 DIV MUL PUSH1 0x20 ADD PUSH1 0x40 MLOAD SWAP1 DUP2 ADD PUSH1 0x40 MSTORE DUP1 SWAP4 SWAP3 SWAP2 SWAP1 DUP2 DUP2 MSTORE PUSH1 0x20 ADD DUP4 DUP4 DUP1 DUP3 DUP5 CALLDATACOPY PUSH1 0x0 DUP2 DUP5 ADD MSTORE PUSH1 0x1F NOT PUSH1 0x1F DUP3 ADD AND SWAP1 POP DUP1 DUP4 ADD SWAP3 POP POP POP POP POP POP POP DUP2 MSTORE PUSH1 0x20 ADD DUP6 DUP6 DUP1 DUP1 PUSH1 0x1F ADD PUSH1 0x20 DUP1 SWAP2 DIV MUL PUSH1 0x20 ADD PUSH1 0x40 MLOAD SWAP1 DUP2 ADD PUSH1 0x40 MSTORE DUP1 SWAP4 SWAP3 SWAP2 SWAP1 DUP2 DUP2 MSTORE PUSH1 0x20 ADD DUP4 DUP4 DUP1 DUP3 DUP5 CALLDATACOPY PUSH1 0x0 DUP2 DUP5 ADD MSTORE PUSH1 0x1F NOT PUSH1 0x1F DUP3 ADD AND SWAP1 POP DUP1 DUP4 ADD SWAP3 POP POP POP POP POP POP POP DUP2 MSTORE PUSH1 0x20 ADD DUP4 DUP2 MSTORE PUSH1 0x20 ADD CALLER PUSH20 0xFFFFFFFFFFFFFFFFFFFFFFFFFFFFFFFFFFFFFFFF AND DUP2 MSTORE PUSH1 0x20 ADD PUSH1 0x0 DUP2 MSTORE PUSH1 0x20 ADD PUSH1 0x0 PUSH1 0x1 DUP2 GT ISZERO PUSH2 0xA05 JUMPI PUSH2 0xA04 PUSH2 0x198C JUMP JUMPDEST JUMPDEST DUP2 MSTORE POP SWAP1 POP PUSH1 0x0 DUP2 SWAP1 DUP1 PUSH1 0x1 DUP2 SLOAD ADD DUP1 DUP3 SSTORE DUP1 SWAP2 POP POP PUSH1 0x1 SWAP1 SUB SWAP1 PUSH1 0x0 MSTORE PUSH1 0x20 PUSH1 0x0 KECCAK256 SWAP1 PUSH1 0x7 MUL ADD PUSH1 0x0 SWAP1 SWAP2 SWAP1 SWAP2 SWAP1 SWAP2 POP PUSH1 0x0 DUP3 ADD MLOAD DUP2 PUSH1 0x0 ADD SWAP1 DUP1 MLOAD SWAP1 PUSH1 0x20 ADD SWAP1 PUSH2 0xA52 SWAP3 SWAP2 SWAP1 PUSH2 0xF81 JUMP JUMPDEST POP PUSH1 0x20 DUP3 ADD MLOAD DUP2 PUSH1 0x1 ADD SWAP1 DUP1 MLOAD SWAP1 PUSH1 0x20 ADD SWAP1 PUSH2 0xA6F SWAP3 SWAP2 SWAP1 PUSH2 0xF81 JUMP JUMPDEST POP PUSH1 0x40 DUP3 ADD MLOAD DUP2 PUSH1 0x2 ADD SWAP1 DUP1 MLOAD SWAP1 PUSH1 0x20 ADD SWAP1 PUSH2 0xA8C SWAP3 SWAP2 SWAP1 PUSH2 0xF81 JUMP JUMPDEST POP PUSH1 0x60 DUP3 ADD MLOAD DUP2 PUSH1 0x3 ADD SSTORE PUSH1 0x80 DUP3 ADD MLOAD DUP2 PUSH1 0x4 ADD PUSH1 0x0 PUSH2 0x100 EXP DUP2 SLOAD DUP2 PUSH20 0xFFFFFFFFFFFFFFFFFFFFFFFFFFFFFFFFFFFFFFFF MUL NOT AND SWAP1 DUP4 PUSH20 0xFFFFFFFFFFFFFFFFFFFFFFFFFFFFFFFFFFFFFFFF AND MUL OR SWAP1 SSTORE POP PUSH1 0xA0 DUP3 ADD MLOAD DUP2 PUSH1 0x5 ADD SSTORE PUSH1 0xC0 DUP3 ADD MLOAD DUP2 PUSH1 0x6 ADD PUSH1 0x0 PUSH2 0x100 EXP DUP2 SLOAD DUP2 PUSH1 0xFF MUL NOT AND SWAP1 DUP4 PUSH1 0x1 DUP2 GT ISZERO PUSH2 0xB13 JUMPI PUSH2 0xB12 PUSH2 0x198C JUMP JUMPDEST JUMPDEST MUL OR SWAP1 SSTORE POP POP POP PUSH32 0x95DF29175008DEB1F139C97A80AB29EE4F48D3BECE10E0DC24BEEA55367AEDFF DUP9 DUP9 DUP9 DUP9 DUP9 DUP9 DUP9 PUSH1 0x40 MLOAD PUSH2 0xB55 SWAP8 SWAP7 SWAP6 SWAP5 SWAP4 SWAP3 SWAP2 SWAP1 PUSH2 0x1559 JUMP JUMPDEST PUSH1 0x40 MLOAD DUP1 SWAP2 SUB SWAP1 LOG1 POP POP POP POP POP POP POP POP JUMP JUMPDEST DUP1 PUSH1 0x0 DUP2 DUP2 SLOAD DUP2 LT PUSH2 0xB7C JUMPI PUSH2 0xB7B PUSH2 0x19EA JUMP JUMPDEST JUMPDEST SWAP1 PUSH1 0x0 MSTORE PUSH1 0x20 PUSH1 0x0 KECCAK256 SWAP1 PUSH1 0x7 MUL ADD PUSH1 0x4 ADD PUSH1 0x0 SWAP1 SLOAD SWAP1 PUSH2 0x100 EXP SWAP1 DIV PUSH20 0xFFFFFFFFFFFFFFFFFFFFFFFFFFFFFFFFFFFFFFFF AND PUSH20 0xFFFFFFFFFFFFFFFFFFFFFFFFFFFFFFFFFFFFFFFF AND CALLER PUSH20 0xFFFFFFFFFFFFFFFFFFFFFFFFFFFFFFFFFFFFFFFF AND EQ ISZERO PUSH2 0xC1C JUMPI PUSH1 0x40 MLOAD PUSH32 0x8C379A000000000000000000000000000000000000000000000000000000000 DUP2 MSTORE PUSH1 0x4 ADD PUSH2 0xC13 SWAP1 PUSH2 0x169D JUMP JUMPDEST PUSH1 0x40 MLOAD DUP1 SWAP2 SUB SWAP1 REVERT JUMPDEST PUSH1 0x1 DUP1 DUP2 GT ISZERO PUSH2 0xC2F JUMPI PUSH2 0xC2E PUSH2 0x198C JUMP JUMPDEST JUMPDEST PUSH1 0x0 DUP4 DUP2 SLOAD DUP2 LT PUSH2 0xC43 JUMPI PUSH2 0xC42 PUSH2 0x19EA JUMP JUMPDEST JUMPDEST SWAP1 PUSH1 0x0 MSTORE PUSH1 0x20 PUSH1 0x0 KECCAK256 SWAP1 PUSH1 0x7 MUL ADD PUSH1 0x6 ADD PUSH1 0x0 SWAP1 SLOAD SWAP1 PUSH2 0x100 EXP SWAP1 DIV PUSH1 0xFF AND PUSH1 0x1 DUP2 GT ISZERO PUSH2 0xC74 JUMPI PUSH2 0xC73 PUSH2 0x198C JUMP JUMPDEST JUMPDEST EQ ISZERO PUSH2 0xCB5 JUMPI PUSH1 0x40 MLOAD PUSH32 0x8C379A000000000000000000000000000000000000000000000000000000000 DUP2 MSTORE PUSH1 0x4 ADD PUSH2 0xCAC SWAP1 PUSH2 0x16FD JUMP JUMPDEST PUSH1 0x40 MLOAD DUP1 SWAP2 SUB SWAP1 REVERT JUMPDEST PUSH1 0x0 CALLVALUE GT PUSH2 0xCF8 JUMPI PUSH1 0x40 MLOAD PUSH32 0x8C379A000000000000000000000000000000000000000000000000000000000 DUP2 MSTORE PUSH1 0x4 ADD PUSH2 0xCEF SWAP1 PUSH2 0x173D JUMP JUMPDEST PUSH1 0x40 MLOAD DUP1 SWAP2 SUB SWAP1 REVERT JUMPDEST PUSH1 0x0 DUP3 DUP2 SLOAD DUP2 LT PUSH2 0xD0C JUMPI PUSH2 0xD0B PUSH2 0x19EA JUMP JUMPDEST JUMPDEST SWAP1 PUSH1 0x0 MSTORE PUSH1 0x20 PUSH1 0x0 KECCAK256 SWAP1 PUSH1 0x7 MUL ADD PUSH1 0x4 ADD PUSH1 0x0 SWAP1 SLOAD SWAP1 PUSH2 0x100 EXP SWAP1 DIV PUSH20 0xFFFFFFFFFFFFFFFFFFFFFFFFFFFFFFFFFFFFFFFF AND PUSH20 0xFFFFFFFFFFFFFFFFFFFFFFFFFFFFFFFFFFFFFFFF AND PUSH2 0x8FC CALLVALUE SWAP1 DUP2 ISZERO MUL SWAP1 PUSH1 0x40 MLOAD PUSH1 0x0 PUSH1 0x40 MLOAD DUP1 DUP4 SUB DUP2 DUP6 DUP9 DUP9 CALL SWAP4 POP POP POP POP ISZERO DUP1 ISZERO PUSH2 0xD83 JUMPI RETURNDATASIZE PUSH1 0x0 DUP1 RETURNDATACOPY RETURNDATASIZE PUSH1 0x0 REVERT JUMPDEST POP CALLVALUE PUSH1 0x0 DUP4 DUP2 SLOAD DUP2 LT PUSH2 0xD99 JUMPI PUSH2 0xD98 PUSH2 0x19EA JUMP JUMPDEST JUMPDEST SWAP1 PUSH1 0x0 MSTORE PUSH1 0x20 PUSH1 0x0 KECCAK256 SWAP1 PUSH1 0x7 MUL ADD PUSH1 0x5 ADD PUSH1 0x0 DUP3 DUP3 SLOAD PUSH2 0xDB9 SWAP2 SWAP1 PUSH2 0x17EF JUMP JUMPDEST SWAP3 POP POP DUP2 SWAP1 SSTORE POP PUSH1 0x1 PUSH1 0x0 DUP4 DUP2 SLOAD DUP2 LT PUSH2 0xDD6 JUMPI PUSH2 0xDD5 PUSH2 0x19EA JUMP JUMPDEST JUMPDEST SWAP1 PUSH1 0x0 MSTORE PUSH1 0x20 PUSH1 0x0 KECCAK256 SWAP1 PUSH1 0x7 MUL ADD PUSH1 0x0 ADD PUSH1 0x40 MLOAD PUSH2 0xDF4 SWAP2 SWAP1 PUSH2 0x1519 JUMP JUMPDEST SWAP1 DUP2 MSTORE PUSH1 0x20 ADD PUSH1 0x40 MLOAD DUP1 SWAP2 SUB SWAP1 KECCAK256 PUSH1 0x40 MLOAD DUP1 PUSH1 0x40 ADD PUSH1 0x40 MSTORE DUP1 CALLER PUSH20 0xFFFFFFFFFFFFFFFFFFFFFFFFFFFFFFFFFFFFFFFF AND DUP2 MSTORE PUSH1 0x20 ADD CALLVALUE DUP2 MSTORE POP SWAP1 DUP1 PUSH1 0x1 DUP2 SLOAD ADD DUP1 DUP3 SSTORE DUP1 SWAP2 POP POP PUSH1 0x1 SWAP1 SUB SWAP1 PUSH1 0x0 MSTORE PUSH1 0x20 PUSH1 0x0 KECCAK256 SWAP1 PUSH1 0x2 MUL ADD PUSH1 0x0 SWAP1 SWAP2 SWAP1 SWAP2 SWAP1 SWAP2 POP PUSH1 0x0 DUP3 ADD MLOAD DUP2 PUSH1 0x0 ADD PUSH1 0x0 PUSH2 0x100 EXP DUP2 SLOAD DUP2 PUSH20 0xFFFFFFFFFFFFFFFFFFFFFFFFFFFFFFFFFFFFFFFF MUL NOT AND SWAP1 DUP4 PUSH20 0xFFFFFFFFFFFFFFFFFFFFFFFFFFFFFFFFFFFFFFFF AND MUL OR SWAP1 SSTORE POP PUSH1 0x20 DUP3 ADD MLOAD DUP2 PUSH1 0x1 ADD SSTORE POP POP PUSH32 0x98A99E594DC0943C255BF9563AE2C4DA6FFCFD06F78B396B88988548AC825BA8 PUSH1 0x0 DUP4 DUP2 SLOAD DUP2 LT PUSH2 0xEDE JUMPI PUSH2 0xEDD PUSH2 0x19EA JUMP JUMPDEST JUMPDEST SWAP1 PUSH1 0x0 MSTORE PUSH1 0x20 PUSH1 0x0 KECCAK256 SWAP1 PUSH1 0x7 MUL ADD PUSH1 0x0 ADD CALLVALUE PUSH1 0x40 MLOAD PUSH2 0xEFE SWAP3 SWAP2 SWAP1 PUSH2 0x166D JUMP JUMPDEST PUSH1 0x40 MLOAD DUP1 SWAP2 SUB SWAP1 LOG1 POP POP JUMP JUMPDEST PUSH1 0x1 DUP3 DUP1 MLOAD PUSH1 0x20 DUP2 ADD DUP3 ADD DUP1 MLOAD DUP5 DUP3 MSTORE PUSH1 0x20 DUP4 ADD PUSH1 0x20 DUP6 ADD KECCAK256 DUP2 DUP4 MSTORE DUP1 SWAP6 POP POP POP POP POP POP DUP2 DUP2 SLOAD DUP2 LT PUSH2 0xF3C JUMPI PUSH1 0x0 DUP1 REVERT JUMPDEST SWAP1 PUSH1 0x0 MSTORE PUSH1 0x20 PUSH1 0x0 KECCAK256 SWAP1 PUSH1 0x2 MUL ADD PUSH1 0x0 SWAP2 POP SWAP2 POP POP DUP1 PUSH1 0x0 ADD PUSH1 0x0 SWAP1 SLOAD SWAP1 PUSH2 0x100 EXP SWAP1 DIV PUSH20 0xFFFFFFFFFFFFFFFFFFFFFFFFFFFFFFFFFFFFFFFF AND SWAP1 DUP1 PUSH1 0x1 ADD SLOAD SWAP1 POP DUP3 JUMP JUMPDEST DUP3 DUP1 SLOAD PUSH2 0xF8D SWAP1 PUSH2 0x18FA JUMP JUMPDEST SWAP1 PUSH1 0x0 MSTORE PUSH1 0x20 PUSH1 0x0 KECCAK256 SWAP1 PUSH1 0x1F ADD PUSH1 0x20 SWAP1 DIV DUP2 ADD SWAP3 DUP3 PUSH2 0xFAF JUMPI PUSH1 0x0 DUP6 SSTORE PUSH2 0xFF6 JUMP JUMPDEST DUP3 PUSH1 0x1F LT PUSH2 0xFC8 JUMPI DUP1 MLOAD PUSH1 0xFF NOT AND DUP4 DUP1 ADD OR DUP6 SSTORE PUSH2 0xFF6 JUMP JUMPDEST DUP3 DUP1 ADD PUSH1 0x1 ADD DUP6 SSTORE DUP3 ISZERO PUSH2 0xFF6 JUMPI SWAP2 DUP3 ADD JUMPDEST DUP3 DUP2 GT ISZERO PUSH2 0xFF5 JUMPI DUP3 MLOAD DUP3 SSTORE SWAP2 PUSH1 0x20 ADD SWAP2 SWAP1 PUSH1 0x1 ADD SWAP1 PUSH2 0xFDA JUMP JUMPDEST JUMPDEST POP SWAP1 POP PUSH2 0x1003 SWAP2 SWAP1 PUSH2 0x1007 JUMP JUMPDEST POP SWAP1 JUMP JUMPDEST JUMPDEST DUP1 DUP3 GT ISZERO PUSH2 0x1020 JUMPI PUSH1 0x0 DUP2 PUSH1 0x0 SWAP1 SSTORE POP PUSH1 0x1 ADD PUSH2 0x1008 JUMP JUMPDEST POP SWAP1 JUMP JUMPDEST PUSH1 0x0 PUSH2 0x1037 PUSH2 0x1032 DUP5 PUSH2 0x1782 JUMP JUMPDEST PUSH2 0x175D JUMP JUMPDEST SWAP1 POP DUP3 DUP2 MSTORE PUSH1 0x20 DUP2 ADD DUP5 DUP5 DUP5 ADD GT ISZERO PUSH2 0x1053 JUMPI PUSH2 0x1052 PUSH2 0x1A57 JUMP JUMPDEST JUMPDEST PUSH2 0x105E DUP5 DUP3 DUP6 PUSH2 0x18B8 JUMP JUMPDEST POP SWAP4 SWAP3 POP POP POP JUMP JUMPDEST PUSH1 0x0 DUP2 CALLDATALOAD SWAP1 POP PUSH2 0x1075 DUP2 PUSH2 0x1C3F JUMP JUMPDEST SWAP3 SWAP2 POP POP JUMP JUMPDEST PUSH1 0x0 DUP1 DUP4 PUSH1 0x1F DUP5 ADD SLT PUSH2 0x1091 JUMPI PUSH2 0x1090 PUSH2 0x1A4D JUMP JUMPDEST JUMPDEST DUP3 CALLDATALOAD SWAP1 POP PUSH8 0xFFFFFFFFFFFFFFFF DUP2 GT ISZERO PUSH2 0x10AE JUMPI PUSH2 0x10AD PUSH2 0x1A48 JUMP JUMPDEST JUMPDEST PUSH1 0x20 DUP4 ADD SWAP2 POP DUP4 PUSH1 0x1 DUP3 MUL DUP4 ADD GT ISZERO PUSH2 0x10CA JUMPI PUSH2 0x10C9 PUSH2 0x1A52 JUMP JUMPDEST JUMPDEST SWAP3 POP SWAP3 SWAP1 POP JUMP JUMPDEST PUSH1 0x0 DUP3 PUSH1 0x1F DUP4 ADD SLT PUSH2 0x10E6 JUMPI PUSH2 0x10E5 PUSH2 0x1A4D JUMP JUMPDEST JUMPDEST DUP2 CALLDATALOAD PUSH2 0x10F6 DUP5 DUP3 PUSH1 0x20 DUP7 ADD PUSH2 0x1024 JUMP JUMPDEST SWAP2 POP POP SWAP3 SWAP2 POP POP JUMP JUMPDEST PUSH1 0x0 DUP2 CALLDATALOAD SWAP1 POP PUSH2 0x110E DUP2 PUSH2 0x1C4F JUMP JUMPDEST SWAP3 SWAP2 POP POP JUMP JUMPDEST PUSH1 0x0 DUP1 PUSH1 0x0 DUP1 PUSH1 0x0 DUP1 PUSH1 0x0 PUSH1 0x80 DUP9 DUP11 SUB SLT ISZERO PUSH2 0x1133 JUMPI PUSH2 0x1132 PUSH2 0x1A61 JUMP JUMPDEST JUMPDEST PUSH1 0x0 DUP9 ADD CALLDATALOAD PUSH8 0xFFFFFFFFFFFFFFFF DUP2 GT ISZERO PUSH2 0x1151 JUMPI PUSH2 0x1150 PUSH2 0x1A5C JUMP JUMPDEST JUMPDEST PUSH2 0x115D DUP11 DUP3 DUP12 ADD PUSH2 0x107B JUMP JUMPDEST SWAP8 POP SWAP8 POP POP PUSH1 0x20 DUP9 ADD CALLDATALOAD PUSH8 0xFFFFFFFFFFFFFFFF DUP2 GT ISZERO PUSH2 0x1180 JUMPI PUSH2 0x117F PUSH2 0x1A5C JUMP JUMPDEST JUMPDEST PUSH2 0x118C DUP11 DUP3 DUP12 ADD PUSH2 0x107B JUMP JUMPDEST SWAP6 POP SWAP6 POP POP PUSH1 0x40 DUP9 ADD CALLDATALOAD PUSH8 0xFFFFFFFFFFFFFFFF DUP2 GT ISZERO PUSH2 0x11AF JUMPI PUSH2 0x11AE PUSH2 0x1A5C JUMP JUMPDEST JUMPDEST PUSH2 0x11BB DUP11 DUP3 DUP12 ADD PUSH2 0x107B JUMP JUMPDEST SWAP4 POP SWAP4 POP POP PUSH1 0x60 PUSH2 0x11CE DUP11 DUP3 DUP12 ADD PUSH2 0x10FF JUMP JUMPDEST SWAP2 POP POP SWAP3 SWAP6 SWAP9 SWAP2 SWAP5 SWAP8 POP SWAP3 SWAP6 POP JUMP JUMPDEST PUSH1 0x0 DUP1 PUSH1 0x40 DUP4 DUP6 SUB SLT ISZERO PUSH2 0x11F4 JUMPI PUSH2 0x11F3 PUSH2 0x1A61 JUMP JUMPDEST JUMPDEST PUSH1 0x0 DUP4 ADD CALLDATALOAD PUSH8 0xFFFFFFFFFFFFFFFF DUP2 GT ISZERO PUSH2 0x1212 JUMPI PUSH2 0x1211 PUSH2 0x1A5C JUMP JUMPDEST JUMPDEST PUSH2 0x121E DUP6 DUP3 DUP7 ADD PUSH2 0x10D1 JUMP JUMPDEST SWAP3 POP POP PUSH1 0x20 PUSH2 0x122F DUP6 DUP3 DUP7 ADD PUSH2 0x10FF JUMP JUMPDEST SWAP2 POP POP SWAP3 POP SWAP3 SWAP1 POP JUMP JUMPDEST PUSH1 0x0 PUSH1 0x20 DUP3 DUP5 SUB SLT ISZERO PUSH2 0x124F JUMPI PUSH2 0x124E PUSH2 0x1A61 JUMP JUMPDEST JUMPDEST PUSH1 0x0 PUSH2 0x125D DUP5 DUP3 DUP6 ADD PUSH2 0x10FF JUMP JUMPDEST SWAP2 POP POP SWAP3 SWAP2 POP POP JUMP JUMPDEST PUSH1 0x0 DUP1 PUSH1 0x40 DUP4 DUP6 SUB SLT ISZERO PUSH2 0x127D JUMPI PUSH2 0x127C PUSH2 0x1A61 JUMP JUMPDEST JUMPDEST PUSH1 0x0 PUSH2 0x128B DUP6 DUP3 DUP7 ADD PUSH2 0x10FF JUMP JUMPDEST SWAP3 POP POP PUSH1 0x20 PUSH2 0x129C DUP6 DUP3 DUP7 ADD PUSH2 0x1066 JUMP JUMPDEST SWAP2 POP POP SWAP3 POP SWAP3 SWAP1 POP JUMP JUMPDEST PUSH2 0x12AF DUP2 PUSH2 0x1857 JUMP JUMPDEST DUP3 MSTORE POP POP JUMP JUMPDEST PUSH2 0x12BE DUP2 PUSH2 0x1845 JUMP JUMPDEST DUP3 MSTORE POP POP JUMP JUMPDEST PUSH2 0x12CD DUP2 PUSH2 0x18A6 JUMP JUMPDEST DUP3 MSTORE POP POP JUMP JUMPDEST PUSH1 0x0 PUSH2 0x12DF DUP4 DUP6 PUSH2 0x17D3 JUMP JUMPDEST SWAP4 POP PUSH2 0x12EC DUP4 DUP6 DUP5 PUSH2 0x18B8 JUMP JUMPDEST PUSH2 0x12F5 DUP4 PUSH2 0x1A66 JUMP JUMPDEST DUP5 ADD SWAP1 POP SWAP4 SWAP3 POP POP POP JUMP JUMPDEST PUSH1 0x0 PUSH2 0x130B DUP3 PUSH2 0x17C8 JUMP JUMPDEST PUSH2 0x1315 DUP2 DUP6 PUSH2 0x17D3 JUMP JUMPDEST SWAP4 POP PUSH2 0x1325 DUP2 DUP6 PUSH1 0x20 DUP7 ADD PUSH2 0x18C7 JUMP JUMPDEST PUSH2 0x132E DUP2 PUSH2 0x1A66 JUMP JUMPDEST DUP5 ADD SWAP2 POP POP SWAP3 SWAP2 POP POP JUMP JUMPDEST PUSH1 0x0 DUP2 SLOAD PUSH2 0x1346 DUP2 PUSH2 0x18FA JUMP JUMPDEST PUSH2 0x1350 DUP2 DUP7 PUSH2 0x17D3 JUMP JUMPDEST SWAP5 POP PUSH1 0x1 DUP3 AND PUSH1 0x0 DUP2 EQ PUSH2 0x136B JUMPI PUSH1 0x1 DUP2 EQ PUSH2 0x137D JUMPI PUSH2 0x13B0 JUMP JUMPDEST PUSH1 0xFF NOT DUP4 AND DUP7 MSTORE PUSH1 0x20 DUP7 ADD SWAP4 POP PUSH2 0x13B0 JUMP JUMPDEST PUSH2 0x1386 DUP6 PUSH2 0x17B3 JUMP JUMPDEST PUSH1 0x0 JUMPDEST DUP4 DUP2 LT ISZERO PUSH2 0x13A8 JUMPI DUP2 SLOAD DUP2 DUP10 ADD MSTORE PUSH1 0x1 DUP3 ADD SWAP2 POP PUSH1 0x20 DUP2 ADD SWAP1 POP PUSH2 0x1389 JUMP JUMPDEST DUP1 DUP9 ADD SWAP6 POP POP POP JUMPDEST POP POP POP SWAP3 SWAP2 POP POP JUMP JUMPDEST PUSH1 0x0 DUP2 SLOAD PUSH2 0x13C6 DUP2 PUSH2 0x18FA JUMP JUMPDEST PUSH2 0x13D0 DUP2 DUP7 PUSH2 0x17E4 JUMP JUMPDEST SWAP5 POP PUSH1 0x1 DUP3 AND PUSH1 0x0 DUP2 EQ PUSH2 0x13EB JUMPI PUSH1 0x1 DUP2 EQ PUSH2 0x13FC JUMPI PUSH2 0x142F JUMP JUMPDEST PUSH1 0xFF NOT DUP4 AND DUP7 MSTORE DUP2 DUP7 ADD SWAP4 POP PUSH2 0x142F JUMP JUMPDEST PUSH2 0x1405 DUP6 PUSH2 0x17B3 JUMP JUMPDEST PUSH1 0x0 JUMPDEST DUP4 DUP2 LT ISZERO PUSH2 0x1427 JUMPI DUP2 SLOAD DUP2 DUP10 ADD MSTORE PUSH1 0x1 DUP3 ADD SWAP2 POP PUSH1 0x20 DUP2 ADD SWAP1 POP PUSH2 0x1408 JUMP JUMPDEST DUP4 DUP9 ADD SWAP6 POP POP POP JUMPDEST POP POP POP SWAP3 SWAP2 POP POP JUMP JUMPDEST PUSH1 0x0 PUSH2 0x1445 PUSH1 0x22 DUP4 PUSH2 0x17D3 JUMP JUMPDEST SWAP2 POP PUSH2 0x1450 DUP3 PUSH2 0x1A77 JUMP JUMPDEST PUSH1 0x40 DUP3 ADD SWAP1 POP SWAP2 SWAP1 POP JUMP JUMPDEST PUSH1 0x0 PUSH2 0x1468 PUSH1 0x1B DUP4 PUSH2 0x17D3 JUMP JUMPDEST SWAP2 POP PUSH2 0x1473 DUP3 PUSH2 0x1AC6 JUMP JUMPDEST PUSH1 0x20 DUP3 ADD SWAP1 POP SWAP2 SWAP1 POP JUMP JUMPDEST PUSH1 0x0 PUSH2 0x148B PUSH1 0x27 DUP4 PUSH2 0x17D3 JUMP JUMPDEST SWAP2 POP PUSH2 0x1496 DUP3 PUSH2 0x1AEF JUMP JUMPDEST PUSH1 0x40 DUP3 ADD SWAP1 POP SWAP2 SWAP1 POP JUMP JUMPDEST PUSH1 0x0 PUSH2 0x14AE PUSH1 0x24 DUP4 PUSH2 0x17D3 JUMP JUMPDEST SWAP2 POP PUSH2 0x14B9 DUP3 PUSH2 0x1B3E JUMP JUMPDEST PUSH1 0x40 DUP3 ADD SWAP1 POP SWAP2 SWAP1 POP JUMP JUMPDEST PUSH1 0x0 PUSH2 0x14D1 PUSH1 0x2F DUP4 PUSH2 0x17D3 JUMP JUMPDEST SWAP2 POP PUSH2 0x14DC DUP3 PUSH2 0x1B8D JUMP JUMPDEST PUSH1 0x40 DUP3 ADD SWAP1 POP SWAP2 SWAP1 POP JUMP JUMPDEST PUSH1 0x0 PUSH2 0x14F4 PUSH1 0x22 DUP4 PUSH2 0x17D3 JUMP JUMPDEST SWAP2 POP PUSH2 0x14FF DUP3 PUSH2 0x1BDC JUMP JUMPDEST PUSH1 0x40 DUP3 ADD SWAP1 POP SWAP2 SWAP1 POP JUMP JUMPDEST PUSH2 0x1513 DUP2 PUSH2 0x189C JUMP JUMPDEST DUP3 MSTORE POP POP JUMP JUMPDEST PUSH1 0x0 PUSH2 0x1525 DUP3 DUP5 PUSH2 0x13B9 JUMP JUMPDEST SWAP2 POP DUP2 SWAP1 POP SWAP3 SWAP2 POP POP JUMP JUMPDEST PUSH1 0x0 PUSH1 0x40 DUP3 ADD SWAP1 POP PUSH2 0x1545 PUSH1 0x0 DUP4 ADD DUP6 PUSH2 0x12B5 JUMP JUMPDEST PUSH2 0x1552 PUSH1 0x20 DUP4 ADD DUP5 PUSH2 0x150A JUMP JUMPDEST SWAP4 SWAP3 POP POP POP JUMP JUMPDEST PUSH1 0x0 PUSH1 0x80 DUP3 ADD SWAP1 POP DUP2 DUP2 SUB PUSH1 0x0 DUP4 ADD MSTORE PUSH2 0x1574 DUP2 DUP10 DUP12 PUSH2 0x12D3 JUMP JUMPDEST SWAP1 POP DUP2 DUP2 SUB PUSH1 0x20 DUP4 ADD MSTORE PUSH2 0x1589 DUP2 DUP8 DUP10 PUSH2 0x12D3 JUMP JUMPDEST SWAP1 POP DUP2 DUP2 SUB PUSH1 0x40 DUP4 ADD MSTORE PUSH2 0x159E DUP2 DUP6 DUP8 PUSH2 0x12D3 JUMP JUMPDEST SWAP1 POP PUSH2 0x15AD PUSH1 0x60 DUP4 ADD DUP5 PUSH2 0x150A JUMP JUMPDEST SWAP9 SWAP8 POP POP POP POP POP POP POP POP JUMP JUMPDEST PUSH1 0x0 PUSH1 0xE0 DUP3 ADD SWAP1 POP DUP2 DUP2 SUB PUSH1 0x0 DUP4 ADD MSTORE PUSH2 0x15D3 DUP2 DUP11 PUSH2 0x1300 JUMP JUMPDEST SWAP1 POP DUP2 DUP2 SUB PUSH1 0x20 DUP4 ADD MSTORE PUSH2 0x15E7 DUP2 DUP10 PUSH2 0x1300 JUMP JUMPDEST SWAP1 POP DUP2 DUP2 SUB PUSH1 0x40 DUP4 ADD MSTORE PUSH2 0x15FB DUP2 DUP9 PUSH2 0x1300 JUMP JUMPDEST SWAP1 POP PUSH2 0x160A PUSH1 0x60 DUP4 ADD DUP8 PUSH2 0x150A JUMP JUMPDEST PUSH2 0x1617 PUSH1 0x80 DUP4 ADD DUP7 PUSH2 0x12A6 JUMP JUMPDEST PUSH2 0x1624 PUSH1 0xA0 DUP4 ADD DUP6 PUSH2 0x150A JUMP JUMPDEST PUSH2 0x1631 PUSH1 0xC0 DUP4 ADD DUP5 PUSH2 0x12C4 JUMP JUMPDEST SWAP9 SWAP8 POP POP POP POP POP POP POP POP JUMP JUMPDEST PUSH1 0x0 PUSH1 0x40 DUP3 ADD SWAP1 POP DUP2 DUP2 SUB PUSH1 0x0 DUP4 ADD MSTORE PUSH2 0x1657 DUP2 DUP6 PUSH2 0x1339 JUMP JUMPDEST SWAP1 POP PUSH2 0x1666 PUSH1 0x20 DUP4 ADD DUP5 PUSH2 0x12C4 JUMP JUMPDEST SWAP4 SWAP3 POP POP POP JUMP JUMPDEST PUSH1 0x0 PUSH1 0x40 DUP3 ADD SWAP1 POP DUP2 DUP2 SUB PUSH1 0x0 DUP4 ADD MSTORE PUSH2 0x1687 DUP2 DUP6 PUSH2 0x1339 JUMP JUMPDEST SWAP1 POP PUSH2 0x1696 PUSH1 0x20 DUP4 ADD DUP5 PUSH2 0x150A JUMP JUMPDEST SWAP4 SWAP3 POP POP POP JUMP JUMPDEST PUSH1 0x0 PUSH1 0x20 DUP3 ADD SWAP1 POP DUP2 DUP2 SUB PUSH1 0x0 DUP4 ADD MSTORE PUSH2 0x16B6 DUP2 PUSH2 0x1438 JUMP JUMPDEST SWAP1 POP SWAP2 SWAP1 POP JUMP JUMPDEST PUSH1 0x0 PUSH1 0x20 DUP3 ADD SWAP1 POP DUP2 DUP2 SUB PUSH1 0x0 DUP4 ADD MSTORE PUSH2 0x16D6 DUP2 PUSH2 0x145B JUMP JUMPDEST SWAP1 POP SWAP2 SWAP1 POP JUMP JUMPDEST PUSH1 0x0 PUSH1 0x20 DUP3 ADD SWAP1 POP DUP2 DUP2 SUB PUSH1 0x0 DUP4 ADD MSTORE PUSH2 0x16F6 DUP2 PUSH2 0x147E JUMP JUMPDEST SWAP1 POP SWAP2 SWAP1 POP JUMP JUMPDEST PUSH1 0x0 PUSH1 0x20 DUP3 ADD SWAP1 POP DUP2 DUP2 SUB PUSH1 0x0 DUP4 ADD MSTORE PUSH2 0x1716 DUP2 PUSH2 0x14A1 JUMP JUMPDEST SWAP1 POP SWAP2 SWAP1 POP JUMP JUMPDEST PUSH1 0x0 PUSH1 0x20 DUP3 ADD SWAP1 POP DUP2 DUP2 SUB PUSH1 0x0 DUP4 ADD MSTORE PUSH2 0x1736 DUP2 PUSH2 0x14C4 JUMP JUMPDEST SWAP1 POP SWAP2 SWAP1 POP JUMP JUMPDEST PUSH1 0x0 PUSH1 0x20 DUP3 ADD SWAP1 POP DUP2 DUP2 SUB PUSH1 0x0 DUP4 ADD MSTORE PUSH2 0x1756 DUP2 PUSH2 0x14E7 JUMP JUMPDEST SWAP1 POP SWAP2 SWAP1 POP JUMP JUMPDEST PUSH1 0x0 PUSH2 0x1767 PUSH2 0x1778 JUMP JUMPDEST SWAP1 POP PUSH2 0x1773 DUP3 DUP3 PUSH2 0x192C JUMP JUMPDEST SWAP2 SWAP1 POP JUMP JUMPDEST PUSH1 0x0 PUSH1 0x40 MLOAD SWAP1 POP SWAP1 JUMP JUMPDEST PUSH1 0x0 PUSH8 0xFFFFFFFFFFFFFFFF DUP3 GT ISZERO PUSH2 0x179D JUMPI PUSH2 0x179C PUSH2 0x1A19 JUMP JUMPDEST JUMPDEST PUSH2 0x17A6 DUP3 PUSH2 0x1A66 JUMP JUMPDEST SWAP1 POP PUSH1 0x20 DUP2 ADD SWAP1 POP SWAP2 SWAP1 POP JUMP JUMPDEST PUSH1 0x0 DUP2 SWAP1 POP DUP2 PUSH1 0x0 MSTORE PUSH1 0x20 PUSH1 0x0 KECCAK256 SWAP1 POP SWAP2 SWAP1 POP JUMP JUMPDEST PUSH1 0x0 DUP2 MLOAD SWAP1 POP SWAP2 SWAP1 POP JUMP JUMPDEST PUSH1 0x0 DUP3 DUP3 MSTORE PUSH1 0x20 DUP3 ADD SWAP1 POP SWAP3 SWAP2 POP POP JUMP JUMPDEST PUSH1 0x0 DUP2 SWAP1 POP SWAP3 SWAP2 POP POP JUMP JUMPDEST PUSH1 0x0 PUSH2 0x17FA DUP3 PUSH2 0x189C JUMP JUMPDEST SWAP2 POP PUSH2 0x1805 DUP4 PUSH2 0x189C JUMP JUMPDEST SWAP3 POP DUP3 PUSH32 0xFFFFFFFFFFFFFFFFFFFFFFFFFFFFFFFFFFFFFFFFFFFFFFFFFFFFFFFFFFFFFFFF SUB DUP3 GT ISZERO PUSH2 0x183A JUMPI PUSH2 0x1839 PUSH2 0x195D JUMP JUMPDEST JUMPDEST DUP3 DUP3 ADD SWAP1 POP SWAP3 SWAP2 POP POP JUMP JUMPDEST PUSH1 0x0 PUSH2 0x1850 DUP3 PUSH2 0x187C JUMP JUMPDEST SWAP1 POP SWAP2 SWAP1 POP JUMP JUMPDEST PUSH1 0x0 PUSH2 0x1862 DUP3 PUSH2 0x187C JUMP JUMPDEST SWAP1 POP SWAP2 SWAP1 POP JUMP JUMPDEST PUSH1 0x0 DUP2 SWAP1 POP PUSH2 0x1877 DUP3 PUSH2 0x1C2B JUMP JUMPDEST SWAP2 SWAP1 POP JUMP JUMPDEST PUSH1 0x0 PUSH20 0xFFFFFFFFFFFFFFFFFFFFFFFFFFFFFFFFFFFFFFFF DUP3 AND SWAP1 POP SWAP2 SWAP1 POP JUMP JUMPDEST PUSH1 0x0 DUP2 SWAP1 POP SWAP2 SWAP1 POP JUMP JUMPDEST PUSH1 0x0 PUSH2 0x18B1 DUP3 PUSH2 0x1869 JUMP JUMPDEST SWAP1 POP SWAP2 SWAP1 POP JUMP JUMPDEST DUP3 DUP2 DUP4 CALLDATACOPY PUSH1 0x0 DUP4 DUP4 ADD MSTORE POP POP POP JUMP JUMPDEST PUSH1 0x0 JUMPDEST DUP4 DUP2 LT ISZERO PUSH2 0x18E5 JUMPI DUP1 DUP3 ADD MLOAD DUP2 DUP5 ADD MSTORE PUSH1 0x20 DUP2 ADD SWAP1 POP PUSH2 0x18CA JUMP JUMPDEST DUP4 DUP2 GT ISZERO PUSH2 0x18F4 JUMPI PUSH1 0x0 DUP5 DUP5 ADD MSTORE JUMPDEST POP POP POP POP JUMP JUMPDEST PUSH1 0x0 PUSH1 0x2 DUP3 DIV SWAP1 POP PUSH1 0x1 DUP3 AND DUP1 PUSH2 0x1912 JUMPI PUSH1 0x7F DUP3 AND SWAP2 POP JUMPDEST PUSH1 0x20 DUP3 LT DUP2 EQ ISZERO PUSH2 0x1926 JUMPI PUSH2 0x1925 PUSH2 0x19BB JUMP JUMPDEST JUMPDEST POP SWAP2 SWAP1 POP JUMP JUMPDEST PUSH2 0x1935 DUP3 PUSH2 0x1A66 JUMP JUMPDEST DUP2 ADD DUP2 DUP2 LT PUSH8 0xFFFFFFFFFFFFFFFF DUP3 GT OR ISZERO PUSH2 0x1954 JUMPI PUSH2 0x1953 PUSH2 0x1A19 JUMP JUMPDEST JUMPDEST DUP1 PUSH1 0x40 MSTORE POP POP POP JUMP JUMPDEST PUSH32 0x4E487B7100000000000000000000000000000000000000000000000000000000 PUSH1 0x0 MSTORE PUSH1 0x11 PUSH1 0x4 MSTORE PUSH1 0x24 PUSH1 0x0 REVERT JUMPDEST PUSH32 0x4E487B7100000000000000000000000000000000000000000000000000000000 PUSH1 0x0 MSTORE PUSH1 0x21 PUSH1 0x4 MSTORE PUSH1 0x24 PUSH1 0x0 REVERT JUMPDEST PUSH32 0x4E487B7100000000000000000000000000000000000000000000000000000000 PUSH1 0x0 MSTORE PUSH1 0x22 PUSH1 0x4 MSTORE PUSH1 0x24 PUSH1 0x0 REVERT JUMPDEST PUSH32 0x4E487B7100000000000000000000000000000000000000000000000000000000 PUSH1 0x0 MSTORE PUSH1 0x32 PUSH1 0x4 MSTORE PUSH1 0x24 PUSH1 0x0 REVERT JUMPDEST PUSH32 0x4E487B7100000000000000000000000000000000000000000000000000000000 PUSH1 0x0 MSTORE PUSH1 0x41 PUSH1 0x4 MSTORE PUSH1 0x24 PUSH1 0x0 REVERT JUMPDEST PUSH1 0x0 DUP1 REVERT JUMPDEST PUSH1 0x0 DUP1 REVERT JUMPDEST PUSH1 0x0 DUP1 REVERT JUMPDEST PUSH1 0x0 DUP1 REVERT JUMPDEST PUSH1 0x0 DUP1 REVERT JUMPDEST PUSH1 0x0 DUP1 REVERT JUMPDEST PUSH1 0x0 PUSH1 0x1F NOT PUSH1 0x1F DUP4 ADD AND SWAP1 POP SWAP2 SWAP1 POP JUMP JUMPDEST PUSH32 0x54686520617574686F722063616E6E6F742066756E64207468652070726F6A65 PUSH1 0x0 DUP3 ADD MSTORE PUSH32 0x6374000000000000000000000000000000000000000000000000000000000000 PUSH1 0x20 DUP3 ADD MSTORE POP JUMP JUMPDEST PUSH32 0x4E6577207374617465206D75737420626520646966666572656E740000000000 PUSH1 0x0 DUP3 ADD MSTORE POP JUMP JUMPDEST PUSH32 0x66756E6472616973696E6720676F616C206D7573742062652067726561746572 PUSH1 0x0 DUP3 ADD MSTORE PUSH32 0x207468616E203000000000000000000000000000000000000000000000000000 PUSH1 0x20 DUP3 ADD MSTORE POP JUMP JUMPDEST PUSH32 0x5468652066756E64696E67206F66207468652070726F6A65637420697320636C PUSH1 0x0 DUP3 ADD MSTORE PUSH32 0x6F73656400000000000000000000000000000000000000000000000000000000 PUSH1 0x20 DUP3 ADD MSTORE POP JUMP JUMPDEST PUSH32 0x4F6E6C7920617574686F722063616E206368616E676520746865207374617465 PUSH1 0x0 DUP3 ADD MSTORE PUSH32 0x206F66207468652070726F6A6563740000000000000000000000000000000000 PUSH1 0x20 DUP3 ADD MSTORE POP JUMP JUMPDEST PUSH32 0x66756E6472616973696E67206D7573742062652067726561746572207468616E PUSH1 0x0 DUP3 ADD MSTORE PUSH32 0x2030000000000000000000000000000000000000000000000000000000000000 PUSH1 0x20 DUP3 ADD MSTORE POP JUMP JUMPDEST PUSH1 0x2 DUP2 LT PUSH2 0x1C3C JUMPI PUSH2 0x1C3B PUSH2 0x198C JUMP JUMPDEST JUMPDEST POP JUMP JUMPDEST PUSH1 0x2 DUP2 LT PUSH2 0x1C4C JUMPI PUSH1 0x0 DUP1 REVERT JUMPDEST POP JUMP JUMPDEST PUSH2 0x1C58 DUP2 PUSH2 0x189C JUMP JUMPDEST DUP2 EQ PUSH2 0x1C63 JUMPI PUSH1 0x0 DUP1 REVERT JUMPDEST POP JUMP INVALID LOG2 PUSH5 0x6970667358 0x22 SLT KECCAK256 DUP14 0xB2 0xCD 0xAF XOR DIFFICULTY 0xED GAS 0x5E 0xB3 0x23 PUSH21 0x7108DF04B61CF47016955BB9C2124DB09B9222B264 PUSH20 0x6F6C634300080700330000000000000000000000 "
				},
				"gasEstimates": {
					"creation": {
						"codeDepositCost": "1464800",
						"executionCost": "1527",
						"totalCost": "1466327"
					},
					"external": {
						"changeProjectState(uint256,uint8)": "infinite",
						"contributions(string,uint256)": "infinite",
						"createProject(string,string,string,uint256)": "infinite",
						"fundProject(uint256)": "infinite",
						"projects(uint256)": "infinite"
					}
				},
				"methodIdentifiers": {
					"changeProjectState(uint256,uint8)": "17e925d7",
					"contributions(string,uint256)": "7f3fcdd9",
					"createProject(string,string,string,uint256)": "1ca73896",
					"fundProject(uint256)": "6c563abe",
					"projects(uint256)": "107046bd"
				}
			},
			"storageLayout": {
				"storage": [
					{
						"astId": 29,
						"contract": "contracts/project.sol:CrowdFunding",
						"label": "projects",
						"offset": 0,
						"slot": "0",
						"type": "t_array(t_struct(Project)20_storage)dyn_storage"
					},
					{
						"astId": 35,
						"contract": "contracts/project.sol:CrowdFunding",
						"label": "contributions",
						"offset": 0,
						"slot": "1",
						"type": "t_mapping(t_string_memory_ptr,t_array(t_struct(Contribution)25_storage)dyn_storage)"
					}
				],
				"types": {
					"t_address": {
						"encoding": "inplace",
						"label": "address",
						"numberOfBytes": "20"
					},
					"t_address_payable": {
						"encoding": "inplace",
						"label": "address payable",
						"numberOfBytes": "20"
					},
					"t_array(t_struct(Contribution)25_storage)dyn_storage": {
						"base": "t_struct(Contribution)25_storage",
						"encoding": "dynamic_array",
						"label": "struct CrowdFunding.Contribution[]",
						"numberOfBytes": "32"
					},
					"t_array(t_struct(Project)20_storage)dyn_storage": {
						"base": "t_struct(Project)20_storage",
						"encoding": "dynamic_array",
						"label": "struct CrowdFunding.Project[]",
						"numberOfBytes": "32"
					},
					"t_enum(State)4": {
						"encoding": "inplace",
						"label": "enum CrowdFunding.State",
						"numberOfBytes": "1"
					},
					"t_mapping(t_string_memory_ptr,t_array(t_struct(Contribution)25_storage)dyn_storage)": {
						"encoding": "mapping",
						"key": "t_string_memory_ptr",
						"label": "mapping(string => struct CrowdFunding.Contribution[])",
						"numberOfBytes": "32",
						"value": "t_array(t_struct(Contribution)25_storage)dyn_storage"
					},
					"t_string_memory_ptr": {
						"encoding": "bytes",
						"label": "string",
						"numberOfBytes": "32"
					},
					"t_string_storage": {
						"encoding": "bytes",
						"label": "string",
						"numberOfBytes": "32"
					},
					"t_struct(Contribution)25_storage": {
						"encoding": "inplace",
						"label": "struct CrowdFunding.Contribution",
						"members": [
							{
								"astId": 22,
								"contract": "contracts/project.sol:CrowdFunding",
								"label": "contributor",
								"offset": 0,
								"slot": "0",
								"type": "t_address"
							},
							{
								"astId": 24,
								"contract": "contracts/project.sol:CrowdFunding",
								"label": "value",
								"offset": 0,
								"slot": "1",
								"type": "t_uint256"
							}
						],
						"numberOfBytes": "64"
					},
					"t_struct(Project)20_storage": {
						"encoding": "inplace",
						"label": "struct CrowdFunding.Project",
						"members": [
							{
								"astId": 6,
								"contract": "contracts/project.sol:CrowdFunding",
								"label": "id",
								"offset": 0,
								"slot": "0",
								"type": "t_string_storage"
							},
							{
								"astId": 8,
								"contract": "contracts/project.sol:CrowdFunding",
								"label": "name",
								"offset": 0,
								"slot": "1",
								"type": "t_string_storage"
							},
							{
								"astId": 10,
								"contract": "contracts/project.sol:CrowdFunding",
								"label": "description",
								"offset": 0,
								"slot": "2",
								"type": "t_string_storage"
							},
							{
								"astId": 12,
								"contract": "contracts/project.sol:CrowdFunding",
								"label": "goal",
								"offset": 0,
								"slot": "3",
								"type": "t_uint256"
							},
							{
								"astId": 14,
								"contract": "contracts/project.sol:CrowdFunding",
								"label": "author",
								"offset": 0,
								"slot": "4",
								"type": "t_address_payable"
							},
							{
								"astId": 16,
								"contract": "contracts/project.sol:CrowdFunding",
								"label": "funds",
								"offset": 0,
								"slot": "5",
								"type": "t_uint256"
							},
							{
								"astId": 19,
								"contract": "contracts/project.sol:CrowdFunding",
								"label": "state",
								"offset": 0,
								"slot": "6",
								"type": "t_enum(State)4"
							}
						],
						"numberOfBytes": "224"
					},
					"t_uint256": {
						"encoding": "inplace",
						"label": "uint256",
						"numberOfBytes": "32"
					}
				}
			},
			"userdoc": {
				"kind": "user",
				"methods": {},
				"version": 1
			}
		}
	}
}