{
	"contracts/project.sol": {
		"CrowdFunding": {
			"abi": [
				{
					"anonymous": false,
					"inputs": [
						{
							"indexed": false,
							"internalType": "string",
							"name": "projectId",
							"type": "string"
						},
						{
							"indexed": false,
							"internalType": "enum CrowdFunding.State",
							"name": "newState",
							"type": "uint8"
						}
					],
					"name": "changeProjectStateLog",
					"type": "event"
				},
				{
					"anonymous": false,
					"inputs": [
						{
							"indexed": false,
							"internalType": "string",
							"name": "projectId",
							"type": "string"
						},
						{
							"indexed": false,
							"internalType": "uint256",
							"name": "newFunds",
							"type": "uint256"
						}
					],
					"name": "fundProjectLog",
					"type": "event"
				},
				{
					"inputs": [
						{
							"internalType": "uint256",
							"name": "projectIndex",
							"type": "uint256"
						},
						{
							"internalType": "enum CrowdFunding.State",
							"name": "newState",
							"type": "uint8"
						}
					],
					"name": "changeProjectState",
					"outputs": [],
					"stateMutability": "nonpayable",
					"type": "function"
				},
				{
					"inputs": [
						{
							"internalType": "string",
							"name": "_id",
							"type": "string"
						},
						{
							"internalType": "string",
							"name": "_name",
							"type": "string"
						},
						{
							"internalType": "string",
							"name": "_description",
							"type": "string"
						},
						{
							"internalType": "uint256",
							"name": "_goal",
							"type": "uint256"
						}
					],
					"name": "createProject",
					"outputs": [],
					"stateMutability": "nonpayable",
					"type": "function"
				},
				{
					"inputs": [
						{
							"internalType": "uint256",
							"name": "projectIndex",
							"type": "uint256"
						}
					],
					"name": "fundProject",
					"outputs": [],
					"stateMutability": "payable",
					"type": "function"
				},
				{
					"inputs": [
						{
							"internalType": "uint256",
							"name": "",
							"type": "uint256"
						}
					],
					"name": "projects",
					"outputs": [
						{
							"internalType": "string",
							"name": "id",
							"type": "string"
						},
						{
							"internalType": "string",
							"name": "name",
							"type": "string"
						},
						{
							"internalType": "string",
							"name": "description",
							"type": "string"
						},
						{
							"internalType": "uint256",
							"name": "goal",
							"type": "uint256"
						},
						{
							"internalType": "address payable",
							"name": "author",
							"type": "address"
						},
						{
							"internalType": "uint256",
							"name": "funds",
							"type": "uint256"
						},
						{
							"internalType": "enum CrowdFunding.State",
							"name": "state",
							"type": "uint8"
						}
					],
					"stateMutability": "view",
					"type": "function"
				}
			],
			"devdoc": {
				"kind": "dev",
				"methods": {},
				"version": 1
			},
			"evm": {
				"assembly": "    /* \"contracts/project.sol\":74:2155  contract CrowdFunding {\r... */\n  mstore(0x40, 0x80)\n  callvalue\n  dup1\n  iszero\n  tag_1\n  jumpi\n  0x00\n  dup1\n  revert\ntag_1:\n  pop\n  dataSize(sub_0)\n  dup1\n  dataOffset(sub_0)\n  0x00\n  codecopy\n  0x00\n  return\nstop\n\nsub_0: assembly {\n        /* \"contracts/project.sol\":74:2155  contract CrowdFunding {\r... */\n      mstore(0x40, 0x80)\n      jumpi(tag_1, lt(calldatasize, 0x04))\n      shr(0xe0, calldataload(0x00))\n      dup1\n      0x107046bd\n      eq\n      tag_2\n      jumpi\n      dup1\n      0x17e925d7\n      eq\n      tag_3\n      jumpi\n      dup1\n      0x1ca73896\n      eq\n      tag_4\n      jumpi\n      dup1\n      0x6c563abe\n      eq\n      tag_5\n      jumpi\n    tag_1:\n      0x00\n      dup1\n      revert\n        /* \"contracts/project.sol\":450:475  Project[] public projects */\n    tag_2:\n      callvalue\n      dup1\n      iszero\n      tag_6\n      jumpi\n      0x00\n      dup1\n      revert\n    tag_6:\n      pop\n      tag_7\n      0x04\n      dup1\n      calldatasize\n      sub\n      dup2\n      add\n      swap1\n      tag_8\n      swap2\n      swap1\n      tag_9\n      jump\t// in\n    tag_8:\n      tag_10\n      jump\t// in\n    tag_7:\n      mload(0x40)\n      tag_11\n      swap8\n      swap7\n      swap6\n      swap5\n      swap4\n      swap3\n      swap2\n      swap1\n      tag_12\n      jump\t// in\n    tag_11:\n      mload(0x40)\n      dup1\n      swap2\n      sub\n      swap1\n      return\n        /* \"contracts/project.sol\":1356:1672  function changeProjectState(uint projectIndex, State newState) public isAuthor(projectIndex) {\r... */\n    tag_3:\n      callvalue\n      dup1\n      iszero\n      tag_13\n      jumpi\n      0x00\n      dup1\n      revert\n    tag_13:\n      pop\n      tag_14\n      0x04\n      dup1\n      calldatasize\n      sub\n      dup2\n      add\n      swap1\n      tag_15\n      swap2\n      swap1\n      tag_16\n      jump\t// in\n    tag_15:\n      tag_17\n      jump\t// in\n    tag_14:\n      stop\n        /* \"contracts/project.sol\":538:803  function createProject(string memory _id, string memory _name, string memory _description, uint _goal) public {\r... */\n    tag_4:\n      callvalue\n      dup1\n      iszero\n      tag_18\n      jumpi\n      0x00\n      dup1\n      revert\n    tag_18:\n      pop\n      tag_19\n      0x04\n      dup1\n      calldatasize\n      sub\n      dup2\n      add\n      swap1\n      tag_20\n      swap2\n      swap1\n      tag_21\n      jump\t// in\n    tag_20:\n      tag_22\n      jump\t// in\n    tag_19:\n      stop\n        /* \"contracts/project.sol\":811:1348  function fundProject(uint projectIndex) public payable isNotAuthor(projectIndex) {\r... */\n    tag_5:\n      tag_23\n      0x04\n      dup1\n      calldatasize\n      sub\n      dup2\n      add\n      swap1\n      tag_24\n      swap2\n      swap1\n      tag_9\n      jump\t// in\n    tag_24:\n      tag_25\n      jump\t// in\n    tag_23:\n      stop\n        /* \"contracts/project.sol\":450:475  Project[] public projects */\n    tag_10:\n      0x00\n      dup2\n      dup2\n      sload\n      dup2\n      lt\n      tag_26\n      jumpi\n      0x00\n      dup1\n      revert\n    tag_26:\n      swap1\n      0x00\n      mstore\n      keccak256(0x00, 0x20)\n      swap1\n      0x07\n      mul\n      add\n      0x00\n      swap2\n      pop\n      swap1\n      pop\n      dup1\n      0x00\n      add\n      dup1\n      sload\n      tag_28\n      swap1\n      tag_29\n      jump\t// in\n    tag_28:\n      dup1\n      0x1f\n      add\n      0x20\n      dup1\n      swap2\n      div\n      mul\n      0x20\n      add\n      mload(0x40)\n      swap1\n      dup2\n      add\n      0x40\n      mstore\n      dup1\n      swap3\n      swap2\n      swap1\n      dup2\n      dup2\n      mstore\n      0x20\n      add\n      dup3\n      dup1\n      sload\n      tag_30\n      swap1\n      tag_29\n      jump\t// in\n    tag_30:\n      dup1\n      iszero\n      tag_31\n      jumpi\n      dup1\n      0x1f\n      lt\n      tag_32\n      jumpi\n      0x0100\n      dup1\n      dup4\n      sload\n      div\n      mul\n      dup4\n      mstore\n      swap2\n      0x20\n      add\n      swap2\n      jump(tag_31)\n    tag_32:\n      dup3\n      add\n      swap2\n      swap1\n      0x00\n      mstore\n      keccak256(0x00, 0x20)\n      swap1\n    tag_33:\n      dup2\n      sload\n      dup2\n      mstore\n      swap1\n      0x01\n      add\n      swap1\n      0x20\n      add\n      dup1\n      dup4\n      gt\n      tag_33\n      jumpi\n      dup3\n      swap1\n      sub\n      0x1f\n      and\n      dup3\n      add\n      swap2\n    tag_31:\n      pop\n      pop\n      pop\n      pop\n      pop\n      swap1\n      dup1\n      0x01\n      add\n      dup1\n      sload\n      tag_34\n      swap1\n      tag_29\n      jump\t// in\n    tag_34:\n      dup1\n      0x1f\n      add\n      0x20\n      dup1\n      swap2\n      div\n      mul\n      0x20\n      add\n      mload(0x40)\n      swap1\n      dup2\n      add\n      0x40\n      mstore\n      dup1\n      swap3\n      swap2\n      swap1\n      dup2\n      dup2\n      mstore\n      0x20\n      add\n      dup3\n      dup1\n      sload\n      tag_35\n      swap1\n      tag_29\n      jump\t// in\n    tag_35:\n      dup1\n      iszero\n      tag_36\n      jumpi\n      dup1\n      0x1f\n      lt\n      tag_37\n      jumpi\n      0x0100\n      dup1\n      dup4\n      sload\n      div\n      mul\n      dup4\n      mstore\n      swap2\n      0x20\n      add\n      swap2\n      jump(tag_36)\n    tag_37:\n      dup3\n      add\n      swap2\n      swap1\n      0x00\n      mstore\n      keccak256(0x00, 0x20)\n      swap1\n    tag_38:\n      dup2\n      sload\n      dup2\n      mstore\n      swap1\n      0x01\n      add\n      swap1\n      0x20\n      add\n      dup1\n      dup4\n      gt\n      tag_38\n      jumpi\n      dup3\n      swap1\n      sub\n      0x1f\n      and\n      dup3\n      add\n      swap2\n    tag_36:\n      pop\n      pop\n      pop\n      pop\n      pop\n      swap1\n      dup1\n      0x02\n      add\n      dup1\n      sload\n      tag_39\n      swap1\n      tag_29\n      jump\t// in\n    tag_39:\n      dup1\n      0x1f\n      add\n      0x20\n      dup1\n      swap2\n      div\n      mul\n      0x20\n      add\n      mload(0x40)\n      swap1\n      dup2\n      add\n      0x40\n      mstore\n      dup1\n      swap3\n      swap2\n      swap1\n      dup2\n      dup2\n      mstore\n      0x20\n      add\n      dup3\n      dup1\n      sload\n      tag_40\n      swap1\n      tag_29\n      jump\t// in\n    tag_40:\n      dup1\n      iszero\n      tag_41\n      jumpi\n      dup1\n      0x1f\n      lt\n      tag_42\n      jumpi\n      0x0100\n      dup1\n      dup4\n      sload\n      div\n      mul\n      dup4\n      mstore\n      swap2\n      0x20\n      add\n      swap2\n      jump(tag_41)\n    tag_42:\n      dup3\n      add\n      swap2\n      swap1\n      0x00\n      mstore\n      keccak256(0x00, 0x20)\n      swap1\n    tag_43:\n      dup2\n      sload\n      dup2\n      mstore\n      swap1\n      0x01\n      add\n      swap1\n      0x20\n      add\n      dup1\n      dup4\n      gt\n      tag_43\n      jumpi\n      dup3\n      swap1\n      sub\n      0x1f\n      and\n      dup3\n      add\n      swap2\n    tag_41:\n      pop\n      pop\n      pop\n      pop\n      pop\n      swap1\n      dup1\n      0x03\n      add\n      sload\n      swap1\n      dup1\n      0x04\n      add\n      0x00\n      swap1\n      sload\n      swap1\n      0x0100\n      exp\n      swap1\n      div\n      0xffffffffffffffffffffffffffffffffffffffff\n      and\n      swap1\n      dup1\n      0x05\n      add\n      sload\n      swap1\n      dup1\n      0x06\n      add\n      0x00\n      swap1\n      sload\n      swap1\n      0x0100\n      exp\n      swap1\n      div\n      0xff\n      and\n      swap1\n      pop\n      dup8\n      jump\t// out\n        /* \"contracts/project.sol\":1356:1672  function changeProjectState(uint projectIndex, State newState) public isAuthor(projectIndex) {\r... */\n    tag_17:\n        /* \"contracts/project.sol\":1435:1447  projectIndex */\n      dup2\n        /* \"contracts/project.sol\":1750:1758  projects */\n      0x00\n        /* \"contracts/project.sol\":1759:1771  projectIndex */\n      dup2\n        /* \"contracts/project.sol\":1750:1772  projects[projectIndex] */\n      dup2\n      sload\n      dup2\n      lt\n      tag_45\n      jumpi\n      tag_46\n      tag_47\n      jump\t// in\n    tag_46:\n    tag_45:\n      swap1\n      0x00\n      mstore\n      keccak256(0x00, 0x20)\n      swap1\n      0x07\n      mul\n      add\n        /* \"contracts/project.sol\":1750:1779  projects[projectIndex].author */\n      0x04\n      add\n      0x00\n      swap1\n      sload\n      swap1\n      0x0100\n      exp\n      swap1\n      div\n      0xffffffffffffffffffffffffffffffffffffffff\n      and\n        /* \"contracts/project.sol\":1736:1779  msg.sender == projects[projectIndex].author */\n      0xffffffffffffffffffffffffffffffffffffffff\n      and\n        /* \"contracts/project.sol\":1736:1746  msg.sender */\n      caller\n        /* \"contracts/project.sol\":1736:1779  msg.sender == projects[projectIndex].author */\n      0xffffffffffffffffffffffffffffffffffffffff\n      and\n      eq\n        /* \"contracts/project.sol\":1728:1831  require(msg.sender == projects[projectIndex].author, 'Only author can change the state of the project') */\n      tag_49\n      jumpi\n      mload(0x40)\n      0x08c379a000000000000000000000000000000000000000000000000000000000\n      dup2\n      mstore\n      0x04\n      add\n      tag_50\n      swap1\n      tag_51\n      jump\t// in\n    tag_50:\n      mload(0x40)\n      dup1\n      swap2\n      sub\n      swap1\n      revert\n    tag_49:\n        /* \"contracts/project.sol\":1500:1508  newState */\n      dup2\n        /* \"contracts/project.sol\":1468:1508  projects[projectIndex].state != newState */\n      0x01\n      dup2\n      gt\n      iszero\n      tag_53\n      jumpi\n      tag_54\n      tag_55\n      jump\t// in\n    tag_54:\n    tag_53:\n        /* \"contracts/project.sol\":1468:1476  projects */\n      0x00\n        /* \"contracts/project.sol\":1477:1489  projectIndex */\n      dup5\n        /* \"contracts/project.sol\":1468:1490  projects[projectIndex] */\n      dup2\n      sload\n      dup2\n      lt\n      tag_56\n      jumpi\n      tag_57\n      tag_47\n      jump\t// in\n    tag_57:\n    tag_56:\n      swap1\n      0x00\n      mstore\n      keccak256(0x00, 0x20)\n      swap1\n      0x07\n      mul\n      add\n        /* \"contracts/project.sol\":1468:1496  projects[projectIndex].state */\n      0x06\n      add\n      0x00\n      swap1\n      sload\n      swap1\n      0x0100\n      exp\n      swap1\n      div\n      0xff\n      and\n        /* \"contracts/project.sol\":1468:1508  projects[projectIndex].state != newState */\n      0x01\n      dup2\n      gt\n      iszero\n      tag_59\n      jumpi\n      tag_60\n      tag_55\n      jump\t// in\n    tag_60:\n    tag_59:\n      eq\n      iszero\n        /* \"contracts/project.sol\":1460:1540  require(projects[projectIndex].state != newState, 'New state must be different') */\n      tag_61\n      jumpi\n      mload(0x40)\n      0x08c379a000000000000000000000000000000000000000000000000000000000\n      dup2\n      mstore\n      0x04\n      add\n      tag_62\n      swap1\n      tag_63\n      jump\t// in\n    tag_62:\n      mload(0x40)\n      dup1\n      swap2\n      sub\n      swap1\n      revert\n    tag_61:\n        /* \"contracts/project.sol\":1582:1590  newState */\n      dup2\n        /* \"contracts/project.sol\":1551:1559  projects */\n      0x00\n        /* \"contracts/project.sol\":1560:1572  projectIndex */\n      dup5\n        /* \"contracts/project.sol\":1551:1573  projects[projectIndex] */\n      dup2\n      sload\n      dup2\n      lt\n      tag_64\n      jumpi\n      tag_65\n      tag_47\n      jump\t// in\n    tag_65:\n    tag_64:\n      swap1\n      0x00\n      mstore\n      keccak256(0x00, 0x20)\n      swap1\n      0x07\n      mul\n      add\n        /* \"contracts/project.sol\":1551:1579  projects[projectIndex].state */\n      0x06\n      add\n      0x00\n        /* \"contracts/project.sol\":1551:1590  projects[projectIndex].state = newState */\n      0x0100\n      exp\n      dup2\n      sload\n      dup2\n      0xff\n      mul\n      not\n      and\n      swap1\n      dup4\n      0x01\n      dup2\n      gt\n      iszero\n      tag_67\n      jumpi\n      tag_68\n      tag_55\n      jump\t// in\n    tag_68:\n    tag_67:\n      mul\n      or\n      swap1\n      sstore\n      pop\n        /* \"contracts/project.sol\":1606:1664  changeProjectStateLog(projects[projectIndex].id, newState) */\n      0xb364ab0cadec04bec8a97e81743129cecc3480279fb67b9378df4219238b250f\n        /* \"contracts/project.sol\":1628:1636  projects */\n      0x00\n        /* \"contracts/project.sol\":1637:1649  projectIndex */\n      dup5\n        /* \"contracts/project.sol\":1628:1650  projects[projectIndex] */\n      dup2\n      sload\n      dup2\n      lt\n      tag_69\n      jumpi\n      tag_70\n      tag_47\n      jump\t// in\n    tag_70:\n    tag_69:\n      swap1\n      0x00\n      mstore\n      keccak256(0x00, 0x20)\n      swap1\n      0x07\n      mul\n      add\n        /* \"contracts/project.sol\":1628:1653  projects[projectIndex].id */\n      0x00\n      add\n        /* \"contracts/project.sol\":1655:1663  newState */\n      dup4\n        /* \"contracts/project.sol\":1606:1664  changeProjectStateLog(projects[projectIndex].id, newState) */\n      mload(0x40)\n      tag_72\n      swap3\n      swap2\n      swap1\n      tag_73\n      jump\t// in\n    tag_72:\n      mload(0x40)\n      dup1\n      swap2\n      sub\n      swap1\n      log1\n        /* \"contracts/project.sol\":1356:1672  function changeProjectState(uint projectIndex, State newState) public isAuthor(projectIndex) {\r... */\n      pop\n      pop\n      pop\n      jump\t// out\n        /* \"contracts/project.sol\":538:803  function createProject(string memory _id, string memory _name, string memory _description, uint _goal) public {\r... */\n    tag_22:\n        /* \"contracts/project.sol\":659:681  Project memory project */\n      0x00\n        /* \"contracts/project.sol\":684:762  Project(_id, _name, _description, _goal, payable(msg.sender), 0, State.Opened) */\n      mload(0x40)\n      dup1\n      0xe0\n      add\n      0x40\n      mstore\n      dup1\n        /* \"contracts/project.sol\":692:695  _id */\n      dup7\n        /* \"contracts/project.sol\":684:762  Project(_id, _name, _description, _goal, payable(msg.sender), 0, State.Opened) */\n      dup2\n      mstore\n      0x20\n      add\n        /* \"contracts/project.sol\":697:702  _name */\n      dup6\n        /* \"contracts/project.sol\":684:762  Project(_id, _name, _description, _goal, payable(msg.sender), 0, State.Opened) */\n      dup2\n      mstore\n      0x20\n      add\n        /* \"contracts/project.sol\":704:716  _description */\n      dup5\n        /* \"contracts/project.sol\":684:762  Project(_id, _name, _description, _goal, payable(msg.sender), 0, State.Opened) */\n      dup2\n      mstore\n      0x20\n      add\n        /* \"contracts/project.sol\":718:723  _goal */\n      dup4\n        /* \"contracts/project.sol\":684:762  Project(_id, _name, _description, _goal, payable(msg.sender), 0, State.Opened) */\n      dup2\n      mstore\n      0x20\n      add\n        /* \"contracts/project.sol\":733:743  msg.sender */\n      caller\n        /* \"contracts/project.sol\":684:762  Project(_id, _name, _description, _goal, payable(msg.sender), 0, State.Opened) */\n      0xffffffffffffffffffffffffffffffffffffffff\n      and\n      dup2\n      mstore\n      0x20\n      add\n        /* \"contracts/project.sol\":746:747  0 */\n      0x00\n        /* \"contracts/project.sol\":684:762  Project(_id, _name, _description, _goal, payable(msg.sender), 0, State.Opened) */\n      dup2\n      mstore\n      0x20\n      add\n        /* \"contracts/project.sol\":749:761  State.Opened */\n      0x00\n        /* \"contracts/project.sol\":684:762  Project(_id, _name, _description, _goal, payable(msg.sender), 0, State.Opened) */\n      0x01\n      dup2\n      gt\n      iszero\n      tag_75\n      jumpi\n      tag_76\n      tag_55\n      jump\t// in\n    tag_76:\n    tag_75:\n      dup2\n      mstore\n      pop\n        /* \"contracts/project.sol\":659:762  Project memory project = Project(_id, _name, _description, _goal, payable(msg.sender), 0, State.Opened) */\n      swap1\n      pop\n        /* \"contracts/project.sol\":773:781  projects */\n      0x00\n        /* \"contracts/project.sol\":787:794  project */\n      dup2\n        /* \"contracts/project.sol\":773:795  projects.push(project) */\n      swap1\n      dup1\n      0x01\n      dup2\n      sload\n      add\n      dup1\n      dup3\n      sstore\n      dup1\n      swap2\n      pop\n      pop\n      0x01\n      swap1\n      sub\n      swap1\n      0x00\n      mstore\n      keccak256(0x00, 0x20)\n      swap1\n      0x07\n      mul\n      add\n      0x00\n      swap1\n      swap2\n      swap1\n      swap2\n      swap1\n      swap2\n      pop\n      0x00\n      dup3\n      add\n      mload\n      dup2\n      0x00\n      add\n      swap1\n      dup1\n      mload\n      swap1\n      0x20\n      add\n      swap1\n      tag_78\n      swap3\n      swap2\n      swap1\n      tag_79\n      jump\t// in\n    tag_78:\n      pop\n      0x20\n      dup3\n      add\n      mload\n      dup2\n      0x01\n      add\n      swap1\n      dup1\n      mload\n      swap1\n      0x20\n      add\n      swap1\n      tag_80\n      swap3\n      swap2\n      swap1\n      tag_79\n      jump\t// in\n    tag_80:\n      pop\n      0x40\n      dup3\n      add\n      mload\n      dup2\n      0x02\n      add\n      swap1\n      dup1\n      mload\n      swap1\n      0x20\n      add\n      swap1\n      tag_81\n      swap3\n      swap2\n      swap1\n      tag_79\n      jump\t// in\n    tag_81:\n      pop\n      0x60\n      dup3\n      add\n      mload\n      dup2\n      0x03\n      add\n      sstore\n      0x80\n      dup3\n      add\n      mload\n      dup2\n      0x04\n      add\n      exp(0x0100, 0x00)\n      dup2\n      sload\n      dup2\n      0xffffffffffffffffffffffffffffffffffffffff\n      mul\n      not\n      and\n      swap1\n      dup4\n      0xffffffffffffffffffffffffffffffffffffffff\n      and\n      mul\n      or\n      swap1\n      sstore\n      pop\n      0xa0\n      dup3\n      add\n      mload\n      dup2\n      0x05\n      add\n      sstore\n      0xc0\n      dup3\n      add\n      mload\n      dup2\n      0x06\n      add\n      exp(0x0100, 0x00)\n      dup2\n      sload\n      dup2\n      0xff\n      mul\n      not\n      and\n      swap1\n      dup4\n      0x01\n      dup2\n      gt\n      iszero\n      tag_82\n      jumpi\n      tag_83\n      tag_55\n      jump\t// in\n    tag_83:\n    tag_82:\n      mul\n      or\n      swap1\n      sstore\n      pop\n      pop\n      pop\n        /* \"contracts/project.sol\":648:803  {\r... */\n      pop\n        /* \"contracts/project.sol\":538:803  function createProject(string memory _id, string memory _name, string memory _description, uint _goal) public {\r... */\n      pop\n      pop\n      pop\n      pop\n      jump\t// out\n        /* \"contracts/project.sol\":811:1348  function fundProject(uint projectIndex) public payable isNotAuthor(projectIndex) {\r... */\n    tag_25:\n        /* \"contracts/project.sol\":878:890  projectIndex */\n      dup1\n        /* \"contracts/project.sol\":1932:1940  projects */\n      0x00\n        /* \"contracts/project.sol\":1941:1953  projectIndex */\n      dup2\n        /* \"contracts/project.sol\":1932:1954  projects[projectIndex] */\n      dup2\n      sload\n      dup2\n      lt\n      tag_85\n      jumpi\n      tag_86\n      tag_47\n      jump\t// in\n    tag_86:\n    tag_85:\n      swap1\n      0x00\n      mstore\n      keccak256(0x00, 0x20)\n      swap1\n      0x07\n      mul\n      add\n        /* \"contracts/project.sol\":1932:1961  projects[projectIndex].author */\n      0x04\n      add\n      0x00\n      swap1\n      sload\n      swap1\n      0x0100\n      exp\n      swap1\n      div\n      0xffffffffffffffffffffffffffffffffffffffff\n      and\n        /* \"contracts/project.sol\":1918:1961  msg.sender != projects[projectIndex].author */\n      0xffffffffffffffffffffffffffffffffffffffff\n      and\n        /* \"contracts/project.sol\":1918:1928  msg.sender */\n      caller\n        /* \"contracts/project.sol\":1918:1961  msg.sender != projects[projectIndex].author */\n      0xffffffffffffffffffffffffffffffffffffffff\n      and\n      eq\n      iszero\n        /* \"contracts/project.sol\":1910:2000  require(msg.sender != projects[projectIndex].author, 'The author cannot fund the project') */\n      tag_88\n      jumpi\n      mload(0x40)\n      0x08c379a000000000000000000000000000000000000000000000000000000000\n      dup2\n      mstore\n      0x04\n      add\n      tag_89\n      swap1\n      tag_90\n      jump\t// in\n    tag_89:\n      mload(0x40)\n      dup1\n      swap2\n      sub\n      swap1\n      revert\n    tag_88:\n        /* \"contracts/project.sol\":943:955  State.Closed */\n      0x01\n        /* \"contracts/project.sol\":911:955  projects[projectIndex].state != State.Closed */\n      dup1\n      dup2\n      gt\n      iszero\n      tag_92\n      jumpi\n      tag_93\n      tag_55\n      jump\t// in\n    tag_93:\n    tag_92:\n        /* \"contracts/project.sol\":911:919  projects */\n      0x00\n        /* \"contracts/project.sol\":920:932  projectIndex */\n      dup4\n        /* \"contracts/project.sol\":911:933  projects[projectIndex] */\n      dup2\n      sload\n      dup2\n      lt\n      tag_94\n      jumpi\n      tag_95\n      tag_47\n      jump\t// in\n    tag_95:\n    tag_94:\n      swap1\n      0x00\n      mstore\n      keccak256(0x00, 0x20)\n      swap1\n      0x07\n      mul\n      add\n        /* \"contracts/project.sol\":911:939  projects[projectIndex].state */\n      0x06\n      add\n      0x00\n      swap1\n      sload\n      swap1\n      0x0100\n      exp\n      swap1\n      div\n      0xff\n      and\n        /* \"contracts/project.sol\":911:955  projects[projectIndex].state != State.Closed */\n      0x01\n      dup2\n      gt\n      iszero\n      tag_97\n      jumpi\n      tag_98\n      tag_55\n      jump\t// in\n    tag_98:\n    tag_97:\n      eq\n      iszero\n        /* \"contracts/project.sol\":903:996  require(projects[projectIndex].state != State.Closed, 'The funding of the project is closed') */\n      tag_99\n      jumpi\n      mload(0x40)\n      0x08c379a000000000000000000000000000000000000000000000000000000000\n      dup2\n      mstore\n      0x04\n      add\n      tag_100\n      swap1\n      tag_101\n      jump\t// in\n    tag_100:\n      mload(0x40)\n      dup1\n      swap2\n      sub\n      swap1\n      revert\n    tag_99:\n        /* \"contracts/project.sol\":1027:1028  0 */\n      0x00\n        /* \"contracts/project.sol\":1015:1024  msg.value */\n      callvalue\n        /* \"contracts/project.sol\":1015:1028  msg.value > 0 */\n      gt\n        /* \"contracts/project.sol\":1007:1067  require(msg.value > 0, 'fundraising must be greater than 0') */\n      tag_102\n      jumpi\n      mload(0x40)\n      0x08c379a000000000000000000000000000000000000000000000000000000000\n      dup2\n      mstore\n      0x04\n      add\n      tag_103\n      swap1\n      tag_104\n      jump\t// in\n    tag_103:\n      mload(0x40)\n      dup1\n      swap2\n      sub\n      swap1\n      revert\n    tag_102:\n        /* \"contracts/project.sol\":1078:1086  projects */\n      0x00\n        /* \"contracts/project.sol\":1087:1099  projectIndex */\n      dup3\n        /* \"contracts/project.sol\":1078:1100  projects[projectIndex] */\n      dup2\n      sload\n      dup2\n      lt\n      tag_105\n      jumpi\n      tag_106\n      tag_47\n      jump\t// in\n    tag_106:\n    tag_105:\n      swap1\n      0x00\n      mstore\n      keccak256(0x00, 0x20)\n      swap1\n      0x07\n      mul\n      add\n        /* \"contracts/project.sol\":1078:1107  projects[projectIndex].author */\n      0x04\n      add\n      0x00\n      swap1\n      sload\n      swap1\n      0x0100\n      exp\n      swap1\n      div\n      0xffffffffffffffffffffffffffffffffffffffff\n      and\n        /* \"contracts/project.sol\":1078:1116  projects[projectIndex].author.transfer */\n      0xffffffffffffffffffffffffffffffffffffffff\n      and\n        /* \"contracts/project.sol\":1078:1127  projects[projectIndex].author.transfer(msg.value) */\n      0x08fc\n        /* \"contracts/project.sol\":1117:1126  msg.value */\n      callvalue\n        /* \"contracts/project.sol\":1078:1127  projects[projectIndex].author.transfer(msg.value) */\n      swap1\n      dup2\n      iszero\n      mul\n      swap1\n      mload(0x40)\n      0x00\n      mload(0x40)\n      dup1\n      dup4\n      sub\n      dup2\n      dup6\n      dup9\n      dup9\n      call\n      swap4\n      pop\n      pop\n      pop\n      pop\n      iszero\n      dup1\n      iszero\n      tag_109\n      jumpi\n      returndatasize\n      0x00\n      dup1\n      returndatacopy\n      revert(0x00, returndatasize)\n    tag_109:\n      pop\n        /* \"contracts/project.sol\":1170:1179  msg.value */\n      callvalue\n        /* \"contracts/project.sol\":1138:1146  projects */\n      0x00\n        /* \"contracts/project.sol\":1147:1159  projectIndex */\n      dup4\n        /* \"contracts/project.sol\":1138:1160  projects[projectIndex] */\n      dup2\n      sload\n      dup2\n      lt\n      tag_110\n      jumpi\n      tag_111\n      tag_47\n      jump\t// in\n    tag_111:\n    tag_110:\n      swap1\n      0x00\n      mstore\n      keccak256(0x00, 0x20)\n      swap1\n      0x07\n      mul\n      add\n        /* \"contracts/project.sol\":1138:1166  projects[projectIndex].funds */\n      0x05\n      add\n      0x00\n        /* \"contracts/project.sol\":1138:1179  projects[projectIndex].funds += msg.value */\n      dup3\n      dup3\n      sload\n      tag_113\n      swap2\n      swap1\n      tag_114\n      jump\t// in\n    tag_113:\n      swap3\n      pop\n      pop\n      dup2\n      swap1\n      sstore\n      pop\n        /* \"contracts/project.sol\":1190:1203  contributions */\n      0x01\n        /* \"contracts/project.sol\":1204:1212  projects */\n      0x00\n        /* \"contracts/project.sol\":1213:1225  projectIndex */\n      dup4\n        /* \"contracts/project.sol\":1204:1226  projects[projectIndex] */\n      dup2\n      sload\n      dup2\n      lt\n      tag_115\n      jumpi\n      tag_116\n      tag_47\n      jump\t// in\n    tag_116:\n    tag_115:\n      swap1\n      0x00\n      mstore\n      keccak256(0x00, 0x20)\n      swap1\n      0x07\n      mul\n      add\n        /* \"contracts/project.sol\":1204:1229  projects[projectIndex].id */\n      0x00\n      add\n        /* \"contracts/project.sol\":1190:1230  contributions[projects[projectIndex].id] */\n      mload(0x40)\n      tag_118\n      swap2\n      swap1\n      tag_119\n      jump\t// in\n    tag_118:\n      swap1\n      dup2\n      mstore\n      0x20\n      add\n      mload(0x40)\n      dup1\n      swap2\n      sub\n      swap1\n      keccak256\n        /* \"contracts/project.sol\":1236:1271  Contribution(msg.sender, msg.value) */\n      mload(0x40)\n      dup1\n      0x40\n      add\n      0x40\n      mstore\n      dup1\n        /* \"contracts/project.sol\":1249:1259  msg.sender */\n      caller\n        /* \"contracts/project.sol\":1236:1271  Contribution(msg.sender, msg.value) */\n      0xffffffffffffffffffffffffffffffffffffffff\n      and\n      dup2\n      mstore\n      0x20\n      add\n        /* \"contracts/project.sol\":1261:1270  msg.value */\n      callvalue\n        /* \"contracts/project.sol\":1236:1271  Contribution(msg.sender, msg.value) */\n      dup2\n      mstore\n      pop\n        /* \"contracts/project.sol\":1190:1272  contributions[projects[projectIndex].id].push(Contribution(msg.sender, msg.value)) */\n      swap1\n      dup1\n      0x01\n      dup2\n      sload\n      add\n      dup1\n      dup3\n      sstore\n      dup1\n      swap2\n      pop\n      pop\n      0x01\n      swap1\n      sub\n      swap1\n      0x00\n      mstore\n      keccak256(0x00, 0x20)\n      swap1\n      0x02\n      mul\n      add\n      0x00\n      swap1\n      swap2\n      swap1\n      swap2\n      swap1\n      swap2\n      pop\n      0x00\n      dup3\n      add\n      mload\n      dup2\n      0x00\n      add\n      exp(0x0100, 0x00)\n      dup2\n      sload\n      dup2\n      0xffffffffffffffffffffffffffffffffffffffff\n      mul\n      not\n      and\n      swap1\n      dup4\n      0xffffffffffffffffffffffffffffffffffffffff\n      and\n      mul\n      or\n      swap1\n      sstore\n      pop\n      0x20\n      dup3\n      add\n      mload\n      dup2\n      0x01\n      add\n      sstore\n      pop\n      pop\n        /* \"contracts/project.sol\":1288:1340  fundProjectLog(projects[projectIndex].id, msg.value) */\n      0x98a99e594dc0943c255bf9563ae2c4da6ffcfd06f78b396b88988548ac825ba8\n        /* \"contracts/project.sol\":1303:1311  projects */\n      0x00\n        /* \"contracts/project.sol\":1312:1324  projectIndex */\n      dup4\n        /* \"contracts/project.sol\":1303:1325  projects[projectIndex] */\n      dup2\n      sload\n      dup2\n      lt\n      tag_121\n      jumpi\n      tag_122\n      tag_47\n      jump\t// in\n    tag_122:\n    tag_121:\n      swap1\n      0x00\n      mstore\n      keccak256(0x00, 0x20)\n      swap1\n      0x07\n      mul\n      add\n        /* \"contracts/project.sol\":1303:1328  projects[projectIndex].id */\n      0x00\n      add\n        /* \"contracts/project.sol\":1330:1339  msg.value */\n      callvalue\n        /* \"contracts/project.sol\":1288:1340  fundProjectLog(projects[projectIndex].id, msg.value) */\n      mload(0x40)\n      tag_124\n      swap3\n      swap2\n      swap1\n      tag_125\n      jump\t// in\n    tag_124:\n      mload(0x40)\n      dup1\n      swap2\n      sub\n      swap1\n      log1\n        /* \"contracts/project.sol\":811:1348  function fundProject(uint projectIndex) public payable isNotAuthor(projectIndex) {\r... */\n      pop\n      pop\n      jump\t// out\n    tag_79:\n      dup3\n      dup1\n      sload\n      tag_126\n      swap1\n      tag_29\n      jump\t// in\n    tag_126:\n      swap1\n      0x00\n      mstore\n      keccak256(0x00, 0x20)\n      swap1\n      0x1f\n      add\n      0x20\n      swap1\n      div\n      dup2\n      add\n      swap3\n      dup3\n      tag_128\n      jumpi\n      0x00\n      dup6\n      sstore\n      jump(tag_127)\n    tag_128:\n      dup3\n      0x1f\n      lt\n      tag_129\n      jumpi\n      dup1\n      mload\n      not(0xff)\n      and\n      dup4\n      dup1\n      add\n      or\n      dup6\n      sstore\n      jump(tag_127)\n    tag_129:\n      dup3\n      dup1\n      add\n      0x01\n      add\n      dup6\n      sstore\n      dup3\n      iszero\n      tag_127\n      jumpi\n      swap2\n      dup3\n      add\n    tag_130:\n      dup3\n      dup2\n      gt\n      iszero\n      tag_131\n      jumpi\n      dup3\n      mload\n      dup3\n      sstore\n      swap2\n      0x20\n      add\n      swap2\n      swap1\n      0x01\n      add\n      swap1\n      jump(tag_130)\n    tag_131:\n    tag_127:\n      pop\n      swap1\n      pop\n      tag_132\n      swap2\n      swap1\n      tag_133\n      jump\t// in\n    tag_132:\n      pop\n      swap1\n      jump\t// out\n    tag_133:\n    tag_134:\n      dup1\n      dup3\n      gt\n      iszero\n      tag_135\n      jumpi\n      0x00\n      dup2\n      0x00\n      swap1\n      sstore\n      pop\n      0x01\n      add\n      jump(tag_134)\n    tag_135:\n      pop\n      swap1\n      jump\t// out\n        /* \"#utility.yul\":7:419   */\n    tag_137:\n        /* \"#utility.yul\":85:90   */\n      0x00\n        /* \"#utility.yul\":110:176   */\n      tag_139\n        /* \"#utility.yul\":126:175   */\n      tag_140\n        /* \"#utility.yul\":168:174   */\n      dup5\n        /* \"#utility.yul\":126:175   */\n      tag_141\n      jump\t// in\n    tag_140:\n        /* \"#utility.yul\":110:176   */\n      tag_142\n      jump\t// in\n    tag_139:\n        /* \"#utility.yul\":101:176   */\n      swap1\n      pop\n        /* \"#utility.yul\":199:205   */\n      dup3\n        /* \"#utility.yul\":192:197   */\n      dup2\n        /* \"#utility.yul\":185:206   */\n      mstore\n        /* \"#utility.yul\":237:241   */\n      0x20\n        /* \"#utility.yul\":230:235   */\n      dup2\n        /* \"#utility.yul\":226:242   */\n      add\n        /* \"#utility.yul\":275:278   */\n      dup5\n        /* \"#utility.yul\":266:272   */\n      dup5\n        /* \"#utility.yul\":261:264   */\n      dup5\n        /* \"#utility.yul\":257:273   */\n      add\n        /* \"#utility.yul\":254:279   */\n      gt\n        /* \"#utility.yul\":251:363   */\n      iszero\n      tag_143\n      jumpi\n        /* \"#utility.yul\":282:361   */\n      tag_144\n      tag_145\n      jump\t// in\n    tag_144:\n        /* \"#utility.yul\":251:363   */\n    tag_143:\n        /* \"#utility.yul\":372:413   */\n      tag_146\n        /* \"#utility.yul\":406:412   */\n      dup5\n        /* \"#utility.yul\":401:404   */\n      dup3\n        /* \"#utility.yul\":396:399   */\n      dup6\n        /* \"#utility.yul\":372:413   */\n      tag_147\n      jump\t// in\n    tag_146:\n        /* \"#utility.yul\":91:419   */\n      pop\n        /* \"#utility.yul\":7:419   */\n      swap4\n      swap3\n      pop\n      pop\n      pop\n      jump\t// out\n        /* \"#utility.yul\":425:578   */\n    tag_148:\n        /* \"#utility.yul\":478:483   */\n      0x00\n        /* \"#utility.yul\":516:522   */\n      dup2\n        /* \"#utility.yul\":503:523   */\n      calldataload\n        /* \"#utility.yul\":494:523   */\n      swap1\n      pop\n        /* \"#utility.yul\":532:572   */\n      tag_150\n        /* \"#utility.yul\":566:571   */\n      dup2\n        /* \"#utility.yul\":532:572   */\n      tag_151\n      jump\t// in\n    tag_150:\n        /* \"#utility.yul\":425:578   */\n      swap3\n      swap2\n      pop\n      pop\n      jump\t// out\n        /* \"#utility.yul\":598:938   */\n    tag_152:\n        /* \"#utility.yul\":654:659   */\n      0x00\n        /* \"#utility.yul\":703:706   */\n      dup3\n        /* \"#utility.yul\":696:700   */\n      0x1f\n        /* \"#utility.yul\":688:694   */\n      dup4\n        /* \"#utility.yul\":684:701   */\n      add\n        /* \"#utility.yul\":680:707   */\n      slt\n        /* \"#utility.yul\":670:792   */\n      tag_154\n      jumpi\n        /* \"#utility.yul\":711:790   */\n      tag_155\n      tag_156\n      jump\t// in\n    tag_155:\n        /* \"#utility.yul\":670:792   */\n    tag_154:\n        /* \"#utility.yul\":828:834   */\n      dup2\n        /* \"#utility.yul\":815:835   */\n      calldataload\n        /* \"#utility.yul\":853:932   */\n      tag_157\n        /* \"#utility.yul\":928:931   */\n      dup5\n        /* \"#utility.yul\":920:926   */\n      dup3\n        /* \"#utility.yul\":913:917   */\n      0x20\n        /* \"#utility.yul\":905:911   */\n      dup7\n        /* \"#utility.yul\":901:918   */\n      add\n        /* \"#utility.yul\":853:932   */\n      tag_137\n      jump\t// in\n    tag_157:\n        /* \"#utility.yul\":844:932   */\n      swap2\n      pop\n        /* \"#utility.yul\":660:938   */\n      pop\n        /* \"#utility.yul\":598:938   */\n      swap3\n      swap2\n      pop\n      pop\n      jump\t// out\n        /* \"#utility.yul\":944:1083   */\n    tag_158:\n        /* \"#utility.yul\":990:995   */\n      0x00\n        /* \"#utility.yul\":1028:1034   */\n      dup2\n        /* \"#utility.yul\":1015:1035   */\n      calldataload\n        /* \"#utility.yul\":1006:1035   */\n      swap1\n      pop\n        /* \"#utility.yul\":1044:1077   */\n      tag_160\n        /* \"#utility.yul\":1071:1076   */\n      dup2\n        /* \"#utility.yul\":1044:1077   */\n      tag_161\n      jump\t// in\n    tag_160:\n        /* \"#utility.yul\":944:1083   */\n      swap3\n      swap2\n      pop\n      pop\n      jump\t// out\n        /* \"#utility.yul\":1089:2394   */\n    tag_21:\n        /* \"#utility.yul\":1205:1211   */\n      0x00\n        /* \"#utility.yul\":1213:1219   */\n      dup1\n        /* \"#utility.yul\":1221:1227   */\n      0x00\n        /* \"#utility.yul\":1229:1235   */\n      dup1\n        /* \"#utility.yul\":1278:1281   */\n      0x80\n        /* \"#utility.yul\":1266:1275   */\n      dup6\n        /* \"#utility.yul\":1257:1264   */\n      dup8\n        /* \"#utility.yul\":1253:1276   */\n      sub\n        /* \"#utility.yul\":1249:1282   */\n      slt\n        /* \"#utility.yul\":1246:1366   */\n      iszero\n      tag_163\n      jumpi\n        /* \"#utility.yul\":1285:1364   */\n      tag_164\n      tag_165\n      jump\t// in\n    tag_164:\n        /* \"#utility.yul\":1246:1366   */\n    tag_163:\n        /* \"#utility.yul\":1433:1434   */\n      0x00\n        /* \"#utility.yul\":1422:1431   */\n      dup6\n        /* \"#utility.yul\":1418:1435   */\n      add\n        /* \"#utility.yul\":1405:1436   */\n      calldataload\n        /* \"#utility.yul\":1463:1481   */\n      0xffffffffffffffff\n        /* \"#utility.yul\":1455:1461   */\n      dup2\n        /* \"#utility.yul\":1452:1482   */\n      gt\n        /* \"#utility.yul\":1449:1566   */\n      iszero\n      tag_166\n      jumpi\n        /* \"#utility.yul\":1485:1564   */\n      tag_167\n      tag_168\n      jump\t// in\n    tag_167:\n        /* \"#utility.yul\":1449:1566   */\n    tag_166:\n        /* \"#utility.yul\":1590:1653   */\n      tag_169\n        /* \"#utility.yul\":1645:1652   */\n      dup8\n        /* \"#utility.yul\":1636:1642   */\n      dup3\n        /* \"#utility.yul\":1625:1634   */\n      dup9\n        /* \"#utility.yul\":1621:1643   */\n      add\n        /* \"#utility.yul\":1590:1653   */\n      tag_152\n      jump\t// in\n    tag_169:\n        /* \"#utility.yul\":1580:1653   */\n      swap5\n      pop\n        /* \"#utility.yul\":1376:1663   */\n      pop\n        /* \"#utility.yul\":1730:1732   */\n      0x20\n        /* \"#utility.yul\":1719:1728   */\n      dup6\n        /* \"#utility.yul\":1715:1733   */\n      add\n        /* \"#utility.yul\":1702:1734   */\n      calldataload\n        /* \"#utility.yul\":1761:1779   */\n      0xffffffffffffffff\n        /* \"#utility.yul\":1753:1759   */\n      dup2\n        /* \"#utility.yul\":1750:1780   */\n      gt\n        /* \"#utility.yul\":1747:1864   */\n      iszero\n      tag_170\n      jumpi\n        /* \"#utility.yul\":1783:1862   */\n      tag_171\n      tag_168\n      jump\t// in\n    tag_171:\n        /* \"#utility.yul\":1747:1864   */\n    tag_170:\n        /* \"#utility.yul\":1888:1951   */\n      tag_172\n        /* \"#utility.yul\":1943:1950   */\n      dup8\n        /* \"#utility.yul\":1934:1940   */\n      dup3\n        /* \"#utility.yul\":1923:1932   */\n      dup9\n        /* \"#utility.yul\":1919:1941   */\n      add\n        /* \"#utility.yul\":1888:1951   */\n      tag_152\n      jump\t// in\n    tag_172:\n        /* \"#utility.yul\":1878:1951   */\n      swap4\n      pop\n        /* \"#utility.yul\":1673:1961   */\n      pop\n        /* \"#utility.yul\":2028:2030   */\n      0x40\n        /* \"#utility.yul\":2017:2026   */\n      dup6\n        /* \"#utility.yul\":2013:2031   */\n      add\n        /* \"#utility.yul\":2000:2032   */\n      calldataload\n        /* \"#utility.yul\":2059:2077   */\n      0xffffffffffffffff\n        /* \"#utility.yul\":2051:2057   */\n      dup2\n        /* \"#utility.yul\":2048:2078   */\n      gt\n        /* \"#utility.yul\":2045:2162   */\n      iszero\n      tag_173\n      jumpi\n        /* \"#utility.yul\":2081:2160   */\n      tag_174\n      tag_168\n      jump\t// in\n    tag_174:\n        /* \"#utility.yul\":2045:2162   */\n    tag_173:\n        /* \"#utility.yul\":2186:2249   */\n      tag_175\n        /* \"#utility.yul\":2241:2248   */\n      dup8\n        /* \"#utility.yul\":2232:2238   */\n      dup3\n        /* \"#utility.yul\":2221:2230   */\n      dup9\n        /* \"#utility.yul\":2217:2239   */\n      add\n        /* \"#utility.yul\":2186:2249   */\n      tag_152\n      jump\t// in\n    tag_175:\n        /* \"#utility.yul\":2176:2249   */\n      swap3\n      pop\n        /* \"#utility.yul\":1971:2259   */\n      pop\n        /* \"#utility.yul\":2298:2300   */\n      0x60\n        /* \"#utility.yul\":2324:2377   */\n      tag_176\n        /* \"#utility.yul\":2369:2376   */\n      dup8\n        /* \"#utility.yul\":2360:2366   */\n      dup3\n        /* \"#utility.yul\":2349:2358   */\n      dup9\n        /* \"#utility.yul\":2345:2367   */\n      add\n        /* \"#utility.yul\":2324:2377   */\n      tag_158\n      jump\t// in\n    tag_176:\n        /* \"#utility.yul\":2314:2377   */\n      swap2\n      pop\n        /* \"#utility.yul\":2269:2387   */\n      pop\n        /* \"#utility.yul\":1089:2394   */\n      swap3\n      swap6\n      swap2\n      swap5\n      pop\n      swap3\n      pop\n      jump\t// out\n        /* \"#utility.yul\":2400:2729   */\n    tag_9:\n        /* \"#utility.yul\":2459:2465   */\n      0x00\n        /* \"#utility.yul\":2508:2510   */\n      0x20\n        /* \"#utility.yul\":2496:2505   */\n      dup3\n        /* \"#utility.yul\":2487:2494   */\n      dup5\n        /* \"#utility.yul\":2483:2506   */\n      sub\n        /* \"#utility.yul\":2479:2511   */\n      slt\n        /* \"#utility.yul\":2476:2595   */\n      iszero\n      tag_178\n      jumpi\n        /* \"#utility.yul\":2514:2593   */\n      tag_179\n      tag_165\n      jump\t// in\n    tag_179:\n        /* \"#utility.yul\":2476:2595   */\n    tag_178:\n        /* \"#utility.yul\":2634:2635   */\n      0x00\n        /* \"#utility.yul\":2659:2712   */\n      tag_180\n        /* \"#utility.yul\":2704:2711   */\n      dup5\n        /* \"#utility.yul\":2695:2701   */\n      dup3\n        /* \"#utility.yul\":2684:2693   */\n      dup6\n        /* \"#utility.yul\":2680:2702   */\n      add\n        /* \"#utility.yul\":2659:2712   */\n      tag_158\n      jump\t// in\n    tag_180:\n        /* \"#utility.yul\":2649:2712   */\n      swap2\n      pop\n        /* \"#utility.yul\":2605:2722   */\n      pop\n        /* \"#utility.yul\":2400:2729   */\n      swap3\n      swap2\n      pop\n      pop\n      jump\t// out\n        /* \"#utility.yul\":2735:3223   */\n    tag_16:\n        /* \"#utility.yul\":2810:2816   */\n      0x00\n        /* \"#utility.yul\":2818:2824   */\n      dup1\n        /* \"#utility.yul\":2867:2869   */\n      0x40\n        /* \"#utility.yul\":2855:2864   */\n      dup4\n        /* \"#utility.yul\":2846:2853   */\n      dup6\n        /* \"#utility.yul\":2842:2865   */\n      sub\n        /* \"#utility.yul\":2838:2870   */\n      slt\n        /* \"#utility.yul\":2835:2954   */\n      iszero\n      tag_182\n      jumpi\n        /* \"#utility.yul\":2873:2952   */\n      tag_183\n      tag_165\n      jump\t// in\n    tag_183:\n        /* \"#utility.yul\":2835:2954   */\n    tag_182:\n        /* \"#utility.yul\":2993:2994   */\n      0x00\n        /* \"#utility.yul\":3018:3071   */\n      tag_184\n        /* \"#utility.yul\":3063:3070   */\n      dup6\n        /* \"#utility.yul\":3054:3060   */\n      dup3\n        /* \"#utility.yul\":3043:3052   */\n      dup7\n        /* \"#utility.yul\":3039:3061   */\n      add\n        /* \"#utility.yul\":3018:3071   */\n      tag_158\n      jump\t// in\n    tag_184:\n        /* \"#utility.yul\":3008:3071   */\n      swap3\n      pop\n        /* \"#utility.yul\":2964:3081   */\n      pop\n        /* \"#utility.yul\":3120:3122   */\n      0x20\n        /* \"#utility.yul\":3146:3206   */\n      tag_185\n        /* \"#utility.yul\":3198:3205   */\n      dup6\n        /* \"#utility.yul\":3189:3195   */\n      dup3\n        /* \"#utility.yul\":3178:3187   */\n      dup7\n        /* \"#utility.yul\":3174:3196   */\n      add\n        /* \"#utility.yul\":3146:3206   */\n      tag_148\n      jump\t// in\n    tag_185:\n        /* \"#utility.yul\":3136:3206   */\n      swap2\n      pop\n        /* \"#utility.yul\":3091:3216   */\n      pop\n        /* \"#utility.yul\":2735:3223   */\n      swap3\n      pop\n      swap3\n      swap1\n      pop\n      jump\t// out\n        /* \"#utility.yul\":3229:3371   */\n    tag_186:\n        /* \"#utility.yul\":3332:3364   */\n      tag_188\n        /* \"#utility.yul\":3358:3363   */\n      dup2\n        /* \"#utility.yul\":3332:3364   */\n      tag_189\n      jump\t// in\n    tag_188:\n        /* \"#utility.yul\":3327:3330   */\n      dup3\n        /* \"#utility.yul\":3320:3365   */\n      mstore\n        /* \"#utility.yul\":3229:3371   */\n      pop\n      pop\n      jump\t// out\n        /* \"#utility.yul\":3377:3518   */\n    tag_190:\n        /* \"#utility.yul\":3469:3511   */\n      tag_192\n        /* \"#utility.yul\":3505:3510   */\n      dup2\n        /* \"#utility.yul\":3469:3511   */\n      tag_193\n      jump\t// in\n    tag_192:\n        /* \"#utility.yul\":3464:3467   */\n      dup3\n        /* \"#utility.yul\":3457:3512   */\n      mstore\n        /* \"#utility.yul\":3377:3518   */\n      pop\n      pop\n      jump\t// out\n        /* \"#utility.yul\":3524:3888   */\n    tag_194:\n        /* \"#utility.yul\":3612:3615   */\n      0x00\n        /* \"#utility.yul\":3640:3679   */\n      tag_196\n        /* \"#utility.yul\":3673:3678   */\n      dup3\n        /* \"#utility.yul\":3640:3679   */\n      tag_197\n      jump\t// in\n    tag_196:\n        /* \"#utility.yul\":3695:3766   */\n      tag_198\n        /* \"#utility.yul\":3759:3765   */\n      dup2\n        /* \"#utility.yul\":3754:3757   */\n      dup6\n        /* \"#utility.yul\":3695:3766   */\n      tag_199\n      jump\t// in\n    tag_198:\n        /* \"#utility.yul\":3688:3766   */\n      swap4\n      pop\n        /* \"#utility.yul\":3775:3827   */\n      tag_200\n        /* \"#utility.yul\":3820:3826   */\n      dup2\n        /* \"#utility.yul\":3815:3818   */\n      dup6\n        /* \"#utility.yul\":3808:3812   */\n      0x20\n        /* \"#utility.yul\":3801:3806   */\n      dup7\n        /* \"#utility.yul\":3797:3813   */\n      add\n        /* \"#utility.yul\":3775:3827   */\n      tag_201\n      jump\t// in\n    tag_200:\n        /* \"#utility.yul\":3852:3881   */\n      tag_202\n        /* \"#utility.yul\":3874:3880   */\n      dup2\n        /* \"#utility.yul\":3852:3881   */\n      tag_203\n      jump\t// in\n    tag_202:\n        /* \"#utility.yul\":3847:3850   */\n      dup5\n        /* \"#utility.yul\":3843:3882   */\n      add\n        /* \"#utility.yul\":3836:3882   */\n      swap2\n      pop\n        /* \"#utility.yul\":3616:3888   */\n      pop\n        /* \"#utility.yul\":3524:3888   */\n      swap3\n      swap2\n      pop\n      pop\n      jump\t// out\n        /* \"#utility.yul\":3918:4720   */\n    tag_204:\n        /* \"#utility.yul\":4003:4006   */\n      0x00\n        /* \"#utility.yul\":4040:4045   */\n      dup2\n        /* \"#utility.yul\":4034:4046   */\n      sload\n        /* \"#utility.yul\":4069:4105   */\n      tag_206\n        /* \"#utility.yul\":4095:4104   */\n      dup2\n        /* \"#utility.yul\":4069:4105   */\n      tag_29\n      jump\t// in\n    tag_206:\n        /* \"#utility.yul\":4121:4192   */\n      tag_207\n        /* \"#utility.yul\":4185:4191   */\n      dup2\n        /* \"#utility.yul\":4180:4183   */\n      dup7\n        /* \"#utility.yul\":4121:4192   */\n      tag_199\n      jump\t// in\n    tag_207:\n        /* \"#utility.yul\":4114:4192   */\n      swap5\n      pop\n        /* \"#utility.yul\":4223:4224   */\n      0x01\n        /* \"#utility.yul\":4212:4221   */\n      dup3\n        /* \"#utility.yul\":4208:4225   */\n      and\n        /* \"#utility.yul\":4239:4240   */\n      0x00\n        /* \"#utility.yul\":4234:4369   */\n      dup2\n      eq\n      tag_209\n      jumpi\n        /* \"#utility.yul\":4383:4384   */\n      0x01\n        /* \"#utility.yul\":4378:4714   */\n      dup2\n      eq\n      tag_210\n      jumpi\n        /* \"#utility.yul\":4201:4714   */\n      jump(tag_208)\n        /* \"#utility.yul\":4234:4369   */\n    tag_209:\n        /* \"#utility.yul\":4318:4322   */\n      0xff\n        /* \"#utility.yul\":4314:4323   */\n      not\n        /* \"#utility.yul\":4303:4312   */\n      dup4\n        /* \"#utility.yul\":4299:4324   */\n      and\n        /* \"#utility.yul\":4294:4297   */\n      dup7\n        /* \"#utility.yul\":4287:4325   */\n      mstore\n        /* \"#utility.yul\":4354:4358   */\n      0x20\n        /* \"#utility.yul\":4349:4352   */\n      dup7\n        /* \"#utility.yul\":4345:4359   */\n      add\n        /* \"#utility.yul\":4338:4359   */\n      swap4\n      pop\n        /* \"#utility.yul\":4234:4369   */\n      jump(tag_208)\n        /* \"#utility.yul\":4378:4714   */\n    tag_210:\n        /* \"#utility.yul\":4445:4483   */\n      tag_211\n        /* \"#utility.yul\":4477:4482   */\n      dup6\n        /* \"#utility.yul\":4445:4483   */\n      tag_212\n      jump\t// in\n    tag_211:\n        /* \"#utility.yul\":4505:4506   */\n      0x00\n        /* \"#utility.yul\":4519:4673   */\n    tag_213:\n        /* \"#utility.yul\":4533:4539   */\n      dup4\n        /* \"#utility.yul\":4530:4531   */\n      dup2\n        /* \"#utility.yul\":4527:4540   */\n      lt\n        /* \"#utility.yul\":4519:4673   */\n      iszero\n      tag_215\n      jumpi\n        /* \"#utility.yul\":4607:4614   */\n      dup2\n        /* \"#utility.yul\":4601:4615   */\n      sload\n        /* \"#utility.yul\":4597:4598   */\n      dup2\n        /* \"#utility.yul\":4592:4595   */\n      dup10\n        /* \"#utility.yul\":4588:4599   */\n      add\n        /* \"#utility.yul\":4581:4616   */\n      mstore\n        /* \"#utility.yul\":4657:4658   */\n      0x01\n        /* \"#utility.yul\":4648:4655   */\n      dup3\n        /* \"#utility.yul\":4644:4659   */\n      add\n        /* \"#utility.yul\":4633:4659   */\n      swap2\n      pop\n        /* \"#utility.yul\":4555:4559   */\n      0x20\n        /* \"#utility.yul\":4552:4553   */\n      dup2\n        /* \"#utility.yul\":4548:4560   */\n      add\n        /* \"#utility.yul\":4543:4560   */\n      swap1\n      pop\n        /* \"#utility.yul\":4519:4673   */\n      jump(tag_213)\n    tag_215:\n        /* \"#utility.yul\":4702:4703   */\n      dup1\n        /* \"#utility.yul\":4697:4700   */\n      dup9\n        /* \"#utility.yul\":4693:4704   */\n      add\n        /* \"#utility.yul\":4686:4704   */\n      swap6\n      pop\n        /* \"#utility.yul\":4385:4714   */\n      pop\n      pop\n        /* \"#utility.yul\":4201:4714   */\n    tag_208:\n      pop\n        /* \"#utility.yul\":4007:4720   */\n      pop\n      pop\n        /* \"#utility.yul\":3918:4720   */\n      swap3\n      swap2\n      pop\n      pop\n      jump\t// out\n        /* \"#utility.yul\":4750:5595   */\n    tag_216:\n        /* \"#utility.yul\":4853:4856   */\n      0x00\n        /* \"#utility.yul\":4890:4895   */\n      dup2\n        /* \"#utility.yul\":4884:4896   */\n      sload\n        /* \"#utility.yul\":4919:4955   */\n      tag_218\n        /* \"#utility.yul\":4945:4954   */\n      dup2\n        /* \"#utility.yul\":4919:4955   */\n      tag_29\n      jump\t// in\n    tag_218:\n        /* \"#utility.yul\":4971:5060   */\n      tag_219\n        /* \"#utility.yul\":5053:5059   */\n      dup2\n        /* \"#utility.yul\":5048:5051   */\n      dup7\n        /* \"#utility.yul\":4971:5060   */\n      tag_220\n      jump\t// in\n    tag_219:\n        /* \"#utility.yul\":4964:5060   */\n      swap5\n      pop\n        /* \"#utility.yul\":5091:5092   */\n      0x01\n        /* \"#utility.yul\":5080:5089   */\n      dup3\n        /* \"#utility.yul\":5076:5093   */\n      and\n        /* \"#utility.yul\":5107:5108   */\n      0x00\n        /* \"#utility.yul\":5102:5239   */\n      dup2\n      eq\n      tag_222\n      jumpi\n        /* \"#utility.yul\":5253:5254   */\n      0x01\n        /* \"#utility.yul\":5248:5589   */\n      dup2\n      eq\n      tag_223\n      jumpi\n        /* \"#utility.yul\":5069:5589   */\n      jump(tag_221)\n        /* \"#utility.yul\":5102:5239   */\n    tag_222:\n        /* \"#utility.yul\":5186:5190   */\n      0xff\n        /* \"#utility.yul\":5182:5191   */\n      not\n        /* \"#utility.yul\":5171:5180   */\n      dup4\n        /* \"#utility.yul\":5167:5192   */\n      and\n        /* \"#utility.yul\":5162:5165   */\n      dup7\n        /* \"#utility.yul\":5155:5193   */\n      mstore\n        /* \"#utility.yul\":5222:5228   */\n      dup2\n        /* \"#utility.yul\":5217:5220   */\n      dup7\n        /* \"#utility.yul\":5213:5229   */\n      add\n        /* \"#utility.yul\":5206:5229   */\n      swap4\n      pop\n        /* \"#utility.yul\":5102:5239   */\n      jump(tag_221)\n        /* \"#utility.yul\":5248:5589   */\n    tag_223:\n        /* \"#utility.yul\":5315:5353   */\n      tag_224\n        /* \"#utility.yul\":5347:5352   */\n      dup6\n        /* \"#utility.yul\":5315:5353   */\n      tag_212\n      jump\t// in\n    tag_224:\n        /* \"#utility.yul\":5375:5376   */\n      0x00\n        /* \"#utility.yul\":5389:5543   */\n    tag_225:\n        /* \"#utility.yul\":5403:5409   */\n      dup4\n        /* \"#utility.yul\":5400:5401   */\n      dup2\n        /* \"#utility.yul\":5397:5410   */\n      lt\n        /* \"#utility.yul\":5389:5543   */\n      iszero\n      tag_227\n      jumpi\n        /* \"#utility.yul\":5477:5484   */\n      dup2\n        /* \"#utility.yul\":5471:5485   */\n      sload\n        /* \"#utility.yul\":5467:5468   */\n      dup2\n        /* \"#utility.yul\":5462:5465   */\n      dup10\n        /* \"#utility.yul\":5458:5469   */\n      add\n        /* \"#utility.yul\":5451:5486   */\n      mstore\n        /* \"#utility.yul\":5527:5528   */\n      0x01\n        /* \"#utility.yul\":5518:5525   */\n      dup3\n        /* \"#utility.yul\":5514:5529   */\n      add\n        /* \"#utility.yul\":5503:5529   */\n      swap2\n      pop\n        /* \"#utility.yul\":5425:5429   */\n      0x20\n        /* \"#utility.yul\":5422:5423   */\n      dup2\n        /* \"#utility.yul\":5418:5430   */\n      add\n        /* \"#utility.yul\":5413:5430   */\n      swap1\n      pop\n        /* \"#utility.yul\":5389:5543   */\n      jump(tag_225)\n    tag_227:\n        /* \"#utility.yul\":5572:5578   */\n      dup4\n        /* \"#utility.yul\":5567:5570   */\n      dup9\n        /* \"#utility.yul\":5563:5579   */\n      add\n        /* \"#utility.yul\":5556:5579   */\n      swap6\n      pop\n        /* \"#utility.yul\":5255:5589   */\n      pop\n      pop\n        /* \"#utility.yul\":5069:5589   */\n    tag_221:\n      pop\n        /* \"#utility.yul\":4857:5595   */\n      pop\n      pop\n        /* \"#utility.yul\":4750:5595   */\n      swap3\n      swap2\n      pop\n      pop\n      jump\t// out\n        /* \"#utility.yul\":5601:5967   */\n    tag_228:\n        /* \"#utility.yul\":5743:5746   */\n      0x00\n        /* \"#utility.yul\":5764:5831   */\n      tag_230\n        /* \"#utility.yul\":5828:5830   */\n      0x22\n        /* \"#utility.yul\":5823:5826   */\n      dup4\n        /* \"#utility.yul\":5764:5831   */\n      tag_199\n      jump\t// in\n    tag_230:\n        /* \"#utility.yul\":5757:5831   */\n      swap2\n      pop\n        /* \"#utility.yul\":5840:5933   */\n      tag_231\n        /* \"#utility.yul\":5929:5932   */\n      dup3\n        /* \"#utility.yul\":5840:5933   */\n      tag_232\n      jump\t// in\n    tag_231:\n        /* \"#utility.yul\":5958:5960   */\n      0x40\n        /* \"#utility.yul\":5953:5956   */\n      dup3\n        /* \"#utility.yul\":5949:5961   */\n      add\n        /* \"#utility.yul\":5942:5961   */\n      swap1\n      pop\n        /* \"#utility.yul\":5601:5967   */\n      swap2\n      swap1\n      pop\n      jump\t// out\n        /* \"#utility.yul\":5973:6339   */\n    tag_233:\n        /* \"#utility.yul\":6115:6118   */\n      0x00\n        /* \"#utility.yul\":6136:6203   */\n      tag_235\n        /* \"#utility.yul\":6200:6202   */\n      0x1b\n        /* \"#utility.yul\":6195:6198   */\n      dup4\n        /* \"#utility.yul\":6136:6203   */\n      tag_199\n      jump\t// in\n    tag_235:\n        /* \"#utility.yul\":6129:6203   */\n      swap2\n      pop\n        /* \"#utility.yul\":6212:6305   */\n      tag_236\n        /* \"#utility.yul\":6301:6304   */\n      dup3\n        /* \"#utility.yul\":6212:6305   */\n      tag_237\n      jump\t// in\n    tag_236:\n        /* \"#utility.yul\":6330:6332   */\n      0x20\n        /* \"#utility.yul\":6325:6328   */\n      dup3\n        /* \"#utility.yul\":6321:6333   */\n      add\n        /* \"#utility.yul\":6314:6333   */\n      swap1\n      pop\n        /* \"#utility.yul\":5973:6339   */\n      swap2\n      swap1\n      pop\n      jump\t// out\n        /* \"#utility.yul\":6345:6711   */\n    tag_238:\n        /* \"#utility.yul\":6487:6490   */\n      0x00\n        /* \"#utility.yul\":6508:6575   */\n      tag_240\n        /* \"#utility.yul\":6572:6574   */\n      0x24\n        /* \"#utility.yul\":6567:6570   */\n      dup4\n        /* \"#utility.yul\":6508:6575   */\n      tag_199\n      jump\t// in\n    tag_240:\n        /* \"#utility.yul\":6501:6575   */\n      swap2\n      pop\n        /* \"#utility.yul\":6584:6677   */\n      tag_241\n        /* \"#utility.yul\":6673:6676   */\n      dup3\n        /* \"#utility.yul\":6584:6677   */\n      tag_242\n      jump\t// in\n    tag_241:\n        /* \"#utility.yul\":6702:6704   */\n      0x40\n        /* \"#utility.yul\":6697:6700   */\n      dup3\n        /* \"#utility.yul\":6693:6705   */\n      add\n        /* \"#utility.yul\":6686:6705   */\n      swap1\n      pop\n        /* \"#utility.yul\":6345:6711   */\n      swap2\n      swap1\n      pop\n      jump\t// out\n        /* \"#utility.yul\":6717:7083   */\n    tag_243:\n        /* \"#utility.yul\":6859:6862   */\n      0x00\n        /* \"#utility.yul\":6880:6947   */\n      tag_245\n        /* \"#utility.yul\":6944:6946   */\n      0x2f\n        /* \"#utility.yul\":6939:6942   */\n      dup4\n        /* \"#utility.yul\":6880:6947   */\n      tag_199\n      jump\t// in\n    tag_245:\n        /* \"#utility.yul\":6873:6947   */\n      swap2\n      pop\n        /* \"#utility.yul\":6956:7049   */\n      tag_246\n        /* \"#utility.yul\":7045:7048   */\n      dup3\n        /* \"#utility.yul\":6956:7049   */\n      tag_247\n      jump\t// in\n    tag_246:\n        /* \"#utility.yul\":7074:7076   */\n      0x40\n        /* \"#utility.yul\":7069:7072   */\n      dup3\n        /* \"#utility.yul\":7065:7077   */\n      add\n        /* \"#utility.yul\":7058:7077   */\n      swap1\n      pop\n        /* \"#utility.yul\":6717:7083   */\n      swap2\n      swap1\n      pop\n      jump\t// out\n        /* \"#utility.yul\":7089:7455   */\n    tag_248:\n        /* \"#utility.yul\":7231:7234   */\n      0x00\n        /* \"#utility.yul\":7252:7319   */\n      tag_250\n        /* \"#utility.yul\":7316:7318   */\n      0x22\n        /* \"#utility.yul\":7311:7314   */\n      dup4\n        /* \"#utility.yul\":7252:7319   */\n      tag_199\n      jump\t// in\n    tag_250:\n        /* \"#utility.yul\":7245:7319   */\n      swap2\n      pop\n        /* \"#utility.yul\":7328:7421   */\n      tag_251\n        /* \"#utility.yul\":7417:7420   */\n      dup3\n        /* \"#utility.yul\":7328:7421   */\n      tag_252\n      jump\t// in\n    tag_251:\n        /* \"#utility.yul\":7446:7448   */\n      0x40\n        /* \"#utility.yul\":7441:7444   */\n      dup3\n        /* \"#utility.yul\":7437:7449   */\n      add\n        /* \"#utility.yul\":7430:7449   */\n      swap1\n      pop\n        /* \"#utility.yul\":7089:7455   */\n      swap2\n      swap1\n      pop\n      jump\t// out\n        /* \"#utility.yul\":7461:7579   */\n    tag_253:\n        /* \"#utility.yul\":7548:7572   */\n      tag_255\n        /* \"#utility.yul\":7566:7571   */\n      dup2\n        /* \"#utility.yul\":7548:7572   */\n      tag_256\n      jump\t// in\n    tag_255:\n        /* \"#utility.yul\":7543:7546   */\n      dup3\n        /* \"#utility.yul\":7536:7573   */\n      mstore\n        /* \"#utility.yul\":7461:7579   */\n      pop\n      pop\n      jump\t// out\n        /* \"#utility.yul\":7585:7854   */\n    tag_119:\n        /* \"#utility.yul\":7714:7717   */\n      0x00\n        /* \"#utility.yul\":7736:7828   */\n      tag_258\n        /* \"#utility.yul\":7824:7827   */\n      dup3\n        /* \"#utility.yul\":7815:7821   */\n      dup5\n        /* \"#utility.yul\":7736:7828   */\n      tag_216\n      jump\t// in\n    tag_258:\n        /* \"#utility.yul\":7729:7828   */\n      swap2\n      pop\n        /* \"#utility.yul\":7845:7848   */\n      dup2\n        /* \"#utility.yul\":7838:7848   */\n      swap1\n      pop\n        /* \"#utility.yul\":7585:7854   */\n      swap3\n      swap2\n      pop\n      pop\n      jump\t// out\n        /* \"#utility.yul\":7860:9061   */\n    tag_12:\n        /* \"#utility.yul\":8202:8206   */\n      0x00\n        /* \"#utility.yul\":8240:8243   */\n      0xe0\n        /* \"#utility.yul\":8229:8238   */\n      dup3\n        /* \"#utility.yul\":8225:8244   */\n      add\n        /* \"#utility.yul\":8217:8244   */\n      swap1\n      pop\n        /* \"#utility.yul\":8290:8299   */\n      dup2\n        /* \"#utility.yul\":8284:8288   */\n      dup2\n        /* \"#utility.yul\":8280:8300   */\n      sub\n        /* \"#utility.yul\":8276:8277   */\n      0x00\n        /* \"#utility.yul\":8265:8274   */\n      dup4\n        /* \"#utility.yul\":8261:8278   */\n      add\n        /* \"#utility.yul\":8254:8301   */\n      mstore\n        /* \"#utility.yul\":8318:8396   */\n      tag_260\n        /* \"#utility.yul\":8391:8395   */\n      dup2\n        /* \"#utility.yul\":8382:8388   */\n      dup11\n        /* \"#utility.yul\":8318:8396   */\n      tag_194\n      jump\t// in\n    tag_260:\n        /* \"#utility.yul\":8310:8396   */\n      swap1\n      pop\n        /* \"#utility.yul\":8443:8452   */\n      dup2\n        /* \"#utility.yul\":8437:8441   */\n      dup2\n        /* \"#utility.yul\":8433:8453   */\n      sub\n        /* \"#utility.yul\":8428:8430   */\n      0x20\n        /* \"#utility.yul\":8417:8426   */\n      dup4\n        /* \"#utility.yul\":8413:8431   */\n      add\n        /* \"#utility.yul\":8406:8454   */\n      mstore\n        /* \"#utility.yul\":8471:8549   */\n      tag_261\n        /* \"#utility.yul\":8544:8548   */\n      dup2\n        /* \"#utility.yul\":8535:8541   */\n      dup10\n        /* \"#utility.yul\":8471:8549   */\n      tag_194\n      jump\t// in\n    tag_261:\n        /* \"#utility.yul\":8463:8549   */\n      swap1\n      pop\n        /* \"#utility.yul\":8596:8605   */\n      dup2\n        /* \"#utility.yul\":8590:8594   */\n      dup2\n        /* \"#utility.yul\":8586:8606   */\n      sub\n        /* \"#utility.yul\":8581:8583   */\n      0x40\n        /* \"#utility.yul\":8570:8579   */\n      dup4\n        /* \"#utility.yul\":8566:8584   */\n      add\n        /* \"#utility.yul\":8559:8607   */\n      mstore\n        /* \"#utility.yul\":8624:8702   */\n      tag_262\n        /* \"#utility.yul\":8697:8701   */\n      dup2\n        /* \"#utility.yul\":8688:8694   */\n      dup9\n        /* \"#utility.yul\":8624:8702   */\n      tag_194\n      jump\t// in\n    tag_262:\n        /* \"#utility.yul\":8616:8702   */\n      swap1\n      pop\n        /* \"#utility.yul\":8712:8784   */\n      tag_263\n        /* \"#utility.yul\":8780:8782   */\n      0x60\n        /* \"#utility.yul\":8769:8778   */\n      dup4\n        /* \"#utility.yul\":8765:8783   */\n      add\n        /* \"#utility.yul\":8756:8762   */\n      dup8\n        /* \"#utility.yul\":8712:8784   */\n      tag_253\n      jump\t// in\n    tag_263:\n        /* \"#utility.yul\":8794:8883   */\n      tag_264\n        /* \"#utility.yul\":8878:8881   */\n      0x80\n        /* \"#utility.yul\":8867:8876   */\n      dup4\n        /* \"#utility.yul\":8863:8882   */\n      add\n        /* \"#utility.yul\":8854:8860   */\n      dup7\n        /* \"#utility.yul\":8794:8883   */\n      tag_186\n      jump\t// in\n    tag_264:\n        /* \"#utility.yul\":8893:8966   */\n      tag_265\n        /* \"#utility.yul\":8961:8964   */\n      0xa0\n        /* \"#utility.yul\":8950:8959   */\n      dup4\n        /* \"#utility.yul\":8946:8965   */\n      add\n        /* \"#utility.yul\":8937:8943   */\n      dup6\n        /* \"#utility.yul\":8893:8966   */\n      tag_253\n      jump\t// in\n    tag_265:\n        /* \"#utility.yul\":8976:9054   */\n      tag_266\n        /* \"#utility.yul\":9049:9052   */\n      0xc0\n        /* \"#utility.yul\":9038:9047   */\n      dup4\n        /* \"#utility.yul\":9034:9053   */\n      add\n        /* \"#utility.yul\":9025:9031   */\n      dup5\n        /* \"#utility.yul\":8976:9054   */\n      tag_190\n      jump\t// in\n    tag_266:\n        /* \"#utility.yul\":7860:9061   */\n      swap9\n      swap8\n      pop\n      pop\n      pop\n      pop\n      pop\n      pop\n      pop\n      pop\n      jump\t// out\n        /* \"#utility.yul\":9067:9494   */\n    tag_73:\n        /* \"#utility.yul\":9210:9214   */\n      0x00\n        /* \"#utility.yul\":9248:9250   */\n      0x40\n        /* \"#utility.yul\":9237:9246   */\n      dup3\n        /* \"#utility.yul\":9233:9251   */\n      add\n        /* \"#utility.yul\":9225:9251   */\n      swap1\n      pop\n        /* \"#utility.yul\":9297:9306   */\n      dup2\n        /* \"#utility.yul\":9291:9295   */\n      dup2\n        /* \"#utility.yul\":9287:9307   */\n      sub\n        /* \"#utility.yul\":9283:9284   */\n      0x00\n        /* \"#utility.yul\":9272:9281   */\n      dup4\n        /* \"#utility.yul\":9268:9285   */\n      add\n        /* \"#utility.yul\":9261:9308   */\n      mstore\n        /* \"#utility.yul\":9325:9400   */\n      tag_268\n        /* \"#utility.yul\":9395:9399   */\n      dup2\n        /* \"#utility.yul\":9386:9392   */\n      dup6\n        /* \"#utility.yul\":9325:9400   */\n      tag_204\n      jump\t// in\n    tag_268:\n        /* \"#utility.yul\":9317:9400   */\n      swap1\n      pop\n        /* \"#utility.yul\":9410:9487   */\n      tag_269\n        /* \"#utility.yul\":9483:9485   */\n      0x20\n        /* \"#utility.yul\":9472:9481   */\n      dup4\n        /* \"#utility.yul\":9468:9486   */\n      add\n        /* \"#utility.yul\":9459:9465   */\n      dup5\n        /* \"#utility.yul\":9410:9487   */\n      tag_190\n      jump\t// in\n    tag_269:\n        /* \"#utility.yul\":9067:9494   */\n      swap4\n      swap3\n      pop\n      pop\n      pop\n      jump\t// out\n        /* \"#utility.yul\":9500:9917   */\n    tag_125:\n        /* \"#utility.yul\":9638:9642   */\n      0x00\n        /* \"#utility.yul\":9676:9678   */\n      0x40\n        /* \"#utility.yul\":9665:9674   */\n      dup3\n        /* \"#utility.yul\":9661:9679   */\n      add\n        /* \"#utility.yul\":9653:9679   */\n      swap1\n      pop\n        /* \"#utility.yul\":9725:9734   */\n      dup2\n        /* \"#utility.yul\":9719:9723   */\n      dup2\n        /* \"#utility.yul\":9715:9735   */\n      sub\n        /* \"#utility.yul\":9711:9712   */\n      0x00\n        /* \"#utility.yul\":9700:9709   */\n      dup4\n        /* \"#utility.yul\":9696:9713   */\n      add\n        /* \"#utility.yul\":9689:9736   */\n      mstore\n        /* \"#utility.yul\":9753:9828   */\n      tag_271\n        /* \"#utility.yul\":9823:9827   */\n      dup2\n        /* \"#utility.yul\":9814:9820   */\n      dup6\n        /* \"#utility.yul\":9753:9828   */\n      tag_204\n      jump\t// in\n    tag_271:\n        /* \"#utility.yul\":9745:9828   */\n      swap1\n      pop\n        /* \"#utility.yul\":9838:9910   */\n      tag_272\n        /* \"#utility.yul\":9906:9908   */\n      0x20\n        /* \"#utility.yul\":9895:9904   */\n      dup4\n        /* \"#utility.yul\":9891:9909   */\n      add\n        /* \"#utility.yul\":9882:9888   */\n      dup5\n        /* \"#utility.yul\":9838:9910   */\n      tag_253\n      jump\t// in\n    tag_272:\n        /* \"#utility.yul\":9500:9917   */\n      swap4\n      swap3\n      pop\n      pop\n      pop\n      jump\t// out\n        /* \"#utility.yul\":9923:10342   */\n    tag_90:\n        /* \"#utility.yul\":10089:10093   */\n      0x00\n        /* \"#utility.yul\":10127:10129   */\n      0x20\n        /* \"#utility.yul\":10116:10125   */\n      dup3\n        /* \"#utility.yul\":10112:10130   */\n      add\n        /* \"#utility.yul\":10104:10130   */\n      swap1\n      pop\n        /* \"#utility.yul\":10176:10185   */\n      dup2\n        /* \"#utility.yul\":10170:10174   */\n      dup2\n        /* \"#utility.yul\":10166:10186   */\n      sub\n        /* \"#utility.yul\":10162:10163   */\n      0x00\n        /* \"#utility.yul\":10151:10160   */\n      dup4\n        /* \"#utility.yul\":10147:10164   */\n      add\n        /* \"#utility.yul\":10140:10187   */\n      mstore\n        /* \"#utility.yul\":10204:10335   */\n      tag_274\n        /* \"#utility.yul\":10330:10334   */\n      dup2\n        /* \"#utility.yul\":10204:10335   */\n      tag_228\n      jump\t// in\n    tag_274:\n        /* \"#utility.yul\":10196:10335   */\n      swap1\n      pop\n        /* \"#utility.yul\":9923:10342   */\n      swap2\n      swap1\n      pop\n      jump\t// out\n        /* \"#utility.yul\":10348:10767   */\n    tag_63:\n        /* \"#utility.yul\":10514:10518   */\n      0x00\n        /* \"#utility.yul\":10552:10554   */\n      0x20\n        /* \"#utility.yul\":10541:10550   */\n      dup3\n        /* \"#utility.yul\":10537:10555   */\n      add\n        /* \"#utility.yul\":10529:10555   */\n      swap1\n      pop\n        /* \"#utility.yul\":10601:10610   */\n      dup2\n        /* \"#utility.yul\":10595:10599   */\n      dup2\n        /* \"#utility.yul\":10591:10611   */\n      sub\n        /* \"#utility.yul\":10587:10588   */\n      0x00\n        /* \"#utility.yul\":10576:10585   */\n      dup4\n        /* \"#utility.yul\":10572:10589   */\n      add\n        /* \"#utility.yul\":10565:10612   */\n      mstore\n        /* \"#utility.yul\":10629:10760   */\n      tag_276\n        /* \"#utility.yul\":10755:10759   */\n      dup2\n        /* \"#utility.yul\":10629:10760   */\n      tag_233\n      jump\t// in\n    tag_276:\n        /* \"#utility.yul\":10621:10760   */\n      swap1\n      pop\n        /* \"#utility.yul\":10348:10767   */\n      swap2\n      swap1\n      pop\n      jump\t// out\n        /* \"#utility.yul\":10773:11192   */\n    tag_101:\n        /* \"#utility.yul\":10939:10943   */\n      0x00\n        /* \"#utility.yul\":10977:10979   */\n      0x20\n        /* \"#utility.yul\":10966:10975   */\n      dup3\n        /* \"#utility.yul\":10962:10980   */\n      add\n        /* \"#utility.yul\":10954:10980   */\n      swap1\n      pop\n        /* \"#utility.yul\":11026:11035   */\n      dup2\n        /* \"#utility.yul\":11020:11024   */\n      dup2\n        /* \"#utility.yul\":11016:11036   */\n      sub\n        /* \"#utility.yul\":11012:11013   */\n      0x00\n        /* \"#utility.yul\":11001:11010   */\n      dup4\n        /* \"#utility.yul\":10997:11014   */\n      add\n        /* \"#utility.yul\":10990:11037   */\n      mstore\n        /* \"#utility.yul\":11054:11185   */\n      tag_278\n        /* \"#utility.yul\":11180:11184   */\n      dup2\n        /* \"#utility.yul\":11054:11185   */\n      tag_238\n      jump\t// in\n    tag_278:\n        /* \"#utility.yul\":11046:11185   */\n      swap1\n      pop\n        /* \"#utility.yul\":10773:11192   */\n      swap2\n      swap1\n      pop\n      jump\t// out\n        /* \"#utility.yul\":11198:11617   */\n    tag_51:\n        /* \"#utility.yul\":11364:11368   */\n      0x00\n        /* \"#utility.yul\":11402:11404   */\n      0x20\n        /* \"#utility.yul\":11391:11400   */\n      dup3\n        /* \"#utility.yul\":11387:11405   */\n      add\n        /* \"#utility.yul\":11379:11405   */\n      swap1\n      pop\n        /* \"#utility.yul\":11451:11460   */\n      dup2\n        /* \"#utility.yul\":11445:11449   */\n      dup2\n        /* \"#utility.yul\":11441:11461   */\n      sub\n        /* \"#utility.yul\":11437:11438   */\n      0x00\n        /* \"#utility.yul\":11426:11435   */\n      dup4\n        /* \"#utility.yul\":11422:11439   */\n      add\n        /* \"#utility.yul\":11415:11462   */\n      mstore\n        /* \"#utility.yul\":11479:11610   */\n      tag_280\n        /* \"#utility.yul\":11605:11609   */\n      dup2\n        /* \"#utility.yul\":11479:11610   */\n      tag_243\n      jump\t// in\n    tag_280:\n        /* \"#utility.yul\":11471:11610   */\n      swap1\n      pop\n        /* \"#utility.yul\":11198:11617   */\n      swap2\n      swap1\n      pop\n      jump\t// out\n        /* \"#utility.yul\":11623:12042   */\n    tag_104:\n        /* \"#utility.yul\":11789:11793   */\n      0x00\n        /* \"#utility.yul\":11827:11829   */\n      0x20\n        /* \"#utility.yul\":11816:11825   */\n      dup3\n        /* \"#utility.yul\":11812:11830   */\n      add\n        /* \"#utility.yul\":11804:11830   */\n      swap1\n      pop\n        /* \"#utility.yul\":11876:11885   */\n      dup2\n        /* \"#utility.yul\":11870:11874   */\n      dup2\n        /* \"#utility.yul\":11866:11886   */\n      sub\n        /* \"#utility.yul\":11862:11863   */\n      0x00\n        /* \"#utility.yul\":11851:11860   */\n      dup4\n        /* \"#utility.yul\":11847:11864   */\n      add\n        /* \"#utility.yul\":11840:11887   */\n      mstore\n        /* \"#utility.yul\":11904:12035   */\n      tag_282\n        /* \"#utility.yul\":12030:12034   */\n      dup2\n        /* \"#utility.yul\":11904:12035   */\n      tag_248\n      jump\t// in\n    tag_282:\n        /* \"#utility.yul\":11896:12035   */\n      swap1\n      pop\n        /* \"#utility.yul\":11623:12042   */\n      swap2\n      swap1\n      pop\n      jump\t// out\n        /* \"#utility.yul\":12048:12177   */\n    tag_142:\n        /* \"#utility.yul\":12082:12088   */\n      0x00\n        /* \"#utility.yul\":12109:12129   */\n      tag_284\n      tag_285\n      jump\t// in\n    tag_284:\n        /* \"#utility.yul\":12099:12129   */\n      swap1\n      pop\n        /* \"#utility.yul\":12138:12171   */\n      tag_286\n        /* \"#utility.yul\":12166:12170   */\n      dup3\n        /* \"#utility.yul\":12158:12164   */\n      dup3\n        /* \"#utility.yul\":12138:12171   */\n      tag_287\n      jump\t// in\n    tag_286:\n        /* \"#utility.yul\":12048:12177   */\n      swap2\n      swap1\n      pop\n      jump\t// out\n        /* \"#utility.yul\":12183:12258   */\n    tag_285:\n        /* \"#utility.yul\":12216:12222   */\n      0x00\n        /* \"#utility.yul\":12249:12251   */\n      0x40\n        /* \"#utility.yul\":12243:12252   */\n      mload\n        /* \"#utility.yul\":12233:12252   */\n      swap1\n      pop\n        /* \"#utility.yul\":12183:12258   */\n      swap1\n      jump\t// out\n        /* \"#utility.yul\":12264:12572   */\n    tag_141:\n        /* \"#utility.yul\":12326:12330   */\n      0x00\n        /* \"#utility.yul\":12416:12434   */\n      0xffffffffffffffff\n        /* \"#utility.yul\":12408:12414   */\n      dup3\n        /* \"#utility.yul\":12405:12435   */\n      gt\n        /* \"#utility.yul\":12402:12458   */\n      iszero\n      tag_290\n      jumpi\n        /* \"#utility.yul\":12438:12456   */\n      tag_291\n      tag_292\n      jump\t// in\n    tag_291:\n        /* \"#utility.yul\":12402:12458   */\n    tag_290:\n        /* \"#utility.yul\":12476:12505   */\n      tag_293\n        /* \"#utility.yul\":12498:12504   */\n      dup3\n        /* \"#utility.yul\":12476:12505   */\n      tag_203\n      jump\t// in\n    tag_293:\n        /* \"#utility.yul\":12468:12505   */\n      swap1\n      pop\n        /* \"#utility.yul\":12560:12564   */\n      0x20\n        /* \"#utility.yul\":12554:12558   */\n      dup2\n        /* \"#utility.yul\":12550:12565   */\n      add\n        /* \"#utility.yul\":12542:12565   */\n      swap1\n      pop\n        /* \"#utility.yul\":12264:12572   */\n      swap2\n      swap1\n      pop\n      jump\t// out\n        /* \"#utility.yul\":12578:12719   */\n    tag_212:\n        /* \"#utility.yul\":12627:12631   */\n      0x00\n        /* \"#utility.yul\":12650:12653   */\n      dup2\n        /* \"#utility.yul\":12642:12653   */\n      swap1\n      pop\n        /* \"#utility.yul\":12673:12676   */\n      dup2\n        /* \"#utility.yul\":12670:12671   */\n      0x00\n        /* \"#utility.yul\":12663:12677   */\n      mstore\n        /* \"#utility.yul\":12707:12711   */\n      0x20\n        /* \"#utility.yul\":12704:12705   */\n      0x00\n        /* \"#utility.yul\":12694:12712   */\n      keccak256\n        /* \"#utility.yul\":12686:12712   */\n      swap1\n      pop\n        /* \"#utility.yul\":12578:12719   */\n      swap2\n      swap1\n      pop\n      jump\t// out\n        /* \"#utility.yul\":12725:12824   */\n    tag_197:\n        /* \"#utility.yul\":12777:12783   */\n      0x00\n        /* \"#utility.yul\":12811:12816   */\n      dup2\n        /* \"#utility.yul\":12805:12817   */\n      mload\n        /* \"#utility.yul\":12795:12817   */\n      swap1\n      pop\n        /* \"#utility.yul\":12725:12824   */\n      swap2\n      swap1\n      pop\n      jump\t// out\n        /* \"#utility.yul\":12830:12999   */\n    tag_199:\n        /* \"#utility.yul\":12914:12925   */\n      0x00\n        /* \"#utility.yul\":12948:12954   */\n      dup3\n        /* \"#utility.yul\":12943:12946   */\n      dup3\n        /* \"#utility.yul\":12936:12955   */\n      mstore\n        /* \"#utility.yul\":12988:12992   */\n      0x20\n        /* \"#utility.yul\":12983:12986   */\n      dup3\n        /* \"#utility.yul\":12979:12993   */\n      add\n        /* \"#utility.yul\":12964:12993   */\n      swap1\n      pop\n        /* \"#utility.yul\":12830:12999   */\n      swap3\n      swap2\n      pop\n      pop\n      jump\t// out\n        /* \"#utility.yul\":13005:13153   */\n    tag_220:\n        /* \"#utility.yul\":13107:13118   */\n      0x00\n        /* \"#utility.yul\":13144:13147   */\n      dup2\n        /* \"#utility.yul\":13129:13147   */\n      swap1\n      pop\n        /* \"#utility.yul\":13005:13153   */\n      swap3\n      swap2\n      pop\n      pop\n      jump\t// out\n        /* \"#utility.yul\":13159:13464   */\n    tag_114:\n        /* \"#utility.yul\":13199:13202   */\n      0x00\n        /* \"#utility.yul\":13218:13238   */\n      tag_299\n        /* \"#utility.yul\":13236:13237   */\n      dup3\n        /* \"#utility.yul\":13218:13238   */\n      tag_256\n      jump\t// in\n    tag_299:\n        /* \"#utility.yul\":13213:13238   */\n      swap2\n      pop\n        /* \"#utility.yul\":13252:13272   */\n      tag_300\n        /* \"#utility.yul\":13270:13271   */\n      dup4\n        /* \"#utility.yul\":13252:13272   */\n      tag_256\n      jump\t// in\n    tag_300:\n        /* \"#utility.yul\":13247:13272   */\n      swap3\n      pop\n        /* \"#utility.yul\":13406:13407   */\n      dup3\n        /* \"#utility.yul\":13338:13404   */\n      0xffffffffffffffffffffffffffffffffffffffffffffffffffffffffffffffff\n        /* \"#utility.yul\":13334:13408   */\n      sub\n        /* \"#utility.yul\":13331:13332   */\n      dup3\n        /* \"#utility.yul\":13328:13409   */\n      gt\n        /* \"#utility.yul\":13325:13432   */\n      iszero\n      tag_301\n      jumpi\n        /* \"#utility.yul\":13412:13430   */\n      tag_302\n      tag_303\n      jump\t// in\n    tag_302:\n        /* \"#utility.yul\":13325:13432   */\n    tag_301:\n        /* \"#utility.yul\":13456:13457   */\n      dup3\n        /* \"#utility.yul\":13453:13454   */\n      dup3\n        /* \"#utility.yul\":13449:13458   */\n      add\n        /* \"#utility.yul\":13442:13458   */\n      swap1\n      pop\n        /* \"#utility.yul\":13159:13464   */\n      swap3\n      swap2\n      pop\n      pop\n      jump\t// out\n        /* \"#utility.yul\":13470:13574   */\n    tag_189:\n        /* \"#utility.yul\":13515:13522   */\n      0x00\n        /* \"#utility.yul\":13544:13568   */\n      tag_305\n        /* \"#utility.yul\":13562:13567   */\n      dup3\n        /* \"#utility.yul\":13544:13568   */\n      tag_306\n      jump\t// in\n    tag_305:\n        /* \"#utility.yul\":13533:13568   */\n      swap1\n      pop\n        /* \"#utility.yul\":13470:13574   */\n      swap2\n      swap1\n      pop\n      jump\t// out\n        /* \"#utility.yul\":13580:13705   */\n    tag_307:\n        /* \"#utility.yul\":13624:13631   */\n      0x00\n        /* \"#utility.yul\":13653:13658   */\n      dup2\n        /* \"#utility.yul\":13642:13658   */\n      swap1\n      pop\n        /* \"#utility.yul\":13659:13699   */\n      tag_309\n        /* \"#utility.yul\":13693:13698   */\n      dup3\n        /* \"#utility.yul\":13659:13699   */\n      tag_310\n      jump\t// in\n    tag_309:\n        /* \"#utility.yul\":13580:13705   */\n      swap2\n      swap1\n      pop\n      jump\t// out\n        /* \"#utility.yul\":13711:13837   */\n    tag_306:\n        /* \"#utility.yul\":13748:13755   */\n      0x00\n        /* \"#utility.yul\":13788:13830   */\n      0xffffffffffffffffffffffffffffffffffffffff\n        /* \"#utility.yul\":13781:13786   */\n      dup3\n        /* \"#utility.yul\":13777:13831   */\n      and\n        /* \"#utility.yul\":13766:13831   */\n      swap1\n      pop\n        /* \"#utility.yul\":13711:13837   */\n      swap2\n      swap1\n      pop\n      jump\t// out\n        /* \"#utility.yul\":13843:13920   */\n    tag_256:\n        /* \"#utility.yul\":13880:13887   */\n      0x00\n        /* \"#utility.yul\":13909:13914   */\n      dup2\n        /* \"#utility.yul\":13898:13914   */\n      swap1\n      pop\n        /* \"#utility.yul\":13843:13920   */\n      swap2\n      swap1\n      pop\n      jump\t// out\n        /* \"#utility.yul\":13926:14051   */\n    tag_193:\n        /* \"#utility.yul\":13981:13990   */\n      0x00\n        /* \"#utility.yul\":14014:14045   */\n      tag_314\n        /* \"#utility.yul\":14039:14044   */\n      dup3\n        /* \"#utility.yul\":14014:14045   */\n      tag_307\n      jump\t// in\n    tag_314:\n        /* \"#utility.yul\":14001:14045   */\n      swap1\n      pop\n        /* \"#utility.yul\":13926:14051   */\n      swap2\n      swap1\n      pop\n      jump\t// out\n        /* \"#utility.yul\":14057:14211   */\n    tag_147:\n        /* \"#utility.yul\":14141:14147   */\n      dup3\n        /* \"#utility.yul\":14136:14139   */\n      dup2\n        /* \"#utility.yul\":14131:14134   */\n      dup4\n        /* \"#utility.yul\":14118:14148   */\n      calldatacopy\n        /* \"#utility.yul\":14203:14204   */\n      0x00\n        /* \"#utility.yul\":14194:14200   */\n      dup4\n        /* \"#utility.yul\":14189:14192   */\n      dup4\n        /* \"#utility.yul\":14185:14201   */\n      add\n        /* \"#utility.yul\":14178:14205   */\n      mstore\n        /* \"#utility.yul\":14057:14211   */\n      pop\n      pop\n      pop\n      jump\t// out\n        /* \"#utility.yul\":14217:14524   */\n    tag_201:\n        /* \"#utility.yul\":14285:14286   */\n      0x00\n        /* \"#utility.yul\":14295:14408   */\n    tag_317:\n        /* \"#utility.yul\":14309:14315   */\n      dup4\n        /* \"#utility.yul\":14306:14307   */\n      dup2\n        /* \"#utility.yul\":14303:14316   */\n      lt\n        /* \"#utility.yul\":14295:14408   */\n      iszero\n      tag_319\n      jumpi\n        /* \"#utility.yul\":14394:14395   */\n      dup1\n        /* \"#utility.yul\":14389:14392   */\n      dup3\n        /* \"#utility.yul\":14385:14396   */\n      add\n        /* \"#utility.yul\":14379:14397   */\n      mload\n        /* \"#utility.yul\":14375:14376   */\n      dup2\n        /* \"#utility.yul\":14370:14373   */\n      dup5\n        /* \"#utility.yul\":14366:14377   */\n      add\n        /* \"#utility.yul\":14359:14398   */\n      mstore\n        /* \"#utility.yul\":14331:14333   */\n      0x20\n        /* \"#utility.yul\":14328:14329   */\n      dup2\n        /* \"#utility.yul\":14324:14334   */\n      add\n        /* \"#utility.yul\":14319:14334   */\n      swap1\n      pop\n        /* \"#utility.yul\":14295:14408   */\n      jump(tag_317)\n    tag_319:\n        /* \"#utility.yul\":14426:14432   */\n      dup4\n        /* \"#utility.yul\":14423:14424   */\n      dup2\n        /* \"#utility.yul\":14420:14433   */\n      gt\n        /* \"#utility.yul\":14417:14518   */\n      iszero\n      tag_320\n      jumpi\n        /* \"#utility.yul\":14506:14507   */\n      0x00\n        /* \"#utility.yul\":14497:14503   */\n      dup5\n        /* \"#utility.yul\":14492:14495   */\n      dup5\n        /* \"#utility.yul\":14488:14504   */\n      add\n        /* \"#utility.yul\":14481:14508   */\n      mstore\n        /* \"#utility.yul\":14417:14518   */\n    tag_320:\n        /* \"#utility.yul\":14266:14524   */\n      pop\n        /* \"#utility.yul\":14217:14524   */\n      pop\n      pop\n      pop\n      jump\t// out\n        /* \"#utility.yul\":14530:14850   */\n    tag_29:\n        /* \"#utility.yul\":14574:14580   */\n      0x00\n        /* \"#utility.yul\":14611:14612   */\n      0x02\n        /* \"#utility.yul\":14605:14609   */\n      dup3\n        /* \"#utility.yul\":14601:14613   */\n      div\n        /* \"#utility.yul\":14591:14613   */\n      swap1\n      pop\n        /* \"#utility.yul\":14658:14659   */\n      0x01\n        /* \"#utility.yul\":14652:14656   */\n      dup3\n        /* \"#utility.yul\":14648:14660   */\n      and\n        /* \"#utility.yul\":14679:14697   */\n      dup1\n        /* \"#utility.yul\":14669:14750   */\n      tag_322\n      jumpi\n        /* \"#utility.yul\":14735:14739   */\n      0x7f\n        /* \"#utility.yul\":14727:14733   */\n      dup3\n        /* \"#utility.yul\":14723:14740   */\n      and\n        /* \"#utility.yul\":14713:14740   */\n      swap2\n      pop\n        /* \"#utility.yul\":14669:14750   */\n    tag_322:\n        /* \"#utility.yul\":14797:14799   */\n      0x20\n        /* \"#utility.yul\":14789:14795   */\n      dup3\n        /* \"#utility.yul\":14786:14800   */\n      lt\n        /* \"#utility.yul\":14766:14784   */\n      dup2\n        /* \"#utility.yul\":14763:14801   */\n      eq\n        /* \"#utility.yul\":14760:14844   */\n      iszero\n      tag_323\n      jumpi\n        /* \"#utility.yul\":14816:14834   */\n      tag_324\n      tag_325\n      jump\t// in\n    tag_324:\n        /* \"#utility.yul\":14760:14844   */\n    tag_323:\n        /* \"#utility.yul\":14581:14850   */\n      pop\n        /* \"#utility.yul\":14530:14850   */\n      swap2\n      swap1\n      pop\n      jump\t// out\n        /* \"#utility.yul\":14856:15137   */\n    tag_287:\n        /* \"#utility.yul\":14939:14966   */\n      tag_327\n        /* \"#utility.yul\":14961:14965   */\n      dup3\n        /* \"#utility.yul\":14939:14966   */\n      tag_203\n      jump\t// in\n    tag_327:\n        /* \"#utility.yul\":14931:14937   */\n      dup2\n        /* \"#utility.yul\":14927:14967   */\n      add\n        /* \"#utility.yul\":15069:15075   */\n      dup2\n        /* \"#utility.yul\":15057:15067   */\n      dup2\n        /* \"#utility.yul\":15054:15076   */\n      lt\n        /* \"#utility.yul\":15033:15051   */\n      0xffffffffffffffff\n        /* \"#utility.yul\":15021:15031   */\n      dup3\n        /* \"#utility.yul\":15018:15052   */\n      gt\n        /* \"#utility.yul\":15015:15077   */\n      or\n        /* \"#utility.yul\":15012:15100   */\n      iszero\n      tag_328\n      jumpi\n        /* \"#utility.yul\":15080:15098   */\n      tag_329\n      tag_292\n      jump\t// in\n    tag_329:\n        /* \"#utility.yul\":15012:15100   */\n    tag_328:\n        /* \"#utility.yul\":15120:15130   */\n      dup1\n        /* \"#utility.yul\":15116:15118   */\n      0x40\n        /* \"#utility.yul\":15109:15131   */\n      mstore\n        /* \"#utility.yul\":14899:15137   */\n      pop\n        /* \"#utility.yul\":14856:15137   */\n      pop\n      pop\n      jump\t// out\n        /* \"#utility.yul\":15143:15323   */\n    tag_303:\n        /* \"#utility.yul\":15191:15268   */\n      0x4e487b7100000000000000000000000000000000000000000000000000000000\n        /* \"#utility.yul\":15188:15189   */\n      0x00\n        /* \"#utility.yul\":15181:15269   */\n      mstore\n        /* \"#utility.yul\":15288:15292   */\n      0x11\n        /* \"#utility.yul\":15285:15286   */\n      0x04\n        /* \"#utility.yul\":15278:15293   */\n      mstore\n        /* \"#utility.yul\":15312:15316   */\n      0x24\n        /* \"#utility.yul\":15309:15310   */\n      0x00\n        /* \"#utility.yul\":15302:15317   */\n      revert\n        /* \"#utility.yul\":15329:15509   */\n    tag_55:\n        /* \"#utility.yul\":15377:15454   */\n      0x4e487b7100000000000000000000000000000000000000000000000000000000\n        /* \"#utility.yul\":15374:15375   */\n      0x00\n        /* \"#utility.yul\":15367:15455   */\n      mstore\n        /* \"#utility.yul\":15474:15478   */\n      0x21\n        /* \"#utility.yul\":15471:15472   */\n      0x04\n        /* \"#utility.yul\":15464:15479   */\n      mstore\n        /* \"#utility.yul\":15498:15502   */\n      0x24\n        /* \"#utility.yul\":15495:15496   */\n      0x00\n        /* \"#utility.yul\":15488:15503   */\n      revert\n        /* \"#utility.yul\":15515:15695   */\n    tag_325:\n        /* \"#utility.yul\":15563:15640   */\n      0x4e487b7100000000000000000000000000000000000000000000000000000000\n        /* \"#utility.yul\":15560:15561   */\n      0x00\n        /* \"#utility.yul\":15553:15641   */\n      mstore\n        /* \"#utility.yul\":15660:15664   */\n      0x22\n        /* \"#utility.yul\":15657:15658   */\n      0x04\n        /* \"#utility.yul\":15650:15665   */\n      mstore\n        /* \"#utility.yul\":15684:15688   */\n      0x24\n        /* \"#utility.yul\":15681:15682   */\n      0x00\n        /* \"#utility.yul\":15674:15689   */\n      revert\n        /* \"#utility.yul\":15701:15881   */\n    tag_47:\n        /* \"#utility.yul\":15749:15826   */\n      0x4e487b7100000000000000000000000000000000000000000000000000000000\n        /* \"#utility.yul\":15746:15747   */\n      0x00\n        /* \"#utility.yul\":15739:15827   */\n      mstore\n        /* \"#utility.yul\":15846:15850   */\n      0x32\n        /* \"#utility.yul\":15843:15844   */\n      0x04\n        /* \"#utility.yul\":15836:15851   */\n      mstore\n        /* \"#utility.yul\":15870:15874   */\n      0x24\n        /* \"#utility.yul\":15867:15868   */\n      0x00\n        /* \"#utility.yul\":15860:15875   */\n      revert\n        /* \"#utility.yul\":15887:16067   */\n    tag_292:\n        /* \"#utility.yul\":15935:16012   */\n      0x4e487b7100000000000000000000000000000000000000000000000000000000\n        /* \"#utility.yul\":15932:15933   */\n      0x00\n        /* \"#utility.yul\":15925:16013   */\n      mstore\n        /* \"#utility.yul\":16032:16036   */\n      0x41\n        /* \"#utility.yul\":16029:16030   */\n      0x04\n        /* \"#utility.yul\":16022:16037   */\n      mstore\n        /* \"#utility.yul\":16056:16060   */\n      0x24\n        /* \"#utility.yul\":16053:16054   */\n      0x00\n        /* \"#utility.yul\":16046:16061   */\n      revert\n        /* \"#utility.yul\":16073:16190   */\n    tag_156:\n        /* \"#utility.yul\":16182:16183   */\n      0x00\n        /* \"#utility.yul\":16179:16180   */\n      dup1\n        /* \"#utility.yul\":16172:16184   */\n      revert\n        /* \"#utility.yul\":16196:16313   */\n    tag_145:\n        /* \"#utility.yul\":16305:16306   */\n      0x00\n        /* \"#utility.yul\":16302:16303   */\n      dup1\n        /* \"#utility.yul\":16295:16307   */\n      revert\n        /* \"#utility.yul\":16319:16436   */\n    tag_168:\n        /* \"#utility.yul\":16428:16429   */\n      0x00\n        /* \"#utility.yul\":16425:16426   */\n      dup1\n        /* \"#utility.yul\":16418:16430   */\n      revert\n        /* \"#utility.yul\":16442:16559   */\n    tag_165:\n        /* \"#utility.yul\":16551:16552   */\n      0x00\n        /* \"#utility.yul\":16548:16549   */\n      dup1\n        /* \"#utility.yul\":16541:16553   */\n      revert\n        /* \"#utility.yul\":16565:16667   */\n    tag_203:\n        /* \"#utility.yul\":16606:16612   */\n      0x00\n        /* \"#utility.yul\":16657:16659   */\n      0x1f\n        /* \"#utility.yul\":16653:16660   */\n      not\n        /* \"#utility.yul\":16648:16650   */\n      0x1f\n        /* \"#utility.yul\":16641:16646   */\n      dup4\n        /* \"#utility.yul\":16637:16651   */\n      add\n        /* \"#utility.yul\":16633:16661   */\n      and\n        /* \"#utility.yul\":16623:16661   */\n      swap1\n      pop\n        /* \"#utility.yul\":16565:16667   */\n      swap2\n      swap1\n      pop\n      jump\t// out\n        /* \"#utility.yul\":16673:16894   */\n    tag_232:\n        /* \"#utility.yul\":16813:16847   */\n      0x54686520617574686f722063616e6e6f742066756e64207468652070726f6a65\n        /* \"#utility.yul\":16809:16810   */\n      0x00\n        /* \"#utility.yul\":16801:16807   */\n      dup3\n        /* \"#utility.yul\":16797:16811   */\n      add\n        /* \"#utility.yul\":16790:16848   */\n      mstore\n        /* \"#utility.yul\":16882:16886   */\n      0x6374000000000000000000000000000000000000000000000000000000000000\n        /* \"#utility.yul\":16877:16879   */\n      0x20\n        /* \"#utility.yul\":16869:16875   */\n      dup3\n        /* \"#utility.yul\":16865:16880   */\n      add\n        /* \"#utility.yul\":16858:16887   */\n      mstore\n        /* \"#utility.yul\":16673:16894   */\n      pop\n      jump\t// out\n        /* \"#utility.yul\":16900:17077   */\n    tag_237:\n        /* \"#utility.yul\":17040:17069   */\n      0x4e6577207374617465206d75737420626520646966666572656e740000000000\n        /* \"#utility.yul\":17036:17037   */\n      0x00\n        /* \"#utility.yul\":17028:17034   */\n      dup3\n        /* \"#utility.yul\":17024:17038   */\n      add\n        /* \"#utility.yul\":17017:17070   */\n      mstore\n        /* \"#utility.yul\":16900:17077   */\n      pop\n      jump\t// out\n        /* \"#utility.yul\":17083:17306   */\n    tag_242:\n        /* \"#utility.yul\":17223:17257   */\n      0x5468652066756e64696e67206f66207468652070726f6a65637420697320636c\n        /* \"#utility.yul\":17219:17220   */\n      0x00\n        /* \"#utility.yul\":17211:17217   */\n      dup3\n        /* \"#utility.yul\":17207:17221   */\n      add\n        /* \"#utility.yul\":17200:17258   */\n      mstore\n        /* \"#utility.yul\":17292:17298   */\n      0x6f73656400000000000000000000000000000000000000000000000000000000\n        /* \"#utility.yul\":17287:17289   */\n      0x20\n        /* \"#utility.yul\":17279:17285   */\n      dup3\n        /* \"#utility.yul\":17275:17290   */\n      add\n        /* \"#utility.yul\":17268:17299   */\n      mstore\n        /* \"#utility.yul\":17083:17306   */\n      pop\n      jump\t// out\n        /* \"#utility.yul\":17312:17546   */\n    tag_247:\n        /* \"#utility.yul\":17452:17486   */\n      0x4f6e6c7920617574686f722063616e206368616e676520746865207374617465\n        /* \"#utility.yul\":17448:17449   */\n      0x00\n        /* \"#utility.yul\":17440:17446   */\n      dup3\n        /* \"#utility.yul\":17436:17450   */\n      add\n        /* \"#utility.yul\":17429:17487   */\n      mstore\n        /* \"#utility.yul\":17521:17538   */\n      0x206f66207468652070726f6a6563740000000000000000000000000000000000\n        /* \"#utility.yul\":17516:17518   */\n      0x20\n        /* \"#utility.yul\":17508:17514   */\n      dup3\n        /* \"#utility.yul\":17504:17519   */\n      add\n        /* \"#utility.yul\":17497:17539   */\n      mstore\n        /* \"#utility.yul\":17312:17546   */\n      pop\n      jump\t// out\n        /* \"#utility.yul\":17552:17773   */\n    tag_252:\n        /* \"#utility.yul\":17692:17726   */\n      0x66756e6472616973696e67206d7573742062652067726561746572207468616e\n        /* \"#utility.yul\":17688:17689   */\n      0x00\n        /* \"#utility.yul\":17680:17686   */\n      dup3\n        /* \"#utility.yul\":17676:17690   */\n      add\n        /* \"#utility.yul\":17669:17727   */\n      mstore\n        /* \"#utility.yul\":17761:17765   */\n      0x2030000000000000000000000000000000000000000000000000000000000000\n        /* \"#utility.yul\":17756:17758   */\n      0x20\n        /* \"#utility.yul\":17748:17754   */\n      dup3\n        /* \"#utility.yul\":17744:17759   */\n      add\n        /* \"#utility.yul\":17737:17766   */\n      mstore\n        /* \"#utility.yul\":17552:17773   */\n      pop\n      jump\t// out\n        /* \"#utility.yul\":17779:17891   */\n    tag_310:\n        /* \"#utility.yul\":17859:17860   */\n      0x02\n        /* \"#utility.yul\":17852:17857   */\n      dup2\n        /* \"#utility.yul\":17849:17861   */\n      lt\n        /* \"#utility.yul\":17839:17885   */\n      tag_346\n      jumpi\n        /* \"#utility.yul\":17865:17883   */\n      tag_347\n      tag_55\n      jump\t// in\n    tag_347:\n        /* \"#utility.yul\":17839:17885   */\n    tag_346:\n        /* \"#utility.yul\":17779:17891   */\n      pop\n      jump\t// out\n        /* \"#utility.yul\":17897:18003   */\n    tag_151:\n        /* \"#utility.yul\":17977:17978   */\n      0x02\n        /* \"#utility.yul\":17970:17975   */\n      dup2\n        /* \"#utility.yul\":17967:17979   */\n      lt\n        /* \"#utility.yul\":17957:17997   */\n      tag_349\n      jumpi\n        /* \"#utility.yul\":17993:17994   */\n      0x00\n        /* \"#utility.yul\":17990:17991   */\n      dup1\n        /* \"#utility.yul\":17983:17995   */\n      revert\n        /* \"#utility.yul\":17957:17997   */\n    tag_349:\n        /* \"#utility.yul\":17897:18003   */\n      pop\n      jump\t// out\n        /* \"#utility.yul\":18009:18131   */\n    tag_161:\n        /* \"#utility.yul\":18082:18106   */\n      tag_351\n        /* \"#utility.yul\":18100:18105   */\n      dup2\n        /* \"#utility.yul\":18082:18106   */\n      tag_256\n      jump\t// in\n    tag_351:\n        /* \"#utility.yul\":18075:18080   */\n      dup2\n        /* \"#utility.yul\":18072:18107   */\n      eq\n        /* \"#utility.yul\":18062:18125   */\n      tag_352\n      jumpi\n        /* \"#utility.yul\":18121:18122   */\n      0x00\n        /* \"#utility.yul\":18118:18119   */\n      dup1\n        /* \"#utility.yul\":18111:18123   */\n      revert\n        /* \"#utility.yul\":18062:18125   */\n    tag_352:\n        /* \"#utility.yul\":18009:18131   */\n      pop\n      jump\t// out\n\n    auxdata: 0xa264697066735822122005fd06e93378d0ec461449e6ed19dda180d1089faa2e94e25cef55e1501e9b8564736f6c63430008070033\n}\n",
				"bytecode": {
					"linkReferences": {},
					"object": "608060405234801561001057600080fd5b5061150b806100206000396000f3fe60806040526004361061003f5760003560e01c8063107046bd1461004457806317e925d7146100875780631ca73896146100b05780636c563abe146100d9575b600080fd5b34801561005057600080fd5b5061006b60048036038101906100669190610c1b565b6100f5565b60405161007e9796959493929190610eb3565b60405180910390f35b34801561009357600080fd5b506100ae60048036038101906100a99190610c48565b61030c565b005b3480156100bc57600080fd5b506100d760048036038101906100d29190610b60565b610508565b005b6100f360048036038101906100ee9190610c1b565b610680565b005b6000818154811061010557600080fd5b9060005260206000209060070201600091509050806000018054610128906111c2565b80601f0160208091040260200160405190810160405280929190818152602001828054610154906111c2565b80156101a15780601f10610176576101008083540402835291602001916101a1565b820191906000526020600020905b81548152906001019060200180831161018457829003601f168201915b5050505050908060010180546101b6906111c2565b80601f01602080910402602001604051908101604052809291908181526020018280546101e2906111c2565b801561022f5780601f106102045761010080835404028352916020019161022f565b820191906000526020600020905b81548152906001019060200180831161021257829003601f168201915b505050505090806002018054610244906111c2565b80601f0160208091040260200160405190810160405280929190818152602001828054610270906111c2565b80156102bd5780601f10610292576101008083540402835291602001916102bd565b820191906000526020600020905b8154815290600101906020018083116102a057829003601f168201915b5050505050908060030154908060040160009054906101000a900473ffffffffffffffffffffffffffffffffffffffff16908060050154908060060160009054906101000a900460ff16905087565b8160008181548110610321576103206112b2565b5b906000526020600020906007020160040160009054906101000a900473ffffffffffffffffffffffffffffffffffffffff1673ffffffffffffffffffffffffffffffffffffffff163373ffffffffffffffffffffffffffffffffffffffff16146103c0576040517f08c379a00000000000000000000000000000000000000000000000000000000081526004016103b790610ff7565b60405180910390fd5b8160018111156103d3576103d2611254565b5b600084815481106103e7576103e66112b2565b5b906000526020600020906007020160060160009054906101000a900460ff16600181111561041857610417611254565b5b1415610459576040517f08c379a000000000000000000000000000000000000000000000000000000000815260040161045090610fb7565b60405180910390fd5b816000848154811061046e5761046d6112b2565b5b906000526020600020906007020160060160006101000a81548160ff021916908360018111156104a1576104a0611254565b5b02179055507fb364ab0cadec04bec8a97e81743129cecc3480279fb67b9378df4219238b250f600084815481106104db576104da6112b2565b5b9060005260206000209060070201600001836040516104fb929190610f37565b60405180910390a1505050565b60006040518060e001604052808681526020018581526020018481526020018381526020013373ffffffffffffffffffffffffffffffffffffffff168152602001600081526020016000600181111561056457610563611254565b5b8152509050600081908060018154018082558091505060019003906000526020600020906007020160009091909190915060008201518160000190805190602001906105b1929190610a23565b5060208201518160010190805190602001906105ce929190610a23565b5060408201518160020190805190602001906105eb929190610a23565b506060820151816003015560808201518160040160006101000a81548173ffffffffffffffffffffffffffffffffffffffff021916908373ffffffffffffffffffffffffffffffffffffffff16021790555060a0820151816005015560c08201518160060160006101000a81548160ff0219169083600181111561067257610671611254565b5b021790555050505050505050565b8060008181548110610695576106946112b2565b5b906000526020600020906007020160040160009054906101000a900473ffffffffffffffffffffffffffffffffffffffff1673ffffffffffffffffffffffffffffffffffffffff163373ffffffffffffffffffffffffffffffffffffffff161415610735576040517f08c379a000000000000000000000000000000000000000000000000000000000815260040161072c90610f97565b60405180910390fd5b60018081111561074857610747611254565b5b6000838154811061075c5761075b6112b2565b5b906000526020600020906007020160060160009054906101000a900460ff16600181111561078d5761078c611254565b5b14156107ce576040517f08c379a00000000000000000000000000000000000000000000000000000000081526004016107c590610fd7565b60405180910390fd5b60003411610811576040517f08c379a000000000000000000000000000000000000000000000000000000000815260040161080890611017565b60405180910390fd5b60008281548110610825576108246112b2565b5b906000526020600020906007020160040160009054906101000a900473ffffffffffffffffffffffffffffffffffffffff1673ffffffffffffffffffffffffffffffffffffffff166108fc349081150290604051600060405180830381858888f1935050505015801561089c573d6000803e3d6000fd5b5034600083815481106108b2576108b16112b2565b5b906000526020600020906007020160050160008282546108d291906110c9565b925050819055506001600083815481106108ef576108ee6112b2565b5b906000526020600020906007020160000160405161090d9190610e9c565b908152602001604051809103902060405180604001604052803373ffffffffffffffffffffffffffffffffffffffff16815260200134815250908060018154018082558091505060019003906000526020600020906002020160009091909190915060008201518160000160006101000a81548173ffffffffffffffffffffffffffffffffffffffff021916908373ffffffffffffffffffffffffffffffffffffffff1602179055506020820151816001015550507f98a99e594dc0943c255bf9563ae2c4da6ffcfd06f78b396b88988548ac825ba8600083815481106109f7576109f66112b2565b5b906000526020600020906007020160000134604051610a17929190610f67565b60405180910390a15050565b828054610a2f906111c2565b90600052602060002090601f016020900481019282610a515760008555610a98565b82601f10610a6a57805160ff1916838001178555610a98565b82800160010185558215610a98579182015b82811115610a97578251825591602001919060010190610a7c565b5b509050610aa59190610aa9565b5090565b5b80821115610ac2576000816000905550600101610aaa565b5090565b6000610ad9610ad48461105c565b611037565b905082815260208101848484011115610af557610af4611315565b5b610b00848285611180565b509392505050565b600081359050610b17816114ae565b92915050565b600082601f830112610b3257610b31611310565b5b8135610b42848260208601610ac6565b91505092915050565b600081359050610b5a816114be565b92915050565b60008060008060808587031215610b7a57610b7961131f565b5b600085013567ffffffffffffffff811115610b9857610b9761131a565b5b610ba487828801610b1d565b945050602085013567ffffffffffffffff811115610bc557610bc461131a565b5b610bd187828801610b1d565b935050604085013567ffffffffffffffff811115610bf257610bf161131a565b5b610bfe87828801610b1d565b9250506060610c0f87828801610b4b565b91505092959194509250565b600060208284031215610c3157610c3061131f565b5b6000610c3f84828501610b4b565b91505092915050565b60008060408385031215610c5f57610c5e61131f565b5b6000610c6d85828601610b4b565b9250506020610c7e85828601610b08565b9150509250929050565b610c918161111f565b82525050565b610ca08161116e565b82525050565b6000610cb1826110a2565b610cbb81856110ad565b9350610ccb81856020860161118f565b610cd481611324565b840191505092915050565b60008154610cec816111c2565b610cf681866110ad565b94506001821660008114610d115760018114610d2357610d56565b60ff1983168652602086019350610d56565b610d2c8561108d565b60005b83811015610d4e57815481890152600182019150602081019050610d2f565b808801955050505b50505092915050565b60008154610d6c816111c2565b610d7681866110be565b94506001821660008114610d915760018114610da257610dd5565b60ff19831686528186019350610dd5565b610dab8561108d565b60005b83811015610dcd57815481890152600182019150602081019050610dae565b838801955050505b50505092915050565b6000610deb6022836110ad565b9150610df682611335565b604082019050919050565b6000610e0e601b836110ad565b9150610e1982611384565b602082019050919050565b6000610e316024836110ad565b9150610e3c826113ad565b604082019050919050565b6000610e54602f836110ad565b9150610e5f826113fc565b604082019050919050565b6000610e776022836110ad565b9150610e828261144b565b604082019050919050565b610e9681611164565b82525050565b6000610ea88284610d5f565b915081905092915050565b600060e0820190508181036000830152610ecd818a610ca6565b90508181036020830152610ee18189610ca6565b90508181036040830152610ef58188610ca6565b9050610f046060830187610e8d565b610f116080830186610c88565b610f1e60a0830185610e8d565b610f2b60c0830184610c97565b98975050505050505050565b60006040820190508181036000830152610f518185610cdf565b9050610f606020830184610c97565b9392505050565b60006040820190508181036000830152610f818185610cdf565b9050610f906020830184610e8d565b9392505050565b60006020820190508181036000830152610fb081610dde565b9050919050565b60006020820190508181036000830152610fd081610e01565b9050919050565b60006020820190508181036000830152610ff081610e24565b9050919050565b6000602082019050818103600083015261101081610e47565b9050919050565b6000602082019050818103600083015261103081610e6a565b9050919050565b6000611041611052565b905061104d82826111f4565b919050565b6000604051905090565b600067ffffffffffffffff821115611077576110766112e1565b5b61108082611324565b9050602081019050919050565b60008190508160005260206000209050919050565b600081519050919050565b600082825260208201905092915050565b600081905092915050565b60006110d482611164565b91506110df83611164565b9250827fffffffffffffffffffffffffffffffffffffffffffffffffffffffffffffffff0382111561111457611113611225565b5b828201905092915050565b600061112a82611144565b9050919050565b600081905061113f8261149a565b919050565b600073ffffffffffffffffffffffffffffffffffffffff82169050919050565b6000819050919050565b600061117982611131565b9050919050565b82818337600083830152505050565b60005b838110156111ad578082015181840152602081019050611192565b838111156111bc576000848401525b50505050565b600060028204905060018216806111da57607f821691505b602082108114156111ee576111ed611283565b5b50919050565b6111fd82611324565b810181811067ffffffffffffffff8211171561121c5761121b6112e1565b5b80604052505050565b7f4e487b7100000000000000000000000000000000000000000000000000000000600052601160045260246000fd5b7f4e487b7100000000000000000000000000000000000000000000000000000000600052602160045260246000fd5b7f4e487b7100000000000000000000000000000000000000000000000000000000600052602260045260246000fd5b7f4e487b7100000000000000000000000000000000000000000000000000000000600052603260045260246000fd5b7f4e487b7100000000000000000000000000000000000000000000000000000000600052604160045260246000fd5b600080fd5b600080fd5b600080fd5b600080fd5b6000601f19601f8301169050919050565b7f54686520617574686f722063616e6e6f742066756e64207468652070726f6a6560008201527f6374000000000000000000000000000000000000000000000000000000000000602082015250565b7f4e6577207374617465206d75737420626520646966666572656e740000000000600082015250565b7f5468652066756e64696e67206f66207468652070726f6a65637420697320636c60008201527f6f73656400000000000000000000000000000000000000000000000000000000602082015250565b7f4f6e6c7920617574686f722063616e206368616e67652074686520737461746560008201527f206f66207468652070726f6a6563740000000000000000000000000000000000602082015250565b7f66756e6472616973696e67206d7573742062652067726561746572207468616e60008201527f2030000000000000000000000000000000000000000000000000000000000000602082015250565b600281106114ab576114aa611254565b5b50565b600281106114bb57600080fd5b50565b6114c781611164565b81146114d257600080fd5b5056fea264697066735822122005fd06e93378d0ec461449e6ed19dda180d1089faa2e94e25cef55e1501e9b8564736f6c63430008070033",
					"opcodes": "PUSH1 0x80 PUSH1 0x40 MSTORE CALLVALUE DUP1 ISZERO PUSH2 0x10 JUMPI PUSH1 0x0 DUP1 REVERT JUMPDEST POP PUSH2 0x150B DUP1 PUSH2 0x20 PUSH1 0x0 CODECOPY PUSH1 0x0 RETURN INVALID PUSH1 0x80 PUSH1 0x40 MSTORE PUSH1 0x4 CALLDATASIZE LT PUSH2 0x3F JUMPI PUSH1 0x0 CALLDATALOAD PUSH1 0xE0 SHR DUP1 PUSH4 0x107046BD EQ PUSH2 0x44 JUMPI DUP1 PUSH4 0x17E925D7 EQ PUSH2 0x87 JUMPI DUP1 PUSH4 0x1CA73896 EQ PUSH2 0xB0 JUMPI DUP1 PUSH4 0x6C563ABE EQ PUSH2 0xD9 JUMPI JUMPDEST PUSH1 0x0 DUP1 REVERT JUMPDEST CALLVALUE DUP1 ISZERO PUSH2 0x50 JUMPI PUSH1 0x0 DUP1 REVERT JUMPDEST POP PUSH2 0x6B PUSH1 0x4 DUP1 CALLDATASIZE SUB DUP2 ADD SWAP1 PUSH2 0x66 SWAP2 SWAP1 PUSH2 0xC1B JUMP JUMPDEST PUSH2 0xF5 JUMP JUMPDEST PUSH1 0x40 MLOAD PUSH2 0x7E SWAP8 SWAP7 SWAP6 SWAP5 SWAP4 SWAP3 SWAP2 SWAP1 PUSH2 0xEB3 JUMP JUMPDEST PUSH1 0x40 MLOAD DUP1 SWAP2 SUB SWAP1 RETURN JUMPDEST CALLVALUE DUP1 ISZERO PUSH2 0x93 JUMPI PUSH1 0x0 DUP1 REVERT JUMPDEST POP PUSH2 0xAE PUSH1 0x4 DUP1 CALLDATASIZE SUB DUP2 ADD SWAP1 PUSH2 0xA9 SWAP2 SWAP1 PUSH2 0xC48 JUMP JUMPDEST PUSH2 0x30C JUMP JUMPDEST STOP JUMPDEST CALLVALUE DUP1 ISZERO PUSH2 0xBC JUMPI PUSH1 0x0 DUP1 REVERT JUMPDEST POP PUSH2 0xD7 PUSH1 0x4 DUP1 CALLDATASIZE SUB DUP2 ADD SWAP1 PUSH2 0xD2 SWAP2 SWAP1 PUSH2 0xB60 JUMP JUMPDEST PUSH2 0x508 JUMP JUMPDEST STOP JUMPDEST PUSH2 0xF3 PUSH1 0x4 DUP1 CALLDATASIZE SUB DUP2 ADD SWAP1 PUSH2 0xEE SWAP2 SWAP1 PUSH2 0xC1B JUMP JUMPDEST PUSH2 0x680 JUMP JUMPDEST STOP JUMPDEST PUSH1 0x0 DUP2 DUP2 SLOAD DUP2 LT PUSH2 0x105 JUMPI PUSH1 0x0 DUP1 REVERT JUMPDEST SWAP1 PUSH1 0x0 MSTORE PUSH1 0x20 PUSH1 0x0 KECCAK256 SWAP1 PUSH1 0x7 MUL ADD PUSH1 0x0 SWAP2 POP SWAP1 POP DUP1 PUSH1 0x0 ADD DUP1 SLOAD PUSH2 0x128 SWAP1 PUSH2 0x11C2 JUMP JUMPDEST DUP1 PUSH1 0x1F ADD PUSH1 0x20 DUP1 SWAP2 DIV MUL PUSH1 0x20 ADD PUSH1 0x40 MLOAD SWAP1 DUP2 ADD PUSH1 0x40 MSTORE DUP1 SWAP3 SWAP2 SWAP1 DUP2 DUP2 MSTORE PUSH1 0x20 ADD DUP3 DUP1 SLOAD PUSH2 0x154 SWAP1 PUSH2 0x11C2 JUMP JUMPDEST DUP1 ISZERO PUSH2 0x1A1 JUMPI DUP1 PUSH1 0x1F LT PUSH2 0x176 JUMPI PUSH2 0x100 DUP1 DUP4 SLOAD DIV MUL DUP4 MSTORE SWAP2 PUSH1 0x20 ADD SWAP2 PUSH2 0x1A1 JUMP JUMPDEST DUP3 ADD SWAP2 SWAP1 PUSH1 0x0 MSTORE PUSH1 0x20 PUSH1 0x0 KECCAK256 SWAP1 JUMPDEST DUP2 SLOAD DUP2 MSTORE SWAP1 PUSH1 0x1 ADD SWAP1 PUSH1 0x20 ADD DUP1 DUP4 GT PUSH2 0x184 JUMPI DUP3 SWAP1 SUB PUSH1 0x1F AND DUP3 ADD SWAP2 JUMPDEST POP POP POP POP POP SWAP1 DUP1 PUSH1 0x1 ADD DUP1 SLOAD PUSH2 0x1B6 SWAP1 PUSH2 0x11C2 JUMP JUMPDEST DUP1 PUSH1 0x1F ADD PUSH1 0x20 DUP1 SWAP2 DIV MUL PUSH1 0x20 ADD PUSH1 0x40 MLOAD SWAP1 DUP2 ADD PUSH1 0x40 MSTORE DUP1 SWAP3 SWAP2 SWAP1 DUP2 DUP2 MSTORE PUSH1 0x20 ADD DUP3 DUP1 SLOAD PUSH2 0x1E2 SWAP1 PUSH2 0x11C2 JUMP JUMPDEST DUP1 ISZERO PUSH2 0x22F JUMPI DUP1 PUSH1 0x1F LT PUSH2 0x204 JUMPI PUSH2 0x100 DUP1 DUP4 SLOAD DIV MUL DUP4 MSTORE SWAP2 PUSH1 0x20 ADD SWAP2 PUSH2 0x22F JUMP JUMPDEST DUP3 ADD SWAP2 SWAP1 PUSH1 0x0 MSTORE PUSH1 0x20 PUSH1 0x0 KECCAK256 SWAP1 JUMPDEST DUP2 SLOAD DUP2 MSTORE SWAP1 PUSH1 0x1 ADD SWAP1 PUSH1 0x20 ADD DUP1 DUP4 GT PUSH2 0x212 JUMPI DUP3 SWAP1 SUB PUSH1 0x1F AND DUP3 ADD SWAP2 JUMPDEST POP POP POP POP POP SWAP1 DUP1 PUSH1 0x2 ADD DUP1 SLOAD PUSH2 0x244 SWAP1 PUSH2 0x11C2 JUMP JUMPDEST DUP1 PUSH1 0x1F ADD PUSH1 0x20 DUP1 SWAP2 DIV MUL PUSH1 0x20 ADD PUSH1 0x40 MLOAD SWAP1 DUP2 ADD PUSH1 0x40 MSTORE DUP1 SWAP3 SWAP2 SWAP1 DUP2 DUP2 MSTORE PUSH1 0x20 ADD DUP3 DUP1 SLOAD PUSH2 0x270 SWAP1 PUSH2 0x11C2 JUMP JUMPDEST DUP1 ISZERO PUSH2 0x2BD JUMPI DUP1 PUSH1 0x1F LT PUSH2 0x292 JUMPI PUSH2 0x100 DUP1 DUP4 SLOAD DIV MUL DUP4 MSTORE SWAP2 PUSH1 0x20 ADD SWAP2 PUSH2 0x2BD JUMP JUMPDEST DUP3 ADD SWAP2 SWAP1 PUSH1 0x0 MSTORE PUSH1 0x20 PUSH1 0x0 KECCAK256 SWAP1 JUMPDEST DUP2 SLOAD DUP2 MSTORE SWAP1 PUSH1 0x1 ADD SWAP1 PUSH1 0x20 ADD DUP1 DUP4 GT PUSH2 0x2A0 JUMPI DUP3 SWAP1 SUB PUSH1 0x1F AND DUP3 ADD SWAP2 JUMPDEST POP POP POP POP POP SWAP1 DUP1 PUSH1 0x3 ADD SLOAD SWAP1 DUP1 PUSH1 0x4 ADD PUSH1 0x0 SWAP1 SLOAD SWAP1 PUSH2 0x100 EXP SWAP1 DIV PUSH20 0xFFFFFFFFFFFFFFFFFFFFFFFFFFFFFFFFFFFFFFFF AND SWAP1 DUP1 PUSH1 0x5 ADD SLOAD SWAP1 DUP1 PUSH1 0x6 ADD PUSH1 0x0 SWAP1 SLOAD SWAP1 PUSH2 0x100 EXP SWAP1 DIV PUSH1 0xFF AND SWAP1 POP DUP8 JUMP JUMPDEST DUP2 PUSH1 0x0 DUP2 DUP2 SLOAD DUP2 LT PUSH2 0x321 JUMPI PUSH2 0x320 PUSH2 0x12B2 JUMP JUMPDEST JUMPDEST SWAP1 PUSH1 0x0 MSTORE PUSH1 0x20 PUSH1 0x0 KECCAK256 SWAP1 PUSH1 0x7 MUL ADD PUSH1 0x4 ADD PUSH1 0x0 SWAP1 SLOAD SWAP1 PUSH2 0x100 EXP SWAP1 DIV PUSH20 0xFFFFFFFFFFFFFFFFFFFFFFFFFFFFFFFFFFFFFFFF AND PUSH20 0xFFFFFFFFFFFFFFFFFFFFFFFFFFFFFFFFFFFFFFFF AND CALLER PUSH20 0xFFFFFFFFFFFFFFFFFFFFFFFFFFFFFFFFFFFFFFFF AND EQ PUSH2 0x3C0 JUMPI PUSH1 0x40 MLOAD PUSH32 0x8C379A000000000000000000000000000000000000000000000000000000000 DUP2 MSTORE PUSH1 0x4 ADD PUSH2 0x3B7 SWAP1 PUSH2 0xFF7 JUMP JUMPDEST PUSH1 0x40 MLOAD DUP1 SWAP2 SUB SWAP1 REVERT JUMPDEST DUP2 PUSH1 0x1 DUP2 GT ISZERO PUSH2 0x3D3 JUMPI PUSH2 0x3D2 PUSH2 0x1254 JUMP JUMPDEST JUMPDEST PUSH1 0x0 DUP5 DUP2 SLOAD DUP2 LT PUSH2 0x3E7 JUMPI PUSH2 0x3E6 PUSH2 0x12B2 JUMP JUMPDEST JUMPDEST SWAP1 PUSH1 0x0 MSTORE PUSH1 0x20 PUSH1 0x0 KECCAK256 SWAP1 PUSH1 0x7 MUL ADD PUSH1 0x6 ADD PUSH1 0x0 SWAP1 SLOAD SWAP1 PUSH2 0x100 EXP SWAP1 DIV PUSH1 0xFF AND PUSH1 0x1 DUP2 GT ISZERO PUSH2 0x418 JUMPI PUSH2 0x417 PUSH2 0x1254 JUMP JUMPDEST JUMPDEST EQ ISZERO PUSH2 0x459 JUMPI PUSH1 0x40 MLOAD PUSH32 0x8C379A000000000000000000000000000000000000000000000000000000000 DUP2 MSTORE PUSH1 0x4 ADD PUSH2 0x450 SWAP1 PUSH2 0xFB7 JUMP JUMPDEST PUSH1 0x40 MLOAD DUP1 SWAP2 SUB SWAP1 REVERT JUMPDEST DUP2 PUSH1 0x0 DUP5 DUP2 SLOAD DUP2 LT PUSH2 0x46E JUMPI PUSH2 0x46D PUSH2 0x12B2 JUMP JUMPDEST JUMPDEST SWAP1 PUSH1 0x0 MSTORE PUSH1 0x20 PUSH1 0x0 KECCAK256 SWAP1 PUSH1 0x7 MUL ADD PUSH1 0x6 ADD PUSH1 0x0 PUSH2 0x100 EXP DUP2 SLOAD DUP2 PUSH1 0xFF MUL NOT AND SWAP1 DUP4 PUSH1 0x1 DUP2 GT ISZERO PUSH2 0x4A1 JUMPI PUSH2 0x4A0 PUSH2 0x1254 JUMP JUMPDEST JUMPDEST MUL OR SWAP1 SSTORE POP PUSH32 0xB364AB0CADEC04BEC8A97E81743129CECC3480279FB67B9378DF4219238B250F PUSH1 0x0 DUP5 DUP2 SLOAD DUP2 LT PUSH2 0x4DB JUMPI PUSH2 0x4DA PUSH2 0x12B2 JUMP JUMPDEST JUMPDEST SWAP1 PUSH1 0x0 MSTORE PUSH1 0x20 PUSH1 0x0 KECCAK256 SWAP1 PUSH1 0x7 MUL ADD PUSH1 0x0 ADD DUP4 PUSH1 0x40 MLOAD PUSH2 0x4FB SWAP3 SWAP2 SWAP1 PUSH2 0xF37 JUMP JUMPDEST PUSH1 0x40 MLOAD DUP1 SWAP2 SUB SWAP1 LOG1 POP POP POP JUMP JUMPDEST PUSH1 0x0 PUSH1 0x40 MLOAD DUP1 PUSH1 0xE0 ADD PUSH1 0x40 MSTORE DUP1 DUP7 DUP2 MSTORE PUSH1 0x20 ADD DUP6 DUP2 MSTORE PUSH1 0x20 ADD DUP5 DUP2 MSTORE PUSH1 0x20 ADD DUP4 DUP2 MSTORE PUSH1 0x20 ADD CALLER PUSH20 0xFFFFFFFFFFFFFFFFFFFFFFFFFFFFFFFFFFFFFFFF AND DUP2 MSTORE PUSH1 0x20 ADD PUSH1 0x0 DUP2 MSTORE PUSH1 0x20 ADD PUSH1 0x0 PUSH1 0x1 DUP2 GT ISZERO PUSH2 0x564 JUMPI PUSH2 0x563 PUSH2 0x1254 JUMP JUMPDEST JUMPDEST DUP2 MSTORE POP SWAP1 POP PUSH1 0x0 DUP2 SWAP1 DUP1 PUSH1 0x1 DUP2 SLOAD ADD DUP1 DUP3 SSTORE DUP1 SWAP2 POP POP PUSH1 0x1 SWAP1 SUB SWAP1 PUSH1 0x0 MSTORE PUSH1 0x20 PUSH1 0x0 KECCAK256 SWAP1 PUSH1 0x7 MUL ADD PUSH1 0x0 SWAP1 SWAP2 SWAP1 SWAP2 SWAP1 SWAP2 POP PUSH1 0x0 DUP3 ADD MLOAD DUP2 PUSH1 0x0 ADD SWAP1 DUP1 MLOAD SWAP1 PUSH1 0x20 ADD SWAP1 PUSH2 0x5B1 SWAP3 SWAP2 SWAP1 PUSH2 0xA23 JUMP JUMPDEST POP PUSH1 0x20 DUP3 ADD MLOAD DUP2 PUSH1 0x1 ADD SWAP1 DUP1 MLOAD SWAP1 PUSH1 0x20 ADD SWAP1 PUSH2 0x5CE SWAP3 SWAP2 SWAP1 PUSH2 0xA23 JUMP JUMPDEST POP PUSH1 0x40 DUP3 ADD MLOAD DUP2 PUSH1 0x2 ADD SWAP1 DUP1 MLOAD SWAP1 PUSH1 0x20 ADD SWAP1 PUSH2 0x5EB SWAP3 SWAP2 SWAP1 PUSH2 0xA23 JUMP JUMPDEST POP PUSH1 0x60 DUP3 ADD MLOAD DUP2 PUSH1 0x3 ADD SSTORE PUSH1 0x80 DUP3 ADD MLOAD DUP2 PUSH1 0x4 ADD PUSH1 0x0 PUSH2 0x100 EXP DUP2 SLOAD DUP2 PUSH20 0xFFFFFFFFFFFFFFFFFFFFFFFFFFFFFFFFFFFFFFFF MUL NOT AND SWAP1 DUP4 PUSH20 0xFFFFFFFFFFFFFFFFFFFFFFFFFFFFFFFFFFFFFFFF AND MUL OR SWAP1 SSTORE POP PUSH1 0xA0 DUP3 ADD MLOAD DUP2 PUSH1 0x5 ADD SSTORE PUSH1 0xC0 DUP3 ADD MLOAD DUP2 PUSH1 0x6 ADD PUSH1 0x0 PUSH2 0x100 EXP DUP2 SLOAD DUP2 PUSH1 0xFF MUL NOT AND SWAP1 DUP4 PUSH1 0x1 DUP2 GT ISZERO PUSH2 0x672 JUMPI PUSH2 0x671 PUSH2 0x1254 JUMP JUMPDEST JUMPDEST MUL OR SWAP1 SSTORE POP POP POP POP POP POP POP POP JUMP JUMPDEST DUP1 PUSH1 0x0 DUP2 DUP2 SLOAD DUP2 LT PUSH2 0x695 JUMPI PUSH2 0x694 PUSH2 0x12B2 JUMP JUMPDEST JUMPDEST SWAP1 PUSH1 0x0 MSTORE PUSH1 0x20 PUSH1 0x0 KECCAK256 SWAP1 PUSH1 0x7 MUL ADD PUSH1 0x4 ADD PUSH1 0x0 SWAP1 SLOAD SWAP1 PUSH2 0x100 EXP SWAP1 DIV PUSH20 0xFFFFFFFFFFFFFFFFFFFFFFFFFFFFFFFFFFFFFFFF AND PUSH20 0xFFFFFFFFFFFFFFFFFFFFFFFFFFFFFFFFFFFFFFFF AND CALLER PUSH20 0xFFFFFFFFFFFFFFFFFFFFFFFFFFFFFFFFFFFFFFFF AND EQ ISZERO PUSH2 0x735 JUMPI PUSH1 0x40 MLOAD PUSH32 0x8C379A000000000000000000000000000000000000000000000000000000000 DUP2 MSTORE PUSH1 0x4 ADD PUSH2 0x72C SWAP1 PUSH2 0xF97 JUMP JUMPDEST PUSH1 0x40 MLOAD DUP1 SWAP2 SUB SWAP1 REVERT JUMPDEST PUSH1 0x1 DUP1 DUP2 GT ISZERO PUSH2 0x748 JUMPI PUSH2 0x747 PUSH2 0x1254 JUMP JUMPDEST JUMPDEST PUSH1 0x0 DUP4 DUP2 SLOAD DUP2 LT PUSH2 0x75C JUMPI PUSH2 0x75B PUSH2 0x12B2 JUMP JUMPDEST JUMPDEST SWAP1 PUSH1 0x0 MSTORE PUSH1 0x20 PUSH1 0x0 KECCAK256 SWAP1 PUSH1 0x7 MUL ADD PUSH1 0x6 ADD PUSH1 0x0 SWAP1 SLOAD SWAP1 PUSH2 0x100 EXP SWAP1 DIV PUSH1 0xFF AND PUSH1 0x1 DUP2 GT ISZERO PUSH2 0x78D JUMPI PUSH2 0x78C PUSH2 0x1254 JUMP JUMPDEST JUMPDEST EQ ISZERO PUSH2 0x7CE JUMPI PUSH1 0x40 MLOAD PUSH32 0x8C379A000000000000000000000000000000000000000000000000000000000 DUP2 MSTORE PUSH1 0x4 ADD PUSH2 0x7C5 SWAP1 PUSH2 0xFD7 JUMP JUMPDEST PUSH1 0x40 MLOAD DUP1 SWAP2 SUB SWAP1 REVERT JUMPDEST PUSH1 0x0 CALLVALUE GT PUSH2 0x811 JUMPI PUSH1 0x40 MLOAD PUSH32 0x8C379A000000000000000000000000000000000000000000000000000000000 DUP2 MSTORE PUSH1 0x4 ADD PUSH2 0x808 SWAP1 PUSH2 0x1017 JUMP JUMPDEST PUSH1 0x40 MLOAD DUP1 SWAP2 SUB SWAP1 REVERT JUMPDEST PUSH1 0x0 DUP3 DUP2 SLOAD DUP2 LT PUSH2 0x825 JUMPI PUSH2 0x824 PUSH2 0x12B2 JUMP JUMPDEST JUMPDEST SWAP1 PUSH1 0x0 MSTORE PUSH1 0x20 PUSH1 0x0 KECCAK256 SWAP1 PUSH1 0x7 MUL ADD PUSH1 0x4 ADD PUSH1 0x0 SWAP1 SLOAD SWAP1 PUSH2 0x100 EXP SWAP1 DIV PUSH20 0xFFFFFFFFFFFFFFFFFFFFFFFFFFFFFFFFFFFFFFFF AND PUSH20 0xFFFFFFFFFFFFFFFFFFFFFFFFFFFFFFFFFFFFFFFF AND PUSH2 0x8FC CALLVALUE SWAP1 DUP2 ISZERO MUL SWAP1 PUSH1 0x40 MLOAD PUSH1 0x0 PUSH1 0x40 MLOAD DUP1 DUP4 SUB DUP2 DUP6 DUP9 DUP9 CALL SWAP4 POP POP POP POP ISZERO DUP1 ISZERO PUSH2 0x89C JUMPI RETURNDATASIZE PUSH1 0x0 DUP1 RETURNDATACOPY RETURNDATASIZE PUSH1 0x0 REVERT JUMPDEST POP CALLVALUE PUSH1 0x0 DUP4 DUP2 SLOAD DUP2 LT PUSH2 0x8B2 JUMPI PUSH2 0x8B1 PUSH2 0x12B2 JUMP JUMPDEST JUMPDEST SWAP1 PUSH1 0x0 MSTORE PUSH1 0x20 PUSH1 0x0 KECCAK256 SWAP1 PUSH1 0x7 MUL ADD PUSH1 0x5 ADD PUSH1 0x0 DUP3 DUP3 SLOAD PUSH2 0x8D2 SWAP2 SWAP1 PUSH2 0x10C9 JUMP JUMPDEST SWAP3 POP POP DUP2 SWAP1 SSTORE POP PUSH1 0x1 PUSH1 0x0 DUP4 DUP2 SLOAD DUP2 LT PUSH2 0x8EF JUMPI PUSH2 0x8EE PUSH2 0x12B2 JUMP JUMPDEST JUMPDEST SWAP1 PUSH1 0x0 MSTORE PUSH1 0x20 PUSH1 0x0 KECCAK256 SWAP1 PUSH1 0x7 MUL ADD PUSH1 0x0 ADD PUSH1 0x40 MLOAD PUSH2 0x90D SWAP2 SWAP1 PUSH2 0xE9C JUMP JUMPDEST SWAP1 DUP2 MSTORE PUSH1 0x20 ADD PUSH1 0x40 MLOAD DUP1 SWAP2 SUB SWAP1 KECCAK256 PUSH1 0x40 MLOAD DUP1 PUSH1 0x40 ADD PUSH1 0x40 MSTORE DUP1 CALLER PUSH20 0xFFFFFFFFFFFFFFFFFFFFFFFFFFFFFFFFFFFFFFFF AND DUP2 MSTORE PUSH1 0x20 ADD CALLVALUE DUP2 MSTORE POP SWAP1 DUP1 PUSH1 0x1 DUP2 SLOAD ADD DUP1 DUP3 SSTORE DUP1 SWAP2 POP POP PUSH1 0x1 SWAP1 SUB SWAP1 PUSH1 0x0 MSTORE PUSH1 0x20 PUSH1 0x0 KECCAK256 SWAP1 PUSH1 0x2 MUL ADD PUSH1 0x0 SWAP1 SWAP2 SWAP1 SWAP2 SWAP1 SWAP2 POP PUSH1 0x0 DUP3 ADD MLOAD DUP2 PUSH1 0x0 ADD PUSH1 0x0 PUSH2 0x100 EXP DUP2 SLOAD DUP2 PUSH20 0xFFFFFFFFFFFFFFFFFFFFFFFFFFFFFFFFFFFFFFFF MUL NOT AND SWAP1 DUP4 PUSH20 0xFFFFFFFFFFFFFFFFFFFFFFFFFFFFFFFFFFFFFFFF AND MUL OR SWAP1 SSTORE POP PUSH1 0x20 DUP3 ADD MLOAD DUP2 PUSH1 0x1 ADD SSTORE POP POP PUSH32 0x98A99E594DC0943C255BF9563AE2C4DA6FFCFD06F78B396B88988548AC825BA8 PUSH1 0x0 DUP4 DUP2 SLOAD DUP2 LT PUSH2 0x9F7 JUMPI PUSH2 0x9F6 PUSH2 0x12B2 JUMP JUMPDEST JUMPDEST SWAP1 PUSH1 0x0 MSTORE PUSH1 0x20 PUSH1 0x0 KECCAK256 SWAP1 PUSH1 0x7 MUL ADD PUSH1 0x0 ADD CALLVALUE PUSH1 0x40 MLOAD PUSH2 0xA17 SWAP3 SWAP2 SWAP1 PUSH2 0xF67 JUMP JUMPDEST PUSH1 0x40 MLOAD DUP1 SWAP2 SUB SWAP1 LOG1 POP POP JUMP JUMPDEST DUP3 DUP1 SLOAD PUSH2 0xA2F SWAP1 PUSH2 0x11C2 JUMP JUMPDEST SWAP1 PUSH1 0x0 MSTORE PUSH1 0x20 PUSH1 0x0 KECCAK256 SWAP1 PUSH1 0x1F ADD PUSH1 0x20 SWAP1 DIV DUP2 ADD SWAP3 DUP3 PUSH2 0xA51 JUMPI PUSH1 0x0 DUP6 SSTORE PUSH2 0xA98 JUMP JUMPDEST DUP3 PUSH1 0x1F LT PUSH2 0xA6A JUMPI DUP1 MLOAD PUSH1 0xFF NOT AND DUP4 DUP1 ADD OR DUP6 SSTORE PUSH2 0xA98 JUMP JUMPDEST DUP3 DUP1 ADD PUSH1 0x1 ADD DUP6 SSTORE DUP3 ISZERO PUSH2 0xA98 JUMPI SWAP2 DUP3 ADD JUMPDEST DUP3 DUP2 GT ISZERO PUSH2 0xA97 JUMPI DUP3 MLOAD DUP3 SSTORE SWAP2 PUSH1 0x20 ADD SWAP2 SWAP1 PUSH1 0x1 ADD SWAP1 PUSH2 0xA7C JUMP JUMPDEST JUMPDEST POP SWAP1 POP PUSH2 0xAA5 SWAP2 SWAP1 PUSH2 0xAA9 JUMP JUMPDEST POP SWAP1 JUMP JUMPDEST JUMPDEST DUP1 DUP3 GT ISZERO PUSH2 0xAC2 JUMPI PUSH1 0x0 DUP2 PUSH1 0x0 SWAP1 SSTORE POP PUSH1 0x1 ADD PUSH2 0xAAA JUMP JUMPDEST POP SWAP1 JUMP JUMPDEST PUSH1 0x0 PUSH2 0xAD9 PUSH2 0xAD4 DUP5 PUSH2 0x105C JUMP JUMPDEST PUSH2 0x1037 JUMP JUMPDEST SWAP1 POP DUP3 DUP2 MSTORE PUSH1 0x20 DUP2 ADD DUP5 DUP5 DUP5 ADD GT ISZERO PUSH2 0xAF5 JUMPI PUSH2 0xAF4 PUSH2 0x1315 JUMP JUMPDEST JUMPDEST PUSH2 0xB00 DUP5 DUP3 DUP6 PUSH2 0x1180 JUMP JUMPDEST POP SWAP4 SWAP3 POP POP POP JUMP JUMPDEST PUSH1 0x0 DUP2 CALLDATALOAD SWAP1 POP PUSH2 0xB17 DUP2 PUSH2 0x14AE JUMP JUMPDEST SWAP3 SWAP2 POP POP JUMP JUMPDEST PUSH1 0x0 DUP3 PUSH1 0x1F DUP4 ADD SLT PUSH2 0xB32 JUMPI PUSH2 0xB31 PUSH2 0x1310 JUMP JUMPDEST JUMPDEST DUP2 CALLDATALOAD PUSH2 0xB42 DUP5 DUP3 PUSH1 0x20 DUP7 ADD PUSH2 0xAC6 JUMP JUMPDEST SWAP2 POP POP SWAP3 SWAP2 POP POP JUMP JUMPDEST PUSH1 0x0 DUP2 CALLDATALOAD SWAP1 POP PUSH2 0xB5A DUP2 PUSH2 0x14BE JUMP JUMPDEST SWAP3 SWAP2 POP POP JUMP JUMPDEST PUSH1 0x0 DUP1 PUSH1 0x0 DUP1 PUSH1 0x80 DUP6 DUP8 SUB SLT ISZERO PUSH2 0xB7A JUMPI PUSH2 0xB79 PUSH2 0x131F JUMP JUMPDEST JUMPDEST PUSH1 0x0 DUP6 ADD CALLDATALOAD PUSH8 0xFFFFFFFFFFFFFFFF DUP2 GT ISZERO PUSH2 0xB98 JUMPI PUSH2 0xB97 PUSH2 0x131A JUMP JUMPDEST JUMPDEST PUSH2 0xBA4 DUP8 DUP3 DUP9 ADD PUSH2 0xB1D JUMP JUMPDEST SWAP5 POP POP PUSH1 0x20 DUP6 ADD CALLDATALOAD PUSH8 0xFFFFFFFFFFFFFFFF DUP2 GT ISZERO PUSH2 0xBC5 JUMPI PUSH2 0xBC4 PUSH2 0x131A JUMP JUMPDEST JUMPDEST PUSH2 0xBD1 DUP8 DUP3 DUP9 ADD PUSH2 0xB1D JUMP JUMPDEST SWAP4 POP POP PUSH1 0x40 DUP6 ADD CALLDATALOAD PUSH8 0xFFFFFFFFFFFFFFFF DUP2 GT ISZERO PUSH2 0xBF2 JUMPI PUSH2 0xBF1 PUSH2 0x131A JUMP JUMPDEST JUMPDEST PUSH2 0xBFE DUP8 DUP3 DUP9 ADD PUSH2 0xB1D JUMP JUMPDEST SWAP3 POP POP PUSH1 0x60 PUSH2 0xC0F DUP8 DUP3 DUP9 ADD PUSH2 0xB4B JUMP JUMPDEST SWAP2 POP POP SWAP3 SWAP6 SWAP2 SWAP5 POP SWAP3 POP JUMP JUMPDEST PUSH1 0x0 PUSH1 0x20 DUP3 DUP5 SUB SLT ISZERO PUSH2 0xC31 JUMPI PUSH2 0xC30 PUSH2 0x131F JUMP JUMPDEST JUMPDEST PUSH1 0x0 PUSH2 0xC3F DUP5 DUP3 DUP6 ADD PUSH2 0xB4B JUMP JUMPDEST SWAP2 POP POP SWAP3 SWAP2 POP POP JUMP JUMPDEST PUSH1 0x0 DUP1 PUSH1 0x40 DUP4 DUP6 SUB SLT ISZERO PUSH2 0xC5F JUMPI PUSH2 0xC5E PUSH2 0x131F JUMP JUMPDEST JUMPDEST PUSH1 0x0 PUSH2 0xC6D DUP6 DUP3 DUP7 ADD PUSH2 0xB4B JUMP JUMPDEST SWAP3 POP POP PUSH1 0x20 PUSH2 0xC7E DUP6 DUP3 DUP7 ADD PUSH2 0xB08 JUMP JUMPDEST SWAP2 POP POP SWAP3 POP SWAP3 SWAP1 POP JUMP JUMPDEST PUSH2 0xC91 DUP2 PUSH2 0x111F JUMP JUMPDEST DUP3 MSTORE POP POP JUMP JUMPDEST PUSH2 0xCA0 DUP2 PUSH2 0x116E JUMP JUMPDEST DUP3 MSTORE POP POP JUMP JUMPDEST PUSH1 0x0 PUSH2 0xCB1 DUP3 PUSH2 0x10A2 JUMP JUMPDEST PUSH2 0xCBB DUP2 DUP6 PUSH2 0x10AD JUMP JUMPDEST SWAP4 POP PUSH2 0xCCB DUP2 DUP6 PUSH1 0x20 DUP7 ADD PUSH2 0x118F JUMP JUMPDEST PUSH2 0xCD4 DUP2 PUSH2 0x1324 JUMP JUMPDEST DUP5 ADD SWAP2 POP POP SWAP3 SWAP2 POP POP JUMP JUMPDEST PUSH1 0x0 DUP2 SLOAD PUSH2 0xCEC DUP2 PUSH2 0x11C2 JUMP JUMPDEST PUSH2 0xCF6 DUP2 DUP7 PUSH2 0x10AD JUMP JUMPDEST SWAP5 POP PUSH1 0x1 DUP3 AND PUSH1 0x0 DUP2 EQ PUSH2 0xD11 JUMPI PUSH1 0x1 DUP2 EQ PUSH2 0xD23 JUMPI PUSH2 0xD56 JUMP JUMPDEST PUSH1 0xFF NOT DUP4 AND DUP7 MSTORE PUSH1 0x20 DUP7 ADD SWAP4 POP PUSH2 0xD56 JUMP JUMPDEST PUSH2 0xD2C DUP6 PUSH2 0x108D JUMP JUMPDEST PUSH1 0x0 JUMPDEST DUP4 DUP2 LT ISZERO PUSH2 0xD4E JUMPI DUP2 SLOAD DUP2 DUP10 ADD MSTORE PUSH1 0x1 DUP3 ADD SWAP2 POP PUSH1 0x20 DUP2 ADD SWAP1 POP PUSH2 0xD2F JUMP JUMPDEST DUP1 DUP9 ADD SWAP6 POP POP POP JUMPDEST POP POP POP SWAP3 SWAP2 POP POP JUMP JUMPDEST PUSH1 0x0 DUP2 SLOAD PUSH2 0xD6C DUP2 PUSH2 0x11C2 JUMP JUMPDEST PUSH2 0xD76 DUP2 DUP7 PUSH2 0x10BE JUMP JUMPDEST SWAP5 POP PUSH1 0x1 DUP3 AND PUSH1 0x0 DUP2 EQ PUSH2 0xD91 JUMPI PUSH1 0x1 DUP2 EQ PUSH2 0xDA2 JUMPI PUSH2 0xDD5 JUMP JUMPDEST PUSH1 0xFF NOT DUP4 AND DUP7 MSTORE DUP2 DUP7 ADD SWAP4 POP PUSH2 0xDD5 JUMP JUMPDEST PUSH2 0xDAB DUP6 PUSH2 0x108D JUMP JUMPDEST PUSH1 0x0 JUMPDEST DUP4 DUP2 LT ISZERO PUSH2 0xDCD JUMPI DUP2 SLOAD DUP2 DUP10 ADD MSTORE PUSH1 0x1 DUP3 ADD SWAP2 POP PUSH1 0x20 DUP2 ADD SWAP1 POP PUSH2 0xDAE JUMP JUMPDEST DUP4 DUP9 ADD SWAP6 POP POP POP JUMPDEST POP POP POP SWAP3 SWAP2 POP POP JUMP JUMPDEST PUSH1 0x0 PUSH2 0xDEB PUSH1 0x22 DUP4 PUSH2 0x10AD JUMP JUMPDEST SWAP2 POP PUSH2 0xDF6 DUP3 PUSH2 0x1335 JUMP JUMPDEST PUSH1 0x40 DUP3 ADD SWAP1 POP SWAP2 SWAP1 POP JUMP JUMPDEST PUSH1 0x0 PUSH2 0xE0E PUSH1 0x1B DUP4 PUSH2 0x10AD JUMP JUMPDEST SWAP2 POP PUSH2 0xE19 DUP3 PUSH2 0x1384 JUMP JUMPDEST PUSH1 0x20 DUP3 ADD SWAP1 POP SWAP2 SWAP1 POP JUMP JUMPDEST PUSH1 0x0 PUSH2 0xE31 PUSH1 0x24 DUP4 PUSH2 0x10AD JUMP JUMPDEST SWAP2 POP PUSH2 0xE3C DUP3 PUSH2 0x13AD JUMP JUMPDEST PUSH1 0x40 DUP3 ADD SWAP1 POP SWAP2 SWAP1 POP JUMP JUMPDEST PUSH1 0x0 PUSH2 0xE54 PUSH1 0x2F DUP4 PUSH2 0x10AD JUMP JUMPDEST SWAP2 POP PUSH2 0xE5F DUP3 PUSH2 0x13FC JUMP JUMPDEST PUSH1 0x40 DUP3 ADD SWAP1 POP SWAP2 SWAP1 POP JUMP JUMPDEST PUSH1 0x0 PUSH2 0xE77 PUSH1 0x22 DUP4 PUSH2 0x10AD JUMP JUMPDEST SWAP2 POP PUSH2 0xE82 DUP3 PUSH2 0x144B JUMP JUMPDEST PUSH1 0x40 DUP3 ADD SWAP1 POP SWAP2 SWAP1 POP JUMP JUMPDEST PUSH2 0xE96 DUP2 PUSH2 0x1164 JUMP JUMPDEST DUP3 MSTORE POP POP JUMP JUMPDEST PUSH1 0x0 PUSH2 0xEA8 DUP3 DUP5 PUSH2 0xD5F JUMP JUMPDEST SWAP2 POP DUP2 SWAP1 POP SWAP3 SWAP2 POP POP JUMP JUMPDEST PUSH1 0x0 PUSH1 0xE0 DUP3 ADD SWAP1 POP DUP2 DUP2 SUB PUSH1 0x0 DUP4 ADD MSTORE PUSH2 0xECD DUP2 DUP11 PUSH2 0xCA6 JUMP JUMPDEST SWAP1 POP DUP2 DUP2 SUB PUSH1 0x20 DUP4 ADD MSTORE PUSH2 0xEE1 DUP2 DUP10 PUSH2 0xCA6 JUMP JUMPDEST SWAP1 POP DUP2 DUP2 SUB PUSH1 0x40 DUP4 ADD MSTORE PUSH2 0xEF5 DUP2 DUP9 PUSH2 0xCA6 JUMP JUMPDEST SWAP1 POP PUSH2 0xF04 PUSH1 0x60 DUP4 ADD DUP8 PUSH2 0xE8D JUMP JUMPDEST PUSH2 0xF11 PUSH1 0x80 DUP4 ADD DUP7 PUSH2 0xC88 JUMP JUMPDEST PUSH2 0xF1E PUSH1 0xA0 DUP4 ADD DUP6 PUSH2 0xE8D JUMP JUMPDEST PUSH2 0xF2B PUSH1 0xC0 DUP4 ADD DUP5 PUSH2 0xC97 JUMP JUMPDEST SWAP9 SWAP8 POP POP POP POP POP POP POP POP JUMP JUMPDEST PUSH1 0x0 PUSH1 0x40 DUP3 ADD SWAP1 POP DUP2 DUP2 SUB PUSH1 0x0 DUP4 ADD MSTORE PUSH2 0xF51 DUP2 DUP6 PUSH2 0xCDF JUMP JUMPDEST SWAP1 POP PUSH2 0xF60 PUSH1 0x20 DUP4 ADD DUP5 PUSH2 0xC97 JUMP JUMPDEST SWAP4 SWAP3 POP POP POP JUMP JUMPDEST PUSH1 0x0 PUSH1 0x40 DUP3 ADD SWAP1 POP DUP2 DUP2 SUB PUSH1 0x0 DUP4 ADD MSTORE PUSH2 0xF81 DUP2 DUP6 PUSH2 0xCDF JUMP JUMPDEST SWAP1 POP PUSH2 0xF90 PUSH1 0x20 DUP4 ADD DUP5 PUSH2 0xE8D JUMP JUMPDEST SWAP4 SWAP3 POP POP POP JUMP JUMPDEST PUSH1 0x0 PUSH1 0x20 DUP3 ADD SWAP1 POP DUP2 DUP2 SUB PUSH1 0x0 DUP4 ADD MSTORE PUSH2 0xFB0 DUP2 PUSH2 0xDDE JUMP JUMPDEST SWAP1 POP SWAP2 SWAP1 POP JUMP JUMPDEST PUSH1 0x0 PUSH1 0x20 DUP3 ADD SWAP1 POP DUP2 DUP2 SUB PUSH1 0x0 DUP4 ADD MSTORE PUSH2 0xFD0 DUP2 PUSH2 0xE01 JUMP JUMPDEST SWAP1 POP SWAP2 SWAP1 POP JUMP JUMPDEST PUSH1 0x0 PUSH1 0x20 DUP3 ADD SWAP1 POP DUP2 DUP2 SUB PUSH1 0x0 DUP4 ADD MSTORE PUSH2 0xFF0 DUP2 PUSH2 0xE24 JUMP JUMPDEST SWAP1 POP SWAP2 SWAP1 POP JUMP JUMPDEST PUSH1 0x0 PUSH1 0x20 DUP3 ADD SWAP1 POP DUP2 DUP2 SUB PUSH1 0x0 DUP4 ADD MSTORE PUSH2 0x1010 DUP2 PUSH2 0xE47 JUMP JUMPDEST SWAP1 POP SWAP2 SWAP1 POP JUMP JUMPDEST PUSH1 0x0 PUSH1 0x20 DUP3 ADD SWAP1 POP DUP2 DUP2 SUB PUSH1 0x0 DUP4 ADD MSTORE PUSH2 0x1030 DUP2 PUSH2 0xE6A JUMP JUMPDEST SWAP1 POP SWAP2 SWAP1 POP JUMP JUMPDEST PUSH1 0x0 PUSH2 0x1041 PUSH2 0x1052 JUMP JUMPDEST SWAP1 POP PUSH2 0x104D DUP3 DUP3 PUSH2 0x11F4 JUMP JUMPDEST SWAP2 SWAP1 POP JUMP JUMPDEST PUSH1 0x0 PUSH1 0x40 MLOAD SWAP1 POP SWAP1 JUMP JUMPDEST PUSH1 0x0 PUSH8 0xFFFFFFFFFFFFFFFF DUP3 GT ISZERO PUSH2 0x1077 JUMPI PUSH2 0x1076 PUSH2 0x12E1 JUMP JUMPDEST JUMPDEST PUSH2 0x1080 DUP3 PUSH2 0x1324 JUMP JUMPDEST SWAP1 POP PUSH1 0x20 DUP2 ADD SWAP1 POP SWAP2 SWAP1 POP JUMP JUMPDEST PUSH1 0x0 DUP2 SWAP1 POP DUP2 PUSH1 0x0 MSTORE PUSH1 0x20 PUSH1 0x0 KECCAK256 SWAP1 POP SWAP2 SWAP1 POP JUMP JUMPDEST PUSH1 0x0 DUP2 MLOAD SWAP1 POP SWAP2 SWAP1 POP JUMP JUMPDEST PUSH1 0x0 DUP3 DUP3 MSTORE PUSH1 0x20 DUP3 ADD SWAP1 POP SWAP3 SWAP2 POP POP JUMP JUMPDEST PUSH1 0x0 DUP2 SWAP1 POP SWAP3 SWAP2 POP POP JUMP JUMPDEST PUSH1 0x0 PUSH2 0x10D4 DUP3 PUSH2 0x1164 JUMP JUMPDEST SWAP2 POP PUSH2 0x10DF DUP4 PUSH2 0x1164 JUMP JUMPDEST SWAP3 POP DUP3 PUSH32 0xFFFFFFFFFFFFFFFFFFFFFFFFFFFFFFFFFFFFFFFFFFFFFFFFFFFFFFFFFFFFFFFF SUB DUP3 GT ISZERO PUSH2 0x1114 JUMPI PUSH2 0x1113 PUSH2 0x1225 JUMP JUMPDEST JUMPDEST DUP3 DUP3 ADD SWAP1 POP SWAP3 SWAP2 POP POP JUMP JUMPDEST PUSH1 0x0 PUSH2 0x112A DUP3 PUSH2 0x1144 JUMP JUMPDEST SWAP1 POP SWAP2 SWAP1 POP JUMP JUMPDEST PUSH1 0x0 DUP2 SWAP1 POP PUSH2 0x113F DUP3 PUSH2 0x149A JUMP JUMPDEST SWAP2 SWAP1 POP JUMP JUMPDEST PUSH1 0x0 PUSH20 0xFFFFFFFFFFFFFFFFFFFFFFFFFFFFFFFFFFFFFFFF DUP3 AND SWAP1 POP SWAP2 SWAP1 POP JUMP JUMPDEST PUSH1 0x0 DUP2 SWAP1 POP SWAP2 SWAP1 POP JUMP JUMPDEST PUSH1 0x0 PUSH2 0x1179 DUP3 PUSH2 0x1131 JUMP JUMPDEST SWAP1 POP SWAP2 SWAP1 POP JUMP JUMPDEST DUP3 DUP2 DUP4 CALLDATACOPY PUSH1 0x0 DUP4 DUP4 ADD MSTORE POP POP POP JUMP JUMPDEST PUSH1 0x0 JUMPDEST DUP4 DUP2 LT ISZERO PUSH2 0x11AD JUMPI DUP1 DUP3 ADD MLOAD DUP2 DUP5 ADD MSTORE PUSH1 0x20 DUP2 ADD SWAP1 POP PUSH2 0x1192 JUMP JUMPDEST DUP4 DUP2 GT ISZERO PUSH2 0x11BC JUMPI PUSH1 0x0 DUP5 DUP5 ADD MSTORE JUMPDEST POP POP POP POP JUMP JUMPDEST PUSH1 0x0 PUSH1 0x2 DUP3 DIV SWAP1 POP PUSH1 0x1 DUP3 AND DUP1 PUSH2 0x11DA JUMPI PUSH1 0x7F DUP3 AND SWAP2 POP JUMPDEST PUSH1 0x20 DUP3 LT DUP2 EQ ISZERO PUSH2 0x11EE JUMPI PUSH2 0x11ED PUSH2 0x1283 JUMP JUMPDEST JUMPDEST POP SWAP2 SWAP1 POP JUMP JUMPDEST PUSH2 0x11FD DUP3 PUSH2 0x1324 JUMP JUMPDEST DUP2 ADD DUP2 DUP2 LT PUSH8 0xFFFFFFFFFFFFFFFF DUP3 GT OR ISZERO PUSH2 0x121C JUMPI PUSH2 0x121B PUSH2 0x12E1 JUMP JUMPDEST JUMPDEST DUP1 PUSH1 0x40 MSTORE POP POP POP JUMP JUMPDEST PUSH32 0x4E487B7100000000000000000000000000000000000000000000000000000000 PUSH1 0x0 MSTORE PUSH1 0x11 PUSH1 0x4 MSTORE PUSH1 0x24 PUSH1 0x0 REVERT JUMPDEST PUSH32 0x4E487B7100000000000000000000000000000000000000000000000000000000 PUSH1 0x0 MSTORE PUSH1 0x21 PUSH1 0x4 MSTORE PUSH1 0x24 PUSH1 0x0 REVERT JUMPDEST PUSH32 0x4E487B7100000000000000000000000000000000000000000000000000000000 PUSH1 0x0 MSTORE PUSH1 0x22 PUSH1 0x4 MSTORE PUSH1 0x24 PUSH1 0x0 REVERT JUMPDEST PUSH32 0x4E487B7100000000000000000000000000000000000000000000000000000000 PUSH1 0x0 MSTORE PUSH1 0x32 PUSH1 0x4 MSTORE PUSH1 0x24 PUSH1 0x0 REVERT JUMPDEST PUSH32 0x4E487B7100000000000000000000000000000000000000000000000000000000 PUSH1 0x0 MSTORE PUSH1 0x41 PUSH1 0x4 MSTORE PUSH1 0x24 PUSH1 0x0 REVERT JUMPDEST PUSH1 0x0 DUP1 REVERT JUMPDEST PUSH1 0x0 DUP1 REVERT JUMPDEST PUSH1 0x0 DUP1 REVERT JUMPDEST PUSH1 0x0 DUP1 REVERT JUMPDEST PUSH1 0x0 PUSH1 0x1F NOT PUSH1 0x1F DUP4 ADD AND SWAP1 POP SWAP2 SWAP1 POP JUMP JUMPDEST PUSH32 0x54686520617574686F722063616E6E6F742066756E64207468652070726F6A65 PUSH1 0x0 DUP3 ADD MSTORE PUSH32 0x6374000000000000000000000000000000000000000000000000000000000000 PUSH1 0x20 DUP3 ADD MSTORE POP JUMP JUMPDEST PUSH32 0x4E6577207374617465206D75737420626520646966666572656E740000000000 PUSH1 0x0 DUP3 ADD MSTORE POP JUMP JUMPDEST PUSH32 0x5468652066756E64696E67206F66207468652070726F6A65637420697320636C PUSH1 0x0 DUP3 ADD MSTORE PUSH32 0x6F73656400000000000000000000000000000000000000000000000000000000 PUSH1 0x20 DUP3 ADD MSTORE POP JUMP JUMPDEST PUSH32 0x4F6E6C7920617574686F722063616E206368616E676520746865207374617465 PUSH1 0x0 DUP3 ADD MSTORE PUSH32 0x206F66207468652070726F6A6563740000000000000000000000000000000000 PUSH1 0x20 DUP3 ADD MSTORE POP JUMP JUMPDEST PUSH32 0x66756E6472616973696E67206D7573742062652067726561746572207468616E PUSH1 0x0 DUP3 ADD MSTORE PUSH32 0x2030000000000000000000000000000000000000000000000000000000000000 PUSH1 0x20 DUP3 ADD MSTORE POP JUMP JUMPDEST PUSH1 0x2 DUP2 LT PUSH2 0x14AB JUMPI PUSH2 0x14AA PUSH2 0x1254 JUMP JUMPDEST JUMPDEST POP JUMP JUMPDEST PUSH1 0x2 DUP2 LT PUSH2 0x14BB JUMPI PUSH1 0x0 DUP1 REVERT JUMPDEST POP JUMP JUMPDEST PUSH2 0x14C7 DUP2 PUSH2 0x1164 JUMP JUMPDEST DUP2 EQ PUSH2 0x14D2 JUMPI PUSH1 0x0 DUP1 REVERT JUMPDEST POP JUMP INVALID LOG2 PUSH5 0x6970667358 0x22 SLT KECCAK256 SDIV REVERT MOD 0xE9 CALLER PUSH25 0xD0EC461449E6ED19DDA180D1089FAA2E94E25CEF55E1501E9B DUP6 PUSH5 0x736F6C6343 STOP ADDMOD SMOD STOP CALLER "
				},
				"gasEstimates": {
					"creation": {
						"codeDepositCost": "1077400",
						"executionCost": "1120",
						"totalCost": "1078520"
					},
					"external": {
						"changeProjectState(uint256,uint8)": "infinite",
						"createProject(string,string,string,uint256)": "infinite",
						"fundProject(uint256)": "infinite",
						"projects(uint256)": "infinite"
					}
				},
				"methodIdentifiers": {
					"changeProjectState(uint256,uint8)": "17e925d7",
					"createProject(string,string,string,uint256)": "1ca73896",
					"fundProject(uint256)": "6c563abe",
					"projects(uint256)": "107046bd"
				}
			},
			"storageLayout": {
				"storage": [
					{
						"astId": 29,
						"contract": "contracts/project.sol:CrowdFunding",
						"label": "projects",
						"offset": 0,
						"slot": "0",
						"type": "t_array(t_struct(Project)20_storage)dyn_storage"
					},
					{
						"astId": 35,
						"contract": "contracts/project.sol:CrowdFunding",
						"label": "contributions",
						"offset": 0,
						"slot": "1",
						"type": "t_mapping(t_string_memory_ptr,t_array(t_struct(Contribution)25_storage)dyn_storage)"
					}
				],
				"types": {
					"t_address": {
						"encoding": "inplace",
						"label": "address",
						"numberOfBytes": "20"
					},
					"t_address_payable": {
						"encoding": "inplace",
						"label": "address payable",
						"numberOfBytes": "20"
					},
					"t_array(t_struct(Contribution)25_storage)dyn_storage": {
						"base": "t_struct(Contribution)25_storage",
						"encoding": "dynamic_array",
						"label": "struct CrowdFunding.Contribution[]",
						"numberOfBytes": "32"
					},
					"t_array(t_struct(Project)20_storage)dyn_storage": {
						"base": "t_struct(Project)20_storage",
						"encoding": "dynamic_array",
						"label": "struct CrowdFunding.Project[]",
						"numberOfBytes": "32"
					},
					"t_enum(State)4": {
						"encoding": "inplace",
						"label": "enum CrowdFunding.State",
						"numberOfBytes": "1"
					},
					"t_mapping(t_string_memory_ptr,t_array(t_struct(Contribution)25_storage)dyn_storage)": {
						"encoding": "mapping",
						"key": "t_string_memory_ptr",
						"label": "mapping(string => struct CrowdFunding.Contribution[])",
						"numberOfBytes": "32",
						"value": "t_array(t_struct(Contribution)25_storage)dyn_storage"
					},
					"t_string_memory_ptr": {
						"encoding": "bytes",
						"label": "string",
						"numberOfBytes": "32"
					},
					"t_string_storage": {
						"encoding": "bytes",
						"label": "string",
						"numberOfBytes": "32"
					},
					"t_struct(Contribution)25_storage": {
						"encoding": "inplace",
						"label": "struct CrowdFunding.Contribution",
						"members": [
							{
								"astId": 22,
								"contract": "contracts/project.sol:CrowdFunding",
								"label": "contributor",
								"offset": 0,
								"slot": "0",
								"type": "t_address"
							},
							{
								"astId": 24,
								"contract": "contracts/project.sol:CrowdFunding",
								"label": "value",
								"offset": 0,
								"slot": "1",
								"type": "t_uint256"
							}
						],
						"numberOfBytes": "64"
					},
					"t_struct(Project)20_storage": {
						"encoding": "inplace",
						"label": "struct CrowdFunding.Project",
						"members": [
							{
								"astId": 6,
								"contract": "contracts/project.sol:CrowdFunding",
								"label": "id",
								"offset": 0,
								"slot": "0",
								"type": "t_string_storage"
							},
							{
								"astId": 8,
								"contract": "contracts/project.sol:CrowdFunding",
								"label": "name",
								"offset": 0,
								"slot": "1",
								"type": "t_string_storage"
							},
							{
								"astId": 10,
								"contract": "contracts/project.sol:CrowdFunding",
								"label": "description",
								"offset": 0,
								"slot": "2",
								"type": "t_string_storage"
							},
							{
								"astId": 12,
								"contract": "contracts/project.sol:CrowdFunding",
								"label": "goal",
								"offset": 0,
								"slot": "3",
								"type": "t_uint256"
							},
							{
								"astId": 14,
								"contract": "contracts/project.sol:CrowdFunding",
								"label": "author",
								"offset": 0,
								"slot": "4",
								"type": "t_address_payable"
							},
							{
								"astId": 16,
								"contract": "contracts/project.sol:CrowdFunding",
								"label": "funds",
								"offset": 0,
								"slot": "5",
								"type": "t_uint256"
							},
							{
								"astId": 19,
								"contract": "contracts/project.sol:CrowdFunding",
								"label": "state",
								"offset": 0,
								"slot": "6",
								"type": "t_enum(State)4"
							}
						],
						"numberOfBytes": "224"
					},
					"t_uint256": {
						"encoding": "inplace",
						"label": "uint256",
						"numberOfBytes": "32"
					}
				}
			},
			"userdoc": {
				"kind": "user",
				"methods": {},
				"version": 1
			}
		}
	}
}